:04000005000080C1B6
:020000040000FA
:10800000102500200D83000015830000DD93000083
:10801000000000000000000000000000F140FEDF52
:108020008F9E939B01999697F3000000BD810000FD
:10803000000000000000000061820000C18200001A
:108040001F8300001F8300001F8300001F830000A8
:108050001F8300001F8300001F8300001F83000098
:108060001F8300001F8300001F8300001F83000088
:108070001F830000A59A00001F8300001F830000DB
:108080001F8300001F8300001F8300001F83000068
:108090001F8300001F8300001F8300001F83000058
:1080A000819B00001F8300001F8300001F830000CE
:1080B0001F8300001F8300001F8300001F83000038
:1080C00000F002F800F032F80CA030C8083824188C
:1080D0002D18A246671EAB4654465D46AC4201D100
:1080E00000F024F87E460F3E0FCCB6460126334200
:1080F00000D0FB1AA246AB463343184724A8000021
:1081000044A800000023002400250026103A01D3D3
:1081100078C1FBD8520700D330C100D50B6070473F
:108120001FB5C046C0461FBD10B510BD00F074FBA2
:108130001146FFF7F5FF05F0B9FC00F08CFB03B426
:10814000FFF7F2FF03BC00F03DFB000080F309885D
:108150007047EFF309807047684680F30988064846
:108160000078C00703D1032080F3148870470220F1
:1081700080F3148870470000B8190100064B9C4634
:10818000EFF305831B0605D1EFF31483DB0701D062
:1081900000DF70476047000031EA0000064B9C4654
:1081A000EFF305831B0605D1EFF31483DB0701D042
:1081B00000DF70476047000045EC0000EFF30980E6
:1081C0008169891E0978002933D1A6461FC8A446B3
:1081D0007446E0471F4B06CB914224D0083B002950
:1081E00010D00CB4203101234B70EFF30983203BF6
:1081F0004B60F0C344464D4656465F46F0C306F01A
:10820000FDFF0CBC1A60203253681033F0CBA0463F
:10821000A946B246BB4683F30988203BF0CB507891
:10822000002803D01078EFF3098318600223DB43A2
:10823000184710B5084A1268914209D8074C8900BE
:108240006458A6461FC8A446F047EFF309840FC43C
:1082500010BD000050F1FF1FDC880000DC8800002A
:1082600006F06CFE154B06CB914223D0083B0CB4B4
:10827000203100234B70EFF30983203B4B60F0C3A8
:1082800044464D4656465F46F0C306F0B7FF0CBC69
:108290001A60203253681033F0CBA046A946B2468C
:1082A000BB4683F30988203BF0CB5078002801D0EF
:1082B000107818610223DB431847000050F1FF1FBC
:1082C00007F054F8CEE7000005F0C6FD07F04EF8C1
:1082D000C8E7000070B505460C46164602E00FCC14
:1082E0000FC5103E102EFAD2082E02D303CC03C5C0
:1082F000083E042E07D301CC01C5361F03E02178C8
:108300002970641C6D1C761EF9D270BD0748804729
:1083100007480047FEE7FEE7FEE7FEE7FEE7FEE769
:1083200004480549054A064B704700000D9A0000B5
:10833000C180000010230020102500201024002000
:108340001024002000487047AC220020002000F0DC
:108350003FFAFFF7E9FE012000F034FA034610B5BA
:108360000B439B070FD1042A0DD308C810C9121F55
:10837000A342F8D018BA21BA884201D9012010BD11
:108380000020C04310BD002A03D0D30703D0521CE5
:1083900007E0002010BD03780C78401C491C1B1B13
:1083A00007D103780C78401C491C1B1B01D1921E7D
:1083B000F1D1184610BD000030B5441C03E001782F
:1083C000401C00290DD08107F9D10B4BDD0104C8F9
:1083D000D11A91432940FAD0001B0A0603D0C01ECF
:1083E00030BD001B30BD0A0401D0801E30BD090223
:1083F000FCD0401E30BD00000101010170477047F4
:10840000FFFFFFFFFFFFFFFFFFFFFFFFFEFFFFFF7D
:108410000346F0B50B439B072DD1244DEF01042AF1
:1084200029D308C810C9121F5E1B9E433E4017D0B7
:10843000D8B2E1B2401A3106014310D198B2A1B2CC
:10844000401A310401430AD118022102000A090A24
:10845000401A3102014302D1180E210E401AF0BD1C
:10846000A342DCD018BA21BA884201D90120F0BD5C
:108470000020C043F0BD002A01D10020F0BD0378E8
:108480000C78401C491C002B0DD0A3420BD1521E6E
:1084900009D003780C78401C491C002B03D0A34260
:1084A00001D1521EEBD1181BF0BD000001010101EA
:1084B000421E521C1378002BFBD10B78491C137001
:1084C000521C002BF9D17047F8B5042A2CD383072E
:1084D00012D00B78491C0370401C521E83070BD02E
:1084E0000B78491C0370401C521E830704D00B7884
:1084F000491C0370401C521E8B079B0F05D0C91AE4
:10850000DF002023DE1B08C90AE0FFF7E3FEF8BD09
:108510001D4608C9FD401C46B4402C4310C0121F24
:10852000042AF5D2F308C91A521EF0D40B78491C5C
:108530000370401C521EEAD40B78491C0370401C87
:10854000521EE4D409780170F8BD431A70B5934205
:108550001BD28918801804E0491E521E0B78401E59
:1085600003709307F8D106E010390B461038103A23
:1085700078CB78C01038102AF6D203E0001F091F0C
:108580000B680360121FF9D570BDFFF7A3FE70BD25
:10859000F8B5064614460843800707D0751AA54269
:1085A00019D20819102D13D2311907E03046FFF700
:1085B000CCFFF8BD401E491E02780A70641EF9D235
:1085C000F8BD471B2A463946FFF77EFF641B384635
:1085D000A542F6D3011B22463046FFF775FFF8BDD2
:1085E000D2B210B513029A1813049A1800F00EF8BC
:1085F00010BD01E004C0091F0429FBD28B0701D57F
:108600000280801CC90700D00270704700290BD07F
:10861000C30702D00270401C491E022904D38307FD
:1086200002D50280801C891EE3E70022EEE70022CB
:10863000DFE70378C2781946437812061B02194314
:108640008378C0781B04194311430902090A000604
:1086500008437047020A08704A70020C8A70020EC2
:10866000CA707047002203098B422CD3030A8B4245
:1086700011D300239C464EE003460B433CD400221A
:1086800043088B4231D303098B421CD3030A8B422C
:1086900001D394463FE0C3098B4201D3CB01C01AFA
:1086A000524183098B4201D38B01C01A52414309C5
:1086B0008B4201D34B01C01A524103098B4201D3B3
:1086C0000B01C01A5241C3088B4201D3CB00C01A20
:1086D000524183088B4201D38B00C01A5241430898
:1086E0008B4201D34B00C01A5241411A00D20146BD
:1086F0005241104670475DE0CA0F00D04942031056
:1087000000D34042534000229C4603098B422DD3A4
:10871000030A8B4212D3FC22890112BA030A8B424C
:108720000CD3890192118B4208D3890192118B429B
:1087300004D389013AD0921100E08909C3098B4220
:1087400001D3CB01C01A524183098B4201D38B0163
:10875000C01A524143098B4201D34B01C01A524106
:1087600003098B4201D30B01C01A5241C3088B424B
:1087700001D3CB00C01A524183088B4201D38B0036
:10878000C01A5241D9D243088B4201D34B00C01AC0
:108790005241411A00D20146634652415B101046D5
:1087A00001D34042002B00D54942704763465B101D
:1087B00000D3404201B50020C046C04602BD70470C
:1087C0007047704701491820ABBEFEE72600020043
:1087D00010B500F009F800F001F810BD10B5002840
:1087E00001D0FFF7EFFF10BD10B5002102A000F08F
:1087F00038F8012010BD0000534947414252543A15
:108800002041626E6F726D616C207465726D696E6D
:108810006174696F6E0000007546FFF793FDAE4608
:10882000050069465346C008C000854618B020B50B
:10883000FFF776FD60BC00274908B6460026C0C594
:10884000C0C5C0C5C0C5C0C5C0C5C0C5C0C5403D08
:1088500049008D4670470446C046C0462046FFF793
:108860006EFC70B505460C460A2000E06D1C00F059
:1088700012F8002D06D028780028F7D102E0641CF9
:1088800000F009F8002C02D020780028F7D10A2047
:1088900000F001F870BD08B5694608700320ABBE52
:1088A00008BD30B58C180278401C13071B0F01D18E
:1088B0000378401C120906D10278401C03E00578B9
:1088C000401C0D70491C5B1EF9D101E00B70491C66
:1088D000521EFBD1A142E6D3002030BD00000000B3
:1088E00070B50078002805D0012803D0002008705A
:1088F000012070BD0A48012404700A482025456003
:10890000402646608215426043692B4343614369B8
:10891000334343614369134343610C70E8E700004C
:1089200050F2FF1F80F00F40F8B502781346803BED
:108930001F2B02D800F0D0F8F8BD0A7002784C1C4A
:10894000401C00250126FF276049130003F02AFC84
:10895000170D3943477D8A95B9A1565EB9B9B9B9A2
:10896000B961656974A4A4A4B9000078631C0021EE
:10897000052823D008DC012820D002281ED0032897
:108980001CD004281AD108E0062817D0F0280BD0F4
:10899000FE2810D0FF2811D108E004224C491846C7
:1089A000FFF792FD042109E01E7006E040201870D8
:1089B0005D70022102E00520187001212170881CE1
:1089C000F8BD0078002803D0012801D0277000E00E
:1089D0002570012073E02146FFF782FF6FE03D48DC
:1089E0000D704169202291434161426940218A43CF
:1089F0004261426981158A4342615EE041780278B2
:108A0000080210430001401EFDD156E0657025703C
:108A10002DE0214600F0A4FA51E0214600F074FA5E
:108A20004DE00278401C002A01D1FF2201320146AC
:108A3000104600F0C5FF40E000788207920F521CFC
:108A400040070A75C00F487537E002780A728278CD
:108A5000437812021A434A810279C37810021843FC
:108A600088812AE00978012903D0257065700220E9
:108A700025E0214600F04AF821E00978012904D0D8
:108A800025706570A570032019E0214600F0ACF94F
:108A900015E00978012902D027700220F8BD0746A9
:108AA000401CFFF7C6FD39790002000A0906084399
:108AB00000906946002000F011FD25703046401CF2
:108AC000F8BD203CE7770120F8BD000050F2FF1F01
:108AD0000C19010080F00F4070B500780C4680281A
:108AE00003D0FF200870012070BD04F05FFE064631
:108AF000FFF762FCC5B28020207065702A463146BF
:108B0000A01CFFF7E1FCA81C70BD0000F0B50546F5
:108B100087B000208C1C0391B1490290087000902E
:108B200069780746AD1C04911AE12E786D1CB107D7
:108B300071D5002F32D0AB484089009011203040D1
:108B4000012807D0A64F01A90E2000F0C7FC02287B
:108B500010D017E001A9304600F0C0FC022812D165
:108B60000099491E0091491C03D09D4909780029AC
:108B7000F0D02BE10099491E0091491C02D03978B0
:108B80000029E0D000270128F3D1019921700A0AB9
:108B900062700A0CA270090EE170241DF10657D50F
:108BA0002846FFF746FDE9780002000A0906084357
:108BB00006908C482D1D80890590F00715D08948B6
:108BC000408900900021304600F088FC022802D045
:108BD0000128CED109E00099491E0091491CC8D056
:108BE0007F4909780029EDD0F0E07E484089009067
:108BF00001A9304600F072FC022802D001281BD1E6
:108C00000AE00099491E0091491C15D07449097861
:108C10000029EDD010E055E07249019A0969114030
:108C2000069A914208D00599491E0591491C03D026
:108C30006B4909780029D8D06A49019A096911401D
:108C4000069A914201D010210843012819D137E03A
:108C5000644949890091F10716D0002F30D1604F47
:108C60000021304600F03AFC022802D0012808D149
:108C700008E00099491E0091491C02D0397800296A
:108C8000EED0A3E001271BE001A9304600F026FC4E
:108C9000022802D0012809D109E00099491E00915B
:108CA000491C03D04E4909780029EDD08EE0019986
:108CB00021700A0A62700A0CA270090EE170241D6C
:108CC000002144E0002F1BD04648478901A90E200F
:108CD00000F004FC022802D0012877D106E07F1EB4
:108CE00074D33F4909780029F0D06FE001982070D3
:108CF000010A6170010CA170000EE070241D0027B4
:108D00002846FFF796FCE9780002000A09060843A6
:108D10002D1D0190B10603D532490861012017E0ED
:108D200030484089009001A9304600F0D7FB022866
:108D300002D001284AD109E00099491E0091491C3E
:108D400044D0274909780029EDD03FE00121009166
:108D50000299491C029122490978002905D10499F8
:108D6000491E0491491C00D0DFE601282ED1002FB6
:108D70001BD01C481A4E458901A90E2000F0AEFBFD
:108D8000022802D0012821D105E06D1E1ED33178C2
:108D90000029F1D01AE0019921700A0A62700A0CC8
:108DA000A270090EE170241D10E0009900290DD079
:108DB0000C480B4E458900210E2000F08FFB022845
:108DC00004D16D1E02D331780029F4D0039A0299A0
:108DD000117003994870039807B0201AF0BD000085
:108DE00004F0FF1F50F2FF1FF3B583B00025CE1C27
:108DF00001914349024628460D7091785378D21C60
:108E00000C021C4370D01178521C00910392890708
:108E10005AD50099C90734D03A48478900210098AB
:108E200000F05CFB022802D001285DD129E07F1E02
:108E30005AD3334909780029F0D055E0002C04D1E9
:108E40000098C00701D00E2000902E48478902A943
:108E5000009800F043FB022802D0012844D106E02C
:108E60007F1E41D3264909780029F0D03CE00299C1
:108E700031700A0A72700A0CB270090EF170361D58
:108E80006D1C641EDAD22FE00398FFF7D2FB039922
:108E90000002C978000A0906084302900398001DE1
:108EA00003901848478902A9009800F017FB022890
:108EB00002D0012818D106E07F1E15D31049097889
:108EC0000029F0D010E06D1C641EDDD20D480C4F5F
:108ED000448900210E2000F001FB022804D1641E09
:108EE00002D339780029F4D001990D70019A290A2A
:108EF000517001998870019805B0301AF0BD0000DA
:108F000004F0FF1F50F2FF1F70B50C460546FFF737
:108F100090FB0102E878090A0006014307D00E48D9
:108F200000260E4D814205D30120687010E0FF201D
:108F300020700FE008486E70401E0818FFF792FB83
:108F4000012804D90321401CFFF78CFB00E001201D
:108F500068602670012070BD00366E0150F2FF1F60
:108F6000F3B506460578447881B0801CFFF761FBB5
:108F700071790002000A09060843314EE10706D064
:108F8000EA072021002A01D0716000E0B160A1074A
:108F900006D5AA074021002A01DA716000E0B1601D
:108FA000210606D5E909CA07264901D0716000E00B
:108FB000B160002833D0244A904200D91046234F94
:108FC0000021B961224948432249FFF74BFB7861F0
:108FD00005203861E00704D030698006C00FA84240
:108FE00017D1A00705D5306969084006C00F88422F
:108FF0000FD1600701D5A8080BD1A00601D56809DB
:1090000007D1200609D53069E909C005C00F88429B
:1090100003D03869C003C00FDCD00020386130694C
:1090200031698006C00F4906C90F490008433169FC
:10903000C905C90FC9010843029908700120FEBD86
:1090400080F00F4000010000C0C62D0000E000E0ED
:10905000006CDC0240420F0010B513480321416050
:1090600064214181012101751048816B1F22520248
:1090700011438163FF200E49033048610D482022CF
:109080004260436913434361FF2404348C614022EE
:1090900042604369934343610C62811541604269B8
:1090A0000A43426110BD000050F2FF1F00800440DF
:1090B00000B0044080F00F4070B5084D04460146F2
:1090C000074B2846EA6800F00DF8002805D1002378
:1090D00021462846EA6800F0FBF870BD1014002015
:1090E0006B66656BFFB589B016460C466A460998F3
:1090F00004F062F832462146049B099803F01DFEF5
:1091000005002BD1009C019FA619761E39463046DA
:10911000FFF7A8FA00291BD0401C7843461E17E031
:1091200021020920090A000609180D4841600C981F
:1091300003F01EFE002811D1099803F023FE054616
:1091400009980069002800D08047002D02D1E41959
:10915000B442E5D9099803F0C3FD28460DB0F0BD2F
:109160000000024070B5040027D01648C068000116
:10917000000F0F2823D014494000085A8002002510
:10918000256060600120A0606561A56180022561A5
:10919000E060204603F0C3FD00280AD00B480146DA
:1091A00080390560416040318160E061204600F017
:1091B0000FF825620020656270BD042070BD01209B
:1091C0004004DCE740800440241E0100C414002059
:1091D00070B5002822D0C4691648402241081648BC
:1091E0004900400840006568884202D9421A402A76
:1091F00012D82846FFF768F91148104E4108114867
:109200006D1C35604008402249004000A568884236
:1092100006D9421A402A03D9FFF798F8042070BDF6
:109220002846FFF751F96D1C022075602060002070
:1092300070BD000095D40000A1D4000010F1FF1F04
:1092400009CD00001DCD0000FFB589B01F461400F8
:109250000D460DD06A46099803F0AEFF3A462946FE
:10926000039B099803F069FD060002D1009D26E0EA
:1092700004200DB0F0BD02CC14488160039904298C
:1092800002D0082905D00CE02902090A032252065F
:1092900005E002CCC1602902090A072212068918DA
:1092A0004160099803F06EFD0646099800690028A0
:1092B00000D08047002E04D1039845193F1A002F93
:1092C000D9D1099803F00CFD3046D2E700000240E6
:1092D000FFB589B014460D466A46099803F06CFF45
:1092E00022462946059B099803F027FD00282FD127
:1092F0006A462946099803F05FFF009D029808908E
:109300006942404201404F42AF4201D108983F18A4
:10931000002C1CD07E1BA64200D92646304605995B
:10932000FFF7A0F929020122090A12068A18094941
:109330004A600C9A000412021043FF3088600998BA
:1093400003F020FD002803D1A41BAD19DEE70020A7
:109350000DB0F0BD00000240FFB589B0129F1D00A6
:1093600016460C4610D06A46099803F025FF32468F
:109370002146079B099803F0E0FC002805D1154A17
:1093800039068F18009C22E004200DB0F0BD2102A8
:109390000120090A400609180F48416087602968C2
:1093A000C160099803F0EEFC002809D01399002948
:1093B00000D00C6014990029E7D000220A60E4E78D
:1093C0000799761A890889004D1907990C19002EFA
:1093D000DDD1DAE7FFFFFF0000000240B62206A160
:1093E000002002F02FFFBFF34F8F0F490D48C860D8
:1093F000BFF34F8FFEE700002E2E5C2E2E5C2E2E2C
:109400005C736F757263655C6461706C696E6B5CD4
:10941000696E746572666163655C6D61696E2E6309
:10942000000000000400FA0500ED00E010B5054959
:10943000002008600448FFF795FE002800D00120B6
:1094400010BD000000810440101400201CB506F07F
:1094500061FB00281AD09E2069460870E7204870FA
:10946000102000F0ADFA012406F054FB00280DD0C6
:10947000002069460870082000F0A2FA01A9002027
:1094800006F014FB012802D1002C00D01CBD0020E6
:109490001CBD0000BFF34F8F03490248C860BFF3F3
:1094A0004F8FFEE70400FA0500ED00E0FEB50C4624
:1094B0000B460646014615460748FFF7C5FE00283D
:1094C00009D101210190009102902B46224631469C
:1094D0000148FFF741FFFEBD1014002000B5054A0A
:1094E0005278002A02D000F007F800BD00F0E0F842
:1094F00000BD000050F2FF1FF0B58C466A4E4021BF
:10950000024671602027B7607760C00701D07160A4
:1095100000E0B160B76077605008C40701D07160A7
:1095200000E0B160B760776013189008C40701D0FD
:10953000716000E0B160B76077601B18D008C407A5
:1095400001D0716000E0B160B76077601818C007A3
:1095500001D0716000E0B160B7607760B160B76062
:1095600077607160B76077607069884370614F4859
:10957000007D040003D0B7607760401EFBD1B76068
:10958000306977604006C00FB760336977605B066B
:10959000DB0F5B000343B760306977604006C00FA4
:1095A0008000184301280DD002285DD004285BD02C
:1095B000213403D0B7607760641EFBD172690A431F
:1095C00072616FE0920726D500231C462022B76007
:1095D000356977606D06ED0F64195B08ED072B4365
:1095E000521EF4D1B760326977605206D20F5440F0
:1095F000E20700D008206246002A00D013602B4A00
:10960000127D002A03D0B7607760521EFBD17269C9
:109610000A4372611EE0002C03D0B7607760641EBD
:10962000F9E772690A4372616246126800242023D6
:10963000D50701D0716000E0B160B7607760A41811
:1096400052085B1EF4D1E20701D0716000E0B16006
:10965000B7607760154A127A002A23D0B160B760EC
:109660007760521EFBD11DE0104B5D7D002D06D0B2
:10967000930704D52123B76077605B1EFBD1002CD4
:1096800003D0B7607760641EF9E773690B437361B9
:10969000002D07D0920705D4B1602122B760776012
:1096A000521EFBD17160F0BD80F00F4050F2FF1FE1
:1096B000F0B503460022C04D40208C46686020244F
:1096C000AC60BE4F79680E46761EFDD16C600E46CA
:1096D000761EFDD1DE0701D0686000E0A860AC60B6
:1096E0000E46761EFDD16C600E46761EFDD1D61854
:1096F0005A08D70701D0686000E0A860AC600F4648
:109700007F1EFDD16C600F467F1EFDD1B6189A08F2
:10971000D70701D0686000E0A860AC600F467F1EEC
:10972000FDD16C600F467F1EFDD1B618DA08D70751
:1097300001D0686000E0A860AC600F467F1EFDD1DC
:109740006C600F467F1EFDD1B218D20701D0686051
:1097500000E0A860AC60994E0A46521EFDD16C60D4
:109760000A46521EFDD1A860AC600A46521EFDD1C9
:109770006C600A46521EFDD16860AC600A46521EFB
:10978000FDD16C600A46521EFDD16A6940208243B9
:109790006A61327D160009D0AC600846401EFDD1DA
:1097A0006C600846401EFDD1521EF5D1AC600846E3
:1097B000401EFDD128696C604006C00F0A46521E4B
:1097C000FDD1AC600A46521EFDD12A696C6052067A
:1097D000D20F0F467F1EFDD152000243AC600846F7
:1097E000401EFDD128694006C70F2020686008464A
:1097F000401EFDD1B8001043012816D002286ED0BB
:1098000004286CD021360AD02023AB600A46521EB1
:10981000FDD16B600A46521EFDD1761EF5D16969F5
:109820004022114369616A60F0BD9A073CD500246B
:10983000264620232027AF600A46521EFDD12A6902
:109840006F605206D20F0F467F1EFDD16708D40706
:10985000B6183C435B1EEDD120232A46AB600F4671
:109860007F1EFDD1176953607F06FF0F491EFDD192
:109870007E40F10700D008206146002900D00C602E
:109880004E490C7D002C0AD04E6893603146491E2B
:10989000FDD153603146491EFDD1641EF5D1516999
:1098A00040231943516139E0002E0AD02023AB60D8
:1098B0000A46521EFDD16B600A46521EFDD1761E2D
:1098C000F5D16A6940231A436A616246002612682C
:1098D00020242746D30703D040236B6002E032E008
:1098E0004023AB60AF600B465B1EFDD16F600B4643
:1098F0005B1EFDD1B6185208641EEBD1F20702D0F0
:1099000040226A6001E04022AA603B462C46AF60DC
:109910000A46521EFDD16360491EFDD127490A7ACD
:10992000002A0DD04023AB604B682024AC60194660
:10993000491EFDD16C601946491EFDD1521EF5D15C
:1099400040216960F0BD1D4A527D9446002A0DD029
:109950009A070BD521242027AF600A46521EFDD15D
:109960006F600A46521EFDD1641EF5D1002E0AD04A
:109970002024AC600A46521EFDD16C600A46521E7D
:10998000FDD1761EF5D16A69402422436A616246A0
:10999000002A0ED09A070CD4AC6021232026AE609A
:1099A0000A46521EFDD16E600A46521EFDD15B1E54
:1099B000F5D16C60F0BD000080F00F4050F2FF1F49
:1099C000F0B50023104C1A460E4E2027656815E0AE
:1099D000002A02D10B78491C0822DC0702D040245F
:1099E000746001E04024B460B7602C46641EFDD171
:1099F00077602C46641EFDD15B08521E401EE7D2E4
:109A0000F0BD000080F00F4050F2FF1F1E48002202
:109A100002601E48816B4315194381631B491C4832
:109A2000403148601B4883681B490B408360C36812
:109A30000B40C360194980200870194824214170E7
:109A4000A2210170C178C906C90EC170032101713C
:109A500042718179C906FCD481790907890F0229ED
:109A6000FAD14021417181790907890F0229FAD180
:109A700081794906FCD51A21017081790907890F7E
:109A80000329FAD17047000000810440008004409F
:109A90000000011040900440FFF8FFFE0050064017
:109AA0000040064038B5224D2C79E878800601D474
:109AB00020208443E878000601D4802084432006D7
:109AC00016D51C4802F061FC002800D00120E222DB
:109AD00019A102F0B7FB174802F078FCE8711548AD
:109AE00002F053FC002803D1E8784006400EE870ED
:109AF000A00605D56007800F03D0E8796946087095
:109B000038BDEC79184802F02FFC132804D92146FF
:109B1000154802F097FC38BD1328FCD102F048FD2F
:109B20000028F8D0132211A10F4802F0DCFC38BD48
:109B300000B00640D01400202E2E5C2E2E5C2E2E5F
:109B40005C736F757263655C6869635F68616C5CA8
:109B5000667265657363616C655C6B6C32367A5CEA
:109B6000756172742E630000E01600203C44415081
:109B70004C696E6B3A4F766572666C6F773E0A0081
:109B8000F8B52E4E002435780095280741D5317C54
:109B90000A090807C00F4B07DB0F154605431AD10A
:109BA000950040002818C018254BC0001D5CAD066C
:109BB0002D0F012D0FD1C5186F88002F0BD1214F0C
:109BC000BA5C6A801A5C520601D5882200E0C8227D
:109BD0001A5401200143EFF31080C507ED0F72B650
:109BE000194A184F143FB86811541521401CFEF74C
:109BF00039FDB960002D00D162B608203070002C0C
:109C000002D1307D800601D5012400E000243578A2
:109C1000BBE700990B482943083804F01CFB002CD3
:109C200001D0012000E00020064914390A781043D1
:109C30000870357002F062FAF8BD0000802007401D
:109C4000001C002040F1FF1FA021002000207047D1
:109C5000034801694069081A02490988081A7047CF
:109C600084F1FF1F661E010070B50B4D0C460346C4
:109C7000696B286B88420BD9401A844200DD044688
:109C800022461846FEF720FC686B0019686300E066
:109C90000024204670BD000084F1FF1F00207047A3
:109CA000F8B5184F0C46064679693869401A1649C6
:109CB0000988081A002801DC0020F8BD844200DD74
:109CC0000446FA69B869002590420DD30F4A03197A
:109CD00051188B4208D30D1A2A463146FEF7F4FB81
:109CE00076190A48641BB861002C06D0224631461A
:109CF000FEF7EAFBB8690019B861396960190918FB
:109D00003961F8BD84F1FF1F661E0100F2190020C1
:109D100010B5054C6068002805D10120606000F096
:109D200005F80020606010BD84F1FF1FF8B5234CDA
:109D3000A06800283DD0616920690026421AE068C9
:109D400011460143002935D021461D4FC9691D4DDB
:109D5000002A10D0A069814205D338888B182818B2
:109D6000834200D3421A1848007843001748C05A6B
:109D7000904200DA02461648E660007880231843D5
:109D800002F0E4F9E1690918E1616269121862619F
:109D90003B88EB188B4200D1E561216991420BD1E0
:109DA000094909784A000949895A814204D10120A8
:109DB000E060F8BDA660F8BDE660F8BD84F1FF1F65
:109DC000661E0100F2190020C7F1FF1F6A1E010084
:109DD000641E010010B50C4C206A002803D0A06A54
:109DE000401CA06210BD01202062606200F00EF8ED
:109DF000002060622062616B206B8842F2D0401AC2
:109E0000FFF74CFF10BD000084F1FF1F10B5134C8D
:109E10001348216B154B0A1A12480088821A1248FF
:109E200000784000185A82420EDB1148007801F099
:109E300043FD216B08182063A06A00280CD0616ADA
:109E4000002909D1401E06E00120E062606A002876
:109E500002D0A06A401CA06210BD000084F1FF1F68
:109E6000321A0020681E0100C7F1FF1F6A1E0100A0
:109E7000651E010010B50446400702D52046FFF7D5
:109E8000A9FF200702D52046FFF742FF10BD0020A2
:109E9000704700207047000010B50C4800F01EF815
:109EA000002812D00948FEF7C4FB0949020A0870CD
:109EB0004A70020C8A70000EC870044802790A7158
:109EC00042794A7180798871012010BDBCF1FF1F71
:109ED000F018002010B500F013F810BD70B504465E
:109EE000064D21462868FEF7B5FB2879A0716879F0
:109EF0006071A8792071012070BD000048F2FF1F39
:109F000010B506F029FB03F00FFE012010BD10B5BF
:109F100006F064FB012010BD0120704710B5044617
:109F2000FEF787FB06490860A079087160794871DF
:109F3000207988710020C871084606F065FB10BDC5
:109F400048F2FF1F10B51148002444608460C460CB
:109F500004610F4981614461046244628462C462A5
:109F6000C1610C49016341630480FFF7D0FF0749D9
:109F70004B203831C001FEF76DFB04480821383012
:109F8000047144718171FFF7C9FF10BD84F1FF1F97
:109F9000F2190020321A002010B5FFF7D3FF10BDD0
:109FA00070B5194C0025206A012600280AD1616B82
:109FB000206B884206D11549884203D02163E562AF
:109FC00025626163A06A002810D0206A00280DD1A4
:109FD000E06A00280AD12662FFF718FF2562616B4C
:109FE000206B884202D0401AFFF758FEA1686068D3
:109FF000084308D161692069884204D06660A66080
:10A00000FFF794FE656070BD84F1FF1F321A0020D7
:10A01000B0B50D4C0D4F002806D0BC4600DF2060C7
:10A02000002006F0BEF80CE0BC4600DF2168401AB4
:10A03000FF212D31884201D3012000E0002003F0F0
:10A040008FFD0120B0BD000044F2FF1FA9F3000006
:10A05000002070470020704710B502490880FFF7C4
:10A060005BFF10BD84F1FF1F10B50B48FEF7E1FA4E
:10A07000094C0002E178000A090608430749FEF787
:10A08000E9FA06482179017161794171A1798171FB
:10A09000FFF744FF10BD0000F0180020BCF1FF1FC7
:10A0A00001078A0E044910B551180A78FD231A4099
:10A0B0000A7001F0BDFF10BDC020074010B5014679
:10A0C0004A790B79807811021943020601D4024AB9
:10A0D000115401F0ADFF10BD40F1FF1F704710B5E6
:10A0E00000F07AFA10BD0000094A094980320028C0
:10A0F000087D04D0012318430875102005E04008AE
:10A1000040000875107AEF21084010727047000077
:10A110008020074010B50C4C0C48A2880078824281
:10A1200000D90246002A03D10749002014390871DA
:10A130008020216802F00AF8216809182160A188AE
:10A14000081AA08010BD0000D8F1FF1F461E0100B4
:10A1500010B5064C0020A288216801F0ADFB2168F3
:10A1600009182160A188081AA08010BDD8F1FF1F2E
:10A17000704700000749020605D50007800E401809
:10A180000178FA2203E0800040180178F62211409D
:10A1900001707047C02007400749020605D5000737
:10A1A000800E40180178052203E0800040180178F5
:10A1B0000922114301707047C0200740F8B50446DA
:10A1C000694F6A4D6A4E80071ED501F08DFF3878C1
:10A1D000C009FFF7CDFFF888A88038784106890FBD
:10A1E00002D001296BD159E079780B0001F0DAFF38
:10A1F0000C070D6713671928672D333B4A6701F079
:10A20000E1FC1FE0FFF786FF66E0002004E001F0BC
:10A210007FFF58483DE0012001F016FD00284ED098
:10A22000F5E7C006C00E4AD1B878802108433070E7
:10A230004006400E012101F041FF01F069FF4BE0B3
:10A2400001F0CAFB00283AD0DCE7C006C00E36D1C8
:10A250004748401C14E001F04BFD00282FD001F0CE
:10A2600057FF454815E0C006C00E012827D1707879
:10A27000002824D03879B178884220D23F4940184C
:10A280002860BFE701F0F8FD002818D001F040FF7A
:10A290003B48006800281FD080471DE0C006C00E64
:10A2A0000DD001280BD100F007F9002814D100F0DF
:10A2B00059F9002810D100F0ABF800280CD13878FB
:10A2C000C00904D1F888002801D0002000E08020D7
:10A2D00001F0FEFE0020A880600704D53878C00990
:10A2E0000DD001F01DFF200733D53878C00927D0E5
:10A2F000A888317908432CD0FFF70CFF29E0A88803
:10A300000028F0D0FFF724FFA8880028EBD1387888
:10A310004106890F0ED001290CD1C006C00E09D00C
:10A32000012807D100F05CF80028DCD100F02AF801
:10A330000028D8D1802001F0CBFE0020A880D2E7F1
:10A340003078010605D54006400E3070002101F03E
:10A35000B5FE600602D50020FFF7A2FE200602D55A
:10A360008020FFF79DFEF8BDE0F1FF1FD8F1FF1F31
:10A37000C4F1FF1FCC1E0100C41E010020F1FF1F0D
:10A38000C81E010010B51349134A0879127890428B
:10A3900003D0124A1278904219D14878002804D08C
:10A3A000022805D0202812D10EE0FFF751FE05E06B
:10A3B000C878897800020843FFF74CFE002806D0D1
:10A3C00001F0A6FE012010BDFFF74EFEF6E70020CB
:10A3D00010BD0000E0F1FF1F621E0100631E0100BE
:10A3E00010B50948094A0179127891420AD140789A
:10A3F000092807D100F0F0FA002803D001F088FE08
:10A40000012010BD002010BDE0F1FF1F471E01001C
:10A4100070B52449244A08791278904203D0234A1F
:10A42000127890423BD11F484978C2788378100255
:10A430001F4C204D1843042920D008DC00290FD0E0
:10A4400001290FD002290BD0032928D111E020299E
:10A4500006D0212919D022291AD023291FD11AE088
:10A460002C6010E0FFF715FD05E02C60FFF752FEB1
:10A4700009E0FFF70CFD0028F7D110E0FFF7E6FB3D
:10A480000BE001F045FE012070BDFFF705FDF2E78E
:10A49000FFF7E2FD01E0FFF7BBFD0028F1D100204E
:10A4A00070BD0000E0F1FF1F621E0100631E01008D
:10A4B000F0180020D8F1FF1FF8B5234E234930795A
:10A4C000097888423DD17078214C224D224F0300FB
:10A4D00001F068FE0C3707232D373737373718263A
:10A4E000333700F097F900282BD0F078012802D0FC
:10A4F000032803D003E01948206000E02560FFF73F
:10A5000009FE12E0F078022802D0032803D00CE004
:10A510001348206009E0256007E000F063F908E0D7
:10A5200000F032FA0BE001F0F3FD0120F8BD00F07D
:10A5300067F9002805D02760E1E700F043FA00281A
:10A54000F1D10020F8BD0000E0F1FF1F471E01001F
:10A55000D8F1FF1F2AF1FF1FF01800203119002049
:10A560007219002010B51848184A017912789142E2
:10A5700027D142780146C8788B7800021843CB79FE
:10A580008C7919022143FE2A0CD0FF2A19D1002808
:10A5900017D1002915D101F0CFF8002811D001F012
:10A5A000B7FD0CE000280CD101290AD100F0B4FD60
:10A5B000002806D0074906480860FFF7ABFD0120D8
:10A5C00010BD002010BD0000E0F1FF1F581E01006B
:10A5D000F0180020D8F1FF1F074800214170C1602A
:10A5E00001614161418081808161C161C1800181DE
:10A5F0000162418170470000E8F1FF1FF8B5484E45
:10A60000B0887188474F00257C1C884218D3B069F8
:10A61000002815D17561B580012339787A1C184658
:10A6200006F03AF970807088002809D03E487761BA
:10A630000078012801D8746102E07088401C7080A5
:10A64000708800283AD1F068002801D0F56035E024
:10A650003069002832D03449097801290ED83D707C
:10A66000B58002237A1C0021012006F015F97080C4
:10A670007088002800D0746135611FE03C780127A4
:10A68000202C00D300243946A140014242D0601C56
:10A69000C1B2244A02231170521CB580012006F079
:10A6A000FBF870807088002804D01E4870617088A4
:10A6B000401C70803069A740B84330617088B16930
:10A6C000084326D07088B188184F401A84B2387871
:10A6D00041001748405AA04200D204461548802144
:10A6E000007822460843716901F030FD7069124913
:10A6F00000197061B088001980B2B0800988884262
:10A700000BD2387841000A48405AA04205D10120B6
:10A71000B061F8BD641CE4B2B2E7B561F8BD0000F9
:10A72000E8F1FF1F30190020521E0100C7F1FF1F82
:10A730004E1E0100481E0100541E0100F8B51B4CBE
:10A74000002720891A4D1B4E002802D1E56131886F
:10A75000E180E1880A1A1848E169007801F0ACF854
:10A76000E16980B20918E161218909188BB223815E
:10A77000002809D031888B4206D21049104A097846
:10A780004900515A81420FD90E4801780120012910
:10A79000009002D8064A002102E029785B1E6A1C5C
:10A7A000022006F02BF92781F8BD0000E8F1FF1F19
:10A7B00071190020561E0100491E0100C7F1FF1F3C
:10A7C0004E1E0100531E010010B50446000702D5BD
:10A7D0002046FFF713FF600702D52046FFF7AEFFC4
:10A7E00010BD0000034804498078085C03490870E4
:10A7F00001207047E0F1FF1F28F1FF1FF018002033
:10A8000010B506F047F802490870012010BD00009D
:10A81000F018002010B50B490022C878012804D098
:10A82000022804D0032806D103E0074A02E00020F2
:10A8300010BD064A521C8978002306F02DF801202D
:10A8400010BD0000E0F1FF1F3019002029F1FF1FAB
:10A85000FEB54448007800287ED0434E0020317871
:10A860008446481C30704148042300784200821816
:10A8700093405B1E0192994203DB0021317001215C
:10A880008C463B4A00251188FF2901D2491C1180C2
:10A8900041003848405A364900900988884200D122
:10A8A00001253549002009788E4648E0002162469E
:10A8B000002A0DD0314A135CFF2B01D25B1C1354CC
:10A8C0002F4B1B5C002B03D0125C9A4200D301215A
:10A8D0002B4A0223145C019A934022469A40009B23
:10A8E0009A4203DA002C01D0012200E00022002D60
:10A8F00006D0002A04D00123376983403B433361EB
:10A90000204B1B5C9C420CD01C4C245C9C4206D30C
:10A910000124376984403C43346100243470184C6E
:10A920002354002909D0002A04D101213269814031
:10A9300011433161114A00211154401CC0B27045CD
:10A94000B4D3002D02D00A490020088030690028C5
:10A9500006D07088002800E002E001D1FFF74EFE2B
:10A96000FEBD0000C5F1FF1FE8F1FF1FC7F1FF1F8B
:10A9700024F1FF1F4A1E0100521E010026F1FF1F95
:10A9800027F1FF1F28F1FF1F0A480A498078C9787C
:10A99000002802D0084A815409E0094B0020074AE8
:10A9A0001B7802E01154401CC0B29842FAD3012037
:10A9B00070470000E0F1FF1F27F1FF1F28F1FF1F84
:10A9C000521E010010B50348807806F015F80120EA
:10A9D00010BD0000E0F1FF1F38B50D490022C87816
:10A9E000012804D0022804D0032806D103E0002067
:10A9F00038BD084A00E0084A521C00230093CB7976
:10AA00008C791B022343897805F0F8FF012038BDBB
:10AA1000E0F1FF1F7119002029F1FF1FF8B5EFF3D6
:10AA20001080C007C00F72B6564D0021EC68E96077
:10AA30002A7800922970002800D162B6E00708D079
:10AA400001F0B0FA06F09CF84F480068002800D0EA
:10AA50008047E00606D501F06FFB4C4800680028EF
:10AA600000D08047A00606D501F01AFB48480068D0
:10AA7000002800D08047600704D5464800680028B9
:10AA800000D08047022C09D143480168002902D038
:10AA90004248007A88474148FF210172200767D564
:10AAA0003F4FEFF31080C207D20F72B6A9686868F3
:10AAB000884257D1012156E0EFF31081CE07F60FFF
:10AAC00072B638490C5C1521401CFDF7CBFD69605E
:10AAD000002E00D162B620462207D30F210662075E
:10AAE000090FD20F002908D15C00A418E4003C5DD6
:10AAF0000026A406240F0D2C0AD08C005B00E3185E
:10AB00009A18D600BA5D9206120F012A13D01DE0E2
:10AB10002869022188432861387E4006400E387635
:10AB2000387C4006400E38741F486E70016800295A
:10AB3000B7D0022014E0002902D1C007C00F68700E
:10AB400019480159002901D004208847B85D8006C2
:10AB5000000F0928A5D1144801590029A1D00820C7
:10AB600088479EE70021002A00D162B60029A3D0C1
:10AB70000098002804D00949087DDF22104008759C
:10AB8000F8BD00002CF1FF1F701E0100741E0100B3
:10AB9000781E01007C1E0100801E010080200740FD
:10ABA000001C0020A0210020841E010010B51C48BC
:10ABB000402303701B484168052212041143416081
:10ABC000416B1A031143416300F036F81648017BCC
:10ABD000802211430173017B0906FCD41349124CF6
:10ABE000090A803C217711490A0C0F4960390A741F
:10ABF0000E4A120E0A75FF2121700D4909680029BD
:10AC000000D004210B4A1268002A00D0022211430E
:10AC10001922114321710370017B1943017310BD87
:10AC200040F1FF1F0080044000210740001C00206D
:10AC30007C1E0100801E0100012002490006086000
:10AC40007047000000E100E070B500F009F900284D
:10AC50002AD01648022404704470154E0320346331
:10AC6000307014480546FDF7E4FC022808D9114964
:10AC700020461F39FDF7EEFC29462046FDF7EAFC89
:10AC80000D488021007822460843084901F05EFA09
:10AC90002846FDF7CEFC316B401A2946FDF7DAFC59
:10ACA000044901200839087370BD0000B219002062
:10ACB0000CF2FF1FA7220020591E010010B51049F9
:10ACC0000878022808D003280FD0042810D00528BF
:10ACD00001D10020087010BD0A48C07B282801D08F
:10ACE000A828F8D100F05CFA10BD00F067FD10BD97
:10ACF000054880210078084300F07AFDF5E7000060
:10AD00000CF2FF1F80220020591E010010B51949C6
:10AD1000087800280FD0012810D005281DD007285A
:10AD200021D01548007800F063FD14490220087313
:10AD300000F044FD10BD00F0FFF810BD0F481F38B3
:10AD4000C07B2A2803D02F2804D0AA28F5D100F0F0
:10AD500005FB10BD00F092FA10BD094A09A10020C0
:10AD600001F070FA10BD00200870086B1F28E2D0B7
:10AD700010BD00000CF2FF1F5A1E01009F22002090
:10AD8000390400002E2E5C2E2E5C2E2E5C736F7507
:10AD90007263655C7573625C6D73635C757362642A
:10ADA0005F6D73632E63000010B511494868C86079
:10ADB000002801D0012010BD0E48FDF73AFC002804
:10ADC0000DD00C480838007B000604D50A488021C5
:10ADD0000078084301E00948007800F009FD0549C2
:10ADE00001201731087300F0E9FC002010BD0000BD
:10ADF0000CF2FF1F88220020591E01005A1E01007C
:10AE000010B5124801798F200140080605D50807C2
:10AE1000000F01221204824001E001228A400C4806
:10AE20000478802004438C420ED10A480068104206
:10AE30000AD00948FDF7FDFB0849884204D10D22DC
:10AE40000549204601F082F910BD0000E0F1FF1F26
:10AE5000591E0100D0F1FF1F9F220020555342537D
:10AE600070B50C48FDF7E5FB0A4C022517340028A5
:10AE700008D020461F38007B000608D4064800781A
:10AE800000F0B6FC257300F099FC002070BD012095
:10AE900070BD0000882200205A1E010070B51148C4
:10AEA000FDF7C7FB104C216B884202D820630320BA
:10AEB00000E0042020700D4880210078226B0843B8
:10AEC0000B4901F043F907481F300546FDF7B1FB78
:10AED000216B401A2946FDF7BDFB024900201731BE
:10AEE000087370BD882200200CF2FF1F591E01005C
:10AEF000B219002010B506480649028806480078B5
:10AF000000F0DAFC05490863FFF700FF10BD000000
:10AF1000601E0100B21900205A1E01000CF2FF1F32
:10AF200010B50446400702D50020FFF7E3FF2007D5
:10AF300001D5FFF7C3FE10BDF8B5704E316B1F2968
:10AF400001D20A4600E01F2200206D4D6D4B02E049
:10AF50001C5C2C54401C9042FAD36B488022007831
:10AF60000127104300901F2970D16548FDF761FB50
:10AF7000664988426AD1281DFDF75BFB604C1F348F
:10AF8000211DFDF767FB20461738FDF752FB2146D0
:10AF90000831FDF75FFB687B002804D1A87B0028FF
:10AFA00001D0102801D9277374E0E87B2A283BD010
:10AFB00020DC1A2847D00EDC0428F4D006DC002858
:10AFC0003BD00328EFD100F075FBF8BD1228EAD181
:10AFD00000F0AAF8F8BD23283CD006DC1B282FD0AF
:10AFE0001E28E0D100F0CCF8F8BD252835D028285F
:10AFF000D9D13BE09E2836D00EDC5528D3D004DCD6
:10B000002F2842D03528CED103E05A281FD09128CE
:10B01000C9D100F01DFCF8BDA12821D0A3284ED035
:10B02000A82823D0AA28BED100F084FA0028F2D0A4
:10B03000287B00063BD43770F8BD00F013FCF8BD48
:10B0400000F0ECFBF8BD00F047FAF8BD3BE000F083
:10B0500011FAFAE700F0F2FAF7E700F0C9FAF4E7BC
:10B06000FFF7F2FDF1E700F07DFBEEE700F062FA9A
:10B070000028EAD0287B000604D50220307000F0BA
:10B080008FF8E2E72248007815E0287C800704D496
:10B090000020207300F092FBD7E700F04BFA002865
:10B0A000D3D0287B000602D437703762CDE716482C
:10B0B00080210078084300F09BFB0220E9E700981C
:10B0C00000F096FB6FE7104C009800F091FB2078A1
:10B0D000104C0107090F01200004884021680C4D25
:10B0E00008432060287800F083FB28788740206898
:10B0F0000743062027603070A7E700000CF2FF1F0F
:10B1000080220020B2190020591E010055534243ED
:10B110005A1E0100D4F1FF1F0249002008700120CF
:10B1200070470000F018002010B5FFF799FE0028C6
:10B130001FD0104B00201870802159700221997087
:10B14000D97020241C7158719871D8710A4801680F
:10B1500008200A78002A02D01A54491C00E01C5426
:10B16000401CC0B22428F4D3044924200863FFF70C
:10B1700095FE10BDB21900201CF1FF1F0CF2FF1F3D
:10B1800010B50548C07CC107044800D001210173F7
:10B1900000F014FB10BD0000802200209F22002040
:10B1A000F8B5314D314FA969686A002688420AD343
:10B1B000387880210024084300F01AFB2C480673DD
:10B1C00000F0FCFA08E02B48007841002A48445A75
:10B1D000E86A844200D30446FFF7E6FD002800D168
:10B1E0000024A86A00282DD0002C0ED0A96AE86996
:10B1F0008022411838781043224600F0A7FFA86A41
:10B200000019A862E86A001BE86229696869AA6AED
:10B210004143914203D1AE62696A081868621448DA
:10B2200008300746FDF705FA001B3946FDF712FA0C
:10B23000002C06D0E86A002803D1032028700C48AF
:10B240000673F8BD002CE0D02969E86A4018401E5A
:10B25000FDF708FA69690246884200D90A46E96999
:10B26000686A05F04DFCC1E70CF2FF1F591E010092
:10B270009F220020C7F1FF1F5C1E0100F8B5334C70
:10B280000025A169606A884208D3314825630078A7
:10B2900000F0AEFA2F48057300F090FAFFF784FD36
:10B2A000002806D0206B002824D0A06A002802D0F5
:10B2B00010E025631EE02169E06A4018401EFDF79A
:10B2C000D1F961690246884200D90A46E169606A9B
:10B2D00005F016FC00202049A76A266B08E0E36908
:10B2E0003A189A5C0B5C9A4201D0256202E0401C3D
:10B2F000B042F4D3266BA06A8119A162E06A871B71
:10B30000E7622269606942438A4203D1A562616AA9
:10B31000081860620F4808300546FDF78AF9801B5F
:10B320002946FDF797F9002E0CD0002F02D0207887
:10B33000052807D1206A002805D000200549087398
:10B3400000F03CFAF8BD0120F8E700000CF2FF1F06
:10B350005A1E01009F220020B2190020F8B5384D76
:10B36000384FA969686A0026884207D336482E6399
:10B37000007800F03DFA3E7300F020FAFFF714FD6C
:10B38000002800D12E63296BA86A40182969401E45
:10B39000884205D9FD222DA1002000F053FFF8BD01
:10B3A0000020334905E0AB6A0A5C1B18EC69401CBD
:10B3B000E2542A6B9042F6D3A86A8018A862E96A20
:10B3C000891AE962002A25D0002914D1002812D058
:10B3D00029694018401EFDF745F96969044688420D
:10B3E00000D90C462246E969686A05F0A1FBAE6205
:10B3F000686A00190DE069692B690A465943814260
:10B4000008D1E969686A05F093FBAE626969686A08
:10B41000401868620B4808300090FDF70AF92C6B61
:10B420000099001BFDF716F9002CB8D0E86A002837
:10B4300002D028780528B2D13E7300F0BFF9F8BDDC
:10B440000CF2FF1F9F2200205A1E01002E2E5C2EA0
:10B450002E5C2E2E5C736F757263655C7573625C17
:10B460006D73635C757362645F6D73632E6300005C
:10B47000B219002070B5FFF7F3FC002824D0FFF7C5
:10B4800093FC002820D01148002101700622427050
:10B490000F4B81701A7A0824D201C2700171417178
:10B4A0008171C1710B481C630546FDF7C2F808287D
:10B4B00008D9084920461F39FDF7CCF8294620460F
:10B4C000FDF7C8F8FFF7EAFC70BD0000B2190020D4
:10B4D0000CF2FF1FA722002070B5FFF7C1FC002867
:10B4E00020D0FFF761FC00281CD00F480321017019
:10B4F00000210E4B41701A7A0424D2018270C1706F
:10B500000B481C630546FDF794F8042808D9084940
:10B5100020461F39FDF79EF829462046FDF79AF888
:10B52000FFF7BCFC70BD0000B21900200CF2FF1F39
:10B53000A7220020F8B52A48FDF77BF8284D00BA6D
:10B54000040A113D287D24020443264E0020746223
:10B55000B062E87B2F280AD004DC28280BD02A28E8
:10B560001CD104E0A82810D0AA2817D109E0FFF7C1
:10B570001BFC002830D0E87DA97D0002084344BAB6
:10B580000CE0FFF711FC002826D01548001DFDF740
:10B5900050F800BA040A287E240204433069444368
:10B5A0000F48F4620938FDF744F80D4F01260E37B5
:10B5B00000280DD0A04210D0287B000604D50A48F0
:10B5C00080210078084301E00848007800F010F975
:10B5D0003E7300F0F3F80020F8BD0120F8BD000034
:10B5E000912200200CF2FF1F591E01005A1E01007B
:10B5F00010B5FFF735FC00281AD0FFF7D5FB00285F
:10B6000016D00C4A0C489169491E0B0E03700B0CA6
:10B6100043700B0A8370C17011690B0E03710B0C20
:10B6200043710B0A8371C17108201063FFF736FC68
:10B6300010BD00000CF2FF1FB219002070B5FFF71B
:10B640000FFC00282ED0FFF7AFFB00282AD01648A9
:10B6500000210170417081700821144AC170916904
:10B660000C240B0E03710B0C43710B0A8371C17117
:10B670000221017211690B0C43720B0A8372C172B1
:10B680000B4814630546FCF7D4FF0C2808D9084979
:10B6900020461F39FCF7DEFF29462046FCF7DAFF7B
:10B6A000FFF7FCFB70BD0000B21900200CF2FF1F79
:10B6B000A722002070B5FFF7D3FB00282ED01B482F
:10B6C0007021017000211A4B41705A68DD681446E0
:10B6D000AC4306D006248470282404734173DA60D6
:10B6E0000AE0002A1BD0134A127B002A1BD0052235
:10B6F0008270202202734173C170017141718171A6
:10B700000A22C271017241728172C1728173C17366
:10B710000174417412201863FFF7C0FB70BD022250
:10B7200082703A22E6E781700173E4E7B2190020E3
:10B730000CF2FF1F9F22002010B505490020086071
:10B740000449FCF787FF044907200870012010BD59
:10B75000D4F1FF1F9F2200200CF2FF1F10B5FFF74E
:10B76000EBFF10BD70B5FFF77BFB00281DD00F4825
:10B770002022027000214170C1770D4C032022630A
:10B7800020700C48802100780843084900F0DEFC56
:10B7900009480546FCF74DFF216B401A2946FCF786
:10B7A00059FF054901200839087370BDB2190020FE
:10B7B0000CF2FF1F591E0100A722002010B50849F6
:10B7C0000848FCF747FF0848802100780D2208430D
:10B7D000034900F0BBFC05490520087010BD0000BE
:10B7E0009F22002055534253591E01000CF2FF1FA7
:10B7F00010B5044600F06CFC200605D52107090FA2
:10B8000001200004884001E00120A04002490A68AC
:10B810001043086010BD0000D0F1FF1F10B50A48AA
:10B82000817C04461F34002904D001202073FFF7D7
:10B83000C5FF10BDC07C0549C007C00F486005F0BA
:10B8400075F90020F2E70000802200200CF2FF1FB3
:10B8500010B5034900200873FFF7B0FF10BD0000CA
:10B860009F22002010B51048FCF7E3FE0E4C173461
:10B8700000280FD020461F38007B000604D50B4857
:10B8800080210078084301E009480078FFF7B0FF05
:10B89000012004E0FFF788FA002803D0002020737D
:10B8A000FFF78CFF10BD000088220020591E010008
:10B8B0005A1E010070470000F7B5074682B000200D
:10B8C00000903807860E3348F50028180190448808
:10B8D000002F15D130484078002809D07008012188
:10B8E00081402D48103002F0C2FC002005B0F0BDB0
:10B8F0002848405D8006000F0D2801D101200090EE
:10B900000498A04206D2FF22EF3224A1002000F0CA
:10B9100099FC049C1F4A0020B101A032891803E061
:10B92000039A0B5C1354401CA042F9D31A481430FC
:10B93000C15D0198174F4180174876080069795D0D
:10B94000F040C0074906C00FC90F88420FD10398C5
:10B95000C1798279080200991043002901D000289A
:10B960000CD001210C48B140103002F080FC0A4894
:10B970000069F040C00708D0C82007E00648012150
:10B98000C943103002F05BFCF1E78820785520466F
:10B99000ACE70000001C00202CF1FF1F2E2E5C2EB7
:10B9A0002E5C2E2E5C736F757263655C6869635FD5
:10B9B00068616C5C667265657363616C655C757308
:10B9C00062645F6B696E657469732E6300000000CA
:10B9D00010B5FFF715FA10BDFEB54B4E4B4D307844
:10B9E0004B4CC006C00E02D0012873D173E0494809
:10B9F000F778027845484449C07889783B0000F0E0
:10BA0000D1FB087C05134E7C7C09367C42482060C3
:10BA100012205DE0002A70D0002803D03F4820604B
:10BA20000A2055E03E48FAE7002A01D1012864D0F7
:10BA3000002803D03B48009000200CE03A48FAE789
:10BA4000009A1378002B05D0D37896781B023343E5
:10BA50009A180092401C8142F2D100980178002986
:10BA60004BD02060C17882780802104330E0002A71
:10BA700043D0002803D02D48009000200CE02C4833
:10BA8000FAE7009A1378002B05D0D37896781B023A
:10BA900033439A180092401C8142F2D1DDE72548D9
:10BAA0000090032901D0002009E001F083FE0DE0A1
:10BAB000009A1178002901D089180091401CB178B2
:10BAC0008142F5D100980178002916D020600078D5
:10BAD000019006E011E001A9684600F02FF8002867
:10BAE0000CD0A188019881420BD980B21249A08064
:10BAF0000978491E084202D003E00020FEBD012063
:10BB000028710120FEBD0000E0F1FF1FC4F1FF1FFE
:10BB1000D8F1FF1F431E0100F61E0100091F01009E
:10BB2000081F01008D1F01000A1F01008F1F010067
:10BB30008E1F0100901F0100461E010030B5174AFC
:10BB4000174B164CD278174D24791B78212A02D036
:10BB5000222A20D116E09C421DD1134A1378134AA1
:10BB6000002B127801D1012A15D0002A08D0104AE2
:10BB7000026010460F4A128880182860092007E0EA
:10BB80000D4AF5E79C4206D10C4828600C48008815
:10BB90000860012030BD002030BD0000E0F1FF1F33
:10BBA000471E0100D8F1FF1F431E0100C7F1FF1F10
:10BBB0008D1F0100F41E01000A1F0100D01E0100AC
:10BBC000F21E010070B51D481D4B0078C106C90E5C
:10BBD0000AD01D461948143D1A4C6A78007901298B
:10BBE00006D0022928D10AE015480E38186021E055
:10BBF000002A21D0A97888421ED2002016E08F2189
:10BC00000840010605D50607360F01210904B14099
:10BC100001E001218140002A01D100070CD1A86870
:10BC2000084209D0E868084000D001202070000ACE
:10BC300060701C60012070BD002070BDE0F1FF1F2E
:10BC4000D8F1FF1FF018002070B5274B0246187876
:10BC50001946C0064988254EC00E04D001282BD0B5
:10BC6000022829D111E0012926D10224002A05D079
:10BC7000012000F069FAF088204304E0002000F081
:10BC800063FAF088A043F0802CE01C798F200440F8
:10BC9000200605D52007000F01252D04854001E071
:10BCA0000125A5407078002806D0200704D0B06890
:10BCB000284201D0002901D0002070BD002A05D003
:10BCC000204600F005FAF06828430AE0306928426F
:10BCD00008D12046FEF7E4F92046FFF779FEF06828
:10BCE000A843F060012070BDE0F1FF1FC4F1FF1F09
:10BCF000F8B55A4800260178C906C90E7ED1574FBB
:10BD000080781C3F00287FD0554801783846C0789D
:10BD1000002901D1012871D0002801D0514C6CE0DC
:10BD2000514C6AE06078022804D0042846D00528E7
:10BD300061D145E0494861798078814239D1787094
:10BD40002079B8704A490020484A0B8802E0002157
:10BD50001154401C9842FAD301250120B968A8402B
:10BD6000084202D02846FEF705FA01200004B9680F
:10BD7000A840084204D0284680210843FEF7FAF97B
:10BD80006D1C102DE9D33B48B8600020F860386185
:10BD90003D460120FEF7A2F9E079400604D5E98886
:10BDA00001200143E98026E0E88840084000E8805F
:10BDB00021E0E078A178000208431DE0E6781AE06F
:10BDC000002E18D1A5788F200540280605D5290713
:10BDD000090F01200004884001E00120A840B96853
:10BDE00001432046B960FEF769F92846FEF7D4F909
:10BDF000284600F01DF92078041901E029E003E04D
:10BE0000207800288ED11FE0002501247D70802637
:10BE10000120B968A040084202D02046FEF7AAF9E6
:10BE200001200004B968A040084203D020463043F6
:10BE3000FEF7A0F9641C102CEAD3FD600D483D61AB
:10BE4000B8600020FEF74AF9044879788078884283
:10BE500001D00020F8BD0120F8BD0000E0F1FF1F77
:10BE6000431E01008D1F01000A1F010020F1FF1F6A
:10BE7000441E010001000100F0B585B000274448D0
:10BE80000397019700783E46C006C00E01287DD179
:10BE90003F491C394878002875D0002002903D4861
:10BEA00002780846C078002A01D101286ED0002807
:10BEB00001D0394C63E0394C61E06078022804D04D
:10BEC00004280DD0052858D11CE0314861791C3870
:10BED0004078814251D0E078A178000208434DE0DB
:10BEE000A778E6780020019029480179B94244D129
:10BEF0008078B04241D1012002902948C15D039170
:10BF0000C6553AE022490879B84236D1A0788F2246
:10BF1000104000900006009804D50007000F01258E
:10BF20002D0400E0012585408878B04214D11848DE
:10BF30001C38816829438160C168A943C1602046DB
:10BF4000FEF7BCF80098FEF727F9009800F070F8AB
:10BF500001982843019010E0039886420DD1019882
:10BF600028420AD10A481C388168A9438160C16807
:10BF7000A943C1600098FEF7FDF8207804192078E5
:10BF800000289AD1029805B0F0BDFFE70020FAE73B
:10BF9000E0F1FF1F431E01008D1F01000A1F010079
:10BFA00020F1FF1F70B501261A48360606600120F1
:10BFB000194D0024810049190C70401C1028F9D338
:10BFC00015211648FCF733FB154816494460846078
:10BFD000C4600470447040224A800A46A0324A601D
:10BFE000C8220A700C72104ACC614A610D21297076
:10BFF0000E49016108484038017D02221143017554
:10C00000FF210170017201730476024880380660D6
:10C0100070BD000080E100E0C0200740A0210020AA
:10C020002CF1FF1F001C0020201D002055555555E8
:10C03000F8B50546154F2C073E4600060121A03EE7
:10C04000240F00280EDA6000401C8140104802F0E6
:10C0500002F92002C119803160018019416100217B
:10C06000C161F8BD68008140C943094802F0E7F8A2
:10C0700007486101001D425D881942802202D219E1
:10C0800042608822725400210172F8BDA01C002079
:10C090003CF1FF1F10B5FDF77FFFFFF75FFB10BD01
:10C0A00002480179DF22114001717047802007406A
:10C0B00010B5FEF7CDFBFDF773FF10BD002903D1CE
:10C0C00040060249400E0876704700008020074075
:10C0D0000007810E034808180178022211430170FD
:10C0E00070470000C020074010B508220249002018
:10C0F000FFF7E2FB10BD0000E0F1FF1F10B50348A1
:10C1000081680120400201F0BFFC10BD50F0FF1F0C
:10C1100010B500221146802000F018F810BD000074
:10C1200010B50348034902780020FFF7C5FB10BD96
:10C13000461E0100F0180020024801792022114318
:10C14000017170478020074070470000F8B5000774
:10C15000114F840E1646A41CE200D01946803D46BD
:10C160000023A001A035451902E0C85CE8545B1C1F
:10C17000B342FAD3094960080969C140C90701D02F
:10C18000882100E0C821B9540121814003481030C2
:10C1900002F06DF83046F8BD001C00202CF1FF1FA6
:10C1A0000020704730B47446641E2578641CAB428E
:10C1B00000D21D46635D5B00E31830BC184710B524
:10C1C000002A06DA52005208D21DD308DB001022E2
:10C1D00003E0D21C93089B000C22002B02D09C1879
:10C1E0008C4201D9012010BD821883604118026081
:10C1F0004160C91AD018884202D810600246F9E797
:10C200000020106010BD0000B0B5044603F030F906
:10C21000002804D0034F0249BC46206800DFB0BDAF
:10C22000FFFF0000D1EE0000B0B5044603F020F996
:10C23000002803D0024F2068BC4600DFB0BD0000DC
:10C2400029EE0000F8B516460F4600281BD1EFF383
:10C250001080C507ED0F72B600231A46194618461E
:10C2600000F004FA040003D13146384600F042FAE7
:10C27000002D00D162B6002C05D1EFF30380C0067B
:10C2800001D104F047FFF8BD10B524220D490E4836
:10C29000FCF720F805F016F80C4805F00DF804F04E
:10C2A0000DFE0B49012208600A4952020A600A4A3F
:10C2B000012111600949400A08600A4908480860DC
:10C2C00010BD0000241A0100DC06002025CB000070
:10C2D00040F2FF1F1CF2FF1F20F2FF1F24F2FF1F7E
:10C2E000DC04002028F2FF1F00B591B0FDF7B0FC80
:10C2F000402801D9402001E000280DD081B26846D5
:10C3000004F062F9010007D06846FDF7C9FC002877
:10C3100002D0002001F0E4FB04F0E4F901464028DB
:10C3200001D9402101E000290DD06846FDF79CFCB1
:10C33000002808D081B2684604F0B4F9002802D081
:10C34000002001F0CDFB01F0EFFB11B000BD0000BB
:10C35000044841788078814201D001207047002054
:10C3600070470000E4F0FF1F30B50546EFF3108082
:10C37000C407E40F72B6284600F007F8A968081A47
:10C38000401E002C00D162B630BDEFF31081CB0708
:10C39000DB0F72B6426801688A4201D3501A02E08C
:10C3A00080681018401A002B00D162B67047EFF376
:10C3B0001083DB07DB0F72B68260C1600021016071
:10C3C0004160002B00D162B67047000070B5044692
:10C3D000EFF31080C507ED0F72B6616820688842E0
:10C3E00001D0012000E0002043220DA1FFF72AFF29
:10C3F000E16820680E5C401C2060A16888420AD376
:10C40000884201D1012000E00020482204A1FFF76A
:10C4100019FF00202060002D00D162B6304670BDAB
:10C420002E2E5C2E2E5C2E2E5C736F757263655CF7
:10C430006461706C696E6B5C636972635F62756680
:10C440002E63000070B50446EFF31080C507ED0FB2
:10C4500072B66268E06881546068401C6060A168E0
:10C4600088420AD3884201D1012000E00020312215
:10C4700009A1FFF7E7FE0020606003CC884201D0ED
:10C48000012000E00020362203A1FFF7DBFE002D93
:10C4900000D162B670BD00002E2E5C2E2E5C2E2EBA
:10C4A0005C736F757263655C6461706C696E6B5C04
:10C4B000636972635F6275662E630000F8B51446A7
:10C4C0000E460746FFF761FF844200D2204605462C
:10C4D000002404E03846FFF779FF3055641CAC4275
:10C4E000F8D32846F8BDF8B514460E460746FFF7C0
:10C4F0003BFF844200D220460546002404E0315D23
:10C500003846FFF79FFF641CAC42F8D32846F8BDBD
:10C5100010B50C48C0780121C00948402A220AA160
:10C52000FFF790FE144901246402084622461038A1
:10C53000FFF73DFF1149224608461038FFF737FF45
:10C5400010BD000000B006402E2E5C2E2E5C2E2E5C
:10C550005C736F757263655C6869635F68616C5C6E
:10C56000667265657363616C655C6B6C32367A5CB0
:10C57000756172742E630000E0140020F016002034
:10C5800010B500F01DFC10BD10B500F019FC10BD79
:10C5900002488079002800D00120704764220020E2
:10C5A0000248C079002800D0012070476422002092
:10C5B0000248007A002800D0012070476422002041
:10C5C000F8B54B211F48FCF730F84B271E48FCF705
:10C5D00030F81C4C1D4E1C4D4034B04213D16879CC
:10C5E0002A79010211434B2901D20A4600E04B226D
:10C5F0004B2901D90F4600E04B2713491148FBF79F
:10C6000063FF0020E0714B210F48FCF70EF80E4944
:10C610003046FCF71FF82F71390A69710949412228
:10C62000C91DE81DFBF750FF607A227A0102064817
:10C63000114340300172090A4172A17A817200F0FF
:10C640008BF8F8BD18220020002F0020646C766B58
:10C6500010B541210448FBF7E8FF034800213930B9
:10C660000172417210BD0000072F0020FFB581B09C
:10C670001D4616460F461A48FBF79EFE441C0198BD
:10C68000002802D03946FBF7D0FF0020002E00D052
:10C690003080002D00D028701149C91FC8790028AA
:10C6A0001CD0BC4202D8C91D224603E0E01B411841
:10C6B000C91D3A460A4C01983934002804D0607AE2
:10C6C000237A000218433080002E02D00198FBF735
:10C6D000FBFE002D01D0A07A2870012005B0F0BD2E
:10C6E000072F002002488079002800D001207047E1
:10C6F000002F0020F3B581B00746FBF75DFE124D19
:10C70000441C41263146E81DFBF78FFF412C02D81F
:10C710003946224602E0413CE1193246E81DFBF76A
:10C72000D3FE094C029840342072000A607200F077
:10C7300004F9002801D0012004E000F000F90028ED
:10C7400000D00220A072FEBD002F00200149887198
:10C7500070470000002F002070B5002211461046DF
:10C76000FCF764FE09221B491B48FBF7ADFE1B4882
:10C77000FBF75FFF1A4D194CA8420FD16079217960
:10C7800000020843092804D26079217902020A4391
:10C7900000E0092211491048FBF796FE0E49284691
:10C7A000FBF758FF0C49092088800C48FBF741FF34
:10C7B000A84205D16079217900020843092801D2F5
:10C7C000012000E00020002802D0034801F05EFCB8
:10C7D00070BD0000422001006422002000FC010026
:10C7E000646C766B10B503498871084601F04EFC05
:10C7F00010BD00006422002010B50349C87108462E
:10C8000001F044FC10BD00006422002010B5034973
:10C810000872084601F03AFC10BD000064220020B6
:10C82000F8B50024E4430F460646002512E0705D8B
:10C83000082102F0D3F8000644400A490820002CE1
:10C8400002DA64004C4000E06400401E0006000E66
:10C85000F5D16D1CBD42EADB2021204602F0BEF876
:10C86000C043F8BDB71DC104F8B50E4617462021D8
:10C87000C04302F0B3F80446002512E0705D0821C1
:10C8800002F0ACF8000644400A490820002C02DA05
:10C8900064004C4000E06400401E0006000EF5D12C
:10C8A0006D1CBD42EADB2021204602F097F8C04310
:10C8B000F8BD0000B71DC10470B514460D4606460C
:10C8C000FF2A07D8FF22DD320AA10020FFF7BAFCB9
:10C8D000022070BD00F064FC002801D00E2070BD65
:10C8E0002A462146304600F0C9FD0028F7D01C201A
:10C8F00070BD00002E2E5C2E2E5C2E2E5C736F758C
:10C900007263655C6461706C696E6B5C64726167B4
:10C910002D6E2D64726F705C6961705F666C6173FF
:10C92000685F696E74662E6300000000C106000730
:10C93000000F002900DB09307047002070470120FC
:10C94000704710B500231A4600F074FA002800D092
:10C95000012010BD10B504F0C1F9012800D000205D
:10C9600010BD0000F8B5164E1F2530780024AD022A
:10C97000012806D0FF22373212A10020FFF762FC07
:10C980000AE0B0780227002808D0FF223D320DA12E
:10C990000020FFF757FC37700220F8BD204600F05A
:10C9A0002DF8002802D037701E20F8BD012080022B
:10C9B0002418AC42F2D30120B0700020F8BD000072
:10C9C000C0F0FF1F2E2E5C2E2E5C2E2E5C736F751A
:10C9D0007263655C6461706C696E6B5C64726167E4
:10C9E0002D6E2D64726F705C6961705F666C61732F
:10C9F000685F696E74662E6300000000F8B5254E0E
:10CA000005463078012805D0FE2223A10020FFF73B
:10CA100019FC1AE00127BF0239462846FBF722FE1F
:10CA20000224002902D0FF22073209E0F078002812
:10CA30000DD0F168B0684018A84208D0FF220E322D
:10CA400015A10020FFF7FEFB34700220F8BD012283
:10CA50007F20D20380020121954203D3854201D277
:10CA6000002000E00846002810D0F170F76028464A
:10CA7000B56000F0C7FF222803D00028E6D034704C
:10CA8000F8BD284600F08CFB0028F9D034701D203A
:10CA9000F8BD0000C0F0FF1F2E2E5C2E2E5C2E2E47
:10CAA0005C736F757263655C6461706C696E6B5CFE
:10CAB000647261672D6E2D64726F705C6961705F66
:10CAC000666C6173685F696E74662E6300000000B7
:10CAD000012080027047000010B5242804D20649C6
:10CAE00080000858002805D1832204A10020FFF708
:10CAF000A9FB0AA010BD00001C1901002E2E5C2EFF
:10CB00002E5C2E2E5C736F757263655C6461706C55
:10CB1000696E6B5C6572726F722E630000000000BC
:10CB200070470000F8B51E4615460C46074604F04F
:10CB30005DFC2B48017F03290ED0022C0DD0002C68
:10CB40001DD0012C08D10168A94205D1407F0028E1
:10CB500031D0032003F052FCF8BD0068A842FBD19D
:10CB6000304604F083F90446304604F085F9064661
:10CB7000384602F041FE03462246314617E0384669
:10CB800002F03AFE0328E7D0304604F06DF9800742
:10CB9000E2D4384602F030FE0746304604F066F92B
:10CBA0000446304604F068F901463B4622462846D2
:10CBB00003F0D6FBF8BD24220A490948FBF78AFB9B
:10CBC00003F006FA08488178012903D14178022947
:10CBD00000D181700248054F2430BC4600DFF8BD0B
:10CBE000DC060020241A0100E4F0FF1F29EE0000FB
:10CBF000F7B51B4E0446B07F5502174600280BD1EF
:10CC00002946019802F0B4FD032802D0214603F022
:10CC100053FBB07F002810D07068A0420DD8B068D8
:10CC2000A0420BD0A04208D9F068401C00D1F460AB
:10CC3000F068A04200D20446F460FEBDB0692A4606
:10CC40008018B061E019B060F07F002803D00020A8
:10CC500003F0D4FBFEBD2046019903F0D5FAFEBDDA
:10CC6000DC060020F0B585B018A1096804910378AE
:10CC7000002104AA545C9C4226D0491C0329F9D304
:10CC800013A10A688E6896464A68CD6800239446C8
:10CC9000C25C714664466F4652C7114661390395BE
:10CCA000192911D9202A01D2052A0DD100216C465B
:10CCB000675C974208D0491C1029F9D35B1C0B2BE9
:10CCC000E6D3012005B0F0BD0020FBE7E500200021
:10CCD000222A2B2C2E2F3A3B3C3D3E3F5B5C5D7C59
:10CCE00070B50446204600F01AF80546002D00D025
:10CCF00070BD044902480968884700BFF8E7000092
:10CD00000C3000F014F1FF1F016801229202114360
:10CD10000160BFF36F8FBFF34F8F704770470028DC
:10CD200007D0C069002802D00068022803D06D2017
:10CD30007047042070470020704710B5002804D0C9
:10CD40005B1E0C461C4204D101E0042010BD1A42B7
:10CD500001D0652010BD03688B4204D84068891853
:10CD60001818884201D2662010BD002010BD0000B6
:10CD70000349884201D06B207047002070470000B3
:10CD80006B66656B10B50C4C70212170FFF7C7FF07
:10CD9000002807D10949204609688847207881067C
:10CDA00001D5672010BDC10601D5682010BDC007A0
:10CDB000FCD0692010BD00000000024010F1FF1FF0
:10CDC00070B50E4D00202C78002C0FD0002129705A
:10CDD000A978002901D000F0FFFA022C05D069786B
:10CDE000032902D0002800D1212070BDFF22343257
:10CDF00003A10020FFF726FA022070BD94F0FF1F68
:10CE00002E2E5C2E2E5C2E2E5C736F757263655C0D
:10CE10006461706C696E6B5C647261672D6E2D6409
:10CE2000726F705C666C6173685F6465636F646584
:10CE3000722E63003EB51D460446302901D3012001
:10CE400000E00020402212A1FFF7FCF921460C224D
:10CE500020316846FBF738FB1A49019888420BD10C
:10CE600019490098884201D102203EBD1649FC397B
:10CE700088420AD101203EBD204603F009FF002868
:10CE800001D1002D01D003203EBD00203EBD000099
:10CE90002E2E5C2E2E5C2E2E5C736F757263655C7D
:10CEA0006461706C696E6B5C647261672D6E2D6479
:10CEB000726F705C666C6173685F6465636F6465F4
:10CEC000722E6300019996978F9E939BFFB581B058
:10CED0000746002504982C46002813D00A980028FD
:10CEE00010D00499002008600A9906460860FFF7F0
:10CEF00024FD002812D00120C003022F04D0032FEC
:10CF00000AD024E0652237E00399002904D0029971
:10CF1000814201D018251AE0064610E0FFF70FFD08
:10CF2000002813D0012F02D0032F0AD00FE003985E
:10CF3000002804D00298002801D0172507E01148E6
:10CF400002E0114886681148046800E01925FFF7DF
:10CF500027FB002801D1012F04D0002D04D0284642
:10CF600005B0F0BD1925FAE7002C04D0049806603E
:10CF70000A980460F3E79D2205A10020FFF762F9FB
:10CF80000220EDE7201A010064F1FF1FEC190100F7
:10CF90002E2E5C2E2E5C2E2E5C736F757263655C7C
:10CFA0006461706C696E6B5C647261672D6E2D6478
:10CFB000726F705C666C6173685F6465636F6465F3
:10CFC000722E630010B50D4C2078002806D0AC22DC
:10CFD0000BA10020FFF736F9022010BDFF223021FF
:10CFE0001448FBF7FDFA012020700020607060609B
:10CFF000A060E060A070E07010BD000094F0FF1F22
:10D000002E2E5C2E2E5C2E2E5C736F757263655C0B
:10D010006461706C696E6B5C647261672D6E2D6407
:10D02000726F705C666C6173685F6465636F646582
:10D03000722E630060FCFF1FF7B5494F0546387834
:10D0400084B01446012807D0C12246A10020FFF772
:10D05000F9F8022007B0F0BDF878002803D1BD60D0
:10D060000120FD60F870B878002856D1F9688D422B
:10D0700001D1012000E000200919F96000282FD01B
:10D08000786830210E1AA64200D916464249324627
:10D0900008180599FBF718FA7868A41B80197860BE
:10D0A0000599AD1989190591302829D316D000208A
:10D0B000E3222CA1FFF7C6F801233748BA68796844
:10D0C000FFF7B8FE787001A8009002AB01227878D3
:10D0D000B968FFF7FBFE002826D103E00120E7E74F
:10D0E0000320EFE7B87801267040FC221DA1FFF76E
:10D0F000A9F8019800F00AF9002815D1BE7002E0E5
:10D10000B878002813D024497A68B86800F070F81D
:10D11000002809D1B878002809D022462846059968
:10D1200000F066F8002802D00321397092E7787881
:10D13000012804D0022805D003280FD105E01F20C4
:10D14000800204E07F20800201E01448C0682919B1
:10D15000814203D30220387010207BE7002079E75A
:10D1600094F0FF1F2E2E5C2E2E5C2E2E5C736F759E
:10D170007263655C6461706C696E6B5C647261673C
:10D180002D6E2D64726F705C666C6173685F646590
:10D19000636F6465722E630060FCFF1F64F1FF1F04
:10D1A00010B5EFF31081CC07E40F72B6FBF784FFE4
:10D1B000002C00D162B610BD70B50E4605001446B5
:10D1C00013D020211046FBF732FA2660E868606031
:10D1D000A9686868FBF746FAA0600420E060206157
:10D1E0006061A061E061002070BD042070BD00009E
:10D1F000F7B5374F04467878002582B016460128E7
:10D2000005D07B2233A10020FFF71CF809E07869E4
:10D21000844209D283222FA10020FFF713F80220B5
:10D220007870022005B0F0BDF878002809D12046BA
:10D2300002F096F9050002D00220787046E0012045
:10D24000F870234FBA6878688118A14215D8B96977
:10D250008B682D499847050003D01D49022048706E
:10D2600034E0B968FF2228480091FBF7B9F90120A2
:10D27000B8707968009808187860002E24D0396951
:10D28000F8684018A04204D8204602F069F9050069
:10D29000E3D10F4948688968201A0F1ABE4200D2AC
:10D2A000374619493A4608180399FBF70DF9002F3C
:10D2B00008D000200649E41988700398C019F61BAD
:10D2C0000390BEE70120F5E7014844612846A9E73D
:10D2D000A4F0FF1F2E2E5C2E2E5C2E2E5C736F751D
:10D2E0007263655C6461706C696E6B5C64726167CB
:10D2F0002D6E2D64726F705C666C6173685F6D611A
:10D300006E616765722E630090FCFF1F70B5234D40
:10D3100004466878002801D047222CE0002C29D050
:10D320006068002826D0A068002823D0E068002884
:10D3300020D0206900281DD0606900281AD0A0697B
:10D34000002817D00121FF2289021548FBF748F970
:10D350000126AE700020E8706860A860E86028616F
:10D36000AC61686120688047040009D128780028F2
:10D3700007D010E04D220BA10020FEF763FF022032
:10D3800070BDA86900698047040004D0A86940689E
:10D390008047204670BD6E70FBE70000A4F0FF1FC1
:10D3A00090FCFF1F2E2E5C2E2E5C2E2E5C736F7554
:10D3B0007263655C6461706C696E6B5C64726167FA
:10D3C0002D6E2D64726F705C666C6173685F6D6149
:10D3D0006E616765722E630070B5194C0025607828
:10D3E000002802D0012807D010E0CB2215A1002090
:10D3F000FEF728FF022070BDA078002806D1A069A2
:10D400001D498368A268606898470546A06940681E
:10D41000804706460121FF2289021748FBF7E0F802
:10D4200001200021A070E1706160A160E1602161D4
:10D4300061616170002E01D0304670BD284670BD1C
:10D44000A4F0FF1F2E2E5C2E2E5C2E2E5C736F75AB
:10D450007263655C6461706C696E6B5C6472616759
:10D460002D6E2D64726F705C666C6173685F6D61A8
:10D470006E616765722E630090FCFF1F10B5EFF3BD
:10D480001083DC07E40F72B6FCF710F8002C00D113
:10D4900062B610BD8021017001780906FCD5704785
:10D4A0007047000003460122014900201847000090
:10D4B0000C070020024800698007C00F7047000079
:10D4C00040F00F4000B51848816B1F2252021143F3
:10D4D000816316498015086108610861144A50602B
:10D4E0008860002000F032F8002000F025F80020CD
:10D4F00000F036F80F4801680423194301604269BF
:10D5000010210A43426142690A43426142690A4367
:10D5100042614169194341610648803841690222EC
:10D520009143416100BD00000080044000C0044000
:10D5300000A00440C0F00F4010220349012801D090
:10D540004A6070478A607047C0F00F40102203495C
:10D55000012801D04A6070478A607047C0F00F40D0
:10D5600010220349012801D04A6070478A60704741
:10D57000C0F00F401B4E1C4D1C4C1C481C4F31462C
:10D580001830BC4600DFA0681749800140194039B7
:10D59000FBF7CAF9A06814498001401940224039BC
:10D5A000FAF792FFA0680521401CFBF75BF80F48D3
:10D5B000104F2030BC46A16000DF104F31460E48AE
:10D5C000BC4600DF2078002803D000F0BBFA002022
:10D5D00020700B4F0848BC4600DF002000F08CFA9A
:10D5E000CBE70000FFFF0000A8F2FF1F08F0FF1FBD
:10D5F000B9F100007DF10000E8F3FF1FD1EE00005B
:10D6000029EE0000B0B5184F15491648BC4600DF9A
:10D61000174F00211548BC4600DF00281ED000200F
:10D62000982214A1FEF70EFE104C1F49203CE06822
:10D63000402280014118002003F076F9E0680521BE
:10D64000401CFBF70FF8194F20461030BC46E16034
:10D6500000DF174F0348BC4600DFB0BD0120DFE705
:10D66000FFFF0000E8F3FF1FD1EE000028F0FF1FCE
:10D67000B9F100002E2E5C2E2E5C2E2E5C736F7581
:10D680007263655C6461706C696E6B5C636D736919
:10D69000732D6461705C757362645F757365725F2E
:10D6A0006869642E63000000A8F2FF1F7DF100008E
:10D6B00029EE000070B50F4C00206060A060E060B3
:10D6C0000D492061FFF7ACF8606001200B49C003F1
:10D6D000FFF7A6F80125A060AD021F2029468002B1
:10D6E000FFF79EF8E0607F2029468002FFF798F858
:10D6F000206170BD30F0FF1FFC7B0000FC7B01004F
:10D700000048704744F0FF1F0021064B0A6A0120C1
:10D710009A4200D00020496A034A914200D000207A
:10D7200070470000939D939B0199969700B5FFF772
:10D73000EBFF002801D00020806A00BD014840684E
:10D740007047000030F0FF1F0148806870470000FC
:10D7500030F0FF1F0048704794F4FF1F00487047E7
:10D7600052F4FF1F0120C103054B0A6A9A4200D000
:10D770000020496A034A914200D00020704700000F
:10D780008F9E939B0199969700B5FFF7EBFF0028BA
:10D7900002D00120C003806A00BD0000004870472D
:10D7A00045F4FF1F0048704773F4FF1F004870479F
:10D7B00014F4FF1F004870479DF4FF1F0048704796
:10D7C00049F0FF1F70B5FFF775FF1F4801F086F89D
:10D7D00001F06CFE1C4831212030FAF728FF1A486E
:10D7E0001A492030FAF764FE174819A12030FAF7D9
:10D7F0005FFE15495E3108463E38FAF759FE124978
:10D80000A03108468038FAF753FE0F480024203034
:10D81000FAF7D2FD0C4AC1B24800A932801C107040
:10D8200003205070022000231546893D08E02E5D3C
:10D830001654401CC0B21354401C641CC0B2E4B265
:10D840008C42F4D370BD0000F4F3FF1F44F0FF1FBF
:10D85000303030300000000010B5134C2078002824
:10D8600006D0612211A10020FEF7ECFC022010BDC1
:10D87000002211461046FBF7D9FD002801D01A20DE
:10D8800010BD00206070A070E070A060E0602071AA
:10D89000206160610121A06189021248FAF7C5FE8A
:10D8A00001202070002010BDC0F0FF1F2E2E5C2E26
:10D8B0002E5C2E2E5C736F757263655C6461706C98
:10D8C000696E6B5C647261672D6E2D64726F705C43
:10D8D0006961705F666C6173685F696E74662E6300
:10D8E000000000009000002030B5002305E0DD00BE
:10D8F0000C46EC40C4545B1CDBB29342F7D330BD02
:10D90000F7B504462F481F250078AD0282B01746B0
:10D91000012808D0FF2279322BA10020FEF792FCCB
:10D92000022005B0F0BDAC4201D31F20F9E7FFF79C
:10D9300006F8002844D02E1B301FB84201D93A46C1
:10D9400000E0321F1F4803998069FEF78DFF1D49D3
:10D950008861009001208002844207D228483A461C
:10D9600000190399FAF7B0FD0020DAE7E019A842A0
:10D9700026D103988519281FFAF75BFE0102203D86
:10D98000E87F090A0006014300980E4D884201D045
:10D990002320C6E739462046039AFFF76FFD00288B
:10D9A00001D01C20BDE70122920215490020FEF79C
:10D9B00083FF0446FFF77EFE012068702046B0E733
:10D9C0002220AEE7C0F0FF1F2E2E5C2E2E5C2E2EE6
:10D9D0005C736F757263655C6461706C696E6B5CBF
:10D9E000647261672D6E2D64726F705C6961705F27
:10D9F000666C6173685F696E74662E630000000078
:10DA00009000002010B5114904461F2009788002BB
:10DA1000012907D0FF22BB320DA10020FEF712FC26
:10DA2000022010BD844201D31F2010BDFEF787FFE6
:10DA3000002801D0002C01D0222010BDFF2201328D
:10DA40000020D101FEF738FF10BD0000C0F0FF1F1D
:10DA50002E2E5C2E2E5C2E2E5C736F757263655CB1
:10DA60006461706C696E6B5C647261672D6E2D64AD
:10DA7000726F705C6961705F666C6173685F696E1C
:10DA800074662E630000000002468800064910B547
:10DA900040184038C06B002804D0114601F096FAB7
:10DAA00001F084FA10BD00004CFBFF1F80B501207F
:10DAB0000649C0038860FAF74FFB084F044A05493E
:10DAC0000548BC4600DF002080BD000000ED00E0FE
:10DAD000A0F6FF1F0A20030079DB000035F20000EA
:10DAE0000122044900284A7001D0022000E00120F0
:10DAF0000871704750F0FF1F0122044900280A7086
:10DB000001D0022000E00120C870704750F0FF1FD4
:10DB10000122044900288A7001D0022000E001207F
:10DB20004871704750F0FF1F80B50448044F81686A
:10DB30000120C002BC4600DF80BD000050F0FF1F86
:10DB4000A9EB000080B50448044F816801208002E1
:10DB5000BC4600DF80BD000050F0FF1FA9EB0000B5
:10DB600080B50348034F81680420BC4600DF80BDB8
:10DB700050F0FF1FA9EB00001FB5002001900646E2
:10DB8000009001250390FEF71BFD794FBC4600DF96
:10DB9000784CA060FFF796FC0020FFF7D7FC002030
:10DBA000FFF7CAFC0020FFF7DBFCFBF755FA00F09B
:10DBB0006BFA00F06AFAFFF705FE02F075FF01202C
:10DBC00003F08EFA002002F061FE0120A0710B200C
:10DBD0006C4F02900023684A68496948BC4600DFE0
:10DBE0006B4F002268496948BC4600DF694FBC465C
:10DBF00000DF0446800501D5FCF710FF600702D561
:10DC0000022002F0CEFAE0060FD5032002F0C9FA96
:10DC1000002002F03BFE0020FFF798FC0020FFF7F9
:10DC20008BFC0020FFF79CFCFEE7A00602D503203A
:10DC300002F0B7FA600501D5FFF7E4FC200501D535
:10DC4000FEF752FBE00731D05A2003F083FA49482F
:10DC5000807900282AD0012809D0032812D005286D
:10DC600024D144490020887102F010FE1EE0029881
:10DC7000002802D0401E029018D1012002F006FEBA
:10DC8000032111E002F0FAFD00280FD003980028CC
:10DC900009D1394A3B4F002388323F493F48BC46AF
:10DCA00000DF01200390022132488171A00797D53F
:10DCB000002D0AD0022D0ED0FFF7FCFB00280ED15C
:10DCC0000025012002F064FA09E0FFF7F3FB0128C8
:10DCD00005D1022503E0002002F05AFA0125254C67
:10DCE0002078002814D0E078012801D002280FD134
:10DCF0000199012901D0012100E0002101910029B1
:10DD000003D1012801D1002020700846FFF71EFC36
:10DD1000A078002812D06079012801D002280DD106
:10DD2000012E01D0012600E00026002E03D101289B
:10DD300001D10020A0703046FFF712FC6078002867
:10DD400000D14DE72079012801D00228F9D10099AE
:10DD5000012901D0012100E000210091002903D117
:10DD6000012801D1002060700846FFF7E5FB37E786
:10DD700071F4000050F0FF1F08F5FF1F0B88000032
:10DD8000C1010100F5F30000FFFF0000370E0000A5
:10DD900005EC000051EB00000F10010075D50000EC
:10DDA00010B5FFF70FF910BD10B5FF210446023181
:10DDB000FAF73BFC00F026FE00202070FFF702F986
:10DDC00010BD0000012805D0022805D0032810D07E
:10DDD000CF2202E0C32200E0C72207A10020FEF705
:10DDE00031FABFF34F8F0F490D48C860BFF34F8F13
:10DDF000FEE7CB22F1E700002E2E5C2E2E5C2E2EAD
:10DE00005C736F757263655C6461706C696E6B5C8A
:10DE10005254585F436F6E6669672E6300000000BE
:10DE20000400FA0500ED00E0FEE700000748016885
:10DE30000748416100218161072101610548016AAC
:10DE4000FF2212061143016240177047B419010006
:10DE500000E000E000ED00E070477047FFB583B0E0
:10DE6000054604980E9C281800900020844F2060DE
:10DE7000F878844E00281BD00020F870701E0278BD
:10DE8000011D0698FAF720FB701E007806994118CC
:10DE90000691216808182060786871783278000C43
:10DEA0000902000411430843711E09784018786084
:10DEB000CAE028780A2813D00D2811D03A287DD03E
:10DEC000397800297BD0FEF731FD02076D4978785B
:10DED000491E0B5C120F1A430A54401C7870ADE0C7
:10DEE000684A0021521E137808465B1D9C4604E0D8
:10DEF000135C5918401CC9B2C0B28445F8D8002937
:10DF000001D00426A5E0B878002844D10120B870DB
:10DF1000707831780002084340BA3070010A71709D
:10DF200001905848401EC078002806D0012833D000
:10DF3000022833D004282ED14EE052492522491E12
:10DF40008818FAF7C1FA7868019A010C090411439C
:10DF5000814203D00120F87002267AE04948401E31
:10DF60000278011D0698FAF7AFFA46480699401E56
:10DF70000078411806912168081820607868717847
:10DF80003278000C09020004114308433D49491E40
:10DF900009784018786056E001265AE021680C980C
:10DFA000FF22411A0698FAF71BFB20687968091AC4
:10DFB0000D9801600098411B049801E02AE033E0CD
:10DFC000411A059801602F48401E017940790903E4
:10DFD0000001014379601AE021680C98FF22411A80
:10DFE0000698FAF7FDFA20687968091A0D98016019
:10DFF0000098411B0498411A059801602148401E71
:10E00000417902790802104340BA00047860022086
:10E0100007B0F0BD1B482521401EFAF706FB002083
:10E0200038707870B8700EE07978252925D2FEF71F
:10E030007DFC144900017A78491E885438780028FC
:10E040001BD0002038706D1C0098854200D030E74E
:10E05000002621680C98FF22411A0698FAF7C0FAA8
:10E0600020687968091A0D9801600098411B04988E
:10E07000411A059801603046CAE70120E2E7000036
:10E08000DCF0FF1F910400207047704770B5134DFE
:10E090000646EFF31080C407E40F72B62846FBF77C
:10E0A0000BF8002C00D162B6002816D1FF221021F7
:10E0B0000B48FAF795FA092231460948FAF704FAAB
:10E0C000EFF31080C407E40F72B6054A102128460A
:10E0D000FBF7ECF9002C00D162B670BD00FC01002A
:10E0E00070220020F7B504461F2084B08002434F01
:10E0F000029038781646012805D0A12240A10020C0
:10E10000FEF7A0F841E0FF21013188000090019165
:10E110002046FAF7A7FA0225002901D0AA222FE00B
:10E120000198864205D301463046FAF79BFA00294A
:10E1300001D0B12224E020460099FAF793FA009822
:10E140008919814201D9B8221AE0B87800280DD186
:10E15000F878002808D0B9688C4203D3F86808180A
:10E16000A04203D8C6220BE0C02209E03979384624
:10E1700000290DD07A6939698918A14208D0CE22C8
:10E180001FA10020FEF75EF83D70022007B0F0BD31
:10E190007F218902A7198C4205D20121C9038F4230
:10E1A00001D9002100E00121002910D013480121EC
:10E1B000017146610461324620460599FFF7A0FBD4
:10E1C000222807D00028E1D00C490D70DEE7057049
:10E1D0001C20DBE731462046059AFFF74FF900285F
:10E1E00001D00648F3E70298874204D3FFF762FAAA
:10E1F0000249012048700020C8E70000C0F0FF1F5E
:10E200002E2E5C2E2E5C2E2E5C736F757263655CF9
:10E210006461706C696E6B5C647261672D6E2D64F5
:10E22000726F705C6961705F666C6173685F696E64
:10E2300074662E6300000000FF2001307047EFF38A
:10E240001082D207D20F72B603680B400360002A17
:10E2500000D162B67047EFF31082D207D20F72B6C8
:10E2600003680B430360002A00D162B67047EFF3E6
:10E270001082D207D20F72B603684B400360002AA7
:10E2800000D162B670470000F7B50446801801213E
:10E2900040028902884206D9124A13A10020FDF7E4
:10E2A000D1FF0020FEBD560231460198FAF7BDF9B4
:10E2B00064026509102D12D201277F02BC4201D2EF
:10E2C000012000E000209122920007A1FDF7BAFF93
:10E2D0001249680141183A1B0198FAF7F5F83046DF
:10E2E000FEBD00003A0200002E2E5C2E2E5C2E2E6B
:10E2F0005C736F757263655C6461706C696E6B5C96
:10E30000647261672D6E2D64726F705C76697274D1
:10E3100075616C5F66732E630000000010120020B0
:10E3200010B5012464020B46002801D0002010BD66
:10E33000224603491846FAF7C7F8204610BD0000E8
:10E34000500B0020F8B50C46002801D00020F8BD85
:10E35000204F3878012838D0022838D000250846C8
:10E360001DA102F051FC0646A0191EA102F04CFCB2
:10E370008619A0191D4902F047FC8619A0191CA195
:10E3800002F042FC8619A0191AA102F03DFC861980
:10E39000A019798802F041FC8619A01914A102F095
:10E3A00033FC8619002D0ED0A01914A102F02CFC0C
:10E3B0008619A019294602F027FC851960190CA1BD
:10E3C00002F022FC46193046F8BD0FA5C7E711A59B
:10E3D000C5E70000F0F0FF1F4173736572740D0A0A
:10E3E0000000000046696C653A2000000C0900201E
:10E3F0000D0A00004C696E653A200000536F75727B
:10E4000063653A2000000000426F6F746C6F6164B6
:10E41000657200004170706C69636174696F6E00B1
:10E4200070B50C46002801D0002070BD084699A1A7
:10E4300002F0EAFB05466019A3A102F0E5FB4519CD
:10E44000FFF7B4F90146601902F0DEFB45196019C7
:10E45000A0A102F0D9FB451960199FA102F0D4FBDD
:10E460004519FFF777F90146601902F0CDFB451910
:10E47000601998A102F0C8FB4519601999A102F032
:10E48000C3FB4519FEF784F8002801D099A100E0EC
:10E4900099A1601902F0B8FB451960198DA102F02D
:10E4A000B3FB4519601995A102F0AEFB4519FEF7C3
:10E4B00077F8002801D08FA100E08FA1601902F049
:10E4C000A3FB4519601983A102F09EFB4519601951
:10E4D00090A102F099FB4519FEF76AF8002801D0D7
:10E4E00084A100E084A1601902F08EFB4519601937
:10E4F00078A102F089FB4519FEF71FFA002801D028
:10E500008AA600E08CA660198EA102F07DFB451959
:10E510006019314602F078FB451960196DA102F0CF
:10E5200073FB45196019314602F06EFB45196019FD
:10E5300088A102F069FB4519FFF740F9014660190F
:10E5400002F062FB4519601962A102F05DFB4519FA
:10E55000FEF7F3F9002815D1FFF7D6F8002811D0FF
:10E5600060197FA102F050FB4519FFF7DFF8014663
:10E570006019042202F077FB4519601955A102F0D9
:10E5800043FB4519FEF7DBF9002815D1FFF7EAF840
:10E59000002811D0601978A102F036FB4519FFF769
:10E5A000F3F801466019042202F05DFB4519601979
:10E5B00048A102F029FB4519601974A102F024FB5F
:10E5C0004519601974A102F01FFB4519601941A19A
:10E5D00002F01AFB451960197AA102F015FB4519E2
:10E5E0006019002102F019FB4519601939A102F0E8
:10E5F0000BFB4519601977A102F006FB451960195C
:10E6000079A102F001FB4519601978A102F0FCFA2A
:10E610004519601977A102F0F7FA451960192DA183
:10E6200002F0F2FA4519FFF76FF8002810D06019D0
:10E6300072A102F0E9FA4519FFF780F80146601966
:10E6400002F0BCFA4519601922A102F0DDFA451961
:10E6500060196FA102F0D8FA4519FFF775F8014665
:10E66000601902F0ABFA451960191AA102F0CCFA50
:10E67000451960196BA102F0C7FA6E494519601976
:10E68000496802F0CAFA4519601912A102F0BCFAF1
:10E69000401970BD23204441504C696E6B2046697F
:10E6A000726D77617265202D2073656520687474C2
:10E6B00070733A2F2F6D6265642E636F6D2F6461E6
:10E6C000706C696E6B0D0A00556E69717565204935
:10E6D000443A20000D0A00004849432049443A20AA
:10E6E000000000004175746F2052657365743A2014
:10E6F0000000000031000000300000004175746F20
:10E700006D6174696F6E20616C6C6F7765643A201F
:10E71000000000004F766572666C6F772064657448
:10E72000656374696F6E3A2000000000426F6F7479
:10E730006C6F616465720000496E74657266616336
:10E74000650000004461706C696E6B204D6F6465FC
:10E750003A2000002056657273696F6E3A200000FF
:10E76000426F6F746C6F6164657220566572736975
:10E770006F6E3A2000000000496E74657266616336
:10E78000652056657273696F6E3A20004769742080
:10E790005348413A2000000062343033613037651D
:10E7A0003336393663656531653131366434346307
:10E7B00062646436343434366530353663653338F4
:10E7C000000000004C6F63616C204D6F64733A2051
:10E7D0000000000055534220496E74657266616303
:10E7E00065733A20000000004D5344002C20434440
:10E7F000430000002C20484944000000426F6F7421
:10E800006C6F61646572204352433A203078000097
:10E81000496E74657266616365204352433A2030E5
:10E820007800000052656D6F756E7420636F756EB1
:10E83000743A2000F0F0FF1FF8B50D46064602F0CE
:10E8400081FCFEF749F90746F9F7B6FD0446002EAC
:10E8500001D00020F8BD024639462846F9F734FEBB
:10E860000D202855601C0A212954A01CF8BD10B5A4
:10E870000C46002801D0002010BD0121490220468D
:10E8800001F076FF2046F9F797FD10BDF8B5094D68
:10E8900006460F462846F9F78FFD0446002E01D0A4
:10E8A0000020F8BD024629463846F9F70DFE2046FD
:10E8B000F8BD0000481B010010B5012464020B469E
:10E8C000002801D0002010BD224603491846F9F760
:10E8D000FBFD204610BD00005009002004490A6AD3
:10E8E0000260CA694260896981600021C160704725
:10E8F0004080044010B5084654022146F9F795FEC1
:10E90000204610BD70B5234D00246878A978E443F3
:10E91000884201D0012000E00020FF22F0321EA139
:10E92000FDF790FC6878022804D0002816D0012852
:10E9300018D020E02548FF24007FF53400281AD0A5
:10E94000012809D0022816D0032814D0204A12A189
:10E950000020FDF777FC0EE01E4C0CE0A8780228A2
:10E9600008D008E0A878022802D0002802D002E0EF
:10E97000194C00E00024601C05D1154A06A1103294
:10E98000FDF760FC0024A868A04201D9012070BDF9
:10E99000002070BDE4F0FF1F2E2E5C2E2E5C2E2E6C
:10E9A0005C736F757263655C6461706C696E6B5CDF
:10E9B000647261672D6E2D64726F705C7666735F32
:10E9C0006D616E616765722E63000000DC060020D9
:10E9D00001020000204E0000C409000070B503468B
:10E9E00000200246012509E0DC0704D08E1A761EBD
:10E9F0002C46B44020435B08521CD2B28A42F3D367
:10EA000070BD000010B525210748F9F70EFE064835
:10EA100025212530F9F709FE0448002141600170E5
:10EA200041708170C17010BD90040020DCF0FF1FA8
:10EA30000146EFF31080C207D20F72B608680028B3
:10EA400001D003680B60002A00D162B67047000055
:10EA500070B50D4600280FD00849094C884204D2F1
:10EA600022680146104600F0D1FA2068457005483A
:10EA700000F0FBF800F0D6FB70BD0000FFFF0000C7
:10EA800050F1FF1FB82100207047000070B51B4EE9
:10EA9000F068002831D0B08A401EB082002526E000
:10EAA000A068002808D0616841606068002802D032
:10EAB000A16881606560A56010482146183800F0A3
:10EAC000CDFAA08AB0826078042804D10C49E08A8B
:10EAD00009884018A0820120607020210855E06854
:10EAE000F060E068002801D00661E5602561B08A29
:10EAF000002802D1F468002CD2D170BDD0210020B2
:10EB000058F1FF1F70B504000ED00C4DA178286895
:10EB10000126827891420BD900F0BEFA286846702F
:10EB2000204600F07FFB70BD054800F09EF8F8E736
:10EB300066702146024800F091FA70BD50F1FF1F47
:10EB4000B821002010B50321FFF782FF10BD00009F
:10EB500001480068408B704750F1FF1F10B5044614
:10EB6000008B084320836278618B062A15D0052A22
:10EB700012D10A4610420FD002406283884320839C
:10EB8000204600F0ABFA01206070022120200155E0
:10EB90002146044800F062FA10BD0A468243EDD0D7
:10EBA00010BD0000B82100200246880070B514494D
:10EBB00040184038C46B002C1DD0208B104320839C
:10EBC0006178658B062917D0052914D1294608429A
:10EBD00011D001406183A8432083204600F07EFAD3
:10EBE000208B0221A8432083012060702020015542
:10EBF0002046FFF787FF70BD29468143EBD070BDEB
:10EC00004CFBFF1F70B503460D480D460468002AF3
:10EC1000208B08D01946814301D0062109E0984392
:10EC20002083022070BD0146194001D06183F6E7C0
:10EC3000052163832846FFF70BFF012070BD00000C
:10EC400050F1FF1F814202D342688A4201D801205D
:10EC50007047EFF31082D207D20F72B603680B60D1
:10EC6000016000D162B60020704701464068002371
:10EC700042684A600A78022A05D0012A03D0032A92
:10EC800001D0436070474268002A01D09160436020
:10EC90008360704770B5044615460020207001223D
:10ECA0006270A1706060A060E0602061A082E0827C
:10ECB000208323466083203318705870608C0028AE
:10ECC00003D10448FFF7B4FEA0622946204600F0B5
:10ECD00005F870BD90FAFF1F7047000030B5428CF8
:10ECE000920803D10E4A12881204920C836A920091
:10ECF0009B185A0700D51B1F403B01221206DA63FE
:10ED00000022996314469500521C5C510E2AFAD3D6
:10ED1000C2691A624362C162806A0249016030BD01
:10ED2000B0190100A52E5AE20349044A0968C882B5
:10ED3000128880188882704750F1FF1F58F1FF1F1A
:10ED400010B50848016808488A8A0088CB8A101ADA
:10ED5000D21880B28A82010402D40421FFF778FE1F
:10ED600010BD000050F1FF1F58F1FF1FF8B5044619
:10ED7000406800260F46002805D06078022818D089
:10ED8000A08900282FD0A089E18988423ED220891D
:10ED900080000019076172B6A089401CA08162B68C
:10EDA0002089401C80B22081E189884200D12681DF
:10EDB000F8BD66702046FFF758FF05462030067004
:10EDC0002189E86989000919086172B6A089401C87
:10EDD000A08162B62089401C80B22081E1898842EE
:10EDE0000AD1268108E02046FFF73FFF0546C069AB
:10EDF000042107602020415501206870284600F05A
:10EE00006DF92946034800F029F9F8BD0320FEF703
:10EE1000D9FFF8BDB8210020032101700021417005
:10EE20004180416081607047F8B504464088002801
:10EE300004D0254EA1683268914201D0FF20F8BD70
:10EE4000401E0004000C60803CD1316860788870FE
:10EE500061680127002928D02046FFF706FF0546F4
:10EE6000052120300170284600F038F96780A56040
:10EE7000A87860701548316840688A788078824246
:10EE800001D328460AE0114800F0E8F829460F4867
:10EE900000F0E4F8306847706F7011E0FFF732FE61
:10EEA00031680020203108700CE0084949688A78F0
:10EEB0003168824206D9054800F0D0F830684770C2
:10EEC0000020EBE70020F8BD50F1FF1FB821002023
:10EED00070B50E46184D044641882868002907D0B1
:10EEE000A168814208D16088401C6080002070BD0C
:10EEF000A06080786070F6E7002E0FD0627880788E
:10EF0000824203D28870A06800F0D0F860680028C0
:10EF100006D02046296800F0A1F808E0012070BD65
:10EF2000286860602968002048602868846009219A
:10EF30003046FFF78DFDF1E750F1FF1F70B518481F
:10EF4000012102685170006800F0A6F8154D6C7838
:10EF500013E0E000411948680278002A17D0012A1E
:10EF60001AD000F0F1F8E878641C844200D1002443
:10EF700072B6A878401EA87062B6A8780028E8D1BA
:10EF80006C700948FFF771FE00F04CF970BD0989FB
:10EF900089B2FFF7E3FDE6E78968FFF7E7FEE2E7FE
:10EFA00050F1FF1F28FBFF1FB82100200548017802
:10EFB000002902D001214170704701200249000759
:10EFC0004860704748F1FF1F00ED00E0F8B50E4EB5
:10EFD000F778B41C354672B6B278BA4207D2521CE2
:10EFE00022702A78531CBB4200D100232B7062B6DA
:10EFF000F378934204D9D200921991605060F8BD21
:10F000000220FEF7DFFEF8BD28FBFF1F10B5124AF5
:10F01000D368002B17D013469B8A04E0002C12D033
:10F020002246A48AE318D4688B42F7D3C460D06028
:10F030000261C468002C00D02061591A8182908A34
:10F04000401A908210BD0024C460D060C91A0261C9
:10F050009182848210BD0000D021002030B502785A
:10F060000023022A03D0012A01D0032A00D1012360
:10F070008C7800E010464268002A02D09578A542BC
:10F08000F8D24A604160002B04D0002A00D0916081
:10F09000886030BD0020FBE703494A6842600022D7
:10F0A0008260486070470000B821002010B5836876
:10F0B0000446002B05D1607801280CD1064B03E0F3
:10F0C0009B6818780028FBD0204600F01DF82146E8
:10F0D0001846FFF7C3FF10BDB821002010B5016925
:10F0E00000290FD0C268CA60C3680022002B07D075
:10F0F0008B8A848A1B198B82C3681961C26000E005
:10F100008A82026110BD00008168002907D0426830
:10F110004A604168002901D08068886070470649CC
:10F1200006E04A68824202D1406848607047114652
:10F130000029F6D170470000B82100200222027099
:10F14000002242604180704710B5416800290ED00E
:10F15000FFF78BFD0446FFF7C1FF0120607003211C
:10F160002020015521460448FFF778FF10BD418853
:10F17000491C418010BD0000B821002010B5416835
:10F18000002911D0FFF771FD0446032120300170E2
:10F190002046FFF7A3FF2046FFF7B4FC05480021F7
:10F1A00000682030017002E04188491C4180002045
:10F1B00010BD000050F1FF1F10B50C46418800291A
:10F1C00003D0491E4180002010BD002C07D00A4A00
:10F1D00043681168002B04D0FFF740FF07E00120CF
:10F1E00010BD4160136800215960116888600721D3
:10F1F0002046FFF72DFCF2E750F1FF1F10B507483E
:10F200000068416A806A814203D3006804498842E9
:10F2100002D00120FEF7D6FD10BD000050F1FF1F07
:10F22000A52E5AE202494860022141707047000051
:10F2300050F1FF1FF7B53A49154600200446374AFA
:10F24000098802E08300D450401C8842FAD3354834
:10F25000302201883448FCF7B2FF3448012100888D
:10F26000C90780B24218324801683248FCF7A7FF4C
:10F2700031480822018831480068FCF7A0FF304F70
:10F28000FF26FE707C842F4A00213846FFF702FDDE
:10F290002D480421017044602C480170C460046151
:10F2A0008482786A2030F8F751FF29482A4907609C
:10F2B000022078702748047044700978C170FFF705
:10F2C0000BFD2648016A320411430162C169026ADA
:10F2D0005202920E92061143C161FEF7A7FD20492A
:10F2E0000028086012DB82081E49920051180A6843
:10F2F0008307DB0E9E4032430A60C206D20E012114
:10F3000091404011184A80008018016000232A466D
:10F310000199009800F06EF8FEBD00004CFBFF1F45
:10F32000AC190100C4190100C0F9FF1FB019010098
:10F33000C819010090FAFF1FCE1901005CF0FF1FF1
:10F34000E821002029DE0000B8210020D021002083
:10F3500050F1FF1F28FBFF1FCC19010000ED00E05A
:10F360004CF1FF1F00E400E000E100E010B50B48A5
:10F370000121026851700068FFF78EFEFFF784FBE1
:10F3800007480168491C0160FFF780FB00F012F894
:10F390000448FFF76AFCFFF745FF10BD50F1FF1F5F
:10F3A00058F1FF1FB8210020014800687047000095
:10F3B00058F1FF1F70B50D4D2868002815D0A8889A
:10F3C0000B4E401EA8800AE0E088FEF746FDA088AC
:10F3D000A8802068286021463068FFF733FCA888A1
:10F3E000002802D12C68002CEED170BD5CF1FF1F0B
:10F3F0005CF0FF1FFFB5080681B01E4617460C469D
:10F40000000E00D14C1C1648FFF712FB050025D05A
:10F410002002000CAF626884EE61E1B22846019AD6
:10F42000FFF738FC104801240E49028806E0A000CE
:10F4300040184038C06B002803D0641C9442F6D9B1
:10F440000024A00040184038C563EC702846FFF740
:10F4500059FB0648006820300470204605B0F0BD16
:10F46000C0F9FF1F4CFBFF1FAC19010050F1FF1F3B
:10F4700002480068002800D0C078704750F1FF1F94
:10F480000020704710B5064C6078002807D1012293
:10F49000520204490448F8F71DFF0120607010BDB6
:10F4A000F8F0FF1F100E002010120020F8B5002405
:10F4B0002848254604600471264621212648F9F78C
:10F4C000B4F8254821212130F9F7AFF82248092165
:10F4D0004230F9F7ACF8204F1F48A1005E38415880
:10F4E000781901F06BFB4019641CE4B2C5B2042C1E
:10F4F000F2D37E550025184F2C4621371648A1001F
:10F500004E384158781901F059FB4019641CE4B297
:10F51000C5B2042CF2D3104C0E497E554234143936
:10F520002046096801F04AFBC0B226540B48042269
:10F5300001680848F8F7C8FF064830210671401DE9
:10F54000017032214170342181703321C170067104
:10F55000F8BD000044F0FF1F52F4FF1F00F0FF1F32
:10F56000F1B5354DA8694169009888470746A869F3
:10F570008169009888470446002F07D0002C05D0E9
:10F580000126B602B74209D8012008E0FF22233243
:10F590002AA10020FCF756FE0220F8BD0020FF2221
:10F5A000283226A1FCF74EFE39463046F9F75AF8C4
:10F5B000002909D00020FF22293220A1FCF742FEB9
:10F5C000BC4203D3012002E00120F4E70020FF2227
:10F5D0002A321AA1FCF736FE39462046F9F742F8DE
:10F5E00000291FD00020FF222B3214A1FCF72AFE95
:10F5F00021460098F9F736F80098401AE8602C6127
:10F600006860B44200D33446AC60297800290BD03E
:10F61000A969C9688847040006D0A869406880477E
:10F620002046F8BD0120DEE7FF221148A968F8F75F
:10F63000D7FF0020F8BD0000A4F0FF1F2E2E5C2E87
:10F640002E5C2E2E5C736F757263655C6461706CEA
:10F65000696E6B5C647261672D6E2D64726F705C95
:10F66000666C6173685F6D616E616765722E6300C1
:10F6700090FCFF1F10B50A4C2078002808D000F03D
:10F680008DF86068C168074888470021217010BD67
:10F69000C12205A10020FCF7D5FD022010BD00000D
:10F6A00068F0FF1F5CFBFF1F2E2E5C2E2E5C2E2EA3
:10F6B0005C736F757263655C6461706C696E6B5CC2
:10F6C000647261672D6E2D64726F705C66696C6523
:10F6D0005F73747265616D2E63000000B0B5144CE9
:10F6E00005462078002801D0862202E0022D06D3AC
:10F6F0008C2210A10020FCF7A5FD0220B0BD1A4FFE
:10F70000BC4600DFFF21A06005311848F8F78FFFE5
:10F7100001200749207028010C31401860604168C1
:10F72000124888470028E9D003212170B0BD0000AD
:10F7300068F0FF1F2E2E5C2E2E5C2E2E5C736F75D4
:10F740007263655C6461706C696E6B5C6472616746
:10F750002D6E2D64726F705C66696C655F73747278
:10F7600065616D2E6300000071F400005CFBFF1FFB
:10F77000F8B5094D0E460746002420012A583146A7
:10F7800038469047002801D02046F8BD641CE4B2FA
:10F79000022CF2D30320F8BD74F0FF1F80B5074F91
:10F7A000BC4600DF06498968884201D1012000E09B
:10F7B0000020632203A1FCF745FD80BD71F4000029
:10F7C00068F0FF1F2E2E5C2E2E5C2E2E5C736F7544
:10F7D0007263655C6461706C696E6B5C64726167B6
:10F7E0002D6E2D64726F705C66696C655F737472E8
:10F7F00065616D2E63000000014610B508310322DB
:10F800000C4608A0F8F704FE002807D00322214682
:10F8100005A0F8F7FDFD002801D0032010BD012050
:10F8200010BD000042494E004845580070B5154DC6
:10F83000064628780C46012806D0A52212A10020F1
:10F84000FCF700FD022070BDFFF7A8FF68682246A4
:10F8500083683146194898470446102807D0112C70
:10F8600007D0002C05D003202870204670BD022050
:10F87000FAE72878012800D00020B32202A1FCF783
:10F88000E1FCF2E768F0FF1F2E2E5C2E2E5C2E2E80
:10F890005C736F757263655C6461706C696E6B5CE0
:10F8A000647261672D6E2D64726F705C66696C6541
:10F8B0005F73747265616D2E630000005CFBFF1F57
:10F8C000F0B593B00F4604461E46154644216846DF
:10F8D000F8F7ADFE189800950290199801960390DC
:10F8E00060680990A0680D9020680E9001200006C5
:10F8F00010900F97684600F087FA002833D01C4D0F
:10F900001C4E002411A9304600F0F0F8002829D040
:10F91000119880030AD5174800216F460C466425CC
:10F92000001D00F011FB00281CD003E0641CAC4259
:10F93000E8D317E03946304600F0D8F8002811D057
:10F940003868C00302D4641CAC42F3DBAC4209D07B
:10F9500008483946083000F0C9F8002802D000985D
:10F96000002802D0002013B0F0BD0120FBE700000A
:10F9700040420F00F0ED00E010B5F9F76DFB0948CB
:10F9800020214160402444608215426043690B435A
:10F990004361416921434161416911434161012052
:10F9A00010BD000080F00F4038B50020411E0090CF
:10F9B0001C4801604160FFF7DFFF00F017FBF9F71B
:10F9C00045FD00282DD01E21002000F06BFA0028F4
:10F9D00027D00021082000F065FA002821D0052159
:10F9E0000907042000F05EFA00281AD005246407F5
:10F9F0006946042000F05AF8002812D000992046E9
:10FA00008843F5D10849042000F04CFA002808D0BA
:10FA100000F0CBFB0021082000F044FA002800D0C1
:10FA2000012038BD60F0FF1F000F005007484169FA
:10FA300020229143416141694022914341614169E2
:10FA400082159143416101207047000080F00F4012
:10FA50001CB50C460146042201A8FDF745FF052010
:10FA600001A900F005F901281ED10F20694600F018
:10FA7000FFF8012818D10E20694600F0F9F800219E
:10FA80006A462160D17809062160927812041143F8
:10FA90006A4621605278120211436A462160127848
:10FAA00011432160012800D000201CBD38B50C4650
:10FAB0000C210840801C694600F0DAF800216A46F3
:10FAC0002160D178090621609278120411436A46B8
:10FAD00021605278120211436A4621601278114364
:10FAE0002160012800D0002038BD000070B50C4610
:10FAF00005460749002000F0CBF8002806D0214633
:10FB00002846FFF7A5FF002800D0012070BD0000A7
:10FB1000520000231CB500206A46FF211154401CEE
:10FB2000C0B20828FAD311463320F9F749FF012063
:10FB30001CBD000070B520250B4C4026002810D0BD
:10FB4000FFF732FF0949042000F0A2F8002807D08F
:10FB500001210C2000F09CF8002801D0A560A660CF
:10FB600070BD6560666070BD80F00F404405004068
:10FB7000F8B50446FFF700FF394D2300FCF712FBF0
:10FB8000050418084A4D6D000120FFF7D3FF62E01D
:10FB90000120FFF7CFFF334F0220BC4600DF0020DB
:10FBA000FFF7C8FF0220BC4600DFFFF73FFF52E02F
:10FBB000FFF7FAFE00284FD02B49284600F0C4F981
:10FBC000002849D069462846FFF790FF002843D017
:10FBD00000988003F6D5224C01210C34204600F019
:10FBE000B3F9002838D01E482049E43800F0ACF9B9
:10FBF000002831D01B4F0220BC4600DF6946284652
:10FC0000FFF774FF002827D000988003F6D5002165
:10FC100020461CE01449C91E18E0F9F717FC00281B
:10FC20001AD01E21002000F03DF9002814D0002138
:10FC3000082000F037F900280ED00521090704201C
:10FC400000F030F9002807D00749891E284600F047
:10FC50007BF9002800D00120F8BD0020F8BD00008D
:10FC6000F0ED00E045EB000003005FA00400FA05A2
:10FC700070B50D460646002429463046F9F72EFC9D
:10FC8000022803D1641CE4B2642CF5D370BD0000DB
:10FC900038B50D46010E0446F02209061040014316
:10FCA000082000F0FFF8002806D0002C06D10E48EE
:10FCB0004168A94201D1012038BD45600C200440B3
:10FCC000641C042229466846FDF70EFE694620465C
:10FCD000FFF7CEFF012805D10E200021FFF7C8FF56
:10FCE0000128E9D0002038BD60F0FF1FF8B50D46AF
:10FCF0000446002A25D0960813490020FFF7C8FFC4
:10FD000000281FD00527042221466846FDF7ECFD98
:10FD100069463846FFF7ACFF012812D10D270024B1
:10FD200007E029463846FFF7A3FF012809D12D1D1A
:10FD3000641CB442F5D30E200021FFF799FF01287F
:10FD400000D00020F8BD00005200002370B50C4622
:10FD5000054608490020FFF79BFF002809D0A807A7
:10FD6000C00E21468140284600F02EF8002800D021
:10FD7000012070BD5000002373B5064600246425A1
:10FD80001048019900F0E0F8002815D00120000487
:10FD9000314601430B48001F00F0D6F800280BD075
:10FDA000084E083E01A93046FFF7A0FE002803D008
:10FDB0000198C00301D501207CBD641CAC42F1DB7D
:10FDC00000207CBDF8ED00E038B50C460146042269
:10FDD0006846FDF789FD05206946FFF749FF0128C0
:10FDE00010D1042221466846FDF77EFD0D206946AC
:10FDF000FFF73EFF012805D10E200021FFF738FF55
:10FE0000012800D0002038BD38B505460021082063
:10FE100000F048F800283BD00024A00029582046D4
:10FE2000FFF7AAFF002833D0641C042CF5D3092067
:10FE3000696AFFF7A1FF00282AD00D24A0002958E5
:10FE40002046FFF799FF002822D0641C102CF5D320
:10FE50001020296CFFF790FF002819D00E48806908
:10FE6000826AC16A406A00F039F8002810D00B4954
:10FE70000B4800F069F800280AD069460420FFF713
:10FE800015FE002804D00098A021084201D00020CF
:10FE900038BD012038BD000064F1FF1F01005FA0E4
:10FEA000F0ED00E038B5082806D10B4A13688B4204
:10FEB00001D1012038BD116004460C2214400422F7
:10FEC0006846FDF711FD69462046FFF7D1FE01287F
:10FED000F0D0002038BD000060F0FF1FF8B51446D8
:10FEE0000D46064608E029783046FFF72FFF002828
:10FEF00029D0761C6D1C641E002C23D0B007F2D1D3
:10FF000012E0B1050120890D8002471ABC4201D2DE
:10FF1000A708BF003A4629463046FFF7E7FE00280B
:10FF200011D0F619ED19E41B032CEAD808E0297862
:10FF30003046FFF70BFF002805D0761C6D1C641EB1
:10FF4000002CF4D10120F8BD70B50C4605460749D8
:10FF50000020FFF79DFE002806D021462846FFF727
:10FF600033FF002800D0012070BD000052000023A4
:10FF700080B5084FBC4600DF07494968884201D177
:10FF8000012000E00020FF22603204A1FCF75AF9B2
:10FF900080BD000071F40000E4F0FF1F2E2E5C2EE7
:10FFA0002E5C2E2E5C736F757263655C6461706C81
:10FFB000696E6B5C647261672D6E2D64726F705C2C
:10FFC0007666735F6D616E616765722E6300000017
:10FFD00080B5054F02490348BC4600DF80BD0000E4
:10FFE000FFFF000000070020D1EE00007047000076
:10FFF0007CB500250A4C2B46A069009501958168C7
:020000040001F9
:100000002A461430FFF75CFC002807D0207F002828
:1000100002D000F029F8054628467CBD0E207CBDA4
:1000200064F1FF1F7CB505460B48846901682846CA
:10003000F8F718FB00290DD100200090019003462D
:1000400020462A461430E168FFF73AFC002801D028
:1000500000207CBD0D207CBD64F1FF1F01480068BD
:100060007047000064F1FF1F7CB5114D0120AC69A1
:1000700000F097F8002814D0A26AE16A606AFFF7DE
:100080002DFF00280FD0002000900190034620464D
:10009000AA6814302168FFF713FC002805D000205F
:1000A0007CBD07207CBD08207CBD0A207CBD0000F3
:1000B00064F1FF1FF7B50746184882B084691546FA
:1000C00038460399FFF7DCF901281FD10B2005B052
:1000D000F0BD266BAE4200D92E463246206A039907
:1000E000FFF7FCFE002815D0206A00900021019146
:1000F00020463A461430236B2169FFF7E1FB0028C4
:100100000AD00398BF198019AD1B0390002DE0D1D0
:100110000020DCE70920DAE70F20D8E764F1FF1FB1
:1001200010B50748FF2400680134A04201D3012024
:1001300000E000209D2203A1FCF784F8204610BDBA
:1001400064F1FF1F2E2E5C2E2E5C2E2E5C736F75BD
:100150007263655C6461706C696E6B5C696E74651A
:1001600072666163655C7461726765745F666C6119
:1001700073682E630000000010B5FCF709FA002830
:1001800002D0022000F00DF8FFF750FC002010BD57
:1001900010B5002801D0002000E0022000F001F896
:1001A00010BD10B5FFF7E4FC10BD01207047884278
:1001B00003D3904201D8012070470020704700000F
:1001C0000D4F00240320BC4600DF0C4D0C4FBC46F5
:1001D00000DF0C4F0220BC46A96800DF0321204647
:1001E000F8F740FA641CE4B20029EFD10120BC46C4
:1001F000A96800DFEAE7000029ED000050F0FF1FCA
:1002000041ED0000A9EB0000F8B51C4D1646E87F53
:100210000C46002805D01A4A1AA10020FCF712F853
:10022000F8BDF0051DD00020154A16A1121DFCF7DF
:1002300009F8134A687F521D12A1FCF703F83146F2
:100240002046FFF7F3FA0D4C0027203410280AD07F
:1002500011280ED0277029698919296100F0CEF87C
:10026000F8BD0120E0E7FFF705FA6F770121E97794
:1002700001E0002001212170EDE70000DC060020F4
:10028000B10200002E2E5C2E2E5C2E2E5C736F753C
:100290007263655C6461706C696E6B5C64726167EB
:1002A0002D6E2D64726F705C7666735F6D616E612A
:1002B0006765722E6300000070B51A4D0646687FB0
:1002C0000C46002810D00020174A18A1FBF7BAFFEF
:1002D000601C00D00120144A14A1521CFBF7B2FF8D
:1002E0006868401C02D002E00120EDE76C600D4917
:1002F0002031C878032800D1CE706868A04202D1AE
:10030000C878B04201D0032008E03046FFF7E6F994
:10031000002803D10121AC606977A97700F06EF85D
:1003200070BD0000DC060020760200002E2E5C2E40
:100330002E5C2E2E5C736F757263655C6461706CED
:10034000696E6B5C647261672D6E2D64726F705C98
:100350007666735F6D616E616765722E6300000083
:1003600070B5174C257F032D03D02568002D06D0CE
:1003700006E0144A14A10020FBF764FF70BD206062
:100380006068401C00D161600D482030C578032DA5
:1003900000D1C3706569954204D9A569954201D918
:1003A000032009E04D1C02D065688D42F8D1C07869
:1003B0009842F5D10020626100F020F870BD000085
:1003C000DC0600202B0200002E2E5C2E2E5C2E2E32
:1003D0005C736F757263655C6461706C696E6B5C95
:1003E000647261672D6E2D64726F705C7666735FE8
:1003F0006D616E616765722E63000000FEB5044694
:10040000102803D0112C01D0012000E00020424A26
:1004100042A1FBF717FF4E4D287F03280AD02A6818
:10042000002A0ED0A969686981420AD3002808D041
:10043000012107E0384A39A1121D0020FBF702FF15
:10044000FEBD002142482030417083780193002A8C
:1004500002D1C278032A01D0012200E000220092DA
:10046000002904D00078002801D0012600E00026F1
:10047000E87F002803D0002901D0012000E00020FF
:100480000290E8680027401C10D06868401C00D02B
:100490000120214A21A12032FBF7D4FE6968E868D7
:1004A000401A29694002814200D901270320002C0B
:1004B00001D028771DE0019900290AD0002F01D032
:1004C0000624F6E700990029F3D0002EF1D1042488
:1004D000EFE702990029ECD1002E01D0022003E0C1
:1004E0000098002802D00120287711E0287F0328F7
:1004F0000BD1687F002806D0FFF7BCF80021697790
:10050000002C00D10446134804700198002897D1AC
:1005100000F000FEFEBD0000D60200002E2E5C2E74
:100520002E5C2E2E5C736F757263655C6461706CFB
:10053000696E6B5C647261672D6E2D64726F705CA6
:100540007666735F6D616E616765722E6300000091
:10055000DC060020E4F0FF1F70B5012514486D0390
:1005600005601448826BC1140A438263426B0A43DC
:100570004263114CE078F3210840E070E0785F219D
:100580000840E070FBF7C4FF0D480C49C160C91E6C
:100590000161E0780C210843E070E07820210843F5
:1005A000E07008480560024880380560012070BD91
:1005B00080E100E00080044000B00640030300003A
:1005C00000B0044080E200E00A4610B5014602484F
:1005D000FBF774FF10BD0000E016002010B50124E9
:1005E0000748640304600748C1784906490EC17092
:1005F000FBF78EFF024880380460012010BD000028
:1006000080E100E000B00640F8B506460025012074
:10061000204940032F4608601F4CE0785F210840C6
:10062000E070E078F3210840E070FBF771FF71792A
:100630000020012902D0022903D004E001252F4621
:1006400000E0012501200001690008433843A07043
:100650003068010111480068F8F704F82178400873
:1006600049094901C204D20E1143217061786070BA
:10067000E0780C210843E07001200949400308603C
:10068000044980390860E07820210843E0700120A7
:10069000F8BD000080E100E000B0064018F1FF1F47
:1006A00080E200E070B50A4601460C48FBF71BFFEC
:1006B0000546EFF31080C407E40F72B60748FBF756
:1006C00064FE002804D00648C17880221143C1701E
:1006D000002C00D162B6284670BD0000D014002066
:1006E00000B0064010B50248FBF73EFE10BD00000A
:1006F000D014002010B50F4C2078002807D000201F
:100700002070FBF74DFD002808D01B2010BD822271
:1007100009A10020FBF796FD022010BD607800289B
:1007200003D1FCF70AF9002801D0002010BD2120D8
:1007300010BD0000C0F0FF1F2E2E5C2E2E5C2E2E52
:100740005C736F757263655C6461706C696E6B5C21
:10075000647261672D6E2D64726F705C6961705F89
:10076000666C6173685F696E74662E6300000000DA
:10077000F3B581B0044600900299F7F756FF374869
:10078000F7F71AFE024635492046F7F79DFE00E0CE
:10079000641C2078402802D00028F9D13DE0607820
:1007A000622848D012DC522854D008DC422842D0BB
:1007B000442849D0482841D04D2817D135E0542845
:1007C0003FD0552834D0562810D140E0722841D06F
:1007D00006DC642838D0682830D06D2806D124E0A3
:1007E00074282ED0752823D0762830D01CA005463A
:1007F0002046F7F7E1FD07462846F7F7DDFD0646F8
:10080000BA1EA11CA019F7F7C3FE3246294620469E
:10081000F7F75AFE20780028BBD100980299201AD9
:10082000091A2046F7F701FFFEBDFCF7B7FFDEE728
:10083000FCF7BCFFDBE7FCF763FFD8E7FCF78EFFB4
:10084000D5E7FCF7AFFFD2E7FCF784FFCFE7FCF773
:10085000B5FFCCE704480068C9E70000481A01006A
:100860004552524F520000000819010010B500F027
:100870009FF800F027F9F9F72DFB10BD02484078EA
:10088000002800D001207047C4F1FF1F10B5F9F710
:100890002BFC10BD00207047B0B51546012817D1BC
:1008A000002B15D0012B13D1194F17491748BC46FF
:1008B00000DF194F00211748BC4600DF154C203CD3
:1008C000002807D001202070144F1048BC4600DFDC
:1008D0000020B0BDE068124980014118402228463E
:1008E000F7F7F2FDE0680521401CF7F7BBFE094869
:1008F0000C4F1038BC46E16000DF084F0348BC468F
:1009000000DF4020B0BD0000FFFF0000E8F3FF1F44
:10091000D1EE000028F0FF1FB9F1000029EE000021
:10092000A8F2FF1F7DF10000F8B507461A481646E9
:100930000088824201DD0020F8BD184800780028B8
:10094000FAD0174C0122E26001E0002814D062883E
:10095000002AFAD1134D32462F70681CF7F7B4FD08
:10096000204665610024848046800F49097801296A
:1009700008D86D1C456108E00020E0606061A0803F
:100980006080D8E74188491C41800020F9F736FE95
:100990000648C4550120F8BD541E0100C5F1FF1FD3
:1009A000E8F1FF1F30190020521E010026F1FF1F41
:1009B00080B50D48002141608160C1600121017056
:1009C0000A4F05211030BC4600DF074800211830CF
:1009D000BC4600DF044800212030BC4600DF054F44
:1009E0000348BC4600DF80BD08F0FF1F3DF100005A
:1009F000E8F3FF1F19EE000070470000F8B51D4630
:100A00001646022810D1002D0ED0307807280CD0C1
:100A1000144F00211248BC4600DF002809D087226D
:100A200011A10020FBF70EFCF8BD1C490120087045
:100A3000F8BD0B4C1A49103C60682A4680014018EA
:100A40003146F7F741FD60680521401CF7F70AFEC3
:100A5000144F20461830BC46616000DFF8BD00002E
:100A600018F0FF1FB9F100002E2E5C2E2E5C2E2EEA
:100A70005C736F757263655C6461706C696E6B5CEE
:100A8000636D7369732D6461705C757362645F7507
:100A90007365725F6869642E6300000004F0FF1FD5
:100AA000A8F2FF1F7DF1000010B505490020C870B5
:100AB000FFF7DCFEFAF7FEFEFAF778F810BD00004B
:100AC000C4F1FF1FB0B5094FBC4600DF084C0A4F08
:100AD00060600848BC4600DFFBF7D6FB0020607072
:100AE000A0700649A0600860B0BD000071F400006D
:100AF000E4F0FF1F0007002019EE000010F2FF1FB6
:100B000070B514460D460646FFF732FA064B1868D4
:100B1000002807D00020FCF7FBFF2246294630467C
:100B200000F098FB70BD000010F2FF1F704700003E
:100B3000F8B515460E460746FFF71AFA0D48006845
:100B4000002816D00C4900200C4C8860207F032818
:100B50000FD00020FCF7DCFF2A463146384600F073
:100B600027FD207F032804D02A4631463846FCF76B
:100B70003FF8F8BD10F2FF1FE4F0FF1FDC06002075
:100B80000548074A01780548C1800021017041707D
:100B9000C160826001617047421E0100C4F1FF1F05
:100BA0000100010010B5EFF31080C407E40F72B626
:100BB000FBF74EFD002C00D162B610BD70B50D469E
:100BC0000446090E00F014F806462802010EA0198A
:100BD00000F00EF886192804010EA01900F008F89C
:100BE0008619E9B2A01900F003F8801970BD000061
:100BF0000B09044A0907D35C0370090F515C41706B
:100C000002207047F01901000346002001E01A5449
:100C1000401C0A5C002AFAD17047F3B581B0074640
:100C200000242546029805E00A21F7F71BFD002164
:100C3000641C4D410028F7D12046284301D10124EE
:100C40000025002609E00A210298F7F70BFDA21BF8
:100C50003031521EB954761C02900020311BA8413D
:100C6000F1D32046FEBDF8B515460E460746FFF700
:100C7000D4FF0446A8420AD2302229463846F7F764
:100C8000AFFC281BC0193146FFF7C7FF2846F8BD47
:100C9000F8B50546002004240090224629466846FF
:100CA000F7F712FC0C4E009872693169FFF77FFA72
:100CB00000280FD0291904226846F7F705FCF268CE
:100CC000B1680098FFF773FA002803D0241D0C2C9C
:100CD000F0D90120F8BD000064F1FF1F01783A2926
:100CE0000AD1007A302809D0322807D0332805D01D
:100CF000342803D0352801D00020704701207047E8
:100D0000FFB583B00398FBF7ADFFFF22663241A128
:100D1000FBF798FA4C480190C17A807A09020143A6
:100D20004948401E407B414306984018401EF7F753
:100D300099FC054606980027444E002819D0002447
:100D4000681EF76800900AE0F168481C82B24048CB
:100D500000F032FDF068401CF0600098641C844292
:100D6000F2D33C4A3A48F16800F026FDF068401C96
:100D7000F0603069202802D3FF227B321FE041015E
:100D8000354A401C8C183061202234492046F7F740
:100D90009BFB0B2220460399F7F796FB21461C315B
:100DA0000698F7F757FC380C2075000A6075A7768F
:100DB000380AE076B168102908D3FF22893215A1DC
:100DC0000020FBF73FFA002007B0F0BD08460C22D8
:100DD0005043214A224BC03A1350224B87187B6064
:100DE000049B002B00D013500598002800D0786099
:100DF0000198491CC27A837A1002134A1843521E82
:100E0000527B50436843B860B1603078401C30700A
:100E10002046D9E72E2E5C2E2E5C2E2E5C736F752D
:100E20007263655C6461706C696E6B5C647261674F
:100E30002D6E2D64726F705C7669727475616C5F73
:100E400066732E630000000051090020F8F0FF1FB8
:100E5000500B0020FFFF0000100E0020041E0100B8
:100E6000F5E80000ED180100C07A704710B51C309D
:100E7000F7F7DFFB10BD000010B50446FFF7F6FFE3
:100E8000002812D0E07EA17E040209480C43017BB9
:100E9000C07A0902014307484069F7F7E3FB0449B8
:100EA000A41E497B6143081810BD0020C04310BD3B
:100EB00050090020F8F0FF1FC172704770B50F494C
:100EC000087DCA7C0402087BC97A050214430D43DD
:100ED000002C01D06C430FE008482030F7F7A9FB45
:100EE000002802D06843044606E00024FF225A325C
:100EF00003A12046FBF7A6F9204670BD500900204B
:100F00002E2E5C2E2E5C2E2E5C736F757263655CCC
:100F10006461706C696E6B5C647261672D6E2D64C8
:100F2000726F705C7669727475616C5F66732E6344
:100F300000000000F3B501260F46760281B031466D
:100F40005048F7F774FB31464F48F7F770FB4F4CAA
:100F50000025C0214E48E560F7F769FB4C48710059
:100F6000C030F7F764FB31464A48F7F760FB25616C
:100F70002570A560484865616060657032464749E4
:100F80004048F7F7A7F93F4E761CF07AB27A010293
:100F90000120000411433818F7F764FB0446771E5C
:100FA000797B3F484843A04208D9FF2227323DA120
:100FB0000020FBF747F97C7B39480BE0464841436A
:100FC000A14208D2FF222A3236A10020FBF73AF9CB
:100FD0007C7B414844432B4901200004203184425A
:100FE00004D3B574280AF074204603E0B474200AD0
:100FF000F0740020F7F72EFB797B2046F7F732FBE1
:101000003549000211394018040CFC823022334962
:101010001F48F7F75FF960021D4A1C4C50611062CF
:1010200004206561A06000200C2141438918896873
:101030006369401CC91861610428F5D3264A294612
:1010400067321148E56000F0B7FBE168224A491CAD
:101050006E320D48E16000F0AFFBE06825610C4D99
:10106000401C1E49E060C035284620223031F7F789
:101070002BFA28460B220199F7F726FA0120206166
:10108000FEBD000050090020500B0020F8F0FF1FAB
:10109000500D00201012002021CB0000B41B0100D5
:1010A0005A1000002E2E5C2E2E5C2E2E5C736F7557
:1010B0007263655C6461706C696E6B5C64726167BD
:1010C0002D6E2D64726F705C7669727475616C5FE1
:1010D00066732E630000000091FF0000B41D010044
:1010E000B0B50446FEF774FF0749002C09D0887894
:1010F000002801D102208870054F0448BC4600DF5B
:10110000B0BD0020F7E70000E4F0FF1F000700205B
:1011100029EE000080B5FEF75BFFFBF719F9002808
:1011200005D105484178022901D101218170044F80
:101130000248BC4600DF80BDE4F0FF1F000700202E
:1011400029EE000010B5FEF713FF0148007810BD2E
:10115000E4F0FF1FF8B50646FEF70AFFFEF738FF7A
:10116000FBF7F6F8002815D0FDF7CCFB274C054619
:101170002748A168814201D28819A060264F2548DE
:10118000BC4600DF002D09D0A07866786070012889
:1011900007D104E0204F1F48BC4600DFF8BD022104
:1011A000A17021461C4F044600251A48BC468D609C
:1011B00000DF0127002E19D0012E17D0022E15D1E5
:1011C000144E243E307F032805D0304620308770EF
:1011D0000020FFF713F9307F032812D00020FF22F0
:1011E00008320EA1FBF72EF800F0E6F8184E002C9E
:1011F00009D0012C07D0022CD0D1FBF745F837607D
:10120000F8BD0120EBE73560F8BD0000E4F0FF1FFA
:1012100060EA00000007002029EE00002E2E5C2E60
:101220002E5C2E2E5C736F757263655C6461706CEE
:10123000696E6B5C647261672D6E2D64726F705C99
:101240007666735F6D616E616765722E6300000084
:1012500010F2FF1FF7B582B0044615460026510272
:101260000398F7F7E2F90027FEF70CF931460C2056
:10127000104A414388188068400A38180190BC42DF
:101280000ED384420CD2001BA84200D32846009003
:101290005358E01B009A03999847009824182D1A78
:1012A000002D04D0761CF6B2019F102EDED305B0BF
:1012B000F0BD0000500D002001494860704700005B
:1012C000F8F0FF1F1CB5012189062848FFF732FE00
:1012D0002748FCF7E7F80346002225492548FFF791
:1012E0000FFD2548FCF7DEF803460022224923A023
:1012F000FFF706FDFFF726FF002808D02248FCF77D
:10130000D1F803460022204920A0FFF7F9FC224B28
:1013100041219A1C2148FBF7A9F900280BD020484D
:10132000FCF7C0F8034600221D491E48FFF7E8FC01
:101330000021FFF7C1FD002001900120C0030090B3
:10134000FBF7FDFA002810D0FF2201320099019826
:10135000F7F704F8002808D11348FCF7A3F8034670
:101360000022114911A0FFF7CBFC1CBDFC180100A5
:101370006FE80000F018010021E4000044455441EA
:10138000494C53205458540039E800004641494C18
:101390002020202054585400F0F0FF1F0C0900209A
:1013A00045E300003C1B01008DE800004E4545442C
:1013B0005F424C205458540010B5FBF7BEFA002889
:1013C00003D0FFF7BFFE002807D0FBF7B8FA0028CC
:1013D00005D0FBF787F9002801D0F8F75BF8024841
:1013E0004168491C416010BDF0F0FF1F70B50C460C
:1013F0000546FCF75FF8002803D00022002A02D03F
:1014000005E00122FAE7FBF7CBF800280ED0002C0C
:101410000DD0012C0AD10B223B492846F6F79EFF3E
:10142000002803D1FFF7BEFBFFF774FE70BD0B224F
:1014300036492846F6F792FF002841D00B2234A106
:101440002846F6F78BFF002842D00B2233A128460E
:10145000F6F784FF00283CD00B2233A12846F6F78C
:101460007DFF002838D00B2232A12846F6F776FF00
:101470000028D9D00B2232A12846F6F76FFF0028AA
:1014800030D00B2231A12846F6F768FF00282AD079
:101490000B2231A12846F6F761FF002826D00B2247
:1014A00030A12846F6F75AFF00282AD00B2230A197
:1014B0002846F6F753FF0028B8D1FBF7A7F9B3E7A2
:1014C000FBF73DFA0028AFD00120FBF73FF9ABE76F
:1014D0000120FBF787F9A7E7972228A10020FAF758
:1014E000B1FE70BD0120FBF787F99DE72F4C206806
:1014F000006880472068006980472068406880470E
:1015000092E70120D9E700003C1B010010190100FF
:101510004155544F5F52535443464700484152444B
:101520005F52535443464700415353455254202081
:1015300041435400524546524553482041435400CC
:101540004155544F5F4F4E20434647004155544F3D
:101550005F4F4646434647004552415345202020B1
:10156000414354004F56464C5F4F4E204346470080
:101570004F56464C5F4F4646434647002E2E5C2E44
:101580002E5C2E2E5C736F757263655C6461706C8B
:10159000696E6B5C647261672D6E2D64726F705C36
:1015A0007666735F757365722E630000EC19010037
:1015B000F7B5002782B0154604463E46FDF762FFA8
:1015C0001EE00C2039464143104809188868400A3B
:1015D00030180190B4420ED384420CD2001BA842B2
:1015E00000D3284600904B68A01B009A03999847A7
:1015F000009824182D1A002D06D07F1C019EFFB2E2
:10160000034880688742DCD305B0F0BD500D002050
:10161000F8F0FF1FF7B5054604462035287C84B056
:101620001646302801D3606B32E030210F1AB742E2
:1016300000D3174600193A460599F6F745FF287C6E
:10164000C019C1B22974302902D2002007B0F0BD00
:1016500005980023C0190590F61B1A462046FBF793
:10166000E9FB00281FD002A90022009101AB11461E
:10167000FBF72CFC0028E9D1019860632A7C214605
:10168000FBF7DAFC0028E1D1297C606B401860632D
:1016900032460599FBF7D0FC0028D7D1606B801942
:1016A00060631120D2E71920D0E70000F7B5811858
:1016B000012349029B0288B0994206D92E4A2FA1E4
:1016C0000020FAF7BFFD0BB0F0BD41024B095102FB
:1016D00004914909069136495A0151180291039122
:1016E00009990191002801D000263BE0012639E04C
:1016F0000199700144180399009045182022214651
:101700002846F6F72BFE00282BD0214628460B2230
:10171000F6F724FE002811D00020264F05907F68A0
:1017200023462A4620460221B84701990098085CC2
:10173000E52805D00598002807D012E00120ECE745
:101740002A4623461046012108E02046FBF78AFA84
:10175000002806D023462A4618460021154C646806
:10176000A047761C06988642C2D3049A099902982B
:10177000F6F7AAFEA7E70000560200002E2E5C2E08
:101780002E5C2E2E5C736F757263655C6461706C89
:10179000696E6B5C647261672D6E2D64726F705C34
:1017A0007669727475616C5F66732E630000000069
:1017B000100E0020F8F0FF1F10B54B000124591C3B
:1017C0006402A14206D3FF22083204A10020FAF7E6
:1017D00039FD10BDC254120A425410BD2E2E5C2E8B
:1017E0002E5C2E2E5C736F757263655C6461706C29
:1017F000696E6B5C647261672D6E2D64726F705CD4
:101800007669727475616C5F66732E630000000008
:10181000F0B587B0002416460F460546039404949D
:101820000594FF2004AA03A90130029201910090BF
:101830006B1C05AA31463846FCF710FB00280DD07A
:10184000022814D001281FD0042829D0052801D04F
:101850000628E6D1052825D0012024E0049A002A94
:1018600027D0691C0398FBF7E7FB044621E0049AA4
:10187000002A05D0691C0398FBF7DEFB040018D191
:101880000598361A3F18CCE7049A002A04D0691C40
:101890000398FBF7D1FB0446002C0AD1102408E082
:1018A000122406E00020FF22623203A1FAF7CAFCEC
:1018B0001324204607B0F0BD2E2E5C2E2E5C2E2E5B
:1018C0005C736F757263655C6461706C696E6B5C90
:1018D000647261672D6E2D64726F705C66696C65F1
:1018E0005F73747265616D2E6300000070470000C5
:1018F0004D4943524F42495448544D004D4943527B
:101900004F4249542020200069210100312E30002F
:1019100053544152545F424C4143540059280100F2
:1019200000280100E12701008B2801001525010096
:10193000A92701002D250100FC2601009F2601009A
:101940005627010064260100B12801001628010075
:10195000C52501009B2501007525010037270100E1
:1019600072280100F6220100B72201007C2201004A
:10197000F2250100E4240100462401000E240100A8
:101980003D2301002022010052220100F721010025
:1019900099210100C9210100A02401008B2301002D
:1019A000C4230100012901007F240100040000007C
:1019B00088000401FF52070001000000102700000A
:1019C00000000000CC0000009800000004000000AF
:1019D0006900010079010100B50001002500010046
:1019E000F1FF0000210101005D000100D01901009C
:1019F0003031323334353637383961626364656685
:101A00000000000059D80000F5060100E5E00000E4
:101A1000FDC9000065C9000039E20000D1CA00001C
:101A2000041A010000000000FFFFFFFFFFFFFFFF9F
:101A3000FFFFFFFF000000000000000000000000AA
:101A400000000000000000033C21646F63747970A3
:101A5000652068746D6C3E0D0A3C212D2D206D6251
:101A6000656420506C6174666F726D205765627397
:101A700069746520616E642041757468656E74696F
:101A8000636174696F6E2053686F7274637574203C
:101A90002D2D3E0D0A3C68746D6C3E0D0A3C686548
:101AA00061643E0D0A3C6D65746120636861727308
:101AB00065743D227574662D38223E0D0A3C7469AA
:101AC000746C653E6D626564205765627369746508
:101AD0002053686F72746375743C2F7469746C65FD
:101AE0003E0D0A3C2F686561643E0D0A3C626F64DE
:101AF000793E0D0A3C7363726970743E0D0A776912
:101B00006E646F772E6C6F636174696F6E2E726591
:101B1000706C6163652822405222293B0D0A3C2FDC
:101B20007363726970743E0D0A3C2F626F64793E74
:101B30000D0A3C2F68746D6C3E0D0A0041535345ED
:101B400052542020545854004120626F6F746C6FBF
:101B500061646572207570646174652077617320BB
:101B6000737461727465642062757420756E61624D
:101B70006C6520746F20636F6D706C6574652E0DDD
:101B80000A52656C6F61642074686520626F6F74BF
:101B90006C6F6164657220746F2066697820746868
:101BA0006973206572726F72206D6573736167650A
:101BB0002E0D0A00EB3C904D53443053342E31002F
:101BC00002080100022000501FF80100010001007E
:101BD00000000000000000000000297419022744E2
:101BE00041504C494E4B2D444E44464154313620D1
:101BF00020200000000000000000000000000000A5
:101C000000000000000000000000000000000000D4
:101C100000000000000000000000000000000000C4
:101C200000000000000000000000000000000000B4
:101C300000000000000000000000000000000000A4
:101C40000000000000000000000000000000000094
:101C50000000000000000000000000000000000084
:101C60000000000000000000000000000000000074
:101C70000000000000000000000000000000000064
:101C80000000000000000000000000000000000054
:101C90000000000000000000000000000000000044
:101CA0000000000000000000000000000000000034
:101CB0000000000000000000000000000000000024
:101CC0000000000000000000000000000000000014
:101CD0000000000000000000000000000000000004
:101CE00000000000000000000000000000000000F4
:101CF00000000000000000000000000000000000E4
:101D000000000000000000000000000000000000D3
:101D100000000000000000000000000000000000C3
:101D200000000000000000000000000000000000B3
:101D300000000000000000000000000000000000A3
:101D40000000000000000000000000000000000093
:101D50000000000000000000000000000000000083
:101D60000000000000000000000000000000000073
:101D70000000000000000000000000000000000063
:101D80000000000000000000000000000000000053
:101D90000000000000000000000000000000000043
:101DA0000000000000000000000000000000000033
:101DB00000000000B9E80000ED180100000200007A
:101DC00021E30000ED1801000000000021E3000005
:101DD000ED1801000000000089E20000AD160100CE
:101DE00000040000000000000000000000000028C7
:101DF00000000000000000000000418EBB32000027
:101E000000000000000000000000000000000001D1
:101E100000000000764876480000DC837648000029
:101E200000000000080010001800200030004000F2
:101E300060008000C0000001800100020003000477
:101E400000060000040040030101010040004000C2
:101E5000400001014000400000020200400000027A
:101E60004000010204044000400040004000000027
:101E700095C000000000000000000000B1C000009C
:101E800000000000BDA10000C9A7000021AF0000B4
:101E9000FF830000759E00000000000000000000AD
:101EA0000000000000000000000000000000000032
:101EB0000000000000000000000000000000000022
:101EC00000000000DFA00000000000000000000093
:101ED0000600FF0901A101150026FF0075089540C5
:101EE0000901810295400901910295010901B102A0
:101EF000C00021006B0012010002EF020140280D1A
:101F00000402001001020301000009028200040122
:101F10000080FA0904000002080650070705820243
:101F2000400000070502024000000904030002030C
:101F3000000006092100010001222100070581039C
:101F400040000107050103400001080B01020202E5
:101F5000010409040100010202010405240010012A
:101F600005240103020424020605240601020705D4
:101F7000830310002009040200020A00000507057F
:101F80000402400000070584024000000000000039
:101F9000040309040803410052004D0024034400D7
:101FA000410050004C0069006E006B0020004300AF
:101FB0004D005300490053002D00440041005000E3
:101FC0001A03300030003000310041003000300092
:101FD0003000300030003000300022036D0062001D
:101FE0006500640020005300650072006900610014
:101FF0006C00200050006F007200740022036D001E
:1020000062006500640020005300650072006900F2
:1020100061006C00200050006F0072007400140317
:1020200043004D005300490053002D00440041007F
:10203000500010035500530042005F004D00530054
:1020400043000000000000000000000000BE0AE0A5
:102050000D782D0668400824400000D35840641EC7
:10206000FAD1491C521E002AF2D170470020704755
:102070000020704770B5264C022060600120E060AF
:10208000244D2868C00702D00020606070BD00F0B9
:102090002CF8F6E770B51E4C022161601E4988429B
:1020A00002D30120606100E0A0601A4D00F01DF82D
:1020B0002868C007FAD00020606070BDF8B50546FA
:1020C0008E081348012114464160124F01CC01C50E
:1020D0003868C00706D0761EF8D10D48002141604F
:1020E0000846F8BD00F001F8F2E70C484068000629
:1020F000000E0BD00A494968002907D009490A4A4D
:10210000C30700D00A60091D4008F9D170470000DC
:1021100000E5014000E4014000100010000401400F
:1021200000050140000601403546526E00000000E7
:102130002100002025000020290000204900002067
:10214000710000200100002070010020001000201C
:102150000002002000000020500100004C2001007F
:1021600000020000393930300068747470733A2FFF
:102170002F7777772E6D6963726F6269742E636F44
:102180002E756B2F6465766963653F6D6265646368
:102190006F64653D4042405600496E206170706C2E
:1021A00069636174696F6E2070726F6772616D6DC3
:1021B000696E6720736563746F7220657261736501
:1021C000206661696C65642E00496E206170706CD8
:1021D00069636174696F6E2070726F6772616D6D93
:1021E000696E67206D617373206572617365206627
:1021F00061696C65642E00496E206170706C696362
:102200006174696F6E2070726F6772616D6D696E57
:1022100067207772697465206661696C65642E0059
:10222000496E206170706C69636174696F6E2070B3
:10223000726F6772616D6D696E6720696E6974692E
:10224000616C697A6174696F6E206661696C65643E
:102250002E00496E206170706C69636174696F6EE5
:102260002070726F6772616D6D696E6720756E693F
:102270006E6974206661696C65642E00546865201F
:102280006865782066696C652063616E6E6F742086
:1022900062652070726F6772616D6D65642E204C8F
:1022A0006F676963206661696C757265206F63632F
:1022B00075727265642E00546865206865782066C2
:1022C000696C652063616E6E6F7420626520646561
:1022D000636F6465642E20506172736572206C6F49
:1022E000676963206661696C757265206F636375E9
:1022F000727265642E00546865206865782066698E
:102300006C652063616E6E6F742062652064656326
:102310006F6465642E20436865636B73756D20631D
:10232000616C63756C6174696F6E206661696C7550
:102330007265206F636375727265642E0054686500
:10234000206170706C69636174696F6E2066696C7E
:102350006520666F726D617420697320756E6B6E97
:102360006F776E20616E642063616E6E6F742062A1
:10237000652070617273656420616E642F6F7220D6
:1023800070726F6365737365642E00496E206170AF
:10239000706C69636174696F6E2070726F677261CF
:1023A0006D6D696E67206E6F7420737570706F72DB
:1023B000746564206F6E2074686973206465766943
:1023C00063652E00496E206170706C696361746989
:1023D0006F6E2070726F6772616D6D696E672066D7
:1023E00061696C65642062656361757365207468FA
:1023F00065207570646174652073656E7420776103
:102400007320696E636F6D706C6574652E0054681F
:1024100065207374617274696E67206164647265AB
:10242000737320666F722074686520696E746572BC
:1024300066616365207570646174652069732077D7
:10244000726F6E672E0054686520737461727469D0
:102450006E67206164647265737320666F722074A6
:10246000686520626F6F746C6F616465722075704F
:10247000646174652069732077726F6E672E0054F3
:10248000686520626F6F746C6F616465722043527F
:102490004320646964206E6F7420706173732E0032
:1024A000496E206170706C69636174696F6E207031
:1024B000726F6772616D6D696E672061626F7274B1
:1024C00065642064756520746F20616E206F75747B
:1024D000206F6620626F756E64732061646472653C
:1024E00073732E00546865206865782066696C6592
:1024F000206F6666736574206C6F6164206164642C
:1025000072657373206973206E6F7420636F7272CB
:102510006563742E00546865207472616E7366651D
:10252000722074696D6564206F75742E0046696C45
:10253000652073656E74206F7574206F66206F72EE
:102540006465722062792050432E20546172676561
:1025500074206D69676874206E6F742062652070E6
:10256000726F6772616D6D656420636F727265630F
:10257000746C792E00466C61736820616C676F72B1
:102580006974686D20777269746520636F6D6D6121
:102590006E64204641494C55524500466C61736853
:1025A00020616C676F726974686D20657261736514
:1025B00020616C6C20636F6D6D616E6420464149D3
:1025C0004C55524500466C61736820616C676F72B0
:1025D0006974686D20657261736520736563746FDB
:1025E0007220636F6D6D616E64204641494C555297
:1025F0004500546865206865782066696C652079B7
:102600006F752064726F707065642069736E2774D3
:1026100020636F6D70617469626C6520776974689E
:102620002074686973206D6F6465206F7220646523
:10263000766963652E2041726520796F7520696E19
:10264000204D41494E54454E414E4345206D6F64E7
:10265000653F205365652048454C50204641512E2A
:1026600048544D0054686520696E746572666163F4
:1026700065206669726D77617265204641494C45F7
:102680004420746F20696E697469616C697A652091
:1026900074686520746172676574204D43550054F9
:1026A000686520696E74657266616365206669722B
:1026B0006D77617265204641494C454420746F2016
:1026C000646F776E6C6F61642074686520666C61FE
:1026D00073682070726F6772616D6D696E672061DB
:1026E0006C676F726974686D7320746F20746865AD
:1026F00020746172676574204D43550054686520ED
:10270000696E74657266616365206669726D776172
:102710007265204641494C454420746F20726573B0
:1027200065742F68616C74207468652074617267C9
:102730006574204D435500456E64206F66207374A8
:102740007265616D20686173206265656E207265D7
:1027500061636865640054686520696E74657266BB
:10276000616365206669726D7761726520464149D3
:102770004C454420746F20646F776E6C6F616420E9
:1027800074686520666C617368206461746120639D
:102790006F6E74656E747320746F20626520707242
:1027A0006F6772616D6D656400506F737369626C01
:1027B00065206D69736D6174636820626574776507
:1027C000656E2066696C652073697A6520616E6448
:1027D0002073697A652070726F6772616D6D6564D0
:1027E00000416E20696E7465726E616C2065727254
:1027F0006F7220686173206F636375727265640025
:10280000416E206572726F7220686173206F63631E
:1028100075727265640054686520696E74657266CD
:10282000616365206669726D776172652046414912
:102830004C454420746F20756E6C6F636B20746818
:10284000652074617267657420666F722070726FA4
:102850006772616D6D696E67004F70657261746952
:102860006F6E20776173207375636365737366752C
:102870006C00456E64206F662073747265616D2014
:10288000697320756E6B6E6F776E00416E20657296
:10289000726F72206F636375727265642064757203
:1028A000696E6720746865207472616E7366657204
:1028B0000054686520696E746572666163652066A0
:1028C00069726D776172652041424F5254454420D0
:1028D00070726F6772616D6D696E672E20496D61F0
:1028E000676520697320747279696E6720746F2040
:1028F0007365742073656375726974792062697495
:1029000073004D424544202020205646532020206D
:1029100020202020202020202020302E31000000E8
:102920004029010000F0FF1F50020000A2880000B3
:102930008C29010050F2FF1FC0320000048100000A
:10294000042E642101052001999697041F010101BD
:102950003343C933A1DD371516010081C53355C98D
:1029600033A9DD07881118010089C5071E6CDC0238
:102970000229010526555555554204920152040B72
:10298000D02000400020302101000100FFFFFFFFA8
:10299000FFFFFFFFFFFFFFFFFFFFFFFFFFFFFFFF47
:1029A000FFFFFFFFFFFFFFFFFFFFFFFFFFFFFFFF37
:1029B000FFFFFFFFFFFFFFFFFFFFFFFFFFFFFFFF27
:1029C000FFFFFFFFFFFFFFFFFFFFFFFFFFFFFFFF17
:10FBF000FFFFFFFFFFFFFFFFFFFFFFFF446F251425
:00000001FF
