:020000040000FA
:100000000040002095680100D1680100D36801001C
:1000100000000000000000000000000000000000E0
:10002000000000000000000000000000D568010092
:100030000000000000000000D7680100D96801003E
:10004000DB680100B10F0100016D0100DB680100F8
:10005000DB680100000000002DCB0000DB68010020
:1000600059560100DB680100F1CA0000DB6801009D
:10007000DB680100DB680100DB680100DB68010070
:10008000DB6801005D720100DB680100DB680100D4
:10009000DB68010045A2010021A20100A157010077
:1000A000B1570100DB680100000000000000000003
:1000B0000000000000000000000000000000000040
:1000C000054B0648033310B51B1A062B03D9044B06
:1000D000002B00D0984710BD000100200001002037
:1000E000000000000648074910B5091A8910CB0F17
:1000F0005918491003D0044B002B00D0984710BD6D
:1001000000010020000100200000000010B5074C95
:100110002378002B09D1FFF7D3FF054B002B02D02A
:10012000044800E000BF0123237010BD000100203F
:1001300000000000B4EA0300094B10B5002B03D007
:100140000849094800E000BF08480368002B02D1B5
:10015000FFF7C8FF10BD064B002BF9D09847F7E713
:100160000000000004010020B4EA030000010020A8
:1001700000000000144B002B00D1124B9D46402282
:1001800092029A1A924600218B460F461148124A53
:10019000121A22F07BFF0D4B002B00D098470C4B1E
:1001A000002B00D098470020002104000D000B48D0
:1001B00022F0F0F822F0CCFD200029002BF00FFFF8
:1001C00022F012F9000008000040002000000000AA
:1001D0000000000000010020180A0020B5290200DC
:1001E0000300203B5E2B00D93F20052320385843D5
:1001F000014B1B68181870476800002070B5050097
:10020000080068430130401008300C002AF01BF948
:100210000122044B85710360037944719343037198
:1002200070BDC04648E9020010B5040010202AF055
:100230000AF9044B036063684360A368C36000234A
:10024000836010BDDCE8020070B5050020202AF0B4
:10025000FAF805210B4B040003600800FFF7CEFFFE
:100260006B68EA68A060236162602A7C2000A27645
:10027000AA689B1863616B7CE37625F09CFC2000E8
:1002800070BDC046A0E8020010B50379DB0705D5B4
:10029000034904482AF069F916F0EFF810BDC0468A
:1002A000E85C03003039030070B50D000400FFF76F
:1002B000EBFF280005F056FB0100092805D9054988
:1002C00005482AF052F916F0D8F8200025F0D5FCA0
:1002D000024870BD155D0300403403003C2A030052
:1002E000F0B50C000B6889B0070018000493FFF705
:1002F000CBFF6568280005F04BFA1F4B1F49984259
:1003000002D1072F05D11E491E482AF02EF916F0FA
:10031000B4F8A06805F026FB0690E06805F022FB23
:100320000790206905F01EFB0590606905F01AFB37
:10033000059B0600002B01DB002802DA1249134856
:10034000E3E7062F07D0A06905F00CFB0700E06982
:1003500005F008FB01E000200700059B03900093D7
:10036000280002970196079B069A049925F035FD0F
:10037000074809B0F0BDC04648E902002F5D030000
:10038000425D0300303903005C5D0300403403002C
:100390003C2A030070B504000800160005F0E2FADC
:1003A0000500300005F0DEFA0600002D01DB002814
:1003B00001DA0D490AE0200025F0FAFC854204DA52
:1003C000200025F003FD864205DB084908482AF095
:1003D000CCF816F052F832002900200025F0DBFCA2
:1003E00001234000184370BD745D03008D5D030060
:1003F00040340300F8B50D000C682000FFF744FFFF
:10040000686805F0AFFA0600A86805F0ABFA0700C7
:10041000002E01DB002801DA104906E0E86805F04B
:10042000A1FA0500092805D90D490E482AF09DF8C2
:1004300016F023F8200025F0BBFC864204DA2000E9
:1004400025F0C4FC874201DB0749EEE72B003A00A8
:100450003100200025F0EAFB0448F8BD745D03007C
:10046000155D0300403403008D5D03003C2A03004A
:10047000F7B50E0027490400009226F0BFFC009B50
:10048000002B03D12449200026F0B8FC0025234F7F
:100490002000390026F0B2FC0197300025F096FCD0
:1004A000854221DA0027300025F082FC87420CDAF1
:1004B00039002A00300025F06EFC194B19491A5CEE
:1004C000200026F09BFC0137EDE71749200026F0BD
:1004D00095FC009B002B05D1300025F077FC0138FE
:1004E000854211DB0135D8E70199200026F086FC12
:1004F000009B002B03D10D49200026F07FFC0C4906
:10050000200026F07BFCF7BD0A49200026F076FC8F
:10051000E8E7C0469D5D0300A45D0300B05D0300F5
:10052000B25D03006A600300BAC50300C8D10300CE
:100530005F690300AA5D0300F0B50F0011000022FF
:100540008BB01E0000920323380004F009FF032F34
:1005500060D8380019F074FF020A1A1A0521080041
:10056000FFF74CFE040025F096FB0DE03068684B69
:100570000340062B50D0830700D0C3E0654B0268D0
:100580009A4200D0BEE047E02000BEE0306805F0AF
:10059000E9F90500706805F0E5F90290010028000E
:1005A000FFF72CFE0390022F02D125F074FB2FE001
:1005B000012207A9B06805F091FB002D09DB029B21
:1005C000002B06DB6B43089A934202D100242700DC
:1005D00017E05149514829F0C8FF15F04EFF079B1D
:1005E0009A5D131C092A00D90923DBB22200039863
:1005F00025F01CFB0136049BF11B9E42EFD17F19B5
:100600000134029B9C4203D0EB1904933E00F2E7B5
:1006100003987AE0424976E007A902F027FB079B9E
:1006200003900593012B04D1039B187825F0D1FD8D
:100630006BE000231F00039A029303990598511A57
:10064000884215DD11780A2901D03A2907D19F4245
:1006500000DA1F00029B01330293002306E00133FE
:10066000202903D0392901D92E49B3E70132E4E723
:10067000002B05D0029A013202929F4200DA1F003D
:1006800002993800FFF7BAFD002604003500039BED
:100690000493039A049B9B1A059A9A4223DD049BB8
:1006A0001B780A2B01D03A2B0CD1AF4207DD290071
:1006B00000233200200025F0B9FA0135F5E70136B4
:1006C00000250CE0202B01D1002302E0392B06D8B5
:1006D000303B29003200200025F0A8FA0135049BA8
:1006E00001330493D5E7029B2000B3420DDDAF42F6
:1006F00000DC49E7290000233200200025F096FAAB
:100700000135F4E70849094865E70BB0F0BDC0467C
:10071000070080FF6C3B0300E75D030040340300EB
:10072000045E0300BD5D0300235E03003039030057
:10073000F0B585B001910500002101981AF064F828
:10074000041E05D02349244829F00FFF15F095FE1B
:10075000280025F02DFB0600280025F037FB0100BE
:100760003000FFF74BFD0700280025F021FB8442F5
:100770002CDA0026280025F01BFB864224DA320002
:100780002100280025F007FB1AF0A4FF01991AF0B8
:10079000CDFC1CF0BBFD0022104B1BF021F8104BD0
:1007A00000220290039119F0F5FF0923002804D0DC
:1007B000029803991CF032FD03003200210038003A
:1007C00025F034FA0136D5E70134CDE7380005B01D
:1007D000F0BDC0463C5E0300403403000000E03F33
:1007E00000002240F0B587B007000391059225F084
:1007F000EDFA0400380025F0DBFA0190039825F0AB
:10080000E5FA844205D01B491B4829F0AEFE15F0DD
:1008100034FE21000198FFF7F1FC00250290019BB6
:100820009D4224DA0026A6421FDA32002900380051
:1008300025F0B1FA320004902900039825F0ABFAB4
:10084000059B002B05D0049B1B18092B06DD0923F3
:1008500004E0049B1B1ADA43D2171340320029002C
:10086000029825F0E3F90136DDE70135D7E7029874
:1008700007B0F0BD685E030040340300F8B5040023
:1008800008000D00160004F083FF164FB84226D171
:10089000053C042C23D8200019F0D2FD14140321A8
:1008A0000700300005F0C2F807E0300005F0BEF8A0
:1008B000011CFE2080051AF06FFA011C2800FFF7CA
:1008C00037FF0DE0300004F063FFB84207D1624209
:1008D00062413100D2B22800FFF784FF00E000201F
:1008E000F8BDC04648E90200F7B50700019314209F
:1008F00008AB0E0015001C7829F0A5FD044B4760DD
:1009000003606B461B798660C56003744474FEBD4A
:100910003CEC020070B505000C2029F094FD052187
:10092000044B0400456003600800FFF767FCA0600B
:10093000200070BDA8EC020010B50B790349002B14
:1009400000D1034926F089F910BDC046DF6F0300CE
:10095000D76F030037B50C00110000221D00009274
:100960000123200004F0FCFC054B002C06D0286875
:1009700005F038F9034B002800D1014B18003EBDAB
:1009800034ED0200F0EC0200F0B50D00002785B058
:10099000110003901E0028000F4B0222009704F064
:1009A000DFFCA81C800029F04EFD039B04000360BF
:1009B0006B1E3D000393436033688360039B9D423D
:1009C00007D20135AF00F05908F03EFCE719B860D6
:1009D000F4E7200005B0F0BDFFFF000010B588B0BF
:1009E00001AA6946040011F07FFB009B022B2AD963
:1009F00002AA322104A80BF029FF019B13495A686F
:100A000002A826F0FBF9200004F0C2FE104BC268D9
:100A10009A4210D123680F495A6802A826F0EEF9CD
:100A2000E368002B07D05A68002A04D00022996896
:100A300002A804F0C7FE04A828F014F805F064FE2C
:100A400004A827F0BFFF08B010BDC046865E0300B3
:100A5000851E01008F5E030070B5050090B0002870
:100A600003D11F4823F04EFA38E004A815F0EAFC41
:100A7000041E19D12E68290001A8012213F0D6F90D
:100A800023002200310001A80EF0A6FD040003207F
:100A900005F0BEFD200027F09BFA0120404205F042
:100AA000B7FD15F0E5FC19E00120404205F0B0FD6E
:100AB00005990C4804F0AAFE059804F069FE0A495D
:100AC000040007F027FD002808D10849200007F09E
:100AD00021FD002802D10598FFF780FF10B070BDFE
:100AE000935E03005802030060350300F8330300EF
:100AF00037B52A4B01AA1A6011F00CFBE120C000A7
:100B000011F01CFB264927480CF02EF908F08CF94F
:100B100005F05CFD03F064FB05F0B2FC0023224C01
:100B20006367224B1A781D00012A1FD1F8239B020C
:100B30001A784D2A07D15A78502A04D159881C486E
:100B400025F093FB12E0002307211A00194809F051
:100B50002BFE002802D025F092FB07E0A620012200
:100B60001549400009F056F827F064FA2B78002B5D
:100B700011D103F00BF90028F8D0104826F054F9F1
:100B8000082200210E4822F081FA002390342360CD
:100B900027F01AFA37BD03F057F9ECE71C010020E3
:100BA0000038002018120020AC080020D4000020DB
:100BB00004E00300C05E030044010300C85E0300BC
:100BC0001809002007B50CF067F9054B01A8196852
:100BD000091A89080CF012F90CF072F907BDC04629
:100BE0001C01002010B50400002906D0044B8A6BBC
:100BF00003600968002311F03FFA200015F03DFC66
:100C0000A8390300F0B5040087B003920293671877
:100C1000002A0ED0023A222A0BD93C493C4829F03E
:100C2000A4FC15F02AFC207803F03AFA00285DD0E5
:100C30000134BC42F7D300230093391B200003AAE0
:100C400027F0C5FA23181D0000240193BD420ED2DF
:100C50002E78300003F03CFA039B002805D03200C8
:100C60002F3A9A4201DC303E0DE0102B04D0009B5D
:100C7000002B16D0644214E020231E433300613B56
:100C8000052BF4D8573E039920000AF0ABFD00284D
:100C900019D1039B5C43A4196300634013D401354D
:100CA000D4E7012364001C43019B9D4216D0BD4242
:100CB00006D2287803F0F4F900280FD00135F6E7C2
:100CC000BD421FD00AE0019B009A0593F91A05A8BE
:100CD000039B29F085FB059D0400E5E70D49039A78
:100CE0000B4811F05BF90299FFF77CFF23782B2B5F
:100CF00002D101340090A0E700902D2B9DD101344A
:100D00002C3B99E7200007B0F0BDC046D65E03003B
:100D100040340300F95E0300F0B504008BB0099382
:100D2000431808920193019B9C4206D2207803F05D
:100D3000B7F9002874D00134F5E7002304930027A5
:100D4000844B2500079300233E0006970293019BE6
:100D50009D4262D26B1C03932B781A00303A0592A5
:100D6000092A2BD8022E03D10A237B439F1852E075
:100D7000012E15D105981AF0F5FC07991AF0D6F94D
:100D8000011C029819F092FE029007981CF0BEFA1E
:100D9000714A724B1BF074FC1CF00CFB07903AE09C
:100DA0006F4902981AF0C2F9051C05981AF0DAFC8E
:100DB000291C19F07BFE002602902CE0002E02D1A7
:100DC0002E2B02D126E0022E19D020221A43652AAA
:100DD00015D1019B039A93420BD96B782B2B02D12F
:100DE000AB1C039305E02D2B03D1AB1C0393012314
:100DF0000693039B019A934270D002260BE00026D3
:100E0000089AB2421CD0202213436A2B18D1039DAA
:100E1000013615E00126039D99E723002C000CE024
:100E200023782B2B61D101340490019B9C4217D372
:100E300000270022230006970292250000261C00AE
:100E4000069B002B00D07F4238001AF043FC011CA7
:100E500043481DF04BFB02991AF068F9071C16E095
:100E6000202322781A43692A15D06E2A00D066E71B
:100E70000199A21C914212D962781A43612A0ED1BB
:100E8000A27813436E2B0AD10026364FE51C049B33
:100E9000002B0DD009E00199A21C91422CD8049B93
:100EA000002B1BD025000026002780231B06FF18DF
:100EB000A54213D0019B9D4206D2287803F0F0F89A
:100EC00000280BD00135F5E7019B9D4206D1002E8D
:100ED00002D1099B002B34D0234900E02349244848
:100EE00029F043FB1099FFF77DFE04902D2BB7D11D
:100EF0002C3B0134049398E762781A436E2ACED1D2
:100F0000A2781A43662ACAD1E21DE51C914214D97F
:100F1000E2781A43692A10D122791A436E2A0CD139
:100F200062791A43692A08D1A2791A43742A04D132
:100F3000E2791343792B00D10535FF270026FF0501
:100F4000A5E7032302209F430A4B3843C0180BB088
:100F5000F0BDC046CDCCCC3D9A9999999999B93FAD
:100F6000000020410000C07F215F03003E5F0300BE
:100F70004034030000008080A3230021024A5B006C
:100F80000248D1527047C046AC0800203C2A0300FA
:100F9000A3230121024A5B000248D1527047C04698
:100FA000AC0800203C2A0300A323044A5B00D35A68
:100FB0000348002B00D103487047C046AC0800200E
:100FC000F0EC020034ED020010B5FFF7FBFD014824
:100FD00010BDC0463C2A0300F8B503780400002B7E
:100FE00000D196E0402B01D1012026E04A4925F0AE
:100FF00070F90028F8D14949200025F06AF9002845
:10100000F2D14749200025F064F90028ECD1454988
:10101000200025F05EF90028E6D14349200025F0A4
:1010200058F90028E0D14149200025F052F9002864
:10103000DAD13F49200025F04CF9002319001D00AA
:101040001E002278002A52D0272A10D1002B01D06E
:10105000032B08D16278272A05D1A278272A02D14A
:101060000234243A17E00122012B3ED813E0222A51
:1010700013D11A000427BA430AD16278222A05D173
:10108000A278222A02D102343A0004E0002B01D0D7
:10109000022B2AD10222D31A27E05C2A09D16778D1
:1010A000272F01D0222F04D11A00571EBA41A418AD
:1010B0001BE0002B19D15B2A12D006D8282A0DD0AC
:1010C000293A57425741F61B0FE07B2A0AD07D2A66
:1010D0000AD05D3A57425741ED1B06E0013604E065
:1010E000013502E0013100E001390134A9E70132A4
:1010F000002E0FDC002D0DDC00290BDC033B93429E
:1011000008D9013C23785C2B04D0002801D00A2B9D
:1011100000D100221000F8BD90D60300585F0300F4
:101120005E5F0300625F030066730300665F030097
:101130003C880300F0B505008BB046180492079375
:101140000296029B5C1EA54211D8207802F0B4FFE3
:10115000002801D00294F4E7207802F0B9FF0028BB
:10116000F8D123785F2BF5D02E2BF3D000E0029539
:10117000744B1D68029CB4420BD3029BE31A01938B
:10118000B44201D2002711E0002426002700039476
:1011900048E023782E2BF0D00134ECE7FB000393DA
:1011A000EB68FA009858002804D10137AB689F42D9
:1011B000F4D315E00428F8D009A901F057FD019BEC
:1011C000099A01009342F0D11A00029823F06EFAB6
:1011D0000028EAD1EB68039A9B185868002801D1CF
:1011E0000020ADE0032318420AD10368564A934217
:1011F00003D129F06AF905000BE0544A934201D06B
:1012000004F0C6FA856B002DEAD0514B2A689A4249
:10121000E6D1631C0293ADE7EA68E3009858002822
:1012200004D10134AB689C42F6D329E00428F8D0FD
:1012300009A901F01BFD099B05900693069A019BE5
:101240009342EED801001A00029823F02FFA0028EA
:10125000E7D1019B002F0BD09E420DD3069A9342FB
:101260000AD8059AF95CD25C914204D10133F3E7C4
:10127000069E059F00E01E00039B01330393D0E709
:10128000039B002BACD0012B06D0019B9E4203D8C0
:101290000023402603930FE0019B079AFB1813607D
:1012A000019BF01A4CE0039BEA68DB009858002889
:1012B00007D1039B01330393039BAA689342F2D3A4
:1012C00038E00428F5D009A901F0D0FC099F019B62
:1012D0000590BB42EDD801001A00029823F0E6F910
:1012E0000028E6D133000F220F33DC171440E41836
:1012F00024112401A41B012C00DC10343319DF1944
:10130000402F10D80027BC4205DD1249049825F073
:10131000A4FC0137F7E70599049825F09EFC099B8A
:10132000F6183619C5E7059A0B49049825F066FDAD
:10133000099EBEE70949049825F08FFC0120404230
:101340000BB0F0BDAC080020783203006415030038
:10135000D82E0300A85D03006A5F0300C8D1030014
:1013600010B50348096804F051FA024810BDC046A0
:10137000580203003C2A03000023820708D10268B8
:10138000044901338A4203D0034BD31A5A425341D2
:101390001800704780F0020048EF020070B50600A8
:1013A0000D000124B44206D2A300E958286824F0B5
:1013B000ADFF0134F6E7014870BDC0463C2A03008A
:1013C00010B50400102029F03EF8044B846003603F
:1013D000034B43600023C36010BDC04628150300C3
:1013E000ED63020070B50500102029F02CF8040010
:1013F000074B696808C026F05FFFAB68E968A36027
:101400006B68E0689A0021F0B7FD200070BDC0460F
:1014100080F002000023F7B504000D0001938B0754
:1014200005D10B68214FDF1B7A427A410192AB68EC
:10143000002B08D1019B002B03D01D49200025F073
:101440000CFC1C492EE0019B002B03D01A49200004
:1014500025F003FC1949200025F0FFFB002601239D
:101460006A68964216D2B2001700EA68D259002A7A
:101470000ED0042A0CD0002B03D11149200025F0F6
:10148000ECFBEB680122D959200004F09BF9002302
:101490000136E5E70B49200025F0DFFB019B002B1F
:1014A00003D00949200025F0D8FBF7BD48EF020022
:1014B000745F03007B5F0300815F03008C5F0300A8
:1014C0008E5F030031CF03005F69030010B5FFF7A3
:1014D00053FF002805D10349034810F05FFD14F0C5
:1014E000CCFF10BD915F03003039030070B50D00D3
:1014F0000400FFF7EBFF280007F0A6FE0500280018
:1015000007F0F2FE011E08D0231D0022180026F06D
:10151000DDFE0028F3D0024800E0024870BDC0465E
:1015200034ED0200F0EC020010B583070BD1036824
:10153000084A93420DD0084A934204D1074908480B
:1015400029F013F803E00749074810F027FD14F0CD
:1015500094FF10BD80F0020048EF0200A75F030077
:1015600064370300915F03003039030070B50D004C
:101570000400FFF7D9FF280007F066FE05002800E9
:1015800007F0B2FE011E05D0231D0322180026F02D
:101590009DFEF4E7004870BD3C2A030070B50D00C5
:1015A0000400FFF7C1FF2900201D012226F08EFE56
:1015B000004870BD3C2A030070B50D000400FFF721
:1015C000B3FF2900201D022226F080FE004870BDD6
:1015D0003C2A030010B50400FFF7A6FF201D26F0EB
:1015E00001FF014810BDC0463C2A030010B501228E
:1015F00024F0C6FE004810BD3C2A030070B504006C
:101600000D00FFF791FF201D0222290026F05EFE4B
:10161000002804D1034828F09BFF14F02EFF024855
:1016200070BDC046203A03003C2A030010B50400F8
:10163000FFF77AFF201D26F0B7FE002805D10349E9
:10164000034828F092FF14F018FF10BDC95F030093
:10165000203A0300F8B50E0001280AD0002802D075
:1016600002280AD028E08B681448002B25D11448A2
:1016700023E08B685B0018431FE0032500200D402A
:1016800085421AD10F4B0C6828009C4215D14F6837
:10169000AF420DD0F268AB009958002906D004295A
:1016A00004D0022007F06CFC401024180135EFE74D
:1016B00001206400204300E00020F8BDF0EC0200AF
:1016C00034ED020048EF0200F7B507001020019149
:1016D00028F0B9FE05000A4B060008C539002800AD
:1016E00026F0EAFD0024BC4208D00199A3000122A3
:1016F000C958280026F0EAFD0134F4E73000FEBDA9
:1017000080F00200F7B505000E00171E05D0FFF7A8
:101710000BFF1A4CB54209D12EE0FFF7D7FEB542B8
:1017200004D1280024F004FE040025E00021080074
:10173000FFF7CAFF0400300007F086FD0190019812
:1017400007F0D2FD061E0BD0281D0022310026F026
:10175000BDFD0028F3D031002000FFF71FFFEEE7AA
:10176000002F09D0E86828F095FE63686B60A368D5
:10177000AB60E368014CEB602000FEBD3C2A030037
:10178000F0B585B004000390029101920027FFF7A5
:10179000F3FDB84207D13A0003AB0121204824F001
:1017A0004AFE04000137029D00262800FFF7E4FDF1
:1017B000B04207D1320002AB0121194824F03BFEB0
:1017C00005000136019B002B05D0A368AA6893424F
:1017D00001D1002311E02000FFF7F2FD01900198F4
:1017E00024F004FE011E07D02B1D0022180026F055
:1017F0006DFD0028F3D1ECE701230193002F02D007
:101800002000FFF7E7FE002E02D02800FFF7E2FEDF
:10181000019B0448002B00D1034805B0F0BDC04631
:1018200080F00200F0EC020034ED020037B50C004D
:101830001500009101921F284ED818F001FE1015D6
:101840001A4D4D4D1F4D4D4D4D4D4D10151A4D4DD1
:101850004D1F4D4D4D4D4D24282D393E4D4311000A
:10186000200024F06FFD38E01100200024F078FD06
:1018700033E01100200024F0D3FD2EE06946022061
:1018800024F0AFFD29E001222900200001E001221F
:101890002800FFF775FF20E00800FFF717FE28007B
:1018A000FFF76AFD002815D0A368AA68934211D1FA
:1018B0002900200024F0F0FD0FE01100200024F0AA
:1018C000E3FD0AE0081D0022290026F0FFFC031EAC
:1018D000024802D1024800E000203EBDF0EC0200C8
:1018E00034ED0200F0B5050089B002AFB960160012
:1018F0003B6010F035FCAB687B611423F81828F0CE
:101900007BFE14237860F81828F076FE03235843F2
:101910007B68C0188300FB602C2B0AD86B46F868E4
:101920002A30C008C0001B1A9D46002302ACFB6091
:1019300005E0F8681C3028F093FD041EEED0AA687C
:101940007B6929009B1A63607B682000A3613B6868
:101950000093BA68330010F013FC184E002173682E
:10196000200063616B68736002F012FE6369B86007
:101970007360002802D0022803D00BE0E3681D68E2
:1019800009E07B6805339B00E3185D68FB68002B6A
:1019900006D10BE00A4DFB68002B0AD00023BB6088
:1019A000200028F077FDBB68002B02D0280014F03F
:1019B00064FD2800BD4607B0F0BDC046AC0800205D
:1019C0003C2A03000122030030B5134085B0040017
:1019D0004510002B4DD128491D00884249D0274988
:1019E000884246D0264B1500984242D0032303403C
:1019F00006D1244A0168914202D128F008FD0EE088
:101A0000214A25002240062A05D0002B09D11F4B70
:101A100022689A4205D101A9200001F027F90500AA
:101A200027E0200003F0B4FE194B984207D1FF23B2
:101A3000DB05E0180323984319F02AFEEFE7154B66
:101A4000984205D101AA6946200025F0C7F80FE0A9
:101A5000114B984205D101AA6946200027F02DFAC2
:101A600006E0022201A9200025F0D8F8002800D0C5
:101A7000019D280005B030BD3C2A030034ED020072
:101A8000F0EC02009C270300070080FF6C3B030082
:101A90007011030008010300C0280300F7B5060019
:101AA0000F0000920193041E00D044683800431ECA
:101AB000984120180430800028F0C5FC0C4B05002C
:101AC00003600C4B5B684360009B8360019BC360B9
:101AD000002E05D03100A2000831103021F04CFA60
:101AE000002F02D00434A40067512800FEBDC04678
:101AF00034F10200AC08002070B5060010200D0083
:101B0000140028F0A0FC034B466085600360C460AD
:101B100070BDC046BCF002000023F0B54F4C8600FB
:101B200023706370A370E3702371A023E027DB05AB
:101B3000F6180323FF00F351023B8340A02585B034
:101B40000193019A464BED050290EA50122018F0DD
:101B5000F1FAA123019ADB00EA5028200138C0469F
:101B6000C046C046C046C046C046C046C046C04645
:101B7000C046C046C046F1D10C23A221F351394BD7
:101B80000394C9006A580198024202D1013B002B1C
:101B9000F8D1A024A2200121324BE405C000225834
:101BA000029DEA400A4202D0013B002BF7D1A1215D
:101BB000002209202C4BC9005A500831585080216E
:101BC0000224F830C902FF301950284801271A5062
:101BD00027481C50C120A2248000E4001950A446CC
:101BE00010000721234CA0256646ED05AD59019E46
:101BF000354201D1013CF6D2002A00D11F600025F8
:101C00001D4EDF60B564A0256646ED05AD59029E08
:101C1000F5403D4204D0651E002C01D02C00F2E7B7
:101C2000154CA46C012C05D18C40039D2D5C2C43DC
:101C3000039D2C54002903D10130C0B2073101E0CB
:101C40000139C9B20132282ACCD1FA20273A5A6088
:101C5000800018F06FFA05B0F0BDC046100A0020F1
:101C60000C05000011270000009000400405000052
:101C70004405000010270000FC90004013B504004C
:101C800003F070FE012810D0200003F06BFE022844
:101C90000DD0200003F066FE164C102808D016491F
:101CA000164828F062FC14F0E8FB154C00E0154CD7
:101CB000200004F005FC144988420AD0200004F0FA
:101CC00041FCA02204216379D205C133FF339B007C
:101CD00099506079FFF720FF0C4CA07828F05AFB50
:101CE0000090207828F056FB69460190022003F00E
:101CF00039FC16BDA8250300DF5F0300303903005F
:101D0000DC25030068230300AC020300100A002056
:101D1000036810B5186B00280ED0CB0702D50368F6
:101D2000002B09D08B0702D54368002B04D04B074A
:101D300008D58368002B05D10349044828F015FC19
:101D400014F09BFB10BDC046FB5F0300F0350300A1
:101D5000F0B5012189B00190FFF7DAFF802106007C
:101D6000490004A826F004FE80240023069D640098
:101D7000009303AB2200290001983768B847431C41
:101D80000ED103990B2904D1009B1848002B21D1B7
:101D90002AE0012349001943154828F0DFFB14E02D
:101DA000002817D0009B1B180093844202D9241AE4
:101DB0002D18DEE7802104A8490026F028FE051E24
:101DC00005D10C490A4810F0E9F814F056FB8024BC
:101DD0006400CEE7009B08480593337BDB0700D403
:101DE000064804A900F05CFA09B0F0BD3C2A0300E3
:101DF000F03503001A6003006C3B030014F402008A
:101E0000F0B589B00091009B040001211868FFF72C
:101E10007FFF0600012C04D1009B1868FFF798FF94
:101E20009AE0009B586803F09DFD0700431CF3D027
:101E30000124337B23426FD00100040004A826F064
:101E400097FD00230193002C63D0210004A826F005
:101E5000F7FD011E04D14149414810F09FF81FE0F1
:101E6000009803AB356822000068A847030005000E
:101E7000013317D1210004A826F050FE03990B2945
:101E800008D1059B0093002B43D104A826F09AFDAE
:101E9000344861E0012349001943334828F05EFBD0
:101EA00014F0EBFA844204D8069B059C9C460F2054
:101EB00014E0211A04A826F031FE002DF4D128E008
:101EC00011001F25DB18A943C0290FD1019A9B18C7
:101ED000A3421AD8013FA34215D201936346019A47
:101EE0009A5C012351B20029F0DAE9E711000133CD
:101EF0008143E029EAD004339A43F03A53425341F4
:101F00000522D31AE2E73C009CE7E443E419E41815
:101F100099E704A915481DE0010004A826F03FFD3B
:101F2000009803AB3A00069900683568A847431C3F
:101F300009D104A826F046FD03990A480B290BD0C5
:101F400049002143A9E7337B05900848234200D18B
:101F5000074804A900F0A4F909B0F0BD2860030007
:101F6000C03403003C2A0300F03503006C3B03003F
:101F700014F402007FB50C00060001212068FFF771
:101F8000C7FE0222050001A9606803F0A7FE029ABD
:101F9000022E07D9A06803F0E5FC029B02009842DC
:101FA00000D91A006B462D6801992068A847431C88
:101FB0000BD1009907480B290AD001234900194386
:101FC000054828F0CBFA14F058FA012340001843D2
:101FD00004B070BD3C2A0300F0350300F0B589B0B1
:101FE0000191019B040001211868FFF791FE060092
:101FF000012C09D9019B5B685C10631C04D0210093
:1020000004A826F0B5FC14E00124102104A826F051
:10201000AFFC64420DE00100019803AB01220068AF
:102020003568A847431C11D0002823D03B780A2BE1
:102030002AD0631C23D1012104A826F001FD071E2C
:10204000E9D1164916480FF0A9FF11E003990B29B1
:1020500008D1059B0193012B0CD104A826F0B2FCFA
:10206000104819E00123490019430F4828F076FA77
:1020700014F003FA012104A826F050FD04E0631EC9
:10208000002C01D01C00D6E7337B0848DB0700D4C6
:10209000074804A900F004F909B0F0BD2860030066
:1020A000C03403003C2A0300F03503006C3B0300FE
:1020B00014F40200F7B50E00022104001700FFF728
:1020C00027FE01AB45683A0031002000A847431CB9
:1020D0000BD1019907480B290AD001234900194364
:1020E000054828F03BFA14F0C8F9012340001843D2
:1020F000FEBDC0463C2A0300F035030037B504009E
:10210000A06807F0F1F8019000280ED06568074B31
:102110009D4205D001AB00220121280006F09AFF64
:1021200003F060FD0028EBD001983EBD3C2A03007F
:10213000032230B502400121002A04D1094C036872
:102140000D00A3420CD00B0003401D1E07D1002A36
:1021500006D1036804481B1A5D425D4100E0012579
:10216000280030BDF8EC02009C27030010B50400E5
:10217000FFF7DEFF0123002809D1032203002240DC
:10218000022A04D1034B2340063B581E8341012001
:10219000184010BD070080FF10B524F029FD034949
:1021A000020003480FF0FAFE14F067F93D600300E7
:1021B0003039030010B50400102028F044F9044B16
:1021C00084600360034B43600023C36010BDC046BE
:1021D00028150300B3690200F7B50E00019304004F
:1021E0008B180A0000210093009B93420ED91378AC
:1021F000272B04D0223B58424341DBB201E00023AD
:1022000001210132002BEFD0272503E027250029EB
:1022100000D0053D1B4F2A003900200024F0EEFDC0
:10222000009B9E4227D23278954202D12A0016495D
:102230001CE016495C2A14D01F2A09D97F2A14D021
:10224000019B002B02D053B2002B07DB39000DE0BD
:102250000F490A2A05D00F490D2A02D0092A04D1B4
:102260000D49200024F0F9FC03E00C49200024F083
:10227000C5FD0136D4E72A003900200024F0BEFD58
:10228000F7BDC0466A600300696003006D6003002B
:1022900070600300736003007660030079600300E0
:1022A000194B70B506000D0098420ED14968A86818
:1022B00004F0E2FE041E08D0280026F083FB002371
:1022C0000620E4002B6020431DE0102028F0BBF81E
:1022D0006968040081600660A86804F0AFFE6B685E
:1022E0006060591C2B68994202D1AB68E36003E03F
:1022F000A86828F0BEF8E06000232000E268A1682A
:102300005354AB602B6070BD6C3B030070B5040090
:102310000D00002A02D004F0E1FE03E004F0ACFE60
:10232000002803D00623C000184304E02A0021003F
:10233000014824F009FA70BD6C3B030010B50A0097
:102340000100024824F000FA10BDC04614F4020057
:102350000A4B10B50340062B01D1C0080CE08307DF
:1023600008D1074B02689A4204D18168C06804F022
:10237000B5FE01E0FFF710FF10BDC046070080FF6B
:102380006C3B0300064B10B50340062B03D1C0087D
:1023900024F0ADFF02E08368C0680B6010BDC0464A
:1023A000070080FFF0B50F00002689B0110005007E
:1023B0001C00380000960323320002F0D1FF0E20EB
:1023C000B74238D0012F0ED102AA04A810210AF07A
:1023D0003DFA216802A8320003F0F4F904A92800AC
:1023E000FFF75EFF27E0206883071BD1134B0268CD
:1023F0009A4217D104A9FFF7C5FF114B06002068C8
:102400000340062B04D1C00824F062FF040000E062
:1024100044681020049F28F016F805608760C660A5
:10242000446008E0012204A903F058FC0022059949
:102430000498FFF76BFF09B0F0BDC04614F402002A
:10244000070080FFF0B58BB0049008680D0006927D
:10245000079303F09DF90600686803F099F9864236
:1024600002D06868FFF798FE08A92868FFF78AFF7E
:10247000040009A96868FFF785FF089A0590A3186A
:102480000393049B2700022B19D9AB681D498B428B
:1024900006D0012130000091210010F049FD070015
:1024A000049B032B0BD0EB68164A934207D0012202
:1024B000210000923000089A10F03AFD0390039B2F
:1024C000059AD91B069B38000093099B24F01CF940
:1024D000002809D1079B0138002B11D00A490B486D
:1024E00028F043F813F0C9FF094B9E4204D10100C4
:1024F000200024F00EFB00E0001B012440002043DC
:102500000BB0F0BD3C2A03008060030040340300A0
:102510006C3B0300F0B58DB00400039103F038F973
:1025200004A906002000FFF72DFF01900398830700
:102530000BD10368314A934204D106AA05A924F0BD
:102540004DFB10E02E4A934208D02D480022C3686C
:1025500001210293029C03ABA047039006AA05A9A0
:10256000039826F0AAFC00242500059B9C421ED25D
:10257000069BA700D85903F00BF9864205D02149E4
:10258000214827F0F2FF13F078FF002C01D0049BC4
:10259000ED18069BD8591D4B0340062B03D1C008EC
:1025A00024F09BFE00E080682D180134DDE729004F
:1025B000002508A826F0F3F90A9C059B9D4217D236
:1025C000002D06D02000049A019920F0D5FC049B30
:1025D000E418069AAB00985807A9FFF7D3FE079AAC
:1025E0000100200020F0C8FC079B0135E418E4E757
:1025F00008A93000FFF754FE0DB0F0BD080103003C
:10260000C02803009460030030390300070080FFF6
:10261000F0B5070087B008680D0003F0B9F804A909
:1026200006002868FFF7AEFE05A904006868FFF7FA
:10263000A9FE03902000022F07D901230093AB6865
:10264000049A2100300010F073FC059A041B049BCF
:10265000A418064D9C4205D8039920F065FC00287B
:1026600000D1034D280007B0F0BDC04634ED020094
:10267000F0EC020073B50C00060069462068FFF715
:1026800081FE01A905006068FFF77CFE0100022EB3
:1026900002D9084807F088FB019A009B064C9A4231
:1026A00006D89B1AE81820F03FFC002800D1034C04
:1026B000200076BDD960030034ED0200F0EC02008A
:1026C000F0B58FB0079010680C00170003F060F8A9
:1026D0000690012C10D0786803F05AF8069B8342CC
:1026E00002D07868FFF758FD0DA97868FFF74AFE19
:1026F0000D9B0890099303E0072309932C4B089343
:102700000DA93868FFF73EFE0D9B0B900493079BC5
:10271000012B05D1049B5D1E01235B420A9302E05D
:10272000012300250A9300242600049B03940593AB
:10273000059B002B22D00B9B09995A19012308985D
:10274000009323F0E1FF002812D1039B002B0ED150
:10275000079B002B03D1049B2E005D1E19E0079BF5
:10276000012B15D001232C002E00039300E02C0038
:102770000A9BED18059B013B0593D9E7039B002BB2
:1027800008D10C4B069A0E209A420FD00A480DE051
:10279000039E2C00049B0134A21B934201D1386894
:1027A00004E00B9B0698991923F0CEFF0FB0F0BD03
:1027B000366003006C3B030020F20200F0B589B0E4
:1027C000049008680D0002F0E3FF0700686802F05B
:1027D000DFFF874202D06868FFF7DEFC06A92868A1
:1027E000FFF7D0FD060007A96868FFF7CBFD069A42
:1027F0000590B3180393049B3400022B19D9AB68DE
:102800001E498B4206D0012138000091310010F0A2
:102810008FFB0400049B032B0BD0EB68174A9342F9
:1028200007D00122310000923800069A10F080FB98
:102830000390079B0025002B10D1039B2000191B40
:1028400024F076F901304000012514E005992000BC
:1028500020F06AFB002807D101353400079A039B5A
:10286000A618B342F2D204E0200024F049F9060091
:10287000F3E701206D00284309B0F0BD3C2A0300B6
:10288000F0B58BB00E000700039202F081FF040048
:10289000300002F07DFF844202D03000FFF77CFC64
:1028A00005A93800FFF76EFD06A905003000FFF707
:1028B00069FD069B0200002B05D11A491A4827F032
:1028C00054FE13F0DAFD19498C4201D10E2100E0CB
:1028D00017490791089109910399002901DD07978C
:1028E00000E00997039928000091059923F00CFF57
:1028F000002811D0471B3A002900200023F024FFB4
:10290000059B0699DA1B521A79180790691820005E
:10291000089623F019FF099007A9032002F022FE70
:102920000BB0F0BDEB600300403403006C3B0300D0
:1029300020F2020010B50100014824F019F810BD82
:10294000516B020010B50100014824F011F810BDD0
:10295000656B0200F7B50600080001A9FFF712FD3C
:10296000019B0500002B01D1144826E0144B040004
:102970009E4201D1002712E0124B9E42FAD0019AEA
:10298000631B9A4218D92078B04701340028F6D149
:10299000EAE7207801F090FB002805D10134019A84
:1029A000631B9A42F5D805E02078B0470028DBD0B9
:1029B0000127F3E7002FD7D00348FEBD34ED020016
:1029C0002141000039410000F0EC020010B5010087
:1029D0000148FFF7BFFF10BDA140000010B5010086
:1029E0000148FFF7B7FF10BDB940000010B5010066
:1029F0000148FFF7AFFF10BDD140000010B5010046
:102A00000148FFF7A7FF10BD2141000010B50100EC
:102A10000148FFF79FFF10BD39410000F0B585B0B8
:102A200006000C00170002F0B3FE694605003000F6
:102A3000FFF7A8FC0600042F22D1A30715D1124BE3
:102A400022689A4211D101AA2100009809F002FEE1
:102A5000002802D10D4807F0A7F90199029A280031
:102A6000521A711823F070FE0BE000232200009927
:102A7000280003F04FF80123305C4000184300E0C9
:102A8000002005B0F0BDC04680330300FB600300AA
:102A900070B51D008AB0002968D01868354C030055
:102AA0002340062B05D083071ED1334B02689A4280
:102AB0001AD10239012953D806A9FFF763FC060091
:102AC00028680440062C04D1C00824F001FC04004E
:102AD00000E044681020069D27F0B5FC274B856078
:102AE0000360C660446042E0012939D801221042E7
:102AF0000CD04410210006A825F051FF089B2200AD
:102B000000211800019320F0C1FA24E003A924F069
:102B100085F8002805D0049A0399184823F014FE7C
:102B200025E0286803F03AF81021002800D0411071
:102B300006A825F01DFF286806F086FB040020008B
:102B400006F0D2FB002806D002F00CFFC1B206A8A6
:102B500025F09BFFF3E706A90848FFF7A1FB06E075
:102B60000749084827F001FD13F087FC06480AB022
:102B700070BDC046070080FF6C3B030014F40200E8
:102B80002C6103003039030020F2020073B5040009
:102B9000080001A91600FFF7F5FB0500042E06D179
:102BA0000300019A0749200024F028F909E00649AA
:102BB000200024F052F80123019A29002000FFF799
:102BC0000BFB73BD466103005F6D0300F7B50200A8
:102BD0001A4B05000C001A401E00062A08D10B40B3
:102BE000401A062B26D0E80824F072FB070000E00C
:102BF00047682640062E03D1E00824F069FB00E078
:102C00006068002F05D0002803D0874201D0002043
:102C100013E069462800FFF7B5FB01A90500200075
:102C2000FFF7B0FB009A019B01009A42EFD1280008
:102C300020F07AF944426041C0B2FEBD070080FF37
:102C4000084B07B50340062B08D0830704D1026860
:102C5000054B92699A4201D0FFF79EFA01A9FFF74E
:102C600091FB0EBD070080FF513200000A4B13B5E7
:102C700003400C00062B08D0830704D10268074BE1
:102C800092699A4201D0FFF787FA01A9FFF77AFB10
:102C9000019B236016BDC046070080FF5132000033
:102CA000F0B59BB00B900491079210210EAA12A8C8
:102CB000099309F0CBFD049B079A934200D3A9E244
:102CC000049B19785D1C7D2908D1079BAB4203D971
:102CD000049B59787D290FD0B44930E07B2903D07B
:102CE00012A825F0D2FE72E0079B2C00AB4233D92C
:102CF000049B59787B2904D112A825F0C6FE0495BF
:102D000065E07D2910D021290ED02E003A290BD064
:102D100033787D2B5FD0212B5DD03A2B5BD0079B86
:102D20000136B342F4D117E00026230034001A78AC
:102D3000212A52D107995A1C914205D89C499D4895
:102D400027F013FC13F099FB5A780592723A012A86
:102D5000F4D80233994242D89749F0E716A825F0F3
:102D600031FE059B002B00D17DE1002E00D12036E5
:102D7000089B002B00D081E1059B3D2B00D186E113
:102D80005E2B00D185E13C2B01D13B3B1D4338003C
:102D9000FFF7CEF9002800D1C3E1632C00D18DE10B
:102DA00000D97FE1472C00D875E1582C00D1A7E16C
:102DB000622C00D0AEE1002303930D9B022202930C
:102DC00061230196009539000EA803F0A7F8049B33
:102DD000013304936FE73300A9E700220592002135
:102DE0001A7804913A2A00D006E25A1C5B780492C1
:102DF0007D2B11D01300012207998B42ACD2197898
:102E00007B2901D1013205E07D2903D1013A002A55
:102E100000D1F1E10133EFE7079B049A93429BD97C
:102E200000230693049B1B787D2B01D0634986E722
:102E3000002C42D000232078169301F049F9250098
:102E4000002820D0099B1B680893002B01DD5C49FA
:102E500075E716AA3100200023F03DFC209A169B4E
:102E6000013A05009A4232D9219A01339B009F58BA
:102E70000122099B52421A601AE02B782E2B04D0B3
:102E80005B2B02D00135B542F7D3291B012220006C
:102E9000FFF73CFA002204000100229808F040FAF3
:102EA000002804D12100474827F058FB4AE747682B
:102EB000B54215D2444806F077FF099B1B68002BEA
:102EC00001DA42493BE7209A013A934202D3404952
:102ED000404835E7013321999A005758099A136001
:102EE000069B002B04D1059B002B00D181E102E061
:102EF000059B002B12D010AA102116A809F0A6FCE1
:102F0000059A3900733A531E9A4110A8D2B202F0C2
:102F100059FC16A93048FFF7C3F9070001235B42AB
:102F20000D931093069B002B00D198E00FF018F939
:102F3000229B049A0293219B06990193209B16A839
:102F40000093099BFFF7ACFE16A825F08BFD179B9D
:102F50000678C3180A930023040005939E4216D0F6
:102F60001E4D3100280021F0BBFA002800D047E1B7
:102F700063780593002B09D01900280021F0B0FADE
:102F8000002800D040E10590060000E0059E23786F
:102F900008932B2B05D02D2B05D00425202B1FD1DA
:102FA00002E0022500E0002501341BE04B61030034
:102FB00073610300403403008C610300A4610300CB
:102FC000C8610300203A03002B620300486203003B
:102FD000126203009C3503006C3B03009262030005
:102FE000002508952378232B02D1133B1D43013480
:102FF0002378302B07D1059B002B01D13D3305935E
:10300000002E00D130360DAA0A99200023F063FB70
:10301000037806902C2B04D10C3B1D430300013395
:103020000693069B1B782E2B06D1069810AA01301A
:103030000A9923F050FB0690069B1C78002C07D0C1
:103040002100794821F04CFA002800D0DEE004008D
:10305000069B1B78002B00D180E674496FE6069D25
:103060002C002E0008953800FFF780F83C230593CC
:10307000002800D179E60233059376E6732C01D15E
:103080006B495CE6632C00D076E66A4957E640233C
:103090007CE680237AE6452C43D2002C19D0252CDF
:1030A0003FD037E0672C02D8652C12D339E06F2C63
:1030B00018D0782C24D06E2C2CD10AE0380002F0E5
:1030C00051FC0D9B16A908700122019300962B005C
:1030D00081E0002303930D9B0196029300956123E9
:1030E0000A2270E6EB0602D580239B001D430023D5
:1030F00003930D9B0196029300956123082262E6DB
:103100000022230003920D9A173B0292019600952C
:10311000102258E6380023F06BFD220003004649D8
:1031200063E03800FFF722F8002838D0002C1FD0C9
:103130006E2C1DD0472C15D8452C1AD2252C27D102
:103140003800802402F072FC3C4917F0EFFF109B1E
:10315000640002930D9B2C430193011C00962300F5
:10316000662211E02300653BDBB2022B10D800E0A1
:103170006724380002F05AFC109B220002930D9B3A
:10318000011C01932B0000960EA823F0EAFD1EE619
:10319000380023F02DFD22000300294925E0059B7E
:1031A0003D2B01D12749CAE5002C01D0732C16D143
:1031B00016A93800FFF75AFD109B0100169A002B44
:1031C00000DA1092109B9A4200D916930D9B169A22
:1031D00001932B0000960EA802F042FEF7E538009E
:1031E00023F006FD22000300174918480EF0D6FE12
:1031F000A8E5732305937EE6049A0493069211E6EC
:10320000059601340026C2E60234C0E6069B01336F
:1032100006931DE70B9A12AB13CB13C21B68136006
:103220000B981BB0F0BDC04697620300A762030075
:10323000C0620300EC6203001F6303000000C84289
:103240005063030084630300B96303004034030048
:10325000F0B5A1B004000D000D920A2800D0DFE106
:10326000073C0692144010D11368B64A934206D127
:103270000FAA10A9069823F0B1FC06940BE0B24AFD
:10328000934202D10F94109405E00DAB0F930123EC
:10329000109300230693109B11A908930F9B2800FD
:1032A0000993FFF76FF800230A900B93AB0705D142
:1032B000A64A2B689B1A5A425A410B9214AA102113
:1032C00018A809F0C3FA119A002794460A9B0A9C91
:1032D00063440593059BA34200D894E121782529F6
:1032E00003D018A825F0D1FB8BE1059B661CB342E7
:1032F00001D8974915E06178252904D118A825F04F
:10330000C4FB34007DE10025282919D1A01C06004A
:1033100000E001363378292B08D0059BB342F8D85A
:103320008C498D4827F021F913F0A7F8311A0122B2
:10333000FEF7ECFF010006980CF060FD0500013679
:10334000002334004022002604210C9320330793ED
:10335000059BA34211D923782D2B01D12C3B02E0F0
:103360002B2B02D1293B1E4312E0202B01D10E430F
:103370000EE0232B0AD0302B05D000231293059B9F
:10338000A34207D81EE01643079301E010230C93D5
:103390000134DDE723782A2B0ED1089A3B00BA428C
:1033A00001D86E4933E1099A9B00985802F0DAFA85
:1033B00001371290013405E0200012AA059923F08C
:1033C0008AF9040001235B421393059BA34290D921
:1033D00023782E2B1ED1059B601C834289D96378EC
:1033E0002A2B0CD1089A3B00BA42DAD9099A9B00E1
:1033F000985802F0B7FA01371390023406E0002320
:1034000013AA0599139323F066F90400059BA342C0
:1034100000D86EE7002D07D1089A3B00BA42C0D908
:10342000099A9B009D5801372278672A0FD8652A90
:1034300068D2582A00D1CAE004D81300453B022BB9
:1034400060D9D5E0632A12D0642A40D0D0E0732A34
:1034500007D8722A00D38BE0692A38D06F2A61D04E
:10346000C6E0752A33D0782A00D1B0E0C0E03C4BEA
:103470002B40062B05D0AB0713D13A4B2A689A4252
:103480000FD11CA92800FFF7F1FB1C9A0100012AAB
:1034900001D03549BBE0129B0193202300933300F8
:1034A0000FE02800FEF744FE00280ED0280002F0AE
:1034B00059FA129B1CA90870019320230122009342
:1034C000330014A802F0CCFC9BE028499FE00322C3
:1034D0002B0028001340022B09D1214B2B40062B37
:1034E00005D0FF23DB05E81890430DF0B7F8139BD8
:1034F00000960393129B0A220293079B01000193FB
:10350000612371E0280002F091FA139B2278029364
:10351000129B011C0193079B14A80093330023F016
:1035200020FC6EE00C9B002B02D084239B001E43EA
:10353000139B00960393129B08220293079B01930F
:10354000612350E008010300D82E030014F40200A8
:10355000EB630300FD6303004034030013640300C6
:10356000070080FF6C3B03003A64030053640300D0
:1035700016AA10211CA809F069F923780122722BE0
:103580000BD000220B9B934207D0AB0705D12B68D1
:10359000654A9A1A514251418A00290016A802F040
:1035A00011F9139B1D9A002B00DA1392139B9A4278
:1035B00000D91A00129B1E990193202314A800938E
:1035C000330002F04DFC1CA825F0FCF919E01300B3
:1035D000139A173B0392129A0292079A01920C9A3D
:1035E000164310220096290014A802F097FC08E068
:1035F0000A9B4E49E41A009413004D480EF0CEFC8D
:1036000092E6013466E6089BBB4202D049494A482B
:1036100088E60B9B4448002B00D1484818A96FE06E
:10362000080002F0B5F816A906002800FEF7AAFE69
:103630000700072C1ED118A90D9802F0D1F900251A
:10364000A8426ED01899A94205DC3C4B0E359E422B
:1036500067D03B4D65E0169B1CA8594325F09FF9A8
:103660001E9B169A059300930121189B380025F0A4
:103670007FF843E00D9802F08BF8864206D11CA932
:103680000D98FEF77FFE1C9D05900DE0264B002552
:103690009E4246D101221CA90D9823F0BFFAA842F0
:1036A0003FD01C9B1D9D05931D2C06D8192C2BD299
:1036B000052C0DD0122C0BD032E01F2C30D1012361
:1036C000059A009316992B00380023F01DF822E08C
:1036D000169B1CA8E91825F062F91E9B169A390062
:1036E000180006931FF048FC169A1E9B94460693FA
:1036F000634418002A0005991FF03EFC30001CA905
:10370000FEF7CEFD05000CE00095059B169A3900EA
:10371000200025F061F80B4D002802D10A4D00E091
:103720000025280021B0F0BD14F4020064640300F9
:103730004034030099640300303903006C3B0300FC
:1037400020F20200F0EC020034ED020070B50C0033
:103750008AB0050004A920681600FEF713FE0023B6
:103760000593049B0100C218029605AB06A80194BC
:103770000095FFF795FA06A90248FEF791FD0AB0F9
:1037800070BDC0466C3B0300F0B5050087B008680B
:103790000C0001F0FDFF0090012D07D96668022D95
:1037A00005D0A06802F0DEF8050002E0444E0125D5
:1037B0006D420021080025F069FB04A901902068F2
:1037C000FEF7E0FD049B0400C7183D4B9E4230D13C
:1037D000A74272D9207800F063FC002826D001347B
:1037E000F6E7002D60D02600307800F059FC002864
:1037F00003D10136B742F7D13E002100321B0098B9
:1038000022F0A2FF010001980AF04AF8B74254D909
:103810003400207800F044FC002803D00134A74293
:10382000F7D13C00EB175B1BDB0FED1AA742D8D892
:1038300043E0300001F0ACFF009B834202D0300037
:10384000FEF7AAFC05A93000FFF710FA059B0390CC
:10385000002B25D11B491C4826F087FE12F00DFED7
:10386000029BF3189F4209D3029A039930001FF07C
:103870005BFB002803D00136002DF1D13E00210072
:10388000321B009822F060FF010001980AF008F84E
:10389000B74212D9059BF418EB175B1BDB0FED1A2F
:1038A000059B26000293E7E721003A1B009822F0CF
:1038B0004BFF0100019809F0F3FF019807B0F0BD3C
:1038C0003C2A0300EB60030040340300F0B50D0018
:1038D0008BB0022802D8FFF757FF7DE0086801F09F
:1038E00057FF08A9049028686C68FEF74BFD00900C
:1038F000A86802F037F8431C060000211800059361
:1039000025F0C4FA354B05009C4202D1344806F03C
:103910004BFA09A92000FFF7A9F9099B0690002B93
:1039200005D13049304826F020FE12F0A6FD089A55
:1039300034009446009B63440293B3000393099BB5
:103940000193019A029B9F1A002E0BD0009BBB4251
:1039500008D8019A069938001FF0E6FA002821D00D
:10396000013FF1E7EB68A6009F19009A029B0099BE
:103970009A1A049822F0E8FE3860002C2BD0059BA0
:103980001F1BEB68BC009919220018001FF032FBC6
:103990006B680021DA1BEB68920018191FF076FBA8
:1039A000AF6018E0039AEB68944663440793029B68
:1039B0000498DA1B019B013CD21AF91822F0C4FECC
:1039C000079B02971860F3179B1BDB0FF61A039BEC
:1039D000043B0393B3E728000BB0F0BD3C2A03007F
:1039E000CE640300EB60030040340300F0B50E002A
:1039F000002485B011000700039322000C4B300017
:103A0000009401F0ADFCB01C800026F01CFD050008
:103A100007604660B44208D0039BA700D85905F060
:103A200013FCEF19B8600134F4E7280005B0F0BDCD
:103A3000FFFF0000F7B51D4D1D482B000833D96F5F
:103A40000378A0279A1C9200545A8E184A88FF05C2
:103A50005443A122D2009446A4120190F278002A85
:103A600008D00120B27801339040020060463A50FD
:103A7000DAB20DE00F4B48682E00F850280088306D
:103A8000036808361400002B02D01900F3670260A7
:103A9000931C9B00585ACE184B8858438012001B29
:103AA00001D11300DAE7019B1A70FEBDAC080020BB
:103AB000FA0700200C050000044B05491A000832E3
:103AC000D167002288331A607047C046AC080020D6
:103AD00090F6020010B578220249022011F012FE81
:103AE00010BDC046353A0000421E114BFF3A70B57A
:103AF0009A421AD8051172B60E4B00201A0019000E
:103B0000883214680831106062B61E00844200D109
:103B1000CC6F2178200022F080FF636845804360ED
:103B2000330088331860002001E00120404270BD5E
:103B300040410F00AC080020054B1A0088331B6879
:103B40000832002B00D1D36F588800017047C0465F
:103B5000AC080020F0B54E4A85B007000B0091423A
:103B600000D913008022D200D21A019272B6494ABB
:103B700000201100883214680831106062B6844257
:103B800000D1CC6F0126BE4062680096324207D158
:103B90003A00A0210320C132FF329200C9055050E3
:103BA000002521788D425BDAAA00A218927A97420A
:103BB00001D00135F6E7002B13D10139200022F0A6
:103BC0002CFF6368009A06009343436023785A1ED3
:103BD000954211DA01339B0002351B59AD002B5081
:103BE0000AE0200022F019FF6368060043606B467C
:103BF00002359B88AD002B526388341D73800123EE
:103C000000933378009A9A4226DA2500238901939B
:103C1000A37A0293E37A0393009B5F1EAB88019A19
:103C2000934208D92800291D083004221FF0A4F966
:103C3000043D013FF2D26B4603379B88BF00F71962
:103C40003B806B461B7A0434BB706B461B7BFB705E
:103C5000009B01330093D4E70E4B88331E6014E0C1
:103C6000002B12D00131200022F0D7FE6268009BA9
:103C7000060013436A464360237892889B00C3186A
:103C80001A8101229F72DA72B6E705B0F0BDC04614
:103C9000FF030000AC08002010B500210400FFF76E
:103CA00059FF0D4B0833DA6F00231078834211DA85
:103CB00099005118897A8C4201D00133F6E702331A
:103CC0009B00D3181F229A700123A021A340034A0E
:103CD000C9058B5010BDC046AC0800200C05000083
:103CE000F0B593B0060006A80F00140012F0AAFB6E
:103CF000051E23D13368310001263A0003A8019341
:103D000010F094F8A3082A003340019903A80BF09F
:103D100063FC0500032002F07BFC280024F058F926
:103D20000120404202F074FC12F0A2FB344203D0A6
:103D30003100134802F0A0FC012518E001204042A8
:103D400002F066FC01210C4202D00D4802F094FC06
:103D5000079801F01DFD0B4904F0DCFB051E04D1A2
:103D60000799094801F052FD01E080256D0001210D
:103D70000C4202D0024802F07FFC280013B0F0BDD4
:103D80000865030060350300580203001FB52021B9
:103D90006846802424F0ECFD6400254823F044F8B4
:103DA000684624F01AFE234823F03EF802F04CFC4B
:103DB0000128F2D002280AD11F4823F035F86846BE
:103DC00024F000FE01221D4B00201A702DE0032874
:103DD00003D1684624F001FEE8E7042804D0C1B20C
:103DE000684624F052FEE1E7154823F01DF8019AD9
:103DF000002A08D1104823F017F8684624F0E2FDA5
:103E00008020400011E0962000230299400008F035
:103E1000EDFD002803D10B481FF072FFC0E701221F
:103E20001100FFF75DFF2042BAD004B010BDC046BC
:103E3000DD64030093D10300C7D10300D400002048
:103E4000F8640300FB64030070B586B0202102A86B
:103E5000802424F08DFD6400444822F0E5FF4448AE
:103E600022F0E2FF02A824F0B8FD424902A822F0A5
:103E70008AFE012809D1404822F0D6FF02A824F08A
:103E8000A1FD00203D4B18706EE0022803D13A4896
:103E900022F0CAFFE0E703281AD0042808D13648E8
:103EA00022F0C2FF02A824F08DFD802040005BE0DC
:103EB000052825D1324822F0B7FF02A824F08DFD55
:103EC00002F0C2FB6B46C1B2DD1D2970032901D18E
:103ED0002948C5E7042904D1274822F0A5FF012578
:103EE00027E002A824F0D1FD2B780D2B03D1254823
:103EF00022F09AFFE4E70121280002F0BDFBDFE792
:103F000002A824F07DFD0028ACD002A824F0AAFD70
:103F1000FDF762F800280BD00A2102A824F0B5FDB5
:103F2000194902A822F02FFE0328D1D00428ECD191
:103F3000002502A824F05DFD060002A824F060FD23
:103F40000200962000233100400008F04FFD0028B9
:103F500003D10E481FF0D6FF84E706222900FFF7A1
:103F6000BFFE204200D17DE706B070BD0A650300A8
:103F70004F65030075650300C7D10300D40000201E
:103F80007A650300AA650300B16503000C6F0300A6
:103F900010B504000EF0C8F8074B0200A4331B68EC
:103FA0000649074822F02AFF09F004FA012C01D142
:103FB00009F020FA034810BDAC080020DC650300BE
:103FC000580203003C2A030010B508F003FF014823
:103FD00010BDC0463C2A030010B508F0F1FE0148B0
:103FE00010BDC0463C2A030010B586B0040005ABE6
:103FF00004AA03A902A803F0DDF8059B029A019325
:10400000049B064900930648039B22F0F7FE012C0F
:1040100001D103F00BF9034806B010BDF1650300B0
:10402000580203003C2A030010B504000C2026F0BF
:104030000AFA034B4460036001235B42836010BDB6
:1040400024F70200F7B5019111490400170000257B
:1040500022F003FE7B689D4214D2002D03D00D494F
:10406000200022F0FAFD019BAE009A590A49200077
:10407000BE1922F0C3FE0122B168200001F0A2FBAC
:104080000135E7E70549200022F0E7FDF7BDC0460E
:10409000E7D203008E5F0300396603005F69030007
:1040A00000237F2803D8034B1B5C9B07DB0F180002
:1040B0007047C0463D66030000237F2803D8034BAA
:1040C0001B5C1B07DB0F18007047C0463D660300F2
:1040D00000237F2803D8034B1B5C5B07DB0F180012
:1040E0007047C0463D66030000237F2803D8034B7A
:1040F0001B5C5B06DB0F18007047C0463D66030083
:1041000000227F2808D8054B0132195C0C23194284
:1041100002D15F3842424241100070473D660300C1
:1041200000237F2803D8034B1B5CDB06DB0F180042
:104130007047C0463D66030000237F2803D8034B29
:104140001B5C9B06DB0F18007047C0463D660300F2
:10415000F8B5214D2E687368012B3BD9B1685C1E00
:104160000A5D0A2A36D1002C03DD621E885C0A280B
:1041700001D1220005E01400F5E7885C202802D177
:1041800001329A42F9D3002C0BDD501C834208D136
:10419000601E002805D001380F5C0A2F1AD0202F8E
:1041A000F7D0CB18023B1B78141B3A3B59425941BC
:1041B000A4086418013C0DD3084F042239003000D4
:1041C00024F0B5FB0421380002F056FA2B690433C1
:1041D0002B61EFE7F8BDC04624010020A55D030078
:1041E00010B52022002102481EF050FF10BDC0462D
:1041F000F4080020084B10B5426818600020986051
:1042000018750138D86008005A601A61996122F067
:104210000BFEFFF79DFF10BD24010020F8B50378C9
:104220000500002B1DD00F4CA06C002804D02900E5
:1042300020F0C4F9002814D0280020F003FA471C0D
:10424000380026F00DF9061E0BD03A0029001EF0AA
:1042500093FE054B054A1968043B99609A42FAD1CE
:10426000A664F8BDAC0800200C090020F00800206E
:10427000F0B5BE4B050018689E68426885B0019293
:104280001C00002E00D0C9E06B1E042B1ED824F0A9
:10429000B7FB6368984200D165E1012D00D109E1C7
:1042A000022D0BD012E00023A360412D39D0422D06
:1042B00030D0432D1BD0442D00D0EAE02369626842
:1042C000934200D85EE1002701261CE1032D00D1B6
:1042D00049E1042D06D1206821694368994200D341
:1042E000E0E0FCE0052D00D1EFE0062D06D12368CB
:1042F0005D682369AB42AD416D4227E10B2D07D1CB
:10430000019B22692068991A24F008FC002503E12A
:104310000E2D04D1E368002B00DBA1E032E1102D6B
:1043200004D1E368062B00DC8DE02BE1152D0BD1C9
:104330002369626861689A1A206824F0FDFB23698A
:10434000626800259E1A19E10D2D0AD1884822F0D5
:104350006BFD206824F086FB6368C018FFF75EFFE2
:1043600012E11B2D02D10123A3600BE1082D01D026
:104370007F2D1BD121696268914200D802E10023A0
:1043800020688668B518ED5C202D08D101339D1892
:104390008D42F7D30126032B02DD033600E0012610
:1043A000891B320024F0C8FB0127ACE0092D29D17C
:1043B00063682269D11A226890686E4AC01803ABFC
:1043C000FCF7B8FE061E00D1DCE00025431C0BD133
:1043D000A06922F029FD63682269D11A22689068D9
:1043E000C01802F049F997E023692068E918039B97
:1043F00001355A1C03921A7824F07EFBAE42F3D1A9
:10440000350089E02B00203B5E2B00D9BAE02A0062
:104410002169206824F079FB01257DE0012E07D178
:1044200004224F2D6DD002225B2D6AD0002268E05D
:10443000022E33D12A00303A092A00D933E7032269
:104440001D759A609EE05A1C4B4913339B005958C6
:10445000002900D196E020686368E26043600FE0C5
:104460002068013BE36062684368991A24F056FBB8
:10447000E368002B06DB12333F4A9B009958206803
:1044800024F00CFB63682269D61A22685568ED1A7D
:1044900074E0482D0ED0462D74D116E0032E29D19C
:1044A0007E2D02D000252F001EE01B7D312B01D078
:1044B000372B05D10025236962682F009E1A14E06E
:1044C0001A00FB21343A0A4206D1002723683E0035
:1044D0005D682369ED1A08E0332BE3D1FBE6012286
:1044E00024F02AFB002501272E000023A3609E4212
:1044F0000ADC0FE00022042E03D1462DE5D0482D22
:10450000D8D09A603EE00025300002F0D9F8236947
:104510009E1B2661002F19D02368019A5B689A427E
:1045200004D913002269981A02F0DAF82268236984
:1045300051689068C91AC01802F09EF8236858683C
:104540002369C01A401B02F0BBF808E0002D19DDFA
:104550002368290098682369C01802F08DF8236940
:104560005D1925610EE02E000EE0C04624010020FA
:10457000C7D1030058020300AC0800200127002E19
:10458000C2DCC9E701267642300005B0F0BDC04666
:10459000F0B5836999B05A1E04925A1D9200821890
:1045A0000432029202009B001C320791D3180F21A3
:1045B000012203930369019006A81A4009180A70A2
:1045C000032293430A930CA811F03CFF031E01D071
:1045D00000F0BAFD019A5568D468079A002A2CD0D9
:1045E0002A785E2A29D00798079300F0E6FC7B78AA
:1045F0003A781B021343BA4A9B18FB186360EB78A6
:10460000083423600F267F210220012506AA236893
:10461000B6180B4200D1C3E20A9A013B526802422B
:1046200000D1B5E2220008C20523636014000A9B92
:104630001F680A9B0C3B0A933D00019B6F1C5D6049
:104640002B78180010385A2801D900F02DFD15F0EC
:1046500001FF5B005D0062002B0564002B05740008
:10466000830089002B058B00A100B300C300D30099
:10467000E200F300F80000010F01240135015301AD
:1046800064016D0181019A01A8012B052B052B0501
:104690002B05B601B8014205BF01C501CF01D70105
:1046A000E501F301FF012B052B052B050D023D0252
:1046B000AE02AE02CB02E102E502F602F602CEFF46
:1046C0002B052B052B052B052B052B052B052B056A
:1046D0002B0502031503270339034803510367031E
:1046E00079039103AF03C2037104A204C804B704A1
:1046F0002B05DA03E503F003F903090425043C0460
:104700005804040515052605764B00E0764B6360DA
:10471000043400F00DFD754BF9E77F216B785B06E3
:10472000DB173A78DB01100052B20840034301372F
:10473000002AF6DB5B0001220CE000237F213A789F
:10474000DB01100052B20840C3180137002AF6DB23
:104750000622DB001343DAE70322FB1C93431F000E
:1047600008CFD4E70023D2E700237F213A78DB018A
:10477000100052B20840C3180137002AF6DB9B0034
:104780005B42029A9858002800D056E2584959488E
:1047900000F085FD00237F213A78DB01100052B242
:1047A0000840C3180137002AF6DB029A9B005B42DF
:1047B000985822F02EFBE6E700207F223B78C001CC
:1047C00019005BB2114008180137002BF6DB251DDC
:1047D00004F07AFB00F061FC00207F223B78C001EE
:1047E00019005BB2114008180137002BF6DB251DBC
:1047F00004F038FB00F051FC00217F223B78C90116
:1048000018005BB2104041180137002BF6DB20681E
:1048100023F005FC30E200217F223B78C90118001B
:104820005BB2104041180137002BF6DB220001CCAF
:1048300004F0BEFC00F07CFC251D04F05DFB00F0E4
:104840002CFC251F04222168286801F015FA00F0CD
:104850005EFC00237F213A78DB01100052B2084051
:10486000C3180137002AF6DB9B005B4200F030FCE6
:1048700000237F213A78DB01100052B20840C318B0
:104880000137002AF6DB029A9B005B4221689858A8
:10489000251F22F0C0FA00F03BFC00207F223B786D
:1048A000C00119005BB2114008180137002BF6DB7C
:1048B0002168251F04F034FB00F02AFC00207F2231
:1048C0003B78C00119005BB2114008180137002B7A
:1048D000F6DB2168251F04F03BFB00F019FCC04605
:1048E0000280FFFF34ED02003C2A0300F0EC0200DE
:1048F000BD6603002C36030000217F223B78C901EE
:1049000018005BB2104041180137002BF6DB231F63
:104910001A68206804F074FC00E22200231F083AA1
:1049200012682168186801F0A7F93EE100237F2191
:104930003A78DB01100052B20840C3180137002A50
:10494000F6DB029A9B00D31A1A68002A00D11DE7F1
:10495000002241E000257F223B78ED0119005BB287
:1049600011404D190137002BF6DB029BAD005D1B9A
:10497000286822F04EFA002800D107E700212868B5
:1049800022F049FAD4E300207F223B78C0011900CD
:104990005BB2114008180137002BF6DB04F0CCFAAB
:1049A000C6E300207F223B78C00119005BB21140B2
:1049B00008180137002BF6DB04F0D6FAB8E32368B9
:1049C000A5E62368A360231F1B6863600834AFE378
:1049D000231F1968226821601A60A9E3221F136847
:1049E000216823602300083B1868106019609FE36A
:1049F0007B783A781B021343DB4A9B18FF1897E336
:104A00007E783B78206836021E4301F0EBF8EF1CFD
:104A1000251F2C00002800D18AE324E07E783B7813
:104A2000206836021E4301F0DDF8EF1C251F2C0024
:104A3000002800D07CE316E07E783B7836022068C0
:104A40001E43EF1C01F0CEF8002800D143E30AE03A
:104A50007E783B78360220681E43EF1C01F0C2F8D6
:104A6000002800D037E3C14BF618E4E026002768A1
:104A7000220038001721083604F09AFB3800320073
:104A8000162104F095FB00213200080023F0B8FA4B
:104A9000AB786A781B0213430A9AEF1C0C320A9215
:104AA0000A9AFB1813600F220A9B251D059306AB7B
:104AB000D2181378190002231943059B0D435D603A
:104AC00000230A9913708B60A0606FE125002668AF
:104AD000A74B083D9E4208D16660A6602A000021CF
:104AE000032023F08DFA2E6012E3012131402CD0F7
:104AF0007610231F012E10D126001A680C3E059255
:104B00009B4A00211A60032022606260320023F079
:104B100077FA059B3360032315E026002A68103ED0
:104B200005921A6800210692914A03202A601A60B1
:104B30002260320023F064FA059B069A336023005A
:104B40000C3B1A6005232B60E8E02B682E602600E2
:104B5000103E23603200032023F052FA01F042F8A5
:104B600000280DD00122824B06A933600A9B5B68A6
:104B700013400E32521813700A9B0C3B0A9315E136
:104B8000236833602300043C22680C3B1A60BFE2B8
:104B90000A9A52682A4032700A9A0C3A0A9238E508
:104BA000221F1768002B00D1B8E00C3CC0E27B78D4
:104BB0003A781B0213430A9AEF1C0C320A920A9AA3
:104BC000FB1813602B780A99403B584258410F223A
:104BD000430006A812181078034323434B600023B8
:104BE0000A9913708B60A3E220680DF01FFA251F4D
:104BF000002803D011F03CFC2B682BE223685C4AB0
:104C00002C00934200D193E25B10DBB2012B00D069
:104C1000F8E49DE1206804F017FB2DE07E783B78F6
:104C200036021E43019BEF1CDC60206804F034FB5D
:104C3000002802D1043CBF197AE2606068E50A9B53
:104C400006A95A68012313400F22521813700A9BB9
:104C50000C3B0A936CE200207F223B78C0011900D4
:104C60005BB2114008180137002BF6DB8300E41A11
:104C70000434210000F076FC206059E200207F22FD
:104C80003B78C00119005BB2114008180137002BB6
:104C9000F6DB8300E41A0434210024F0F7F8EBE794
:104CA00000237F213A78DB01100052B20840C3187C
:104CB0000137002AF6DB9B005B422168185908F097
:104CC000EFFD08E200207F223B78C00119005BB2B3
:104CD000114008180137002BF6DB251D25F03BFAA3
:104CE000DBE12500231F083D1A682168286825F0AC
:104CF0006BFA0DE200237F213A78DB01100052B2FB
:104D00000840C3180137002AF6DB01339B00221F3D
:104D10005B4212682168185925F056FA083C07E2F0
:104D200000207F223B78C00119005BB211400818B7
:104D30000137002BF6DB8300E41A04342100FCF772
:104D4000C3FC99E700237F213A78DB01100052B2BF
:104D50000840C3180137002AF6DB9B005B4221683C
:104D6000185921F062FBB6E10280FFFF0080FFFFCF
:104D70003C2A030000237F213A78DB01100052B265
:104D80000840C3180137002AF6DB251F022B05D186
:104D9000D24A216828680CF039FBB8E12600083EA9
:104DA0002268296830680CF031FB30603400BFE1C4
:104DB00000257F213B78ED011A005BB20A405519AE
:104DC0000137002BF6DB29002200206804F0B0FD3B
:104DD000C34BED1814E000257F213B78ED011A004C
:104DE0005BB20A4055190137002BF6DB220029007F
:104DF000206804F0F3FDFF232A0A1A401D405519CC
:104E0000AD00641994E10322FB1C9343002218684F
:104E100011001F1D251D23F038FD3EE10322FB1C60
:104E20009343251F2268296818681F1D23F02DFD54
:104E30006DE10322FB1C934319795F1D8A00A41ABC
:104E400004340AE00322FB1C934319795F1DCA4313
:104E50009200A4188022520011432200186823F007
:104E60002FFD09E700207F213B78C0011A005BB2CB
:104E70000A4010180137002BF6DBFF23FF22010048
:104E8000C5095B0011402B405B189B00E41A000A27
:104E90000240231D206804F0DDF8EDE600217F22AA
:104EA0003B78C90118005BB2104041180137002B54
:104EB000F6DBFF23CA095B001340CAB29B189B00B4
:104EC000E41A083C2200002031E000237F203A78D9
:104ED000DB01110052B20140CB180137002AF6DB8A
:104EE000FF211800FF22DD09084052002A40451C1E
:104EF00052199200A41A1B0A1940220023F080F8CC
:104F0000BAE600217F223B78C90118005BB210404D
:104F100041180137002BF6DBFF23CA095B00134061
:104F2000CAB29B189B00E41A0C3C2200012004F03A
:104F3000D5FBA1E60F2206ABD2181378002B07D0C1
:104F40000A9B596801230B4013700A9B0C3B0A9380
:104F500002220A9B0399994217D80A9B5B68134265
:104F60000FD003220A9B21685B6893431C005960A1
:104F70009A600A9B08341F680A9B0C3B0A93FFF750
:104F80005BFB0A9B0C3B0A93E3E711F071FA019B70
:104F90000020DC6087E16B78022B01D1043C0BE040
:104FA000002B09D10A9B039A934200D275E19868BD
:104FB000002802D10C3BF6E7206804F00DFE70E1FA
:104FC000079E002E1CD0079E002132000791201F53
:104FD0000BAB006804F094FD012816D12F000B9B49
:104FE000236011F045FA019B06AA5F60DC600F2385
:104FF0009B181B780A9A01201343019A136152E10E
:10500000201F0BAB32002168E3E7002806D10B9B81
:10501000043C002B00D1314B23600CE002281BD153
:1050200030490B9825F0ABFA002810D00B980CF003
:1050300095FF043C2060002E7AD02B49300025F0EB
:105040009EFA002874D011F013FA0D967CE011F04E
:105050000FFA0B9B0D9377E0043C00207F223B78F6
:10506000C00119005BB2114008180137002BF6DBB4
:10507000251F2A68216804F0CDFD48E000217F2229
:105080003B78C90118005BB2104041180137002B72
:10509000F6DB250001CD04F0CFFD606038E020682C
:1050A000251F22F0C7FF33E0AF2B05D80120803B3E
:1050B0005B000343FFF72BFBBF2B04D8B022D31AAE
:1050C0009B00FFF75EFBCF2B10D8C022D31A9B00AA
:1050D000029A21689950043C2AE0C0463C2A030009
:1050E000FFFFFF3FEC360300E4390300D62B05D861
:1050F000D03B1800216803F043FFBDE5FA2B09D827
:10510000251FD73B18002268296804F02FF9286072
:105110002C000DE06549664825F027FA040011F0DF
:10512000A7F9049B019A06339B00D3185C60B2E098
:10513000604B1A6B002A01D1FFF77EFA00221C6B2C
:105140001A6311F095F90D940D9B5B49186803F0F3
:10515000E1F9002825D0019B5B68002B21D01A784B
:10516000432A0BD19A78597812020A4303339B18C9
:10517000019A5360D3680593043B82E05E2A10D104
:10518000019B019ADC680D98231DD3600CF0E6FEAC
:10519000019B60605B68019A059301335360FFF7E0
:1051A00012FA0D9B454A934240D0454A93423DD066
:1051B000019B0BA81B6805930B9325F01DFA0400B7
:1051C0000BA825F019FA05000BA825F015FA019B8C
:1051D00001005B680593019B1B680693069A059B7B
:1051E0009E1A1F2301229C46361B0B9C2378002B02
:1051F00014D018007F27B84304D16046013418400A
:105200005B0908E00F20E0271840FF001B011F404A
:10521000637802343B430B94864204D22B000D98F2
:105220000CF02AFF02E0361AD218DEE70F23012124
:1052300006AA9B181A78002A07D00A9A52680A40D0
:105240001A700A9A0C3A0A92F4E70A9A0399914260
:105250001AD801221A700A9B0D991B680593059AAA
:10526000019B05915A6003220A9B5B6893430A9A4B
:105270009160144A5A600D9A9A6012680C331A6051
:10528000019AD360FFF79FF9049B019A06339B00B4
:10529000D3180D9A5A60022005E00B490B4825F0FF
:1052A00064F904004DE719B0F0BDC046E96603009B
:1052B000D8380300AC080020EC360300FC340300AF
:1052C0005C3A03003C2A0300036703007C340300BC
:1052D000F0B5050000248BB01A4B1B48E158FBF7D2
:1052E00027FA03AB185104341C2CF5D114230026E3
:1052F0006B4300930024154F03AB1959380021F07C
:105300009CFD0434280001F009FA01971C2CF2D10D
:1053100009AC02AF2168019821F08FFD043C280000
:1053200001F0FCF9A742F5D10136082E06D0012381
:105330001E42DFD1009801F0F1F9DBE701F084FCB7
:105340000BB0F0BD9000030084F4020018000020B0
:1053500010B51920FFF7BCFF004810BD3C2A030020
:1053600010B51C0002AB1B78002906D0002B04D11D
:105370000F49104825F0F9F808E0A24208D182420E
:1053800014D003000C490B480CF008FE11F075F81E
:10539000824205D9121A094906480CF0FFFDF5E7CB
:1053A000844203D2030022000549ECE710BDC04649
:1053B00022670300303903004B6703008467030052
:1053C000B6670300F0B50025170087B00C9C0D9E52
:1053D00003900491059302950195059B9D423BD056
:1053E000039B9D4209D263689B0539D4019B049AB3
:1053F00001330193AB00D05819E023680022D90093
:1054000006233800194305F08BFF00280BD1636891
:10541000DB0505D52268194919480CF0BFFD23E0CA
:10542000A368336014E0029B406801330293FF22BB
:1054300063681340012B03D100F0D4FB307007E008
:10544000022B02D100F08EFA01E0032B00D1306074
:1054500001350C340436C0E7019B039A934205D210
:105460000849074825F081F811F007F83B68029ACF
:10547000DB0805499A42F4D307B0F0BDE5670300A5
:1054800030390300FC6703001D68030070B50E008F
:1054900010490400002521F0E0FB73689D420ED204
:1054A000002D03D00C49200021F0D7FBAB00F318EE
:1054B00001229968200000F085F90135EDE7012B04
:1054C00003D10649200021F0C8FB0549200021F046
:1054D000C4FB70BDE7D203008E5F03003B6803008E
:1054E0005F69030070B50D0001281DD0002804D0AD
:1054F00002281DD10F4C002605E04B680E48002BFA
:1055000017D10E4815E06B689E4209D2B300EB1824
:105510009968022003F034FD401024180136F2E7A8
:1055200001206400204304E04B685B00184300E066
:10553000002070BD44010300F0EC020034ED0200D5
:1055400010B50400102024F07EFF044B846003603B
:10555000034B43600023C36010BDC0462815030001
:105560009B6B020070B506000D000C48002E14D095
:10557000B41CA400200024F066FF094A0300026066
:105580004660002D09D00022083CA24204D0A85851
:10559000991888600432F8E7180070BD44010300D0
:1055A00008010300F0B5040085B00D0016000728BF
:1055B0002AD002D8052805D062E00300193B042B4D
:1055C0003FD95DE0100000F0E3F82F4902F0A2FFA0
:1055D000011E56D06B68726800219818FFF7C2FF51
:1055E000070029006B6808379A000400083138006A
:1055F0001DF0C2FC310068687368800038189A009A
:1056000008311DF0B9FC18E003A9100000F0E8F91A
:105610000021884235D00398884210DD6B685843DA
:10562000FFF7A0FF04002300280008330093083090
:10563000039B6A68042123F09BF8210021E01349B1
:105640001FE0080000F0A4F8300000F0A1F8104BB3
:10565000426A9A4205D030000B4922F00CF8061E2F
:105660000CD03300290072680831009208336A6850
:10567000200007F029F80749002802D1064900E078
:105680000021080005B0F0BD08010300440103003B
:1056900041550000F0EC020034ED020030B5050089
:1056A00085B0042A2CD103240C401FD1164B0A6864
:1056B0009A421BD101AA406806F0CCFF002802D113
:1056C000124804F071FB019B02982100C01AFFF7F9
:1056D00049FF04002900636808319A00019B0830E3
:1056E0009B00C9181DF048FC20000AE00A000023B6
:1056F0006968286800F00EFA02308000405900E026
:10570000002005B030BDC04680330300FB600300BD
:10571000F0B50C001100002285B020001D000092A1
:105720000123FFF71DFE1848002C2AD028688307A4
:1057300003D1164B02689A4223D0102024F083FE36
:105740000400286803F080FD0025042603900398D8
:1057500003F0CAFD071E0BD0AE4205D8F1002000B1
:1057600024F087FE04007600AB001F510135EEE700
:1057700021002800FFF7F6FE0500200024F08AFE35
:10578000280005B0F0BDC046440103000801030035
:10579000084BC2070BD4084A084B0240062A06D021
:1057A00003230340022B01D1054B00E003681800DE
:1057B0007047C0469C270300070080FF6C3B030036
:1057C0007011030070B50D00040016000CF0C8FC49
:1057D0002800FFF7DDFF8368002B04D0320029008A
:1057E0002000984704E042680249200021F006FBAF
:1057F00070BDC0463D68030010B50A0001000248B4
:10580000FFF7E0FF10BDC04658020300F7B50500E2
:1058100008000E0024F0ADFE00282BD001AA694636
:1058200030000CF061FC009B002B23D016492800AF
:1058300021F013FA009C154BE71EE418A400002F7A
:1058400018DB019A124913195B681259280021F0DC
:10585000D5FA019B1B199A68002A04D10D4928002A
:1058600021F0FBF903E00C49280021F0C7FA033FBF
:105870000C3CE4E7310028000222FFF7A3FF2800D8
:10588000044921F0EAF9F7BD42680300FDFFFF3F3C
:1058900066680300C8D103007B68030010B50400EC
:1058A000FFF776FF054B0069984203D0431E9841ED
:1058B000C0B202E0200021F0C1FE10BD1183000043
:1058C00070B505000C0001208D4241D0214B9D4256
:1058D00001D100203CE09942FBD001231D4204D0BD
:1058E0001942F6D12B000D001C002A001A4B1A4059
:1058F000062A05D0AA0711D1184A296891420DD16C
:105900002340062B05D0A307E3D1144B22689A420B
:10591000DFD121002800FDF759F919E02340062BBB
:10592000D7D0A30703D10D4B22689A42D1D02800CB
:10593000FFF72EFF8369002BCBD0220029001B200C
:1059400098470028C5D0064BC01A42424241D0B207
:1059500070BDC0463C2A0300070080FF6C3B03007B
:10596000F0EC0200104B10B5984219D00F4A0123F9
:10597000904217D0184201D0184114E0830706D195
:105980000B4B02689A4202D10AF0A0FE0BE021F014
:105990002FF90849020008480CF000FB10F06DFDDB
:1059A000002000E0180010BD34ED0200F0EC020011
:1059B0009C270300846803003039030010B5C30737
:1059C00005D4830706D1054B02689A4202D124F020
:1059D0001EFD01E0FFF7C6FF10BDC0469C27030077
:1059E0000F4B70B50D000124984202D100230B60CB
:1059F00012E00C4B984201D10C600DE003002340F3
:105A000001D0401007E0820707D1074A01689142A0
:105A100003D10AF05BFE28602300180070BDC04669
:105A200034ED0200F0EC02009C270300184B10B587
:105A3000984228D0174B984227D0C30703D540106F
:105A400015F048FE23E00323184206D1124A0168EC
:105A5000914202D124F0E4FC19E00340022B09D169
:105A60000E4B0340062B05D0FF23DB05C018032394
:105A700098430CE021F0BCF80949020009480CF0F9
:105A80008DFA10F0FAFC002001E0FE20800510BD28
:105A900034ED0200F0EC02009C270300070080FFB9
:105AA0009C6803003039030010B583070CD10368EC
:105AB0000A4CA34202D121F091F80EE0084CA34217
:105AC00002D123F0FAF908E021F092F8054902002A
:105AD00005480CF063FA10F0D0FC10BD080103007B
:105AE000C0280300B66803003039030013B50C006A
:105AF00001A9FFF7D9FF019BA34206D02200034969
:105B000003480CF04BFA10F0B8FC13BDD968030041
:105B100040340300F7B505000C0017001E00D30742
:105B200002D55710019710E001A91000FFF758FFA8
:105B300000280AD138006C6821F05AF822000300CE
:105B4000124913480CF02AFA1BE0019B002B08DADB
:105B50001B190193002E0AD0002B04DA00230193B5
:105B600011E0002E03D09C420DD201940BE0019B6A
:105B7000002B01DB9C4206D86A68064906480CF0F7
:105B80000DFA10F07AFC0198FEBDC04606690300CC
:105B9000303903002A6903009C35030010B5040066
:105BA000830710D10D4B02689A420CD10C4B034075
:105BB000062B03D1C00821F090FB00E08068012390
:105BC0004000184308E02000FFF7E2FD4369181E7B
:105BD00002D021000120984710BDC04614F40200F5
:105BE000070080FF164B70B5040000209C4226D0B1
:105BF000144DAC4201D1012021E0134B00209C4206
:105C00001DD001262640864201D0601014E02000FD
:105C1000FFF7BEFD4369002B08D0210030009847F4
:105C2000002803D0401B4342584107E02000FFF703
:105C3000B5FF0028DFD00138431E9841C0B270BDC7
:105C400034ED0200F0EC02003C2A030010B5040021
:105C5000FFF7A4FF002809D1200020F0C9FF044964
:105C6000020004480CF09AF910F007FC10BDC04681
:105C7000406903003039030070B504000D001600C0
:105C8000FFF786FD036A002B05D0320029002000B3
:105C90009847002818D10D4D2000002E04D120F087
:105CA000A7FF0B49020005E0042E08D120F0A0FF59
:105CB0000200084928000CF071F910F0DEFB20F01A
:105CC00097FF05490200F5E770BDC0463039030073
:105CD000616903008C690300AD69030010B520F011
:105CE0009DFF002805D10349034824F03EFC10F035
:105CF000C4FB10BDDA69030030390300F0B5204B56
:105D00008BB004AC20C90138009301940623FFF73F
:105D100059FBE0681B4EB04203D105271A4BDF57F1
:105D200002E022F002FC07002069B04204D1174BC8
:105D30005B795BB2039302E022F0F7FB03906069AA
:105D4000B04203D10522124B9A5602E022F0EDFB3D
:105D50000200012304355B42009303993B002800B5
:105D600011F0CCF80023A2686168280011F04CF80B
:105D70002800049911F080F830000BB0F0BDC04647
:105D8000740103003C2A0300702303007C260300F7
:105D9000A024030070B586B006000122080003A904
:105DA000FFF79CFF039D2C00049A631B01929A420B
:105DB00005D92178301D11F08BF90134F4E7014841
:105DC00006B070BD3C2A0300F0B5140089B0012272
:105DD0000600080002A9FFF781FF2000002402222C
:105DE00005A9029FFFF77AFF059D039B01939C4243
:105DF00006D2395D301D11F06BF928550134F4E7F6
:105E0000014809B0F0BDC0463C2A0300F0B50500CA
:105E100087B048680C000F68FFF7A4FD010002A8D6
:105E200022F0BDFD0026032D03D1A068FFF79AFDE7
:105E300006000024039B01939C4209D2049B381D59
:105E400031001D19019311F043F901342870F1E775
:105E500002A90248FCF724FA07B0F0BD14F40200CE
:105E6000F0B587B0039205910D9A03990500541A75
:105E70000CAA127820211000884305D0302A05D0C2
:105E80000CAA0292012204E0224A00E0224A029275
:105E90001022019280221A4005D0E30F1B195B10DB
:105EA000E71A1C0003E001210B4012D11F00002C57
:105EB00012DD2600019B0493B34200DD04966B685B
:105EC000049A029928689847049BF61A002EF1DC80
:105ED00003E02700140000E00024039B002B06D001
:105EE0001A0005996B6828689847039BE418002FEF
:105EF0000CDDE419019EBE4200DD3E003200029935
:105F000028686B689847BF1B002FF3DC200007B0A0
:105F1000F0BDC046226A0300116A0300F0B593B0D9
:105F2000069318AB40CB04901B780F001400079326
:105F3000CB070BD48B0703D1814B0A689A4205D05B
:105F40003800FFF70FFD01274000074381231E4261
:105F500009D1079B302B06D11A9B1B9A934200DA7A
:105F60001A9200231B93380024F0F1F90AAA1300B7
:105F700000280DDDB30703D52B231370123B05E07A
:105F80001300720704D520221A70192304AA9B1843
:105F9000F20619D5022C04D130221A70069A013269
:105FA00010E0082C08D130221A70B20501D4013358
:105FB0000AE0069A0E3205E0102C05D130221A7044
:105FC000069A17325A70023300220AA91A705B1A15
:105FD0000593B30600D52C320EAB0B9310230C9314
:105FE00000231B990D93012901DD40210E4304A9D3
:105FF000CB756B4640251B7E35400392029313D030
:106000000023009401930DAA3B000CA90BA806F0F5
:106010001FFA037807002D2B79D104AAD3750D9BA5
:106020000137013B0D9372E00AAB019300943B00F2
:106030000DAA0CA90BA806F00BFA1B9B0700012B5D
:1060400078DD0D9A934200DA13001A9A9A4206DD1F
:106050000125D41A354004D02500002401E0002594
:106060002C0001239E43002C09D01F3300930023F2
:1060700001941A0033490498FFF7F2FE040030231C
:106080000793730621D5172104ABC9180B78002B91
:106090000AD000230122009301920498FFF7E0FE4A
:1060A0001A9B2418013B1A93059B002B0DD001234A
:1060B00001930023059A00930AA90498FFF7D0FEE4
:1060C0001A9B059A24189B1A1A931B9B012B00DD1F
:1060D0001A931A9B0D9A0193079B39000093049819
:1060E0003300FFF7BDFE2418002D09D020230093B4
:1060F000002301951A0013490498FFF7B1FE2418F4
:106100000B980EAB984217D024F0C4F914E01B9BF7
:10611000012B0EDD0D9A1B9B934200DA1300172210
:1061200004A952181278511E8A419B18059A9B188F
:106130008BE700252C00A4E7200013B0F0BDC0467B
:106140009C27030009650300F0B506001400002732
:106150008DB00D002B78002B0BD1A9420DD26B1AFC
:1061600004931A00306873689847049B2900FF184D
:1061700003E0252BF1D00135ECE70B78002B00D1A3
:1061800044E14B1C0493202300250822042108939A
:10619000049B1B78002B1DD02D2B01D12C3B02E042
:1061A0002B2B02D1293B1D4310E0202B01D10D43A5
:1061B0000CE0212B01D1154308E0302B03D0002344
:1061C0000A21069309E0402008930543049B01330C
:1061D0000493DDE70693013B3BE0049B1B781A0028
:1061E000303A092A08D8069A4A43D318303B069316
:1061F000049B01330493F0E72E2B25D1049B5B789D
:106200002A2B06D0049B0A21013304930023079311
:1062100008E0049B2268023304930792231D002A9E
:1062200015DB0FE0049B1B781A00303A092A08D8C6
:10623000079A4A43D318303B0793049B01330493D6
:10624000F0E723001C0005E001235B4201E01C0095
:1062500000230793049B1B786C3B59425941049BD4
:106260005B1804931B780593002B00D1CEE0642BC0
:1062700000D18DE01AD8502B00D195E004D8453BD1
:10628000022B00D8A0E0B6E0059B622B21D039D8C4
:10629000582B00D0AFE0231D0993069B0195039373
:1062A000089B029341230093313B87E0059B712BB0
:1062B00034D005D8672B00D886E0702B74D09AE0D4
:1062C000059B752B59D0782B6ED0732B00D092E0A4
:1062D00037E0231D09932368002B07D0069B042277
:1062E0000193089B4B4900932B0006E0069B052277
:1062F0000193089B484900932B003000FFF7B0FD45
:106300003F187FE0231D099323680BA90B70069BA0
:1063100001220193089B00932B00EEE7231D0BA99C
:106320002068099320F0E3FF079B0100013301D1AE
:106330000B9B0793069B079A0193089B00932B00E6
:10634000DBE7231D24680993002C0ED0079B013343
:1063500003D120001EF076F90790069B079A01935F
:10636000089B210000932B00C7E7069B06220193A0
:10637000089B2A4900932B00BFE7231D0993069B26
:1063800001950393089B029361230093573B15E00B
:10639000231D0993069B01950393089B01220293F9
:1063A00061230093573B0AE0231D0993069B019547
:1063B0000393089B029361230093513B00222168C1
:1063C000300020F059FC9BE7072307349C4323004F
:1063D000206861680833099316F0ECFF079B011CE5
:1063E0000293069B059A0193089B300000932B00B3
:1063F00020F0B7FC84E7012204993068736898475D
:10640000013709940499099C0131A2E638000DB0C6
:10641000F0BDC046FF690300046A03000A6A030076
:1064200010B50400082024F00EF8024B446003600D
:1064300010BDC0466002030010B50024064B1C705E
:1064400001F0E0FB00F0C0FA04F08EFC0DF09AF9C8
:10645000024B1C7010BDC046680800207508002063
:10646000064B10B51A680823D16C0B43D36420F097
:10647000F8FF00F077FDFAF73BFBFCE70807002088
:1064800010B50C4813F02CFA20F05EFD04F07EF8F5
:1064900005F0B2FEFDF710FB074825F040FD074868
:1064A0000FF08EF80FF06AF8FDF714FB06F074FA9F
:1064B00010BDC046E8030020F0020020396400004F
:1064C0000379044AD35C002B00D183790248DB00B6
:1064D000C0187047FB0700209C02030010B50400A1
:1064E000FFF7EEFF22790368024903480BF056FDDF
:1064F0000FF0C3FF336A03004034030010B50400FB
:10650000FFF7DEFF034B42689A4202D12000FFF7FB
:10651000E5FF10BDDD640000002803D001210379F0
:10652000014AD1547047C046FB07002010B5FFF761
:10653000C7FF43680248181A431E9841C0B210BDF5
:10654000DD64000070B50C000500FFF7B9FFA04244
:1065500008D0436828009847034A2B79A41A034AB5
:10656000E410D45470BDC0469C020300FB07002019
:1065700010B50F4825F058FC002817D00D4825F01D
:10658000AFFC0D4B1B68984203D10C4B9A6E1A63FB
:106590000CE03F220A490B8801331340094A128854
:1065A000934203D00A88084C0B80A05410BDC0460B
:1065B000380300207803002040010020AC080020B0
:1065C000EE070020EC0700201B0800200022094BEA
:1065D00010B51A80084B094909481A8025F029FC92
:1065E0000122084B524208481A6023F0B1FF074BC2
:1065F000986610BDEE070020EC07002071650000D2
:106600003803002040010020F8330300AC080020CC
:1066100010B50400431C03D0034B986E0BF01EFD15
:10662000024B1C6010BDC046AC0800204001002099
:10663000034B044A1B881088181A431E9841704760
:10664000EC070020EE070020084B094A1888118843
:10665000884201D130BFF9E71A880649885C3F219A
:106660001A8801320A401A807047C046EC070020A1
:10667000EE0700201B08002070B504004518AC424E
:1066800005D02178024825F020FC0134F7E770BDE1
:106690007803002070B504004518AC420DD0237873
:1066A000064E0A2B03D10D21300025F00EFC217877
:1066B000300025F00AFC0134EFE770BD78030020BC
:1066C00010B50400002C08D02100082C00D90821A6
:1066D0000248641AFFF7D0FFF4E710BD456A0300D3
:1066E00070B505000400002C08D02100082C00D94A
:1066F00008210448641AFFF7BFFFF4E72800FFF7FA
:10670000DFFF70BD4E6A030010B501000122024890
:1067100020F0F0FB10BDC0461800002070B5041E2C
:1067200013D00A4D280011F067FC24180600A0427F
:1067300005D930BF280011F05FFC8642F9D330BF85
:10674000280011F059FC8442F9D870BDE402002001
:106750000023FA21084A89001360084A1370084A86
:106760001360084A1160084A1370084AD366136719
:106770000122074B1A707047440100205B0800207B
:1067800048010020140000205D080020AC08002013
:106790005C08002010B5084B084A1978002907D179
:1067A000116B002902D0FFF7D3FF03E030BFF4E7FD
:1067B00000221A7010BDC0465C080020AC08002002
:1067C000837F0248002B00D101487047F0EC0200A3
:1067D00034ED020010B5A0241049E4054B7F0800F9
:1067E0005A1C002B05D1498C0D4B8B430D4963502E
:1067F0000EE010335B00CB185988A123DB00E15079
:10680000092A05D101200EF0B1FF0120404203E02A
:10681000054B42775200D05A10BDC04618000020E8
:10682000F01F00000C050000F05703000023E021DA
:10683000A02210B583770C4B0902D205D1500B482A
:10684000FFF76AFE0A48FFF767FE0A48FFF764FE93
:106850000948FFF761FE0948FFF75EFE0848FFF7A9
:106860005BFE084810BDC0460C05000098240300DC
:1068700008260300EC24030000260300C8250300BB
:10688000A82403003C2A030073B5041E09D1194D46
:106890002B78002B2BD01849184820F0CEFA2C70FA
:1068A00027E0174DEE6EFEF773FF164B210098425E
:1068B00014D0154B2340062B05D0A30712D1134B40
:1068C00022689A420ED101A92000FCF7CFF9019B62
:1068D000012B0CD100781FF07CFC0100300020F06F
:1068E000ACFA06E00A490B4823F03FFE2863FFF7A5
:1068F0002FFF73BD5D08002084E90200180000200E
:10690000AC08002048E90200070080FF6C3B030050
:10691000576A030030390300034B187801384342AB
:106920005841C0B27047C0465B080020F7B5A123AC
:10693000A021214AC905DB00CA500123C27F0D32C4
:1069400093401E4A8B50C37F01920133DBB2032B6D
:1069500000D10023C3770200030000212233363226
:10696000198002339A42FBD1C17F154A4B00013393
:10697000D318052204249446124F66465A1E1278F4
:106980001D787243BA1852190125A54012790134B5
:1069900052008218568C0633354355840D2CECD1A9
:1069A00001230D318B40A022A121D205C9005350F3
:1069B000838E01995350F7BDF01F00000C050000B5
:1069C0009A6A03001800002070B5304C8CB0A37F89
:1069D000002B59D02000FFF7A9FF2D4A2D4913683D
:1069E0000968063313608B4241D300252A4B15609A
:1069F0001B78012B06D0022B39D12849200020F02A
:106A00001CFA32E0264BDA6E1E00002A2DD01B6FD6
:106A1000002B2AD006F0D4F968460FF013FD0028A9
:106A200009D1204B186802F037FC05000FF020FD5B
:106A300006F0D0F915E006F0CDF9019B1A49186867
:106A400001F068FD00280CD10198FEF7A1FE174B5C
:106A5000984203D11649174820F0D0F90025019B30
:106A600033632800FFF710FF01E0FFF771FE0023FA
:106A7000228C6377FF33FF331A4205D0E1220E499F
:106A8000D20001200EF03EFE0CB070BD18000020B8
:106A900048010020140000205B08002084E9020067
:106AA000AC08002044010020EC360300C034030091
:106AB000656A030058020300D5670000F7B500249B
:106AC000009308AB124D1B780600080017000193D5
:106AD000EC662C6702F0B8FB6A460E4B1278186021
:106AE0000D4BEE661F600D4B28671A700C4B1C7027
:106AF00002F0D2FBFFF7C8FE01220A4B1C600A4BD2
:106B00001A70019BA34201D0FFF744FEF7BDC046B7
:106B1000AC08002044010020140000205D08002083
:106B20005C080020480100205B080020F0B500242C
:106B30002C4B8DB0DC661C672B4B07AC40C9013871
:106B4000009301940523FEF73DFC079863680590C8
:106B50000293237B257A0393244B277C0340062B47
:106B600005D0830718D1224B02689A4214D106A996
:106B7000FCF77CF8069B002B30D0012B08D1002DB0
:106B800006D1002F04D100781FF023FB059021E0EF
:106B90000598F9F7BFFE0AE0FEF7FAFD154B98429B
:106BA00006D1002D14D005A90120FEF7DBFC0590CD
:106BB000237C002B03D00598FDF736FA0590039B44
:106BC000029A009305992B003000FFF777FF05E04C
:106BD000002FE8D10599300020F02FF906480DB0BC
:106BE000F0BDC046AC0800207C030300070080FF16
:106BF0006C3B030048E902003C2A030030B5104B0F
:106C000089B003AC20C90138009301940523FEF735
:106C1000D9FB02A90398FCF729F8227C237B02996F
:106C20000092039AF9F760FE237A0100009328008E
:106C300000236268FFF742FF024809B030BDC0463A
:106C40004C0403003C2A03000022074B10B51A70C5
:106C5000064B02321A70064B064A1B68063B13604D
:106C6000FFF798FD10BDC0465C0800205B080020BF
:106C7000140000204801002010B5FFF7E5FF01488F
:106C800010BDC0463C2A030070B51D00042901D880
:106C9000042A01D90A4902E0092B05D909490A4801
:106CA00023F063FC0FF0E9FB0524614341188918C8
:106CB0000B710123AB40028C1343038470BDC046AB
:106CC000856A0300155D030040340300F8B5486889
:106CD0000C000D68FEF746FE0600A068FEF742FEB7
:106CE0000700E068FEF73EFE3A000300310028008E
:106CF000FFF7CAFF0048F8BD3C2A030010B504297D
:106D000001D8042A05D90649064823F02EFC0FF0C5
:106D1000B4FB0523594340188018007910BDC046C4
:106D2000856A030040340300F7B51B4F019038001B
:106D3000FFF7E4FB194E3000FFF7E0FB184D280089
:106D4000FFF7DCFB1748FFF7D9FB1748FFF7D6FB27
:106D50001648FFF7D3FB164C38002100FFF7F2FB73
:106D600030002100FFF7EEFB28002100FFF7EAFBCF
:106D700021000C48FFF7E6FB21000B48FFF7E2FB80
:106D800021000A48FFF7DEFB20F0DEF80123019A1C
:106D900008489377FEBDC0469824030008260300E8
:106DA000EC24030000260300C8250300A8240300E8
:106DB000BC0203003C2A030073B50090000C431E84
:106DC00001910A2B1AD801231C0084400C490A881F
:106DD000224392B20A800B4A11780F290ED81678F6
:106DE0001178094CD94033409B009840655C28439A
:106DF000C0B2605413780133DBB2137073BDC04668
:106E0000F00700205E0800205F080020094A70B5E6
:106E10001378002B0CD1084D2C78E4B2002C07D14C
:106E20000068013313702B7003685B6898472C70FF
:106E300070BDC046680800206708002010B5040037
:106E40000430FFF7E3FF606826F0F3FC034B80009B
:106E5000C0580623C000184310BDC0468805030073
:106E600010B5FBF775FA0023074A99008958884244
:106E700008D001330C2BF8D10449054823F075FBE9
:106E80000FF0FBFAD8B210BD88050300D06A0300EA
:106E90004034030070B504000800FFF7E1FF05006F
:106EA000201DFFF7B3FF606826F0C3FC024B85424C
:106EB00000D0024B180070BDF0EC020034ED02006F
:106EC00070B504000800FFF7CBFF0500201DFFF799
:106ED0009DFF0122AA40064B064819880A4200D1AC
:106EE00005481988914300221980044B1A7070BD1F
:106EF000F0070020F0EC020034ED02005E080020F4
:106F0000F8B50430FFF782FF124C13482378002BAA
:106F10001FD020780021C0B2FEF724FB01260022FA
:106F20000E4F2378934212D915005308FB5C35406D
:106F3000AD002B410F252B40094D9B005B590625C9
:106F40009100DB0041182B438B600132E9E70023FD
:106F50002370F8BD5E080020440103005F08002094
:106F600088050300C02307B5002200931B21024BB4
:106F7000024811F067FA07BDB96D0000D003002088
:106F800070B5050000290DDB032905D80800002491
:106F900013F056FA090906060123023999430C0039
:106FA000FE2601E00024F226B52109023143280023
:106FB00020F093F8002C04D003492800214320F04E
:106FC0008CF8EE612C6270BD80B00000074BDB686E
:106FD000002B09D05A68824204D8801A04308000FD
:106FE000C05802E01B68F3E718007047AC080020A7
:106FF00070B5114D0400EB689868DB6883420FD3CD
:107000000230C00023F01FFAEB685A68D9680360A9
:107010009B6852185B00836000234260C360E86095
:10702000E968CB6848685A1C04339B000138CA6081
:1070300080185C5070BDC046AC080020074B41185A
:10704000884205D25A01D318027801305340F7E73D
:10705000D8B2002800D101307047C04605150000A5
:10706000034B044ADA60002294331A607047C0462A
:10707000AC080020B8050300F0B585B001900E0003
:10708000FFF7DCFF144B0290DC68002C21D02700B6
:1070900010373D00E3689B00FB180393039B9D4260
:1070A00015D22868029A03789A420ED143789E42FC
:1070B0000BD10230320001991BF036FF002804D1B9
:1070C000E81B63688010C01804E00435E6E7246814
:1070D000DBE7200005B0F0BDAC080020F0B585B0BE
:1070E00002900191FFF7C8FF00285CD12F4C019B53
:1070F00027009437DD1C3B68002B1BD026002C4A50
:107100009836126831680392AA188A4212D902008E
:107110006918180023F0BAF90390002807D1244B0E
:107120003868196823F0A5F9039B3B6002E03368D7
:107130005B193360230094331B68002B17D12E009A
:107140007F2D00D880263000270023F089F994375E
:107150003860002804D1280023F075F92E0038602B
:10716000230098331E60230000229C331A60220003
:107170009C32136894342468ED1801990298E4183D
:107180001560FFF75BFF6B461B7920706370019AF7
:10719000A01C02991BF0F0FE0022019B2000E318C6
:1071A0009A70FFF725FF05B0F0BDC046AC0800207F
:1071B00048090020F7B51D001600002307000360F2
:1071C0000B6033602B60174B0091DC68002C23D0E0
:1071D000154B9C4220D03B68210001333B60E268A4
:1071E000009B94461B68009A019363441360E36814
:1071F00010319B00CB18994206D204C950783268EE
:10720000033282183260F6E7200005F0DBFF2B68BE
:10721000246818182860D9E733682A68D3182B60C7
:10722000F7BDC046AC080020B80503000C4B70B594
:10723000DC68002C12D00B4B9C420FD02600E36878
:1072400010369D007519AE4206D204CE06490232B0
:1072500006481FF0D3FDF6E72468EAE770BDC04694
:10726000AC080020B8050300E66A030058020300DA
:10727000FF2310B50324DB05CB18A3430200181C21
:10728000A24213D0042A09D00021002A0ED113F003
:10729000B5FA0749002809D0064907E080220220F4
:1072A00012069B18A3431843034BC118080010BDD6
:1072B000F0EC020034ED020000008080FF23DB05CB
:1072C00010B50400C81803239843002386B0019327
:1072D000073300931022603302A900F0BFF902A91E
:1072E00020001FF0BAFC2E2102A81DF0F9F800289A
:1072F0000FD1652102A81DF0F3F8002809D16E21F5
:1073000002A81DF0EDF8002803D1034920001FF06A
:10731000A4FC06B010BDC046C1DA030030B50C00B5
:107320001100002285B01D00009201232000FEF70D
:1073300017F8002C21D02868114B0340062B06D0EB
:10734000032318420DD10F4A0168914209D103A9C4
:10735000FBF78CFC0022039900921300F9F7DCFC88
:107360000CE00340022B09D0FEF760FB0323984397
:10737000013B1843044BC01800E0044805B030BD81
:10738000070080FF6C3B03000000808002008080CB
:10739000F0B5050087B010000191FEF747FB041C13
:1073A0000390681F182800D9B2E013F049F80D10B7
:1073B000161B2C376A6FB1B1B1B1B10D10161B2C71
:1073C000376A8B90959A9F00211C019856E0211CEA
:1073D000019813F0BFFF019091E0211C019813F078
:1073E000A5FEF8E70021201C13F008FA002805D0BC
:1073F00049494A4823F0B9F80FF03FF803A901A81A
:107400001FF07DFF7BE00021201C13F0F7F900281E
:10741000EED1211C019813F0BFFCDCE70021201CF9
:1074200013F0ECF90028E3D1211C019816F078FF45
:107430000021041C019013F0E1F9002807D0039A01
:107440000023002A01DA80231B06019357E0002164
:10745000201C039E012713F0D7F9002800D1071C38
:107460000021301C012513F0CFF9002800D1051CA4
:10747000FFB2EDB2AF4242D0311C201C13F016FB1C
:10748000A9E7211C019817F031F8A4E70021201C7E
:1074900013F0B4F90028ABD103A901A81FF02FFF06
:1074A00003220220019B1E49934303435B1804936C
:1074B000039B934303435B1804A90593FEF752F81B
:1074C000030026E00199201C13F0B2F912E00199A3
:1074D000201C13F099F90DE00199201C13F08EF98E
:1074E00008E00199201C13F0ADF903E00199201C7C
:1074F00013F094F90B4B00280BD10B4B09E003233D
:10750000019A02209A431300054A03439B1800E0A6
:107510000023180007B0F0BDD98603009C38030093
:1075200000008080F0EC020034ED020070B50D0028
:10753000FEF77CFA041C2800FEF778FA211C13F0F1
:1075400009FF051C1FF053FF011C281C13F0EEFD62
:10755000211C13F0ABFA03239843013B1843014B62
:10756000C01870BD0000808010B51FF040FF0323DD
:107570009843013B1843014BC01810BD00008080A8
:10758000F8B5070008680E00FEF7ECF90500012FBA
:1075900004D100281FDD05F0DBF925E07068FEF757
:1075A000E1F9441B022F05D1854214DA200005F0D1
:1075B000CFF918E0B068FEF7D5F9061E02DD2018F5
:1075C000013803E0002806D020180130310012F005
:1075D000DFFF002804DC064822F0BAFF0EF04DFF62
:1075E00005F0B6F97043401922F0D4FEF8BDC0464C
:1075F0004034030010B5074C002802D00868A042B0
:1076000002D105F0C9F903E0FEF7D8F905F0E8F971
:10761000200010BD3C2A030010B50400FEF716FB45
:10762000FEF7A0F9002804DC074822F091FF0EF0D5
:1076300024FF05F08DF922F0ADFE042201002000A8
:10764000FEF71AFB10BDC0469C35030010B502487A
:1076500022F07EFF0EF011FF40340300F0B58BB036
:10766000079310AB10CB009001911B78062A11D81C
:10767000012A05D93F230B700B000133019301E070
:10768000002A02D0002301990B700123934280410C
:10769000404234E2009900290BDA019B01995F1CFA
:1076A0002D230B70802109068C46009B63440093B8
:1076B00005E0019F002B02D0390001370B70019BC0
:1076C000FF210993009BC9051800084088421CD17E
:1076D0002023079A4E211A401300009AF81C5402E6
:1076E00008D149225A403A70462259405340797095
:1076F000BB7005E041221943534039707B70B9706B
:1077000000230370019BC01AF9E1002C00DA062463
:10771000501E019A0799BD1A20221143451B029160
:10772000672903D1002C12D1012410E0002B1DD1B8
:10773000029B662B0DD1631C9D4200DCAC1E6623B0
:1077400003930023651C049305931E00EEE0002BB9
:107750000CD1631D9D4200DCAC1F029B652B00D049
:10776000D1E003933A3B00250493D0E0B14A934221
:1077700071D8B149009813F065F8431E9841002371
:10778000002630300393203305900493AB4B039ACB
:107790000099D05813F04CF8002808D0049B039AA5
:1077A000F618A74B0098D15813F0C0FC0090049B2A
:1077B0005B100493039B04330393182BE6D115331A
:1077C0000493009A9B4B934214D39B49009813F067
:1077D00039F8002804D0002E09D12B23049306E0A9
:1077E0000098984913F0A2FC0136009002E0FE23B5
:1077F0009B050093029B662B03D0672B21D1042E9F
:107800001FDC6B461B7D3B70029B672B01D1731EF7
:10781000E418631C9D4200DCAC1E002C00D158E132
:107820002E23250030227B70BB1C013E1F00002E42
:1078300070D0002D03D01A70013D0133F5E7049597
:1078400069E06B1FA34200DD4BE1029A672A68D012
:10785000AC1F130067E0002300260393203304933A
:10786000774B039A0099D05812F0D8FF002808D01F
:10787000049B039AF618714B0098D15813F056FCEC
:107880000090049B5B100493039B04330393182B19
:10789000E6D16C49009812F0D5FF002805D0009879
:1078A000694913F043FC01360090029B662B0AD114
:1078B000AE420BDA331901339D421DDCAD1BAC1E09
:1078C0001AD56C1E18E0029B652B09D16B1FA342D1
:1078D00030DC2B23AC1F0025049305953A331EE0C2
:1078E000029B672B2DD1231D9D4200DC6C1FA642FD
:1078F00000DBE8E0731CE41A00233519049301351A
:10790000059666330BE00025029B049503930595CD
:107910002E000BE0049601235B420593673303932B
:1079200004E01C00029B002503930595E343DB174D
:107930001C400CE02B230493002305936533039331
:1079400008E0029B002503932B2305950493039BDA
:10795000652B01D1651C06E0039B672B03D1251E17
:1079600001D101252C0000230693069B9D4220DDBA
:10797000009813F08DFE7B1C0893030030333B709E
:10798000059A069B934205D1002C03D0BB1C08939B
:107990002E237B7013F09EFE011C009813F0DAFC7E
:1079A000284913F0C3FB069B009001330693089F00
:1079B000DBE7029B662B02D1012E61DC97E02349B5
:1079C000009812F03FFF00284DD030217B1E1A781E
:1079D0002E2A01D1013BFAE710003038092801D9DD
:1079E000013303E0392A03D001321A70019303E016
:1079F000019A19709342EDD1019B1B78302B29D14C
:107A0000019A52782E2A0BD10399662908D0019940
:107A10004B70049B0A702D2B01D1013E00E0013612
:107A200001373B00019A9A4212D25A1E11781970FE
:107A30001300F7E7FFFF7F3FF8FF7F3FA01203002F
:107A40008812030000002041CDCCCC3D0000A040B6
:107A5000312313702B4B009A9A4204D8039B663B48
:107A60005A425341E41A029B672B09D1002C07DDCF
:107A70003B00013F3A78302AFAD02E2A00D01F006E
:107A8000049B002B1AD02023079A0A211A401300C6
:107A9000452213433B706B461B7C30007B7012F019
:107AA00077FD0A2112F05AFE3031B97030000A21F8
:107AB00012F054FE3C1D3031F970270000233B705A
:107AC000099BF81A1BE0672303933C3B00250493B2
:107AD0002BE701235B42059367330137049403933B
:107AE00003E0029B03930023059300252FE706493B
:107AF000009812F0A7FE002800D066E7C0E70BB0A0
:107B0000F0BDC046FFFF7F3F0000A04010B501243C
:107B1000037A054A9B0099580448214200D1044841
:107B2000A143D15010BDC0464C010020F0EC020032
:107B300034ED020070B5037A064C05009B0018591D
:107B4000400822F027FC01222B7A9B0019590A4099
:107B50001A5170BD4C01002070B5A222A025D200A0
:107B6000ED05AA580723CA401100174C0340E05600
:107B7000421EC90700D5421C022A0ADC00218A42A3
:107B80001BDB124DEE5C30008E421BD0E95402200C
:107B900018E0072A09DD0C2A12DC0C490320CD5C11
:107BA000002D0FD10238C8540CE008490320C95CED
:107BB0004D1EA9414942084004E00A00080001E0C6
:107BC00003200C22E25470BDDD000020D50000200F
:107BD000436801201A7907231340024AD35C5840B6
:107BE0007047C046D500002010B5FFF7F1FF034BEA
:107BF000002800D1024B180010BDC046F0EC020076
:107C000034ED02001D4B70B559791879FFF7A4FFC8
:107C1000022805D101211A4A136802330B4313606D
:107C2000184B59791879FFF797FF022805D10121E0
:107C3000134A536802330B435360134C2000FEF782
:107C40003FFC124DA84203D161792079FFF784FFF0
:107C50000F4C2000FEF734FCA84203D16179207953
:107C6000FFF77AFF0B4C2000FEF72AFCA84203D155
:107C700061792079FFF770FF70BDC0464C25030085
:107C80004C0100209825030084230300DC0203003C
:107C9000DC25030068230300072302791340014A0F
:107CA000D05C7047D5000020BFF34F8F024A034BD2
:107CB000DA60BFF34F8FFEE70400FA0500ED00E045
:107CC000024B186801234000184370471807002032
:107CD00001220F4B0F4910B51A604A680C4B002A5D
:107CE000FBD000210B4A5160A122D20098580122FA
:107CF0005A6015F0C9FA084B002214F0C1FC15F0C7
:107D000059FB03239843013B1843044BC01810BD93
:107D100000C00040FCC000400000D03F0000808058
:107D200010B5C30708D4830709D10368094A9342F1
:107D300002D0094A934202D1FDF714FE03E0FDF799
:107D400075FE13F0A5FC002801DDFEF7E7FC0348F3
:107D500010BDC0469C270300F8EC02003C2A03003B
:107D6000F0B506000F0085B01C4C1D4920001FF027
:107D700064F8FA208000FEF7D1FC01940024A642AA
:107D800003D03868FDF7EEFD040020000A2112F050
:107D9000E5FC03AD3031A97020000A2112F0F8FB98
:107DA0000A2112F0DBFC303169702000642112F0EE
:107DB000EFFB0A2112F0D2FC002430312970285D3B
:107DC0001EF007FA010001981FF037F8FA2001347D
:107DD0008000FEF7A3FC032CF1D1C5E718000020BA
:107DE00004140300F8B504000D00A368002B0AD0AA
:107DF000344AE968914206D0EB58002B03D00422A4
:107E0000E3681A605DE0A86B002822D06368002256
:107E1000D90006230430194303F082FA021E18D059
:107E2000237C002B04D04268E368216800200DE029
:107E30002068002807D0234BE968994203D0224BE1
:107E40009D4200D000692900E368526801F03EF9C4
:107E500037E02368002B03D16E6B002E14D130E085
:107E6000227C002AF8D1174AE9689142F4D0164AD8
:107E70009542F1D01869E268616801F069F9E36838
:107E80001B68002BE8D01CE075680836002D18D060
:107E900000276B1E0C4A9F420DD2BB00F158914245
:107EA00001D10137F5E72000FFF79CFFE3681B686D
:107EB000002BF6D005E0054BED18AD00AD5995420D
:107EC00093D1F8BD85810000FC270300FFFFFF3F31
:107ED000F0B5146889B01700002C1ED143685E6BA2
:107EE000002E1AD0736803AD01938368083603939C
:107EF0006960AC60EA602C74019B9C4209D0A300CD
:107F0000F1582800FFF76EFF3B68002B05D10134C4
:107F1000F2E703492800FFF765FF09B0F0BDC0464E
:107F2000FC27030010B54A6801491EF067FF10BD29
:107F3000EA86030070B58AB004000E001500002127
:107F4000082268461BF0A2F81422002105A81BF0A5
:107F50009DF8202307936B46059408931C23002D5E
:107F600002D0042D07D11A23216805A80693FFF734
:107F700039FF022106E01B23216805A80693FFF7BD
:107F800031FF03210098042805D12A00310020691F
:107F9000FDF772FE0DE000280BD002AB0022029428
:107FA0000396049501F056F803000348042D00D110
:107FB00018000AB070BDC0463C2A0300F0B5204B43
:107FC00089B08200D4580D0008220021070001A8C2
:107FD0001BF05CF8142303AEB36001ABF360002325
:107FE00029683000746003953374FFF7FBFE019C31
:107FF000042C05D12969380000F0C2FF04001CE000
:10800000002C0CD0200029001FF0E9FF0400022FF3
:1080100013D1FDF7D3FC0124400004430DE0022FEF
:108020000BD12623296830007360FFF7DBFE019B2C
:10803000002B02D101246D002C43200009B0F0BDBB
:10804000E8160300F0B51600724272418BB01F3281
:108050000C00019200210822070003A81BF016F86B
:10806000019B05AD06930823079303AB08930023F8
:10807000216828002B740594FFF7B4FE039B002BA6
:1080800008D1002E06D11F33216828006B60AE6036
:10809000FFF7A8FE0398042816D12069FDF778FBA6
:1080A000144BC2689A420CD1002E07D0236858683E
:1080B0001FF018F9010038001EF0CFFD8022324376
:1080C00000E03200216906E0002808D021001FF0FE
:1080D00086FF002201003800FDF774FB08E0200055
:1080E0001EF086FD23000200034938001EF086FEC4
:1080F0000BB0F0BD851E0100F786030070B50400CB
:108100000D000B491EF0A9FD696800222000FDF753
:1081100059FB084920001EF0A0FDA968002220009C
:10812000FDF750FB044920001EF097FD70BDC046CE
:10813000098703008E5F030093D10300F7B5002584
:10814000436808300F0006002C000193019BAB42EE
:1081500012D0AB00F358094A93420BD0084AD968B1
:10816000914202D03B60013404E03900586BFFF7C4
:10817000E5FF24180135E9E72000FEBDFC270300D8
:1081800085810000F0B58FB005000F00406B05A998
:1081900001920293FFF7D2FF061DB600300022F0D5
:1081A00052F90400002120C020F052F832002000D3
:1081B000103A103000211AF069FF012F05D1029BFF
:1081C0001B680393042B00D186E007AE0822002130
:1081D00030001AF05BFF0922002309A84260290041
:1081E00003328260C66003740993FFF7FBFD0798B2
:1081F000042807D10598029BC668019A3900B04748
:10820000206123E0002821D0019A3A4306D106AB31
:108210000121069500F01EFF040017E0019B5C00A1
:10822000E4190134A400200022F00DF9221F03906C
:10823000029920C01AF0A0FE791C039B019A3068B5
:1082400000F008FF0400039822F024F92000FDF755
:108250009FFA854240D100230822290009A80893EB
:1082600007930B9309940A92FFF7BCFD079B002B21
:1082700032D00198384305D107AA01001FF0C0FE93
:1082800005001CE0019B5D00ED190235AD002800E2
:1082900022F0D9F82A000600079B083A03600393EE
:1082A000089B0299436008301AF066FE320001997B
:1082B00038001FF0A5FE0500300022F0EBF8084B57
:1082C0009D4209D028001EF093FC06490200064892
:1082D00009F064FE0EF0D1F820000FB0F0BDC046EA
:1082E0003C2A0300128703003039030010B5C4682C
:1082F000002C06D142680449044809F04FFE0EF0F4
:10830000BCF8A04710BDC0463A87030030390300CF
:10831000F8B504000D0016001F001FF0A7F8002894
:1083200009D120001EF064FC0B4902000B4809F043
:1083300035FE0EF0A2F8042804D13B0032002900DB
:10834000206905E0210005F03BFD3B0032002900DB
:1083500000F080FEF8BDC0465787030030390300A7
:10836000F0B5154B89B016008200D5580C000C22D0
:108370000021070068461AF089FE182303A845600B
:10838000836000256B462168C36005740394FFF782
:1083900029FD0098042805D132002169380000F039
:1083A000E5FF07E0002805D06A4629000120029673
:1083B0001FF026FE09B0F0BDA0150300F0B50D00BA
:1083C00085B001A907001600280002AA1EF006FCCD
:1083D0000023019902988B420CD09A008258D468ED
:1083E000002C05D152682349234809F0D7FD26E027
:1083F0000133F0E73C2022F038F8204B0400036002
:108400001F4B476083601F4B4563C3601E4B8663F1
:1084100003611E4B03A943611D4B83611D4BC36167
:108420001D4B03621D4B43621D4BC3622800FFF7C7
:1084300085FE012805D91B490F4822F096F80EF059
:108440001CF8A36B0022181D4E2102F069FF051EC7
:108450000DD0032243681A4009D11B685B68F22BD8
:1084600005D1031D012110481FF05BF86860200052
:1084700005B0F0BD738703003039030064150300B5
:10848000458000008581000011830000BD7F000051
:108490006183000097740200357F0000ED750200D3
:1084A000A37502009C870300A016030037B50D00DA
:1084B0001C00002311000093012203332800FCF765
:1084C0004FFF012D09D0032D0BD12068F9F740FF94
:1084D000A2686168FFF772FF09E02068FDF758F9AC
:1084E00005E00349034822F040F80DF0C6FF3EBD09
:1084F000CA8703003039030070B505000C200C005A
:1085000021F0A1FF024B45600360846070BDC0464E
:1085100028160300F8B50F00B8421ED00325054009
:108520001DD1134B02689A421BD1466B002E1AD004
:1085300074680836002C18D0631E9D4208D2AB0028
:108540003900F058FFF7E6FF00280FD10135F3E7B7
:10855000084BE418A400A059DEE7012006E0002043
:1085600004E0280002E0300000E02000F8BDC04632
:1085700064150300FFFFFF3FF0B585B005000191D2
:1085800008008B0713D10B68154A934204D10123CD
:10859000029301AB039306E0124A934207D103AA68
:1085A00002A91EF01BFB029E039F002410E00E494F
:1085B0000E4821F0DAFF0DF060FFA300F9580C4BD4
:1085C000994209D02800FFF7A5FF002804D1013403
:1085D000B442F2D1074800E0074805B0F0BDC046FC
:1085E0006415030008010300E68703003039030027
:1085F000FC27030034ED0200F0EC020010B5830705
:1086000003D1064B02689A4205D00549054821F07E
:10861000ACFF0DF032FFFFF7AFFF10BD6415030094
:108620001F8803003039030070B5150004001FF0E7
:108630007FF82A00024920001FF02AF870BDC046CA
:108640001377020070B543790D000024032B06D97F
:10865000836A074C9200E41AC369D358E4180321D3
:108660001FF057F8447024120570847070BDC04626
:10867000FD7F0000F7B50023040061718360837102
:10868000E260036101330F0015004361032906D83E
:108690000121836949429A00C0691AF0F7FC00235E
:1086A000A36223622A8C6B8CD3180122002B00D08A
:1086B0001A00384E200031001EF0EAFFAA8C31006B
:1086C00020001EF0E5FFE3682000197E1FF01AF875
:1086D000E3682000997E1FF015F8E3682000197FF9
:1086E0001FF010F8E3682000997F1FF00BF8042FAB
:1086F00007D1636A226A31009A1A20001EF0C8FF6F
:1087000003E0022120001EF0F1FF31002A69200061
:108710001EF0BEFF3100EA6820001EF0B9FF0026FF
:108720002B8D9E420BDAEA6AF300D3181A78032ADB
:1087300003D1997820001EF0FBFF0136F0E7FF21FE
:1087400020001EF0F5FF042F22D10022688BAB8B96
:10875000C01882421CD000212B8D0193019B9942AD
:108760000DDA0127EE6ACB00F3185E783E4204D0A2
:108770005E88B24201D15B6802E00131EEE702237C
:108780000626DB003343666B91008B510132E0E734
:10879000F7BDC046ED76020013B543790400012B06
:1087A0002ED08268002A03D0164917481EF026FBF7
:1087B000002120001EF0A6FF6379032B13D1226A4B
:1087C000D01C9843A36A20626062E362C01821F063
:1087D0004CFEE3682063588B9B8BC018800021F00F
:1087E00044FE60630CE0042B0AD1E068636AE26A2D
:1087F000216B9A18037E00934069636B03F0EEFFD0
:1088000013BDC0464288030058020300F7B5224B4F
:108810000600A8331B680191022B3BD844698C42A7
:1088200038D2836A02690C1B9D1A23002B432DD07A
:108830000095062C10D81F2D01D91F230093270067
:10884000032C00D90327012130001EF04FFF009AAE
:108850007B011343037015E00F2D01D90F23009303
:108860000E4B27009C4200D91F00022130001EF051
:108870003DFF70223B0900991340F03A0A4313432D
:1088800003704770009BE41BED1ACEE7B36A3361B7
:10889000019B7361F7BDC046AC080020FF070000D4
:1088A00070B50D00012104001EF012FF0F2D05D040
:1088B000102D05D010210E2D07D102E0112100E06E
:1088C000122120001EF034FF04E0034A172120008B
:1088D0001EF0CDFF70BDC0469C300300F8B5060009
:1088E0000D00141E124F11D111001EF0F1FE802355
:1088F0001B021D4203D0322130001EF019FF2A0056
:1089000035213A403000FFF79DFE0FE03A000A4063
:108910004621FFF797FE80231B021D406A1E9541EA
:10892000ED012C43E1B230001EF002FFF8BDC0465D
:10893000FF7FFFFF002805D0012809D18B685B006D
:10894000184306E08B680348002B02D1024800E080
:1089500000207047F0EC020034ED02007FB5040007
:108960000122080001A9FDF7B9F900222179402070
:1089700004F0D8FD01000600029811F07FFD626846
:108980000500130A984208D9A368C1187143E0682A
:1089900021F06FFD2379E06003E01B1A1B02D2B2C5
:1089A00013433200A06863607043E3686A43181899
:1089B00001991AF0E1FAA36802485D19A56004B0B4
:1089C00070BDC0463C2A0300F7B5FF264768040087
:1089D0000191B7431DD101793A00402004F0A2FD76
:1089E000636805001E408023A1681B011E430831F7
:1089F00041436660E06821F03CFD6368E0601A0A6C
:108A0000A368013A01336A435D43390040191AF003
:108A10003DFB2079019BA268E16804F0D7FEA368C2
:108A200003480133A3606368013BFF3B6360FEBD05
:108A30003C2A030010B50400102021F016FD024B63
:108A40004460036010BDC0466817030070B50A7922
:108A500004000D00002A09D119491EF0FEF8012377
:108A6000AA68E9682000F9F7B7FB23E015491EF072
:108A7000C5F9AB68002B1DD0134920001EF0EDF89E
:108A80000026AB689E4211D2002E03D00F49200071
:108A90001EF0E3F83200E968287904F065FD012250
:108AA00001002000FCF78EFE0136EAE708492000AD
:108AB0001EF0D3F8074920001EF0CFF870BDC04665
:108AC0006E8803007A880300858803008E5F0300A8
:108AD00091CF03005F690300F8B5002207000D0085
:108AE0000100402004F01EFD061E05D10C490D4872
:108AF00021F03BFD0DF0C1FC102021F0A4FC0A4B3D
:108B00000400002F00D0094B28002360FBB2A560B1
:108B10007043636021F097FCE0602000F8BDC04620
:108B20008988030040340300E0170300A417030002
:108B300070B506008AB00C001500122839D033D861
:108B4000052800D082E004A9012220001FF0FFF9CF
:108B500007A928000122FDF7C1F8069B0022039314
:108B60006B464020197B04F0DDFC060001000898EC
:108B700011F084FC069BA16803936B460500411825
:108B8000187BFFF7A9FF059B04001A000499C06831
:108B900003931AF0F1F92A000598E3687243181854
:108BA00007991AF0E9F952E01B2836D01F2805D0A2
:108BB0004CE011002000FFF7D1FE48E0012207A998
:108BC00028001EF02BF80323002813D01C423BD1B1
:108BD000204B22689A4237D104A9012220001FF0BD
:108BE000B6F90123079A00930599089B04981DF094
:108BF0008BFD26E0EA070DD41D4203D1164B2A68EF
:108C00009A4207D003232B40022B1DD1134B1D404A
:108C1000062D19D0124801F0C7F8012204A920003E
:108C20001FF095F9012207A928001DF0F7FF002881
:108C30000AD0089B059A00930499079B30001FF007
:108C4000CBFD084C002802D1074C00E00024200096
:108C50000AB070BDE01703009C270300070080FFE7
:108C600009650300F0EC020034ED0200F0B50500E8
:108C700087B00E00002808D08B0724D10B68264A45
:108C8000934202D0254A93421DD1012203A930000C
:108C90001DF0C4FF002816D000222900402004F057
:108CA00041FC07000100049811F0E8FB06000100F8
:108CB0002800FFF711FF320004007A430399C068CF
:108CC0001AF05AF924E03000FCF768FF071E00D0C4
:108CD000471039002800FFF7FFFE0400300000F0C5
:108CE000B3FA00260090009800F0FEFA031E0FD0A1
:108CF000002F04D119002000FFF766FEF3E7721C75
:108D00000192E1683200280004F060FD019EEAE76C
:108D1000200007B0F0BDC04614F40200E0170300C5
:108D200070B5050086B0161E44D003200840041E0E
:108D30002CD1224B0A689A4228D103AAA86803F0D2
:108D400089FC002802D11E4801F02EF82000042ED4
:108D500031D122002979402004F0E4FB049B060075
:108D60000093039B28790193019A009B991AFFF7BE
:108D7000B3FE04000399049AEB68521A71437243DC
:108D80005918C0681AF0F8F8200014E00A0000230F
:108D9000A9682868FCF7BEFE02002879042E03D1DA
:108DA000E96804F0E1FB06E03300E96804F00EFD39
:108DB000044800E0100006B070BDC04680330300D8
:108DC000FB6003003C2A030037B50C0011000022B1
:108DD0001D00009201232000FCF7C2FA002C04D1F0
:108DE00021002000FFF778FE1BE02968CB0705D49F
:108DF0008B0713D10B4B0A689A420FD10800FCF77E
:108E0000B1FD010005000020FFF766FE04002A0006
:108E10000021C0681AF03AF9200002E00020FFF7B4
:108E200025FF3EBD9C27030070B5FEF719F90B4CDA
:108E300000262300A8331E60266308F0EFF9084DD2
:108E40000121280006F0EEFF28005E226E2121F0AD
:108E5000BBF965602560666470BDC046AC08002043
:108E6000E008002070B50624134EC3001C4373684D
:108E7000002205002100181D02F052FA021E18D12E
:108E8000706C002807D00430210002F049FA002855
:108E900001D040680EE000222100084802F040FAAC
:108EA000021E06D12A000649064809F077F80DF09F
:108EB000E4FA506870BDC046AC0800209445030039
:108EC000968803002C3603000A4B10B5040018687E
:108ED0005B6898420AD00621E3001943043000225F
:108EE00002F01EFA002801D0406802E02000FFF7DF
:108EF000B9FF10BDAC080020074B10B5586C002816
:108F000001D1064807E004300022262102F008FAC9
:108F10000028F6D0406810BDAC080020DC450300F6
:108F20000A00062110B5034BC0000143186821F068
:108F30004BF910BDAC080020062110B5034BC00052
:108F40000143186821F04AF910BDC046AC08002062
:108F50000A00062110B5034BC0000143586821F0F8
:108F600033F910BDAC080020062110B5034BC0003A
:108F70000143586821F032F910BDC046AC0800200A
:108F800070B505000C00062806D10800FCF72AFE83
:108F900000284CD028484DE00123194217D0481032
:108FA000042D06D0052D0FD0002D42D10028F1D080
:108FB0003DE0C0221206904204D18020C00521F07D
:108FC000E9F937E0404200E0C043400013E00228E6
:108FD00013D11A4B0B40062B08D08B070DD10A6812
:108FE000174B92699A4208D1486802E0C8081EF0FF
:108FF0006FF90123400018431CE02000FCF7C8FB78
:109000004369002B0DD10F4BAD002000ED581DF032
:10901000EFFD2A0003000C490C4808F0BFFF0DF0DB
:109020002CFA210028009847002803D1EBE70848D4
:1090300000E0080070BDC04634ED0200070080FF6C
:1090400051320000E8160300AF88030030390300F6
:10905000F0EC0200F7B50400019116001F00FCF7C8
:1090600097FB0569002D09D120001DF0C1FD0649BF
:109070000200064808F092FF0DF0FFF93B003200B5
:1090800001992000A847FEBD57870300303903002F
:10909000F8B504000D0017001E0000290BD0186859
:1090A000FCF776FB6368984205D00649064821F034
:1090B0005CFA0DF0E2F933003A002900A068FFF7EE
:1090C000C9FFF8BDCD88030030390300F8B50600AC
:1090D0000F0014001D00930714D11368174A934220
:1090E00002D163682B6028E0154A934207D100281B
:1090F00002D0FCF74DFB0700636888C51DE0114AEC
:10910000934201D12C6018E05B681A00F23A012A00
:1091100001D9F02BF6D1002E0ED12000FCF738FB40
:10912000094B984208D10C2021F08DF9074B47607C
:1091300003608460286000E050C5F8BDA0160300FD
:109140006416030064150300F8F002002C180300F5
:10915000F8B500231360536006000C001500FCF7FF
:1091600017FB0700102C05D1836A002B02D00F4B90
:1091700048C519E0FB69002B04D02A00210030000B
:10918000984711E0B86B00280ED00621E400214377
:1091900004301A0002F0C4F8002805D042682B0001
:1091A00039003000FFF792FFF8BDC046B845030014
:1091B00070B5160004000D00FFF7CAFF3368002BDE
:1091C00015D10B4EA30707D10A4B22689A4203D14F
:1091D0002B006268084905E020001DF009FD2B0006
:1091E00002000649300008F0D9FE0DF046F970BDC6
:1091F0006437030064150300E58803000C8903004D
:1092000073B504000D001600FCF7C2FAC369002B09
:1092100009D004220196009229006A46200098474E
:10922000009B002B0AD020001DF0E2FC2B00020066
:109230000349044808F0B2FE0DF01FF973BDC046A3
:109240000C8903006437030013B50400FCF7A0FA8F
:10925000436A002B0BD16A461A212000FFF778FFE2
:10926000009B002B08D0684608F00AF90EE02000A9
:10927000984700280AD1EEE720001DF0B9FC044908
:109280000200044808F08AFE0DF0F7F816BDC0464B
:109290002E8903003039030037B50400FCF778FA53
:1092A000856A002D02D02000A84717E06A461021E9
:1092B0002000FFF74DFF009B002B05D06A462900D8
:1092C00028001EF09DFE09E020001DF091FC0449DD
:1092D0000200044808F062FE0DF0CFF83EBDC04623
:1092E0004A8903003039030030B505008FB008F01B
:1092F00037FF2800FCF74CFA846A002C02D02800C3
:10930000A0472AE06A4610212800FFF721FF009BB2
:10931000002B18D002A80DF095F8002808D16A4655
:1093200001001EF06DFE04000DF0A2F8200014E014
:10933000039B0B491868FFF7EDF803002000002B92
:109340000BD1039807E028001DF052FC05490200EC
:10935000054808F023FE0DF090F80FB030BDC04670
:10936000EC3603004A89030030390300F0B585B0BC
:1093700002900E001700202803D1914212D0B54868
:109380009FE1029B1B2B01D01E2B0DD13900300019
:10939000FCF796FA029B002802D01B2BEFD101E0CC
:1093A0001B2BECD0AC488CE1029B212B28D1100068
:1093B00008F03CFE002806D03900300021F0DFF82C
:1093C0000028EFD1DBE703243C4000D057E1A34B5A
:1093D0003A689A4200D052E17B689C42CFD2A30007
:1093E000FB189D68280008F021FE002800D145E107
:1093F0002900300021F0C3F80028D3D10134EBE775
:109400000123194200D1EBE04D101A4200D1DFE0F8
:10941000029B54101D2B00D931E1180011F024F8E3
:109420001E0020002300260038003F0041004300BA
:109430004E0056006B007400A4001E0020002300A4
:10944000260038003F00410043004E0056006B00EC
:109450007400BD00C1002F01C500C900254300E014
:1094600065402E00A9E02C402600A6E0002C02DA80
:109470007B497C4818E11F2C70DC7B4B23419D42CB
:109480006CDCC0231B0623419D4267DBA540E8E757
:10949000002CEDDB1F2C00DD1F242541E1E72E19F8
:1094A0008BE02E1B89E02100280002F09BF90028A8
:1094B00054D101206C436400204302E1002C00D110
:1094C000F0E0210028001EF0A7FF1BE0002C00D1D7
:1094D000E8E0280012F0FEF8051C200012F0FAF86F
:1094E000011C281C11F058FC0323022598435F4BF4
:1094F0002843C018E5E0002C00D1D3E0210028006B
:109500001EF07AFF060058E0002C02DB03950126CE
:1095100018E0280012F0DEF8032302269843534B8C
:109520000643F6188BE001231C420ED1012C44D0D7
:1095300003996410080002F055F900280ED1039B2E
:109540005B430393002CEED137E00399300002F027
:1095500049F9002802D1039B5E43E7E7E917280099
:1095600020F009FF06006AE0002C00D19AE00021FB
:109570000220FBF7F7FF2100060028001EF04CFF39
:10958000012740003843B060210028001EF034FF5E
:10959000B8403843F060300093E0A54200DBEEE6CF
:1095A00000E7A54200DCEAE6FCE6A54200DDE6E6CF
:1095B000F8E6A54200DAE2E6F4E6320073005A402B
:1095C00002D4012018437CE0300020F0E3FE78E074
:1095D00003231340022B03D1254B1340062B66D1E6
:1095E000029B1F2B2BD13800FCF7D2F883690500B2
:1095F000002B07D16B6A002B17D03800FFF724FE31
:1096000004000CE03200390002989847002858D135
:10961000F0E73100FCF754F9002800D0C2E6200042
:10962000FFF762FE0028F4D1A9E638001DF0E0FA49
:1096300010490200104808F0B1FC0CF01EFF300089
:10964000FCF7A6F88369002B19D03A003100029884
:10965000984734E034ED0200F0EC0200080103000A
:109660006989030040340300FFFFFF3F0000808052
:10967000070080FF2E890300303903002F00029B72
:1096800030009A00104BD4581DF0B2FA0500380093
:109690001DF0AEFA2B00009022000C490C4808F097
:1096A0007DFCCAE70B490C4820F05FFFC5E72800A6
:1096B00012F010F83A00011C0298FDF769FE00282C
:1096C000DDD005B0F0BDC046A01503007E890300C3
:1096D00030390300D98603009C380300F0B51368C5
:1096E0008DB00693002803D1131D0393040003E0FB
:1096F0001300546808330393FF220B00090A134038
:10970000114001934B000593059A019B04919B180E
:10971000039A9B00D558D3185F68381E09D00020E3
:10972000BB0706D17F4B3A689A4202D1380020F03D
:1097300048FD049B1E18002D16D1019B76000133B5
:10974000F3189800009320F07EFE25000600002C00
:1097500001D001250460019BA8009A0030180399EC
:1097600019F00AFC019B30E0AB0731D12B686E4A3F
:10977000934202D06D4A93422AD128000AAA09A92D
:10978000FCF792F9099B019A01339B1876009B190B
:109790009800009320F057FE25000600002C01D011
:1097A00001250460019BA8009A000399301819F064
:1097B000E3FB019B0A995819099B80009A00301815
:1097C00019F0DAFB019B099A9B185B19029338E0A8
:1097D000019B7600181D33189800009320F033FE8B
:1097E00002940600002C02D0012304600293029B25
:1097F00003999800019B30189A0019F0BDFB019A5B
:10980000029B9446280063440293FFF71DFD029BD0
:1098100007909C000798FFF767FD051E11D0009B7D
:10982000029A934207D8D900300020F022FE0600A9
:10983000009B5B000093029B35510133029304347B
:10984000E8E7029B9800049B3018DA00019B99001E
:10985000039B591819F090FB029A059B94466344A8
:109860001C00002F4FD003253D401AD12D4B3A68E4
:109870009A4216D1380020F0BAFC41688D4242D09D
:109880008368EA009F58002F09D0042F07D0A30057
:10989000F7508768F318BA18526802345A600135D5
:1098A000ECE70AAAC5213800FFF782FC00210AAACA
:1098B00008001EF0A5FBFFF7C7FCA500019001986A
:1098C000FFF712FD071E1ED0009A631C9A420BD8A8
:1098D00053000093032B01D804230093009B300016
:1098E000990020F0C6FD060009AA02213800FCF705
:1098F000FDF8099B02341B687351099B5A68731960
:109900005A600835DBE7029B0299E21A52083300DD
:109910000698FFF79FFB0400300020F0BBFD2000FD
:109920000DB0F0BDD82E030008010300C0280300CD
:1099300073B50C00150083071DD10368214A9342BB
:1099400007D0214A934216D101AA69461FF0B5FA01
:1099500003E001AA69461DF041F9009B9C4225D80D
:1099600027D3019BA4001C19043B043C9C4227D034
:10997000226804C5F9E7FFF767FC0023060000939F
:10998000009B3000A3420CD2FFF7AEFC00280DD0A4
:10999000009A0E49A31A5B189B000132585100929D
:1099A000EEE7FFF7A1FC00280AD002E0009A084980
:1099B00001E022000749084808F0F0FA0CF05DFDCC
:1099C00073BDC04608010300C0280300FFFFFF3F2E
:1099D000A3890300C6890300403403000B0AF0B5D5
:1099E00014000E00FF221D0085B0164001931540A3
:1099F00083073CD107683E4B9F4203D03D4B9F42BB
:109A000035D104E003AA02A91DF0E8F809E00B0A29
:109A10000B43134201D1206068E003AA02A91FF0A2
:109A20004CFA029B72199A4259D89A009446002027
:109A300003998200A84206D06746BF1A043FCF5957
:109A40000130A750F5E79B1BB5004919181AA41857
:109A50001FF01CFA039B20605D19002301360133BF
:109A60009E4243D09A0051426958A150F7E7FFF750
:109A7000EBFB002307000293029B9E420CD93800A7
:109A8000FFF732FC00282AD0029AB31A5B199B0018
:109A9000013218510292EFE7002108001FF0F6F999
:109AA00006003800FFF720FC011E03D0300003F051
:109AB000F7FEF6E7B1688D4211D8AB00E3181E60DF
:109AC00088009C4206D0F268C71AA218D259043BFB
:109AD0001A60F6E7491B30001FF0F4F906E0029A1D
:109AE0000549064808F05AFA0CF0C7FC05B0F0BD6D
:109AF00008010300C0280300A389030040340300C9
:109B0000F0B587B01D0006000C000192FBF740FE87
:109B10002E4B984206D12B00019A2100300002F012
:109B20008BF851E0876A2A4B002F07D09C4221D145
:109B30003000B8472860002816D145E09C4219D172
:109B400003AA10213000FFF703FB039B002B0DD16C
:109B500003AACD213000FFF72BFB059403AA0021B7
:109B600001201EF04DFA286001202DE003AA3900E3
:109B70003800F6E7002CEBD1019B2000002B23D00E
:109B80001800FBF705FE1349FEF7C4FC00280FD0B0
:109B900003AACC213000FFF7DBFA039B002B07D090
:109BA00003AA210020001EF02BFA286020000BE001
:109BB00003AACE213000FFF7CBFA039B01AA002BAA
:109BC000CDD10220019B2B6007B0F0BDD81F030050
:109BD0003C2A0300E439030010B5040008F026FA1B
:109BE000002806D0002320001A001900FFF732FADF
:109BF0000AE0200020F0BDFC03002000002B03D170
:109C00000249034820F0B1FC10BDC046EE890300B4
:109C1000303903007FB50623C0001843054B01907F
:109C20000491052001A90293039305920AF04AFBCF
:109C300007B000BD3C2A03001423F0B58DB000AF7F
:109C4000FA1805000C00FFF783FABB69002B06D059
:109C500022002C492C4808F0A1F90CF00EFC786980
:109C600000284BD1280021F03AF90028F0D0142325
:109C70002800FA180D21FFF76BFA10237869F918FC
:109C8000F8F7F4FFB86020001DF027FB6A463E6934
:109C9000B968731C7B60C318FB600E33DB08DB0004
:109CA000D31A9D463200684619F066F96D462E2398
:109CB000AB557B682000EB18BB601DF013FB060062
:109CC00020001DF00AFB31000200B86819F054F9B9
:109CD000F9686846FDF702FA0623C00018430B4BEB
:109CE00010223B627B620A4BBA18BB620123FB6203
:109CF0000B33F861D11805200AF0E4FABD460DB027
:109D0000F0BDC046188A0300E83703003C2A030070
:109D1000F0EC0200F0B5174C0F00616895B00391AC
:109D20002168060008A80491626023600CF08AFB99
:109D3000051E06D0039B09986360049B23600CF00A
:109D40009CFB33683A00310005A801930AF06EF8D5
:109D50002B002A00019905A805F03EFC1EF038F9F9
:109D600005000CF085FB2800039B6360049B2360C7
:109D700015B0F0BDAC08002010B5040003F034F8B5
:109D8000031E064803D0064920F0EFFB03E0220043
:109D9000044908F003F90CF070FBC046C03403001E
:109DA0002E8A0300578A0300010010B5024820F0F4
:109DB000DCFB0CF062FBC046D8380300064B0139CF
:109DC000C9B21970411880310B78044A1370044AE3
:109DD000D25C044B1A707047690800206A080020A2
:109DE000B38A03006B080020064B0131C9B2197019
:109DF000411880310B78044A1370044AD25C044B3A
:109E00001A707047690800206A080020B38A0300AE
:109E10006B080020074B984204D9074B18184118CB
:109E2000064B03E0064B1818064B4118C918087872
:109E30007047C046A4920000398B03005B6DFFFFA2
:109E4000F88C03000083FFFF030020228033F0B56D
:109E500007001A707F2000224F245F2589B0B95C6B
:109E6000531C0A00DBB202406F2A02D90A002A40C2
:109E700003E05F2A01D90A002240F91880310A70F4
:109E80001A007F2BEBD1C84A13703B001B22FF3313
:109E90001A70E4320092531CDBB204936B46C34841
:109EA0001B7CC3490370049B0C00FB1880331B7898
:109EB0000B705B2B07D19B22009B0A700133DBB236
:109EC0000370FA5438E02E2B14D10232D2B2027051
:109ED000BA1880321278B4480270B648825C012009
:109EE000024207D1009A0B701218D2B20092BB54F2
:109EF000049AD0E7AC4A1370AE4AD05C02221042FA
:109F00002DD100281AD11E320A70A8490B78FB18EF
:109F100080331A70009B0133DBB200936B461B78D1
:109F20000B70009B782B01D8FA54E1E79B23009A31
:109F3000BB546B461B7C2370012051E27F2290436F
:109F4000087003D19C4A9D4B1A6049E2413B9C4AF0
:109F5000DBB29C49D25CCB5C1202134300E09A4B0B
:109F60000193019B002101339BB218000193FFF77D
:109F700051FF0306F5D501238B4C002523700123E7
:109F8000039303990198FFF745FF039B0133DBB26D
:109F9000282802D003930125F3E7002D02D06B4659
:109FA0001B7B237023780133DBB202930299019863
:109FB000FFF730FF029B0133DBB22928F5D17F2464
:109FC000059305990198FFF725FF059B2040013374
:109FD000DBB23D2801D00593F3E76A460026744BB7
:109FE000127C1870714B049D1A70039B06955C1CC3
:109FF0006D4BE4B21C707B1980331B7821000198F3
:10A000000793FFF707FF079B8342AAD10134029A07
:10A010006B1CE4B2DBB2944203D01D000126069310
:10A02000E9E7002E01D0614B1D70049C6A46039B3A
:10A030000198013BDBB20393127B5B4B03991A70CF
:10A04000FFF7E8FE5A4D030600D5CEE07F22594BBC
:10A05000564E1B5C307093432B7008D0013CE4B229
:10A060003B1980331B7834709842DFD079E7287031
:10A07000202840D0232847D02E284ED0262854D040
:10A0800040286ED05E2876D02B2800D17EE03A287A
:10A090002CD120259CE002990198FFF7BBFE7F227E
:10A0A000444B424E1B5C424D934330702B7000D0AA
:10A0B000ADE02870202800D10CE1232800D112E166
:10A0C0002E2800D118E1262800D11DE1402800D11A
:10A0D00036E15E2800D13DE12B2800D145E1202565
:10A0E0003A2800D14FE1252800D199E0374A334B77
:10A0F00000201A6074E121003800FFF75FFE7F2224
:10A100002B7893433FD02CE721003800FFF756FE11
:10A1100040222B78134236D123E721003800FFF785
:10A120004DFE2B781B072ED41BE721003800FFF7CC
:10A1300045FE10222B7813402B7024D13378F91868
:10A14000803109782970482900D00AE7013BDBB249
:10A150003370FB1880331B789343432B00D000E708
:10A1600011E021003800FFF729FE04232A7813406C
:10A170002B7008D1F5E621003800FFF71FFE2B7881
:10A180009B0600D4EDE6094B1C784FE7013CE4B296
:10A1900034703C1980342378452BF4D0102293433B
:10A1A000492B00D0DDE6EEE76A08002069080020B0
:10A1B0006B080020B38A03009F8A0300540000202C
:10A1C000858A03001F8B0300A5920000A98A030063
:10A1D00021003800FFF7F2FD824A13782B401370FC
:10A1E00000D123E7804B1C78F2E7069C6A46029B6D
:10A1F0000133DBB20293127A7C4B1A70059B029AF0
:10A20000934200D047E700247F262500CFE00134A9
:10A21000E4B23B1980331B7834709842E6D0A0E654
:10A22000631C714ADBB21370FB1880331B786D49D5
:10A230000B70452B38D17F26A01CC0B23B18803351
:10A240001B786A4D2B706A4DED5CB54300D189E0F7
:10A2500010700B70522B00D184E0532B00D181E0A1
:10A26000442B00D17EE04C2B08D10334E4B21470AF
:10A270003C1980342378592B74D072E6462B00D0D9
:10A280006FE6E31CDBB21370FB1880331B780B7096
:10A29000552B00D065E60434E4B214703C198034C8
:10A2A00023784C2B5ED05CE6492B00D059E6A31CEA
:10A2B000DBB21370FB1880331B780B704E2B00D071
:10A2C0004FE60334E4B214703C1980342378472BF2
:10A2D00048D046E621003800FFF786FD7F222B7824
:10A2E00093433FD03DE621003800FFF77DFD40223B
:10A2F0002B78134236D134E621003800FFF774FD85
:10A300002B781B072ED42CE621003800FFF76CFDBC
:10A3100010222B7813402B7024D13378F918803118
:10A3200009782970482900D01BE60133DBB233706D
:10A33000FB1880331B789343432B00D011E611E0C8
:10A3400021003800FFF750FD04232A7813402B70BA
:10A3500008D106E621003800FFF746FD2B789B0662
:10A3600000D4FEE5204B1C7840E70134E4B23470A1
:10A370003C1980342378452BF4D010229343492B89
:10A3800000D0EEE5EEE721003800FFF72DFD154A7D
:10A3900013782B40137000D128E7134B1C78F2E799
:10A3A000059A0132D2B201060FD401250592059912
:10A3B0000198FFF72FFD030033403D2BF0D0009AAA
:10A3C0000132D2B20092BB54EAE7002D03D06946B5
:10A3D000064A097D1170034A1370069B049387E5B2
:10A3E00009B0F0BD6B080020690800206A08002051
:10A3F000B38A0300F0B5214B8DB005AC0138009352
:10A40000043101940723FAF7DDFFA0681C4D0026F4
:10A41000A84202D0FBF7A6FAC6B260691827A84284
:10A4200002D01EF082F80700A0691922A84202D0CB
:10A430001EF07BF802002069A8420DD003AA022179
:10A44000FBF754FB039B18681EF06FF8039B070093
:10A4500058681EF06AF80200390003A80CF0DAFB15
:10A46000059903A80CF032FC03A8E3683200616888
:10A470000CF03CFC28000DB0F0BDC046E81803000D
:10A480003C2A030010B5FCF7D3F8034B002800D199
:10A49000024B180010BDC046F0EC020034ED020083
:10A4A0008023044A5B051B69107858438023DB0234
:10A4B000181A70476E0800208023044A5B051B6948
:10A4C000107858438023DB02181A70476D0800206B
:10A4D00070B5084DC4012B680021181920F09DF8B3
:10A4E0002868054B00197F3000781B788342F0D232
:10A4F00070BDC046540100206F08002010B5C3791C
:10A500000400002B08D0064B817900791B68C0013C
:10A510001818013020F081F80023237210BDC046C6
:10A520005401002010B50349034820F01EF80BF039
:10A53000A4FFC046E49C0300403403000200124B19
:10A5400010B518685379DB01C3181C007F342178DB
:10A55000FF2908D11179C90141184978FF2910D084
:10A56000907988420DD091795B1801315878CBB23F
:10A570007E2B01D0937106E00023937123785371F1
:10A5800001E00120404210BD54010020F82370B5C5
:10A590009B021A784D2A01D08023DB02802680207E
:10A5A00076053469C00264422340346931691C1B5A
:10A5B000001B0FF063FF2B4B2B4A187033692B499C
:10A5C000E518AD185B422A4A1D402A4B521AD21890
:10A5D0003300954202D219696D18FAE78023802072
:10A5E0005B05C0021969401B0FF048FF0122A12141
:10A5F000641B0025204BE4111870204BE4B21C7042
:10A600001F4B20481A60C9001E4E456073681C4AE3
:10A61000002BFBD05358DBB2A342F5D21A490133C9
:10A620000B7001235360FFF73BFF03780500174CC5
:10A63000FD2B09D180235B051869154BC009C01893
:10A64000C001281820600BE0FFF736FF0378803D3B
:10A65000FD2B04D0FFF730FFFD211FF0DEFF25604A
:10A6600070BDC0466D080020FF87FFFF000000207E
:10A6700000010020C0EA03006E0800206F080020DF
:10A6800000D00040FCD000406C08002054010020A5
:10A69000FFFFFF01F0B585B0264E274A3478274DDD
:10A6A000200013782968013302960392C201525C9C
:10A6B000FF2A3DD00130C0B2984200D10120A04213
:10A6C000F4D1802300275B051B69DB090093E301BC
:10A6D00001932B68E2019E183278300053425341B7
:10A6E000FF181FF0B0FF002300280FD0009A9342FC
:10A6F00005D0DA01B25C002A08D10133F6E72868F8
:10A70000019BC0181FF095FF200011E0039B01344E
:10A710001B78E4B201339C4200D10124029B1B78D8
:10A72000A342D4D1072F02D91DF0CDFCB4E7FF20FE
:10A7300005B0F0BD6C0800206F0800205401002017
:10A74000F7B507000D0001240E4B1B7801930E4B4B
:10A750001E68019B9C4211D8E10171180B78FE2BF9
:10A7600009D18B78AB4206D103312A00380018F0AA
:10A77000DBFB002804D00134E4B2EAE7FF2000E06C
:10A780002000FEBD6F0800205401002010B5054BCD
:10A7900000791B68C0011818817800220330F7F790
:10A7A000B5FD10BD54010020F0B585B002900D003C
:10A7B00016000393782949D8FFF7C2FF0400002E42
:10A7C00026D0FF2801D0FFF783FEFFF763FF0400C8
:10A7D000FF2805D11F4920481FF0C7FE0BF04DFE92
:10A7E0001E4FC0013B680190FE2118181FF015FF95
:10A7F0003B68019AE9B2981802301FF00EFF3868E2
:10A80000019B2A00C0180330029907F00FFE02E0F6
:10A810003300FF281BD00C201FF015FE039B002BDC
:10A8200001D00F4B00E00F4B03600C4B04711B6811
:10A830004471E4011C19A378C671023383710123AA
:10A8400003726B461B7B4372030000E00023180079
:10A8500005B0F0BD019D0300F03503005401002058
:10A86000901E0300E41E030007B501A9F8F7FEF9E6
:10A870000199FFF765FFFF2805D1054905481FF03D
:10A8800074FE0BF0FAFDFFF723FE03480EBDC04631
:10A89000179D0300F03503003C2A0300F7B5019231
:10A8A000027A05000091002A01D1FFF73BFEC4792E
:10A8B000002C06D1214A17680279D201D25D002A04
:10A8C00023D1092201201A60404236E02879C001D4
:10A8D00038184078FF2824D0C01A824200D90200DC
:10A8E0000198061B964200D91600002E24D0009A2B
:10A8F000C91810190131320018F03EFBAB799B19D1
:10A90000DBB27E2B0FD0AB71A41969797E22C9010D
:10A91000791808007F30AB790078D21AFF28DFD190
:10A92000D4E70022DCE70023AB716B79DB01FB1875
:10A930007F331B786B71E7E72000FEBD54010020D8
:10A94000F0B585B00393037A040000910292002BC6
:10A9500001D1FFF7E7FDC379002B07D0294A03791E
:10A960001268DB019B5C029F002B1BD109233EE098
:10A9700060793368C00118187F3001991FF04DFECF
:10A98000019B6179D801336818181FF046FE63797E
:10A990003268DB01D3187F331B786371009B7F1B08
:10A9A0005B190093002F27D07E22A379D51ABD42D0
:10A9B00000D93D00134E60793268C0011018C018EC
:10A9C00001302A00009907F031FDA3795B19DBB251
:10A9D0007E2B13D10023A371FFF75CFE0190FF28AB
:10A9E000C6D12079FFF774FD002323721C230120B8
:10A9F000039A4042136003E0029801E0A371CDE79F
:10AA000005B0F0BD54010020002170B508001EF013
:10AA10003DFA012405000C4B1B78A34212D30B4ACC
:10AA2000E3011068C0180378FE2B08D1817800225A
:10AA30000330F7F76BFC0100280002F031FF01340E
:10AA4000E4B2E8E7280070BD6F0800205401002040
:10AA500073B501A9F8F70AF90199FFF771FEFF280C
:10AA600005D10F490F481FF080FD0BF006FD0025B2
:10AA70007E260D4B1C68C301E31859789B7802337E
:10AA8000DBB2C201A2187F321078FF2803D0F21A7D
:10AA9000AD180023F5E7C81A40191FF07BFC76BDFE
:10AAA000179D0300F03503005401002010B5024B40
:10AAB000024A1FF018FE10BDFDA400003DA50000D5
:10AAC0007822054B054890331B681A80743A5A80E7
:10AAD0001A715A717047C046AC0800203C2A030026
:10AAE000084B10B51A00903212689179002908D0ED
:10AAF000196B0029F9D00021136991715879F9F780
:10AB000029F810BDAC08002013B5084C9034236818
:10AB100018881FF03FFC2368009058881FF03AFC0B
:10AB2000694601900220FAF71DFD16BDAC08002011
:10AB300010B50D4C002803D0086801F067FB040035
:10AB400020000A49FBF7FEFC60790021F9F702F8C2
:10AB50002000FBF7E1FC0022054B064890331B6800
:10AB60001A619A7110BDC04684230300CC02030011
:10AB7000AC0800203C2A03001FB50C4B02AC00932C
:10AB800001940223FAF71EFC029A002A03D0084B14
:10AB900090331B685A806268002A03D0044B9033BC
:10ABA0001B681A80034804B010BDC046701A030029
:10ABB000AC0800203C2A0300F0B5264B89B004AC59
:10ABC000009301940423FAF7FDFB234F04223B007A
:10ABD00090331B6804981A715A71204B0340062B5E
:10ABE00006D083072ED102681D4B92699A4229D163
:10ABF000012303940293002590373B681869FBF703
:10AC00008BFC3B6860681D6101F000FB1549060084
:10AC1000FBF798FC144A3B6812689D719A60227B8E
:10AC20000299DA719981DD81039A012900D11268B4
:10AC30005A6101221E619A71237A002B07D0FFF717
:10AC40004FFF04E003AA02A9FAF72EFFD3E7074853
:10AC500009B0F0BDBC1A0300AC080020070080FF5B
:10AC600051320000CC020300180700203C2A0300E8
:10AC7000F0B5294B89B004AD019500930423FAF790
:10AC8000A1FB6B68A8680393049E01F0BFFA234FF1
:10AC9000040090373B681869FBF73EFC00223B68D4
:10ACA0001F491A612000FBF74DFC607980212F7B42
:10ACB000F8F750FF194D002E03D16079F8F7ECFF3B
:10ACC00010E0310017480FF0D9FBF8F70DFF00280E
:10ACD00008D06079F8F7E0FF134914481FF045FCED
:10ACE0000BF0CBFB039B002B13DB002210499035AC
:10ACF0002B68096803989A710918DA719A81DA81C8
:10AD00005A61023299601C619A71002F01D0FFF7DD
:10AD1000E7FE084809B0F0BD1C1B0300AC0800208A
:10AD2000CC02030040420F00269D03004034030084
:10AD3000180700203C2A030010B518201FF083FBE1
:10AD4000074B9033186078230380743B4380037172
:10AD500043710023837103614361024810BDC04603
:10AD6000AC0800203C2A0300F0B56E4C87B02600EA
:10AD700090363368002B00D1D2E09A79002A00D1B6
:10AD8000CEE0694D9A6829688A4200D9C8E09A796C
:10AD9000022A0AD11B6900215879F8F7DBFE2B68DB
:10ADA00032680A3393600123B9E09A79012A00D00E
:10ADB000B6E09A89D98991420CD3DD79002D02D071
:10ADC0000021D98106E09D711869FBF7A5FB336866
:10ADD0001D61A5E05869012A02D0DA8992008058E5
:10ADE000524A90420ED11B69002158799034F8F7ED
:10ADF000B1FE24684E4821880FF0CAFB0123A060F1
:10AE0000A3718DE005A9F7F731FF903423680500A1
:10AE10001B69802158790293059EF8F79BFE1F233A
:10AE20002F7824681F407B1EDBB2218840480193A5
:10AE30000FF0AEFB61880FF0ABFB0390012E23D91E
:10AE40006B78232B0CD0622B13D1019B002B05D0E8
:10AE5000023FFBB20193012B04D001E006230193D2
:10AE6000002301E001235B4201210222022E0FD0C8
:10AE700002E0002101220B00AF5C3A2F09D00F2025
:10AE800038402071013204E0002101220B0000E073
:10AE9000320020798446964212D9A85C3A280FD114
:10AEA000501C86420CD92F5C0F200232074096427C
:10AEB00005D90A2677436771AE5C0640BF196771F2
:10AEC000019A092A13D86246043AD318019A5BB250
:10AED0005700184A002900D1174AD05B002B01DB2C
:10AEE000184101E05B429840F8F7FEFD04E0029B48
:10AEF00000215879F8F72EFE0A4B039990331A680F
:10AF0000537959430B000A3B092B00DC0A230649FD
:10AF10000968CB189360D3890133D38102239371DD
:10AF200007B0F0BDAC080020180700203C2A030041
:10AF300060EA0000105803000258030010B5FAF749
:10AF400075FD12F0E3F90022074B11F099FB074B56
:10AF5000074A10F071FF12F02DFA03239843013BCA
:10AF60001843044BC01810BD00806640FB21094007
:10AF7000182D44540000808010B5FAF757FD12F0E8
:10AF8000C5F9084A084B11F07BFB084B002210F072
:10AF900053FF12F00FFA03239843013B1843044B6D
:10AFA000C01810BD182D4454FB2109400080664094
:10AFB0000000808010B5FAF739FD011C10F050FB3D
:10AFC000024B002800D1024B180010BDF0EC02002B
:10AFD00034ED020010B5FAF729FD44006408084971
:10AFE000201C10F03DFB002805D10549201C0FF066
:10AFF0001FFC002801D0034800E0034810BDC046F4
:10B00000FFFF7F7F34ED0200F0EC020010B5FAF78D
:10B010000DFD034B184002231843024BC01810BD0E
:10B02000FCFFFF7F0000808010B5FAF7FFFC4400B2
:10B0300064080849201C10F013FB002807D10549BB
:10B04000201C0FF0EBFB002801D1034800E003486F
:10B0500010BDC046FFFF7F7FF0EC020034ED020020
:10B060001FB500230193FAF7E1FC01A912F0CAFE13
:10B070000322030002209343064903435B18029313
:10B08000019B934303435B1802A90393FAF76AFAFF
:10B0900005B000BD0000808070B50D00FAF7C6FC59
:10B0A000041C2800FAF7C2FC10F0F2FA0100201C80
:10B0B00012F084FE03239843013B1843014BC01850
:10B0C00070BDC046000080801FB500230193FAF7D1
:10B0D000ADFC01A912F046FE032302249843074B5E
:10B0E0002043C018029001981FF054F902A9039060
:10B0F0002000FAF737FA04B010BDC0460000808087
:10B1000070B50D00FAF792FC041C2800FAF78EFCCB
:10B11000011C201C13F004F903239843013B18433E
:10B12000014BC01870BDC0460000808070B50D0096
:10B13000FAF77CFC041C2800FAF778FCC00FC30760
:10B1400060004008184303239843013B1843014B18
:10B15000C01870BD0000808070B50D00FAF766FC65
:10B16000041C2800FAF762FC011C201C13F060F894
:10B1700003239843013B1843014BC01870BDC046E0
:10B180000000808010B5FAF751FC12F0F5FB0323A4
:10B190009843013B1843014BC01810BD000080804C
:10B1A00010B5FAF743FC12F0EFFF03239843013B7D
:10B1B0001843014BC01810BD0000808010B5FAF78D
:10B1C00035FC12F08DFF03239843013B1843014BDC
:10B1D000C01810BD0000808010B5FAF727FC12F0EF
:10B1E000F5FE03239843013B1843014BC01810BDE3
:10B1F0000000808010B5FAF719FC12F0A9FE0323B5
:10B200009843013B1843014BC01810BD00008080DB
:10B2100010B5FAF70BFC12F015FD03239843013B20
:10B220001843014BC01810BD0000808010B50349C1
:10B23000034806F0B3FE0BF020F9C046349D03002E
:10B240004034030070B5060008680D00FAF7EEFB05
:10B250000021041C0FF0E2FA002801D0FFF7E6FFFE
:10B26000201C13F0C5F8041C012E03D10323022077
:10B270009C4312E06868FAF7D9FB0021051C0FF027
:10B28000CDFA0028EAD1281C13F0B2F8011C201CCA
:10B290000FF082FD032302249843024B2043C01881
:10B2A00070BDC0460000808010B5FAF7BFFB12F0F9
:10B2B000C3FF03239843013B1843014BC01810BD43
:10B2C0000000808070B50D00FAF7B0FB041C280068
:10B2D000FAF7ACFB011C201C13F008F90323984378
:10B2E000013B1843014BC01870BDC0460000808070
:10B2F00010B5FAF79BFB0021041C0FF085FA00281B
:10B3000001D0FFF793FF201C13F086FA0323984324
:10B31000013B1843014BC01810BDC046000080809F
:10B32000F0B587B00092027805000E00930703D5B0
:10B33000009B002B00D0ECE0D307DB0FDBB20293C5
:10B34000002B0FD0744B3340062B0BD0032333401C
:10B3500003D172493068884203D0009B012B01D091
:10B36000D7E00293530716D52B68AC68DF08FF00BF
:10B37000E719BC4243D22068864203D1009B022BCE
:10B3800039D136E0029B002B37D13100FAF798FA19
:10B39000002832D0F2E76B68002B60D05E4B334060
:10B3A0000593062B62D1F0081BF092FF03906968A9
:10B3B00003980FF0E9F8002701910491019BDC004C
:10B3C000AB681C192068002857D004286DD086422D
:10B3D0006FD1009B022B0ED12B680198083B2B608C
:10B3E000013069680FF0D0F8AB68C900CB58002B6A
:10B3F00000D00423236020008CE00834B9E7009BD0
:10B40000012B00D085E02B68D9086B68994210D1D8
:10B4100004316960A868C9001FF02BF82B686A68BE
:10B42000DB08D21ADB00A860D200C018002117F098
:10B430002DFE07222868C308591C0240C9000A4390
:10B440002A60AA68DB00D318334A1E601800164031
:10B45000062E5FD001212A788A432A705AE0009B89
:10B46000012B56D1280000F05BF897E7310002204D
:10B47000FDF786FD4310039399E7009B012B48D10C
:10B480002968CB080133DA0007230B4013432B60F4
:10B49000002F00D1270000237B60059B3E60380011
:10B4A000062B37D02B78012226E0002F09D1270068
:10B4B00007E0029B002B04D13100FAF701FA0028C3
:10B4C00087D10198696801300FF05EF8049B019103
:10B4D0008B4200D072E7009B012B1AD1002F0ED0B7
:10B4E0002B68380008332B6000237B60059B3E608F
:10B4F000062B0FD02B78009A93432B700AE028007C
:10B5000000F00EF8696803980FF03EF8049101917D
:10B5100054E7002007B0F0BD070080FF6C3B03003C
:10B52000F7B5436804000193591C002317481A58C3
:10B53000914205D904335C2BF9D101250D4300E07C
:10B540001500E800A7681EF090FF072322686560D9
:10B55000134001223D000026236013432370A060A6
:10B56000019B9E420DD02968002907D0042905D0EF
:10B5700001222000FFF7D4FE6B68436001360835D6
:10B58000EEE738001EF086FFF7BDC046741D0300CD
:10B590000022F8B50768134905008668781C5358DF
:10B5A000984205D904325C2AF9D10123184300E0FE
:10B5B0001800002428606C6080001EF056FFA86010
:10B5C000BC420BD0A300F158002905D0042903D0B8
:10B5D000012228001CF07AFE0134F1E730001EF051
:10B5E00059FFF8BD741D030070B50C0005000B6811
:10B5F00005495A681BF002FC2168280040312200EE
:10B60000F8F720FD70BDC0462B8A0300136870B5A3
:10B61000002B11D10568EE6BB34213D09C002C199E
:10B62000246CA14201D00133F6E7591C0AD0023341
:10B630009B001B58136005E0034904481EF095FF6A
:10B640000AF01BFF70BDC046469D0300643703002F
:10B65000F0B585B00C000325F6F77AFE254007000B
:10B66000002D03D11E4B22689A4205D01D491E4869
:10B670001EF07BFF0AF001FF03AA02A920001DF0C3
:10B680001CFC029E039B30001030800001931EF0D2
:10B69000DAFE04003C22290017F0F8FC134B676027
:10B6A0002360134BE663A360124BE360124B6361AC
:10B6B000124BA361124BE361124B2362124B636284
:10B6C000124B6363AE4208D0019BAF00D859F6F726
:10B6D0003FFEE71938640135F4E7200005B0F0BDFE
:10B6E000C02803005A9D030030390300641503008D
:10B6F000E9B5000011B70000E5540000A5550000B1
:10B700000DB600009D56000041550000D01D0300FD
:10B71000F0B51D0085B0C36B00AFFB607A608B187D
:10B72000FA6806000C009A4204D02A492A4806F01A
:10B7300035FC34E0FB688B4244D09A001300694624
:10B740000E33DB08DB00CB1A9D4618000021BB60DE
:10B7500017F09CFC0023A2009A4204D0E858B96874
:10B76000C8500433F8E7F9687B688C4663447B6013
:10B77000AD1803E06A6802341A6008357B689C42A1
:10B780001FD22868F6F7E4FD00210200F36B3B604E
:10B790003B68994205D111490F4806F0FFFB0AF0BA
:10B7A0006CFE8B00F018006C824201D00131EFE793
:10B7B0000131F0D0B968CB1819680029DAD00849EE
:10B7C000EAE7BD682900F868F9F7CCFEBD460660D7
:10B7D00005B0F0BD4B67030030390300689D0300DE
:10B7E000899D030070B506000D00002811DD0029B9
:10B7F00006DD15480EF0CCFE0124864213DC11E074
:10B800000100C02000060EF0C3FE012485420ADBC1
:10B8100008E0002909DDC02000060EF0B9FE012471
:10B82000864200DB0024E4B20BE00024A04208D0F2
:10B83000010005480EF0ACFE0123854200DB231C0D
:10B84000DCB2200070BDC046FFFFFF3FF0B5050031
:10B850008BB008680C00F7F7F3F9049004A81CF00B
:10B86000EAFD0027049B03900693069B19780029A4
:10B8700011D00800F8F72CFC002806D006A81CF010
:10B88000ECFD069B1B78732B00D10120069B3F1813
:10B8900001330693E9E73800F9F764FE01220090CE
:10B8A00007A96068FAF71AFA079B089A05939B188C
:10B8B00001920293022D0AD9A068FAF753F80028E2
:10B8C00002DA089BC01826D4059B1818059000249E
:10B8D0000DE02900F6F732FD059B009A5D19A31CC7
:10B8E0009B00059501349850049B01330493BC429E
:10B8F00030D2049B187800282CD0F8F7E9FB0125FA
:10B90000002803D004A81CF0A8FD05000598029AA1
:10B9100043199A4205D2114911481EF026FE0AF039
:10B92000ACFD049B1B78732BD3D0009BA6009E1903
:10B930000195019B0436002B0AD0049B05AA1978B7
:10B94000039801F071FE019B7060013B0193F0E7E9
:10B950006419C9E700980BB0F0BDC046B89D03005C
:10B9600040340300F0B589B0039101921E00F7F74F
:10B9700067F9049004A81CF05EFD00250290B54212
:10B980004ED2049B187800284AD0F8F7A1FB012476
:10B99000002803D004A81CF060FD0400039B019A5A
:10B9A0001B199A4205D21F491F481EF0DEFD0AF0FE
:10B9B00064FD049B1B78732B04D02D190E9BAF00E4
:10B9C000DF191CE00E9B6F1CAD00E858012205A991
:10B9D000FAF784F9069B25009C4200D91D002A0035
:10B9E0000599039817F0C8FA039B621B58190021A8
:10B9F00017F04CFB039B3D001C1903940CE0002C3A
:10BA00000AD0049BA20052421978BA5803AB02989C
:10BA100001F06CFE013CF2E7049B01330493AEE7B6
:10BA200009B0F0BDB89D030040340300F0B50E002E
:10BA300089B0039001CE0F001CF025FD44102100B9
:10BA400004A81CF0ACFF069D22000021280017F07E
:10BA50001DFB039B0096013B2A1929003868FFF75C
:10BA600081FF04A90248F6F71BFC09B0F0BDC046EF
:10BA700014F4020030B50C0089B0050002226068A1
:10BA800005A9FAF72BF9A068F9F76CFF002809DA85
:10BA9000069B0393C01805D509490A481EF065FDA9
:10BAA0000AF0EBFC0599069AEB1E8A18091820008B
:10BAB0000C3000902068FFF755FF034809B030BDF7
:10BAC000B89D0300403403003C2A0300C3790248B8
:10BAD000002B00D101487047F0EC020034ED020069
:10BAE00010B5FEF70BFD014810BDC0463C2A03000F
:10BAF00010B50868FEF702FD004810BD3C2A03009F
:10BB000073B50D00022823D1012601A96868F7F753
:10BB1000ADF876423400019BC31883421BD00178F4
:10BB2000722901D0772905D1621C0ED172394C429D
:10BB30004C4108E0622901D0742906D1721C04D15D
:10BB400074394E424E410130E7E70E490E4813E08A
:10BB500001267642340001A92868F7F787F8734276
:10BB6000734162426241DBB2D2B20199FEF71CFE20
:10BB7000002805D1054906481EF0F7FC0AF07DFCB7
:10BB800076BDC046C99D030040340300179D0300E5
:10BB9000F0350300F0B5456887B00393AB6805A89E
:10BBA0001700029105931EF027FD060005A81EF060
:10BBB00023FD0323584333000933C01880001EF0CF
:10BBC00042FC0400094BAA6803606B6829004360CB
:10BBD000059B06629B1AC360039B08300093029A80
:10BBE0003B0006F0CDFA200007B0F0BDD81F0300DF
:10BBF00070B5050088680C001AF03EFD23000200B5
:10BC0000024928001BF0FAF870BDC046D69D03001B
:10BC100010B502481EF09CFC0AF02FFCEC36030025
:10BC200010B5040008201EF00EFC024B44600360B7
:10BC300010BDC046901F0300F8B50400C0681D0089
:10BC4000002801D118602EE0200063692030834273
:10BC500008D1154B994206D0144915481EF085FCB1
:10BC60000AF00BFC19602000124E636811000830C6
:10BC700077687360F8F78CFC7760012806D00023A2
:10BC8000E360022809D063691B680BE063691B68E5
:10BC90002B60002B07D1E36005E0236A07339B008C
:10BCA000E41863682B60F8BD3C2A0300F49D030090
:10BCB00030390300AC08002013B501AB1400FFF7C6
:10BCC000BBFF01280DD0184C02281CD0019BA342B9
:10BCD00028D0002B26D001AA012114481EF032FCE6
:10BCE0000DE0002C0DD02000F9F752FD1049FCF7B3
:10BCF00011FC002805D00F490F481EF036FC0AF051
:10BD0000BCFB01980FE00198F9F742FD0749FCF7E9
:10BD100001FC002801D10198F1E7019806F01EF915
:10BD2000A042F8D1002016BD3C2A0300EC360300E7
:10BD3000E43903002A9E03007C34030010B50C0094
:10BD4000022801D1486800E08868FDF745FF0549F1
:10BD500002002068FFF7B0FF002801D1FFF758FF6D
:10BD600010BDC0463C2A030010B500220149FFF770
:10BD7000A3FF10BD3C2A030013B5124C01AB124ABD
:10BD80002100FFF759FF012802D0022805D017E053
:10BD90000E490F481EF0E9FB10E00198F9F7F8FC96
:10BDA0000C49FCF7B7FB00280AD10198F9F7F0FC21
:10BDB0000949FCF7AFFB002802D101980AF05DFBAE
:10BDC000200016BD3C2A0300FC3403002A9E030019
:10BDD0007C340300E4390300EC360300F7B5002897
:10BDE00005D13A4A3A493B481BF008F86BE00D6828
:10BDF0002800F9F7CDFC43680600EF2B04D16D68ED
:10BE00002800F9F7C5FC060000233349DA00505832
:10BE1000A84203D18A1851682E480AE00133612BE9
:10BE2000F4D12E4B2B4C9D4201D09E4204D12000D8
:10BE30002B491AF012FF46E02A4920001AF0DEFFD3
:10BE400000212800F9F7D8FC7268274920001AF071
:10BE5000D5FF264B9E4203D128001EF036FB0CE096
:10BE6000234B9E4200D03500A86B00282BD08307BF
:10BE700029D1204B02689A4225D11EF0B8F900253D
:10BE8000061E20D073689D421DD2B268EB00D31805
:10BE90001F68002F15D05B681749200001931AF026
:10BEA000ADFF00213800F9F7A7FC144920001AF073
:10BEB000A5FF00210198F9F79FFC114920001AF015
:10BEC0009DFF0135DEE70F48FEBDC0464A9E0300D8
:10BED0006B5F03005802030054200300C8040300F2
:10BEE000C1A20300DDA20300E5A203007832030033
:10BEF00064150300D82E0300A75D0300F5A203001C
:10BF0000C8D103003C2A03000F221140030010B5E2
:10BF1000080003290ED80EF093FA0204090D180048
:10BF20000BE00648002B08D1054806E018001EF07B
:10BF300031FA02E018001EF048FA10BDF0EC0200E1
:10BF400034ED020010B50400FAF7BAFA0C49884241
:10BF50000AD02000FAF7F6FAA02204216379D2056C
:10BF6000C133FF339B009950A223A022DB00D205EE
:10BF7000D0586379D840012318401EF00BFA10BD49
:10BF8000AC02030010B50400FAF79AFA084B984285
:10BF900002D02000FAF7A2FAA0226379D205C133B9
:10BFA000FF339B0098580007800F1EF0F3F910BD77
:10BFB000AC02030013B50A490400FAF7C3FA0521DD
:10BFC000684661560AF08AFC68460AF0AFFCA02376
:10BFD0000021044ADB00D1501EF0DCF916BDC0463A
:10BFE000A40203000070004010B50400FAF768FADC
:10BFF0000C4988420DD00C4B98420AD02000FAF729
:10C00000A1FAA0220C216379D205C133FF339B0032
:10C0100099502000FBF740FE044B002800D0044B51
:10C02000180010BDDC020300C4020300F0EC0200A3
:10C0300034ED020070B505000800F9F793FC040028
:10C04000431005D0124913481EF08FFA0AF015FA72
:10C050002800FAF735FA104988420AD02800FAF782
:10C0600071FAA02203216B79D205C133FF339B0003
:10C070009950A02201236979D2058B40002C02D06F
:10C08000A121C90000E005490548535070BDC046D4
:10C090009DC4030040340300B40203000C050000FB
:10C0A0003C2A030070B505000800F9F75BFC0B2380
:10C0B00003410400DB0705D40D490E481EF055FA74
:10C0C0000AF0DBF92800FAF7FBF90B4B984202D093
:10C0D0002800FAF703FAFF22A40092001440A022DD
:10C0E0006B79D205C133FF339B0004489C5070BD6F
:10C0F000B2C4030040340300AC0203003C2A030036
:10C10000032370B50B4004000800022B03D11C4B25
:10C110000B40062B02D1F9F725FC09E0F9F786FC64
:10C1200011F0F4F80022174B0FF05AFB11F076F8DB
:10C13000154B05009D4205D9144915481EF015FA06
:10C140000AF09BF92000FAF7BBF9124988420AD09D
:10C150002000FAF7F7F9A02203216379D205C13351
:10C16000FF339B00995060792900F7F7F3FC002D0D
:10C1700003D109492000FAF7E5F9084870BDC04627
:10C18000070080FF0000E03FFF030000BFC4030082
:10C1900040340300F4020300A40203003C2A03001D
:10C1A00010B5034903481EF0E0F90AF066F9C046ED
:10C1B000E0C403004034030010B50800F9F7D2FBD7
:10C1C000FA239B005843F7F78FFC002801D0FFF7B4
:10C1D000E7FF014810BDC0463C2A030010B5080027
:10C1E000F9F7C0FBF7F780FC002801D0FFF7D8FF74
:10C1F000004810BD3C2A0300A0230C220249DB05A5
:10C200005A5024315A5070474407000010B50400BA
:10C21000F9F7BEFA084B98420BD0084B984208D069
:10C22000074B984205D0074907481EF09EF90AF0CF
:10C2300024F9200010BDC0465C250300B024030093
:10C2400000250300EFC403003039030010B50400DB
:10C2500008001CF0EBF90300002C04D0012C07D1DE
:10C260004000204305E00348002B02DC024800E0C8
:10C27000002010BDF0EC020034ED020070B54568FE
:10C28000C668846810201EF0DEF8034B4560C66067
:10C290000360846070BDC0464427030070B50D0084
:10C2A0004A688B68084904001AF0A8FDEA68012A68
:10C2B00004D1064920001AF0D0FC03E00449200014
:10C2C0001AF09CFD70BDC046FFC403005F69030007
:10C2D0000CC5030030B5040087B00D000020042A0F
:10C2E0002FD120001CF0A2F9AB071DD1164B2A68F4
:10C2F0009A4219D103AA290000F0ACF910201EF0CF
:10C30000A2F8124B039A0360E36861685A4352181B
:10C310004260049A11005943019262688A1882604F
:10C32000059A5343C3600CE0002301002A002068F3
:10C33000F9F7F0FBE36858436368C0180123400035
:10C34000184307B030BDC046803303000827030000
:10C350007FB54B680E005C10210068461CF01FFB87
:10C36000029D00212200280016F090FE0121306875
:10C37000014004D12B0022001DF0E4FF08E043102F
:10C380002000042C00D904202A0000211CF071FC9C
:10C3900069460248F5F784FF04B070BD14F402004A
:10C3A000F0B50C00002585B0110020001E0000959E
:10C3B00002232A00F8F7D4FF0120AC423FD0844288
:10C3C00028D1306820423AD103230340AB4203D145
:10C3D0001C4A0168914232D01B4A0240062A06D00C
:10C3E000002B0BD10268194B92699A4206D103A91E
:10C3F000F6F73CFC002303991A0018E0032302001F
:10C400001A40022A16D1FF22D2058018984304F060
:10C4100025F914E003A93068F6F728FC04007068D9
:10C42000039FF9F79FFA2B00020039002000F4F770
:10C43000E9FB04E0F9F796FA01234000184305B040
:10C44000F0BDC0469C270300070080FF513200006A
:10C45000F0B58DB0099214AA127804000B9215AAB7
:10C4600012780F000892DA0700D496E01800F9F766
:10C4700079FA002305900793002803DA43420593D5
:10C480002D230793129B0026023B1E2B16D8534BDD
:10C49000129A2020995C0DF0F1FF089BC5B2B342BF
:10C4A00004D0681C03210DF0E9FF06001398002852
:10C4B00001D018F0C7F80335AE1936183B68B342FF
:10C4C00004D230001DF0BFFF20603E6023689F193A
:10C4D000069300237D1E2B70059B002B04D00B9B25
:10C4E0000A950A3B0B931DE03023023F3B7030E07E
:10C4F0006F1E3B70089B002B25D0059B002B28D07E
:10C50000069BBB4225D20A9BDB1B032B09D16B4642
:10C5100020229B181B78AF1E3B70069BBB4218D293
:10C520000A973D00059812990EF018F90F0005982A
:10C5300012990EF02DF83B0005903033092FD7DD0E
:10C540000B9BDB19D4E7069BBB4202D2059B002B59
:10C55000E7D1139B002B0ED0180018F073F8069B40
:10C56000381A834207D20023139AD25C002A2ED0B5
:10C57000C2540133F8E7079B002B06D0069BBB4251
:10C5800003D26B461B7F013F3B70236838009E1926
:10C59000F61B099B013E1E601EE09A0710D1104A4F
:10C5A000196891420CD1089A390003920B9A0292B1
:10C5B000139A0192129A0092099A1DF09AFE0BE0CA
:10C5C000002322681370099A2068136004E0079B17
:10C5D0000700002BD5D1D8E70DB0F0BD12C5030080
:10C5E0009C2703001300144A10B50400934201D1A4
:10C5F000012203E0114A934202D10322200018E0F5
:10C600000020072C17D10E4A1A40062A0ED09A078E
:10C6100011D11A680B4CA24208D00B4CA24205D093
:10C620000A4CA24202D00A4CA24204D10A000720BE
:10C630001900FCF79BFE10BD34ED0200F0EC020087
:10C64000070080FF6C3B030014F4020008010300A4
:10C65000C028030030B585B003AB05001400080006
:10C6600002AA01A91DF034FF019A164900238A424B
:10C6700000D0531002984210884200D12A00002BAB
:10C6800004DA5B19D843C017034002E09D4200D290
:10C690002B00002A01DA521902E0954200D22A004A
:10C6A0002360934200DA13006360039B8B4205D042
:10C6B000032B03D05B10A360002001E00120A060E9
:10C6C00005B030BD3C2A0300F0B587B00600150068
:10C6D0000C9F1B2803D1BA4212D000203FE019283A
:10C6E00008D01C280CD13D0017000A001D26190097
:10C6F000130005E03D0017000A001A261900130078
:10C700000395BD4200D903971C00002302910193B9
:10C71000019B039A93421BD0029B0594049301CB87
:10C7200002CC0293F9F7CCF8002802D0019B013328
:10C73000EDE71B2ED1D0059B30001A68049B1968C9
:10C74000FCF714FE074BC01A43425841C0B206E042
:10C75000BD4201D002D2C0E71A2EBED0012007B0E0
:10C76000F0BDC046F0EC0200F0B51E0085B00390AD
:10C7700018680D001700F9F70BF873680190029321
:10C780000024022F18D90123B2682900F9F7C2F951
:10C790000400032F10D029000123F2680198F9F753
:10C7A000B9F9050008E0039AA3000299D058F9F7F7
:10C7B00087F8002808D10134A542F4D80549064875
:10C7C0001DF0D3FE09F059FE01206400204305B09E
:10C7D000F0BDC04633C503004034030030B5072424
:10C7E00002784160A243053C224302707F22039CF1
:10C7F00005882240D400034A83602A4022430280F5
:10C8000030BDC04607FCFFFF10B507240378214068
:10C81000A34319437F230170049904880B40D90076
:10C82000084B426023400B430380039B04685B0575
:10C83000D90A054B23400B430360029B8360059B91
:10C84000C36010BD07FCFFFFFF03E0FF70B50500EC
:10C8500014001CF08DF8024B2560636070BDC0466B
:10C860002F89020010B50C007F2906D801211CF089
:10C87000E7F8002844D0047042E0224B99420FD8D8
:10C8800002211CF0DDF800283AD04022A3095242D0
:10C89000134303703F231C40BF3B1C4344702FE0F5
:10C8A000194B994214D803211CF0CAF8002827D04C
:10C8B0002022230B52421343037080213F23A209FD
:10C8C00049421A401C400A430C434270847017E0EE
:10C8D00004211CF0B5F8002812D01022A30C5242FB
:10C8E0001343037080213F23220B49421A400A431D
:10C8F0004270A2091A401C400A430C438270C47063
:10C9000010BDC046FF070000FFFF000007B5034B46
:10C91000009068460193F9F717FC07BD2F890200C4
:10C92000F7B5CC1CA400070020000E0001921DF0FA
:10C930008AFD22000500054B4760866003600C3AC3
:10C9400001990C3016F018FB2800FEBD38280300B2
:10C95000F7B501260F49441E0B6801912500002000
:10C96000DF0FBC4661469F094F405F4019095A08D6
:10C970004F409B087B405340DB0713431A004000A5
:10C98000324010436D08EBD18442E7D3019A136023
:10C99000FEBDC04658010020F0B50122A1250026A9
:10C9A0000C4B0D4C1A60ED00042100230A4F666009
:10C9B0007A680848002AFBD042591B020139134308
:10C9C0000029F3D1002BEFD0044A13600123436008
:10C9D000F0BDC04600D00040FCD00040580100200F
:10C9E000014B18607047C04658010020F8B506009A
:10C9F00010200D0014001F001DF032FD011E09D093
:10CA00002C19076045608560C460034B034A300001
:10CA10001DF069FEF8BDC046098C0200F38B0200D0
:10CA2000014B186001487047F80900203C2A0300B8
:10CA3000F8B50700F8F796FF102805D023492448D9
:10CA40001DF093FD09F019FDA1220021214BD20018
:10CA5000A22599500922ED005A51802080228000A1
:10CA6000D2021A501C48C1241950A9211F20A40029
:10CA7000C90058501A518022C023C220174ED2003C
:10CA80005B00F250800033589C466146144B0B40CB
:10CA9000C02109040B433350C0235B00F25038001F
:10CAA0003260F8F75FFF0300A0220C21C133FF338F
:10CAB0009B00D2059950402301223360094B0002AC
:10CAC0001843094B585109481A51F8BDDF5F03005C
:10CAD0003039030000A000400405000000E100E040
:10CAE000FFFF00FF01000200006000403C2A03003D
:10CAF0000B4B0C481A68C16C013210B51A600A4B16
:10CB0000012907D1C124A4001C59640302D50024C3
:10CB1000C464D960C82A02DD01225A60DA6010BDFF
:10CB200064010020FCA0004000A00040F7B5484B85
:10CB30005A680193012A00D088E0C12345499B002F
:10CB4000CB58134200D181E0434C444E23683C2B28
:10CB500009DD002342490B8042494A60CA60424ACB
:10CB60002360337013703378002B08D101223D49C4
:10CB700032702360CA600A603C4A136063E03C4D37
:10CB800022682B783B4F01332B7000230D2A07D1ED
:10CB90002B7023603449334B0C3A0A70DA6024E07E
:10CBA000012A03D12F492360CA6005E0022A05D17A
:10CBB000236001232B4AD3603B7016E00B2A14D16B
:10CBC0000121284A23605160D1602B4A33701378C9
:10CBD0005B18DBB21370052B07D9284B1A68284B5A
:10CBE0001968284B18681BF002FA3B78012B06D114
:10CBF0002A782549013A93400A6813430B602B7841
:10CC0000202B20D1002301211B4A1370154A5160AB
:10CC1000D1601D4A23601068114C010C21801B4912
:10CC20001360088080B233701DF0B4FB144D28608F
:10CC300020881DF0AFFB114B02001860114B2968D2
:10CC400018681BF0D4F90023019A5360F7BDC04661
:10CC5000FC60004000600040640100207208002079
:10CC6000F407002000A00040700800205C010020B4
:10CC7000740800207108002073080020000A0020BA
:10CC8000FC090020F809002060010020F2070020C4
:10CC9000314BF7B5B43303219C462F4A2F48FC3261
:10CCA000536C834257D9043B53641A682A4B501C77
:10CCB000AC331E6805008308F35C0D406D002B410A
:10CCC000841A0B400130022BF4D063461B6812011A
:10CCD0009B18240100932048A3080193019B002B7B
:10CCE000DBD0009B1C680F231C422DD11C4B1B6802
:10CCF0009C4229D30500B8352D68AC4224D20F22BE
:10CD00000500E41AE31713401B19AC351B112D68FD
:10CD10009C082D192E781F0034000F407F003C41E5
:10CD20000C40012C10D10A00BA4016432E700600A8
:10CD3000FC36756C0B4FBD4203D22C1D74642B6006
:10CD400002E00300BC331C60019B013B0193009B8C
:10CD500004330093C2E7F7BDAC0800206C09002043
:10CD600060090020EC0900200F23994370B50600EC
:10CD70000D00081A41210DF081FB104C0200230028
:10CD8000B033186023002100AC331E608301EB1A1E
:10CD9000B4310B6023003000B83300211D6016F061
:10CDA00075F922000023FC32D364A2225200A35260
:10CDB000443A4733FF3AFF33E25270BDAC080020DB
:10CDC000A222034952008B5A01338B527047C0464E
:10CDD000AC080020A222034952008B5A013B8B521F
:10CDE0007047C046AC080020A223034A5B00D05A1B
:10CDF000431E9841C0B27047AC080020F0B5002433
:10CE0000032585B002900391039B9C423DD0029A7A
:10CE1000A300D3580F22134233D11D4A1100B4315D
:10CE200009688B422DD31000B8300068834228D2A5
:10CE30000F20591ACB17034010005B18AC301B11A0
:10CE40000068990840181900294049008C46077865
:10CE500066463900314129400191012911D16146CD
:10CE60002E008E40374307701700FC37786C094955
:10CE7000884203D2021D7A64036002E0019BBC3247
:10CE80001360FFF705FF0134BEE705B0F0BDC046F3
:10CE9000AC080020EC09002010B5FFF791FF064810
:10CEA00000220300BC331A600300044AFC3328212B
:10CEB0005A64FFF7A3FF10BDAC0800206C090020E6
:10CEC000F8B503262C4C00252200BC321368AB4277
:10CED00020D023001560294AFC335A642300B03364
:10CEE0001B689B009D42EDD22200AC321268AB0859
:10CEF000D35C2A003240520013413340032B07D148
:10CF00002200FC32536C191D51641D60FFF7C0FEF6
:10CF10000135E3E702221E00032794462200B032C7
:10CF200012689200934221D22200AC321268990812
:10CF3000521811781D0008003D406D00284138400E
:10CF4000022805D003280AD001280DD1060001E0EF
:10CF5000002E09D00320A8408143117004E06046F0
:10CF6000A8400026814311700133D7E70023FC3429
:10CF7000E364FFF72FFFF8BDAC0800206C09002028
:10CF8000264AF0B513001100B833B43109681B68A4
:10CF900003265B1A110003600023B0310C681900EE
:10CFA000AC32156843608360C36003614361A400D1
:10CFB000A1422CD00F008A08AA5C37407F003A417A
:10CFC0003240012A12D8012B03D1C7680137C7604C
:10CFD00004E0022B02D10769013707614769BB42B0
:10CFE00000D94361012A0CD0002A06D0022A0CD1B4
:10CFF000426801330132426007E083680133836095
:10D0000002E043680133436013000131D0E7436815
:10D010001B01436083681B018360F0BDAC080020E6
:10D02000F7B5A222424B52009D5A0F3004091F004F
:10D03000002D01D000207AE0002CFBD0A3235B0060
:10D04000F95A4A424A4101923A00B03212683B0012
:10D0500094463A003026FC33AC32DB6C10686345F2
:10D0600028D20321C25C0A4204D10135A54202D371
:10D070009B0027E000250C210A4205D10135A5427D
:10D0800003D39B0001331DE00025324205D1013559
:10D09000A54203D39B00023314E000253F218A43BD
:10D0A00005D10135A54203D39B0003330AE00025D7
:10D0B0000133D4E7019B002BBCD1F3F783FD01239F
:10D0C0000193C1E7591B4C1C012D04D13D005A1C92
:10D0D000FC359208EA64A208801826000322012584
:10D0E00016407600B5400678023135433E000570A3
:10D0F000AC3601928B420DD30D00326888081018AF
:10D10000019A0131154002226D00AA4005781543AD
:10D110000570EFE73A00B4321568210101336D184C
:10D120001A1B12010021280015F0B0FF2800FEBDD7
:10D13000AC080020A22330B5214A5B00D35A002B53
:10D140003CD10F21084239D11300B4331B689842F7
:10D1500034D31400B8342468A0422FD2C31AD8178D
:10D160000840C0181300AC3300111B6881085C5CD8
:10D17000050003231D406D002C412340012B1DD1D0
:10D180001300FC33DC6CA14200D2D9640321AC3221
:10D1900014688308E31804000D000C406400A540E7
:10D1A0001C780130AC431C7014688308E35C0400F5
:10D1B0000C40640023410B40022BE9D030BDC04637
:10D1C000AC08002070B50F240200204029D1164978
:10D1D0000B00B4331B689A4224D30D00B8352D6878
:10D1E000AA421FD2D21AD31723409A18AC31131176
:10D1F0000D689A08A95C1C000322144064002141B8
:10D20000114001290ED15C1C2600A108695C164062
:10D2100076003141E01A114001340229F4D00001B6
:10D2200000E0002070BDC046AC080020A223F0B58D
:10D230000600002085B05E4F02925B000D00F95A97
:10D24000814200D0B2E0864204D131002800FFF7CD
:10D25000E7FEABE0002D00D1A4E00F223300080070
:10D26000134000D0A2E03900B4310C681800A64287
:10D2700000D29BE03900B83109688E4200D395E0B6
:10D28000311BC81702405218121100923A00AC32FA
:10D29000126800980192009A019992088A5C032111
:10D2A000014049000A41032118000A40012A7DD1AA
:10D2B00029000F310909B0378C461400396803275B
:10D2C0008900039100990131039A914213D2019888
:10D2D0008A08825C08003840400002413A40022A35
:10D2E00001D1013405E0002A05D10133E21894454B
:10D2F00001D90131E8E7644545D022D9009BAC2231
:10D300006344190094460800009BA93A1B19009336
:10D31000274B9C4465462D6884082C19050017008E
:10D3200015406D00AF4025780130BD432570009C4D
:10D33000A042EFD1FC33DA6C8908914223D2D96440
:10D3400021E01B199C4520D80325009B1849E318B0
:10D35000AC31009A624493420CD208689A08821851
:10D3600018000227284040008740107801333843D6
:10D370001070EEE76346191B09012201B0180A007C
:10D38000002115F083FE300010E0029800280DD037
:10D3900028000021FFF744FE051E07D022013100BE
:10D3A00015F0EAFD3000FFF7C5FE280005B0F0BD1E
:10D3B000AC08002010B58AB004A8FFF7E1FD069B79
:10D3C000094C03930093049A059B0849200019F027
:10D3D00015FD099B079A039300930549089B2000BC
:10D3E00019F00CFD0AB010BD580203004AC5030035
:10D3F0006DC50300F8B53E4D3E4E2B00B4331A68A0
:10D400003D49300019F0FAFC00242B00B0331B68B2
:10D410009B009C4223D23F22144230D12A00270095
:10D42000AC3210680321BA08825C394049000A41D5
:10D4300003210A4202D10137BB42F3D83A1B7F2AAB
:10D4400012D992092D49300019F0D8FC3C003F2335
:10D450009C432B00B0331B689B009C4204D33000DC
:10D46000274919F0FAFBF8BD2A00B43212682301EB
:10D47000D2181203120B2349300019F0BFFC2A0006
:10D48000AC321268A308D35C03222240520013413D
:10D49000032213407132022B23D0073A032B20D0F2
:10D4A0002E22012B1DD12B00B4331B682201D3582F
:10D4B000154954228B4214D01449083A8B4210D09B
:10D4C0001349083A8B420CD0124902328B4208D0E1
:10D4D0001149043A8B4204D010490B328B4200D0E0
:10D4E0001B320F49300019F089FC01348DE7C0462A
:10D4F000AC08002058020300A1C50300BCC503000E
:10D50000C8D10300D8C5030008010300C0280300E8
:10D51000D82E03007011030034F1020078320300AA
:10D520006A6003003E2803D0402809D03C280ED171
:10D530004239C9B22F290AD8084B585C012308E0A8
:10D54000712904D8064B585C064B5B5601E0012359
:10D550000020002A00D013607047C046C4C60300F4
:10D56000E0C5030052C6030010B5512836D00FD8CD
:10D57000492827D006D842281CD048281FD0002888
:10D580004BD117E04F2840D042D84C281AD044E065
:10D59000682811D007D864282AD0662825D06228A8
:10D5A0003BD188563AE06C2832D071280FD06928D8
:10D5B00033D12DE0885C31E05200505E2EE0520005
:10D5C000505A2BE0920050581CF0FFFE29E0D20088
:10D5D0008A18106851681CF0CEFE22E0D2008A182A
:10D5E000106851681CF0E2FE1BE09200505805E004
:10D5F000D2008A18106851680FF0DCFE03239843AC
:10D60000013B1843074BC0180BE09200505808E04C
:10D61000920050581CF0BEFE03E0002001234000A1
:10D62000184310BD00008080F7B51700156801AAE7
:10D6300004000E00FFF776FF402C05D1019B043C4F
:10D640005A1EAD185B421D405A213E3C6242624167
:10D65000B14289412B183B60D2B22B0049421BF0EA
:10D66000DFFA04000D004F2E3AD0532E07D116F0EA
:10D67000E9FF002201002000F4F748FE30E0662EAA
:10D6800006D1032302209C43164B0443E01827E0F5
:10D69000642E08D10FF08EFE032302249843114B11
:10D6A0002043C0181CE05A2E0FD980220023D20537
:10D6B00012196B41002B04D1002A02DB1CF06AFE18
:10D6C0000EE029001CF057FE0AE0002905D1064BA8
:10D6D000984202D81CF079FE02E029001CF066FE98
:10D6E000FEBDC04600008080FFFFFF3FF0B587B061
:10D6F000140003AA07000E0001931D68FFF712FF34
:10D700000090402F05D1039B043F5A1EAD185B4289
:10D710001D40009B019AEB1813603E3F642E09D018
:10D72000662E02D04F2E22D140E02000F8F77EF97D
:10D7300004003BE02000F8F779F90FF0E7FD0490D2
:10D74000059179427941C9B28B0006AAD318083BEA
:10D750002A001B6804201BF08CFA3B005A1E9341E0
:10D7600006AA9B00D318083B04351C681EE0A307DB
:10D770000CD1154B22689A4208D1794279412B008D
:10D78000C9B2009A20001CF0DDFD1AE02000F8F775
:10D79000E9F8009B0400042B08D95A2E06D900286A
:10D7A00004DA1A1F281DFF2115F070FC7942794117
:10D7B0000098C9B2042800D9042023002A001BF0D5
:10D7C00058FA07B0F0BDC0469C27030070B50500AD
:10D7D0000E0014001800642D0CD0662D04D04F2DBF
:10D7E00011D19400A35127E094000E19F8F71EF907
:10D7F000306021E0D4000E19F8F718F90FF086FD1B
:10D800003060716018E020232B43712B0CD1032171
:10D81000014009D1094B02689A4205D1E300F3188F
:10D8200008221CF08FFD07E0F8F79CF822000300A7
:10D83000310028001BF031FA70BDC0469C27030060
:10D84000002805D0012809D18B685B00184306E049
:10D850008B680348002B02D1024800E0002070478B
:10D86000F0EC020034ED020000228168F0B5CB0F2D
:10D87000094C5B185B100E199A420BDAC568B11A95
:10D88000940089002C196D5827682560C4680132FE
:10D890006750F1E70148F0BDFFFFFF3F3C2A03005E
:10D8A00070B583680D00416804008B4212D3C90033
:10D8B000C0681CF0DEFD63680A495A00A368626014
:10D8C000D21A013352189B00E0609200C018002168
:10D8D00015F0DCFBA368E268591C9B00A1600248BC
:10D8E0009D5070BDFFFFFF3F3C2A0300F8B50700C5
:10D8F00016004C10836803D5E418E243D217144095
:10D90000A34200D21C000C4D38002900FFF7C8FFCD
:10D91000AC46BB6809495A1E5B189B001D1FF9687D
:10D92000944204DA4859013AC8502B00F6E7A400A3
:10D930000E516046F8BDC0463C2A0300FFFFFF3F82
:10D9400070B50025040085601021C0681CF091FDB1
:10D9500004232900E0606360102215F097FB014862
:10D9600070BDC0463C2A030030B50C0085B0104B9A
:10D9700002AD04310093013802230195F7F722FD2F
:10D9800023680C4C996801290FD9D8680A4B029A70
:10D99000C91889004118A24200D100222D79074BF5
:10D9A000002D00D1064B1BF0CDF9200005B030BD95
:10D9B000782903003C2A0300FFFFFF3F34ED0200FB
:10D9C000F0EC0200F8B50C680B00A1680200002919
:10D9D00005D11A491A481CF0C8FD08F04EFD206810
:10D9E000012A01D05A6801E0012252420023F8F7CF
:10D9F00091F8E36886009F19A3683D68013B1A1AF5
:10DA0000A360E368311D59189200380015F0F2FA4E
:10DA10000021A368E0689A001150616804290BD9BD
:10DA20005B00994208D949088900E0681CF021FD93
:10DA30006368E0605B0863602800F8BDF4C603001B
:10DA40009C35030007B500900191022069461BF048
:10DA5000D9F9694601900220FFF7B4FF00480EBDD6
:10DA60003C2A030070B50E000D490500002419F092
:10DA7000F4F8B3689C420ED2002C03D00949280068
:10DA800019F0EBF8F168A300012259582800F7F7C4
:10DA900099FE0134EDE72800034919F0DEF870BD66
:10DAA000878803008E5F030091CF030070B50326C3
:10DAB00004000D000E4028D1174B0A689A4224D169
:10DAC00083688A6899184368994210D9043189009B
:10DAD000C0681CF0CEFCAA68A368E0609B181A1D01
:10DAE0009B006260C0181022310015F0CFFAA368C5
:10DAF000E9689800E3681818AB689A0015F03CFADA
:10DB0000AB68A268D318A36003E0290020001BF0D3
:10DB100082F9024870BDC046C02803003C2A0300B9
:10DB200010B5040010201CF08EFC044B84600360D0
:10DB3000034B43600023C36010BDC046281503009B
:10DB4000278D02000B4B70B5050003600C00080028
:10DB5000042900D204206860AC6080001CF073FCD3
:10DB60006A68E860121BA40092000019002115F0F9
:10DB70008DFA70BDC02803007FB50D001600122875
:10DB80002AD004D8052807D007282BD057E0030057
:10DB9000193B042B41D952E00322002332409A4220
:10DBA0004ED11300284932688A4249D1AB68B26825
:10DBB00098181BF048F90400AB68E9689A00C0683F
:10DBC00015F0DAF9A868E36880001818B368F168FE
:10DBD0009A0015F0D1F91EE011002800FFF766FF4A
:10DBE0002B002DE003A91000F7F7FAFE002398425E
:10DBF00026D0039A9A4200DA0393AB6803985843FD
:10DC00001BF021F9C36804000093AA68039B042158
:10DC1000E8681AF0ADFD230012E093070DD10A4B1E
:10DC200012689A4209D1B36800938A68F368C96898
:10DC3000FEF74AFD054B002802D1054B00E000230A
:10DC4000180004B070BDC046C0280300F0EC02000C
:10DC500034ED0200F0B5040087B017000326002A57
:10DC60001BD10E4012D1544B0A689A420ED103AA1E
:10DC70008068FEF7EFFC0499039BA268E0685D1AD8
:10DC8000521A8900920041189B007CE00491022006
:10DC900003A90394FFF796FE8AE0042A2CD13142AF
:10DCA00020D1454B0A689A421CD103AA8068FEF72E
:10DCB000D1FC002805D103AAE168A0681AF06BFD29
:10DCC00077E0039B0498C01A1BF0BDF80500836839
:10DCD000E1689A00039BC0689B00C91815F04CF9D5
:10DCE000280066E000230A002068A168F7F712FF09
:10DCF000E3688000C0585CE00E4055D12E4B0A68A6
:10DD00009A4251D103AA8068FEF7A4FCBA6803982E
:10DD1000049B15180193ED1A002D22DDA368E91864
:10DD20006368994207D98900E0681CF0A2FBA368E8
:10DD3000E0605B196360039BA268E668E818D21A8A
:10DD40009900800071189200301815F053F9039B68
:10DD5000F9689800E3681818BB689A0015F00CF988
:10DD60001EE0E3688000F9681818920015F004F9C5
:10DD70000499B868A268039FE368521A38188900AA
:10DD8000920059188000181815F034F9A368AA00F9
:10DD9000E818E368800052421818310015F076F94F
:10DDA000A3685D19A56003E03A0020001BF08CF821
:10DDB000024807B0F0BDC046803303003C2A030090
:10DDC00070B505000C200C001CF03DFB024B4560BB
:10DDD0000360846070BDC046002A0300054B002824
:10DDE00005D00023022802D101224B001343180062
:10DDF0007047C04634ED020010B5024918F02DFFFF
:10DE000010BDC046D06F030010B5034A0349044853
:10DE100018F0F4FF034810BD08C703006B5F030050
:10DE2000580203003C2A030010B5034A0349044882
:10DE300018F0E4FF034810BD4CC803006B5F0300FB
:10DE4000580203003C2A030010B54379012B03D18B
:10DE5000C06A18F026FB05E00B00C26A0249006B9D
:10DE600018F05BFB10BDC0462017030010B54379C6
:10DE7000012B03D1C06A18F034FB05E00B00C26A25
:10DE80000249006B18F049FB10BDC0461017030093
:10DE900010B54379012B03D1C06A18F022FB05E0CD
:10DEA0000B00C26A0249006B18F037FB10BDC04678
:10DEB0003017030010B5024B3F221BF0CDF810BD08
:10DEC000499A020010B5024B91221BF0C5F810BD13
:10DED00035F00000F7B50F0011001A00C38AC579AC
:10DEE000868A019300230400C3718382C382104B8E
:10DEF0001BF0B2F8A368002B18D1E18A002908D0E2
:10DF0000A38A002B05D1206B19F00FFF206B19F0AD
:10DF10009FFDA38AE28A390020001BF04CF86B1E9B
:10DF20009D416B469B88E571A682E382F7BDC046A2
:10DF300041EC0000836870B504000D00002B09D18E
:10DF4000110005481CF011FBA060200029000C30D6
:10DF50001BF0E8F870BDC046A8390300F0B58DB0DD
:10DF60006B4601921B79040043710123E162036156
:10DF70000B780D00012B02D0954A002144E0019B53
:10DF8000012B07D9836B0A001E680300019908332F
:10DF9000406BB047AB68180004931CF047FF6379EF
:10DFA0000490032B0FD109900C2109A81CF057FFF6
:10DFB000A36B02009B680999606B9847A36868830C
:10DFC000002B00D0FDE004981CF030FF0490037893
:10DFD000002B24D00A3B0F2B1CD809A91AF0BFFF35
:10DFE000099B772B14D004D803220292312B18D02E
:10DFF00008E0812B04D002220292992B11D001E07B
:10E0000001230DE0734A04992000FFF793FFDDE040
:10E01000002305E00100704A2000FFF78BFF022378
:10E02000029304981CF002FF5A21049004A81CF0EB
:10E0300016FF049D0390039B9D4200D1B6E004951A
:10E040002B78432B00D1ACE0392B01D0634ADAE7BF
:10E0500005A928001CF0F4FE03780600912BF5D1E9
:10E060001CF0E4FE059B9842F0D105A930001CF09D
:10E07000E7FE037807000A3B0F2BE7D81CF0D6FE1B
:10E08000059B06009842E1D00378A02BDED11CF05E
:10E09000CDFE059B9842D9D106A938001AF05FFF42
:10E0A00030001CF0C8FE9C21079007A81CF0D7FE8A
:10E0B000010007981CF0AEFE069B06002E2B1BD11C
:10E0C000012804D1079803780A3B0F2B01D9444A51
:10E0D00099E72669731C2361019B012B5ED909A96D
:10E0E0001AF03DFFA36B099ADB683100606B98471B
:10E0F000002853D13B4A86E72F2B13D1012803D1A7
:10E1000007980378032B01D0374A7CE7019B012B4A
:10E1100044D9A36B676B1E691CF068FE01003800D0
:10E12000B0473BE0302B23D1012803D9079803786F
:10E13000032B01D02D4A66E7019B012B2ED908A99C
:10E140001CF045FE0127079007980378032B01D0A8
:10E15000274A58E709A91CF03AFEA36B07905B69B0
:10E16000099A0899606B01379847BE42ECD115E0D7
:10E17000019B012B12D9032800D967E7079B1800E0
:10E1800009931CF053FE0A901CF050FEA36B0B90F9
:10E190009F69320009AB0699606BB847A368002BF2
:10E1A0000FD128001CF042FE050044E76379012BE3
:10E1B00004D9A36B02995B68606B9847A368002B36
:10E1C00004D0200004990C301AF0ACFF0DB0F0BD63
:10E1D0002FC9030053C9030060C9030088C90300A5
:10E1E000ABC90300C7C90300D7C90300F3C90300C3
:10E1F00018CA030010B5024AFFF79CFE10BDC046C6
:10E200003ACA030030B50B7885B005000C00002B2E
:10E2100001D101347CE0032B09D103A920001CF0BB
:10E22000D6FD03990400286B19F0B5FB70E0012BB3
:10E2300007D14978023405296AD0006BFAF730FB20
:10E2400066E0042B07D14B788978006B09021943EB
:10E2500019F0E6FB16E0052B19D14379042B02D007
:10E260002D49006B0CE088784B780002184303A915
:10E2700019F03DF803992D6BF4F760F801002800C0
:10E2800019F0DAFB20001CF0D1FD040040E01A0078
:10E290000A3A0F2A09D803A920001AF060FE039950
:10E2A00004002800FFF7D0FD32E0082B0CD103A9B1
:10E2B00020001CF082FD039B2A6A9B0004009958F1
:10E2C000286B19F0B9FB23E003AB02AA01A92000D7
:10E2D0001CF0DDFD02990400286BFAF797FA019B08
:10E2E0000E4A9B009B58002B05D10D4A21002800A7
:10E2F000FFF720FE0BE0039A210028009847AB6847
:10E30000002B04D0EB68002B01D1029BEB60039C37
:10E31000200005B030BDC0463C2A0300C82A0300D7
:10E3200057CA0300F0B517000A0087B00493531EC4
:10E330009A410E0005000499380005921CF06AFD10
:10E34000341E019009D033780024842B05D10200BB
:10E350002100286B19F067FD3400019B0097013BF9
:10E360000393059B0293009B049A93421DD0009B4C
:10E370001B78842B0ED1002C06D1039A0299286BAE
:10E3800019F051FD009C05E0204A00992800FFF794
:10E39000D1FD39E000981CF049FD029B009001334B
:10E3A0000293039B013B0393DDE7002C07D1019A05
:10E3B000059B944663441900286B19F028FD002E34
:10E3C0001BD0B44205D120001CF035FD0022010015
:10E3D00001E000223100280000F01AF80DE0BC42F4
:10E3E0000FD120001CF027FD00220100280000F0C2
:10E3F0000FF838001CF01AFD0700049B9F42EED175
:10E4000002E000223900F1E707B0F0BD6FCA030057
:10E41000F0B50B7817001A000A3A85B004000D0019
:10E420000F2A0FD803A928001AF099FD039920009C
:10E43000002F01D0022F02D1FFF718FDD9E0FFF71E
:10E4400003FDD6E06C4A192B00D8CEE01A3B7C2B9A
:10E4500000D182E004DC252B76D0772B06D0C3E0F8
:10E460007E2B00D187E0912B6ED0BDE002A9280061
:10E470001CF0E6FC0600022F03D001002000FFF78D
:10E48000C1FE30001CF0D2FC029906001AF05FFDBC
:10E49000002800D0A8E03378922B14D1300003A9D3
:10E4A0001CF0CEFC060030001CF0C0FC039A01906A
:10E4B000904208D2022F01D1019EF4E731002000E2
:10E4C000FFF7A0FEF8E73378A12B19D1022F04D172
:10E4D000206B19F042FB206B0FE030001CF0ABFC0E
:10E4E00001002000FFF78EFE206B012F05D119F0EF
:10E4F00008FB206B19F0D8FA1DE019F0EDFA1AE0CC
:10E50000A22B71D130001CF096FC03A91AF027FD54
:10E51000012F07D1206B19F0EAFA0399206B19F04B
:10E52000A1FA08E0022F02D1206B19F0FFFA03993B
:10E53000206B19F0C4FA30001CF078FC02991AF034
:10E5400006FD002855D14FE0002F4BD103A928002C
:10E550001CF076FC039B02001BE003A928001CF0C2
:10E560006FFC039906001AF0F2FC00283CD1002F42
:10E5700038D1350015E0002F34D103A928001CF054
:10E580005FFC039905001AF0E2FC021E03D03B0079
:10E590003A00390022E02B789A2B02D003002900A0
:10E5A0001CE003A928001CF04BFC06001CF03EFCFC
:10E5B00003789D2B02D100231A0006E09E2B06D182
:10E5C00003A91CF03DFC0200039B310006E0BE2BBA
:10E5D0000AD01CF02BFC3200030000212000FFF7C2
:10E5E000A1FE06E0054A00E0054A29002000FFF7E9
:10E5F000A1FC05B0F0BDC04689CA0300BCCA030037
:10E60000A1CA0300F0B50B788FB00A3B040001915A
:10E6100003920F2B00D9E4E008001CF007FC0378FC
:10E62000912B00D0DDE001981CF000FC0BA91CF040
:10E6300007FC037842780A3B1B021343AD2B00D042
:10E64000CFE01CF0F3FB03780500A02B00D0C8E05E
:10E650001CF031FC002800D0C3E028001CF0E6FBD1
:10E660000B9B984200D0BCE028001CF0E4FB9C21EE
:10E670000C900CA81CF0F3FB01230C9E070030004B
:10E680000D931CF0D3FB05000C90874210D01CF0BA
:10E69000CDFB0C9087420DD00378032B00D0A0E077
:10E6A0000DA91CF094FB0C90874200D099E001E08A
:10E6B0003500764E33784833DBB2022B00D890E039
:10E6C0002B784833DBB2022B00D88AE00B9B180072
:10E6D00004931CF0ABFB039A0290904201D10023FB
:10E6E00002930D9B27690593238B27830693638BE6
:10E6F0000793E38B08937B1C0393BB1C09936B4626
:10E700009B896383A38BE3833B1D23612B78039356
:10E71000032B03D029002000FFF774FD31002000F7
:10E72000FFF770FDF91C206B19F02CFAB91C206B57
:10E7300019F0FDF8206B19F0DAF900220199200098
:10E74000FFF766FE04992000FFF75CFD791C206B43
:10E7500019F0EDF80599206B19F01DF91221206BC5
:10E7600019F0C1FA206BF91C19F0E1F8039B206B3A
:10E77000032B05D019F0C5F9206B19F0D7F905E086
:10E7800019F0B5F929002000FFF73CFD059B192180
:10E79000002B00DA1A21206B19F0A5FABA1C01210E
:10E7A000206B19F0FBF96B461B8B23836B469B8B0D
:10E7B00063836B461B8CE383029B002B03D0190001
:10E7C0002000FFF71FFD3900206B19F0B0F8206B17
:10E7D00019F0A1F9039B032B56D0206B19F09BF97C
:10E7E00052E0238B25690293638B6F1C0493E38BA8
:10E7F00067830593AB1C0693A38B0198E383244B9B
:10E800002B432383EB1C23611CF010FB0100200031
:10E81000FFF7F8FC0600206B19F011FA3900206BA5
:10E8200019F085F8A91C206B19F013FA0022019940
:10E830002000FFF7EDFD31002000FFF7E3FC0600AC
:10E84000206B19F06BF8002803D13900206B19F008
:10E8500099F9A91C206B19F06AF8206B19F005FAD8
:10E860006B461B8923836B461B8A63836B469B8A9B
:10E87000E383039BB34203D031002000FFF7C2FCC7
:10E880002900206B19F053F80FB0F0BD3ED80300FB
:10E890000080FFFFF0B5170085B0040008000D00F0
:10E8A0001CF0C4FA390006001AF051FB0190002850
:10E8B0001DD02379002B12D0E36A1E78002E0ED1D2
:10E8C00020001321FFF7C0FA29002000FFF79AFC6F
:10E8D000330032000121206B19F0E4FA03E0290033
:10E8E0002000FFF78FFC206B19F015F956E0337804
:10E8F0003B2B19D1290001222000FFF789FD3000B0
:10E900001CF099FA4378811C4E3BDBB218260A2B87
:10E9100001D8234AD65C2000FFF774FC3100206B3D
:10E9200019F0E1F9022235E03C2B2ED1300003A989
:10E930001CF086FA06000700039B9F4205D03800B2
:10E940001CF074FA01970700F6E701992000FFF721
:10E9500059FC206B19F0CBF8002229002000FFF7AA
:10E9600057FD019BB34219D030001CF05FFA019BA8
:10E970000500834202D0206B19F0B9F83100002263
:10E980002000FFF745FD2E00EBE731002000FFF7E8
:10E9900039FC019A29002000FFF73AFD05B0F0BDCF
:10E9A00024C90300F0B589B004000D1E059104923E
:10E9B000009322D18379002B25D0C36A02911E785F
:10E9C000012E21D10521FFF73FFAE26A118D8D4218
:10E9D00010DAD06AEB00C3185878304208D05A8851
:10E9E0000121206B18F018FF002302211A0099E082
:10E9F0000135ECE74E4A002121E09C2105A81CF0DE
:10EA00002EFA029000E002930027059D03973E0036
:10EA1000019709E0012328001E431CF00CFA039023
:10EA200028001CF003FA0500029BAB4256D02B785D
:10EA3000B82B08D1B73B1E42ECD03E4A290020003B
:10EA4000FFF778FA71E0B92B0BD1B73B1E4201D02A
:10EA5000394AF3E7022328001E431CF0ECF90700B3
:10EA6000DEE7BA2B2CD128001CF0E5F905001CF0DC
:10EA7000DDF90378BE2B0BD12000062229001AF005
:10EA80008EFB009B2800013300931CF0CFF9C8E7F0
:10EA90002B780A3B0F2B01D9284ACFE707A928007A
:10EAA0001AF05DFA05000799206B18F0B9FF2900EC
:10EAB0002000FFF7A7FB019B050001330193B3E79B
:10EAC000019B002B01D01E4AB8E729002000FFF768
:10EAD00099FB009B050001330093A5E7002E14D09D
:10EAE000039B002B03D1206B18F0B2FF03E00399C6
:10EAF0002000FFF787FB002F03D1206B18F0A8FF41
:10EB000003E039002000FFF77DFB049B002B06D0BB
:10EB10003300019A0099206B19F0CDF905E033001C
:10EB2000019A0099206B19F0BDF909B0F0BDC046FB
:10EB3000E8CA030006CB03001DCB030035CB03005E
:10EB400056CB0300F0B589B00400039103A8072158
:10EB50001CF085F90027E36A01905E7E0398019B13
:10EB600083424AD005A91CF06BF94021039003A809
:10EB70001CF075F906A9050003981AF0F0F9069B38
:10EB800002902A2B19D185420DD902981CF04EF91A
:10EB9000854208D107A902981AF0E1F9079B2B2BAF
:10EBA00007D02D2B07D0254A00212000FFF7C2F9FE
:10EBB00020E001261EE004261CE003992000FFF758
:10EBC00021FB013703900398854208D007A91AF06A
:10EBD000C6F907990390206B18F044FFF3E70599F5
:10EBE00028001AF0B4F9002804D1A07129002000EF
:10EBF000FFF708FB059B0393B0E718001CF01BF917
:10EC0000019B03901B78010032002000242B02D1CD
:10EC10001AF05CFA01E01AF0D0FC0500013F06D3BF
:10EC2000002301211A00206B19F03CF9F6E72900B6
:10EC30002000FFF71BF909B0F0BDC04678CB0300F8
:10EC4000F7B50A780E0013000821293B8B43DBB28D
:10EC50000400002B02D10133C37163E013002A3B8F
:10EC60008B43DBB2002B5DD013000A3B0F2B1AD96C
:10EC7000282A10D101A930001CF0E2F807001CF08E
:10EC8000D5F8019B98420FD01CF0D0F8019B0500ED
:10EC900098420AD108E030001CF0CDF807001CF0C3
:10ECA000C5F8050001E03700002501A938001AF079
:10ECB00056F9E379002D02D02A78002A0AD1002BD8
:10ECC00030D1E38A002B2DD0174A31002000FFF706
:10ECD00031F927E0002B1ED0A38A01339BB2A38217
:10ECE000012B0CD1E18A206B002902D019F01DF80C
:10ECF00001E018F0ADFE0021206B19F03DF829006D
:10ED00002000FFF77FFA206B019918F089FE206B35
:10ED100019F03EF806E0E38A29000133E38220007F
:10ED2000FFF770FAF7BDC04696CB0300F0B50400BC
:10ED30000E00056987B002936B1C0393AB1C036143
:10ED40002900006B170018F057FF20001AF00FF988
:10ED500031002000FFF756FA206B18F08CFF691C79
:10ED6000206B18F00FFF2900206B18F0E0FD206BDE
:10ED700019F0E5F82669731C2361029B9F4200D1BC
:10ED800091E038001CF057F8002305932369050033
:10ED90000193013323610378002B0FD11CF046F857
:10EDA0001CF044F8029B834223D04C4A29002000E7
:10EDB000FFF7C0F8A38B013BA3838CE007006A2B0D
:10EDC00007D11CF038F807001CF030F805A91AF03C
:10EDD000C6F8206B18F08BFE39002000FFF712FAFE
:10EDE0002121206B18F07FFF019A0021206B18F081
:10EDF000D5FE28001CF01AF80700206B18F08BFED7
:10EE00000599002903D1206B18F085FE02E020004F
:10EE1000FFF72CF80025206B18F07DFE059BAB4218
:10EE200009D02569206B6B1C2361290018F0F0FEC6
:10EE300020001AF09CF839002000FFF7E3F9059B49
:10EE40000700002B02D0206B18F015FF206B18F084
:10EE500033FF059B002B19D00F21206BF9F720FD04
:10EE60002900206B18F063FD0F21206BF9F718FDC6
:10EE700005992000FEF7FAFF20000599FFF708F832
:10EE8000A38B206B013BA38318F0CEFE3100206BD7
:10EE900018F078FE0199206B18F049FD0321206BD2
:10EEA00018F041FD69E7A38B206B013BA38318F0A9
:10EEB000BBFE206B19F047F80399206B18F037FD63
:10EEC0000C9B002B03D019002000FFF79BF93100A9
:10EED000206B18F02CFD07B0F0BDC046C4CB03007A
:10EEE000F0B587B0039143790400012B3ED1C36A8A
:10EEF0001B78002B03D11E4AFFF71CF836E0039B5A
:10EF0000432103A801931BF0AAFF02900398029BE0
:10EF100083422BD005A90B271AF021F802AB059DDF
:10EF2000FF1803903A002900E06A1BF07CFD3B7853
:10EF30000600002B03D103780E4A042B0AD12900C6
:10EF4000E06A1BF09DFD002803D00378023B022BF2
:10EF500005D9094A01992000FEF7ECFFD6E7042302
:10EF600033702900E06A1BF09EFDCFE707B0F0BDCB
:10EF7000E3CB030008CC030029CC0300F0B587B035
:10EF8000039144790500012C2BD1019103A8432161
:10EF90001BF065FF02900398029B834221D005A9D4
:10EFA0000B2719F0DCFF02AB059EFF1803903A0017
:10EFB0003100E86A1BF037FD3B78002B08D103785D
:10EFC000012B05D0084A01992800FEF7B3FFE2E7BC
:10EFD00004703100E86A1BF04AFD0028DBD00470A1
:10EFE000D9E707B0F0BDC04647CC030010B5438B4E
:10EFF0000400002B02D1054AFEF79CFFA38BE28B95
:10F00000618B9A1A206BF9F769FC10BD66CC03007E
:10F0100010B5038B0400002B02D1054AFEF78AFFCE
:10F02000A38BE28B218B9A1A206BF9F757FC10BD4A
:10F030007ECC0300F7B50B7804001A000A3A0E00E4
:10F040000F2A08D801A9300019F089FF0199200082
:10F05000FEF71EFF76E0912B3FD1694630001BF092
:10F06000EFFE01002000FFF7CDF803780500922B9A
:10F0700010D101A91BF0E4FE050028001BF0D6FE0C
:10F08000019B0700984205D029002000FFF7BAF83D
:10F090003D00F2E72B78A12B0BD128001BF0CBFE13
:10F0A00001002000FFF7AEF80500206B18F05FFDAF
:10F0B0000CE0A22B41D128001BF0BDFE01A919F0E4
:10F0C0004EFF01990500206B18F03AFD00992800C9
:10F0D00019F03DFF002830D034E0962B2DD10800E8
:10F0E0001BF0E9FE002828D130001BF0A4FE06002A
:10F0F0001BF0A1FE050001002000FFF79BFF280088
:10F100001BF094FE03789D2B1CD09E2B0ED101A9E1
:10F110001BF096FE019B0500984213D020002900A9
:10F12000FFF788FF28001BF081FEF3E7BE2B04D019
:10F1300001002000FFF77EFF04E0034A31002000B9
:10F14000FEF7F8FEF7BDC04693CC0300F7B50226E4
:10F150000D00C16A0400097E314001D0344A5DE0EF
:10F160000191297808000A380F2802D801A928003F
:10F1700006E01A32914212D128001BF05CFE01A970
:10F1800019F0EDFEE279E36A002A04D15A8B0132CC
:10F190005A83012635E09A8B01329A83F9E71A33B4
:10F1A000994223D1E379002BD8D101272800E771B8
:10F1B0001BF081FE0326002823D128001BF03BFE14
:10F1C0000278E36A0A3A0F2A04D81A7E2800174305
:10F1D0001F7605E01A7E280017431F761BF02BFED2
:10F1E0001BF029FE01A919F0BAFE0AE028001BF065
:10F1F00022FE01A919F0B3FEE26A137E1E431676C1
:10F2000005260199002911D06B46DF1C3A00E06AFF
:10F210001BF009FC3B78002B05D1064A2900200091
:10F22000FEF788FE02E0022346700370F7BDC04679
:10F23000ABCC0300BACC030070B5C36A04001B78E2
:10F240000D00012B04D00C4A0021FEF773FE11E0E3
:10F250001100280019F07BFE002804D00F21206B3C
:10F26000F9F71EFB03E029002000FEF7CBFF206B1F
:10F2700018F02BFE70BDC046D3CC030070B5C36A36
:10F2800004001B780D00013B012B04D9164A002114
:10F29000FEF750FE26E01100280019F058FE002865
:10F2A00004D00F21206BF9F7FBFA18E02B78C22B62
:10F2B00011D128001BF0BFFD01002000FEF7A2FFC6
:10F2C000206B18F0BCFC206B0F21F9F7E9FA206BDA
:10F2D00018F025FE06E029002000FEF793FF206BC2
:10F2E00018F00EFE70BDC046EDCC0300F0B50D0069
:10F2F00085B004001100280019F029FE002804D070
:10F300000021206B18F038FD79E02B78AF2B0BD162
:10F31000206B012118F030FD29002000FEF772FF5C
:10F32000206B18F035FD6AE0AE2B60D128001BF091
:10F3300082FD05001BF07AFD02900378B22B4CD1C0
:10F3400003A91BF07DFD039B0290984203D09921F5
:10F3500002A81BF084FD2B78AF2B11D103990298E2
:10F36000266B1BF057FD411C300018F005FD2900ED
:10F370002000FEF747FF206B18F00AFD012704E08C
:10F3800029002000FEF73EFF0027029E039B9E42BD
:10F3900019D03378310020000193FEF733FF019B31
:10F3A0000600002F07D0AF2B01D0164A06E0206BD5
:10F3B00018F0EEFCEAE7AF2BE8D1134A2900200051
:10F3C000FEF7B8FD1BE0002F19D131000298246B25
:10F3D0001BF020FD411C20000FE02B780422AF2BF6
:10F3E00000D005222900200019F0D9FE07E02900ED
:10F3F0002000FEF707FF0121206B18F0E1FC05B0AB
:10F40000F0BDC04606CD030029CD0300F0B50400D1
:10F410000D000123627111000361C56287B02A00EB
:10F42000006BF9F727F96379012B02D100236B8474
:10F43000AB84AE6833781E2B07D130001BF0FBFC89
:10F4400001002000FEF7DEFEB9E02B78002B04D18E
:10F4500031002000FEF7D6FEA7E0012B1ED13000C0
:10F460001BF0E4FC63790500012B07D100230100A8
:10F47000E3710C22564B200019F0EEFD28001BF022
:10F48000D5FC1BF0D3FC01002000FEF7BBFE206B77
:10F4900018F044FA002800D094E086E0022B18D13E
:10F4A0006379012B07D100231422E3713100494B0A
:10F4B000200019F0D1FD30001BF0B8FC0100200045
:10F4C000FEF7A0FE2B7E5B0779D5206B18F023FB9F
:10F4D0006BE0033B032B3AD830001BF0A7FC05A9D7
:10F4E0001BF0AEFC1BF0A2FC67790390012F09D141
:10F4F0000B2202ABD2183900E06A1BF094FA022307
:10F5000003706F832B78032B04D10021206B18F03C
:10F5100019FC0CE0042B04D10021206B18F02CFC0A
:10F5200005E0052B03D10021206B18F049FC0121D7
:10F530002000FEF789FC0023059A0093039933000D
:10F5400020001AF02FFB2B78062B38D12DE06379A1
:10F55000012B06D105AA052128001BF064FA02231D
:10F56000037005A9A86819F0FAFC0D212000FEF728
:10F570006BFC0C212000FEF779FC2969206B18F048
:10F580004FFA11212000FEF771FCA8681BF04EFC19
:10F590001BF04CFC01002000FEF734FE0521280082
:10F5A0001BF031FA0378022B04D10F21206BF9F7FD
:10F5B00077F904E042880521206B18F02DF9206BC3
:10F5C00018F083FC206BF9F7E7F807B0F0BDC046F0
:10F5D000D5970200C9970200F0B51E000F0099B040
:10F5E00009AC00210590150020003C2213F04EFDCF
:10F5F000059B09975B6826712362059B18681BF0C1
:10F6000015FC1BF0F3FB606280001AF02EFF002255
:10F61000059BA06200951B681100200019F0B1FC49
:10F6200018F066F90023029020630393002633004C
:10F63000626A964202D3002BF8D12CE0A268002A1D
:10F64000F9D1A16AB2005558002D16D06A69002A76
:10F6500013D119F00FF96B7E686101222900200097
:10F66000042B02D1FEF77AFC01E0FFF7CFFE2369FD
:10F67000039A9A4200D2039301230136D8E70B9AEA
:10F68000002A00D0B4E00499139B8900CB58002BCA
:10F6900009D1049B01330493129B0693069A049BA1
:10F6A0009342ECD3A4E00120197E014224D01C8DAA
:10F6B000601EC000002C1FD00226D96A09184D78A0
:10F6C000354211D0002A17D050880F008446506868
:10F6D00016780690557811CF11C262464A80069A74
:10F6E0000E704D704A6007E0002A02D1012D00D152
:10F6F0000A00013C0838DDE7002200211A841A8D37
:10F70000944691421DDAD86ACA00821818780728F0
:10F7100002D15468052C12D00138052804D810787D
:10F72000002801D1013010701078022803D0012484
:10F730005078204203D0188C441C1C845080013126
:10F74000DDE700218C450FD0D86ACA0082181078F6
:10F75000032807D101245078204203D1188C50800F
:10F76000001918840131EDE75E68002E91D0002465
:10F77000328D0792220007998C421CDAF16AE00070
:10F7800009180691097800250339012911D8AC45DB
:10F790000FD0DF6AE90079180F78042F07D1069897
:10F7A000476838004F68B84201D14A8001320135BC
:10F7B000EDE70134DFE70020002A00D169E7844546
:10F7C0000ED0DC6AC10061180C78042C03D101252D
:10F7D0004C782C4202D04C88A4184C800130EEE7C3
:10F7E000598B92B251185983198C52181A8450E7C8
:10F7F00000260399029818F080F83500129B0493B4
:10F800009E4210D30B9B0393002B4FD0149B0CA84C
:10F81000996819F087FC149B0C9A1B6909990B983D
:10F8200002F02AFC42E00B9B0493002BEAD1139BCD
:10F830000493049AB3009C58002C35D0637E042BAB
:10F8400019D1002D03D103981AF035FD05000023CE
:10F8500015932D4B0322210009A817931695FEF747
:10F860007DFB0B9B0493002B1ED10422210009A8D1
:10F87000FEF774FB18E0029B0222210009A81593F1
:10F88000FFF7C4FD0B9B0493002B04D1032221003E
:10F8900009A8FFF7BBFD0B9B0493002B04D10422A6
:10F8A000210009A8FFF7B2FD0136A7E7029818F07A
:10F8B0002CF8002D02D028001AF00EFD0024059827
:10F8C0001BF003FB139B1B685D69129B02939C4218
:10F8D0000AD2139B0293029AA3009858002801D0E1
:10F8E0001BF088F80134F0E713981AF0D3FD0B9958
:10F8F000002902D0080006F0C0FD0A00280018F018
:10F90000C4FF19B0F0BDC04680300300F0B5114B04
:10F9100087B003AD40C90138009301950323F5F783
:10F9200051FD68680C4C1E27A04202D018F0FDFD66
:10F930000700A8680022A04202D018F0F6FD0200DD
:10F94000706803990771427106F0CCFD200007B082
:10F95000F0BDC046482E03003C2A030030B5124BD0
:10F960008BB003AC20C90138009301940323F5F751
:10F9700029FD616806A819F012F8039B089A59003E
:10F98000237A00936868079B07F052FF021E05D098
:10F990000649074802F002FB06F06FFD06A905487C
:10F9A000F2F77EFC0BB030BD7C2D030048CD030088
:10F9B000F035030014F4020030B5114B89B002ACED
:10F9C00020C90138009301940323F5F7FBFC0122C1
:10F9D00005A96068F6F782F9029B059A5900237A17
:10F9E00000936868069B07F06DFF021E05D005496D
:10F9F000054802F0D3FA06F040FD044809B030BDD6
:10FA0000B42D03006BCD0300F03503003C2A030046
:10FA100010B504000C201AF016FD034B446003607F
:10FA20000223037210BDC0462030030010B504004D
:10FA300010201AF008FD044B0360237A03716368F9
:10FA400083600023C36010BDB82F030010B504000D
:10FA500010201AF0F8FC044B84600360034B4360F1
:10FA60000023C36010BDC04628150300EFA00200AC
:10FA700010B5043018F00BFC004810BD3C2A030000
:10FA8000002806D001280BD14B68DB085B00184327
:10FA900007E007224B680348934302D1024800E085
:10FAA00000207047F0EC020034ED020010B503496D
:10FAB00003481AF05AFD06F0E0FCC0468FCD030063
:10FAC000203A030070B515001A001C00FBF728FC53
:10FAD000002802D04368002B0AD12B1E04D1074B0B
:10FAE000022C01D1FFF7E2FF012C05D1436003E0B6
:10FAF000022C01D100224260180070BD3C2A030094
:10FB0000F8B504000D000B7A124A9B00995817F0C3
:10FB1000A4F81149200017F0A0F82800FFF786FF8D
:10FB20000126070038001AF0ECFA051E0CD0002E52
:10FB300003D10A49200017F090F801222900200083
:10FB4000F5F740FE0026EDE70549200017F085F89F
:10FB5000F8BDC046782E030097CD03008E5F0300EA
:10FB60009ACD030030B5002585B001A904000195A8
:10FB70001AF0A7FAA84205D10A490B481AF0F5FC79
:10FB800006F07BFC636802A9083B6360036802938C
:10FB900043680393042328C00220F5F7E3FC05B073
:10FBA00030BDC0469DCD0300203A0300F0B5136878
:10FBB0001400012287B00F680D000092D9080223BB
:10FBC0000600F5F7CDFB022E22D10323686803401F
:10FBD00016D101682C4AC968914211D12A68904215
:10FBE00016D0059305A968681AF06BFA061E0FD0A7
:10FBF000381D01223168FBF793FB73684360F1E71E
:10FC0000F9F722FB03900398F9F76EFB002801D166
:10FC1000002526E0F9F718FB0500F9F765FB0290CF
:10FC20002800F9F761FB06002800F9F75DFB029B4D
:10FC3000002B03D0002E01D0002805D01349144812
:10FC40001AF093FC06F019FC381D01220299FBF70B
:10FC500067FB4660D7E7A368EE009959002904D1F5
:10FC6000013563689D42F6D30AE00429F8D0381DB7
:10FC70000122FBF755FBA3689E1973684360EFE709
:10FC8000044807B0F0BDC0467DFE0000BCCD0300B7
:10FC9000403403003C2A030073B50C0015001B28F8
:10FCA0000BD000231F2838D1081D00222900FBF7A4
:10FCB00037FB1B4B002830D117E00323194208D132
:10FCC000184922688A4204D12B4002D12968914206
:10FCD00023D0AB0709D1144B2A689A4205D16A6830
:10FCE000636853400722934301D0104B15E0019302
:10FCF00001A920001AF0E5F9061E0DD0281D0022EA
:10FD00003168FBF70DFB0028EFD041687068F5F70C
:10FD1000D7FD0028ECD1E8E7014B180076BDC046BE
:10FD2000F0EC02009C2E0300D82E030034ED0200FC
:10FD3000F7B50B681C4A04000D00934203D05A68C3
:10FD40001A4917F05BF81A49200016F086FF0023C5
:10FD50000127019301A928001AF0B3F9061E15D056
:10FD6000002F03D11349200016F077FF01223168DC
:10FD70002000F5F727FD1049200016F06EFF012244
:10FD800071682000F5F71EFD0027E3E70B4920000E
:10FD900016F063FF2B68044A934203D00849200001
:10FDA00016F05BFFF7BDC046D82E0300ECCD030074
:10FDB0008C5F03008E5F03000F87030031CF0300C9
:10FDC0005F69030010B504000C201AF03CFB034BE4
:10FDD000446003600023037210BDC046203003005E
:10FDE00010B504000C201AF02EFB034B4460036096
:10FDF0000123037210BDC0462030030010B504304B
:10FE00000022FBF78DFA002805D1044904481AF0B6
:10FE1000ACFB06F032FB406810BDC0468FCD03003E
:10FE2000203A030010B5024B08C018F011FA10BDBB
:10FE3000D82E0300F8B5070048680E00F9F704FA59
:10FE40000400F5F7ABFE0C4D022F00D9B568002871
:10FE500000D040101AF07FF906002000F9F744FAAC
:10FE6000011E06D0331D01221800FBF759FA456028
:10FE7000F3E73000F8BDC0463C2A0300F0B50700A8
:10FE800089B000201E000D0001921AF064F90E4B9B
:10FE9000040007609F4203D10422037913430371D6
:10FEA000019B2B430DD03368AA00B218019905A815
:10FEB0000394049318F0DEF9681C05AA03A9FFF760
:10FEC00075FE200009B0F0BD9C2E030010B5002A7D
:10FED00002D11AF083F90DE0042A09D1043000227E
:10FEE000FBF71EFA002801D1FFF7E0FD406802E0B1
:10FEF0001AF06AF9004810BD3C2A030070B5137867
:10FF000004000A3BD8B20F2808D90A001248134946
:10FF100002F044F8A368002518601AE00020527827
:10FF20001B021343E268904208D0256981004959B9
:10FF3000994201D105000CE00130F4E72288002548
:10FF4000042A06D11A000649034802F027F8A368DC
:10FF50001860280070BDC046A839030077CE0300A2
:10FF60008CCE0300F0B585B004000D00100003A98D
:10FF70001E001AF041FF071E08D12A000C490D4847
:10FF800002F00CF8A368186038000FE00398F5F74A
:10FF900015FD0300B34309D0030000962A0006496B
:10FFA000044801F0FBFFA3681860002005B0F0BD15
:10FFB000A3CE0300A8390300BBCE0300F7B51E0093
:10FFC00013780D000A3BD9B204001C480F2904D84D
:10FFD00050781B02184317F085F9037818490093ED
:10FFE00000234A1C0191177800998F4218D141785B
:10FFF0005778B94214D1817897788F4210D1002F69
:020000040001F9
:100000000BD1019A9B00D05CB04215D933002A0075
:100010000C490D4801F0C2FF0BE0C778002FF0D06B
:1000200001330432152BDED12A000849064801F0BD
:10003000B5FFA36818600020FEBDC0460965030037
:100040000CD00300E7CE0300A839030000CF030063
:10005000F0B5177885B005000E00992F47D101A99A
:1000600010001AF0EDFE019B984240D003781A0070
:100070000A3A0F2A08D802000F2331002800FFF7A0
:100080009DFF0124844030E0AE2B30D11AF0D3FE26
:1000900004001AF0CBFE02900378B22B27D1A33BC9
:1000A000220031002800FFF789FF012403A98440C2
:1000B00002981AF0C5FE039B0290984215D03900B1
:1000C00002A81AF0CCFE0127029A039B9A420CD098
:1000D0000F2331002800FFF771FF3B008340029897
:1000E0001C431AF0A3FE0290EEE7200007E0320066
:1000F0000449054801F052FFAB681860002005B0C4
:10010000F0BDC04618CF0300A8390300F0B50E00BB
:1001100087B0040004A930001F00019217F0E7F82F
:10012000019B0500002B11D1322E02D1BF21090203
:10013000E7E1482E08D0019B2A00BD49BD4801F0E7
:100140002DFFA3681860DFE1BB49DAE1019B012BB9
:1001500000D089E0412E09D101003A682000FFF764
:10016000CDFE0100606917F00CF80AE0422E12D1B2
:1001700001003A682000FFF7C1FE0100606917F036
:1001800057F8002800D0BFE1AC49AA48A4681AF08B
:10019000ECF92060B8E1432E09D101000F233A6841
:1001A0002000FFF70BFF8E21C000C901A8E10378F2
:1001B000622B33D1049B032B07D0052B2ED1C378A0
:1001C0005F2B2BD103796E2B28D101269C4A6978AD
:1001D000531C76422B321878884206D1A878844680
:1001E0005878844501D1581E067803339A42F2D1DB
:1001F000731CA0D03A6829002000FFF77FFE049B03
:10020000020000276069052B03D12B79773B5F4201
:100210005F413B00310016F0D0FFB2E7462E01D11E
:1002200088496EE1472E01D187496AE1442E0BD1FE
:1002300029003A682000FFF70BFFFF231B02B421BF
:10024000184200D077E70DE0452E00D073E73A68FA
:1002500029002000FFF7FCFEFF231B02184200D0FC
:1002600069E7BC2109024BE1019B022B00D0D6E0DB
:100270007B681B780A3B0F2B49D8332E12D13A6882
:1002800001000F232000FFF799FE7A68060029007D
:100290000F232000FFF792FE31000200606916F084
:1002A0005BFF31E100230293342E1BD18026F6013F
:1002B0003A68290007232000FFF780FE7A68019042
:1002C000290007232000FFF779FE019A030031007F
:1002D000606916F039FF17E1029B013302930F2B7F
:1002E00000D128E7029B03229E00584B711C59182D
:1002F000280014F0DBF90028EED1EB78002BEBD1CD
:10030000524BF65C80233601DB011E43D0E7332ECF
:1003100001D1802602E0352E13D1A02607233A68AA
:1003200029002000FFF74AFEFF23019029007A6888
:100330002000FFF717FE019BB60119020643314367
:10034000DFE0362E01D1C026E8E7372E01D1E026C6
:10035000E4E700233E4A99005018408886425AD16B
:100360008B5A200002933A6807232900FFF726FEE4
:100370007E6803903378982B28D130001AF09BFDCB
:10038000002823D130001AF056FD03789A2B1DD196
:1003900005A91AF055FD059906001AF03BFD022843
:1003A00014D130001AF042FD072332000700290063
:1003B0002000FFF703FE029B0600DB040ED51F237F
:1003C0003A0029002000FFF7CDFD19E02A0021495D
:1003D000184801F0E3FDA3681860ACE6029BDB0B54
:1003E00007D03E233A0029002000FFF7BBFD40085C
:1003F00006E07C233A0029002000FFF7B3FD8008C7
:100400000299039BF60019430E43F8218001C900AD
:100410000840310074E00133062B9CD18BE6019B30
:10042000032B00D087E6382E16D1002618E0C046F0
:1004300033CF0300A839030030BF000093CF03007F
:100440004DCE030072B6000062B6000011CE03006C
:100450001E58030068CF0300392E1CD180263601B8
:100460003A68072329002000FFF7A8FD7A68019069
:10047000072329002000FFF7A1FD1F230290BA687F
:1004800029002000FFF76EFD019F029B3743810189
:100490003943DE0053E73A2E02D180267601DFE7AA
:1004A000362E01D1C02603E0372E00D043E6D026F9
:1004B00007233A6829002000FFF780FD07230190F9
:1004C0007A6829002000FFF779FDBA687601137871
:1004D00002900A3B0F2B05D8072329002000FFF7C5
:1004E0006DFD07E08023DB001E4329000723200069
:1004F000FFF738FD029B8001D900019B194331436E
:100500000143606916F0E9FD07B0F0BDF7B50600DC
:100510000D0000240192019B9D4227D0631C009393
:10052000052B02D1B468124906E028780A38C3B214
:100530000F2B07D9B4680F490F481AF016F820603E
:10054000002014E06B780002184316F0CBFE023551
:10055000070014F077F80228ECD13B78722BE9D130
:100560007B7830349C42E5D1009CD4E72000FEBD6E
:10057000A7CF0300DACF0300A839030010B54A68FB
:10058000014916F03BFC10BD2B8A030010B510206A
:1005900019F059FF0400034B08C01AF079FE20003F
:1005A00010BDC0469C27030070B50D00052826D855
:1005B00009F046FF05250D03141C080020E0081D66
:1005C0001AF098FF031E0F481AD00F4818E0081DB4
:1005D0001BF0C0FA01214000084311E0FFF7D6FFED
:1005E000291D040004301AF0BAFF06E0FFF7CEFF21
:1005F000291D040004301AF0C2FF200000E0002092
:1006000070BDC046F0EC020034ED020070B505008C
:1006100083070CD1104B02689A4208D1FFF7B6FF4E
:100620000400291D04301AF08FFF200012E028007A
:10063000F5F798F9C0231B06984205D180200021C8
:10064000C00519F098FE05E0C317C01858400123F3
:100650004000184370BDC0469C27030070B544009D
:100660006408051C211C201C0AF0FAFF002808D190
:100670001149201C0AF0DCF8002808D00F49104866
:1006800001E01049104801F089FC05F0F6FE281C35
:1006900018F034F8002806D1281C0AF0F9FF0124CC
:1006A0004000204307E0FFF771FF0400291C0430DD
:1006B0001AF06DFE200070BDFFFF7F7F60D0030049
:1006C0006C39030079D003004034030007B5C30739
:1006D00001D540100DE0043001A905F077FE002897
:1006E00001D0019805E00349034819F03EFF05F0E9
:1006F000C4FE0EBD92D003006C390300F0B50600B5
:1007000001208DB00C000092084007D04B1002224F
:1007100002A903A81AF0FBFD03AD09E003230B4077
:1007200000D037E19C4A0968914200D029E1251D9B
:10073000009BDB0708D5009B02225B1002A903A8DF
:100740001AF0E5FD03AC1FE00323009A1A4208D11A
:100750000099914A09680191914202D1009B1C1DA8
:1007600012E0009A1340022B00D00EE18B4B134095
:10077000062B00D109E128001BF041FA009A011C68
:100780003000F6F705FE05E1092E01D0162E16D130
:1007900020001AF0AFFE00283DD128001BF02FFAF0
:1007A000051C20001BF02BFA011C281C0AF0F4FA8F
:1007B00003239843013B1843794BC018EAE0182EF5
:1007C00000D9BAE0FFF7E2FE0700300009F038FE7A
:1007D0006B716577770D11181EDB488E946B716510
:1007E00077770D11181EDB488E00381D2200290076
:1007F00050E0381D220029001AF094FF3800C9E0AB
:10080000381D220029001BF0DFF8F7E720001AF05E
:1008100071FE002802D06349634857E006A83E1DD8
:100820001AF036FD23002A0006A9300005F06CFC02
:100830002A7823785340DB070ED506A81AF05AFE13
:10084000002809D1012109A849421AF056FD09AA38
:10085000310030001AF02BFF06A81AF025FDCDE775
:1008600020001AF047FE0028D5D109A83E1D1AF035
:100870000FFD23002A00310009A805F045FC09A856
:100880001AF012FD2A7823785340DB07B6D52200F0
:10089000310030001AF00BFFB0E7381D22002900AC
:1008A0001AF08DFFAAE7381D220029001BF00BF873
:1008B000A4E7381D2200290005F0B0FB9EE7009850
:1008C000FFF704FF021E05DA3849394819F04DFEDA
:1008D00005F0D3FD381D2900032E01D0102E02D1C2
:1008E00005F02EFB8AE71AF081FE87E7381D22000B
:1008F00029001BF0ECF881E720001AF0FBFD00282E
:1009000089D1FFF743FE3E1D009023002A000430EA
:10091000310005F0F9FB2A7823785340DB0704D532
:100920002200310030001AF0C2FE009B09A902200B
:1009300009930A97F4F716FE2CE0210028001AF01C
:10094000DEFD193E03000020042E23D8300009F0FC
:1009500077FD0307130B0F001648002B1ADA0EE081
:100960001448002B0BDC15E01248002B12DC06E0CB
:100970001048002B03DA0DE00E48002B0AD10E4878
:1009800008E0180006E0002004E0009A2100300092
:10099000FBF728FE0DB0F0BD9C270300070080FF89
:1009A00000008080D98603009C3803006989030019
:1009B0004034030034ED0200F0EC020010B50430C6
:1009C00002F0F8F8004810BD3C2A030010B50430CE
:1009D00019F0ECFE004810BD3C2A0300F0B50600FB
:1009E000080087B01400F188020000233068F5F792
:1009F00091F80500002C40D0042C14D1032045436D
:100A0000B168033C49194A785200224303920A789C
:100A1000A240224304928B7803A9A3402343059369
:100A2000F4F7A0FD2AE003AA03212000F5F75EF801
:100A3000039B1868F4F796FF039B04005868F4F7CB
:100A400091FF039B07009868F4F78CFFFF2C03D8F5
:100A5000FF2F01D8FF2805D909490A4819F085FD5B
:100A600005F00BFDE2B2C0B2341D0090FBB2A9B29A
:100A7000200019F0B1FE044800E0200007B0F0BDEE
:100A8000BFD00300403403003C2A030073B51C00B0
:100A9000002300930233080011001A00F4F760FCF1
:100AA000206817F042FD05006068F4F75BFF041E44
:100AB00005DC0949094819F058FD05F0DEFC0C2059
:100AC00019F0C1FC0600064BE9B208C0A2B202F060
:100AD00047F8300076BDC046CED003004034030056
:100AE0001C3103002022074B07491A701D3A5A7027
:100AF00004329A7000220548DA7059601A725A72EC
:100B00007047C0466C010020746962753C2A03007E
:100B100002220A4B10B5DA6700220121084B5A6104
:100B2000084A11615A69002AFCD0074C606F0028FE
:100B300003D019F0AFFC0023636710BD04E100E0AF
:100B4000FC10004000100040AC08002010B5FFF77A
:100B5000DFFF014810BDC0463C2A0300F8B5FFF78F
:100B6000D7FF334C26786578013601357543280068
:100B700019F069FC00222F4B451958672E4B80193C
:100B80001D602E4B012118602D4B5A608022D2052A
:100B900011605A68002AFCD003212A4B61562A4A68
:100BA00000259950A178043A9950617A08329950F9
:100BB0006168264A08269950217A254A254F99507E
:100BC0000121254A9D5004329950244A9E50227892
:100BD0008124A4042243A324E4001A510222204CBD
:100BE0001A51204C1F51204F043C1F5118271F4CF5
:100BF0001F511F4C1851C120C02480001E501D4899
:100C0000640002510260802080001A58713CFF3C51
:100C100022431A50184A556059605368002BFCD083
:100C20000022154B1A61074B01329A60F8BDC0468D
:100C30006C010020AC080020680100207801002031
:100C4000FC000040001000400C0500001C050000E6
:100C500024050000FFFF00002C0500001405000023
:100C6000340500003C05000021100100540500007F
:100C70000405000000E100E0FC10004010B5FFF7A3
:100C80006DFF014810BDC0463C2A0300F0B51600B8
:100C90008DB0002804D07249724819F066FC33E028
:100CA000714B09AA1900B0C9B0C203255A7A5F680E
:100CB00003921A7A01929A785D5702925A781B78B9
:100CC000069205930490049B7268934228D2DB003D
:100CD0000793079AB3689B181A68002A1CD0042A45
:100CE0001AD05868F4F76AFEB368079A0400985857
:100CF000F1F72EFB5D4B0200C018062800D885E0F6
:100D00005B495C4801F04AF905F0B7FB631EFA2B1A
:100D100000D9A0E0E3B20593049B01330493D2E72A
:100D2000554B09AC5B6F002B14D16B461B7DE570F6
:100D300023706B461B7E0A9763706B461B7AA37009
:100D40006B461B7923726B461B7B6372464B07CC49
:100D500007C382E06B461B7D434E23706B461B7EB0
:100D60006370228833889A4211D0FFF7D1FE6B4618
:100D70001B7AE570A3706B461B790A9723726B464A
:100D80001B7B63720ECC0EC6FFF7E8FE65E0022205
:100D90003A4B3B49DA6700238C464B61394B013AA9
:100DA0001A6163465B69374A002BFAD06946087AB4
:100DB00009AB987008790A971872087BDD70587231
:100DC000294852CB52C0304B0298D550043BD050EA
:100DD00003980833D0502D4B0198D7502C4BD0504E
:100DE0000020274B58600123536063465B68002B4B
:100DF000FBD00022C021224B49001A61214B013255
:100E00009A60244B01325A501A6026E009F022FB06
:100E10007EFF07000D00120017001C001E00631E5D
:100E2000FD2B18D8E3B2069376E7642C13D8E3B20F
:100E3000029371E7072C0ED8174B1D576CE7022C55
:100E400009D8E3B2039367E7270065E7FF2C02D8D0
:100E5000E3B2019360E7114953E711480DB0F0BDCB
:100E6000F3D00300303903006C01002020FDFFFFA8
:100E700017D1030040340300AC08002004E100E077
:100E8000FC100040001000400C0500001C05000094
:100E90002405000000E100E0EBD003002DD10300A9
:100EA0003C2A030010B50349034819F05EFB05F026
:100EB000E4FAC04652D1030040340300F7B5324A89
:100EC0000B00576F002F01D1FFF7ECFF02212F4CD1
:100ED0002F4EE167A324E40035592E4AECB20134C9
:100EE0003C192D4F01963D68AC4202D111602B4850
:100EF00048E02578002812D1601C002B03D129007E
:100F0000F1F71CFA1AE05A68AA4200D92A00012611
:100F10000100186812F06EF86B001E4319E0022DF4
:100F20000ED96378012B0BD1A278002A08D1E3787F
:100F3000012B05D1E91E201DF1F7E8F9060008E0B4
:100F40000223144A16491360164819F00EFB05F0E7
:100F500094FA691CED433B6861185A1A200000930B
:100F600012F048F8009B019A5D190F4B3D60D55077
:100F700000220E4B30001A610123019A9360054A4A
:100F8000DB181360FEBDC046AC08002004E100E0A1
:100F90000010004000E100E0780100203C2A03003E
:100FA00067D103004034030004050000FC1000403A
:100FB000184B30B55A681849002A03D000225A60ED
:100FC00001328A601B69002B22D00022114B13488A
:100FD0001A61A323104ADB000468D5582378EAB2CB
:100FE0009A4201D2130025708025ED004D59012D44
:100FF0000CD10B4D0232D2182D68A218954205D3A0
:101000000133E3180360074A0348835001238B60D0
:1010100030BDC046FC1000400010004078010020A8
:101020006801002004050000F7B5354D0C00696F1C
:1010300001921E00002901D1FFF734FFA323314F95
:10104000DB00FA58A319D2B29A4204D2161BA2426C
:1010500001D214000026A3190B706B6F010001333D
:101060002200180011F088FF002E06D06B6F601C64
:1010700018183200019911F07FFF0222224BDA6723
:101080000022224B5A6101323A615A691D49002AF5
:10109000FBD00024686F1E4A88501C484460012021
:1010A000086011005A68002AFCD00120154A90609F
:1010B0000020164A10611869124A0028FBD0154812
:1010C00000685050002011494861012111615A699E
:1010D000002AFCD000210D4A51600A4A01315160BA
:1010E0005A68002AFCD00022C021084B49001A612E
:1010F000044B01329A60084B01325A501A60F7BD16
:10110000AC0800200010004004E100E0FC100040AA
:10111000040500007801002000E100E007B501A906
:10112000F1F7A4FD019B020003210248FFF77CFFB9
:1011300001480EBDE7D003003C2A03001FB5012281
:1011400001A9F4F7CBFD002301981A000299FFF7DB
:101150006BFF014805B000BD3C2A030010B54A688A
:10116000014915F04BFE10BD87D1030070B5150085
:1011700012680C008368002A09D1CC000621181DD2
:101180002143FAF7CDF800281ED043681BE01A79F6
:10119000180092070BD50D4A934215D10C4E736C73
:1011A000002B03D1012018F0D6FF7064706C06216B
:1011B0006A68E4002143002A02D119F00FF801E027
:1011C00019F002F800232B6070BDC0469045030063
:1011D000AC080020F8B50625C3001D430700012216
:1011E00029000C48FAF79CF806004068002810D146
:1011F0000C3019F028F9084B040003604760012007
:1012000018F0A9FF2A00A0606E2118F0DDFF200071
:101210007460F8BDD00800207832030010B50321B7
:101220000148FEF7FFFD10BDCC08002010B50C00F2
:101230000621C000014301220248FAF771F8446018
:1012400010BDC046D008002073B50625C3001D435D
:101250000600002229000F48FAF762F8041E17D191
:10126000020029000C48FAF75BF8041E11D06A4608
:1012700008214068F7F76CFF009B002B08D0002185
:101280006A46080016F0BCFE61683000FFF7CEFF2A
:10129000606876BDD0080020B432030073B5060044
:1012A000194D0C00280012F02DFE3100174812F0E5
:1012B00027FD174812F026FE164812F023FEFF23E2
:1012C0009B00E61821787F2916D0B44214D0A37869
:1012D00050290BD8104A505C104A525C0193637835
:1012E000009303000E4812F00BFD03E062780D48F6
:1012F00012F006FD0434E5E7280012F003FE0A4868
:1013000012F000FE73BDC04695D10300C2D10300A8
:10131000CAD10300A0D203003AD30300E9D20300EC
:10132000EBD103000ED20300BED20300F0B51D00C6
:101330008BB007901B481600089112F0E3FD2900BE
:10134000194812F0DDFC194812F0DCFD184812F0C3
:10135000D9FD0024AC4220DA089B375DA000079934
:10136000181803788278095D049707689B063F0385
:101370007F0E0397C7789B0E09933B090293008861
:101380003F07C004400E3F0F019012090097099BD0
:10139000084812F0B5FC0134DCE7024812F0B2FD57
:1013A0000BB0F0BD95D103002FD203005CD2030037
:1013B0008ED20300C0D2030070B504000D001049A6
:1013C00015F04BFC696801222000F4F7FBF90D4E83
:1013D0002000310015F041FCA96801222000F4F73B
:1013E000F1F93100200015F038FCE96801222000F5
:1013F000F4F7E8F90449200015F02FFC70BDC04651
:10140000E2D203008E5F03005F69030070B506003F
:1014100010200D00140019F016F8034B466085608B
:101420000360C46070BDC0468033030030B58DB02A
:101430000500684605F006F8011E0ED12A1D0120A0
:1014400016F0DEFD0122EB6804005B1001335B0047
:101450001343EB6005F00CF80BE00198064A0368B3
:10146000934205D0054A0024934202D005F005F8C6
:10147000002420000DB030BDEC3603009C35030085
:1014800010B50400102018F0DEFF044B0360236841
:101490004360636883600123C36010BDBC330300F5
:1014A0000022104B10491A6003001233FF33411819
:1014B0005A701A7004338B42FAD1010003000022E3
:1014C00009310833FF311A709A705A70DA70043398
:1014D0008B42F8D1C3237F229B00C254034A044BA2
:1014E0001A6070477C01002011030000F8640300BB
:1014F000540000200023F7B507001C00A200BA1812
:10150000FF32517C7F2952D0927C651C9B18DBB244
:10151000EF2B2AD9EBB20193C1239B00FE187D2348
:1015200035000093009B019A934209DB281D290096
:10153000042211F021FD009B043D013B0093F1E7E3
:10154000002395007D19FF356B74AB74EB742B751C
:101550007D250234E4B2A5421DDB301D310004229A
:1015600011F00AFD013D043EF5E77D291CD8104A23
:10157000525C01210A4217D0C1237D269B00ECB2A8
:10158000FD18A64207DB281D2900042211F0F4FCF7
:10159000013E043DF5E77E23A200BA18FF325374E2
:1015A00000239374D37413750134E4B2A6E7F7BD36
:1015B0002CD4030070B5012240240F49531EDBB226
:1015C0009B00C318FF335D7C7F2D14D04D5D2542F9
:1015D00002D10132D2B2F1E75D7D7F2DF9D04D5DB0
:1015E0007F2DF6D9DD7D002DF3D06EB2002EF0DB1D
:1015F0000135DD74EDE770BD8BD303000300F7B553
:1016000000214B4A1333FF338218197004339A4276
:10161000FBD1FC2300249C462200844453B2002BBF
:1016200001DA444A78E063461F69BC4205D37F2350
:10163000443292001354012078E06346DE68355D41
:10164000602D01D9203DEDB2611CC9B28F4220D07E
:10165000735C602B01D9203BDBB2232D1CD1303BC6
:10166000092B01D9344A57E00234E1B28F4204D841
:10167000FF2BF7D843700C00D0E7745C2500303D99
:10168000092DF5D80A256B430131303BE318C9B267
:10169000ECE7232DE6D000230026F7B20197274F71
:1016A000F75DAF4212D1264FF75D2A2F0ED09F4231
:1016B0000CD1694693000979C318FF3359744178F6
:1016C000013202341975D2B2E1B2D4E70136512E9B
:1016D000E3D100231A4C1F5DDEB22A2F0CD1174F25
:1016E000FF5CAF4208D19300C318FF335E744478A7
:1016F00001321C75D2B2BEE70133512BEBD1114C34
:10170000493BE65CAE4204D0002B04D0013BDBB287
:10171000F7E7002B04D10C4A0C4B00201A6005E0BF
:1017200014004334A4000419A370A4E7FEBDC0460E
:10173000120300007AD403008CD40300E9D2030022
:101740003AD3030059D503009AD403005400002073
:1017500010B51130084A0949FF3003787F2B09D0B2
:1017600002240457002C01DCCB5C00E0D35C437006
:101770000430F2E710BDC046DCD3030009D50300F6
:10178000F0B5002489B00090009AA300D31802930A
:10179000FF335D7C7F2D00D1CAE0022065494A5DA0
:1017A000024201D10134C1E0012002424CD1221891
:1017B000D2B203922A18D2B204925F4A7D275219FC
:1017C00052780592DA7C1B7D0692C12292009446E3
:1017D0000793009B63441E000193039B9F4207DB1A
:1017E000301D3100042211F0C7FB013F043EF4E735
:1017F000009A9B00D3186A46127CFF335A746A46DB
:10180000127DA61C9A746A46127EF6B2DA746A4693
:10181000127F1A75AB1CDBB20393474B5D19AB7893
:101820007D250493029BFF33DA7C1F7D0292B54233
:101830006DDB019B0422181D190011F09DFB019B1B
:10184000013D043B0193F2E722000132D2B21300C2
:10185000009844339B001B5C002BF6D0621C7F2B4E
:1018600007D0C95C090702D4243B012B01D8D4B2AC
:101870008AE7D3B203936B1CDBB204932E4B7D2714
:101880005B195B780593029BFF33DA7C1B7D069224
:10189000C122920094460793009B63441E0001936B
:1018A000039B9F4207DB301D3100042211F064FBD3
:1018B000013F043EF4E7009A9B00D3186A46127C6D
:1018C000FF335A746A46127DA61C9A746A46127EC9
:1018D000F6B2DA746A46127F1A75AB1CDBB2039358
:1018E000154B5D19AB787D250493029BFF33DA7CA1
:1018F0001F7D0292B5420ADB019B0422181D1900CC
:1019000011F03AFB019B013D043B0193F2E7009B80
:10191000B6009E196B461B7BFF3673746B461B7CAF
:101920000334B3746B461B7A3775F374E4B22BE758
:1019300009B0F0BD8BD3030009D50300F0B5002634
:1019400087B00190019AB300D3180293FF335A7CF9
:10195000002A00D130E17F2A00D15BE11020AE499E
:10196000741C895C014227D0DA7C7D250492C12257
:101970001B7D8906C90F0593019B14319200E7B2C4
:1019800003919C18BD4207DB201D2100042211F0A9
:10199000F3FA013D043CF5E7019BBF00DF196B46FC
:1019A0001B7BFF377B740023BB746B461B7CFB7473
:1019B0006B461B7D3B75B1E04E2A01D1182602E033
:1019C0004F2A23D11B26DA7C7D2702920D225A74DE
:1019D000C1221B7D92000393019BE4B29D18A74294
:1019E00007DB281D2900042211F0C6FA013F043D3F
:1019F000F5E7019AA300D3180022FF339A746A46D0
:101A0000127A5E74DA746A46127BB4E0502A01D10D
:101A10001C26D8E77F20814334D0D97C002931D0DF
:101A2000E4B22100019844318900095C002929D1E0
:101A3000B11CC9B20391890041180D00FF35687CC3
:101A40007F281FD0744F385C7F27B8431AD0E97CB9
:101A5000002917D0C122019B92009E18023F039BD0
:101A6000BB4207DC301D3100042211F085FA013F32
:101A7000043EF4E71F236B740023AB74EB742B75E7
:101A800026005FE7741C172A13D1597B721ED2B24D
:101A9000452901D11B3902E0392902D10D39597389
:101AA0008EE05D4A525C7F218A4300D1B0E0122271
:101AB000ADE0182A07D15A7B57498A5C7F2A00D8A3
:101AC000A6E01322A3E0202A05D15A7B3C2A00D0AD
:101AD0009EE026229BE0482A09D15A7D7F2A03D026
:101AE0004D498A5C92060FD44B225A740CE03C2A72
:101AF0000AD15A7D7F2A00D18AE047498A5C920642
:101B000000D585E03F2282E05A7C4349895CC907C1
:101B100004D5597B20294BD10C3A78E0029B741CE8
:101B2000FF335A7C352A06D15A7B3C498A5C5207DE
:101B30006ED510226BE02A2A1FD1C1227D26DF7CC0
:101B40001B7D92000293019BE4B29D18A64207DB25
:101B5000281D2900042211F00FFA013E043DF5E78B
:101B6000019AA300D3182B22FF335A7400229A74CF
:101B70006A46DF74127A1A7582E72C2A18D1C122BC
:101B80007D26DF7C1B7D92000293019BE4B29D18B1
:101B9000A64207DB281D2900042211F0EDF9013EC1
:101BA000043DF5E7019AA300D318FF332D22DCE7AB
:101BB000452A04D0392A02D00136F4B260E7320057
:101BC0001100019843318900134B095C741C595C66
:101BD0007F291DD901320199D2B292008A18FF32B1
:101BE000517C002909D05B5C7F2B11D9D37C002B61
:101BF0000ED1029B1E22FF3309E0527D7F2A07D0BF
