:020000040000FA
:1000000000400020B5680100F1680100F3680100BC
:1000100000000000000000000000000000000000E0
:10002000000000000000000000000000F568010072
:100030000000000000000000F7680100F9680100FE
:10004000FB680100E1520100216D0100FB68010025
:10005000FB6801000000000089290000FB68010026
:10006000C92B0000FB6801004D290000FB6801005E
:10007000FB680100FB680100FB680100FB680100F0
:10008000FB6801007D720100FB680100FB68010054
:10009000FB68010065A2010041A20100112D0000D2
:1000A000212D0000FB68010000000000000000009E
:1000B0000000000000000000000000000000000040
:1000C000054B0648033310B51B1A062B03D9044B06
:1000D000002B00D0984710BD000100200001002037
:1000E000000000000648074910B5091A8910CB0F17
:1000F0005918491003D0044B002B00D0984710BD6D
:1001000000010020000100200000000010B5074C95
:100110002378002B09D1FFF7D3FF054B002B02D02A
:10012000044800E000BF0123237010BD000100203F
:1001300000000000C8EA0300094B10B5002B03D0F3
:100140000849094800E000BF08480368002B02D1B5
:10015000FFF7C8FF10BD064B002BF9D09847F7E713
:100160000000000004010020C8EA03000001002094
:1001700000000000144B002B00D1124B9D46402282
:1001800092029A1A924600218B460F461148124A53
:10019000121A22F08BFF0D4B002B00D098470C4B0E
:1001A000002B00D098470020002104000D000B48D0
:1001B00022F000F922F0DCFD200029002BF01FFFC7
:1001C00022F022F90000080000400020000000009A
:1001D0000000000000010020180A0020D5290200BC
:1001E00010B5102026F041FB0400034B08C029F095
:1001F00038FD200010BDC046E4F2020070B50D00CD
:10020000052826D81AF02CF905250D03141C080022
:1002100020E0081D29F057FE031E0F481AD00F4892
:1002200018E0081D2AF07FF901214000084311E081
:10023000FFF7D6FF291D0400043029F079FE06E0FF
:10024000FFF7CEFF291D0400043029F081FE2000B5
:1002500000E0002070BDC046482703008C27030043
:1002600070B5050083070CD1104B02689A4208D183
:10027000FFF7B6FF0400291D043029F04EFE2000D0
:1002800012E0280000F0DCFFC0231B06984205D1D5
:1002900080200021C00525F0B7FC05E0C317C01879
:1002A000584001234000184370BDC046E4F20200EC
:1002B00070B544006408051C211C201C1BF0E0F9EB
:1002C000002808D11149201C1AF0C2FA002808D0D1
:1002D0000F49104801E01049104805F06DFE12F07A
:1002E00040FB281C26F057FC002806D1281C1BF0D8
:1002F000DFF901244000204307E0FFF771FF04000D
:10030000291C043029F02CFD200070BDFFFF7F7FE9
:10031000E85C0300D8FB0200015D0300ACF60200BC
:1003200007B5C30701D540100DE0043001A910F056
:1003300043F9002801D0019805E00349034826F05D
:1003400084FE12F00EFB0EBD1A5D0300D8FB020006
:10035000F0B5060001208DB00C000092084007D0D7
:100360004B10022202A903A829F0BAFC03AD09E050
:1003700003230B4000D037E19C4A0968914200D02A
:1003800029E1251D009BDB0708D5009B02225B109D
:1003900002A903A829F0A4FC03AC1FE00323009AE0
:1003A0001A4208D10099914A09680191914202D1FB
:1003B000009B1C1D12E0009A1340022B00D00EE19E
:1003C0008B4B1340062B00D109E128002AF000F9DD
:1003D000009A011C300006F021FB05E1092E01D036
:1003E000162E16D1200029F06EFD00283DD12800E0
:1003F0002AF0EEF8051C20002AF0EAF8011C281C5F
:100400001AF0DAFC03239843013B1843794BC018D8
:10041000EAE0182E00D9BAE0FFF7E2FE070030004C
:100420001AF01EF86B716577770D11181EDB488E78
:10043000946B716577770D11181EDB488E00381D9F
:100440002200290050E0381D2200290029F053FE27
:100450003800C9E0381D2200290029F09EFFF7E787
:10046000200029F030FD002802D06349634857E09E
:1004700006A83E1D29F0F5FB23002A0006A930003E
:100480000FF038FF2A7823785340DB070ED506A8F3
:1004900029F019FD002809D1012109A8494229F0B4
:1004A00015FC09AA3100300029F0EAFD06A829F060
:1004B000E4FBCDE7200029F006FD0028D5D109A8EE
:1004C0003E1D29F0CEFB23002A00310009A80FF0C1
:1004D00011FF09A829F0D1FB2A7823785340DB07C4
:1004E000B6D522003100300029F0CAFDB0E7381D32
:1004F0002200290029F04CFEAAE7381D220029001D
:1005000029F0CAFEA4E7381D220029000FF07CFE66
:100510009EE70098FFF704FF021E05DA38493948C4
:1005200026F093FD12F01DFA381D2900032E01D08C
:10053000102E02D10FF0FAFD8AE729F040FD87E77F
:10054000381D2200290029F0ABFF81E7200029F0A7
:10055000BAFC002889D1FFF743FE3E1D009023001E
:100560002A00043031000FF0C5FE2A78237853406A
:10057000DB0704D522003100300029F081FD009B0B
:1005800009A9022009930A9703F010FB2CE021002F
:10059000280029F09DFC193E03000020042E23D8DA
:1005A000300019F05DFF0307130B0F001648002BF6
:1005B0001ADA0EE01448002B0BDC15E01248002B71
:1005C00012DC06E01048002B03DA0DE00E48002B89
:1005D0000AD10E4808E0180006E0002004E0009A66
:1005E0002100300004F010FB0DB0F0BDE4F2020079
:1005F000070080FF00008080475D030008FB0200C9
:10060000585D0300ACF602008C2703004827030066
:1006100010B54A68014927F0D3F910BD6D5D03009C
:1006200070B5150012680C008368002A09D1CC004F
:100630000621181D214311F0D5FA00281ED0436869
:100640001BE01A79180092070BD50D4A934215D179
:100650000C4E736C002B03D1012029F002F870645A
:10066000706C06216A68E4002143002A02D129F057
:100670003BF801E029F02EF800232B6070BDC04646
:10068000B8ED0200B8080020F8B50625C3001D43E8
:100690000700012229000C4811F0A4FA0600406866
:1006A000002810D10C3026F0E0F8084B040003605D
:1006B0004760012028F0D5FF2A00A0606E2129F0B4
:1006C00009F820007460F8BDDC080020A0E80200F2
:1006D00010B5032101480DF08DFD10BDD808002094
:1006E00010B50C000621C00001430122024811F0A0
:1006F00079FA446010BDC046DC08002073B50625B9
:10070000C3001D430600002229000F4811F06AFAB9
:10071000041E17D1020029000C4811F063FA041ED0
:1007200011D06A46082140680DF064FF009B002B41
:1007300008D000216A46080028F0FDFF61683000FB
:10074000FFF7CEFF606876BDDC080020DCE8020021
:10075000014B58687047C046B8080020014B186824
:100760007047C046B8080020F0B5194E87B033680E
:10077000050000200C00019328F073FF306000900A
:10078000206828F0C0FF019B07003360114E022D46
:1007900003D0A06800F06AFC0600210063680831FD
:1007A000A81E039303F002FA009B04900593002215
:1007B00003AB032130000DF09FFE074B04009F4266
:1007C00003D00100380028F0CAF9200007B0F0BDBE
:1007D000B80800208C29030078F10200F8B5032640
:1007E000050007003540022D15D10E4B0340062BA6
:1007F00011D0FF23DB05C418B443201C00211AF0DC
:1008000013F800280BD080231B06E018B043064BDA
:100810002843C01804E03800FFF722FD00E038004C
:10082000F8BDC046070080FF0000808010B50DF0C5
:100830005DFF040020000DF0A9FF002805D000F0A6
:100840003FFE0028F6D1024800E0024810BDC04635
:100850008C2703004827030010B50DF047FF040064
:1008600020000DF093FF002805D000F029FE00289D
:10087000F6D0024800E0024810BDC04648270300F9
:100880008C27030007B5044B019000226946022023
:1008900000930CF049FA0EBD0604000010B500F0FC
:1008A0006BFC034B002800D1024B180010BDC04662
:1008B000482703008C27030037B500F0C1FC01ABCB
:1008C0007F2802D8187001213CE021498209884222
:1008D0000AD8402149420A431A703F221040BF3AC9
:1008E0001043587042312DE01A49040B88420ED84B
:1008F000202149420C431C7080245F310A4064422D
:100900000840224320435A7098703C391AE012493B
:10091000884211D81025810C6D42294319703F215E
:10092000703D0C400A4008402C432A4328435C7029
:100930009A70D8703B3905E00849094826F085FBD4
:1009400012F00FF8012218000AF0CEFF3EBDC0469B
:10095000FF070000FFFF0000FFFF10007B5D0300AA
:10096000ACF6020010B5020002490A200DF050FF5B
:1009700010BDC046BE04000010B5020002490A20A6
:100980000DF046FF10BDC0463E050000F0B585B035
:10099000019202900C00002232490198039311F059
:1009A00021F90090002801D043680093029B012B9D
:1009B00003D000252E0001953CE0206800240DF0B6
:1009C00095FE2700029002980DF0E0FE051E17D05C
:1009D000009B2E00002B04D02900180028F09AFE5E
:1009E0000600002C09D03A00310003980DF010FFEA
:1009F0001D4B984201D025003E002C003700E2E755
:100A0000221E2BD11949019811F0ECF8002801D0D1
:100A1000426823E01649174826F017FB11F0A1FFA2
:100A2000009B002B0AD12768002E0DD12668019764
:100A300001350434029B9D42F2D10EE021680098FA
:100A400028F068FE0700EFE7019A390003980DF0DF
:100A5000DFFE054B9842EBD1E8E73200100005B00D
:100A6000F0BDC046D6060000482703001E05000062
:100A70009C5D0300ACF6020037B501A905000BF040
:100A8000E3FB1E4B04002B40062B05D0AB072AD1FD
:100A90001B4B2A689A4226D10199200028F0D9FEE2
:100AA0000190012822D1207843B2002B04DB0123DE
:100AB00020784000184320E07F23013418403F3B5A
:100AC000034202D098435B10FAE73F2223781900D3
:100AD0009143802904D18001134001341843F5E784
:100AE00025F0A1F809E0019B012BE0D0019A05490E
:100AF000054805F061FA11F034FF3EBD070080FFA4
:100B0000A4130300B55D03009CFB0200F0B51400C4
:100B100087B00290039100222349200011F062F86F
:100B2000002205002149200011F05CF80123040097
:100B3000049305931E4F002D07D068681D4B984203
:100B400003D004A90BF080FB07001B4E002C07D03C
:100B50006068184B984203D005A90BF075FB06009E
:100B60000024029B154D9C4212D0002C07D000237C
:100B7000049A019300933900280007F0B3FC03990D
:100B8000A3000022C958280000F08AFA0134E8E7DF
:100B90000023059A019300933100280007F0A2FC7E
:100BA000044807B0F0BDC046EE050000F6050000A1
:100BB000BDE0030078F102008365030088100300A4
:100BC0007FB50D4D0400A84213D00C4E0122010048
:100BD000300000F065FA0A49300026F020FE0423B8
:100BE0000293084B0394DB6902AA03210648019390
:100BF0009847280004B070BD78F102008810030007
:100C000083650300A0E80200E4E9020010B50400D7
:100C100086B06A4602A8102107F016F901222100C9
:100C2000684600F03DFA02A902480AF027FE06B025
:100C300010BDC046A413030070B50C68030020006B
:100C4000E2074AD4A20703D1244A2568954244D03A
:100C5000012B1FD9486800F0F3FA0600200000F0CD
:100C600053FB051C30001AF045FD011C1C481DF00B
:100C70004DFC011C041C281C1AF068FA1DF0F0F849
:100C8000211C1AF099F803239843013B1843154B94
:100C9000C01822E0200000F037FB051C1DF0E0F832
:100CA000061C1AF005FD311C0400281C1AF062FB1A
:100CB000FC218905051C19F0B1FD002801D0013483
:100CC00006E0BF21281C090619F0A8FD002801D064
:100CD00001239C43200024F0A6FF70BDE4F2020033
:100CE000000020410000808013B5040008000AF0D5
:100CF0001DFE6A46010020000DF07CFC009B0248AE
:100D0000002B00D1014816BD482703008C270300A3
:100D100037B50024022800D98C6848680D680AF0AD
:100D200005FE094B0100002C00D0084B28006A4644
:100D300098470098002805D00199002903D004F0B5
:100D4000EBF800E020003EBD55E60000F5E50000B0
:100D500070B50400080015000AF0E8FD2A00010043
:100D600020000DF09FFC014870BDC04678F10200E4
:100D700010B50DF0E3FC002804D1034826F058F923
:100D800011F0EFFD10BDC04658F9020030B50B0060
:100D900085B01400012805D90A490B4826F055F9F9
:100DA00011F0DFFD09480121C2680192019D002276
:100DB000A8472200039003A9012010F0EBFB039841
:100DC00005B030BDEF5D03009CFB0200382B030033
:100DD000F8B50E00002803D1294B04001D6821E05E
:100DE000086883070AD10368264A934203D124F096
:100DF0006BFF05000CE0244A934201D000F036F965
:100E0000856B002D04D0214B2A689A4200D0002522
:100E1000306800F02BF91E4BC26800249A4201D1C1
:100E2000346804340021080029F0FCFE0027060085
:100E3000002D09D10025002C16D11FE0EA68FB0027
:100E40009958002904D10137AB689F42F6D3F1E7E6
:100E50000429F8D0300010F039FBF4E7A268EB0069
:100E60009958002904D1013563689D42F6D305E005
:100E70000429F8D0300010F029FBF4E73000F8BD69
:100E8000B8080020A0E802008C2903002C240300ED
:100E9000C90F010070B504000D00104926F0BFFC19
:100EA00069680122200000F0FBF80D4E200031009F
:100EB00026F0B5FCA9680122200000F0F1F831000D
:100EC000200026F0ACFCE9680122200000F0E8F8E0
:100ED0000449200026F0A3FC70BDC0461A5E030042
:100EE000215E0300A35F030070B5060010200D0013
:100EF000140025F0BAFC034B466085600360C460B3
:100F000070BDC04634EE0200A3230021024A5B00FC
:100F10000248D1527047C046B808002078F102005C
:100F2000A3230121024A5B000248D1527047C04608
:100F3000B808002078F10200A323044A5B00D35ACA
:100F40000348002B00D103487047C046B808002072
:100F5000482703008C27030010B50EF075FA0148EE
:100F600010BDC04678F1020010B5040000F052F840
:100F7000074B0200A4331B680649074826F020FDF2
:100F800001F0C4FB012C01D101F0E0FB034810BDCE
:100F9000B8080020245E03008810030078F10200E6
:100FA00010B501F0C3F8014810BDC04678F1020049
:100FB00010B501F0B1F8014810BDC04678F102004B
:100FC00010B586B0040005AB04AA03A902A806F078
:100FD00015F8059B029A0193049B06490093064865
:100FE000039B26F0EDFC012C01D106F043F80348E9
:100FF00006B010BD395E03008810030078F10200CE
:10100000034B82B001AAA0331A6002B07047C046F9
:10101000B8080020034B82B0A0331B6801A8181A3F
:1010200002B07047B8080020014BA4331860704725
:10103000B808002010B50349034825F0FFFF11F060
:1010400090FCC04626090000E8F60200064B07B5F2
:101050001A00A033A4321B68126801A95B1A9A42D5
:1010600001D8FFF7E7FF07BDB8080020084BC2070B
:101070000BD4084A084B0240062A06D0032303403B
:10108000022B01D1054B00E0036818007047C046F1
:10109000E4F20200070080FFA41303006CFD0200CD
:1010A00070B50D0004001600FFF7D0FF2800FFF711
:1010B000DDFF8368002B04D0320029002000984710
:1010C00004E042680249200026F07AFC70BDC04668
:1010D000815E030010B50A0001000248FFF7E0FF3F
:1010E00010BDC04688100300F7B5050008000E00CB
:1010F00025F0AFFF00282BD001AA6946300005F08B
:1011000001F8009B002B23D01649280026F087FB0E
:10111000009C154BE71EE418A400002F18DB019A71
:10112000124913195B681259280026F049FC019BEB
:101130001B199A68002A04D10D49280026F06FFB7C
:1011400003E00C49280026F03BFC033F0C3CE4E79D
:10115000310028000222FFF7A3FF2800044926F0EF
:101160005EFBF7BD865E0300FDFFFF3FAA5E030046
:1011700083650300BF5E030010B50400FFF776FF30
:10118000054B0069984203D0431E9841C0B202E06B
:10119000200029F06AFC10BD5511010070B5050052
:1011A0000C0001208D4241D0214B9D4201D10020F5
:1011B0003CE09942FBD001231D4204D01942F6D1F4
:1011C0002B000D001C002A001A4B1A40062A05D0DD
:1011D000AA0711D1184A296891420DD12340062B44
:1011E00005D0A307E3D1144B22689A42DFD1210036
:1011F00028000AF0D9FF19E02340062BD7D0A30717
:1012000003D10D4B22689A42D1D02800FFF72EFF60
:101210008369002BCBD0220029001B20984700288F
:10122000C5D0064BC01A42424241D0B270BDC04642
:1012300078F10200070080FFA41303004827030091
:10124000104B10B5984219D00F4A0123904217D085
:10125000184201D0184114E0830706D10B4B0268F5
:101260009A4202D1FFF75CF80BE024F09AFD08499E
:101270000200084804F0A0FE11F073FB002000E01B
:10128000180010BD8C27030048270300E4F2020079
:10129000C85E03009CFB020010B5C30705D483079A
:1012A00006D1054B02689A4202D124F0F9FC01E014
:1012B000FFF7C6FF10BDC046E4F202000F4B70B549
:1012C0000D000124984202D100230B6012E00C4B68
:1012D000984201D10C600DE00300234001D0401082
:1012E00007E0820707D1074A0168914203D1FFF75F
:1012F00017F828602300180070BDC0468C27030033
:1013000048270300E4F20200184B10B5984228D099
:10131000174B984227D0C30703D540101AF0EAF9BB
:1013200023E00323184206D1124A0168914202D1F8
:1013300024F0BFFC19E00340022B09D10E4B0340FF
:10134000062B05D0FF23DB05C018032398430CE0D0
:1013500024F027FD09490200094804F02DFE11F090
:1013600000FB002001E0FE20800510BD8C2703005B
:1013700048270300E4F20200070080FFE05E03005C
:101380009CFB020010B583070CD103680A4CA342F2
:1013900002D125F0FAFA0EE0084CA34202D129F05E
:1013A00058FC08E024F0FDFC05490200054804F063
:1013B00003FE11F0D6FA10BDD4F10200382B030061
:1013C000FA5E03009CFB020013B50C0001A9FFF7B5
:1013D000D9FF019BA34206D022000349034804F031
:1013E000EBFD11F0BEFA13BD1D5F0300ACF6020069
:1013F000F7B505000C0017001E00D30702D55710E3
:10140000019710E001A91000FFF758FF00280AD14A
:1014100038006C6824F0C5FC220003001249134810
:1014200004F0CAFD1BE0019B002B08DA1B19019395
:10143000002E0AD0002B04DA0023019311E0002EC5
:1014400003D09C420DD201940BE0019B002B01DBE9
:101450009C4206D86A680649064804F0ADFD11F0C2
:1014600080FA0198FEBDC0464A5F03009CFB020063
:101470006E5F030008F8020010B50400830710D166
:101480000D4B02689A420CD10C4B0340062B03D142
:10149000C00825F088FF00E0806801234000184361
:1014A00008E02000FFF7E2FD4369181E02D021008A
:1014B0000120984710BDC04624210300070080FF8B
:1014C000164B70B5040000209C4226D0144DAC424F
:1014D00001D1012021E0134B00209C421DD00126A8
:1014E0002640864201D0601014E02000FFF7BEFDC8
:1014F0004369002B08D0210030009847002803D012
:10150000401B4342584107E02000FFF7B5FF002889
:10151000DFD00138431E9841C0B270BD8C27030054
:101520004827030078F1020010B50400FFF7A4FF7C
:10153000002809D1200024F034FC044902000448AA
:1015400004F03AFD11F00DFA10BDC046845F0300AF
:101550009CFB020070B504000D001600FFF786FD2D
:10156000036A002B05D0320029002000984700288C
:1015700018D10D4D2000002E04D124F012FC0B498F
:10158000020005E0042E08D124F00BFC02000849FB
:10159000280004F011FD11F0E4F924F002FC0549E3
:1015A0000200F5E770BDC0469CFB0200A55F03008A
:1015B000D05F0300F15F030010B524F008FC0028A1
:1015C00005D10349034825F040FD11F0CAF910BDCB
:1015D0001E6003009CFB020010B504000C2025F0E7
:1015E00044F9034B4460036001235B42836010BDF8
:1015F000A0EF020070B51500040024F068FC2A007A
:101600000249200024F013FC70BDC046B15E020008
:1016100070B543790D000024032B06D9836A074C6B
:101620009200E41AC369D358E418032124F040FC63
:10163000447024120570847070BDC046FD7F0000A8
:10164000F7B500230400617183608371E260036178
:1016500001330F0015004361032906D80121836976
:1016600049429A00C06921F021FD0023A362236250
:101670002A8C6B8CD3180122002B00D01A00384E14
:101680002000310024F0D3FBAA8C3100200024F08C
:10169000CEFBE3682000197E24F003FCE368200001
:1016A000997E24F0FEFBE3682000197F24F0F9FB0B
:1016B000E3682000997F24F0F4FB042F07D1636ACC
:1016C000226A31009A1A200024F0B1FB03E00221C3
:1016D000200024F0DAFB31002A69200024F0A7FB67
:1016E0003100EA68200024F0A2FB00262B8D9E42E8
:1016F0000BDAEA6AF300D3181A78032A03D199782F
:10170000200024F0E4FB0136F0E7FF21200024F064
:10171000DEFB042F22D10022688BAB8BC0188242E3
:101720001CD000212B8D0193019B99420DDA0127DA
:10173000EE6ACB00F3185E783E4204D05E88B24277
:1017400001D15B6802E00131EEE702230626DB00EF
:101750003343666B91008B510132E0E7F7BDC04621
:101760008B5E020013B543790400012B2ED08268F2
:10177000002A03D01649174826F022F9002120003C
:1017800024F08FFB6379032B13D1226AD01C98437A
:10179000A36A20626062E362C01825F078F8E3680B
:1017A0002063588B9B8BC018800025F070F8606315
:1017B0000CE0042B0AD1E068636AE26A216B9A1894
:1017C000037E00934069636B03F056FA13BDC04675
:1017D0004360030088100300F7B5224B0600A833CE
:1017E0001B680191022B3BD844698C4238D2836A32
:1017F00002690C1B9D1A23002B432DD00095062C4B
:1018000010D81F2D01D91F2300932700032C00D9C6
:1018100003270121300024F038FB009A7B01134399
:10182000037015E00F2D01D90F2300930E4B2700F5
:101830009C4200D91F000221300024F026FB7022B8
:101840003B0900991340F03A0A4313430370477071
:10185000009BE41BED1ACEE7B36A3361019B736111
:10186000F7BDC046B8080020FF07000070B50D00A6
:101870000121040024F0FBFA0F2D05D0102D05D016
:1018800010210E2D07D102E0112100E012212000CD
:1018900024F01DFB04E0034A1721200024F0B6FBCE
:1018A00070BDC046F0F50200F8B506000D00141E2C
:1018B000124F11D1110024F0DAFA80231B021D42CD
:1018C00003D03221300024F002FB2A0035213A40B7
:1018D0003000FFF79DFE0FE03A000A404621FFF777
:1018E00097FE80231B021D406A1E9541ED012C438B
:1018F000E1B2300024F0EBFAF8BDC046FF7FFFFFF5
:10190000F0B5050089B002AFB96016003B60FFF783
:101910009DFBAB687B611423F81825F0BCFE1423F3
:101920007860F81825F0B7FE032358437B68C01889
:101930008300FB602C2B0AD86B46F8682A30C0085D
:10194000C0001B1A9D46002302ACFB6005E0F8684E
:101950001C3024F097FF041EEED0AA687B69290092
:101960009B1A63607B682000A3613B680093BA68A0
:10197000330006F0D3FA184E00217368200063612B
:101980006B68736001F006FA6369B86073600028E1
:1019900002D0022803D00BE0E3681D6809E07B68F1
:1019A00005339B00E3185D68FB68002B06D10BE054
:1019B0000A4DFB68002B0AD00023BB60200024F0F6
:1019C0007BFFBB68002B02D0280010F0CAFF280064
:1019D000BD4607B0F0BDC046B808002078F102004F
:1019E0000122030030B5134085B004004510002BE0
:1019F0004DD128491D00884249D02749884246D008
:101A0000264B1500984242D00323034006D1244AB6
:101A10000168914202D124F043F90EE0214A2500E9
:101A20002240062A05D0002B09D11F4B22689A427A
:101A300005D101A920000AF007FC050027E02000DD
:101A4000FFF714FB194B984207D1FF23DB05E01881
:101A50000323984319F02CFEEFE7154B984205D16C
:101A600001AA6946200024F090FF0FE0114B984234
:101A700005D101AA6946200029F0EBF806E0022210
:101A800001A9200024F0A3F9002800D0019D28001E
:101A900005B030BD78F102008C2703004827030011
:101AA000E4F20200070080FFA41303006CFD0200B3
:101AB000D4F10200382B0300F7B506000F000092A6
:101AC0000193041E00D044683800431E984120183A
:101AD0000430800024F0C9FE0C4B050003600C4B61
:101AE0005B684360009B8360019BC360002E05D050
:101AF0003100A2000831103021F04EFA002F02D040
:101B00000434A40067512800FEBDC04684F00200E2
:101B1000B808002070B5060010200D00140024F055
:101B2000A4FE034B466085600360C46070BDC04680
:101B30000CF002000379044AD35C002B00D18379B6
:101B40000248DB00C0187047FA070020C0F002000E
:101B500010B50400FFF7EEFF22790368024903483D
:101B600004F02AFA10F0FDFE6F600300ACF60200EC
:101B700010B50400FFF7DEFF034B42689A4202D122
:101B80002000FFF7E5FF10BD511B0000002803D027
:101B900001210379014AD1547047C046FA07002059
:101BA00010B5FFF7C7FF43680248181A431E984153
:101BB000C0B210BD511B000070B505000C00FFF74E
:101BC000B9FF0600A0420BD02800FFF7DFFF7368C3
:101BD00028009847034A2B79A41A034AE410D454E6
:101BE00070BDC046C0F00200FA07002010B5040026
:101BF000002906D0044B8A6B03600968002304F0B7
:101C000049FA200010F0ADFE14FC0200F0B504000B
:101C100087B0039202936718002A0ED0023A222A54
:101C20000BD93C493C4825F010FA10F09AFE207878
:101C30000DF07EFC00285DD00134BC42F7D30023B8
:101C40000093391B200003AA24F03DFE23181D0039
:101C500000240193BD420ED22E7830000DF080FC9E
:101C6000039B002805D032002F3A9A4201DC303E17
:101C70000DE0102B04D0009B002B16D0644214E022
:101C800020231E433300613B052BF4D8573E0399B4
:101C9000200000F075F9002819D1039B5C43A419BA
:101CA0006300634013D40135D4E7012364001C436F
:101CB000019B9D4216D0BD4206D228780DF038FC1B
:101CC00000280FD00135F6E7BD421FD00AE0019B86
:101CD000009A0593F91A05A8039B23F0CAFF059DF6
:101CE0000400E5E70D49039A0B4804F065F90299F1
:101CF000FFF77CFF23782B2B02D101340090A0E763
:101D000000902D2B9DD101342C3B99E7200007B08A
:101D1000F0BDC04681600300ACF60200A460030081
:101D2000F0B504008BB00993431808920193019B0E
:101D30009C4206D220780DF0FBFB002874D00134C1
:101D4000F5E7002304930027844B25000793002325
:101D50003E0006970293019B9D4262D26B1C039347
:101D60002B781A00303A0592092A2BD8022E03D17B
:101D70000A237B439F1852E0012E15D1059819F0D4
:101D800001FD079919F0E2F9011C029818F09EFE76
:101D9000029007981BF0CAFA714A724B1AF080FC45
:101DA0001BF018FB07903AE06F49029819F0CEF942
:101DB000051C059819F0E6FC291C18F087FE002682
:101DC00002902CE0002E02D12E2B02D126E0022E12
:101DD00019D020221A43652A15D1019B039A9342F8
:101DE0000BD96B782B2B02D1AB1C039305E02D2B69
:101DF00003D1AB1C039301230693039B019A9342E7
:101E000070D002260BE00026089AB2421CD0202295
:101E100013436A2B18D1039D013615E00126039D5B
:101E200099E723002C000CE023782B2B61D101349F
:101E30000490019B9C4217D30027002223000697A1
:101E40000292250000261C00069B002B00D07F423A
:101E5000380019F04FFC011C43481CF057FB029955
:101E600019F074F9071C16E0202322781A43692A16
:101E700015D06E2A00D066E70199A21C914212D9B2
:101E800062781A43612A0ED1A27813436E2B0AD1CD
:101E90000026364FE51C049B002B0DD009E001996C
:101EA000A21C91422CD8049B002B1BD0250000269D
:101EB000002780231B06FF18A54213D0019B9D42DB
:101EC00006D228780DF034FB00280BD00135F5E759
:101ED000019B9D4206D1002E02D1099B002B34D0DC
:101EE000234900E02349244825F0AFF81099FFF773
:101EF0007DFE04902D2BB7D12C3B0134049398E741
:101F000062781A436E2ACED1A2781A43662ACAD1C1
:101F1000E21DE51C914214D9E2781A43692A10D1D6
:101F200022791A436E2A0CD162791A43692A08D1A0
:101F3000A2791A43742A04D1E2791343792B00D190
:101F40000535FF270026FF05A5E7032302209F4351
:101F50000A4B3843C0180BB0F0BDC046CDCCCC3DC9
:101F60009A9999999999B93F000020410000C07F42
:101F7000CC600300E9600300ACF602000000808042
:101F800070B506000D00002811DD002906DD15489A
:101F900018F00EFB0124864213DC11E00100C02082
:101FA000000618F005FB012485420ADB08E0002941
:101FB00009DDC020000618F0FBFA0124864200DB90
:101FC0000024E4B20BE00024A04208D00100054840
:101FD00018F0EEFA0123854200DB231CDCB220005E
:101FE00070BDC046FFFFFF3F314BF7B5B43303214F
:101FF0009C462F4A2F48FC32536C834257D9043BEE
:1020000053641A682A4B501CAC331E6805008308C1
:10201000F35C0D406D002B41841A0B400130022B04
:10202000F4D063461B6812019B18240100932048DA
:10203000A3080193019B002BDBD0009B1C680F239E
:102040001C422DD11C4B1B689C4229D30500B8357E
:102050002D68AC4224D20F220500E41AE317134086
:102060001B19AC351B112D689C082D192E781F00EB
:1020700034000F407F003C410C40012C10D10A007D
:10208000BA4016432E700600FC36756C0B4FBD42ED
:1020900003D22C1D74642B6002E00300BC331C606F
:1020A000019B013B0193009B04330093C2E7F7BD02
:1020B000B8080020780900206C090020F8090020E9
:1020C0000F23994370B506000D00081A412118F03E
:1020D000E5F9104C02002300B03318602300210002
:1020E000AC331E608301EB1AB4310B602300300067
:1020F000B83300211D6020F0D9FF22000023FC32FC
:10210000D364A2225200A352443A4733FF3AFF332A
:10211000E25270BDB8080020A222034952008B5A37
:1021200001338B527047C046B8080020A2220349F1
:1021300052008B5A013B8B527047C046B8080020B2
:10214000A223034A5B00D05A431E9841C0B2704795
:10215000B8080020F0B50024032585B00290039153
:10216000039B9C423DD0029AA300D3580F221342F6
:1021700033D11D4A1100B43109688B422DD31000B0
:10218000B8300068834228D20F20591ACB17034079
:1021900010005B18AC301B1100689908401819003A
:1021A000294049008C46077866463900314129406C
:1021B0000191012911D161462E008E4037430770ED
:1021C0001700FC37786C0949884203D2021D7A64F3
:1021D000036002E0019BBC321360FFF705FF01348E
:1021E000BEE705B0F0BDC046B8080020F8090020E1
:1021F00010B5FFF791FF064800220300BC331A60B8
:102200000300044AFC3328215A64FFF7A3FF10BDE2
:10221000B808002078090020F8B503262C4C0025CA
:102220002200BC321368AB4220D023001560294A3B
:10223000FC335A642300B0331B689B009D42EDD2EF
:102240002200AC321268AB08D35C2A003240520044
:1022500013413340032B07D12200FC32536C191D6C
:1022600051641D60FFF7C0FE0135E3E702221E0046
:10227000032794462200B03212689200934221D282
:102280002200AC3212689908521811781D0008001B
:102290003D406D0028413840022805D003280AD06F
:1022A00001280DD1060001E0002E09D00320A8402E
:1022B0008143117004E06046A840002681431170FC
:1022C0000133D7E70023FC34E364FFF72FFFF8BDA9
:1022D000B808002078090020264AF0B51300110044
:1022E000B833B43109681B6803265B1A1100036018
:1022F0000023B0310C681900AC321568436083606C
:10230000C36003614361A400A1422CD00F008A087E
:10231000AA5C37407F003A413240012A12D8012B93
:1023200003D1C7680137C76004E0022B02D10769F7
:10233000013707614769BB4200D94361012A0CD0CC
:10234000002A06D0022A0CD14268013301324260D1
:1023500007E083680133836002E043680133436030
:1023600013000131D0E743681B01436083681B0100
:102370008360F0BDB8080020F7B5A222424B52009E
:102380009D5A0F3004091F00002D01D000207AE073
:10239000002CFBD0A3235B00F95A4A424A41019228
:1023A0003A00B03212683B0094463A003026FC33C3
:1023B000AC32DB6C1068634528D20321C25C0A4250
:1023C00004D10135A54202D39B0027E000250C2152
:1023D0000A4205D10135A54203D39B0001331DE01C
:1023E0000025324205D10135A54203D39B000233BB
:1023F00014E000253F218A4305D10135A54203D3CE
:102400009B0003330AE000250133D4E7019B002B36
:10241000BCD10DF019F801230193C1E7591B4C1CE5
:10242000012D04D13D005A1CFC359208EA64A20833
:10243000801826000322012516407600B540067854
:10244000023135433E000570AC3601928B420DD30C
:102450000D00326888081018019A013115400222D7
:102460006D00AA40057815430570EFE73A00B432D5
:102470001568210101336D181A1B12010021280073
:1024800020F014FE2800FEBDB8080020A22330B5BD
:10249000214A5B00D35A002B3CD10F21084239D18D
:1024A0001300B4331B68984234D31400B834246842
:1024B000A0422FD2C31AD8170840C0181300AC335B
:1024C00000111B6881085C5C050003231D406D0042
:1024D0002C412340012B1DD11300FC33DC6CA142A5
:1024E00000D2D9640321AC3214688308E3180400D5
:1024F0000D000C406400A5401C780130AC431C70FA
:1025000014688308E35C04000C40640023410B4022
:10251000022BE9D030BDC046B808002070B50F24AA
:102520000200204029D116490B00B4331B689A429F
:1025300024D30D00B8352D68AA421FD2D21AD31762
:1025400023409A18AC3113110D689A08A95C1C003D
:102550000322144064002141114001290ED15C1C6A
:102560002600A108695C164076003141E01A11404E
:1025700001340229F4D0000100E0002070BDC04603
:10258000B8080020A223F0B50600002085B05E4FF9
:1025900002925B000D00F95A814200D0B2E08642FF
:1025A00004D131002800FFF7E7FEABE0002D00D199
:1025B000A4E00F2233000800134000D0A2E039004D
:1025C000B4310C681800A64200D29BE03900B83143
:1025D00009688E4200D395E0311BC817024052189B
:1025E000121100923A00AC32126800980192009ADF
:1025F000019992088A5C0321014049000A410321A4
:1026000018000A40012A7DD129000F310909B0378D
:102610008C46140039680327890003910099013121
:10262000039A914213D201988A08825C08003840CC
:10263000400002413A40022A01D1013405E0002A5B
:1026400005D10133E218944501D90131E8E7644529
:1026500045D022D9009BAC2263441900944608005F
:10266000009BA93A1B190093274B9C4465462D6893
:1026700084082C190500170015406D00AF4025781F
:102680000130BD432570009CA042EFD1FC33DA6CD1
:102690008908914223D2D96421E01B199C4520D896
:1026A0000325009B1849E318AC31009A6244934219
:1026B0000CD208689A0882181800022728404000A7
:1026C00087401078013338431070EEE76346191BDA
:1026D00009012201B0180A00002120F0E7FC3000B7
:1026E00010E0029800280DD028000021FFF744FEDA
:1026F000051E07D02201310020F04EFC3000FFF70C
:10270000C5FE280005B0F0BDB808002010B58AB09D
:1027100004A8FFF7E1FD069B094C03930093049A7C
:10272000059B0849200025F04BF9099B079A039364
:1027300000930549089B200025F042F90AB010BD1E
:10274000881003000361030026610300F8B53E4DC5
:102750003E4E2B00B4331A683D49300025F030F965
:1027600000242B00B0331B689B009C4223D23F22E5
:10277000144230D12A002700AC3210680321BA0875
:10278000825C394049000A4103210A4202D10137E3
:10279000BB42F3D83A1B7F2A12D992092D49300047
:1027A00025F00EF93C003F239C432B00B0331B68FF
:1027B0009B009C4204D33000274925F030F8F8BD37
:1027C0002A00B43212682301D2181203120B2349D3
:1027D000300025F0F5F82A00AC321268A308D35C6B
:1027E0000322224052001341032213407132022B74
:1027F00023D0073A032B20D02E22012B1DD12B00F2
:10280000B4331B682201D358154954228B4214D08B
:102810001449083A8B4210D01349083A8B420CD025
:10282000124902328B4208D01149043A8B4204D03B
:1028300010490B328B4200D01B320F49300025F07B
:10284000BFF801348DE7C046B808002088100300A7
:102850005A61030075610300836503009161030001
:10286000D4F10200382B03002C2403006CFD02007D
:1028700084F00200A0E8020021C50300014B1860AB
:1028800001487047AC08002078F10200F8B5070055
:10289000FEF7D6FC102805D02349244824F0D5FBA8
:1028A00010F05FF8A1220021214BD200A2259950FF
:1028B0000922ED005A51802080228000D2021A5055
:1028C0001C48C1241950A9211F20A400C900585038
:1028D0001A518022C023C220174ED2005B00F25052
:1028E000800033589C466146144B0B40C0210904BC
:1028F0000B433350C0235B00F25038003260FEF7C8
:102900009FFC0300A0220C21C133FF339B00D205A2
:102910009950402301223360094B00021843094BB0
:10292000585109481A51F8BD996103009CFB0200F7
:1029300000A000400405000000E100E0FFFF00FFF0
:10294000010002000060004078F102000B4B0C48CF
:102950001A68C16C013210B51A600A4B012907D1FF
:10296000C124A4001C59640302D50024C464D960A6
:10297000C82A02DD01225A60DA6010BD240100205D
:10298000FCA0004000A00040F7B5484B5A680193F6
:10299000012A00D088E0C12345499B00CB5813424F
:1029A00000D181E0434C444E23683C2B09DD0023D9
:1029B00042490B8042494A60CA60424A23603370F0
:1029C00013703378002B08D101223D493270236007
:1029D000CA600A603C4A136063E03C4D22682B7871
:1029E0003B4F01332B7000230D2A07D12B7023603E
:1029F0003449334B0C3A0A70DA6024E0012A03D1DF
:102A00002F492360CA6005E0022A05D12360012313
:102A10002B4AD3603B7016E00B2A14D10121284ABF
:102A200023605160D1602B4A337013785B18DBB29E
:102A30001370052B07D9284B1A68284B1968284BA7
:102A4000186826F06FFE3B78012B06D12A782549BD
:102A5000013A93400A6813430B602B78202B20D156
:102A6000002301211B4A1370154A5160D1601D4A91
:102A700023601068114C010C21801B4913600880F1
:102A800080B2337023F0CFF8144D2860208823F0F3
:102A9000CAF8114B02001860114B2968186826F01B
:102AA00041FE0023019A5360F7BDC046FC60004020
:102AB00000600040240100201C080020EE070020D8
:102AC00000A000401A0800201C0100201E08002061
:102AD0001B0800201D080020B4080020B0080020BA
:102AE000AC08002020010020EC0700208022044BCD
:102AF00052001A600123034A1360034A13607047AF
:102B000000E100E00C8C0040008000408022054B7A
:102B10005200DA67044BFF3A5A600022034B1A60F6
:102B20007047C04604E100E0008000400C8C00408B
:102B300070B501251D4B1E4C18601E4BE550C0465C
:102B4000FFF7E4FF1C4A1D4BE560E2500023022121
:102B50001B4AC220A3500432A15049180832A15088
:102B60008021C12209039200A150053AFF21FF3ABA
:102B7000A3504024134B80001A588A4322438024D8
:102B80001A500C301A5824061202120A22431A5004
:102B900004301A588A433F390A431A5080221204DB
:102BA0001A60802252041A6070BDC04628010020BD
:102BB00000800040FC0F0000701700004C05000072
:102BC0000405000000E100E070B5224C224D636C6A
:102BD000002B0AD000236364204B1B689847A8226F
:102BE000D200AB580001C018A850A36C1A4D002B9E
:102BF0000AD00022174B9A64184B5B689847184A12
:102C00000001AB58C018A850E36C134D002B0BD03B
:102C10000022104BDA64114B9B689847A922D2001E
:102C2000AB580001C018A850236D0B49002B0FD0E2
:102C30000022084B0B481A650B4A8B581B188B5007
:102C40000A4A1368063313608022094B12045A6043
:102C500070BDC046FC8000400080004004000020A1
:102C600044050000701700004C0500001807002004
:102C7000FCE100E0F7B50191032824D8134B800054
:102C8000C758C223124D9B00EF50012344192364FF
:102C9000A823DB00E6589C460E4BEB58D21A92193B
:102CA000D61731000F260E40B218019912110A4EA4
:102CB000013281511201C121D318624689006F503F
:102CC0000020A35001E001204042FEBD6CF1020053
:102CD000008000404C0500000400002003280BD8B1
:102CE000074B8000C158C223064A9B00D150064AB8
:102CF000064BC250002001E0012040427047C04610
:102D00006CF1020000800040C16802000400002055
:102D100010B5024B1B68984710BDC0462801002023
:102D200010B50024054AA358002B02D00021A15061
:102D300098470434102CF5D110BDC0462C0100205A
:102D4000074A89008B58002B06D188508021054AFC
:102D500049045160180001E0012040427047C0461C
:102D60002C010020FCE100E0054B002805D00023E9
:102D7000022802D101224B00134318007047C046BD
:102D80008C27030010B5024924F049FD10BDC04650
:102D9000116E0300F0B5836999B05A1E04925A1D52
:102DA000920082180432029202009B001C320791AA
:102DB000D3180F21012203930369019006A81A403A
:102DC00009180A70032293430A930CA80FF0AEFD72
:102DD000031E01D000F0BAFD019A5568D468079A25
:102DE000002A2CD02A785E2A29D00798079300F071
:102DF000E6FC7B783A781B021343BA4A9B18FB180F
:102E00006360EB78083423600F267F2102200125C0
:102E100006AA2368B6180B4200D1C3E20A9A013B06
:102E20005268024200D1B5E2220008C20523636065
:102E300014000A9B1F680A9B0C3B0A933D00019BF0
:102E40006F1C5D602B78180010385A2801D900F0EB
:102E50002DFD17F00FFB5B005D0062002B05640089
:102E60002B057400830089002B058B00A100B300A3
:102E7000C300D300E200F300F80000010F012401B9
:102E80003501530164016D0181019A01A8012B05EF
:102E90002B052B052B05B601B8014205BF01C50165
:102EA000CF01D701E501F301FF012B052B052B0510
:102EB0000D023D02AE02AE02CB02E102E502F602D5
:102EC000F602CEFF2B052B052B052B052B052B051D
:102ED0002B052B052B050203150327033903480394
:102EE0005103670379039103AF03C2037104A20482
:102EF000C804B7042B05DA03E503F003F90309045A
:102F000025043C045804040515052605764B00E00D
:102F1000764B6360043400F00DFD754BF9E77F21BB
:102F20006B785B06DB173A78DB01100052B2084081
:102F300003430137002AF6DB5B0001220CE000238B
:102F40007F213A78DB01100052B20840C3180137E4
:102F5000002AF6DB0622DB001343DAE70322FB1C20
:102F600093431F0008CFD4E70023D2E700237F213B
:102F70003A78DB01100052B20840C3180137002A2A
:102F8000F6DB9B005B42029A9858002800D056E27C
:102F90005849594800F085FD00237F213A78DB012C
:102FA000100052B20840C3180137002AF6DB029A1B
:102FB0009B005B42985825F0D0FDE6E700207F2279
:102FC0003B78C00119005BB2114008180137002B93
:102FD000F6DB251D0BF0CAF900F061FC00207F2212
:102FE0003B78C00119005BB2114008180137002B73
:102FF000F6DB251D0BF088F900F051FC00217F2243
:103000003B78C90118005BB2104041180137002B12
:10301000F6DB206826F09EFB30E200217F223B7821
:10302000C90118005BB2104041180137002BF6DBD4
:10303000220001CC0BF00EFB00F07CFC251D0BF0F8
:10304000ADF900F02CFC251F042221682868FEF74A
:1030500081FA00F05EFC00237F213A78DB0110004A
:1030600052B20840C3180137002AF6DB9B005B42CE
:1030700000F030FC00237F213A78DB01100052B2CF
:103080000840C3180137002AF6DB029A9B005B4216
:1030900021689858251F25F062FD00F03BFC0020B8
:1030A0007F223B78C00119005BB21140081801373C
:1030B000002BF6DB2168251F0BF084F900F02AFCB9
:1030C00000207F223B78C00119005BB21140081834
:1030D0000137002BF6DB2168251F0BF08BF900F080
:1030E00019FCC0460280FFFF8C27030078F1020024
:1030F00048270300AB61030098F8020000217F22FB
:103100003B78C90118005BB2104041180137002B11
:10311000F6DB231F1A6820680BF0C4FA00E22200D5
:10312000231F083A126821681868FEF713FA3EE177
:1031300000237F213A78DB01100052B20840C31807
:103140000137002AF6DB029A9B00D31A1A68002A7C
:1031500000D11DE7002241E000257F223B78ED01F0
:1031600019005BB211404D190137002BF6DB029BB1
:10317000AD005D1B286825F0F0FC002800D107E7B2
:103180000021286825F0EBFCD4E300207F223B7867
:10319000C00119005BB2114008180137002BF6DBA3
:1031A0000BF01CF9C6E300207F223B78C001190018
:1031B0005BB2114008180137002BF6DB0BF026F943
:1031C000B8E32368A5E62368A360231F1B68636038
:1031D0000834AFE3231F1968226821601A60A9E34D
:1031E000221F1368216823602300083B18681060C1
:1031F00019609FE37B783A781B021343DB4A9B18E4
:10320000FF1897E37E783B78206836021E43FEF76E
:1032100057F9EF1C251F2C00002800D18AE324E079
:103220007E783B78206836021E43FEF749F9EF1C92
:10323000251F2C00002800D07CE316E07E783B7828
:10324000360220681E43EF1CFEF73AF9002800D131
:1032500043E30AE07E783B78360220681E43EF1C89
:10326000FEF72EF9002800D037E3C14BF618E4E052
:103270002600276822003800172108360BF0EAF9EB
:103280003800320016210BF0E5F900213200080069
:1032900026F051FAAB786A781B0213430A9AEF1CA6
:1032A0000C320A920A9AFB1813600F220A9B251D02
:1032B000059306ABD2181378190002231943059B16
:1032C0000D435D6000230A9913708B60A0606FE16D
:1032D00025002668A74B083D9E4208D16660A6607F
:1032E0002A000021032026F026FA2E6012E3012195
:1032F00031402CD07610231F012E10D126001A68E1
:103300000C3E05929B4A00211A60032022606260F5
:10331000320026F010FA059B3360032315E02600E7
:103320002A68103E05921A6800210692914A0320ED
:103330002A601A602260320026F0FDF9059B069A89
:10334000336023000C3B1A6005232B60E8E02B68F8
:103350002E602600103E23603200032026F0EBF999
:10336000FEF7AEF800280DD00122824B06A933608B
:103370000A9B5B6813400E32521813700A9B0C3B79
:103380000A9315E1236833602300043C22680C3B58
:103390001A60BFE20A9A52682A4032700A9A0C3ABE
:1033A0000A9238E5221F1768002B00D1B8E00C3CC8
:1033B000C0E27B783A781B0213430A9AEF1C0C3266
:1033C0000A920A9AFB1813602B780A99403B5842DC
:1033D00058410F22430006A81218107803432343D4
:1033E0004B6000230A9913708B60A3E2206802F0FF
:1033F0002BFE251F002803D00FF0AEFA2B682BE21E
:1034000023685C4A2C00934200D193E25B10DBB24C
:10341000012B00D0F8E49DE120680BF067F92DE066
:103420007E783B7836021E43019BEF1CDC602068EF
:103430000BF084F9002802D1043CBF197AE26060E5
:1034400068E50A9B06A95A68012313400F22521807
:1034500013700A9B0C3B0A936CE200207F223B789E
:10346000C00119005BB2114008180137002BF6DBD0
:103470008300E41A0434210000F098FB206059E234
:1034800000207F223B78C00119005BB21140081870
:103490000137002BF6DB8300E41A0434210027F007
:1034A000C1FBEBE700237F213A78DB01100052B229
:1034B0000840C3180137002AF6DB9B005B422168F5
:1034C00018590EF003F808E200207F223B78C00173
:1034D00019005BB2114008180137002BF6DB251DDF
:1034E00026F0BFF8DBE12500231F083D1A6821689C
:1034F000286826F0EFF80DE200237F213A78DB01FF
:10350000100052B20840C3180137002AF6DB01331D
:103510009B00221F5B4212682168185926F0DAF8D6
:10352000083C07E200207F223B78C00119005BB213
:10353000114008180137002BF6DB8300E41A04342D
:1035400021000AF0CBF899E700237F213A78DB01CC
:10355000100052B20840C3180137002AF6DB9B0066
:103560005B422168185925F079FEB6E10280FFFF21
:103570000080FFFF78F1020000237F213A78DB0111
:10358000100052B20840C3180137002AF6DB251F8D
:10359000022B05D1D24A21682868FDF7A5FCB8E1C5
:1035A0002600083E226829683068FDF79DFC3060DF
:1035B0003400BFE100257F213B78ED011A005BB2AA
:1035C0000A4055190137002BF6DB2900220020683C
:1035D0000BF000FCC34BED1814E000257F213B7875
:1035E000ED011A005BB20A4055190137002BF6DBDA
:1035F0002200290020680BF043FCFF232A0A1A400E
:103600001D405519AD00641994E10322FB1C93433E
:103610000022186811001F1D251D23F02BFB3EE121
:103620000322FB1C9343251F2268296818681F1D6D
:1036300023F020FB6DE10322FB1C934319795F1DEE
:103640008A00A41A04340AE00322FB1C934319796C
:103650005F1DCA439200A418802252001143220029
:10366000186823F022FB09E700207F213B78C00186
:103670001A005BB20A4010180137002BF6DBFF235B
:10368000FF220100C5095B0011402B405B189B0025
:10369000E41A000A0240231D20680AF02DFFEDE61F
:1036A00000217F223B78C90118005BB2104041180D
:1036B0000137002BF6DBFF23CA095B001340CAB2B7
:1036C0009B189B00E41A083C2200002031E00023F4
:1036D0007F203A78DB01110052B20140CB1801374C
:1036E000002AF6DBFF211800FF22DD090840520006
:1036F0002A40451C52199200A41A1B0A19402200A4
:1037000026F019F8BAE600217F223B78C90118009B
:103710005BB2104041180137002BF6DBFF23CA09CA
:103720005B001340CAB29B189B00E41A0C3C2200B9
:1037300001200BF025FAA1E60F2206ABD218137870
:10374000002B07D00A9B596801230B4013700A9B7A
:103750000C3B0A9302220A9B0399994217D80A9BB1
:103760005B6813420FD003220A9B21685B68934376
:103770001C0059609A600A9B08341F680A9B0C3B26
:103780000A93FFF75BFB0A9B0C3B0A93E3E70FF0FE
:10379000E3F8019B0020DC6087E16B78022B01D10C
:1037A000043C0BE0002B09D10A9B039A934200D200
:1037B00075E19868002802D10C3BF6E720680BF011
:1037C0005DFC70E1079E002E1CD0079E0021320098
:1037D0000791201F0BAB00680BF0E4FB012816D10A
:1037E0002F000B9B23600FF0B7F8019B06AA5F60C8
:1037F000DC600F239B181B780A9A01201343019A5F
:10380000136152E1201F0BAB32002168E3E700286F
:1038100006D10B9B043C002B00D1314B23600CE004
:1038200002281BD130490B9823F019FC002810D036
:103830000B9802F0A1FB043C2060002E7AD02B49AB
:10384000300023F00CFC002874D00FF085F80D96A2
:103850007CE00FF081F80B9B0D9377E0043C002097
:103860007F223B78C00119005BB211400818013774
:10387000002BF6DB251F2A6821680BF01DFC48E0B1
:1038800000217F223B78C90118005BB2104041182B
:103890000137002BF6DB250001CD0BF01FFC60602B
:1038A00038E02068251F25F060FF33E0AF2B05D8F6
:1038B0000120803B5B000343FFF72BFBBF2B04D8A9
:1038C000B022D31A9B00FFF75EFBCF2B10D8C0228B
:1038D000D31A9B00029A21689950043C2AE0C04602
:1038E00078F10200FFFFFF3F58F9020050FC020090
:1038F000D62B05D8D03B180021680AF093FDBDE512
:10390000FA2B09D8251FD73B1800226829680AF02E
:103910007FFF28602C000DE06549664823F095FB89
:1039200004000FF019F8049B019A06339B00D3188A
:103930005C60B2E0604B1A6B002A01D1FFF77EFA9F
:1039400000221C6B1A630FF007F80D940D9B5B4966
:1039500018680DF001FD002825D0019B5B68002B45
:1039600021D01A78432A0BD19A78597812020A4347
:1039700003339B18019A5360D3680593043B82E09C
:103980005E2A10D1019B019ADC680D98231DD3603B
:1039900002F0F2FA019B60605B68019A05930133C3
:1039A0005360FFF712FA0D9B454A934240D0454AB7
:1039B00093423DD0019B0BA81B6805930B9323F00A
:1039C0006AFE04000BA823F066FE05000BA823F096
:1039D00062FE019B01005B680593019B1B680693D7
:1039E000069A059B9E1A1F2301229C46361B0B9CA0
:1039F0002378002B14D018007F27B84304D16046E9
:103A0000013418405B0908E00F20E0271840FF0050
:103A10001B011F40637802343B430B94864204D25F
:103A20002B000D9802F036FB02E0361AD218DEE7C2
:103A30000F23012106AA9B181A78002A07D00A9A98
:103A400052680A401A700A9A0C3A0A92F4E70A9AE3
:103A5000039991421AD801221A700A9B0D991B688A
:103A60000593059A019B05915A6003220A9B5B68A6
:103A700093430A9A9160144A5A600D9A9A601268A8
:103A80000C331A60019AD360FFF79FF9049B019AE7
:103A900006339B00D3180D9A5A60022005E00B49AB
:103AA0000B4823F0D2FA04004DE719B0F0BDC04630
:103AB000D761030044FB0200B808002058F9020057
:103AC00068F70200C8FC020078F10200F16103000F
:103AD000E8F6020070B50E0010490400002523F03E
:103AE0009EFE73689D420ED2002D03D00C4920002B
:103AF00023F095FEAB00F318012299682000FDF732
:103B0000CFFA0135EDE7012B03D10649200023F060
:103B100086FE0549200023F082FE70BD1F5E030073
:103B2000215E030010620300A35F030070B50D0067
:103B300001281DD0002804D002281DD10F4C0026DA
:103B400005E04B680E48002B17D10E4815E06B6856
:103B50009E4209D2B300EB18996802200AF062FC79
:103B6000401024180136F2E701206400204304E0ED
:103B70004B685B00184300E0002070BD10F20200AB
:103B8000482703008C27030010B50400102022F002
:103B90006CFE044B84600360034B43600023C360EE
:103BA00010BDC046A8E902004969020070B50600D0
:103BB0000D000C48002E14D0B41CA400200022F0EC
:103BC00054FE094A030002604660002D09D000221D
:103BD000083CA24204D0A858991888600432F8E73B
:103BE000180070BD10F20200D4F10200F0B504001C
:103BF00085B00D00160007282AD002D8052805D068
:103C000062E00300193B042B3FD95DE01000FDF793
:103C10002DFA2F490DF0A0FB011E56D06B6872687B
:103C200000219818FFF7C2FF070029006B680837CA
:103C30009A000400083138001FF0AEF931006868BE
:103C40007368800038189A0008311FF0A5F918E051
:103C500003A91000FDF732FB0021884235D00398FC
:103C6000884210DD6B685843FFF7A0FF0400230073
:103C70002800083300930830039B6A68042123F06E
:103C800097F8210021E013491FE00800FDF7EEF945
:103C90003000FDF7EBF9104B426A9A4205D0300034
:103CA0000B4926F0FFFE061E0CD033002900726877
:103CB0000831009208336A68200001F0A3F8074930
:103CC000002802D1064900E00021080005B0F0BD3F
:103CD000D4F1020010F20200893B000048270300E3
:103CE0008C27030030B5050085B0042A2CD10324AD
:103CF0000C401FD1164B0A689A421BD101AA40689A
:103D000001F046F8002802D112480BF09FFA019BFF
:103D100002982100C01AFFF749FF040029006368D8
:103D200008319A00019B08309B00C9181FF034F934
:103D300020000AE00A00002369682868FDF758FBA4
:103D400002308000405900E0002005B030BDC04680
:103D500034EE020012620300F0B50C0011000022E4
:103D600085B020001D00009201230CF049F918488D
:103D7000002C2AD02868830703D1164B02689A4288
:103D800023D0102022F071FD040028680AF0AEFC58
:103D900000250426039003980AF0F8FC071E0BD0B8
:103DA000AE4205D8F100200022F075FD0400760037
:103DB000AB001F510135EEE721002800FFF7F6FEAA
:103DC0000500200022F078FD280005B0F0BDC046B7
:103DD00010F20200D4F102008023044A5B051B6943
:103DE000107858438023DB02181A704721080020FE
:103DF0008023044A5B051B69107858438023DB024B
:103E0000181A70472008002070B5084DC4012B68AF
:103E10000021181922F05EFF2868054B00197F3039
:103E200000781B788342F0D270BDC0463C01002070
:103E30002208002010B5C3790400002B08D0064BDF
:103E4000817900791B68C0011818013022F042FF07
:103E50000023237210BDC0463C01002010B5034969
:103E6000034823F0F2F80EF07CFDC04643620300E5
:103E7000ACF602000200124B10B518685379DB0152
:103E8000C3181C007F342178FF2908D11179C9019A
:103E900041184978FF2910D0907988420DD0917946
:103EA0005B1801315878CBB27E2B01D0937106E0BC
:103EB000002393712378537101E00120404210BD2B
:103EC0003C010020F82370B59B021A784D2A01D0DE
:103ED0008023DB028026802076053469C00264429C
:103EE0002340346931691C1B001B16F0D7FA2B4B99
:103EF0002B4A187033692B49E518AD185B422A4AE2
:103F00001D402A4B521AD2183300954202D2196929
:103F10006D18FAE7802380205B05C0021969401BF9
:103F200016F0BCFA0122A121641B0025204BE411EC
:103F30001870204BE4B21C701F4B20481A60C90057
:103F40001E4E456073681C4A002BFBD05358DBB2F1
:103F5000A342F5D21A4901330B7001235360FFF7D6
:103F60003BFF03780500174CFD2B09D180235B052F
:103F70001869154BC009C018C001281820600BE053
:103F8000FFF736FF0378803DFD2B04D0FFF730FFAD
:103F9000FD2122F09FFE256070BDC0462008002054
:103FA000FF89FFFF0000002000010020D4EA030089
:103FB000210800202208002000D00040FCD0004052
:103FC0001F0800203C010020FFFFFF01F0B585B075
:103FD000264E274A3478274D20001378296801336C
:103FE00002960392C201525CFF2A3DD00130C0B25A
:103FF000984200D10120A042F4D1802300275B0524
:104000001B69DB090093E30101932B68E2019E1811
:104010003278300053425341FF1822F071FE0023E2
:1040200000280FD0009A934205D0DA01B25C002A32
:1040300008D10133F6E72868019BC01822F056FE2C
:10404000200011E0039B01341B78E4B201339C4251
:1040500000D10124029B1B78A342D4D1072F02D99F
:1040600022F09CFCB4E7FF2005B0F0BD1F08002043
:10407000220800203C010020F7B507000D000124B4
:104080000E4B1B7801930E4B1E68019B9C4211D86E
:10409000E10171180B78FE2B09D18B78AB4206D168
:1040A00003312A0038001EF04FFF002804D00134ED
:1040B000E4B2EAE7FF2000E02000FEBD2208002075
:1040C0003C01002010B5054B00791B68C001181891
:1040D00081780022033007F007FC10BD3C0100206E
:1040E000F0B585B002900D0016000393782949D8E9
:1040F000FFF7C2FF0400002E26D0FF2801D0FFF7F3
:1041000083FEFFF763FF0400FF2805D11F49204805
:1041100022F09BFF0EF025FC1E4FC0013B68019072
:10412000FE21181822F0D6FD3B68019AE9B29818D2
:10413000023022F0CFFD3868019B2A00C0180330FE
:10414000029900F0D1FD02E03300FF281BD00C20C3
:1041500022F08BFB039B002B01D00F4B00E00F4B99
:1041600003600C4B04711B684471E4011C19A378B3
:10417000C67102338371012303726B461B7B43724A
:10418000030000E00023180005B0F0BD60620300EA
:104190005CF802003C010020482603009C26030036
:1041A00007B501A908F050F80199FFF765FFFF284E
:1041B00005D10549054822F048FF0EF0D2FBFFF774
:1041C00023FE03480EBDC046766203005CF8020081
:1041D00078F10200F7B50192027A05000091002AF9
:1041E00001D1FFF73BFEC479002C06D1214A1768A4
:1041F0000279D201D25D002A23D1092201201A605E
:10420000404236E02879C00138184078FF2824D091
:10421000C01A824200D902000198061B964200D9BA
:104220001600002E24D0009AC9181019013132004E
:104230001EF0B2FEAB799B19DBB27E2B0FD0AB71B7
:10424000A41969797E22C901791808007F30AB79F9
:104250000078D21AFF28DFD1D4E70022DCE7002360
:10426000AB716B79DB01FB187F331B786B71E7E770
:104270002000FEBD3C010020F0B585B00393037A19
:10428000040000910292002B01D1FFF7E7FDC379F2
:10429000002B07D0294A03791268DB019B5C029F3F
:1042A000002B1BD109233EE060793368C001181848
:1042B0007F30019922F00EFD019B6179D8013368AE
:1042C000181822F007FD63793268DB01D3187F33B9
:1042D0001B786371009B7F1B5B190093002F27D015
:1042E0007E22A379D51ABD4200D93D00134E6079D4
:1042F0003268C0011018C01801302A00009900F07F
:10430000F3FCA3795B19DBB27E2B13D10023A371DD
:10431000FFF75CFE0190FF28C6D12079FFF774FDFE
:10432000002323721C230120039A4042136003E000
:10433000029801E0A371CDE705B0F0BD3C0100207B
:10434000002170B5080026F06DFC012405000C4B1F
:104350001B78A34212D30B4AE3011068C0180378FC
:10436000FE2B08D181780022033007F0BDFA01004E
:1043700028000DF0ABF80134E4B2E8E7280070BD86
:10438000220800203C01002073B501A907F05CFF62
:104390000199FFF771FEFF2805D10F490F4822F060
:1043A00054FE0EF0DEFA00257E260D4B1C68C3017C
:1043B000E31859789B780233DBB2C201A2187F322E
:1043C0001078FF2803D0F21AAD180023F5E7C81AB9
:1043D000401921F028FC76BD766203005CF80200EB
:1043E0003C01002010B5024B024A25F0CCFA10BD6A
:1043F000353E0000753E0000F0B505008BB0086842
:104400000C0007F00BFF049004A822F02FFB0027FC
:10441000049B03900693069B1978002911D008008D
:104420000BF09EF8002806D006A822F031FB069B70
:104430001B78732B00D10120069B3F180133069394
:10444000E9E73800FFF7B2FB0122009007A9606896
:10445000FDF7B2F8079B089A05939B180192029307
:10446000022D0AD9A068FCF7EBFE002802DA089BAF
:10447000C01826D4059B1818059000240DE02900CB
:1044800007F04AFA059B009A5D19A31C9B0005954D
:1044900001349850049B01330493BC4230D2049BF6
:1044A000187800282CD00BF05BF80125002803D0E9
:1044B00004A822F0EDFA05000598029A43199A42E1
:1044C00005D21149114822F0C0FD0EF04AFA049BB2
:1044D0001B78732BD3D0009BA6009E190195019BDE
:1044E0000436002B0AD0049B05AA1978039803F020
:1044F000EDFE019B7060013B0193F0E76419C9E791
:1045000000980BB0F0BDC04685620300ACF6020017
:10451000F0B589B0039101921E0007F07FFE049070
:1045200004A822F0A3FA00250290B5424ED2049BC3
:10453000187800284AD00BF013F80124002803D083
:1045400004A822F0A5FA0400039B019A1B199A42C1
:1045500005D21F491F4822F078FD0EF002FA049B95
:104560001B78732B04D02D190E9BAF00DF191CE0B4
:104570000E9B6F1CAD00E858012205A9FDF71CF841
:10458000069B25009C4200D91D002A00059903982E
:104590001EF002FD039B621B581900211EF086FDD0
:1045A000039B3D001C1903940CE0002C0AD0049BD3
:1045B000A20052421978BA5803AB029803F0E8FE01
:1045C000013CF2E7049B01330493AEE709B0F0BD70
:1045D00085620300ACF60200F0B50E0089B00390CE
:1045E00001CE0F0022F06AFA4410210004A822F044
:1045F0006BFF069D2200002128001EF057FD039B43
:104600000096013B2A1929003868FFF781FF04A9A9
:10461000024807F033F909B0F0BDC0462421030079
:1046200030B50C0089B005000222606805A9FCF7CE
:10463000C3FFA068FCF704FE002809DA069B039379
:10464000C01805D509490A4822F0FFFC0EF089F987
:104650000599069AEB1E8A18091820000C30009064
:104660002068FFF755FF034809B030BD856203009D
:10467000ACF6020078F102007FB50B00012803D1EF
:1046800000211868FCF726FD102102A822F005FF82
:104690000A4902A824F067FF039B0193002B06D16F
:1046A000042804D1064822F0C3FC0EF05AF902A9EE
:1046B000044807F0E3F807B000BDC04650D203003D
:1046C000CCFA0200A4130300F7B51D4D1D482B00C2
:1046D0000833D96F0378A0279A1C9200545A8E1879
:1046E0004A88FF055443A122D2009446A4120190A7
:1046F000F278002A08D00120B278013390400200FD
:1047000060463A50DAB20DE00F4B48682E00F85080
:1047100028008830036808361400002B02D01900E6
:10472000F3670260931C9B00585ACE184B8858437D
:104730008012001B01D11300DAE7019B1A70FEBD45
:10474000B8080020230800200C050000044B054990
:104750001A000832D167002288331A607047C046B9
:10476000B8080020BCF2020010B5782202490220ED
:10477000FEF780FA10BDC046C9460000421E114B2C
:10478000FF3A70B59A421AD8051172B60E4B002046
:104790001A001900883214680831106062B61E00D1
:1047A000844200D1CC6F2178200022F0C2F96368E6
:1047B00045804360330088331860002001E0012009
:1047C000404270BD40410F00B8080020054B1A0060
:1047D00088331B680832002B00D1D36F5888000142
:1047E0007047C046B8080020F0B54E4A85B00700B3
:1047F0000B00914200D913008022D200D21A0192FC
:1048000072B6494A002011008832146808311060DD
:1048100062B6844200D1CC6F0126BE406268009629
:10482000324207D13A00A0210320C132FF32920068
:10483000C9055050002521788D425BDAAA00A218E4
:10484000927A974201D00135F6E7002B13D1013956
:10485000200022F06EF96368009A060093434360DB
:1048600023785A1E954211DA01339B0002351B59F9
:10487000AD002B500AE0200022F05BF963680600CF
:1048800043606B4602359B88AD002B526388341D14
:104890007380012300933378009A9A4226DA250028
:1048A00023890193A37A0293E37A0393009B5F1E0B
:1048B000AB88019A934208D92800291D08300422A8
:1048C0001EF06AFB043D013FF2D26B4603379B8822
:1048D000BF00F7193B806B461B7A0434BB706B46F4
:1048E0001B7BFB70009B01330093D4E70E4B883396
:1048F0001E6014E0002B12D00131200022F019F9C3
:104900006268009B060013436A46436023789288DE
:104910009B00C3181A8101229F72DA72B6E705B0B4
:10492000F0BDC046FF030000B808002010B500210C
:104930000400FFF759FF0D4B0833DA6F002310789E
:10494000834211DA99005118897A8C4201D00133DF
:10495000F6E702339B00D3181F229A700123A0218F
:10496000A340034AC9058B5010BDC046B8080020BB
:104970000C0500007FB54B680E005C1021006846F6
:1049800022F0A2FD029D0021220028001EF08EFBD5
:1049900001213068014004D12B00220021F01BF9D5
:1049A00008E043102000042C00D904202A00002134
:1049B00022F0D5FE6946024806F060FF04B070BDE3
:1049C00024210300F0B50C00002585B01100200063
:1049D0001E00009502232A000BF012FB0120AC42BE
:1049E0003FD0844228D1306820423AD1032303408B
:1049F000AB4203D11C4A0168914232D01B4A0240AB
:104A0000062A06D0002B0BD10268194B92699A42F4
:104A100006D103A907F018FC002303991A0018E037
:104A2000032302001A40022A16D1FF22D205801861
:104A30009843FBF73DFC14E003A9306807F004FC41
:104A400004007068039FFCF7FBFB2B000200390099
:104A50002000FDF7DBF804E0FCF7F2FB0123400047
:104A6000184305B0F0BDC046E4F20200070080FF25
:104A70002DC80000F0B58DB0099214AA1278040078
:104A80000B9215AA12780F000892DA0700D496E06C
:104A90001800FCF7D5FB002305900793002803DAE4
:104AA000434205932D230793129B0026023B1E2BA6
:104AB00016D8534B129A2020995C15F0EFFC089BF6
:104AC000C5B2B34204D0681C032115F0E7FC060010
:104AD0001398002801D01FF0C5FD0335AE19361814
:104AE0003B68B34204D2300021F0BFFE20603E603C
:104AF00023689F19069300237D1E2B70059B002BB6
:104B000004D00B9B0A950A3B0B931DE03023023F18
:104B10003B7030E06F1E3B70089B002B25D0059B3F
:104B2000002B28D0069BBB4225D20A9BDB1B032B04
:104B300009D16B4620229B181B78AF1E3B70069B49
:104B4000BB4218D20A973D000598129915F016FE3F
:104B50000F000598129915F02BFD3B00059030339E
:104B6000092FD7DD0B9BDB19D4E7069BBB4202D292
:104B7000059B002BE7D1139B002B0ED018001FF0D4
:104B800071FD069B381A834207D20023139AD25C28
:104B9000002A2ED0C2540133F8E7079B002B06D021
:104BA000069BBB4203D26B461B7F013F3B702368D1
:104BB00038009E19F61B099B013E1E601EE09A07F5
:104BC00010D1104A196891420CD1089A3900039209
:104BD0000B9A0292139A0192129A0092099A20F06B
:104BE000D1FF0BE0002322681370099A206813603C
:104BF00004E0079B0700002BD5D1D8E70DB0F0BD2E
:104C000096620300E4F202001300144A10B5040097
:104C1000934201D1012203E0114A934202D10322BF
:104C2000200018E00020072C17D10E4A1A40062A4F
:104C30000ED09A0711D11A680B4CA24208D00B4C27
:104C4000A24205D00A4CA24202D00A4CA24204D190
:104C50000A000720190009F0DBFD10BD8C270300B6
:104C600048270300070080FFA4130300242103004A
:104C7000D4F10200382B030030B5072402784160DC
:104C8000A243053C224302707F22039C05882240F8
:104C9000D400034A83602A402243028030BDC046CC
:104CA00007FCFFFF10B5072403782140A3431943F5
:104CB0007F230170049904880B40D900084B42609F
:104CC00023400B430380039B04685B05D90A054B13
:104CD00023400B430360029B8360059BC36010BDB0
:104CE00007FCFFFFFF03E0FFF8B50E00050014000E
:104CF000FDF70CFF330003272B433B420BD1BC4293
:104D000009D9A2083100280015F0FCF92300BB43A3
:104D1000ED18F6183C40002C04D022003100280089
:104D200029F087FA80220449D2008B58002BFCD04E
:104D3000FDF7DCFEF8BDC04600E00140F0B50D0017
:104D4000002785B0110003901E0028000F4B02229F
:104D500000970BF055F9A81C800021F086FD039BFD
:104D6000040003606B1E3D0003934360336883605F
:104D7000039B9D4207D20135AF00F05909F0B6FC04
:104D8000E719B860F4E7200005B0F0BDFFFF0000B0
:104D900030B585B003AB05001400080002AA01A9D4
:104DA00020F0DBFF019A164900238A4200D05310FD
:104DB00002984210884200D12A00002B04DA5B19C5
:104DC000D843C017034002E09D4200D22B00002AC6
:104DD00001DA521902E0954200D22A002360934280
:104DE00000DA13006360039B8B4205D0032B03D0D2
:104DF0005B10A360002001E00120A06005B030BD81
:104E000078F10200F0B587B0060015000C9F1B2852
:104E100003D1BA4212D000203FE0192808D01C2844
:104E20000CD13D0017000A001D261900130005E0F3
:104E30003D0017000A001A26190013000395BD4211
:104E400000D903971C00002302910193019B039A50
:104E500093421BD0029B0594049301CB02CC029396
:104E6000FCF79CF9002802D0019B0133EDE71B2ED3
:104E7000D1D0059B30001A68049B196809F0C8FC62
:104E8000074BC01A43425841C0B206E0BD4201D0B0
:104E900002D2C0E71A2EBED0012007B0F0BDC04636
:104EA00048270300F0B51E0085B0039018680D0078
:104EB0001700FCF7DBF87368019002930024022FBF
:104EC00018D90123B2682900FCF792FA0400032FD5
:104ED00010D029000123F2680198FCF789FA050037
:104EE00008E0039AA3000299D058FCF757F900286C
:104EF00008D10134A542F4D80549064822F0A5F8A6
:104F00000DF02FFD01206400204305B0F0BDC04628
:104F1000B7620300ACF6020070B505000C200C006F
:104F200021F0A3FC024B45600360846070BDC04665
:104F300018F402000022104B10491A6003001233CB
:104F4000FF3341185A701A7004338B42FAD10100B2
:104F50000300002209310833FF311A709A705A7029
:104F6000DA7004338B42F8D1C3237F229B00C254F2
:104F7000034A044B1A6070474401002011030000EB
:104F80005F640300100000200023F7B507001C0039
:104F9000A200BA18FF32517C7F2952D0927C651C46
:104FA0009B18DBB2EF2B2AD9EBB20193C1239B00F4
:104FB000FE187D2335000093009B019A934209DB84
:104FC000281D290004221DF0E7FF009B043D013B42
:104FD0000093F1E7002395007D19FF356B74AB74E6
:104FE000EB742B757D250234E4B2A5421DDB301D28
:104FF000310004221DF0D0FF013D043EF5E77D297C
:105000001CD8104A525C01210A4217D0C1237D26C8
:105010009B00ECB2FD18A64207DB281D29000422E4
:105020001DF0BAFF013E043DF5E77E23A200BA1849
:10503000FF32537400239374D37413750134E4B2B4
:10504000A6E7F7BD1164030070B5012240240F49A3
:10505000531EDBB29B00C318FF335D7C7F2D14D041
:105060004D5D254202D10132D2B2F1E75D7D7F2D47
:10507000F9D04D5D7F2DF6D9DD7D002DF3D06EB2D8
:10508000002EF0DB0135DD74EDE770BD70630300C9
:105090000300F7B500214B4A1333FF338218197010
:1050A00004339A42FBD1FC2300249C462200844412
:1050B00053B2002B01DA444A78E063461F69BC42D0
:1050C00005D37F23443292001354012078E06346D5
:1050D000DE68355D602D01D9203DEDB2611CC9B29D
:1050E0008F4220D0735C602B01D9203BDBB2232D93
:1050F0001CD1303B092B01D9344A57E00234E1B2CC
:105100008F4204D8FF2BF7D843700C00D0E7745CB3
:105110002500303D092DF5D80A256B430131303B80
:10512000E318C9B2ECE7232DE6D000230026F7B23E
:105130000197274FF75DAF4212D1264FF75D2A2F17
:105140000ED09F420CD1694693000979C318FF33F2
:1051500059744178013202341975D2B2E1B2D4E700
:105160000136512EE3D100231A4C1F5DDEB22A2FE7
:105170000CD1174FFF5CAF4208D19300C318FF3327
:105180005E74447801321C75D2B2BEE70133512BF4
:10519000EBD1114C493BE65CAE4204D0002B04D06D
:1051A000013BDBB2F7E7002B04D10C4A0C4B00208B
:1051B0001A6005E014004334A4000419A370A4E7A6
:1051C000FEBDC04612030000626403007464030065
:1051D000CE6203001F630300416503008264030085
:1051E0001000002010B51130084A0949FF3003783B
:1051F0007F2B09D002240457002C01DCCB5C00E09B
:10520000D35C43700430F2E710BDC046C1630300B5
:10521000F1640300F0B5002489B00090009AA30067
:10522000D3180293FF335D7C7F2D00D1CAE00220AA
:1052300065494A5D024201D10134C1E001200242C8
:105240004CD12218D2B203922A18D2B204925F4AE9
:105250007D27521952780592DA7C1B7D0692C12275
:10526000920094460793009B63441E000193039BA6
:105270009F4207DB301D310004221DF08DFE013FEF
:10528000043EF4E7009A9B00D3186A46127CFF3371
:105290005A746A46127DA61C9A746A46127EF6B249
:1052A000DA746A46127F1A75AB1CDBB20393474B64
:1052B0005D19AB787D250493029BFF33DA7C1F7D5B
:1052C0000292B5426DDB019B0422181D19001DF0EE
:1052D00063FE019B013D043B0193F2E72200013292
:1052E000D2B21300009844339B001B5C002BF6D015
:1052F000621C7F2B07D0C95C090702D4243B012B19
:1053000001D8D4B28AE7D3B203936B1CDBB2049307
:105310002E4B7D275B195B780593029BFF33DA7C6C
:105320001B7D0692C122920094460793009B634422
:105330001E000193039B9F4207DB301D31000422B6
:105340001DF02AFE013F043EF4E7009A9B00D318AB
:105350006A46127CFF335A746A46127DA61C9A7400
:105360006A46127EF6B2DA746A46127F1A75AB1C70
:10537000DBB20393154B5D19AB787D250493029B3B
:10538000FF33DA7C1F7D0292B5420ADB019B0422C7
:10539000181D19001DF000FE019B013D043B019307
:1053A000F2E7009BB6009E196B461B7BFF367374B9
:1053B0006B461B7C0334B3746B461B7A3775F374EE
:1053C000E4B22BE709B0F0BD70630300F1640300A1
:1053D000F0B5002687B00190019AB300D31802936C
:1053E000FF335A7C002A00D130E17F2A00D15BE1F3
:1053F0001020AE49741C895C014227D0DA7C7D25DF
:105400000492C1221B7D8906C90F0593019B1431AB
:105410009200E7B203919C18BD4207DB201D2100DA
:1054200004221DF0B9FD013D043CF5E7019BBF00DE
:10543000DF196B461B7BFF377B740023BB746B4605
:105440001B7CFB746B461B7D3B75B1E04E2A01D182
:10545000182602E04F2A23D11B26DA7C7D270292F0
:105460000D225A74C1221B7D92000393019BE4B26A
:105470009D18A74207DB281D290004221DF08CFD82
:10548000013F043DF5E7019AA300D3180022FF3342
:105490009A746A46127A5E74DA746A46127BB4E0D1
:1054A000502A01D11C26D8E77F20814334D0D97CF3
:1054B000002931D0E4B22100019844318900095C0F
:1054C000002929D1B11CC9B20391890041180D00EE
:1054D000FF35687C7F281FD0744F385C7F27B84326
:1054E0001AD0E97C002917D0C122019B92009E1896
:1054F000023F039BBB4207DC301D310004221DF03C
:105500004BFD013F043EF4E71F236B740023AB7493
:10551000EB742B7526005FE7741C172A13D1597B97
:10552000721ED2B2452901D11B3902E0392902D1BC
:105530000D3959738EE05D4A525C7F218A4300D158
:10554000B0E01222ADE0182A07D15A7B57498A5C95
:105550007F2A00D8A6E01322A3E0202A05D15A7B97
:105560003C2A00D09EE026229BE0482A09D15A7DA1
:105570007F2A03D04D498A5C92060FD44B225A747D
:105580000CE03C2A0AD15A7D7F2A00D18AE04749A3
:105590008A5C920600D585E03F2282E05A7C43492E
:1055A000895CC90704D5597B20294BD10C3A78E096
:1055B000029B741CFF335A7C352A06D15A7B3C4926
:1055C0008A5C52076ED510226BE02A2A1FD1C122B5
:1055D0007D26DF7C1B7D92000293019BE4B29D1827
:1055E000A64207DB281D290004221DF0D5FC013E40
:1055F000043DF5E7019AA300D3182B22FF335A7418
:1056000000229A746A46DF74127A1A7582E72C2A8D
:1056100018D1C1227D26DF7C1B7D92000293019B65
:10562000E4B29D18A64207DB281D290004221DF0C4
:10563000B3FC013E043DF5E7019AA300D318FF3304
:105640002D22DCE7452A04D0392A02D00136F4B2F3
:1056500060E732001100019843318900134B095C67
:10566000741C595C7F291DD901320199D2B2920074
:105670008A18FF32517C002909D05B5C7F2B11D93D
:10568000D37C002B0ED1029B1E22FF3309E0527DFA
:105690007F2A07D09B5C7F22934303D0029B613A11
:1056A000FF335A74E4B235E707B0F0BD706303000E
:1056B00011640300F7B500220427634E0090130025
:1056C000009944339B005B5C7F2B0DD00121F35C80
:1056D0000B4202D10132D2B2F1E713005B4C013B25
:1056E000DBB2002B03D100E00023022640E01900CA
:1056F000009844318900095C7F2902D0615C7F29D0
:10570000EDD952498C46009899004118FF314C7CE4
:105710007F2C0CD02020355D054203D06046045D0F
:105720003C4204D08C7C6508013464198C740133CC
:10573000DBB29342E7D1CDE7444F7F207C5C25006C
:1057400085433CD0591C0098C9B28C0004194120F3
:10575000FF34657C019484467F2D01D0785D8446BA
:105760004024785D204217D1123D012D08D90B004D
:1057700000999A008A18FF32517C7F29DCD161E0C0
:105780000233DBB2443300989B001B5CFB5C23427A
:10579000EDD0937C013B08E063465B0707D463468A
:1057A000DB07E4D5937CDC081B1B9374DFE7019BCC
:1057B0009B7B5A1C9B08D318019A9373D7E7082048
:1057C000214D695C014210D00133009AD9B28B009F
:1057D000D318FF335A7C7F2AC9D0BA5C3242C6D074
:1057E00006229A74013A9A73C1E734421DD01C0014
:1057F0000134E4B22100009844318900095C002999
:10580000F6D001337F291BD0104D695C314217D08F
:105810000099A4000C19FF34A17C49080131A1743E
:10582000917C4908013191740AE01020014206D0B0
:10583000517B795C314202D0917C02399174013301
:10584000D9B294E7F7BDC04611640300706303004A
:1058500070B50400FFF76EFB2000FFF719FC230072
:105860000022FC330100DA601A61904244D0260025
:10587000224D11362B68FF36934203D03100204869
:1058800000F056FC2000FFF7A3FD2000FFF7DCFB33
:105890002000FFF7A7FC2000FFF70CFF2000FFF718
:1058A000B9FCC42233009200A1181A78502A06D9F4
:1058B0007F2A07D0134A144B00211A601CE00433DE
:1058C0008B42F2D12B68002B02D010481EF02AFB2D
:1058D0002000FFF759FB2B68002B03D031000C4848
:1058E00000F026FC200021F01FFB074B0949186837
:1058F0001EF074FE41424141080070BD400100208D
:1059000099640300A864030010000020CE64030023
:10591000DE6403005F64030037B50400A06808F08C
:1059200035FF019000280ED06568074B9D4205D0D9
:1059300001AB00220121280008F0DEFDFBF7C0FDCD
:105940000028EBD001983EBD78F1020010B5034865
:105950000968FBF7C9FB024810BDC0468810030068
:1059600078F10200F0B50E00002485B011000700A8
:10597000039322000C4B300000940AF041FBB01C52
:10598000800020F072FF050007604660B44208D036
:10599000039BA700D85908F0A9FEEF19B86001349D
:1059A000F4E7280005B0F0BDFFFF000010B54A681D
:1059B000014922F005F810BD1DDA0300F0B58BB0E7
:1059C000079310AB10CB009001911B78062A11D8D9
:1059D000012A05D93F230B700B000133019301E02D
:1059E000002A02D0002301990B70012393428041C9
:1059F000404234E2009900290BDA019B01995F1CB7
:105A00002D230B70802109068C46009B6344009374
:105A100005E0019F002B02D0390001370B70019B7C
:105A2000FF210993009BC9051800084088421CD13A
:105A30002023079A4E211A401300009AF81C5402A2
:105A400008D149225A403A70462259405340797051
:105A5000BB7005E041221943534039707B70B97027
:105A600000230370019BC01AF9E1002C00DA062420
:105A7000501E019A0799BD1A20221143451B02911D
:105A8000672903D1002C12D1012410E0002B1DD175
:105A9000029B662B0DD1631C9D4200DCAC1E66236D
:105AA00003930023651C049305931E00EEE0002B76
:105AB0000CD1631D9D4200DCAC1F029B652B00D006
:105AC000D1E003933A3B00250493D0E0B14A9342DE
:105AD00071D8B149009814F0C5FE431E98410023C7
:105AE000002630300393203305900493AB4B039A88
:105AF0000099D05814F0ACFE002808D0049B039AFB
:105B0000F618A74B0098D15815F020FB0090049B85
:105B10005B100493039B04330393182BE6D11533D6
:105B20000493009A9B4B934214D39B49009814F022
:105B300099FE002804D0002E09D12B23049306E0FF
:105B40000098984915F002FB0136009002E0FE2310
:105B50009B050093029B662B03D0672B21D1042E5B
:105B60001FDC6B461B7D3B70029B672B01D1731EB4
:105B7000E418631C9D4200DCAC1E002C00D158E1EF
:105B80002E23250030227B70BB1C013E1F00002EFF
:105B900070D0002D03D01A70013D0133F5E7049554
:105BA00069E06B1FA34200DD4BE1029A672A68D0CF
:105BB000AC1F130067E000230026039320330493F7
:105BC000774B039A0099D05814F038FE002808D07B
:105BD000049B039AF618714B0098D15815F0B6FA49
:105BE0000090049B5B100493039B04330393182BD6
:105BF000E6D16C49009814F035FE002805D00098D5
:105C0000694915F0A3FA01360090029B662B0AD170
:105C1000AE420BDA331901339D421DDCAD1BAC1EC5
:105C20001AD56C1E18E0029B652B09D16B1FA3428D
:105C300030DC2B23AC1F0025049305953A331EE07E
:105C4000029B672B2DD1231D9D4200DC6C1FA642B9
:105C500000DBE8E0731CE41A0023351904930135D6
:105C6000059666330BE00025029B0495039305958A
:105C70002E000BE0049601235B42059367330393E8
:105C800004E01C00029B002503930595E343DB170A
:105C90001C400CE02B2304930023059365330393EE
:105CA00008E0029B002503932B2305950493039B97
:105CB000652B01D1651C06E0039B672B03D1251ED4
:105CC00001D101252C0000230693069B9D4220DD77
:105CD000009815F0EDFC7B1C0893030030333B70FB
:105CE000059A069B934205D1002C03D0BB1C089358
:105CF0002E237B7015F0FEFC011C009815F03AFB7A
:105D0000284915F023FA069B009001330693089F5B
:105D1000DBE7029B662B02D1012E61DC97E0234971
:105D2000009814F09FFD00284DD030217B1E1A787A
:105D30002E2A01D1013BFAE710003038092801D999
:105D4000013303E0392A03D001321A70019303E0D2
:105D5000019A19709342EDD1019B1B78302B29D108
:105D6000019A52782E2A0BD10399662908D00199FD
:105D70004B70049B0A702D2B01D1013E00E00136CF
:105D800001373B00019A9A4212D25A1E11781970BB
:105D90001300F7E7FFFF7F3FF8FF7F3F4CF602005D
:105DA00034F6020000002041CDCCCC3D0000A040E4
:105DB000312313702B4B009A9A4204D8039B663B05
:105DC0005A425341E41A029B672B09D1002C07DD8C
:105DD0003B00013F3A78302AFAD02E2A00D01F002B
:105DE000049B002B1AD02023079A0A211A40130083
:105DF000452213433B706B461B7C30007B7014F0D4
:105E0000D7FB0A2114F0BAFC3031B97030000A21F6
:105E100014F0B4FC3C1D3031F970270000233B70B6
:105E2000099BF81A1BE0672303933C3B002504936E
:105E30002BE701235B4205936733013704940393F7
:105E400003E0029B03930023059300252FE70649F7
:105E5000009814F007FD002800D066E7C0E70BB0FB
:105E6000F0BDC046FFFF7F3F0000A040F8B5060030
:105E700010200D0014001F0020F004FD011E09D0A9
:105E80002C19076045608560C460034B034A3000ED
:105E900023F079FDF8BDC0460D700200F76F0200D7
:105EA000F7B50D00110000220600009228001F0027
:105EB0000B4B0AF0A5F8102020F0E4FC041E04D1DE
:105EC000084A094B094CDA6104E039002800FDF763
:105ED0006DFEE060002326602000A360FEBDC0468A
:105EE000FFFF000010F20200B8080020C8080020E0
:105EF00010B5013810C9FDF759FEE060004810BD2B
:105F000078F10200F8B57F231700160004000D0099
:105F10001F409A430AD17B1E012B07D80B68586893
:105F200021F046FA0100200021F079FC022F04D173
:105F30000F49200021F073FC01E0002F12D1EB6823
:105F4000002B02D05A68002A04D10A49200021F00F
:105F500066FC0CE0012A05D1002299682000FBF7BD
:105F60009FF804E03200E9682000FDF7B3FDF8BDBA
:105F7000BFDD030050D20300C36803485A68002AFB
:105F800000D098687047C04678F10200136810B5D9
:105F90001400002B0DD17D2902D1C368136008E0E5
:105FA000044B02689A4204D1BA2902D1FFF7E4FFF8
:105FB000206010BD58F902000EB470B5050087B01E
:105FC000102020F05FFC041E06D11B4B1B4A1D61F4
:105FD0009861DA611A4C29E0002105608160012096
:105FE000FDF7E4FD0B9B0500E060002B1ED0252192
:105FF00018001EF085FA061E08D10B981EF032FB21
:10600000320001000B9805F06FFC0EE0102102A891
:1060100021F043FA0CAA0B9902A8019201F074FF37
:1060200002A90848E56805F029FCA860200007B02F
:1060300070BC08BC03B01847B808002010F202007A
:10604000C8080020A413030010B50300820708D17C
:10605000064A0168914204D1054AD968012091425B
:1060600003D0044918000BF077F910BD8C29030008
:10607000A15E000018FA020010B50400FAF7F6FF5E
:10608000034BC2689A4200D024690023A36010BD6C
:10609000A15E0000F7B51600019304000F00FAF7A7
:1060A000E5FF174BC2689A4200D02469A568002D0D
:1060B00009D10C2020F0E6FBA06000281ED00323AD
:1060C000E580A38010E0E388A18802338B420BDBDC
:1060D000033189000122280020F0EAFB00280DD0BE
:1060E000A388A0600333A380E288A16893000332F1
:1060F000E280019ACB181F605E609A60F7BDC046CF
:10610000A15E000070B5150004000E00FAF7AEFFA6
:10611000064BC2689A4200D02469A368002B01D1C3
:10612000336001E0E28832602B6070BDA15E000048
:1061300073B50600194D0C0028001DF0F3FE310068
:1061400017481DF0EDFD17481DF0ECFE16481DF038
:10615000E9FEFF239B00E61821787F2916D0B44280
:1061600014D0A37850290BD8104A505C104A525CC6
:1061700001936378009303000E481DF0D1FD03E006
:1061800062780D481DF0CCFD0434E5E728001DF0D1
:10619000C9FE0A481DF0C6FE73BDC0465065030027
:1061A0007D650300856503005B6603001F630300D4
:1061B000CE620300A6650300C9650300796603008B
:1061C000F0B51D008BB007901B48160008911DF01C
:1061D000A9FE290019481DF0A3FD19481DF0A2FED3
:1061E00018481DF09FFE0024AC4220DA089B375D62
:1061F000A0000799181803788278095D049707684A
:106200009B063F037F0E0397C7789B0E09933B09BC
:10621000029300883F07C004400E3F0F019012090F
:106220000097099B08481DF07BFD0134DCE702481C
:106230001DF078FE0BB0F0BD50650300EA65030069
:1062400017660300496603007B66030070B5137888
:1062500004000A3BD8B20F2808D90A001248134993
:10626000FFF7AAFEA368002518601AE00020527804
:106270001B021343E268904208D025698100495906
:10628000994201D105000CE00130F4E72288002595
:10629000042A06D11A0006490348FFF78DFEA368B9
:1062A0001860280070BDC04614FC0200036703009C
:1062B00018670300F0B585B004000D00100003A9B5
:1062C0001E0024F00EFF071E08D12A000C490D48BD
:1062D000FFF772FEA368186038000FE00398FAF722
:1062E000DBFF0300B34309D0030000962A000649F0
:1062F0000448FFF761FEA3681860002005B0F0BDF8
:106300002F67030014FC020047670300F7B51E0067
:1063100013780D000A3BD9B204001C480F2904D899
:1063200050781B02184321F043F803781849009372
:1063300000234A1C0191177800998F4218D14178A7
:106340005778B94214D1817897788F4210D1002FB5
:106350000BD1019A9B00D05CB04215D933002A00C2
:106360000C490D48FFF728FE0BE0C778002FF0D04E
:1063700001330432152BDED12A0008490648FFF705
:106380001BFEA36818600020FEBDC04650D203006B
:10639000986803007367030014FC02008C67030015
:1063A000F0B5177885B005000E00992F47D101A9E7
:1063B000100024F0BAFE019B984240D003781A00E6
:1063C0000A3A0F2A08D802000F2331002800FFF7ED
:1063D0009DFF0124844030E0AE2B30D124F0A0FE9C
:1063E000040024F098FE02900378B22B27D1A33B3F
:1063F000220031002800FFF789FF012403A984400F
:10640000029824F092FE039B0290984215D0390026
:1064100002A824F099FE0127029A039B9A420CD00D
:106420000F2331002800FFF771FF3B0083400298E3
:106430001C4324F070FE0290EEE7200007E03200DB
:1064400004490548FFF7B8FDAB681860002005B0A7
:10645000F0BDC046A467030014FC0200F0B50E00B6
:1064600087B0040004A930001F00019220F0A5FFAE
:10647000019B0500002B11D1322E02D1BF21090250
:10648000E7E1482E08D0019B2A00BD49BD48FFF72F
:1064900093FDA3681860DFE1BB49DAE1019B012BA2
:1064A00000D089E0412E09D101003A682000FFF7B1
:1064B000CDFE0100606922F0BFFF0AE0422E12D13A
:1064C00001003A682000FFF7C1FE0100606923F077
:1064D0000AF8002800D0BFE1AC49AA48A46820F01F
:1064E000B4FD2060B8E1432E09D101000F233A68C2
:1064F0002000FFF70BFF8E21C000C901A8E103783F
:10650000622B33D1049B032B07D0052B2ED1C378EC
:106510005F2B2BD103796E2B28D101269C4A6978F9
:10652000531C76422B321878884206D1A8788446CC
:106530005878844501D1581E067803339A42F2D127
:10654000731CA0D03A6829002000FFF77FFE049B4F
:10655000020000276069052B03D12B79773B5F424E
:106560005F413B00310022F083FFB2E7462E01D1AC
:1065700088496EE1472E01D187496AE1442E0BD14B
:1065800029003A682000FFF70BFFFF231B02B4210C
:10659000184200D077E70DE0452E00D073E73A6847
:1065A00029002000FFF7FCFEFF231B02184200D049
:1065B00069E7BC2109024BE1019B022B00D0D6E028
:1065C0007B681B780A3B0F2B49D8332E12D13A68CF
:1065D00001000F232000FFF799FE7A6806002900CA
:1065E0000F232000FFF792FE31000200606922F0C5
:1065F0000EFF31E100230293342E1BD18026F601D9
:106600003A68290007232000FFF780FE7A6801908E
:10661000290007232000FFF779FE019A03003100CB
:10662000606922F0ECFE17E1029B013302930F2B0D
:1066300000D128E7029B03229E00584B711C591879
:1066400028001EF043F80028EED1EB78002BEBD1A8
:10665000524BF65C80233601DB011E43D0E7332E1C
:1066600001D1802602E0352E13D1A02607233A68F7
:1066700029002000FFF74AFEFF23019029007A68D5
:106680002000FFF717FE019BB601190206433143B4
:10669000DFE0362E01D1C026E8E7372E01D1E02613
:1066A000E4E700233E4A99005018408886425AD1B8
:1066B0008B5A200002933A6807232900FFF726FE31
:1066C0007E6803903378982B28D1300024F068FD41
:1066D000002823D1300024F023FD03789A2B1DD10C
:1066E00005A924F022FD0599060024F008FD0228E2
:1066F00014D1300024F00FFD0723320007002900D9
:106700002000FFF703FE029B0600DB040ED51F23CB
:106710003A0029002000FFF7CDFD19E02A002149A9
:106720001848FFF749FCA3681860ACE6029BDB0B36
:1067300007D03E233A0029002000FFF7BBFD4008A8
:1067400006E07C233A0029002000FFF7B3FD800813
:106750000299039BF60019430E43F8218001C900FA
:106760000840310074E00133062B9CD18BE6019B7D
:10677000032B00D087E6382E16D1002618E0C0463D
:10678000BF67030014FC020030BF00001F68030055
:10679000D966030072B6000062B600009D66030071
:1067A000F0570300F4670300392E1CD18026360110
:1067B0003A68072329002000FFF7A8FD7A680190B6
:1067C000072329002000FFF7A1FD1F230290BA68CC
:1067D00029002000FFF76EFD019F029B37438101D6
:1067E0003943DE0053E73A2E02D180267601DFE7F7
:1067F000362E01D1C02603E0372E00D043E6D02646
:1068000007233A6829002000FFF780FD0723019045
:106810007A6829002000FFF779FDBA6876011378BD
:1068200002900A3B0F2B05D8072329002000FFF711
:106830006DFD07E08023DB001E43290007232000B5
:10684000FFF738FD029B8001D900019B19433143BA
:106850000143606922F09CFD07B0F0BDF7B506006A
:106860000D0000240192019B9D4227D0631C0093E0
:10687000052B02D1B468124906E028780A38C3B261
:106880000F2B07D9B4680F490F4820F0DEFB2060BA
:10689000002014E06B780002184320F089FD0235D7
:1068A00007001DF0DFFE0228ECD13B78722BE9D106
:1068B0007B7830349C42E5D1009CD4E72000FEBDBB
:1068C000336803006668030014FC0200F7B5CC1CB3
:1068D000A400070020000E0001921FF0C6FF220056
:1068E0000500054B4760866003600C3A01990C3047
:1068F0001CF052FB2800FEBD30FD0200FF2310B546
:106900000324DB05CB18A3430200181CA24213D0BA
:10691000042A09D00021002A0ED113F07FFF074975
:10692000002809D0064907E08022022012069B18A1
:10693000A3431843034BC118080010BD48270300A8
:106940008C27030000008080FF23DB0510B50400C6
:10695000C81803239843002386B00193073300939C
:106960001022603302A9FFF729F802A9200020F0C5
:1069700056FF2E2102A81DF0C3FD00280FD165216E
:1069800002A81DF0BDFD002809D16E2102A81DF04E
:10699000B7FD002803D10349200020F040FF06B0D6
:1069A00010BDC04624D2030030B50C0011000022F7
:1069B00085B01D0000920123200009F021FB002C6E
:1069C00021D02868114B0340062B06D00323184220
:1069D0000DD10F4A0168914209D103A905F034FC99
:1069E0000022039900921300FBF79AF90CE0034090
:1069F000022B09D0FAF788FC03239843013B184384
:106A0000044BC01800E0044805B030BD070080FF0B
:106A1000A41303000000808002008080F0B5050010
:106A200087B010000191FAF76FFC041C0390681FF7
:106A3000182800D9B2E013F013FD0D10161B2C37E7
:106A40006A6FB1B1B1B1B10D10161B2C376A8B90C2
:106A5000959A9F00211C019856E0211C019814F082
:106A600089FC019091E0211C019814F06FFBF8E77C
:106A70000021201C13F0D2FE002805D049494A48C5
:106A800020F0E3FA0BF06DFF03A901A820F0BAFB98
:106A90007BE00021201C13F0C1FE0028EED1211C58
:106AA000019814F089F9DCE70021201C13F0B6FEF0
:106AB0000028E3D1211C019817F042FC0021041C9E
:106AC000019013F0ABFE002807D0039A0023002AA0
:106AD00001DA80231B06019357E00021201C039E4E
:106AE000012713F0A1FE002800D1071C0021301C53
:106AF000012513F099FE002800D1051CFFB2EDB26C
:106B0000AF4242D0311C201C13F0E0FFA9E7211C4A
:106B1000019817F0FBFCA4E70021201C13F07EFE77
:106B20000028ABD103A901A820F06CFB03220220AE
:106B3000019B1E49934303435B180493039B9343B8
:106B400003435B1804A90593FDF730F8030026E022
:106B50000199201C13F07CFE12E00199201C13F017
:106B600063FE0DE00199201C13F058FE08E0019926
:106B7000201C13F077FE03E00199201C13F05EFE49
:106B80000B4B00280BD10B4B09E00323019A022089
:106B90009A431300054A03439B1800E000231800A2
:106BA00007B0F0BD475D030008FB020000008080D5
:106BB000482703008C27030073B501A905F044FBA7
:106BC000019B06001849502B1AD8802040001FF066
:106BD0004CFE164C0500231DD8670023019A9342F2
:106BE00003D0F15CE9540133F9E75B222800EA5451
:106BF00000F0A8FA2B00002807D104340C49E06704
:106C00000C4820F022FA0BF0ACFE5A1B0133591E3F
:106C100009789B29F9D12900074822F02BF9002394
:106C20000434E36776BDC046EC680300B808002072
:106C3000FB680300ACF60200A4130300F0B58BB0B0
:106C40000600080011001A0010AB1F78344B05AD88
:106C500001950093052309F005FA912000011FF02A
:106C600004FE304B304AD867059B476043702B7950
:106C700004A903702B7A040083702B7BC3702B7CD8
:106C80003000136005F0E0FA0025284B07000C20C7
:106C90001D601FF0EAFD264B060003600DF0ECFFBF
:106CA000B0600DF0E9FF234B234A1860234B70605E
:106CB0001D70234B11001D70224B30001D602B00F6
:106CC0000DF0B0FE39002000049A20F029F92000D0
:106CD000FEF7BEFD1C4B071E0393134E194D164CB9
:106CE0000AD10DF0ADFD0F4B1848DF67184B19683E
:106CF00020F0ABF90BF035FE0122164B1A700DF0A7
:106D0000B5FF0028FBD1039B0433D8673368002B01
:106D100003D0296810481DF003F820000BB0F0BD27
:106D200040FE0200BC08002040010020500100206D
:106D3000D0FD02004C01002078F10200250800205F
:106D40002608002054010020B8080020ACF60200FC
:106D500010000020240800201269030000220D49C1
:106D600010B50B78DBB2934212D10B4A1478002C89
:106D700002D001240C701370084B1B78002B06D036
:106D8000074A136820331360064B1A6800E08268D4
:106D9000100010BD2608002024080020250800202F
:106DA000500100204C010020D2235B005843144BBB
:106DB00070B51A68000C904206D2124C226801325B
:106DC00022601A68203A1A601F22040001260E4D24
:106DD00094431A68944201D92E70FAE71F230340A6
:106DE0001A1D202A00D92022084C2468934203D27D
:106DF000E51829710133F9E7054B186070BDC046ED
:106E00005001002054010020250800204C010020E2
:106E100048010020074BDB68002B09D05A688242EA
:106E200004D8801A04308000C05802E01B68F3E7E1
:106E300018007047B808002070B5114D0400EB68C9
:106E40009868DB6883420FD30230C0001FF00DFD4D
:106E5000EB685A68D96803609B6852185B008360CE
:106E600000234260C360E860E968CB6848685A1C48
:106E700004339B000138CA6080185C5070BDC04666
:106E8000B8080020074B4118884205D25A01D31890
:106E9000027801305340F7E7D8B2002800D1013022
:106EA0007047C04605150000034B044ADA60002213
:106EB00094331A607047C046B808002094FE020060
:106EC000F0B585B001900E00FFF7DCFF144B029087
:106ED000DC68002C21D0270010373D00E3689B00C0
:106EE000FB180393039B9D4215D22868029A0378EE
:106EF0009A420ED143789E420BD102303200019962
:106F00001CF022F8002804D1E81B63688010C01828
:106F100004E00435E6E72468DBE7200005B0F0BDB7
:106F2000B8080020F0B585B002900191FFF7C8FFC6
:106F300000285CD12F4C019B27009437DD1C3B6857
:106F4000002B1BD026002C4A983612683168039219
:106F5000AA188A4212D90200691818001FF0A8FC6A
:106F60000390002807D1244B386819681FF093FC60
:106F7000039B3B6002E033685B193360230094336A
:106F80001B68002B17D12E007F2D00D880263000E3
:106F900027001FF077FC94373860002804D12800C0
:106FA0001FF063FC2E003860230098331E6023001E
:106FB00000229C331A6022009C32136894342468A7
:106FC000ED1801990298E4181560FFF75BFF6B4616
:106FD0001B7920706370019AA01C02991BF0DCFFE2
:106FE0000022019B2000E3189A70FFF725FF05B0EF
:106FF000F0BDC046B808002054090020F7B51D00B8
:1070000016000023070003600B6033602B60174BF2
:107010000091DC68002C23D0154B9C4220D03B68AB
:10702000210001333B60E268009B94461B68009A94
:10703000019363441360E36810319B00CB189942BD
:1070400006D204C950783268033282183260F6E7FB
:107050002000FBF763FA2B68246818182860D9E72A
:1070600033682A68D3182B60F7BDC046B8080020E3
:1070700094FE02000C4B70B5DC68002C12D00B4B58
:107080009C420FD02600E36810369D007519AE4271
:1070900006D204CE06490232064820F091FCF6E7FB
:1070A0002468EAE770BDC046B808002094FE0200DC
:1070B0002769030088100300064B0139C9B2197013
:1070C000411880310B78044A1370044AD25C044B97
:1070D0001A70704727080020280800204885030000
:1070E00029080020064B0131C9B2197041188031BE
:1070F0000B78044A1370044AD25C044B1A70704730
:1071000027080020280800204885030029080020BF
:10711000074B984204D9074B18184118064B03E057
:10712000064B1818064B4118C91808787047C04616
:10713000A4920000CE8503005B6DFFFF8D870300E6
:107140000083FFFF030020228033F0B507001A7090
:107150007F2000224F245F2589B0B95C531C0A00B0
:10716000DBB202406F2A02D90A002A4003E05F2AFC
:1071700001D90A002240F91880310A701A007F2BC9
:10718000EBD1C84A13703B001B22FF331A70E43264
:107190000092531CDBB204936B46C3481B7CC3496B
:1071A0000370049B0C00FB1880331B780B705B2B67
:1071B00007D19B22009B0A700133DBB20370FA54A3
:1071C00038E02E2B14D10232D2B20270BA188032BB
:1071D0001278B4480270B648825C0120024207D19E
:1071E000009A0B701218D2B20092BB54049AD0E7E6
:1071F000AC4A1370AE4AD05C022210422DD1002856
:107200001AD11E320A70A8490B78FB1880331A7005
:10721000009B0133DBB200936B461B780B70009B25
:10722000782B01D8FA54E1E79B23009ABB546B46B4
:107230001B7C2370012051E27F229043087003D110
:107240009C4A9D4B1A6049E2413B9C4ADBB29C49F7
:10725000D25CCB5C1202134300E09A4B0193019B7A
:10726000002101339BB218000193FFF751FF030681
:10727000F5D501238B4C002523700123039303993B
:107280000198FFF745FF039B0133DBB2282802D0AA
:1072900003930125F3E7002D02D06B461B7B23707F
:1072A00023780133DBB2029302990198FFF730FF94
:1072B000029B0133DBB22928F5D17F240593059980
:1072C0000198FFF725FF059B20400133DBB23D28E5
:1072D00001D00593F3E76A460026744B127C1870C0
:1072E000714B049D1A70039B06955C1C6D4BE4B2B8
:1072F0001C707B1980331B78210001980793FFF7DE
:1073000007FF079B8342AAD10134029A6B1CE4B2A7
:10731000DBB2944203D01D0001260693E9E7002E5C
:1073200001D0614B1D70049C6A46039B0198013B90
:10733000DBB20393127B5B4B03991A70FFF7E8FEF5
:107340005A4D030600D5CEE07F22594B564E1B5CAA
:10735000307093432B7008D0013CE4B23B1980336A
:107360001B7834709842DFD079E72870202840D00D
:10737000232847D02E284ED0262854D040286ED01F
:107380005E2876D02B2800D17EE03A282CD120250B
:107390009CE002990198FFF7BBFE7F22444B424ECE
:1073A0001B5C424D934330702B7000D0ADE02870D1
:1073B000202800D10CE1232800D112E12E2800D191
:1073C00018E1262800D11DE1402800D136E15E28D1
:1073D00000D13DE12B2800D145E120253A2800D1FC
:1073E0004FE1252800D199E0374A334B00201A603D
:1073F00074E121003800FFF75FFE7F222B78934372
:107400003FD02CE721003800FFF756FE40222B78B2
:10741000134236D123E721003800FFF74DFE2B78C9
:107420001B072ED41BE721003800FFF745FE102272
:107430002B7813402B7024D13378F91880310978D8
:107440002970482900D00AE7013BDBB23370FB18F2
:1074500080331B789343432B00D000E711E02100D9
:107460003800FFF729FE04232A7813402B7008D137
:10747000F5E621003800FFF71FFE2B789B0600D4AD
:10748000EDE6094B1C784FE7013CE4B234703C193F
:1074900080342378452BF4D010229343492B00D01D
:1074A000DDE6EEE728080020270800202908002054
:1074B0004885030034850300100000201A8503006E
:1074C000B4850300A59200003E850300210038002A
:1074D000FFF7F2FD824A13782B40137000D123E7A7
:1074E000804B1C78F2E7069C6A46029B0133DBB2B4
:1074F0000293127A7C4B1A70059B029A934200D039
:1075000047E700247F262500CFE00134E4B23B1991
:1075100080331B7834709842E6D0A0E6631C714A31
:10752000DBB21370FB1880331B786D490B70452B51
:1075300038D17F26A01CC0B23B1880331B786A4D1F
:107540002B706A4DED5CB54300D189E010700B7073
:10755000522B00D184E0532B00D181E0442B00D189
:107560007EE04C2B08D10334E4B214703C19803413
:107570002378592B74D072E6462B00D06FE6E31CBB
:10758000DBB21370FB1880331B780B70552B00D0C7
:1075900065E60434E4B214703C19803423784C2B33
:1075A0005ED05CE6492B00D059E6A31CDBB2137019
:1075B000FB1880331B780B704E2B00D04FE6033442
:1075C000E4B214703C1980342378472B48D046E647
:1075D00021003800FFF786FD7F222B7893433FD0B0
:1075E0003DE621003800FFF77DFD40222B78134255
:1075F00036D134E621003800FFF774FD2B781B07E5
:107600002ED42CE621003800FFF76CFD10222B78D9
:1076100013402B7024D13378F91880310978297000
:10762000482900D01BE60133DBB23370FB188033EE
:107630001B789343432B00D011E611E02100380062
:10764000FFF750FD04232A7813402B7008D106E67B
:1076500021003800FFF746FD2B789B0600D4FEE59D
:10766000204B1C7840E70134E4B234703C1980347C
:107670002378452BF4D010229343492B00D0EEE51C
:10768000EEE721003800FFF72DFD154A13782B4057
:10769000137000D128E7134B1C78F2E7059A0132EA
:1076A000D2B201060FD40125059205990198FFF782
:1076B0002FFD030033403D2BF0D0009A0132D2B2AF
:1076C0000092BB54EAE7002D03D06946064A097DC3
:1076D0001170034A1370069B049387E509B0F0BD4F
:1076E00029080020270800202808002048850300DA
:1076F00010B5F9F709FE15F019FE0022074B14F03A
:10770000CFFF074B074A14F0A7FB15F063FE0323D6
:107710009843013B1843044BC01810BD00806640DD
:10772000FB210940182D44540000808010B5F9F762
:10773000EBFD15F0FBFD084A084B14F0B1FF084BB8
:10774000002214F089FB15F045FE03239843013B0A
:107750001843044BC01810BD182D4454FB21094098
:10776000008066400000808010B5F9F7CDFD011C57
:1077700013F086FF024B002800D1024B180010BD09
:10778000482703008C27030010B5F9F7BDFD44001E
:1077900064080849201C13F073FF002805D105492F
:1077A000201C13F055F8002801D0034800E00348DE
:1077B00010BDC046FFFF7F7F8C27030048270300D2
:1077C00010B5F9F7A1FD034B184002231843024BF3
:1077D000C01810BDFCFFFF7F0000808010B5F9F7D6
:1077E00093FD440064080849201C13F049FF002859
:1077F00007D10549201C13F021F8002801D10348C6
:1078000000E0034810BDC046FFFF7F7F482703000C
:107810008C2703001FB500230193F9F775FD01A91B
:1078200016F000FB032203000220934306490343A2
:107830005B180293019B934303435B1802A90393D4
:10784000FCF7B4F905B000BD0000808070B50D00F4
:10785000F9F75AFD041C2800F9F756FD13F028FF2C
:107860000100201C16F0BAFA03239843013B184389
:10787000014BC01870BDC046000080801FB50023BA
:107880000193F9F741FD01A916F07CFA03230224C4
:107890009843074B2043C018029001981EF0C3F98B
:1078A00002A903902000FCF781F904B010BDC04686
:1078B0000000808070B50D00F9F726FD041C28003B
:1078C000F9F722FD011C201C16F03AFD0323984312
:1078D000013B1843014BC01870BDC04600008080BA
:1078E00070B50D00F9F710FD041C2800F9F70CFD28
:1078F000C00FC30760004008184303239843013BAF
:107900001843014BC01870BD0000808070B50D0099
:10791000F9F7FAFC041C2800F9F7F6FC011C201CFE
:1079200016F096FC03239843013B1843014BC01803
:1079300070BDC0460000808010B5F9F7E5FC16F078
:107940002BF803239843013B1843014BC01810BD8B
:107950000000808010B5F9F7D7FC16F025FC032352
:107960009843013B1843014BC01810BD00008080B4
:1079700010B5F9F7C9FC16F0C3FB03239843013B8C
:107980001843014BC01810BD0000808010B5F9F7F6
:10799000BBFC16F02BFB03239843013B1843014B20
:1079A000C01810BD0000808010B5F9F7ADFC16F0CE
:1079B000DFFA03239843013B1843014BC01810BD65
:1079C0000000808010B5F9F79FFC16F04BF90323F7
:1079D0009843013B1843014BC01810BD0000808044
:1079E00010B503490348FEF7E7FA0AF0BAFFC046AC
:1079F00079970300ACF6020070B5060008680D0028
:107A0000F9F782FC0021041C12F018FF002801D0B5
:107A1000FFF7E6FF201C16F0FBFC041C012E03D12F
:107A2000032302209C4312E06868F9F76DFC0021F3
:107A3000051C12F003FF0028EAD1281C16F0E8FC10
:107A4000011C201C13F0B8F9032302249843024BB5
:107A50002043C01870BDC0460000808010B5F9F703
:107A600053FC16F0F9FB03239843013B1843014BE9
:107A7000C01810BD0000808070B50D00F9F744FCFF
:107A8000041C2800F9F740FC011C201C16F03EFDE8
:107A900003239843013B1843014BC01870BDC046F7
:107AA0000000808010B5F9F72FFC0021041C12F0B3
:107AB000BBFE002801D0FFF793FF201C16F0BCFE90
:107AC00003239843013B1843014BC01810BDC04627
:107AD00000008080F0B5456887B00393AB6805A8C7
:107AE0001700029105931FF0D6FD060005A81FF0B0
:107AF000D2FD0323584333000933C01880001EF021
:107B0000B4FE0400094BAA6803606B682900436057
:107B1000059B06629B1AC360039B08300093029A80
:107B20003B0000F0FBF9200007B0F0BDBC0C0300E7
:107B300070B5050088680C001EF069FE2300020085
:107B4000024928001FF03CFF70BDC0468B97030020
:107B500010B502481FF06CFA0AF003FF58F9020052
:107B600010B5040008201EF080FE024B4460036044
:107B700010BDC046740C0300F8B50400C0681D00B9
:107B8000002801D118602EE0200063692030834274
:107B900008D1154B994206D0144915481FF055FAE3
:107BA0000AF0DFFE19602000124E636811000830F1
:107BB00077687360FBF7EEF87760012806D0002342
:107BC000E360022809D063691B680BE063691B68E6
:107BD0002B60002B07D1E36005E0236A07339B008D
:107BE000E41863682B60F8BD78F10200A9970300E0
:107BF0009CFB0200B808002013B501AB1400FFF78E
:107C0000BBFF01280DD0184C02281CD0019BA342B9
:107C100028D0002B26D001AA012114481FF002FA17
:107C20000DE0002C0DD02000F9F720FA104909F0E2
:107C300093FB002805D00F490F481FF006FA0AF001
:107C400090FE01980FE00198F9F710FA074909F042
:107C500083FB002801D10198F1E70198FEF78CF928
:107C6000A042F8D1002016BD78F1020058F90200B8
:107C700050FC0200DF970300E8F6020010B50C008C
:107C8000022801D1486800E0886807F0F7F9054943
:107C900002002068FFF7B0FF002801D1FFF758FF6E
:107CA00010BDC04678F1020010B500220149FFF76F
:107CB000A3FF10BD78F1020013B5124C01AB124ABC
:107CC0002100FFF759FF012802D0022805D017E054
:107CD0000E490F481FF0B9F910E00198F9F7C6F9FD
:107CE0000C4909F039FB00280AD10198F9F7BEF9CF
:107CF000094909F031FB002802D101980AF031FE50
:107D0000200016BD78F1020068F70200DF9703003B
:107D1000E8F6020050FC020058F90200F7B500280E
:107D200005D13A4A3A493B481FF04AFE6BE00D68DC
:107D30002800F9F79BF943680600EF2B04D16D6822
:107D40002800F9F793F9060000233349DA00505868
:107D5000A84203D18A1851682E480AE00133612BEA
:107D6000F4D12E4B2B4C9D4201D09E4204D12000D9
:107D70002B491FF054FD46E02A4920001FF020FE49
:107D800000212800F9F7A6F97268274920001FF0A2
:107D900017FE264B9E4203D128001DF095FF0CE0F4
:107DA000234B9E4200D03500A86B00282BD08307C0
:107DB00029D1204B02689A4225D121F09EFC002552
:107DC000061E20D073689D421DD2B268EB00D31806
:107DD0001F68002F15D05B681749200001931FF022
:107DE000EFFD00213800F9F775F9144920001FF064
:107DF000E7FD00210198F9F76DF9114920001FF006
:107E0000DFFD0135DEE70F48FEBDC046FF970300EA
:107E100090D7030088100300380D0300543203008C
:107E2000769C0300929C03009A9C0300A0E8020049
:107E30008C2903002C240300BCE00300AA9C03004F
:107E40008365030078F1020070B5050014001FF08F
:107E500024FB024B2560636070BDC046597402006C
:107E600010B50C007F2906D801211FF07EFB0028E9
:107E700044D0047042E0224B99420FD802211FF0F7
:107E800074FB00283AD04022A309524213430370E6
:107E90003F231C40BF3B1C4344702FE0194B9942C9
:107EA00014D803211FF061FB002827D02022230BC8
:107EB00052421343037080213F23A20949421A40D2
:107EC0001C400A430C434270847017E004211FF0E9
:107ED0004CFB002812D01022A30C52421343037013
:107EE00080213F23220B49421A400A434270A209D3
:107EF0001A401C400A430C438270C47010BDC04637
:107F0000FF070000FFFF000007B5034B0090684625
:107F1000019300F05BFC07BD59740200F0B5150039
:107F200042688FB0944606938369CA6803938B684E
:107F3000826063445A1C42601A78040001929A1CC1
:107F40004260DA1C5F7842609A78059104921A1DAB
:107F50004260DB78934A029303001833C360039BAB
:107F60001C309B189B00C2180C33226100211A00A0
:107F700007931BF09BF8149AAB00D3180B93039B49
:107F8000049ADB1B08939B1A05339B00E3181E1D04
:107F900001220199AF420ED2114202D12B003A00C8
:107FA0002BE01E00149BB900E81B5918FBF7FEFDDF
:107FB0003D00706027E0114202D01E007A4B7360D2
:107FC000069B002B1FD1019B1B071CD4029BFA1A96
:107FD000954211D3D91B8B009C462A00BA4212D27B
:107FE00061469300581805990132081807990069ED
:107FF000CB1AE3189861F1E72B006C496C48FDF748
:10800000DBFF0AF0AEFC0022954208D014990798D5
:108010009300C958C31AE31899610132F4E7069B2B
:10802000002B03D1019B1B0700D493E00223019A8C
:108030001A4000230A920793002A04D0069821F0E0
:1080400010FB079030600026A3680B9D0993069BE8
:108050009E4227D0049B0022FB189C46296862455B
:1080600014D2099B9000185881420DD1039B013B0B
:108070009B1A9B00E318DA69002A02D0CA084D490E
:1080800064E06A68DA610AE00132E8E70A9B002BE3
:1080900001D1494962E06A68079821F01BFB01366B
:1080A0000835D4E7089B02989A1D029B9200D91CC0
:1080B000A218059B0432890059181300002808D023
:1080C0001D68002D01D10D681D600138043304398D
:1080D000F4E7029B9B00D218039B06339B00E31836
:1080E00004339A4208D20432111F09680029F8D1DA
:1080F0009A1A9210314929E0089B099A9D00BB0009
:10810000D31865190693002610E0029905980431EA
:10811000890008580699B3000430C95809F062FD77
:1081200000280DD04368AB610136043D049B9E429C
:108130001FD2AA69002AF7D10821019B0B42E4D182
:10814000F619099BB600F2581D49D2081848FDF7E8
:1081500033FF56E7049B002B04D01A4914481EF045
:1081600074FF4EE7019B9B0703D5049821F079FA31
:10817000306065680DA825600D951FF08CFA2E18EB
:108180000136731E1D78FF2D09D0039B013B5D1B3B
:10819000AD006519E86902F07FFCE861F0E7666010
:1081A0000FB0F0BDFDFFFF3F10F2020052BE030012
:1081B0009CFB02008BBE0300BABE0300E3BE0300BB
:1081C00015BF030045BF03003E2803D0402809D057
:1081D0003C280ED14239C9B22F290AD8084B585C25
:1081E000012308E0712904D8064B585C064B5B5606
:1081F00001E001230020002A00D013607047C04630
:1082000050C003006CBF0300DEBF030010B551284F
:1082100036D00FD8492827D006D842281CD0482865
:108220001FD000284BD117E04F2840D042D84C280F
:108230001AD044E0682811D007D864282AD06628CC
:1082400025D062283BD188563AE06C2832D071287C
:108250000FD0692833D12DE0885C31E05200505EA8
:108260002EE05200505A2BE0920050581DF0F6FCC0
:1082700029E0D2008A18106851681DF0C5FC22E080
:10828000D2008A18106851681DF0D9FC1BE09200DA
:10829000505805E0D2008A181068516815F09AF815
:1082A00003239843013B1843074BC0180BE092008F
:1082B000505808E0920050581DF0B5FC03E0002033
:1082C00001234000184310BD00008080F7B517005F
:1082D000156801AA04000E00FFF776FF402C05D1B7
:1082E000019B043C5A1EAD185B421D405A213E3C86
:1082F00062426241B14289412B183B60D2B22B00ED
:1083000049421FF003FA04000D004F2E3AD0532EBD
:1083100007D11CF0A7F900220100200003F0E4FAC5
:1083200030E0662E06D1032302209C43164B044303
:10833000E01827E0642E08D115F04CF8032302243E
:108340009843114B2043C0181CE05A2E0FD98022AD
:108350000023D20512196B41002B04D1002A02DB45
:108360001DF061FC0EE029001DF04EFC0AE0002922
:1083700005D1064B984202D81DF070FC02E029009E
:108380001DF05DFCFEBDC04600008080FFFFFF3F8A
:10839000F0B587B0140003AA07000E0001931D6812
:1083A000FFF712FF0090402F05D1039B043F5A1E98
:1083B000AD185B421D40009B019AEB1813603E3FD5
:1083C000642E09D0662E02D04F2E22D140E020002C
:1083D000F8F79AFF04003BE02000F8F795FF14F04F
:1083E000A5FF0490059179427941C9B28B0006AA94
:1083F000D318083B2A001B6804201FF0B0F93B008B
:108400005A1E934106AA9B00D318083B04351C68EA
:108410001EE0A3070CD1154B22689A4208D179427D
:1084200079412B00C9B2009A20001DF0D4FB1AE05C
:108430002000F8F705FF009B0400042B08D95A2EF2
:1084400006D9002804DA1A1F281DFF211AF02EFE73
:10845000794279410098C9B2042800D90420230048
:108460002A001FF07CF907B0F0BDC046E4F202001C
:1084700070B505000E0014001800642D0CD0662D98
:1084800004D04F2D11D19400A35127E094000E1970
:10849000F8F73AFF306021E0D4000E19F8F734FF06
:1084A00014F044FF3060716018E020232B43712BDF
:1084B0000CD10321014009D1094B02689A4205D130
:1084C000E300F31808221DF086FB07E0F8F7B8FE7A
:1084D00022000300310028001FF055F970BDC0468E
:1084E000E4F20200F0B587B0039205910D9A03996A
:1084F0000500541A0CAA127820211000884305D0D8
:10850000302A05D00CAA0292012204E0224A00E09F
:10851000224A02921022019280221A4005D0E30FD3
:108520001B195B10E71A1C0003E001210B4012D15C
:108530001F00002C12DD2600019B0493B34200DDD6
:1085400004966B68049A029928689847049BF61A67
:10855000002EF1DC03E02700140000E00024039B60
:10856000002B06D01A0005996B6828689847039B72
:10857000E418002F0CDDE419019EBE4200DD3E0030
:108580003200029928686B689847BF1B002FF3DC04
:10859000200007B0F0BDC046A3C0030092C0030096
:1085A000F0B593B0069318AB40CB04901B780F0046
:1085B00014000793CB070BD48B0703D1814B0A68B8
:1085C0009A4205D03800F8F73BFE012740000743E8
:1085D00081231E4209D1079B302B06D11A9B1B9A7F
:1085E000934200DA1A9200231B9338001DF0F8FA28
:1085F0000AAA130000280DDDB30703D52B2313703F
:10860000123B05E01300720704D520221A701923CB
:1086100004AA9B18F20619D5022C04D130221A7034
:10862000069A013210E0082C08D130221A70B205E7
:1086300001D401330AE0069A0E3205E0102C05D170
:1086400030221A70069A17325A70023300220AA991
:108650001A705B1A0593B30600D52C320EAB0B9340
:1086600010230C9300231B990D93012901DD402158
:108670000E4304A9CB756B4640251B7E3540039203
:10868000029313D00023009401930DAA3B000CA980
:108690000BA8FCF7EFF9037807002D2B79D104AA7A
:1086A000D3750D9B0137013B0D9372E00AAB01932B
:1086B00000943B000DAA0CA90BA8FCF7DBF91B9B4F
:1086C0000700012B78DD0D9A934200DA13001A9A05
:1086D0009A4206DD0125D41A354004D02500002435
:1086E00001E000252C0001239E43002C09D01F33FC
:1086F0000093002301941A0033490498FFF7F2FE17
:10870000040030230793730621D5172104ABC91841
:108710000B78002B0AD000230122009301920498C9
:10872000FFF7E0FE1A9B2418013B1A93059B002BD0
:108730000DD0012301930023059A00930AA9049800
:10874000FFF7D0FE1A9B059A24189B1A1A931B9BBD
:10875000012B00DD1A931A9B0D9A0193079B390098
:10876000009304983300FFF7BDFE2418002D09D0B4
:1087700020230093002301951A0013490498FFF762
:10878000B1FE24180B980EAB984217D01EF094F847
:1087900014E01B9B012B0EDD0D9A1B9B934200DA0C
:1087A0001300172204A952181278511E8A419B18EF
:1087B000059A9B188BE700252C00A4E7200013B036
:1087C000F0BDC046E4F2020050D20300F0B506004E
:1087D000140000278DB00D002B78002B0BD1A9427F
:1087E0000DD26B1A04931A00306873689847049B83
:1087F0002900FF1803E0252BF1D00135ECE70B78B9
:10880000002B00D144E14B1C0493202300250822B7
:1088100004210893049B1B78002B1DD02D2B01D124
:108820002C3B02E02B2B02D1293B1D4310E0202BD7
:1088300001D10D430CE0212B01D1154308E0302B71
:1088400003D000230A21069309E040200893054342
:10885000049B01330493DDE70693013B3BE0049B5B
:108860001B781A00303A092A08D8069A4A43D318C6
:10887000303B0693049B01330493F0E72E2B25D164
:10888000049B5B782A2B06D0049B0A2101330493B6
:108890000023079308E0049B2268023304930792A5
:1088A000231D002A15DB0FE0049B1B781A00303AC9
:1088B000092A08D8079A4A43D318303B0793049BE8
:1088C00001330493F0E723001C0005E001235B4221
:1088D00001E01C0000230793049B1B786C3B59426A
:1088E0005941049B5B1804931B780593002B00D11E
:1088F000CEE0642B00D18DE01AD8502B00D195E04A
:1089000004D8453B022B00D8A0E0B6E0059B622BC3
:1089100021D039D8582B00D0AFE0231D0993069BF6
:1089200001950393089B029341230093313B87E019
:10893000059B712B34D005D8672B00D886E0702BAF
:1089400074D09AE0059B752B59D0782B6ED0732B81
:1089500000D092E037E0231D09932368002B07D055
:10896000069B04220193089B4B4900932B0006E0D1
:10897000069B05220193089B484900932B00300079
:10898000FFF7B0FD3F187FE0231D099323680BA973
:108990000B70069B01220193089B00932B00EEE7CE
:1089A000231D0BA9206809931EF007FD079B0100FA
:1089B000013301D10B9B0793069B079A0193089BF8
:1089C00000932B00DBE7231D24680993002C0ED0B5
:1089D000079B013303D120001BF044FE0790069B48
:1089E000079A0193089B210000932B00C7E7069B81
:1089F00006220193089B2A4900932B00BFE7231D01
:108A00000993069B01950393089B029361230093AE
:108A1000573B15E0231D0993069B01950393089B83
:108A20000122029361230093573B0AE0231D09931F
:108A3000069B01950393089B029361230093513B8E
:108A40000022216830001EF0F9FE9BE7072307345F
:108A50009C432300206861680833099314F0BAFC32
:108A6000079B011C0293069B059A0193089B30000B
:108A700000932B001EF057FF84E701220499306811
:108A800073689847013709940499099C0131A2E65B
:108A900038000DB0F0BDC04680C0030085C00300A3
:108AA0008BC0030070B50C0005000B6805495A68BF
:108AB0001EF086FF216828004031220004F042FFAA
:108AC00070BDC0461DDA0300136870B5002B11D1CC
:108AD0000568EE6BB34213D09C002C19246CA142A4
:108AE00001D00133F6E7591C0AD002339B001B5812
:108AF000136005E0034904481EF0A7FA09F031FFAE
:108B000070BDC046B4C00300D0F90200F0B585B016
:108B10000C00032502F00AFF25400700002D03D1B9
:108B20001E4B22689A4205D01D491E481EF08DFA40
:108B300009F017FF03AA02A9200022F08AF8029E7A
:108B4000039B30001030800001931DF08EFE040066
:108B50003C2229001AF0AAFA134B67602360134BDA
:108B6000E663A360124BE360124B6361124BA36197
:108B7000124BE361124B2362124B6362124B63632D
:108B8000AE4208D0019BAF00D85902F0CFFEE719E2
:108B900038640135F4E7200005B0F0BD382B030040
:108BA000C8C003009CFB02008C290300A58A0000BA
:108BB000CD8B00002D3B0000ED3B0000C98A00007A
:108BC000E53C0000893B0000CC100300F0B51D001F
:108BD00085B0C36B00AFFB607A608B18FA68060043
:108BE0000C009A4204D02A492A48FDF7E5F934E0FE
:108BF000FB688B4244D09A00130069460E33DB08B1
:108C0000DB00CB1A9D4618000021BB601AF04EFA1B
:108C10000023A2009A4204D0E858B968C85004332F
:108C2000F8E7F9687B688C4663447B60AD1803E025
:108C30006A6802341A6008357B689C421FD2286833
:108C400002F074FE00210200F36B3B603B68994226
:108C500005D111490F48FDF7AFF909F082FE8B00ED
:108C6000F018006C824201D00131EFE70131F0D001
:108C7000B968CB1819680029DAD00849EAE7BD6855
:108C80002900F868FAF792FFBD46066005B0F0BD0E
:108C900052BE03009CFB0200D6C003008BBE030043
:108CA00073B516000D4A0B0054681568012804D9E5
:108CB0004C682500022800D08D6801A9186803F0CF
:108CC000C3FA01002C20019A0023FF30FDF7CEF8F3
:108CD0002B003100220006F06FFA76BDB8080020A4
:108CE00010B54379012B03D1C06A20F030F805E0BC
:108CF0000B00C26A0249006B20F065F810BDC04647
:108D0000ECEF020010B54379012B03D1C06A20F0CB
:108D10003EF805E00B00C26A0249006B20F053F8F0
:108D200010BDC046DCEF020010B54379012B03D122
:108D3000C06A20F02CF805E00B00C26A0249006B03
:108D400020F041F810BDC046FCEF020010B5024B08
:108D50003F221EF0DDFE10BD0185020010B5024B62
:108D600091221EF0D5FE10BDCD9E0000F7B50F007C
:108D700011001A00C38AC579868A01930023040072
:108D8000C3718382C382104B1EF0C2FEA368002B06
:108D900018D1E18A002908D0A38A002B05D1206BC5
:108DA0001DF092FB206B1DF022FAA38AE28A3900A3
:108DB00020001EF05CFE6B1E9D416B469B88E5719A
:108DC000A682E382F7BDC046D99A0000836870B5D9
:108DD00004000D00002B09D1110005481EF035F9E3
:108DE000A060200029000C301EF0F8FE70BDC046C7
:108DF00014FC0200F0B58DB06B4601921B790400A3
:108E000043710123E16203610B780D00012B02D055
:108E1000954A002144E0019B012B07D9836B0A008E
:108E20001E68030001990833406BB047AB68180017
:108E3000049322F070F963790490032B0FD1099009
:108E40000C2109A822F080F9A36B02009B68099904
:108E5000606B9847A3686883002B00D0FDE00498FE
:108E600022F059F904900378002B24D00A3B0F2BF1
:108E70001CD809A91EF0CFFD099B772B14D004D86C
:108E800003220292312B18D008E0812B04D0022259
:108E90000292992B11D001E001230DE0734A04994D
:108EA0002000FFF793FFDDE0002305E00100704A9A
:108EB0002000FFF78BFF02230293049822F02BF986
:108EC0005A21049004A822F03FF9049D0390039BCB
:108ED0009D4200D1B6E004952B78432B00D1ACE045
:108EE000392B01D0634ADAE705A9280022F01DF9E1
:108EF00003780600912BF5D122F00DF9059B9842DD
:108F0000F0D105A9300022F010F9037807000A3BE0
:108F10000F2BE7D822F0FFF8059B06009842E1D01E
:108F20000378A02BDED122F0F6F8059B9842D9D128
:108F300006A938001EF06FFD300022F0F1F89C21E8
:108F4000079007A822F000F90100079822F0D7F84F
:108F5000069B06002E2B1BD1012804D1079803780D
:108F60000A3B0F2B01D9444A99E72669731C2361F8
:108F7000019B012B5ED909A91EF04DFDA36B099A37
:108F8000DB683100606B9847002853D13B4A86E785
:108F90002F2B13D1012803D107980378032B01D07D
:108FA000374A7CE7019B012B44D9A36B676B1E6991
:108FB00022F091F801003800B0473BE0302B23D17C
:108FC000012803D907980378032B01D02D4A66E7BF
:108FD000019B012B2ED908A922F06EF801270790DA
:108FE00007980378032B01D0274A58E709A922F0F4
:108FF00063F8A36B07905B69099A0899606B013766
:109000009847BE42ECD115E0019B012B12D90328F1
:1090100000D967E7079B1800099322F07CF80A90B3
:1090200022F079F8A36B0B909F69320009AB069987
:10903000606BB847A368002B0FD1280022F06BF8B3
:10904000050044E76379012B04D9A36B02995B689F
:10905000606B9847A368002B04D0200004990C3063
:109060001EF0BCFD0DB0F0BD02C1030026C103001F
:1090700033C103005BC103007EC103009AC103003A
:10908000AAC10300C6C10300EBC1030010B5024A28
:10909000FFF79CFE10BDC0460DC2030030B50B7833
:1090A00085B005000C00002B01D101347CE0032BBE
:1090B00009D103A9200021F0FFFF03990400286BC8
:1090C0001DF038F870E0012B07D1497802340529EA
:1090D0006AD0006BF8F7CAFB66E0042B07D14B7827
:1090E0008978006B090219431DF069F816E0052B19
:1090F00019D14379042B02D02D49006B0CE08878FC
:109100004B780002184303A91EF057F903992D6B01
:1091100002F002FC010028001DF05DF8200021F0A3
:10912000FAFF040040E01A000A3A0F2A09D803A9FE
:1091300020001EF070FC039904002800FFF7D0FD0A
:1091400032E0082B0CD103A9200021F0ABFF039BD8
:109150002A6A9B0004009958286B1DF03CF823E014
:1091600003AB02AA01A9200022F006F8029904002C
:10917000286BF8F731FB019B0E4A9B009B58002B94
:1091800005D10D4A21002800FFF720FE0BE0039ACD
:10919000210028009847AB68002B04D0EB68002B17
:1091A00001D1029BEB60039C200005B030BDC0469E
:1091B00078F10200FC1003002AC20300F0B517008A
:1091C0000A0087B00493531E9A410E0005000499CB
:1091D0003800059221F093FF341E019009D03378B6
:1091E0000024842B05D102002100286B1DF0EAF930
:1091F0003400019B0097013B0393059B0293009B66
:10920000049A93421DD0009B1B78842B0ED1002C16
:1092100006D1039A0299286B1DF0D4F9009C05E051
:10922000204A00992800FFF7D1FD39E0009821F08D
:1092300072FF029B009001330293039B013B039357
:10924000DDE7002C07D1019A059B94466344190081
:10925000286B1DF0ABF9002E1BD0B44205D12000C5
:1092600021F05EFF0022010001E000223100280011
:1092700000F01AF80DE0BC420FD1200021F050FFA1
:1092800000220100280000F00FF8380021F043FF11
:109290000700049B9F42EED102E000223900F1E773
:1092A00007B0F0BD42C20300F0B50B7817001A00FA
:1092B0000A3A85B004000D000F2A0FD803A9280030
:1092C0001EF0A9FB03992000002F01D0022F02D12C
:1092D000FFF718FDD9E0FFF703FDD6E06C4A192B24
:1092E00000D8CEE01A3B7C2B00D182E004DC252B99
:1092F00076D0772B06D0C3E07E2B00D187E0912B70
:109300006ED0BDE002A9280021F00FFF0600022F59
:1093100003D001002000FFF7C1FE300021F0FBFE6A
:10932000029906001EF06FFB002800D0A8E03378F9
:10933000922B14D1300003A921F0F7FE0600300073
:1093400021F0E9FE039A0190904208D2022F01D148
:10935000019EF4E731002000FFF7A0FEF8E7337824
:10936000A12B19D1022F04D1206B1CF0C5FF206B5B
:109370000FE0300021F0D4FE01002000FFF78EFE48
:10938000206B012F05D11CF08BFF206B1CF05BFFC5
:109390001DE01CF070FF1AE0A22B71D1300021F00B
:1093A000BFFE03A91EF037FB012F07D1206B1CF075
:1093B0006DFF0399206B1CF024FF08E0022F02D1FF
:1093C000206B1CF082FF0399206B1CF047FF3000DC
:1093D00021F0A1FE02991EF016FB002855D14FE0A6
:1093E000002F4BD103A9280021F09FFE039B020010
:1093F0001BE003A9280021F098FE039906001EF047
:1094000002FB00283CD1002F38D1350015E0002F99
:1094100034D103A9280021F088FE039905001EF02D
:10942000F2FA021E03D03B003A00390022E02B780A
:109430009A2B02D0030029001CE003A9280021F088
:1094400074FE060021F067FE03789D2B02D10023F5
:109450001A0006E09E2B06D103A921F066FE020049
:10946000039B310006E0BE2B0AD021F054FE3200EF
:10947000030000212000FFF7A1FE06E0054A00E0FE
:10948000054A29002000FFF7A1FC05B0F0BDC04649
:109490005CC203008FC2030074C20300F0B50B78F6
:1094A0008FB00A3B0400019103920F2B00D9E4E036
:1094B000080021F030FE0378912B00D0DDE0019808
:1094C00021F029FE0BA921F030FE037842780A3BF7
:1094D0001B021343AD2B00D0CFE021F01CFE03781C
:1094E0000500A02B00D0C8E021F05AFE002800D0D3
:1094F000C3E0280021F00FFE0B9B984200D0BCE097
:10950000280021F00DFE9C210C900CA821F01CFEDF
:1095100001230C9E070030000D9321F0FCFD050097
:109520000C90874210D021F0F6FD0C9087420DD0B0
:109530000378032B00D0A0E00DA921F0BDFD0C9015
:10954000874200D099E001E03500764E3378483309
:10955000DBB2022B00D890E02B784833DBB2022B31
:1095600000D88AE00B9B1800049321F0D4FD039AE5
:109570000290904201D1002302930D9B276905932D
:10958000238B27830693638B0793E38B08937B1CC2
:109590000393BB1C09936B469B896383A38BE38373
:1095A0003B1D23612B780393032B03D0290020005C
:1095B000FFF774FD31002000FFF770FDF91C206BF0
:1095C0001CF0AFFEB91C206B1CF080FD206B1CF062
:1095D0005DFE002201992000FFF766FE049920003D
:1095E000FFF75CFD791C206B1CF070FD0599206B6A
:1095F0001CF0A0FD1221206B1CF044FF206BF91C15
:109600001CF064FD039B206B032B05D01CF048FE6F
:10961000206B1CF05AFE05E01CF038FE29002000EB
:10962000FFF73CFD059B1921002B00DA1A21206B66
:109630001CF028FFBA1C0121206B1CF07EFE6B463B
:109640001B8B23836B469B8B63836B461B8CE38353
:10965000029B002B03D019002000FFF71FFD3900EB
:10966000206B1CF033FD206B1CF024FE039B032BAE
:1096700056D0206B1CF01EFE52E0238B256902930E
:10968000638B6F1C0493E38B67830593AB1C06937A
:10969000A38B0198E383244B2B432383EB1C23618F
:1096A00021F039FD01002000FFF7F8FC0600206BD7
:1096B0001CF094FE3900206B1CF008FDA91C206BE7
:1096C0001CF096FE002201992000FFF7EDFD31000D
:1096D0002000FFF7E3FC0600206B1CF0EEFC0028E6
:1096E00003D13900206B1CF01CFEA91C206B1CF060
:1096F000EDFC206B1CF088FE6B461B8923836B46B8
:109700001B8A63836B469B8AE383039BB34203D02C
:1097100031002000FFF7C2FC2900206B1CF0D6FCB2
:109720000FB0F0BD06DF03000080FFFFF0B51700AB
:1097300085B0040008000D0021F0EDFC39000600A2
:109740001EF061F9019000281DD02379002B12D062
:10975000E36A1E78002E0ED120001321FFF7C0FA15
:1097600029002000FFF79AFC330032000121206B12
:109770001CF067FF03E029002000FFF78FFC206B3F
:109780001CF098FD56E033783B2B19D129000122BB
:109790002000FFF789FD300021F0C2FC4378811CD6
:1097A0004E3BDBB218260A2B01D8234AD65C200098
:1097B000FFF774FC3100206B1CF064FE022235E0E0
:1097C0003C2B2ED1300003A921F0AFFC060007008E
:1097D000039B9F4205D0380021F09DFC01970700B4
:1097E000F6E701992000FFF759FC206B1CF04EFDB5
:1097F000002229002000FFF757FD019BB34219D03A
:10980000300021F088FC019B0500834202D0206BD0
:109810001CF03CFD310000222000FFF745FD2E002A
:10982000EBE731002000FFF739FC019A2900200006
:10983000FFF73AFD05B0F0BDF7C00300F0B589B001
:1098400004000D1E05910492009322D18379002B10
:1098500025D0C36A02911E78012E21D10521FFF780
:109860003FFAE26A118D8D4210DAD06AEB00C3181C
:109870005878304208D05A880121206B1CF09BFB9D
:10988000002302211A0099E00135ECE74E4A00213D
:1098900021E09C2105A821F057FC029000E00293F2
:1098A0000027059D03973E00019709E0012328004A
:1098B0001E4321F035FC0390280021F02CFC05000C
:1098C000029BAB4256D02B78B82B08D1B73B1E4237
:1098D000ECD03E4A29002000FFF778FA71E0B92B5E
:1098E0000BD1B73B1E4201D0394AF3E702232800CF
:1098F0001E4321F015FC0700DEE7BA2B2CD128000F
:1099000021F00EFC050021F006FC0378BE2B0BD1E4
:109910002000062229001EF09EF9009B280001333A
:10992000009321F0F8FBC8E72B780A3B0F2B01D9F5
:10993000284ACFE707A928001EF06DF8050007990F
:10994000206B1CF03CFC29002000FFF7A7FB019BCB
:10995000050001330193B3E7019B002B01D01E4AA0
:10996000B8E729002000FFF799FB009B05000133B1
:109970000093A5E7002E14D0039B002B03D1206B8E
:109980001CF035FC03E003992000FFF787FB002F54
:1099900003D1206B1CF02BFC03E039002000FFF703
:1099A0007DFB049B002B06D03300019A0099206BAD
:1099B0001CF050FE05E03300019A0099206B1CF06A
:1099C00040FE09B0F0BDC046BBC20300D9C20300CF
:1099D000F0C2030008C3030029C30300F0B589B037
:1099E0000400039103A8072121F0AEFB0027E36ADE
:1099F00001905E7E0398019B83424AD005A921F025
:109A000094FB4021039003A821F09EFB06A90500CA
:109A100003981EF000F8069B02902A2B19D185426C
:109A20000DD9029821F077FB854208D107A9029849
:109A30001DF0F1FF079B2B2B07D02D2B07D0254ABC
:109A400000212000FFF7C2F920E001261EE00426D5
:109A50001CE003992000FFF721FB013703900398D6
:109A6000854208D007A91DF0D6FF07990390206B07
:109A70001CF0C7FBF3E7059928001DF0C4FF002880
:109A800004D1A07129002000FFF708FB059B039378
:109A9000B0E7180021F044FB019B03901B78010004
:109AA00032002000242B02D11EF06CF801E01EF0E1
:109AB000E0FA0500013F06D3002301211A00206BC4
:109AC0001CF0BFFDF6E729002000FFF71BF909B0E5
:109AD000F0BDC0464BC30300F7B50A780E00130073
:109AE0000821293B8B43DBB20400002B02D1013358
:109AF000C37163E013002A3B8B43DBB2002B5DD0C4
:109B000013000A3B0F2B1AD9282A10D101A93000C3
:109B100021F00BFB070021F0FEFA019B98420FD0C9
:109B200021F0F9FA019B050098420AD108E03000C3
:109B300021F0F6FA070021F0EEFA050001E0370007
:109B4000002501A938001DF066FFE379002D02D041
:109B50002A78002A0AD1002B30D1E38A002B2DD09D
:109B6000174A31002000FFF731F927E0002B1ED003
:109B7000A38A01339BB2A382012B0CD1E18A206B13
:109B8000002902D01CF0A0FC01E01CF030FB0021F9
:109B9000206B1CF0C0FC29002000FFF77FFA206B2F
:109BA00001991CF00CFB206B1CF0C1FC06E0E38A61
:109BB00029000133E3822000FFF770FAF7BDC046A9
:109BC00069C30300F0B504000E00056987B0029375
:109BD0006B1C0393AB1C03612900006B17001CF086
:109BE000DAFB20001DF01FFF31002000FFF756FABE
:109BF000206B1CF00FFC691C206B1CF092FB2900F1
:109C0000206B1CF063FA206B1CF068FD2669731C46
:109C10002361029B9F4200D191E0380021F080FA3D
:109C20000023059323690500019301332361037821
:109C3000002B0FD121F06FFA21F06DFA029B8342C5
:109C400023D04C4A29002000FFF7C0F8A38B013B2A
:109C5000A3838CE007006A2B07D121F061FA07008B
:109C600021F059FA05A91DF0D6FE206B1CF00EFB61
:109C700039002000FFF712FA2121206B1CF002FCB2
:109C8000019A0021206B1CF058FB280021F043FAB8
:109C90000700206B1CF00EFB0599002903D1206BF7
:109CA0001CF008FB02E02000FFF72CF80025206BD9
:109CB0001CF000FB059BAB4209D02569206B6B1C97
:109CC000236129001CF073FB20001DF0ACFE39005D
:109CD0002000FFF7E3F9059B0700002B02D0206B63
:109CE0001CF098FB206B1CF0B6FB059B002B19D0D9
:109CF0000F21206BF7F7BAFD2900206B1CF0E6F965
:109D00000F21206BF7F7B2FD05992000FEF7FAFF4F
:109D100020000599FFF708F8A38B206B013BA38374
:109D20001CF051FB3100206B1CF0FBFA0199206BF9
:109D30001CF0CCF90321206B1CF0C4F969E7A38B5C
:109D4000206B013BA3831CF03EFB206B1CF0CAFC84
:109D50000399206B1CF0BAF90C9B002B03D019005F
:109D60002000FFF79BF93100206B1CF0AFF907B022
:109D7000F0BDC04697C30300F0B587B003914379A7
:109D80000400012B3ED1C36A1B78002B03D11E4A6D
:109D9000FFF71CF836E0039B432103A8019321F051
:109DA000D3F902900398029B83422BD005A90B277D
:109DB0001DF031FE02AB059DFF1803903A0029000B
:109DC000E06A1EF06AFF3B780600002B03D103789F
:109DD0000E4A042B0AD12900E06A1EF08BFF0028EE
:109DE00003D00378023B022B05D9094A01992000D0
:109DF000FEF7ECFFD6E7042333702900E06A1EF07B
:109E00008CFFCFE707B0F0BDB6C30300DBC3030090
:109E1000FCC30300F0B587B0039144790500012C21
:109E20002BD1019103A8432121F08EF902900398D0
:109E3000029B834221D005A90B271DF0ECFD02AB4C
:109E4000059EFF1803903A003100E86A1EF025FFD6
:109E50003B78002B08D10378012B05D0084A0199E3
:109E60002800FEF7B3FFE2E704703100E86A1EF055
:109E700038FF0028DBD00470D9E707B0F0BDC0463A
:109E80001AC4030010B5438B0400002B02D1054A0D
:109E9000FEF79CFFA38BE28B618B9A1A206BF7F77E
:109EA00003FD10BD39C4030010B5038B0400002B63
:109EB00002D1054AFEF78AFFA38BE28B218B9A1A07
:109EC000206BF7F7F1FC10BD51C40300F7B50B7818
:109ED00004001A000A3A0E000F2A08D801A930001F
:109EE0001DF099FD01992000FEF71EFF76E0912BF1
:109EF0003FD16946300021F018F901002000FFF73A
:109F0000CDF803780500922B10D101A921F00DF9AD
:109F10000500280021F0FFF8019B0700984205D0BA
:109F200029002000FFF7BAF83D00F2E72B78A12BBB
:109F30000BD1280021F0F4F801002000FFF7AEF863
:109F40000500206B1CF0E2F90CE0A22B41D12800A7
:109F500021F0E6F801A91DF05EFD01990500206BD6
:109F60001CF0BDF9009928001DF04DFD002830D0EF
:109F700034E0962B2DD1080021F012F9002828D1C9
:109F8000300021F0CDF8060021F0CAF805000100EC
:109F90002000FFF79BFF280021F0BDF803789D2BE0
:109FA0001CD09E2B0ED101A921F0BFF8019B05000A
:109FB000984213D020002900FFF788FF280021F0E5
:109FC000AAF8F3E7BE2B04D001002000FFF77EFFC4
:109FD00004E0034A31002000FEF7F8FEF7BDC0465A
:109FE00066C40300F7B502260D00C16A0400097EAD
:109FF000314001D0344A5DE00191297808000A38E7
:10A000000F2802D801A9280006E01A32914212D185
:10A01000280021F085F801A91DF0FDFCE279E36A32
:10A02000002A04D15A8B01325A83012635E09A8BDB
:10A0300001329A83F9E71A33994223D1E379002B4D
:10A04000D8D101272800E77121F0AAF803260028BB
:10A0500023D1280021F064F80278E36A0A3A0F2A33
:10A0600004D81A7E280017431F7605E01A7E2800C0
:10A0700017431F7621F054F821F052F801A91DF082
:10A08000CAFC0AE0280021F04BF801A91DF0C3FC2E
:10A09000E26A137E1E43167605260199002911D027
:10A0A0006B46DF1C3A00E06A1EF0F7FD3B78002BA0
:10A0B00005D1064A29002000FEF788FE02E00223AF
:10A0C00046700370F7BDC0467EC403008DC4030014
:10A0D00070B5C36A04001B780D00012B04D00C4A34
:10A0E0000021FEF773FE11E0110028001DF08BFC2B
:10A0F000002804D00F21206BF7F7B8FB03E02900FC
:10A100002000FEF7CBFF206B1CF0AEFA70BDC046FE
:10A11000A6C4030070B5C36A04001B780D00013BA0
:10A12000012B04D9164A0021FEF750FE26E011004B
:10A1300028001DF068FC002804D00F21206BF7F7E1
:10A1400095FB18E02B78C22B11D1280020F0E8FFF6
:10A1500001002000FEF7A2FF206B1CF03FF9206BEE
:10A160000F21F7F783FB206B1CF0A8FA06E029000B
:10A170002000FEF793FF206B1CF091FA70BDC046E3
:10A18000C0C40300F0B50D0085B004001100280024
:10A190001DF039FC002804D00021206B1CF0BBF915
:10A1A00079E02B78AF2B0BD1206B01211CF0B3F998
:10A1B00029002000FEF772FF206B1CF0B8F96AE05E
:10A1C000AE2B60D1280020F0ABFF050020F0A3FFEC
:10A1D00002900378B22B4CD103A920F0A6FF039B79
:10A1E0000290984203D0992102A820F0ADFF2B786D
:10A1F000AF2B11D103990298266B20F080FF411CF0
:10A2000030001CF088F929002000FEF747FF206B82
:10A210001CF08DF9012704E029002000FEF73EFF25
:10A220000027029E039B9E4219D033783100200004
:10A230000193FEF733FF019B0600002F07D0AF2BE1
:10A2400001D0164A06E0206B1CF071F9EAE7AF2B4B
:10A25000E8D1134A29002000FEF7B8FD1BE0002FCB
:10A2600019D131000298246B20F049FF411C2000D5
:10A270000FE02B780422AF2B00D00522290020000C
:10A280001DF0E9FC07E029002000FEF707FF01218F
:10A29000206B1CF064F905B0F0BDC046D9C40300C2
:10A2A000FCC40300F0B504000D000123627111002D
:10A2B0000361C56287B02A00006BF7F7C1F96379C3
:10A2C000012B02D100236B84AB84AE6833781E2B44
:10A2D00007D1300020F024FF01002000FEF7DEFE51
:10A2E000B9E02B78002B04D131002000FEF7D6FE18
:10A2F000A7E0012B1ED1300020F00DFF637905008F
:10A30000012B07D100230100E3710C22564B2000E2
:10A310001DF0FEFB280020F0FEFE20F0FCFE0100F8
:10A320002000FEF7BBFE206B1BF0C7FE002800D00C
:10A3300094E086E0022B18D16379012B07D100232A
:10A340001422E3713100494B20001DF0E1FB300085
:10A3500020F0E1FE01002000FEF7A0FE2B7E5B074F
:10A3600079D5206B1BF0A6FF6BE0033B032B3AD89B
:10A37000300020F0D0FE05A920F0D7FE20F0CBFE63
:10A3800067790390012F09D10B2202ABD218390053
:10A39000E06A1EF082FC022303706F832B78032B8C
:10A3A00004D10021206B1CF09CF80CE0042B04D19C
:10A3B0000021206B1CF0AFF805E0052B03D1002134
:10A3C000206B1CF0CCF801212000FEF789FC002353
:10A3D000059A00930399330020001EF03FF92B7873
:10A3E000062B38D12DE06379012B06D105AA052172
:10A3F00028001EF052FC0223037005A9A8681DF076
:10A400000AFB0D212000FEF76BFC0C212000FEF75B
:10A4100079FC2969206B1BF0D2FE11212000FEF788
:10A4200071FCA86820F077FE20F075FE0100200086
:10A43000FEF734FE052128001EF01FFC0378022BD6
:10A4400004D10F21206BF7F711FA04E042880521AF
:10A45000206B1BF0B0FD206B1CF006F9206BF7F7AA
:10A4600081F907B0F0BDC0468D82020081820200F2
:10A47000F0B51E000F0099B009AC00210590150041
:10A4800020003C2218F012FE059B09975B6826719C
:10A490002362059B186820F03EFE20F01CFE6062DF
:10A4A00080001CF0F4F90022059BA06200951B6857
:10A4B000110020001DF0C1FA1BF0E9FD00230290FD
:10A4C0002063039300263300626A964202D3002B76
:10A4D000F8D12CE0A268002AF9D1A16AB20055583F
:10A4E000002D16D06A69002A13D11CF0B8FB6B7ED0
:10A4F0006861012229002000042B02D1FEF77AFCBA
:10A5000001E0FFF7CFFE2369039A9A4200D203933A
:10A5100001230136D8E70B9A002A00D0B4E0049951
:10A52000139B8900CB58002B09D1049B0133049362
:10A53000129B0693069A049B9342ECD3A4E001205D
:10A54000197E014224D01C8D601EC000002C1FD03B
:10A550000226D96A09184D78354211D0002A17D041
:10A5600050880F008446506816780690557811CFB1
:10A5700011C262464A80069A0E704D704A6007E02A
:10A58000002A02D1012D00D10A00013C0838DDE784
:10A59000002200211A841A8D944691421DDAD86A4D
:10A5A000CA0082181878072802D15468052C12D0E6
:10A5B0000138052804D81078002801D10130107026
:10A5C0001078022803D001245078204203D0188C40
:10A5D000441C1C8450800131DDE700218C450FD0E4
:10A5E000D86ACA0082181078032807D1012450784D
:10A5F000204203D1188C5080001918840131EDE7F6
:10A600005E68002E91D00024328D079222000799B7
:10A610008C421CDAF16AE0000918069109780025DD
:10A620000339012911D8AC450FD0DF6AE900791848
:10A630000F78042F07D10698476838004F68B84252
:10A6400001D14A8001320135EDE70134DFE7002016
:10A65000002A00D169E784450ED0DC6AC100611888
:10A660000C78042C03D101254C782C4202D04C8864
:10A67000A4184C800130EEE7598B92B251185983DF
:10A68000198C52181A8450E70026039902981BF07F
:10A6900003FD3500129B04939E4210D30B9B039342
:10A6A000002B4FD0149B0CA899681DF097FA149BAF
:10A6B0000C9A1B6909990B98FBF7ECFC42E00B9B89
:10A6C0000493002BEAD1139B0493049AB3009C5883
:10A6D000002C35D0637E042B19D1002D03D10398B3
:10A6E0001CF02FFD0500002315932D4B03222100A4
:10A6F00009A817931695FEF77DFB0B9B0493002B7F
:10A700001ED10422210009A8FEF774FB18E0029B69
:10A710000222210009A81593FFF7C4FD0B9B0493A7
:10A72000002B04D10322210009A8FFF7BBFD0B9BDE
:10A730000493002B04D10422210009A8FFF7B2FDE5
:10A740000136A7E702981BF0AFFC002D02D02800CD
:10A750001CF008FD0024059820F02CFD139B1B68BD
:10A760005D69129B02939C420AD2139B0293029A48
:10A77000A3009858002801D01EF076FA0134F0E7C3
:10A7800013981CF099F80B99002902D0080008F0E2
:10A79000E8F80A0028001CF06DFA19B0F0BDC046B8
:10A7A00014FD020010B5040010201CF05EF8044BEC
:10A7B00084600360034B43600023C36010BDC04648
:10A7C000A8E90200278B020013B50400080001A9C4
:10A7D00001F0C6F8002C07D0012C0BD101991FF015
:10A7E00038F84000204306E0019B0348002B02D1CB
:10A7F000024800E0002016BD482703008C27030014
:10A80000F0B585B00400080003A9150001F0A8F810
:10A810000600002D06D10300039A324920001DF0E6
:10A82000CFF85CE001000022039BC3180093009B5B
:10A830008B420ED90B78272B04D0223B5842434140
:10A84000DBB201E0002301220131002BEFD02727EA
:10A8500003E02727002A00D0053F234D3A002900B6
:10A8600020001DF0ADF80195009BB34232D93000B5
:10A870001EF0BCFF050030001EF0D3FF0600AF4203
:10A8800002D13A00194921E019495C2D0FD02B0063
:10A89000203B5E2B02D82A00019917E015490A2DAA
:10A8A00005D015490D2D02D0092D04D113492000E2
:10A8B0001CF0B5FFD8E7FF2D02D82A00104905E0AB
:10A8C000104B2A0010499D4200D9104920001DF06C
:10A8D00077F8C9E73A00019920001DF071F805B03A
:10A8E000F0BDC0461BC5030021C5030020C5030001
:10A8F00024C5030027C503002AC503002DC5030096
:10A9000030C50300FFFF000037C503003EC503004C
:10A91000F7B51F0008AB0C0016001D78FB0702D529
:10A920007F1001970EE001A93800F6F7C7FC002858
:10A9300008D138001BF035FA1F4902001F48FBF709
:10A940003BFB11E0019BA019002B1ADA00213F26E6
:10A95000013884420AD9002900D00193002D28D162
:10A9600017491848FBF728FB07F0FBFF0278B243B2
:10A97000802A01D0012101330138002BE9D10130B7
:10A9800018E0002B15D000223F21844205D3002A75
:10A9900000D00193002D0DD1E2E722788A43802A6E
:10A9A00001D10134F9E7002B03D00134013B01222E
:10A9B000EBE72000FEBDC04645C503009CFB02003E
:10A9C0006DC5030008F80200F0B587B006000D0061
:10A9D0001700F6F74BFB02A90400300000F0C0FF9F
:10A9E0000600042F4ED1AB0735D1284B2A689A4276
:10A9F00031D105AB04AA03A928001BF0AEF9059BD1
:10AA0000234FBB4204D0032B02D0224804F01EFC8B
:10AA1000039B3500BB4207D0012231000092200089
:10AA2000029AFFF775FF0500049BBB4208D0012284
:10AA3000310000922000029AFFF76AFF010001E056
:10AA4000029BF1180E208D421DD84A1B20002900C0
:10AA50001EF010FA17E00023029A009331002B0039
:10AA60002000FFF755FF0278012153B2002B05DAD1
:10AA700040231A4202D001315B08FAE7012200F0BC
:10AA800033FF00E0002007B0F0BDC04634EE020006
:10AA900078F102001262030010B5040008201BF0D8
:10AAA000E4FE024B4460036010BDC046B0140300D6
:10AAB000F8B50325040028000F005043160018F0D5
:10AAC000E7F93B00A022C133FF33D2059B00606051
:10AAD000277066809D500123BB40094953500023D5
:10AAE0001900B3420BDA2A005A43606801338154DB
:10AAF000606880184170606882189170F1E7F8BD55
:10AB00000C0500000123F0B502787F499340A02294
:10AB1000D205060085B0535032200138C046C046E9
:10AB2000C046C046C046C046C046C046C046C046F5
:10AB3000C046C046F1D1EFF3108C72B67088029017
:10AB400000200190A120C000029C019DA54200DBD5
:10AB5000DCE00324019D77686C433C19E71C0397F4
:10AB60007F2527781350AF430AD0C046C046C04661
:10AB7000C046C046C046C046C046C046535009E025
:10AB8000C0465350C046C046C046C046C046C046F8
:10AB9000C046C0464025277813502F420AD0C046F1
:10ABA000C046C046C046C046C046C046C046C04675
:10ABB000535009E0C0465350C046C046C046C04648
:10ABC000C046C046C046C04627781350BD060AD5C9
:10ABD000C046C046C046C046C046C046C046C04645
:10ABE000C046535009E0C0465350C046C046C04618
:10ABF000C046C046C046C046C04627781350FD0632
:10AC00000AD5C046C046C046C046C046C046C0463B
:10AC1000C046C046535009E0C0465350C046C046E7
:10AC2000C046C046C046C046C046C04627781350FE
:10AC30003D070AD5C046C046C046C046C046C046CD
:10AC4000C046C046C046535009E0C0465350C046B7
:10AC5000C046C046C046C046C046C046C04627782B
:10AC600013507D070AD5C046C046C046C046C04600
:10AC7000C046C046C046C046535009E0C046535087
:10AC8000C046C046C046C046C046C046C046C04694
:10AC900027781350BD070AD5C046C046C046C046F7
:10ACA000C046C046C046C046C046535009E0C046F4
:10ACB0005350C046C046C046C046C046C046C046C7
:10ACC000C04627781350FD070AD5C046C046C04687
:10ACD000C046C046C046C046C046C046535009E0C4
:10ACE000C0465350C046C046C046C046C046C04697
:10ACF000C046C046039D0134AC4200D030E7019C01
:10AD00000134019420E7C0460C0500008CF3108844
:10AD100005B0F0BD052370B50400094A094D10685F
:10AD2000434309481B199B0018582B681460C0182E
:10AD30000F23194009012860FCF736F870BDC046A2
:10AD40005801002044010020EC140300A83903003E
:10AD500000B5080006292ED80FF082FB040A101552
:10AD60001B2027009A18E223DB00D218107826E077
:10AD7000C4329200D05C8006800E20E0C432920083
:10AD8000D05AC00403E0C4329200D0580003400EF1
:10AD900015E0C43292009A1890780AE0C43292000A
:10ADA0009A18D0780007000F09E0C43292009A1870
:10ADB000D078000903E00020014A024B1A6000BD70
:10ADC00059CC030010000020A83910B50400080079
:10ADD000062946D80FF044FB040A131E29333B0012
:10ADE000E221A218C900521813703DE03F20C4327E
:10ADF0009200115D034081430B43135534E07F21E2
:10AE0000C43292000B409901105B184B03400B4376
:10AE1000135329E07F21C43292000B40105914498A
:10AE20005B0301400B4313511EE00F21C43292001B
:10AE3000A21890781B0101400B43937014E00F207F
:10AE4000C4329200A218D1780340814306E00F215A
:10AE5000C4329200A218D0781B0101400B43D3707A
:10AE600002E0044A044B1A6010BDC0463FE0FFFFF9
:10AE7000FF1FF0FF64CC030010000020F0B5D2B239
:10AE800085B00F000393072113000B40013BDBB299
:10AE9000042B02D92C4D2D4C25608A4319020191B7
:10AEA000002A08D12A4BC55C2D09ED43EBB23D7851
:10AEB00000932C0022E0D4432649E4B2CF5C08255D
:10AEC000254B019A1B199B5C7F225E00F6B29343CF
:10AED00004D005210220FFF71DFF05E03900012005
:10AEE000FFF718FF002FF4D0013DEDB23300002D25
:10AEF000EAD10134E4B2002CE1D121E00826164B5E
:10AF0000019A1B199B5C5A00D2B202927F22934392
:10AF100002D01A21032001E006210420013EF6B2EE
:10AF2000FFF7F8FE029B002EEDD1009B0134E4B246
:10AF30005B1B1B19DBB2002BE0D1009BED1A3D70AF
:10AF4000039805B0F0BDC04670CC0300100000208F
:10AF50001907000078D0030087C503000022F0B570
:10AF600005000F24FF208BB008AB654E0191DA710C
:10AF70000300C4339B00EB189A781109715C2240DE
:10AF800009010A439A70DA781107090F775CA24326
:10AF900027403A431109715C224009010A43DA70E3
:10AFA0000138E5D2E223DB00EE5CB308F31ADBB232
:10AFB0000693544B1B68002B0BD0E222C421812046
:10AFC000D20089000001019BAA1869182818FBF714
:10AFD000F7F8002448232700049303940294812265
:10AFE0002B1912019B181B7818000593072398430F
:10AFF0000BD008A92300059A07312800FFF73EFF70
:10B00000019B0230C4B2023B37E03F4B029A9C46A0
:10B010009B5C19002300C4339B00EB189A7812093B
:10B020000A433A498A5C039907926246DB78525C8C
:10B030001907090F0A4335491B098A5C3449C95D60
:10B040000B4307998A183149C95C01238918FF2AE3
:10B0500000DC031CC918882309061B06C918090F40
:10B060000020FFF757FE049B013BDBB20493002B4B
:10B070000AD1019B0134E4B2013BDBB20193019B95
:10B08000002B3BD02B780493013EF6B2002E0CD15E
:10B09000E22200272B19D2009B181E780397B308D1
:10B0A000F31ADBB20693029799E7069B013BDBB2EA
:10B0B0000693002B02D1059B002B16D12200C4322F
:10B0C0009200535D02999B069B0ECB18DBB2029354
:10B0D000535B0399DB045B0ECB18DBB2039353592C
:10B0E0001B035B0EFB18DFB279E708A92300059A62
:10B0F00007312800FFF7C2FE0400C9E70BB0F0BD1E
:10B10000D3CD030040010020B4D00300D3CC030012
:10B1100034CE0300064B1B5C002B05D0054B185C9E
:10B120004843C011C0B201E0034B185C7047C046F1
:10B13000D4CF03007DD0030087CA0300064B1B5CFD
:10B14000002B05D0054B185C4843C011C0B201E08C
:10B15000034B185C7047C046D4CF030077CB030085
:10B1600028D00300F0B5037A8DB004007F2B00D106
:10B1700057E10300070000250933FF33083709931F
:10B1800001953E787F2E03D10023059301939DE026
:10B19000012E03D12B00019A310004E0022E05D1CB
:10B1A0002B00FF21019A20001DF005FD9E4ABB786F
:10B1B000A178D3185B7830000193FB780293FFF7F6
:10B1C000A9FF3F23E178034030000393FFF7B6FF68
:10B1D0007F22964B9B5D1A40954B04929A5D0F23FC
:10B1E0001A400592934A925D1A400692924A925DE5
:10B1F0001A4007923F22914B9B5D08937B78EB1896
:10B20000DBB20A93039B134003937F23184083010F
:10B210009C462A003F21C4329200135D8B43039960
:10B220000B431355115B864B0B4061460B43135385
:10B23000049B10595903834B18400B0003430F2004
:10B2400005991E0C0640090113513143A2181B0E2B
:10B25000069E9170834307993343090118400843C0
:10B26000D0706946202081220918631909781201DB
:10B270009A181170E222D2009B180299019A0135A6
:10B2800052181A700A9BEDB29D42C2D1099B043735
:10B290009F4200D075E777E76B49CE5C8D5C6B49C8
:10B2A000AE421CD18D5CCB5C0493039B597A019B0D
:10B2B0005918CBB20193049BEB18DBB20793023B06
:10B2C0001B0614D5059B0133DBB20593059B9B0040
:10B2D000E31803931A7A1B7B7F2BDDD17FE05C4858
:10B2E000AE4201D9C55CDEE78D5C835CDCE7A82655
:10B2F000019B5D1BEBB20693A82E18D1039B310076
:10B300005F7A5A7B7F085208BB180293019B20008A
:10B310009A18D2B2DF1BFFF719FDFFB205003A0001
:10B3200031002000FFF712FD2D1AEDB211E0049B51
:10B33000019A31009A18D2B22000FFF707FD069A51
:10B34000050031002000FFF701FD079B2D1AEDB22B
:10B3500002937F222B006DB293430893EB17E818FA
:10B36000584002990FF00AFA2800CBB202990993CB
:10B370000FF01EF90025C3B20A93069F029BDB194A
:10B38000DBB20B933A0031002000FFF7DFFC0A9B91
:10B3900001370B9A1818FFB2C3B297421AD0099A14
:10B3A000AD18029AEDB2AA420ED8AD1A20216A4613
:10B3B00052181278EDB252B2002A03DB002B03D0F0
:10B3C000013300E0013BDBB23A0031002000FFF71F
:10B3D000FBFCD7E70136F6B2AF2E8DD172E7059BA5
:10B3E00002339B00E3185978019B59186368C9B26E
:10B3F000002B03D02000FFF7B1FD12E0E2228025F0
:10B40000D200A0186D001A00C4329200125D0678B6
:10B410009206D20EB21A013302700130AB42F2D161
:10B42000E8E70DB0F0BDC046AECB0300D7CA0300BD
:10B4300034CF030083CC030027CB0300E4CD03000B
:10B440003FE0FFFFFF1FF0FFB9CB030009CC030073
:10B4500084CF030000487047781E0300F0B593B016
:10B46000060006A80F00140007F060FA051E23D19D
:10B470003368310001263A0003A8019306F014FE58
:10B48000A3082A003340019903A8FEF7F1FF050045
:10B4900003200AF04BF828001EF035F90120404245
:10B4A0000AF044F807F058FA344203D03100134848
:10B4B0000AF070F8012518E0012040420AF036F841
:10B4C00001210C4202D00D480AF064F80798F5F704
:10B4D000CDFD0B4905F040FF051E04D10799094831
:10B4E000F5F702FE01E080256D0001210C4202D03B
:10B4F00002480AF04FF8280013B0F0BD4FD2030005
:10B50000CCF70200881003001FB520216846802474
:10B510001BF0C3FF6400254820F06EFB68461BF05B
:10B52000F1FF234820F068FB0AF01CF80128F2D054
:10B5300002280AD11F4820F05FFB68461BF0D7FFA6
:10B5400001221D4B00201A702DE0032803D168460C
:10B550001BF0D8FFE8E7042804D0C1B268461CF00D
:10B5600029F8E1E7154820F047FB019A002A08D1A5
:10B57000104820F041FB68461BF0B9FF80204000D6
:10B5800011E09620002302994000FAF76FFC002892
:10B5900003D10B4818F0C4FBC0E701221100FFF7EC
:10B5A0005DFF2042BAD004B010BDC04627D20300D0
:10B5B000795D030082650300D40000205F6403000E
:10B5C00042D2030070B586B0202102A880241BF06F
:10B5D00064FF6400444820F00FFB444820F00CFB5B
:10B5E00002A81BF08FFF424902A81DF0BCFF0128F2
:10B5F00009D1404820F000FB02A81BF078FF002092
:10B600003D4B18706EE0022803D13A4820F0F4FA5E
:10B61000E0E703281AD0042808D1364820F0ECFAD5
:10B6200002A81BF064FF802040005BE0052825D1C4
:10B63000324820F0E1FA02A81BF064FF09F092FF03
:10B640006B46C1B2DD1D2970032901D12948C5E728
:10B65000042904D1274820F0CFFA012527E002A8C9
:10B660001BF0A8FF2B780D2B03D1254820F0C4FA3E
:10B67000E4E70121280009F08DFFDFE702A81BF0B5
:10B6800054FF0028ACD002A81BF081FF01F09CFC05
:10B6900000280BD00A2102A81BF08CFF194902A830
:10B6A0001DF061FF0328D1D00428ECD1002502A8A9
:10B6B0001BF034FF060002A81BF037FF02009620A3
:10B6C000002331004000FAF7D1FB002803D10E48D7
:10B6D00018F028FC84E706222900FFF7BFFE20426D
:10B6E00000D17DE706B070BD51D2030096D20300B1
:10B6F000BCD2030082650300D4000020C1D2030045
:10B70000F1D20300F8D203004D6D0300032230B5DF
:10B7100002400121002A04D1094C03680D00A34214
:10B720000CD00B0003401D1E07D1002A06D1036870
:10B7300004481B1A5D425D4100E00125280030BD30
:10B7400050270300E4F2020010B50400FFF7DEFF0B
:10B750000123002809D1032203002240022A04D138
:10B76000034B2340063B581E83410120184010BD67
:10B77000070080FF10B51AF014FB034902000348CC
:10B78000FAF71AFC07F0EDF82AD303009CFB02003D
:10B7900010B5040010201BF068F8044B84600360AF
:10B7A000034B43600023C36010BDC046A8E90200FC
:10B7B000DF900200F7B50E00019304008B180A0019
:10B7C00000210093009B93420ED91378272B04D0BD
:10B7D000223B58424341DBB201E000230121013208
:10B7E000002BEFD0272503E02725002900D0053DB9
:10B7F0001B4F2A00390020001CF0E2F8009B9E42FB
:10B8000027D23278954202D12A0016491CE0164907
:10B810005C2A14D01F2A09D97F2A14D0019B002B3F
:10B8200002D053B2002B07DB39000DE00F490A2A82
:10B8300005D00F490D2A02D0092A04D10D49200054
:10B840001BF0EDFF03E00C4920001CF0B9F80136B5
:10B85000D4E72A00390020001CF0B2F8F7BDC0463A
:10B8600021C5030020C5030024C5030027C503002C
:10B870002AC503002DC5030030C50300194B70B560
:10B8800006000D0098420ED14968A868FBF718FB26
:10B89000041E08D028001BF02AFE00230620E40026
:10B8A0002B6020431DE010201AF0DFFF69680400C0
:10B8B00081600660A868FBF7E5FA6B686060591C58
:10B8C0002B68994202D1AB68E36003E0A8681AF0E4
:10B8D000E2FFE06000232000E268A1685354AB60FF
:10B8E0002B6070BDA413030070B504000D00002A86
:10B8F00002D0FBF717FB03E0FBF7E2FA002803D0C6
:10B900000623C000184304E02A00210001481DF06E
:10B91000B1FA70BDA413030010B50A00010002487B
:10B920001DF0A8FA10BDC046242103000A4B10B533
:10B930000340062B01D1C0080CE0830708D1074B58
:10B9400002689A4204D18168C068FBF7EBFA01E013
:10B95000FFF710FF10BDC046070080FFA4130300CF
:10B96000064B10B50340062B03D1C0081BF025FD84
:10B9700002E08368C0680B6010BDC046070080FF0E
:10B98000F0B50F00002689B0110005001C0038003A
:10B9900000960323320004F033FB0E20B74238D068
:10B9A000012F0ED102AA04A81021FCF74DFA21683C
:10B9B00002A83200F5F774FB04A92800FFF75EFF28
:10B9C00027E0206883071BD1134B02689A4217D1E6
:10B9D00004A9FFF7C5FF114B060020680340062BA2
:10B9E00004D1C0081BF0DAFC040000E04468102019
:10B9F000049F1AF03AFF05608760C660446008E063
:10BA0000012204A9F5F7D8FD002205990498FFF753
:10BA10006BFF09B0F0BDC04624210300070080FF82
:10BA2000F0B58BB0049008680D0006920793F5F707
:10BA30001DFB06006868F5F719FB864202D06868AE
:10BA4000FFF798FE08A92868FFF78AFF040009A9F4
:10BA50006868FFF785FF089A0590A3180393049B75
:10BA60002700022B19D9AB681D498B4206D0012152
:10BA7000300000912100FEF74BFF0700049B032BD1
:10BA80000BD0EB68164A934207D0012221000092A6
:10BA90003000089AFEF73CFF0390039B059AD91BE0
:10BAA000069B38000093099B1DF0C4F9002809D1BA
:10BAB000079B0138002B11D00A490B481BF0C5FA2F
:10BAC00006F04FFF094B9E4204D1010020001DF0FB
:10BAD000B1FE00E0001B0124400020430BB0F0BD8C
:10BAE00078F1020056D30300ACF60200A413030061
:10BAF000F0B58DB004000391F5F7B8FA04A906007B
:10BB00002000FFF72DFF0190039883070BD10368F6
:10BB1000314A934204D106AA05A91AF036FF10E073
:10BB20002E4A934208D02D480022C3680121029377
:10BB3000029C03ABA047039006AA05A903981FF037
:10BB400088F800242500059B9C421ED2069BA70076
:10BB5000D859F5F78BFA864205D0214921481BF0C8
:10BB600074FA06F0FEFE002C01D0049BED18069B33
:10BB7000D8591D4B0340062B03D1C0081BF013FC02
:10BB800000E080682D180134DDE72900002508A8B1
:10BB90001BF09AFC0A9C059B9D4217D2002D06D0F3
:10BBA0002000049A019917F0F7F9049BE418069A0B
:10BBB000AB00985807A9FFF7D3FE079A01002000B1
:10BBC00017F0EAF9079B0135E418E4E708A930000B
:10BBD000FFF754FE0DB0F0BDD4F10200382B030086
:10BBE0006AD303009CFB0200070080FFF0B507004A
:10BBF00087B008680D00F5F739FA04A9060028682F
:10BC0000FFF7AEFE05A904006868FFF7A9FE0390E0
:10BC10002000022F07D901230093AB68049A21006A
:10BC20003000FEF775FE059A041B049BA418064D10
:10BC30009C4205D8039917F087F9002800D1034DDD
:10BC4000280007B0F0BDC0468C270300482703003A
:10BC500073B50C00060069462068FFF781FE01A954
:10BC600005006068FFF77CFE0100022E02D908483B
:10BC700003F0ECFA019A009B064C9A4206D89B1AF4
:10BC8000E81817F061F9002800D1034C200076BDB8
:10BC9000AFD303008C27030048270300F0B58FB013
:10BCA000079010680C001700F5F7E0F90690012CDA
:10BCB00010D07868F5F7DAF9069B834202D07868ED
:10BCC000FFF758FD0DA97868FFF74AFE0D9B089015
:10BCD000099303E0072309932C4B08930DA93868B7
:10BCE000FFF73EFE0D9B0B900493079B012B05D1A4
:10BCF000049B5D1E01235B420A9302E001230025A1
:10BD00000A9300242600049B03940593059B002BB3
:10BD100022D00B9B09995A190123089800931DF012
:10BD200089F8002812D1039B002B0ED1079B002B12
:10BD300003D1049B2E005D1E19E0079B012B15D03B
:10BD400001232C002E00039300E02C000A9BED1829
:10BD5000059B013B0593D9E7039B002B08D10C4BB6
:10BD6000069A0E209A420FD00A480DE0039E2C003E
:10BD7000049B0134A21B934201D1386804E00B9B61
:10BD8000069899191DF076F80FB0F0BD23D3030083
:10BD9000A4130300301F0300F0B589B004900868B5
:10BDA0000D00F5F763F907006868F5F75FF987425A
:10BDB00002D06868FFF7DEFC06A92868FFF7D0FD0F
:10BDC000060007A96868FFF7CBFD069A0590B3182F
:10BDD0000393049B3400022B19D9AB681E498B4294
:10BDE00006D00121380000913100FEF791FD0400DA
:10BDF000049B032B0BD0EB68174A934207D0012218
:10BE0000310000923800069AFEF782FD0390079BEE
:10BE10000025002B10D1039B2000191B1DF019FDDC
:10BE200001304000012514E00599200017F08CF83E
:10BE3000002807D101353400079A039BA618B342A6
:10BE4000F2D204E020001DF0ECFC0600F3E7012034
:10BE50006D00284309B0F0BD78F10200F0B58BB059
:10BE60000E0007000392F5F701F904003000F5F722
:10BE7000FDF8844202D03000FFF77CFC05A93800B1
:10BE8000FFF76EFD06A905003000FFF769FD069B70
:10BE90000200002B05D11A491A481BF0D6F806F00B
:10BEA00060FD19498C4201D10E2100E0174907912C
:10BEB000089109910399002901DD079700E009978E
:10BEC00003992800009105991CF0B4FF002811D0B7
:10BED000471B3A00290020001CF0CCFF059B069967
:10BEE000DA1B521A791807906918200008961CF07E
:10BEF000C1FF099007A90320F7F758FE0BB0F0BD6A
:10BF0000C1D30300ACF60200A4130300301F0300EA
:10BF100010B5010001481DF0C1F810BD7398020072
:10BF200010B5010001481DF0B9F810BD8798020056
:10BF3000F7B50600080001A9FFF712FD019B0500F7
:10BF4000002B01D1144826E0144B04009E4201D17D
:10BF5000002712E0124B9E42FAD0019A631B9A42CC
:10BF600018D92078B04701340028F6D1EAE72078C4
:10BF700003F0EAFA002805D10134019A631B9A42C2
:10BF8000F5D805E02078B0470028DBD00127F3E79B
:10BF9000002FD7D00348FEBD8C270300B1F5000069
:10BFA000C9F500004827030010B501000148FFF75C
:10BFB000BFFF10BD31F5000010B501000148FFF7CB
:10BFC000B7FF10BD49F5000010B501000148FFF7AB
:10BFD000AFFF10BD61F5000010B501000148FFF78B
:10BFE000A7FF10BDB1F5000010B501000148FFF733
:10BFF0009FFF10BDC9F50000F0B585B006000C002C
:10C000001700F5F733F8694605003000FFF7A8FC84
:10C010000600042F22D1A30715D1124B22689A42A1
:10C0200011D101AA21000098F8F7B2FE002802D130
:10C030000D4803F00BF90199029A2800521A711861
:10C040001CF018FF0BE00023220000992800F5F7F0
:10C05000CFF90123305C4000184300E0002005B018
:10C06000F0BDC04634EE02001262030070B51D0040
:10C070008AB0002968D01868354C03002340062B8D
:10C0800005D083071ED1334B02689A421AD1023978
:10C09000012953D806A9FFF763FC0600286804406D
:10C0A000062C04D1C0081BF079F9040000E04468B4
:10C0B0001020069D1AF0D9FB274B85600360C660EF
:10C0C000446042E0012939D8012210420CD04410CA
:10C0D000210006A81BF0F8F9089B22000021180097
:10C0E000019316F0E3FF24E003A919F070FE002885
:10C0F00005D0049A039918481CF0BCFE25E0286876
:10C10000F5F7BAF91021002800D0411006A81BF05D
:10C11000C4F9286802F0EAFA0400200002F036FBB5
:10C12000002806D0F5F78CF8C1B206A81BF042FA39
:10C13000F3E706A90848FFF7A1FB06E0074908480E
:10C140001AF083FF06F00DFC06480AB070BDC04629
:10C15000070080FFA413030024210300D1D30300B0
:10C160009CFB0200301F030073B50400080001A906
:10C170001600FFF7F5FB0500042E06D10300019A17
:10C18000074920001BF01CFC09E0064920001BF0B9
:10C1900046FB0123019A29002000FFF70BFB73BD2A
:10C1A0001BC50300A06B0300F7B502001A4B050086
:10C1B0000C001A401E00062A08D10B40401A062B1C
:10C1C00026D0E8081BF0EAF8070000E047682640A0
:10C1D000062E03D1E0081BF0E1F800E06068002FB4
:10C1E00005D0002803D0874201D0002013E0694623
:10C1F0002800FFF7B5FB01A905002000FFF7B0FB01
:10C20000009A019B01009A42EFD1280016F09CFE93
:10C2100044426041C0B2FEBD070080FF084B07B535
:10C220000340062B08D0830704D10268054B9269AE
:10C230009A4201D0FFF79EFA01A9FFF791FB0EBDCC
:10C24000070080FF2DC800000A4B13B503400C0007
:10C25000062B08D0830704D10268074B92699A42E3
:10C2600001D0FFF787FA01A9FFF77AFB019B236052
:10C2700016BDC046070080FF2DC80000F0B59BB07A
:10C280000B900491079210210EAA12A80993FBF7B4
:10C29000DBFD049B079A934200D3A9E2049B197823
:10C2A0005D1C7D2908D1079BAB4203D9049B5978BB
:10C2B0007D290FD0B44930E07B2903D012A81BF0B0
:10C2C00079F972E0079B2C00AB4233D9049B597873
:10C2D0007B2904D112A81BF06DF9049565E07D2936
:10C2E00010D021290ED02E003A290BD033787D2B87
:10C2F0005FD0212B5DD03A2B5BD0079B0136B34238
:10C30000F4D117E00026230034001A78212A52D1F4
:10C3100007995A1C914205D89C499D481AF095FEF0
:10C3200006F01FFB5A780592723A012AF4D80233BC
:10C33000994242D89749F0E716A81BF0D8F8059B18
:10C34000002B00D17DE1002E00D12036089B002B70
:10C3500000D081E1059B3D2B00D186E15E2B00D111
:10C3600085E13C2B01D13B3B1D433800FFF7CEF963
:10C37000002800D1C3E1632C00D18DE100D97FE119
:10C38000472C00D875E1582C00D1A7E1622C00D0D1
:10C39000AEE1002303930D9B0222029361230196D9
:10C3A000009539000EA8FCF7FBF8049B01330493B9
:10C3B0006FE73300A9E70022059200211A78049163
:10C3C0003A2A00D006E25A1C5B7804927D2B11D0E9
:10C3D0001300012207998B42ACD219787B2901D135
:10C3E000013205E07D2903D1013A002A00D1F1E1B3
:10C3F0000133EFE7079B049A93429BD900230693EE
:10C40000049B1B787D2B01D0634986E7002C42D02A
:10C4100000232078169303F0A3F82500002820D0ED
:10C42000099B1B680893002B01DD5C4975E716AA80
:10C43000310020001CF0E5FC209A169B013A050013
:10C440009A4232D9219A01339B009F580122099BBD
:10C4500052421A601AE02B782E2B04D05B2B02D0AC
:10C460000135B542F7D3291B01222000FFF73CFA22
:10C47000002204000100229805F0B4FB002804D13A
:10C48000210047481AF0DAFD4AE74768B54215D25D
:10C49000444802F0DBFE099B1B68002B01DA42498D
:10C4A0003BE7209A013A934202D34049404835E79E
:10C4B000013321999A005758099A1360069B002B63
:10C4C00004D1059B002B00D181E102E0059B002BEC
:10C4D00012D010AA102116A8FBF7B6FC059A390055
:10C4E000733A531E9A4110A8D2B2F4F7D9FD16A997
:10C4F0003048FFF7C3F9070001235B420D93109307
:10C50000069B002B00D198E0F4F7A0FD229B049A33
:10C510000293219B06990193209B16A80093099BE7
:10C52000FFF7ACFE16A81BF032F8179B0678C3186D
:10C530000A930023040005939E4216D01E4D31003D
:10C54000280017F0DDFF002800D047E1637805934D
:10C55000002B09D01900280017F0D2FF002800D0C6
:10C5600040E10590060000E0059E237808932B2B00
:10C5700005D02D2B05D00425202B1FD102E002254C
:10C5800000E0002501341BE0EBD3030013D40300CB
:10C59000ACF602002CD4030044D4030068D403009A
:10C5A0008CFC0200CBD40300E8D40300B2D4030017
:10C5B00008F80200A413030032D5030000250895F3
:10C5C0002378232B02D1133B1D4301342378302BD6
:10C5D00007D1059B002B01D13D330593002E00D1DF
:10C5E00030360DAA0A9920001CF00BFC0378069047
:10C5F0002C2B04D10C3B1D43030001330693069BF7
:10C600001B782E2B06D1069810AA01300A991CF02F
:10C61000F8FB0690069B1C78002C07D02100794877
:10C6200017F06EFF002800D0DEE00400069B1B78A8
:10C63000002B00D180E674496FE6069D2C002E0089
:10C6400008953800FFF780F83C230593002800D1B7
:10C6500079E60233059376E6732C01D16B495CE6EB
:10C66000632C00D076E66A4957E640237CE68023B7
:10C670007AE6452C43D2002C19D0252C3FD037E048
:10C68000672C02D8652C12D339E06F2C18D0782C87
:10C6900024D06E2C2CD10AE03800F4F7D1FD0D9B8C
:10C6A00016A908700122019300962B0081E0002357
:10C6B00003930D9B01960293009561230A2270E675
:10C6C000EB0602D580239B001D43002303930D9BA3
:10C6D0000196029300956123082262E6002223005E
:10C6E00003920D9A173B029201960095102258E68C
:10C6F000380019F056FB22000300464963E0380079
:10C70000FFF722F8002838D0002C1FD06E2C1DD047
:10C71000472C15D8452C1AD2252C27D13800802437
:10C72000F4F7F2FD3C490EF011FD109B64000293FA
:10C730000D9B2C430193011C00962300662211E0FF
:10C740002300653BDBB2022B10D800E067243800E1
:10C75000F4F7DAFD109B220002930D9B011C01935C
:10C760002B0000960EA81BF0DEF81EE6380019F02C
:10C7700018FB22000300294925E0059B3D2B01D130
:10C780002749CAE5002C01D0732C16D116A9380010
:10C79000FFF75AFD109B0100169A002B00DA109249
:10C7A000109B9A4200D916930D9B169A01932B0069
:10C7B00000960EA8FBF796FEF7E5380019F0F1FA9F
:10C7C0002200030017491848F9F7F6FBA8E5732380
:10C7D00005937EE6049A0493069211E605960134C9
:10C7E0000026C2E60234C0E6069B013306931DE72D
:10C7F0000B9A12AB13CB13C21B6813600B981BB0C0
:10C80000F0BDC04637D5030047D5030060D503000F
:10C810008CD50300BFD503000000C842F0D503004B
:10C8200024D6030059D60300ACF60200F0B5A1B03F
:10C8300004000D000D920A2800D0DFE1073C0692AB
:10C84000144010D11368B64A934206D10FAA10A91A
:10C8500006981AF09AF806940BE0B24A934202D175
:10C860000F94109405E00DAB0F9301231093002358
:10C870000693109B11A908930F9B28000993FFF7BB
:10C880006FF800230A900B93AB0705D1A64A2B68DB
:10C890009B1A5A425A410B9214AA102118A8FBF76E
:10C8A000D3FA119A002794460A9B0A9C6344059385
:10C8B000059BA34200D894E12178252903D018A82C
:10C8C0001AF078FE8BE1059B661CB34201D89749AC
:10C8D00015E06178252904D118A81AF06BFE340000
:10C8E0007DE10025282919D1A01C060000E00136B1
:10C8F0003378292B08D0059BB342F8D88C498D4852
:10C900001AF0A3FB06F02DF8311A0122FEF7ECFF16
:10C910000100069801F05AFC05000136002334009E
:10C920004022002604210C9320330793059BA34249
:10C9300011D923782D2B01D12C3B02E02B2B02D1D6
:10C94000293B1E4312E0202B01D10E430EE0232B86
:10C950000AD0302B05D000231293059BA34207D8A1
:10C960001EE01643079301E010230C930134DDE72A
:10C9700023782A2B0ED1089A3B00BA4201D86E497F
:10C9800033E1099A9B009858F4F75AFC013712904A
:10C99000013405E0200012AA05991CF032FA0400C7
:10C9A00001235B421393059BA34290D923782E2B3E
:10C9B0001ED1059B601C834289D963782A2B0CD138
:10C9C000089A3B00BA42DAD9099A9B009858F4F7C2
:10C9D00037FC01371390023406E0002313AA0599AF
:10C9E00013931CF00EFA0400059BA34200D86EE7D7
:10C9F000002D07D1089A3B00BA42C0D9099A9B0082
:10CA00009D5801372278672A0FD8652A68D2582A9C
:10CA100000D1CAE004D81300453B022B60D9D5E011
:10CA2000632A12D0642A40D0D0E0732A07D8722A31
:10CA300000D38BE0692A38D06F2A61D0C6E0752A0E
:10CA400033D0782A00D1B0E0C0E03C4B2B40062B1D
:10CA500005D0AB0713D13A4B2A689A420FD11CA9D3
:10CA60002800FFF7F1FB1C9A0100012A01D035498B
:10CA7000BBE0129B01932023009333000FE02800BA
:10CA8000FEF744FE00280ED02800F4F7D9FB129BD5
:10CA90001CA908700193202301220093330014A8DD
:10CAA000FBF720FD9BE028499FE003222B00280094
:10CAB0001340022B09D1214B2B40062B05D0FF231D
:10CAC000DB05E8189043F3F7F3FB139B0096039301
:10CAD000129B0A220293079B01000193612371E0DC
:10CAE0002800F4F711FC139B22780293129B011C7F
:10CAF0000193079B14A8009333001AF014FF6EE013
:10CB00000C9B002B02D084239B001E43139B00969A
:10CB10000393129B08220293079B0193612350E029
:10CB2000D4F102002C240300242103008BD603003F
:10CB30009DD60300ACF60200B3D60300070080FFC9
:10CB4000A4130300DAD60300F3D6030016AA1021BB
:10CB50001CA8FBF779F923780122722B0BD0002255
:10CB60000B9B934207D0AB0705D12B68654A9A1AF5
:10CB7000514251418A00290016A8F4F791FA139BFB
:10CB80001D9A002B00DA1392139B9A4200D91A00C7
:10CB9000129B1E990193202314A800933300FBF7E6
:10CBA000A1FC1CA81AF0A3FC19E01300139A173B70
:10CBB0000392129A0292079A01920C9A164310223B
:10CBC0000096290014A8FBF7EBFC08E00A9B4E49ED
:10CBD000E41A009413004D48F9F7EEF992E6013497
:10CBE00066E6089BBB4202D049494A4888E60B9B4F
:10CBF0004448002B00D1484818A96FE00800F4F71A
:10CC000035FA16A906002800FEF7AAFE0700072C31
:10CC10001ED118A90D98F4F751FB0025A8426ED03B
:10CC20001899A94205DC3C4B0E359E4267D03B4D1E
:10CC300065E0169B1CA859431AF046FC1E9B169AE9
:10CC4000059300930121189B38001AF0B1F843E0D6
:10CC50000D98F4F70BFA864206D11CA90D98FEF741
:10CC60007FFE1C9D05900DE0264B00259E4246D17F
:10CC700001221CA90D9819F0AAF8A8423FD01C9BCC
:10CC80001D9D05931D2C06D8192C2BD2052C0DD0DB
:10CC9000122C0BD032E01F2C30D10123059A0093C7
:10CCA00016992B0038001CF0C5F822E0169B1CA832
:10CCB000E9181AF009FC1E9B169A39001800069311
:10CCC00016F06AF9169A1E9B944606936344180060
:10CCD0002A00059916F060F930001CA9FEF7CEFD78
:10CCE00005000CE00095059B169A390020001AF00B
:10CCF00093F80B4D002802D10A4D00E000252800D2
:10CD000021B0F0BD2421030004D70300ACF60200DB
:10CD100039D703009CFB0200A4130300301F03005B
:10CD2000482703008C27030070B50C008AB005006B
:10CD300004A920681600FEF713FE00230593049B48
:10CD40000100C218029605AB06A801940095FFF7F2
:10CD500095FA06A90248FEF791FD0AB070BDC046DB
:10CD6000A4130300F0B5050087B008680C00F4F7C1
:10CD70007DF90090012D07D96668022D05D0A068C5
:10CD8000F4F75EFA050002E0444E01256D420021F1
:10CD900008001DF047FF04A901902068FEF7E0FDA0
:10CDA000049B0400C7183D4B9E4230D1A74272D964
:10CDB000207802F0BDFB002826D00134F6E7002DD4
:10CDC00060D02600307802F0B3FB002803D1013692
:10CDD000B742F7D13E002100321B00981CF04AF800
:10CDE0000100019804F072FBB74254D93400207856
:10CDF00002F09EFB002803D00134A742F7D13C008B
:10CE0000EB175B1BDB0FED1AA742D8D843E03000CD
:10CE1000F4F72CF9009B834202D03000FEF7AAFC05
:10CE200005A93000FFF710FA059B0390002B25D1D0
:10CE30001B491C481AF009F905F093FD029BF318F1
:10CE40009F4209D3029A0399300016F07DF800281A
:10CE500003D00136002DF1D13E002100321B009895
:10CE60001CF008F80100019804F030FBB74212D919
:10CE7000059BF418EB175B1BDB0FED1A059B2600D7
:10CE80000293E7E721003A1B00981BF0F3FF010033
:10CE9000019804F01BFB019807B0F0BD78F1020087
:10CEA000C1D30300ACF60200F0B50D008BB0022830
:10CEB00002D8FFF757FF7DE00868F4F7D7F808A914
:10CEC000049028686C68FEF74BFD0090A868F4F7A2
:10CED000B7F9431C06000021180005931DF0A2FEBF
:10CEE000354B05009C4202D1344802F0AFF909A944
:10CEF0002000FFF7A9F9099B0690002B05D13049C6
:10CF000030481AF0A2F805F02CFD089A3400944637
:10CF1000009B63440293B3000393099B0193019A1E
:10CF2000029B9F1A002E0BD0009BBB4208D8019A8F
:10CF30000699380016F008F8002821D0013FF1E7E3
:10CF4000EB68A6009F19009A029B00999A1A049810
:10CF50001BF090FF3860002C2BD0059B1F1BEB684B
:10CF6000BC0099192200180016F054F86B680021D3
:10CF7000DA1BEB689200181916F098F8AF6018E009
:10CF8000039AEB68944663440793029B0498DA1B68
:10CF9000019B013CD21AF9181BF06CFF079B02970A
:10CFA0001860F3179B1BDB0FF61A039B043B0393DC
:10CFB000B3E728000BB0F0BD78F102006ED7030094
:10CFC000C1D30300ACF60200F8B503780400002BCF
:10CFD00000D196E0402B01D1012026E04A491CF007
:10CFE00091F80028F8D1494920001CF08BF800285E
:10CFF000F2D1474920001CF085F80028ECD14549C2
:10D0000020001CF07FF80028E6D1434920001CF0E6
:10D0100079F80028E0D1414920001CF073F800287D
:10D02000DAD13F4920001CF06DF8002319001D00E3
:10D030001E002278002A52D0272A10D1002B01D0BE
:10D04000032B08D16278272A05D1A278272A02D19A
:10D050000234243A17E00122012B3ED813E0222AA1
:10D0600013D11A000427BA430AD16278222A05D1C3
:10D07000A278222A02D102343A0004E0002B01D027
:10D08000022B2AD10222D31A27E05C2A09D1677821
:10D09000272F01D0222F04D11A00571EBA41A418FD
:10D0A0001BE0002B19D15B2A12D006D8282A0DD0FC
:10D0B000293A57425741F61B0FE07B2A0AD07D2AB6
:10D0C0000AD05D3A57425741ED1B06E0013604E0B5
:10D0D000013502E0013100E001390134A9E70132F4
:10D0E000002E0FDC002D0DDC00290BDC033B9342EE
:10D0F00008D9013C23785C2B04D0002801D00A2BEE
:10D1000000D100221000F8BD4EDC03007DD70300E3
:10D1100083D7030087D70300A77103008BD70300D1
:10D12000D0DE0300F0B505008BB0461804920793DB
:10D130000296029B5C1EA54211D8207802F004FAE8
:10D14000002801D00294F4E7207802F009FA0028C0
:10D15000F8D123785F2BF5D02E2BF3D000E0029589
:10D16000744B1D68029CB4420BD3029BE31A0193DB
:10D17000B44201D2002711E00024260027000394C6
:10D1800048E023782E2BF0D00134ECE7FB0003932A
:10D19000EB68FA009858002804D10137AB689F4229
:10D1A000F4D315E00428F8D009A9FFF74DF8019B46
:10D1B000099A01009342F0D11A00029817F086FAFA
:10D1C0000028EAD1EB68039A9B185868002801D11F
:10D1D0000020ADE0032318420AD10368564A934267
:10D1E00003D118F071FD05000BE0544A934201D0C1
:10D1F000F3F73CFF856B002DEAD0514B2A689A4229
:10D20000E6D1631C0293ADE7EA68E3009858002872
:10D2100004D10134AB689C42F6D329E00428F8D04D
:10D2200009A9FFF711F8099B05900693069A019B3F
:10D230009342EED801001A00029817F047FA00282E
:10D24000E7D1019B002F0BD09E420DD3069A93424B
:10D250000AD8059AF95CD25C914204D10133F3E714
:10D26000069E059F00E01E00039B01330393D0E759
:10D27000039B002BACD0012B06D0019B9E4203D810
:10D280000023402603930FE0019B079AFB181360CD
:10D29000019BF01A4CE0039BEA68DB0098580028D9
:10D2A00007D1039B01330393039BAA689342F2D3F4
:10D2B00038E00428F5D009A9FEF7C6FF099F019BB5
:10D2C0000590BB42EDD801001A00029817F0FEF954
:10D2D0000028E6D133000F220F33DC171440E41886
:10D2E00024112401A41B012C00DC10343319DF1994
:10D2F000402F10D80027BC4205DD124904981AF0CF
:10D300008EFA0137F7E7059904981AF088FA099B15
:10D31000F6183619C5E7059A0B4904981AF050FB20
:10D32000099EBEE7094904981AF079FA01204042A3
:10D330000BB0F0BDB8080020A0E802008C29030063
:10D340002C240300BDE003008FD703008365030096
:10D350000F221140030010B5080003290ED80DF06C
:10D360007FF80204090D18000BE00648002B08D1D5
:10D37000054806E0180018F056FC02E0180018F006
:10D380006DFC10BD482703008C2703000023820793
:10D3900008D10268044901338A4203D0034BD31AEF
:10D3A0005A4253411800704714230300DC21030044
:10D3B00070B506000D000124B44206D2A300E9585E
:10D3C00028681BF0BCFE0134F6E7014870BDC0467A
:10D3D00078F1020010B50400102019F046FA044B51
:10D3E00084600360034B43600023C36010BDC046EC
:10D3F000A8E902001F92020070B50500102019F084
:10D4000034FA0400074B696808C01DF06AFCAB6879
:10D41000E968A3606B68E0689A0015F0BDFD200024
:10D4200070BDC046142303000023F7B504000D00AF
:10D4300001938B0705D10B68214FDF1B7A427A419C
:10D440000192AB68002B08D1019B002B03D01D4932
:10D4500020001AF0E4F91C492EE0019B002B03D0B8
:10D460001A4920001AF0DBF9194920001AF0D7F9FF
:10D47000002601236A68964216D2B2001700EA68B5
:10D48000D259002A0ED0042A0CD0002B03D1114906
:10D4900020001AF0C4F9EB680122D9592000F3F7F3
:10D4A000FFFD00230136E5E70B4920001AF0B7F92C
:10D4B000019B002B03D0094920001AF0B0F9F7BDF9
:10D4C000DC21030093D703009AD70300A0D7030001
:10D4D000ABD70300215E0300BD670300A35F030019
:10D4E00010B5FFF753FF002805D103490348F8F7AB
:10D4F00063FD05F036FA10BDADD703009CFB0200BA
:10D5000070B50D000400FFF7EBFF280001F0EEF806
:10D510000500280001F03AF9011E08D0231D002261
:10D5200018001DF0E8FB0028F3D0024800E0024894
:10D5300070BDC0468C2703004827030010B5830741
:10D540000BD10368084A93420DD0084A934204D194
:10D550000749084819F079FD03E007490748F8F73B
:10D560002BFD05F0FEF910BD14230300DC210300A0
:10D57000C3D70300D0F90200ADD703009CFB020023
:10D5800070B50D000400FFF7D9FF280001F0AEF8D8
:10D590000500280001F0FAF8011E05D0231D032222
:10D5A00018001DF0A8FBF4E7004870BD78F10200F8
:10D5B00070B50D000400FFF7C1FF2900201D0122F6
:10D5C0001DF099FB004870BD78F1020070B50D00A8
:10D5D0000400FFF7B3FF2900201D02221DF08BFB82
:10D5E000004870BD78F1020010B50400FFF7A6FFF7
:10D5F000201D1DF00CFC014810BDC04678F1020052
:10D6000010B501221BF0D5FD004810BD78F10200D5
:10D6100070B504000D00FFF791FF201D02222900C4
:10D620001DF069FB002804D1034819F001FD05F045
:10D6300098F9024870BDC0468CFC020078F10200E7
:10D6400010B50400FFF77AFF201D1DF0C2FB002873
:10D6500005D10349034819F0F8FC05F082F910BD23
:10D66000E5D703008CFC0200F8B50E0001280AD0B3
:10D67000002802D002280AD028E08B681448002B2A
:10D6800025D1144823E08B685B0018431FE0032575
:10D6900000200D4085421AD10F4B0C6828009C4297
:10D6A00015D14F68AF420DD0F268AB0099580029F0
:10D6B00006D0042904D0022000F0B4FE4010241843
:10D6C0000135EFE701206400204300E00020F8BDB1
:10D6D000482703008C270300DC210300F7B507006F
:10D6E0001020019119F0C1F805000A4B060008C589
:10D6F000390028001DF0F5FA0024BC4208D0019939
:10D70000A3000122C95828001DF0F5FA0134F4E7FE
:10D710003000FEBD14230300F7B505000E00171EF0
:10D7200005D0FFF70BFF1A4CB54209D12EE0FFF7E9
:10D73000D7FEB54204D128001BF013FD040025E0FC
:10D7400000210800FFF7CAFF0400300000F0CEFF00
:10D750000190019801F01AF8061E0BD0281D002236
:10D7600031001DF0C8FA0028F3D031002000FFF787
:10D770001FFFEEE7002F09D0E86819F09DF86368F5
:10D780006B60A368AB60E368014CEB602000FEBDFA
:10D7900078F10200F0B585B0040003900291019287
:10D7A0000027FFF7F3FDB84207D13A0003AB012190
:10D7B00020481BF059FD04000137029D0026280077
:10D7C000FFF7E4FDB04207D1320002AB0121194856
:10D7D0001BF04AFD05000136019B002B05D0A36814
:10D7E000AA68934201D1002311E02000FFF7F2FD67
:10D7F000019001981BF013FD011E07D02B1D002284
:10D8000018001DF078FA0028F3D1ECE7012301930A
:10D81000002F02D02000FFF7E7FE002E02D02800E4
:10D82000FFF7E2FE019B0448002B00D1034805B03E
:10D83000F0BDC04614230300482703008C270300D3
:10D8400037B50C001500009101921F284ED80CF03E
:10D8500007FE10151A4D4D4D1F4D4D4D4D4D4D10A0
:10D86000151A4D4D4D1F4D4D4D4D4D24282D393E12
:10D870004D43110020001BF07EFC38E01100200019
:10D880001BF087FC33E0110020001BF0E2FC2EE0CF
:10D89000694602201BF0BEFC29E00122290020007D
:10D8A00001E001222800FFF775FF20E00800FFF7E4
:10D8B00017FE2800FFF76AFD002815D0A368AA68A4
:10D8C000934211D1290020001BF0FFFC0FE0110052
:10D8D00020001BF0F2FC0AE0081D002229001DF0C8
:10D8E0000AFA031E024802D1024800E000203EBDB1
:10D8F000482703008C27030070B5050000290DDBC5
:10D90000032905D8080000240CF0AAFD0909060621
:10D910000123023999430C00FE2601E00024F2267F
:10D92000B5210902314328001BF032FD002C04D040
:10D930000349280021431BF02BFDEE612C6270BDD2
:10D9400080B00000F7B501911149040017000025CF
:10D9500019F065FF7B689D4214D2002D03D00D495C
:10D96000200019F05CFF019BAE009A590A49200083
:10D97000BE191AF025F80122B1682000F3F790FBD8
:10D980000135E7E70549200019F049FFF7BDC0461A
:10D990001F5E0300215E0300FBD70300A35F0300AB
:10D9A000F8B5214D2E687368012B3BD9B1685C1E18
:10D9B0000A5D0A2A36D1002C03DD621E885C0A2823
:10D9C00001D1220005E01400F5E7885C202802D18F
:10D9D00001329A42F9D3002C0BDD501C834208D14E
:10D9E000601E002805D001380F5C0A2F1AD0202FA6
:10D9F000F7D0CB18023B1B78141B3A3B59425941D4
:10DA0000A4086418013C0DD3084F042239003000EB
:10DA100019F022FD0421380007F0BCFD2B69043306
:10DA20002B61EFE7F8BDC0465C010020BAE00300BF
:10DA300010B520220021024815F038FB10BDC04669
:10DA400000090020084B10B542681860002098605B
:10DA500018750138D86008005A601A6199611EF083
:10DA6000CBF8FFF79DFF10BD5C010020F8B50378EF
:10DA70000500002B1DD00F4CA06C002804D02900FD
:10DA800016F0ACFD002814D0280016F0EBFD471C62
:10DA9000380018F0F7FE061E0BD03A00290015F0EA
:10DAA0007BFA054B054A1968043B99609A42FAD102
:10DAB000A664F8BDB808002018090020FC08002062
:10DAC000F0B5BE4B050018689E68426885B00192AB
:10DAD0001C00002E00D0C9E06B1E042B1ED819F0CC
:10DAE00024FD6368984200D165E1012D00D109E170
:10DAF000022D0BD012E00023A360412D39D0422D1E
:10DB000030D0432D1BD0442D00D0EAE02369626859
:10DB1000934200D85EE1002701261CE1032D00D1CD
:10DB200049E1042D06D1206821694368994200D358
:10DB3000E0E0FCE0052D00D1EFE0062D06D12368E2
:10DB40005D682369AB42AD416D4227E10B2D07D1E2
:10DB5000019B22692068991A19F075FD002503E1DF
:10DB60000E2D04D1E368002B00DBA1E032E1102D83
:10DB700004D1E368062B00DC8DE02BE1152D0BD1E1
:10DB80002369626861689A1A206819F06AFD23693E
:10DB9000626800259E1A19E10D2D0AD188481EF0F1
:10DBA0002BF8206819F0F3FC6368C018FFF75EFFDC
:10DBB00012E11B2D02D10123A3600BE1082D01D03E
:10DBC0007F2D1BD121696268914200D802E10023B8
:10DBD00020688668B518ED5C202D08D101339D18AA
:10DBE0008D42F7D30126032B02DD033600E0012628
:10DBF000891B320019F035FD0127ACE0092D29D130
:10DC000063682269D11A226890686E4AC01803AB13
:10DC1000FFF788FA061E00D1DCE00025431C0BD17B
:10DC2000A0691DF0E9FF63682269D11A2268906833
:10DC3000C01807F0AFFC97E023692068E918039B40
:10DC400001355A1C03921A7819F0EBFCAE42F3D15D
:10DC5000350089E02B00203B5E2B00D9BAE02A007A
:10DC60002169206819F0E6FC01257DE0012E07D12D
:10DC700004224F2D6DD002225B2D6AD0002268E075
:10DC8000022E33D12A00303A092A00D933E7032281
:10DC90001D759A609EE05A1C4B4913339B005958DE
:10DCA000002900D196E020686368E26043600FE0DD
:10DCB0002068013BE36062684368991A19F0C3FC6D
:10DCC000E368002B06DB12333F4A9B00995820681B
:10DCD00019F079FC63682269D61A22685568ED1A32
:10DCE00074E0482D0ED0462D74D116E0032E29D1B4
:10DCF0007E2D02D000252F001EE01B7D312B01D090
:10DD0000372B05D10025236962682F009E1A14E085
:10DD10001A00FB21343A0A4206D1002723683E004C
:10DD20005D682369ED1A08E0332BE3D1FBE601229D
:10DD300019F097FC002501272E000023A3609E42C6
:10DD40000ADC0FE00022042E03D1462DE5D0482D39
:10DD5000D8D09A603EE00025300007F03FFC2369F0
:10DD60009E1B2661002F19D02368019A5B689A4296
:10DD700004D913002269981A07F040FC226823692D
:10DD800051689068C91AC01807F004FC23685868E5
:10DD90002369C01A401B07F021FC08E0002D19DDA3
:10DDA0002368290098682369C01807F0F3FB2369EA
:10DDB0005D1925610EE02E000EE0C0465C010020DA
:10DDC0008265030088100300B80800200127002E98
:10DDD000C2DCC9E701267642300005B0F0BDC0467E
:10DDE00010B504000C2018F040FD034B44600360A4
:10DDF0000223037210BDC0467425030010B5040051
:10DE0000102018F032FD044B0360237A037163681D
:10DE100083600023C36010BD0C25030010B504000F
:10DE2000102018F022FD044B84600360034B436014
:10DE30000023C36010BDC046A8E90200FB950200A4
:10DE400010B504301CF038FF004810BD78F1020016
:10DE5000002806D001280BD14B68DB085B00184373
:10DE600007E007224B680348934302D1024800E0D1
:10DE700000207047482703008C27030010B5034992
:10DE8000034819F0E2F804F06CFDC046FFD7030028
:10DE90008CFC020070B515001A001C0003F0A2FEF5
:10DEA000002802D04368002B0AD12B1E04D1074B57
:10DEB000022C01D1FFF7E2FF012C05D1436003E002
:10DEC000022C01D100224260180070BD78F10200DE
:10DED000F8B504000D000B7A124A9B00995819F00E
:10DEE0009EFC1149200019F09AFC2800FFF786FFDC
:10DEF0000126070038001BF08AFB051E0CD0002EFF
:10DF000003D10A49200019F08AFC012229002000CF
:10DF1000F3F7C6F80026EDE70549200019F07FFC6D
:10DF2000F8BDC046CC23030007D80300215E0300E0
:10DF30000AD8030030B5002585B001A90400019579
:10DF40001BF045FBA84205D10A490B4819F07DF8A2
:10DF500004F007FD636802A9083B6360036802934D
:10DF600043680393042328C00220F5F71FFE05B081
:10DF700030BDC0460DD803008CFC0200F0B513681C
:10DF80001400012287B00F680D000092D908022307
:10DF9000060002F035F8022E22D103236868034000
:10DFA00016D101682C4AC968914211D12A68904261
:10DFB00016D0059305A968681BF009FB061E0FD053
:10DFC000381D0122316803F00DFE73684360F1E7EC
:10DFD00000F08CFB0390039800F0D8FB002801D1DF
:10DFE000002526E000F082FB050000F0CFFB029048
:10DFF000280000F0CBFB0600280000F0C7FB029BC6
:10E00000002B03D0002E01D0002805D0134914485E
:10E0100019F01BF804F0A5FC381D0122029903F049
:10E02000E1FD4660D7E7A368EE009959002904D1C5
:10E03000013563689D42F6D30AE00429F8D0381D03
:10E04000012203F0CFFDA3689E1973684360EFE7D8
:10E05000044807B0F0BDC0464DE200002CD80300D4
:10E06000ACF6020078F1020073B50C0015001B2815
:10E070000BD000231F2838D1081D0022290003F0EF
:10E08000B1FD1B4B002830D117E00323194208D102
:10E09000184922688A4204D12B4002D12968914252
:10E0A00023D0AB0709D1144B2A689A4205D16A687C
:10E0B000636853400722934301D0104B15E001934E
:10E0C00001A920001BF083FA061E0DD0281D002296
:10E0D000316803F087FD0028EFD041687068F3F7DE
:10E0E0005DF80028ECD1E8E7014B180076BDC0468A
:10E0F00048270300F02303002C2403008C2703008F
:10E10000F7B50B681C4A04000D00934203D05A680F
:10E110001A4919F055FC1A49200019F080FB002318
:10E120000127019301A928001BF051FA061E15D002
:10E13000002F03D11349200019F071FB012231682F
:10E140002000F2F7ADFF1049200019F068FB012212
:10E1500071682000F2F7A4FF0027E3E70B492000D5
:10E1600019F05DFB2B68044A934203D00849200054
:10E1700019F055FBF7BDC0462C2403005CD8030002
:10E18000ABD70300215E0300BFDD0300BD670300C2
:10E19000A35F030010B504000C2018F066FB034BCE
:10E1A000446003600023037210BDC0467425030061
:10E1B00010B504000C2018F058FB034B44600360BA
:10E1C0000123037210BDC0467425030010B504304E
:10E1D000002203F007FD002805D10449044818F087
:10E1E00034FF04F0BEFB406810BDC046FFD70300FB
:10E1F0008CFC020010B5024B08C01CF03EFD10BDA7
:10E200002C240300F8B5070048680E0000F06EFAF1
:10E210000400F3F731F90C4D022F00D9B56800283E
:10E2200000D040101BF01DFA0600200000F0AEFAEE
:10E23000011E06D0331D0122180003F0D3FC4560F7
:10E24000F3E73000F8BDC04678F10200F0B50700F2
:10E2500089B000201E000D0001921BF002FA0E4B47
:10E26000040007609F4203D1042203791343037122
:10E27000019B2B430DD03368AA00B218019905A861
:10E28000039404931CF00BFD681C05AA03A9FFF777
:10E2900075FE200009B0F0BDF023030010B5002A80
:10E2A00002D11BF021FA0DE0042A09D1043000222A
:10E2B00003F098FC002801D1FFF7E0FD406802E080
:10E2C0001BF008FA004810BD78F1020070B5F8F7AD
:10E2D000EBFD0B4C00262300A8331E602663F2F7EB
:10E2E000F7F9084D01212800FFF784FF28005E227E
:10E2F0006E211BF0EFF965602560666470BDC04655
:10E30000B8080020EC08002070B50624134EC300A6
:10E310001C437368002205002100181D03F062FCF5
:10E32000021E18D1706C002807D00430210003F0C1
:10E3300059FC002801D040680EE000222100084866
:10E3400003F050FC021E06D12A0006490648F7F7E2
:10E3500033FE04F006FB506870BDC046B8080020CC
:10E36000BCED020081D8030098F802000A4B10B5FA
:10E37000040018685B6898420AD00621E30019433C
:10E380000430002203F02EFC002801D0406802E097
:10E390002000FFF7B9FF10BDB8080020074B10B5EB
:10E3A000586C002801D1064807E0043000222621DD
:10E3B00003F018FC0028F6D0406810BDB808002013
:10E3C00004EE02000A00062110B5034BC000014311
:10E3D00018681BF07FF910BDB8080020062110B5A1
:10E3E000034BC000014318681BF07EF910BDC04606
:10E3F000B80800200A00062110B5034BC0000143F5
:10E4000058681BF067F910BDB8080020062110B548
:10E41000034BC000014358681BF066F910BDC046AD
:10E42000B808002070B505000C00062806D10800C9
:10E43000F3F746F800284CD028484DE00123194254
:10E4400017D04810042D06D0052D0FD0002D42D135
:10E450000028F1D03DE0C0221206904204D1802075
:10E46000C00517F0E0FB37E0404200E0C043400049
:10E4700013E0022813D11A4B0B40062B08D08B0750
:10E480000DD10A68174B92699A4208D1486802E098
:10E49000C80818F083FF0123400018431CE0200047
:10E4A000F2F7E4FD4369002B0DD10F4BAD002000C6
:10E4B000ED5817F076FC2A0003000C490C48F7F7DA
:10E4C0007BFD04F04EFA210028009847002803D174
:10E4D000EBE7084800E0080070BDC0468C27030049
:10E4E000070080FF2DC80000102B03009AD80300FE
:10E4F0009CFB020048270300F7B5040001911600B9
:10E500001F00F2F7B3FD0569002D09D1200017F0B7
:10E5100048FC064902000648F7F74EFD04F021FAD0
:10E520003B00320001992000A847FEBDB8D8030087
:10E530009CFB0200F8B504000D0017001E00002926
:10E540000BD01868F2F792FD6368984205D006492F
:10E55000064818F07AFD04F004FA33003A00290066
:10E56000A068FFF7C9FFF8BDD4D803009CFB0200E8
:10E57000F8B506000F0014001D00930714D11368AE
:10E58000174A934202D163682B6028E0154A9342F0
:10E5900007D1002802D0F2F769FD0700636888C53B
:10E5A0001DE0114A934201D12C6018E05B681A000B
:10E5B000F23A012A01D9F02BF6D1002E0ED120001B
:10E5C000F2F754FD094B984208D10C2018F04DF990
:10E5D000074B476003608460286000E050C5F8BDC9
:10E5E000C82A03008C2A03008C29030048F002008B
:10E5F000D4250300F8B500231360536006000C0017
:10E600001500F2F733FD0700102C05D1836A002BAB
:10E6100002D00F4B48C519E0FB69002B04D02A003B
:10E6200021003000984711E0B86B00280ED0062179
:10E63000E400214304301A0003F0D4FA002805D086
:10E6400042682B0039003000FFF792FFF8BDC0464A
:10E65000E0ED020070B5160004000D00FFF7CAFFE0
:10E660003368002B15D10B4EA30707D10A4B226844
:10E670009A4203D12B006268084905E0200017F098
:10E6800090FB2B00020006493000F7F795FC04F0E0
:10E6900068F970BDD0F902008C290300ECD80300A2
:10E6A00013D9030073B504000D001600F2F7DEFC69
:10E6B000C369002B09D004220196009229006A4602
:10E6C00020009847009B002B0AD0200017F069FB20
:10E6D0002B00020003490448F7F76EFC04F041F9EF
:10E6E00073BDC04613D90300D0F9020013B504006E
:10E6F000F2F7BCFC436A002B0BD16A461A212000BA
:10E70000FFF778FF009B002B08D0684604F0FEF866
:10E710000EE02000984700280AD1EEE7200017F00D
:10E7200040FB044902000448F7F746FC04F019F9DD
:10E7300016BDC04635D903009CFB020037B5040066
:10E74000F2F794FC856A002D02D02000A84717E05C
:10E750006A4610212000FFF74DFF009B002B05D0DB
:10E760006A46290028001AF0E6FF09E0200017F0A9
:10E7700018FB044902000448F7F71EFC04F0F1F806
:10E780003EBDC04651D903009CFB020030B50500D8
:10E790008FB0F2F75BFC2800F2F768FC846A002C6B
:10E7A00002D02800A0472AE06A4610212800FFF77F
:10E7B00021FF009B002B18D002A804F0B7F8002816
:10E7C00008D16A4601001AF0B6FF040004F0C4F84C
:10E7D000200014E0039B0B49186802F0BDFD030004
:10E7E0002000002B0BD1039807E0280017F0D9FA7E
:10E7F000054902000548F7F7DFFB04F0B2F80FB057
:10E8000030BDC04658F9020051D903009CFB0200FC
:10E81000F0B585B002900E001700202803D1914278
:10E8200012D0B5489FE1029B1B2B01D01E2B0DD1AE
:10E8300039003000F2F7B2FC029B002802D01B2BFB
:10E84000EFD101E01B2BECD0AC488CE1029B212BDB
:10E8500028D11000F7F7F8FB002806D03900300067
:10E8600018F0FDFB0028EFD1DBE703243C4000D08B
:10E8700057E1A34B3A689A4200D052E17B689C4230
:10E88000CFD2A300FB189D682800F7F7DDFB002816
:10E8900000D145E12900300018F0E1FB0028D3D178
:10E8A0000134EBE70123194200D1EBE04D101A428D
:10E8B00000D1DFE0029B54101D2B00D931E118007C
:10E8C0000BF0E2FD1E0020002300260038003F0070
:10E8D000410043004E0056006B007400A4001E006F
:10E8E00020002300260038003F00410043004E0076
:10E8F00056006B007400BD00C1002F01C500C900A7
:10E90000254300E065402E00A9E02C402600A6E04B
:10E91000002C02DA7B497C4818E11F2C70DC7B4B11
:10E9200023419D426CDCC0231B0623419D4267DBD3
:10E93000A540E8E7002CEDDB1F2C00DD1F2425415E
:10E94000E1E72E198BE02E1B89E021002800F3F768
:10E9500017FB002854D101206C436400204302E1DE
:10E96000002C00D1F0E02100280017F06FFF1BE021
:10E97000002C00D1E8E028000CF0BCFE051C2000B3
:10E980000CF0B8FE011C281C0CF016FA032302251B
:10E9900098435F4B2843C018E5E0002C00D1D3E03A
:10E9A0002100280017F042FF060058E0002C02DB8F
:10E9B0000395012618E028000CF09CFE0323022694
:10E9C0009843534B0643F6188BE001231C420ED1AB
:10E9D000012C44D0039964100800F3F7D1FA002801
:10E9E0000ED1039B5B430393002CEED137E00399D8
:10E9F0003000F3F7C5FA002802D1039B5E43E7E736
:10EA0000E917280017F000F906006AE0002C00D191
:10EA10009AE000210220F5F7C9F82100060028003D
:10EA200017F014FF012740003843B0602100280090
:10EA300017F0FCFEB8403843F060300093E0A54288
:10EA400000DBEEE600E7A54200DCEAE6FCE6A542D4
:10EA500000DDE6E6F8E6A54200DAE2E6F4E632009A
:10EA600073005A4002D4012018437CE0300017F0B4
:10EA7000DAF878E003231340022B03D1254B13402F
:10EA8000062B66D1029B1F2B2BD13800F2F7EEFA32
:10EA900083690500002B07D16B6A002B17D0380063
:10EAA000FFF724FE04000CE032003900029898477A
:10EAB000002858D1F0E73100F2F770FB002800D0B1
:10EAC000C2E62000FFF762FE0028F4D1A9E6380074
:10EAD00017F067F9104902001048F7F76DFA03F0D4
:10EAE00040FF3000F2F7C2FA8369002B19D03A00D8
:10EAF00031000298984734E08C2703004827030030
:10EB0000D4F10200585D0300ACF60200FFFFFF3FA6
:10EB100000008080070080FF35D903009CFB0200C5
:10EB20002F00029B30009A00104BD45817F039F98F
:10EB30000500380017F035F92B00009022000C4931
:10EB40000C48F7F739FACAE70B490C4818F07DFA78
:10EB5000C5E728000CF0CEFD3A00011C0298F7F73B
:10EB60005DFF0028DDD005B0F0BDC046C829030018
:10EB700070D903009CFB0200475D030008FB020004
:10EB8000F0B513688DB00693002803D1131D0393CD
:10EB9000040003E01300546808330393FF220B00C2
:10EBA000090A1340114001934B000593059A019BFC
:10EBB00004919B18039A9B00D558D3185F68381EA0
:10EBC00009D00020BB0706D17F4B3A689A4202D198
:10EBD00038001AF07CFD049B1E18002D16D1019BF5
:10EBE00076000133F3189800009317F03EFE2500DD
:10EBF0000600002C01D001250460019BA8009A00AA
:10EC00003018039914F0C8F9019B30E0AB0731D1FB
:10EC10002B686E4A934202D06D4A93422AD1280053
:10EC20000AAA09A9F2F7AEFB099B019A01339B18C6
:10EC300076009B199800009317F017FE2500060038
:10EC4000002C01D001250460019BA8009A000399C3
:10EC5000301814F0A1F9019B0A995819099B8000FA
:10EC60009A00301814F098F9019B099A9B185B19C7
:10EC7000029338E0019B7600181D3318980000932A
:10EC800017F0F3FD02940600002C02D0012304606B
:10EC90000293029B03999800019B30189A0014F08C
:10ECA0007BF9019A029B9446280063440293FFF784
:10ECB0001DFD029B07909C000798FFF767FD051E4E
:10ECC00011D0009B029A934207D8D900300017F068
:10ECD000E2FD0600009B5B000093029B355101336F
:10ECE00002930434E8E7029B9800049B3018DA0092
:10ECF000019B9900039B591814F04EF9029A059B49
:10ED0000944663441C00002F4FD003253D401AD188
:10ED10002D4B3A689A4216D138001AF0EEFC416841
:10ED20008D4242D08368EA009F58002F09D0042FFB
:10ED300007D0A300F7508768F318BA185268023456
:10ED40005A600135ECE70AAAC5213800FFF782FCBA
:10ED500000210AAA08001AF0EEFCFFF7C7FCA50084
:10ED600001900198FFF712FD071E1ED0009A631C48
:10ED70009A420BD853000093032B01D8042300932D
:10ED8000009B3000990017F086FD060009AA0221B9
:10ED90003800F2F719FB099B02341B687351099B79
:10EDA0005A6873195A600835DBE7029B0299E21A28
:10EDB000520833000698FFF79FFB0400300017F05D
:10EDC0007BFD20000DB0F0BD2C240300D4F1020027
:10EDD000382B030073B50C00150083071DD10368A1
:10EDE000214A934207D0214A934216D101AA69468B
:10EDF0001BF02FFF03E001AA694617F0C6FD009B38
:10EE00009C4225D827D3019BA4001C19043B043C39
:10EE10009C4227D0226804C5F9E7FFF767FC00236E
:10EE200006000093009B3000A3420CD2FFF7AEFC1B
:10EE300000280DD0009A0E49A31A5B189B000132DE
:10EE400058510092EEE7FFF7A1FC00280AD002E03B
:10EE5000009A084901E0220007490848F7F7ACF892
:10EE600003F07FFD73BDC046D4F10200382B0300D0
:10EE7000FFFFFF3F95D90300B8D90300ACF60200AD
:10EE80000B0AF0B514000E00FF221D0085B01640DD
:10EE90000193154083073CD107683E4B9F4203D046
:10EEA0003D4B9F4235D104E003AA02A917F06DFD46
:10EEB00009E00B0A0B43134201D1206068E003AA6A
:10EEC00002A91BF0C6FE029B72199A4259D89A00F9
:10EED0009446002003998200A84206D06746BF1AD4
:10EEE000043FCF590130A750F5E79B1BB5004919E6
:10EEF000181AA4181BF096FE039B20605D190023CE
:10EF0000013601339E4243D09A0051426958A150C4
:10EF1000F7E7FFF7EBFB002307000293029B9E42FB
:10EF20000CD93800FFF732FC00282AD0029AB31A15
:10EF30005B199B00013218510292EFE70021080093
:10EF40001BF070FE06003800FFF720FC011E03D006
:10EF5000300002F0BBFAF6E7B1688D4211D8AB0081
:10EF6000E3181E6088009C4206D0F268C71AA218F7
:10EF7000D259043B1A60F6E7491B30001BF06EFEC5
:10EF800006E0029A05490648F7F716F803F0E9FC8F
:10EF900005B0F0BDD4F10200382B030095D9030071
:10EFA000ACF60200F0B587B01D0006000C0001921F
:10EFB000F2F75CF82E4B984206D12B00019A210003
:10EFC0003000F8F7D9FD51E0876A2A4B002F07D0AF
:10EFD0009C4221D13000B8472860002816D145E076
:10EFE0009C4219D103AA10213000FFF703FB039BB9
:10EFF000002B0DD103AACD213000FFF72BFB059488
:10F0000003AA002101201AF096FB286001202DE0C0
:10F0100003AA39003800F6E7002CEBD1019B200051
:10F02000002B23D01800F2F721F8134902F094F9CD
:10F0300000280FD003AACC213000FFF7DBFA039B96
:10F04000002B07D003AA210020001AF074FB2860CF
:10F0500020000BE003AACE213000FFF7CBFA039B80
:10F0600001AA002BCDD10220019B2B6007B0F0BD7F
:10F07000BC0C030078F1020050FC020010B5040043
:10F08000F6F7E2FF002806D0002320001A0019003E
:10F09000FFF732FA0AE0200017F0DBFF0300200040
:10F0A000002B03D10249034817F0CFFF10BDC04623
:10F0B000E0D903009CFB02007FB50623C000184383
:10F0C000054B01900491052001A902930393059239
:10F0D00000F0E8FA07B000BD78F102001423F0B5A3
:10F0E0008DB000AFFA1805000C00FFF783FABB697A
:10F0F000002B06D022002C492C48F6F75DFF03F0C8
:10F1000030FC786900284BD128001AF0EBFB00286E
:10F11000F0D014232800FA180D21FFF76BFA102302
:10F120007869F918FDF790F8B860200018F03BF9FD
:10F130006A463E69B968731C7B60C318FB600E3376
:10F14000DB08DB00D31A9D463200684613F024FF2B
:10F150006D462E23AB557B682000EB18BB6018F082
:10F1600027F90600200018F01EF931000200B868E7
:10F1700013F012FFF9686846F7F7D4FE0623C000C3
:10F1800018430B4B10223B627B620A4BBA18BB62DE
:10F190000123FB620B33F861D118052000F082FADD
:10F1A000BD460DB0F0BDC0460ADA030054FA0200B5
:10F1B00078F1020048270300F0B5174C0F00616892
:10F1C00095B003912168060008A80491626023604D
:10F1D00003F0ACFB051E06D0039B09986360049BFB
:10F1E000236003F0BEFB33683A00310005A80193A9
:10F1F00002F05AFF2B002A00019905A8FBF738F905
:10F200001AF081FA050003F0A7FB2800039B636056
:10F21000049B236015B0F0BDB808002010B50400B1
:10F22000F2F78EFF031E064803D0064917F00DFFC4
:10F2300003E022000449F6F7BFFE03F092FBC0464C
:10F240002CF7020020DA030049DA0300010010B5B0
:10F25000024817F0FAFE03F084FBC04644FB0200AC
:10F2600010B588B001AA69460400F6F74BFF009B71
:10F27000022B2AD902AA322104A8F8F7E5FD019B46
:10F2800013495A6802A818F09BFB2000F1F7EEFE24
:10F29000104BC2689A4210D123680F495A6802A8DD
:10F2A00018F08EFBE368002B07D05A68002A04D0C0
:10F2B0000022996802A8F1F7F3FE04A818F067F994
:10F2C00006F0B0F904A818F012F908B010BDC04655
:10F2D00077DA0300A15E000080DA030070B5050054
:10F2E00090B0002803D11F4814F01CFE38E004A899
:10F2F00003F01CFB041E19D12E68290001A801226D
:10F3000002F0D2FE23002200310001A8FBF7B0F882
:10F310000400032006F00AF920001AF0F4F9012095
:10F32000404206F003F903F017FB19E001204042C8
:10F3300006F0FCF805990C48F1F7D6FE0598F1F7B0
:10F3400095FE0A49040002F007F8002808D1084990
:10F35000200002F001F8002802D10598FFF780FF95
:10F3600010B070BD84DA030088100300CCF70200EF
:10F3700064F6020037B52A4B01AA1A60F1F740FE85
:10F38000E120C000F1F750FE26492748F2F798FE29
:10F39000FEF79CFF06F0A8F8FEF74AFB04F08EFA91
:10F3A0000023224C6367224B1A781D00012A1FD1CB
:10F3B000F8239B021A784D2A07D15A78502A04D193
:10F3C00059881C481AF0F2F912E0002307211A00AC
:10F3D0001948F4F785FE002802D01AF0F1F907E089
:10F3E000A620012215494000FFF766FE1AF0BDF97C
:10F3F0002B78002B11D1FCF787F80028F8D01048A3
:10F400001CF0FAFB082200210E4813F04FFE0023E7
:10F41000903423601AF073F937BDFCF7D3F8ECE7AA
:10F42000780100200038002018120020B8080020C1
:10F43000D400002004E00300B1DA030010F202005F
:10F44000B9DA03002409002007B5F2F7D1FE054B15
:10F4500001A81968091A8908F2F77CFEF2F7DCFEA8
:10F4600007BDC04678010020C3790248002B00D1B7
:10F4700001487047482703008C27030010B5F4F7B4
:10F48000D9FC014810BDC04678F1020010B50868EB
:10F49000F4F7D0FC004810BD78F1020073B50D0000
:10F4A000022823D1012601A96868FCF7CDFE764227
:10F4B0003400019BC31883421BD00178722901D00C
:10F4C000772905D1621C0ED172394C424C4108E0BB
:10F4D000622901D0742906D1721C04D174394E42BC
:10F4E0004E410130E7E70E490E4813E0012676420F
:10F4F000340001A92868FCF7A7FE734273416242F9
:10F500006241DBB2D2B20199F4F7EAFD002805D1DD
:10F510000549064817F099FD03F023FA76BDC04669
:10F52000C7DA0300ACF60200766203005CF8020062
:10F5300000237F2803D8034B1B5C9B07DB0F1800BD
:10F540007047C046D4DA030000237F2803D8034B5A
:10F550001B5C1B07DB0F18007047C046D4DA0300A2
:10F5600000237F2803D8034B1B5C5B07DB0F1800CD
:10F570007047C046D4DA030000237F2803D8034B2A
:10F580001B5C5B06DB0F18007047C046D4DA030033
:10F5900000227F2808D8054B0132195C0C23194240
:10F5A00002D15F384242424110007047D4DA030072
:10F5B00000237F2803D8034B1B5CDB06DB0F1800FE
:10F5C0007047C046D4DA030000237F2803D8034BDA
:10F5D0001B5C9B06DB0F18007047C046D4DA0300A3
:10F5E00010B50B790349002B00D1034918F017F926
:10F5F00010BDC046206E0300186E030037B50C0026
:10F60000110000221D0000920123200000F0F8FCF0
:10F61000054B002C06D02868F1F752FF034B002859
:10F6200000D1014B18003EBD8C2703004827030082
:10F6300070B50600080017F0AAFF050017F003FADE
:10F64000041E06D12A0008490848F6F7B5FC03F065
:10F6500088F9300016F038FB012102000300200079
:10F66000FFF7AAFD70BDC04654DB030054FA020048
:10F6700010B5040017F08BFF1AF0AAF80300012060
:10F6800083420CD00649200017F09DFF200017F0A0
:10F690007EFF1AF09DF8023843425841400010BDE9
:10F6A000A5DB0300F0B59DB000AF0C68032807D9B7
:10F6B000CB680025FB60042805D00D696D1002E0C1
:10F6C0000025A44BFB601C232000F918FCF7BCFDAF
:10F6D0007861002D56D0A04C6E216068FEF776FD53
:10F6E0000600606800229621043002F07BFA18239D
:10F6F000FA18D11804003000FCF7A6FD3B6B013D61
:10F700000100C318002C0CD199420AD2013B1A788F
:10F710002E2AF9D105E0994203D2013B1A782E2A0C
:10F72000F9D1013DF7D2FE695C1A2500002E01D007
:10F73000751C2D192B006A460E33DB08DB00D31A2B
:10F740009D46220018003B6113F026FC002E08D0D5
:10F750002E233A69601C135510187969320013F092
:10F760001BFC29003869F7F7DDFB012804D17B4930
:10F770007B4817F06AFC5FE006243B69C000044345
:10F78000FD617B612000FCF7D1F8F0F7B7FF051EA3
:10F7900015D02E21786914F0B3FE0100280000294D
:10F7A00000D1D4E06B4BFA689A4200D0CFE07B697D
:10F7B000C91A1800F7F7B6FBF0F7A0FFC7E0182347
:10F7C0001820FA18D2183818103B4021C01817F02A
:10F7D00083FE0126BD603D612C0004E07B699B5DDA
:10F7E0002E2B05D00136FB699E4200D9A9E0F5D148
:10F7F00031007869F7F796FB18220823BA183860A9
:10F80000D01817F092FE002818D132000823796929
:10F8100018303818C01817F01FFE18220823BA181D
:10F82000D018FFF725FF78607B68002B15D13A6868
:10F830004C494B48F6F7C0FB03F093F81822082315
:10F84000BA18D0182F21F8F70BFB3B693969F21A67
:10F850007B69182059180823DBE73868F0F74EFF5A
:10F86000041E57D13868F0F70FFFFB6904009E4271
:10F8700008D13D4BFA689A4204D15E226E2180681D
:10F8800019F028FF7B68012B3DD118220733BA18E5
:10F89000D01817F043FE18220823BA187860D01841
:10F8A00017F043FE002201007868FCF71DF81221D2
:10F8B00002002000FEF7F6FE18220823BA18D0181E
:10F8C0002F21F8F7CDFA18220823BA18D0182749A3
:10F8D00017F079FE18220823BA18D01817F057FE2F
:10F8E00019F076FF022806D118220823BA18D11879
:10F8F0002000FFF79DFE18220823BA180C21D0180B
:10F9000017F0A1FE06E018220823BA18D11820002B
:10F91000FFF78EFE002D0CD07A693B699446F11AF0
:10F9200063441800F7F7FEFA220001002800FEF7F2
:10F93000B9FEBB68002B00D1BC60731C3B61250085
:10F9400050E7044BFA6820009A4200D1B868BD46DF
:10F950001DB0F0BD78F10200B808002069DB03009B
:10F9600054FA020088DB03008C2703009DDB0300B0
:10F970000300F0B5443387B0040018000F00019372
:10F98000002617F0BFFD2069431C18D00A2804D1B7
:10F99000200019F0B1FF0126F5E7FFF7C9FD0028A7
:10F9A00022D12369232B08D1200019F0A5FF236958
:10F9B0005A1CE8D00A2BF7D1E5E75C2B06D0E369A7
:10F9C000256AA363E563002F12D117E0200019F028
:10F9D00093FF23690A2B07D0E369A363236AE363D8
:10F9E000042340342370FEE2200019F085FFCAE7AB
:10F9F000012B03D10622012D00D081E1676A002F7F
:10FA000005DA2300072240331A70013706E0002F81
:10FA100006D02300062240331A70013F6762BFE11F
:10FA2000002E3AD0A36A002B37D1210005224031A5
:10FA30000A706362226BB44B606BD3185B001B5A75
:10FA4000013D9D4200D1CEE214D9E16A8A4207D33A
:10FA50000831490016F01FFFE36A60630833E36270
:10FA6000236B5A1C2263626B5B009D52636A0133F5
:10FA7000636295E1236BA44A9A185200125A954288
:10FA800005D2013B2363636A013B6362F2E795425F
:10FA900000D1A8E202230B7082E12069431C1BD134
:10FAA000994A236B616B9B185B005A5A23004033C1
:10FAB000002A00D126E105221A7000236362924ACF
:10FAC000236B9A185200525A002A00D18BE2013B54
:10FAD0002363636A013BF1E7272800D183E12228F1
:10FAE00000D180E1752804D0102302009A43622AD5
:10FAF00004D16369272B11D0222B0FD0722803D198
:10FB00006369622B2CD104E0622829D16369722BCE
:10FB100026D1A369272B01D0222B21D1752803D10F
:10FB2000200019F0E9FE5EE162280ED1200019F0F4
:10FB3000E3FE002302932369722B00D04DE12000E5
:10FB400019F0DAFE0123029347E1722800D04AE15E
:10FB5000200019F0D1FE2369622BF0D0012343E18C
:10FB6000FFF7F2FC2169002803D15F2901D07F292A
:10FB70001ED92300082240331A70C9B2019817F029
:10FB800019FD200019F0B8FE2069431C00D107E1DF
:10FB9000FFF7DAFC002801D0217CEFE720695F281D
:10FBA000FAD07F28F8D8FFF7DBFC0028F4D1F7E083
:10FBB0000800FFF7D5FC002808D026002169403650
:10FBC0002E290CD10A230025337019E023692E2B2E
:10FBD00055D16069FFF7C4FC0028EED14FE009233E
:10FBE0000025337030290BD1626917331343623B10
:10FBF000162B03D8454FDF4001231F4001253D4010
:10FC00000198F8F72DF9200019F076FE20272069D9
:10FC1000431C00D1C4E0002D13D10300BB43452B8E
:10FC20000FD13B3B337065210198F8F719F920009B
:10FC300019F062FE216902220B002B3B9343E6D1AF
:10FC400016E0FFF781FC002803D021692E2909D195
:10FC50000CE02069FFF784FC0028F6D123692E2BE5
:10FC6000F3D09DE00B00BB434A2B01D10A23337034
:10FC70000198F8F7F5F8200019F03EFEC7E7216972
:10FC80002E2903D00026224D02222BE026000198C7
:10FC9000F8F7E6F8200019F02FFE236940362E2BE6
:10FCA00000D08CE165692E2D00D088E129000198F3
:10FCB000F8F7D6F829000198F8F7D2F8200019F0E3
:10FCC0001BFE200019F018FE0D2379E1B94211D076
:10FCD0003B00633B9343DBB2681C002B06D105005D
:10FCE000013601352F78002FF0D103E0452FF7D1F1
:10FCF000013EF4E7200019F0FFFD002F0AD1012298
:10FD0000230040331A704BE0FFFFFF7F01204000CB
:10FD1000D4DB0300370001352B78652B0CD16B78D1
:10FD2000226901379A4205D12000013519F0E4FD1E
:10FD30003E0001E00235EFE72B78452B0AD16B78C6
:10FD400022699A4204D1200019F0D6FD3E000EE04F
:10FD500001220EE0632B0AD16B78226901379A42A7
:10FD600005D1200019F0C8FD02353E00D4E79F4BB5
:10FD70009A5D230040331A70230040331B7804221D
:10FD800019009143422901D0442B02D1A36A0133C7
:10FD900005E0432901D0452B02D1A36A013BA362B0
:10FDA000200040300378082B00D01CE10023E56CD4
:10FDB0008F4EA46C9A00915900228F18944204D15E
:10FDC0003A78002A00D0FDE001E18F5CBC46AF5CD0
:10FDD000BC4500D0F6E00132EFE723000C224033AF
:10FDE0001A70012306E00023029323000B22403304
:10FDF0001A700023049323690393222B01D0272335
:10FE00000393200019F078FD0123039A05932369D9
:10FE100093420BD113006269934207D1200019F07D
:10FE20006BFD200019F068FD032305930026276968
:10FE30007B1C00D1A9E0059B012B02D10A2F00D128
:10FE4000A3E0059BB34200D8A6E0039B9F4205D1E7
:10FE5000190001980136F8F703F892E0F9B25C2F27
:10FE600000D08AE0200019F047FD029B2569390087
:10FE7000002B69D1622D28D012D84E2D4BD007D837
:10FE8000222D66D0272D64D000260A2D79D045E09A
:10FE90005C2D5ED0612D00D18DE0552D3ED11CE052
:10FEA000742D00D189E007D86E2D10D0722D12D09C
:10FEB000662D33D10C254FE0762D0AD00DD30227C5
:10FEC000782D16D06B1C5BD028E0082544E00A256D
:10FED00042E00B2540E00D253EE0049B002B04D0C2
:10FEE0005C210198F7F7BCFF36E00827752D00D19B
:10FEF000043F0025013F2AD3200019F0FDFC2669AC
:10FF00003000FFF739FB00284BD0300019F0C5FC5A
:10FF10002D012D18EEE73748FFF798F92B00303BFD
:10FF2000072B10D803261D006369303B072B0ED822
:10FF3000013E002E0BD0200019F0DEFC2369ED00FD
:10FF4000303B5D19F0E75C210198F7F789FF6B1CE6
:10FF500016D0294B9D420BD8049B002B04D12900BD
:10FF60000198F7F77DFF0BE0FF2D01D8E9B204E01F
:10FF70002300012240331A7002E0019817F01AFBA7
:10FF80000026200019F0B8FC51E7059BB34203D9C5
:10FF90002300032240331A703100019817F053FBFD
:10FFA000FEE62300012240331A70049B0500002B5B
:10FFB000DCD11D00D3E70725CEE70925CCE74A238E
:10FFC0003370EDE60133222B00D0F3E60BE0212B5A
:10FFD00007D10A4BA8331A680E23002A02D1023334
:10FFE00000E00E33037007B0F0BDC046A9DB03008C
:10FFF000A027030016DC0300FFFF1000B808002054
:020000040001F9
:1000000010B51C0002AB1B78002906D0002B04D1D0
:100010000F49104817F019F808E0A24208D18242AF
:1000200014D003000C490B48F5F7C6FF02F099FC09
:10003000824205D9121A09490648F5F7BDFFF5E7CE
:10004000844203D2030022000549ECE710BDC046FC
:10005000BABE03009CFB020052BE030087DC030013
:10006000B9DC0300F0B50025170087B00C9C0D9E8D
:1000700003900491059302950195059B9D423BD009
:10008000039B9D4209D263689B0539D4019B049A66
:1000900001330193AB00D05819E023680022D90046
:1000A00006233800194301F09DFD00280BD1636839
:1000B000DB0505D5226819491948F5F77DFF23E0CE
:1000C000A368336014E0029B406801330293FF226F
:1000D00063681340012B03D1F1F7F2F9307007E0A8
:1000E000022B02D1F1F7ACF801E0032B00D1306014
:1000F00001350C340436C0E7019B039A934205D2C4
:100100000849074816F0A1FF02F02BFC3B68029A51
:10011000DB0805499A42F4D307B0F0BDE8DC0300E0
:100120009CFB0200FFDC030020DD0300F0B50F00A4
:10013000496887B005001600002901D0002A04D1C3
:100140003900280019F0A3FD59E00F321309C9182E
:10015000019319F00CFD0F22A968B8687B68324042
:1001600000D11032019CE618264C3419640009199C
:1001700003912449102459184900411803988C46CA
:10018000029019000020A41A0594002912D0644698
:10019000248801392043040004900598C440029843
:1001A0000480029C0498023C0294022464420004ED
:1001B000A444EAE7039C5B00E31A1024A21AD0408F
:1001C000019A18800F4854001C1B84461300023407
:1001D00063445A00200012F069FF002E06D073001D
:1001E000023BE35A002B01D1013EF6E701216E608C
:1001F0003B780B401A002B788B4313432B7007B0CE
:10020000F0BDC046FFFFFF7FF0B54B681500526898
:1002100087B006000C00934201D22C000D00012192
:10022000227863680A4201D12A781140C918300047
:1002300019F09DFCB36822780093A368170001931E
:10024000636829789C46AB684F40029301231800ED
:100250001F408B4304936346904302006046591E3F
:10026000009B03936B681B1A05934B1C26D0019BC4
:100270001F481B881B189B181800059B5B188B4296
:1002800007D8029B1A4A1B889B18029A02320292D4
:1002900000E0174B049A01399B1802005A401B0CCE
:1002A0000493039B92B20233D719039A0393019BE1
:1002B00017800233020C3F0C0193D6E763465900C6
:1002C000009B5918002F02D001230B8002310098A7
:1002D00019F039FC012170602A78237853400B40D3
:1002E0001A0033788B431343337007B0F0BDC04618
:1002F000FFFF0000F0B591B006935B6804000E00AC
:100300000592002B02D143604B6051E1059B5B6875
:10031000591C19F02CFC059B00215B68A0685A1C35
:10032000520012F0C3FE00236360059B30005B683F
:10033000591C19F01CFC0599300019F0A8FCB36891
:1003400075680193069B9B680293069B5B68049308
:10035000A3680793049BAB420ED810D3029A2900DE
:10036000019819F04AFC002804D10123079A706013
:10037000138002E0002802DA002363600DE100210F
:10038000049B8C4A9A18029B52009B1803931B886B
:10039000009119B2002905DB00995B0001319BB285
:1003A00089B2F5E7931C0B930B9A10219446002019
:1003B000029B009A63449C468A1A029B08926345FA
:1003C0000AD21A88009917008F40089938430A41C9
:1003D000188090B20233F2E70020019A6B00D052ED
:1003E0006A1C019D089272609A1CAA1809922A0040
:1003F0001025009FED1B0A9509998A420AD215889B
:1004000000992F008F400A9938430D411080A8B2FF
:100410000232F1E7039A12880D92019AD518049BD3
:10042000089AD11A634B6160C918079B49005B1891
:10043000099373680A930A9A049B934266D2AB1E8F
:1004400028880E931B88000418430D990AF026F89B
:1004500000210B9B8446EB1A0C93029B0C9808938B
:1004600085421DD9089B1A8863465A4303889A42DD
:1004700003D29F1A0F978F4209D8D21A51184B42B4
:1004800003800B0C89B24A1E9141591803E00F9B5F
:10049000591A01800021089B023002330893DFE7DC
:1004A0002B88994208D3C91A4B42080C89B22B8079
:1004B0004B1E994143180AE0591A29801CE02A88EA
:1004C0001018012228805242000C1B1A9444002B61
:1004D00012D00020029A0C9908928D42EFD90A8816
:1004E0001700089A1288BA1812180A80100C089A75
:1004F000023102320892F0E76246099B0E9D1A8093
:10050000023B09930A9B013B736092E71021002391
:10051000009A891A029A039882420DD8039A009D84
:100520001288100028418A4003430398038093B245
:100530000200023A0392EDE71E4A1021944600257C
:100540000A9B019A63445B00D318009A891A019AA6
:100550009A4212D81A88009F100038418A402843D6
:10056000188095B2023BF2E7124A07999A18520096
:10057000525A002A0ED1013B63606368002BF3D10D
:1005800008E00C4A01999A185200525A002A04D1E4
:10059000013B73607368002BF3D10121059B1A782E
:1005A000069B1B785A400A4202D023780B432370E3
:1005B00011B0F0BDFFFFFF7F436870B55A00002304
:1005C00084680A4DA218944206D2023AAB420AD875
:1005D00016881B043343F6E70278D20700D55B4246
:1005E0000B60012000E0002070BDC046FF7F0000CE
:1005F000F8B51F008B1E160000241E2B14D80B4BC1
:100600004068595C000109F049FF0500A74204D089
:100610000130032109F042FF0400301E01D014F024
:1006200021F803352C1924182000F8BD3EDD030005
:10063000002805D0012809D18B685B00184306E02B
:100640008B680348002B02D1024800E0002070476D
:10065000482703008C2703007FB50400012208000F
:1006600001A9F0F7A9FF002221794020F7F7ACFD9E
:1006700001000600029809F011FF62680500130AE4
:10068000984208D9A368C1187143E06816F003F9CD
:100690002379E06003E01B1A1B02D2B2134332003D
:1006A000A06863607043E3686A431818019912F008
:1006B00073FCA36802485D19A56004B070BDC04614
:1006C00078F10200F7B5FF26476804000191B743AF
:1006D0001DD101793A004020F7F776FD63680500E7
:1006E0001E408023A1681B011E4308314143666000
:1006F000E06816F0D0F86368E0601A0AA368013A6F
:1007000001336A435D433900401912F0CFFC207970
:10071000019BA268E168F7F7ABFEA36803480133C9
:10072000A3606368013BFF3B6360FEBD78F102009C
:1007300010B50400102016F0AAF8024B44600360C4
:1007400010BDC0465028030070B50A7904000D00A2
:10075000002A09D1194917F062F80123AA68E9684B
:100760002000FBF727F823E0154917F029F9AB68BB
:10077000002B1DD01349200017F051F80026AB685C
:100780009E4211D2002E03D00F49200017F047F8E7
:100790003200E9682879F7F739FD012201002000CD
:1007A000F0F77EFC0136EAE70849200017F037F839
:1007B0000749200017F033F870BDC0465FDD030025
:1007C0006BDD030076DD0300215E03001D6803007E
:1007D000A35F0300F8B5002207000D0001004020D0
:1007E000F7F7F2FC061E05D10C490D4816F02DFC5A
:1007F00002F0B7F8102016F038F80A4B0400002F6A
:1008000000D0094B28002360FBB2A56070436360F1
:1008100016F02BF8E0602000F8BDC0467ADD03003A
:10082000ACF60200C82803008C28030070B506004F
:100830008AB00C001500122839D033D8052800D012
:1008400082E004A90122200019F080FF07A92800F6
:100850000122F0F7B1FE069B002203936B46402075
:10086000197BF7F7B1FC06000100089809F016FEA5
:10087000069BA16803936B4605004118187BFFF7A0
:10088000A9FF059B04001A000499C068039312F0A5
:1008900083FB2A000598E36872431818079912F041
:1008A0007BFB52E01B2836D01F2805D04CE01100FE
:1008B0002000FFF7D1FE48E0012207A9280015F02B
:1008C00086FA0323002813D01C423BD1204B226818
:1008D0009A4237D104A90122200019F037FF0123E1
:1008E000079A00930599089B049818F0A3FA26E04C
:1008F000EA070DD41D4203D1164B2A689A4207D04D
:1009000003232B40022B1DD1134B1D40062D19D064
:100910001248FEF79BFC012204A9200019F016FFE3
:10092000012207A9280015F052FA00280AD0089BD6
:10093000059A00930499079B300016F06DFA084C55
:10094000002802D1074C00E0002420000AB070BD4E
:10095000C8280300E4F20200070080FF50D2030021
:10096000482703008C270300F0B5050087B00E0070
:10097000002808D08B0724D10B68264A934202D066
:10098000254A93421DD1012203A9300015F01FFA18
:10099000002816D0002229004020F7F715FC070098
:1009A0000100049809F07AFD060001002800FFF715
:1009B00011FF320004007A430399C06812F0ECFA88
:1009C00024E03000F0F758FD071E00D04710390032
:1009D0002800FFF7FFFE04003000FDF787FE002629
:1009E00000900098FDF7D2FE031E0FD0002F04D117
:1009F00019002000FFF766FEF3E7721C0192E16820
:100A000032002800F7F734FD019EEAE7200007B026
:100A1000F0BDC04624210300C828030070B50500BE
:100A200086B0161E44D003200840041E2CD1224B51
:100A30000A689A4228D103AAA868F4F7A9F90028FD
:100A400002D11E48FEF702FC2000042E31D1220004
:100A500029794020F7F7B8FB049B06000093039B1D
:100A600028790193019A009B991AFFF7B3FE0400BD
:100A70000399049AEB68521A714372435918C0687B
:100A800012F08AFA200014E00A000023A9682868FE
:100A9000F0F7AEFC02002879042E03D1E968F7F7DD
:100AA000B5FB06E03300E968F7F7E2FC044800E034
:100AB000100006B070BDC04634EE020012620300A2
:100AC00078F1020037B50C00110000221D000092E1
:100AD00001232000FFF794FA002C04D1210020000C
:100AE000FFF778FE1BE02968CB0705D48B0713D1ED
:100AF0000B4B0A689A420FD10800F0F7A1FB0100E6
:100B000005000020FFF766FE04002A000021C068EF
:100B100012F0CCFA200002E00020FFF725FF3EBDD6
:100B2000E4F2020010B50400080019F065FE0300AD
:100B3000002C04D0012C07D14000204305E00348DD
:100B4000002B02DC024800E0002010BD4827030013
:100B50008C27030070B54568C6688468102015F0BE
:100B600084FE034B4560C6600360846070BDC04670
:100B70005029030070B50D004A688B6808490400CD
:100B800016F01EFFEA68012A04D10649200016F07B
:100B900046FE03E00449200016F012FF70BDC04677
:100BA00087DD0300A35F030094DD030030B504007C
:100BB00087B00D000020042A2FD1200019F01CFE60
:100BC000AB071DD1164B2A689A4219D103AA2900F6
:100BD000F4F7DEF8102015F048FE124B039A03607C
:100BE000E36861685A4352184260049A11005943FD
:100BF000019262688A188260059A5343C3600CE0D0
:100C0000002301002A002068F0F7F2FBE368584354
:100C10006368C01801234000184307B030BDC046C8
:100C200034EE020014290300F8B504000D00A36897
:100C3000002B0AD0344AE968914206D0EB58002BC9
:100C400003D00422E3681A605DE0A86B002822D07C
:100C500063680022D90006230430194300F0C2FF64
:100C6000021E18D0237C002B04D04268E368216860
:100C700000200DE02068002807D0234BE968994246
:100C800003D0224B9D4200D000692900E3685268DE
:100C9000FDF76EFC37E02368002B03D16E6B002E4E
:100CA00014D130E0227C002AF8D1174AE968914239
:100CB000F4D0164A9542F1D01869E2686168FDF7F0
:100CC00099FCE3681B68002BE8D01CE075680836C7
:100CD000002D18D000276B1E0C4A9F420DD2BB007E
:100CE000F158914201D10137F5E72000FFF79CFF51
:100CF000E3681B68002BF6D005E0054BED18AD004E
:100D0000AD59954293D1F8BDC90F01009010030071
:100D1000FFFFFF3FF0B5146889B01700002C1ED10B
:100D200043685E6B002E1AD0736803AD019383682D
:100D3000083603936960AC60EA602C74019B9C42A6
:100D400009D0A300F1582800FFF76EFF3B68002B85
:100D500005D10134F2E703492800FFF765FF09B028
:100D6000F0BDC0469010030010B54A68014916F066
:100D700027FE10BD9ADD030070B58AB004000E0096
:100D8000150000210822684612F090F91422002173
:100D900005A812F08BF9202307936B46059408935E
:100DA0001C23002D02D0042D07D11A23216805A889
:100DB0000693FFF739FF022106E01B23216805A8EF
:100DC0000693FFF731FF03210098042805D12A007C
:100DD00031002069F0F7BEFB0DE000280BD002AB1C
:100DE0000022029403960495FDF786FB0300034856
:100DF000042D00D118000AB070BDC04678F1020081
:100E0000F0B5204B89B08200D4580D000822002193
:100E1000070001A812F04AF9142303AEB36001AB36
:100E2000F360002329683000746003953374FFF782
:100E3000FBFE019C042C05D129693800FDF7F2FA6C
:100E400004001CE0002C0CD02000290018F062FCEB
:100E50000400022F13D1F0F71FFA012440000443CD
:100E60000DE0022F0BD12623296830007360FFF7B5
:100E7000DBFE019B002B02D101246D002C432000DE
:100E800009B0F0BD102B0300F0B51600724272419C
:100E90008BB01F320C00019200210822070003A82A
:100EA00012F004F9019B05AD06930823079303ABE9
:100EB00008930023216828002B740594FFF7B4FEE3
:100EC000039B002B08D1002E06D11F332168280078
:100ED0006B60AE60FFF7A8FE0398042816D1206966
:100EE000F0F7C4F8144BC2689A420CD1002E07D018
:100EF0002368586816F05CFA0100380016F08FFC81
:100F00008022324300E03200216906E0002808D048
:100F1000210018F0FFFB002201003800F0F7C0F8B4
:100F200008E0200014F03DFF2300020003493800D0
:100F300016F046FD0BB0F0BDA15E0000A7DD03007A
:100F400070B504000D000B4916F069FC69680022B9
:100F50002000F0F7A5F80849200016F060FCA96809
:100F600000222000F0F79CF80449200016F057FCFE
:100F700070BDC046B9DD0300215E0300795D03004A
:100F8000F7B50025436808300F0006002C000193D8
:100F9000019BAB4212D0AB00F358094A93420BD0ED
:100FA000084AD968914202D03B60013404E039001C
:100FB000586BFFF7E5FF24180135E9E72000FEBD77
:100FC00090100300C90F0100F0B58FB005000F00AD
:100FD000406B05A901920293FFF7D2FF061DB600F0
:100FE000300015F042FC0400002120C019F045FE3D
:100FF00032002000103A1030002112F057F8012F73
:1010000005D1029B1B680393042B00D186E007AE39
:1010100008220021300012F049F80922002309A813
:101020004260290003328260C66003740993FFF7AF
:10103000FBFD0798042807D10598029BC668019A12
:101040003900B047206123E0002821D0019A3A43BB
:1010500006D106AB01210695FDF74EFA040017E014
:10106000019B5C00E4190134A400200015F0FDFB95
:10107000221F0390029920C011F08EFF791C039B60
:10108000019A3068FDF738FA0400039815F014FC53
:101090002000EFF7EBFF854240D100230822290012
:1010A00009A8089307930B9309940A92FFF7BCFDD4
:1010B000079B002B32D00198384305D107AA0100C5
:1010C00018F039FB05001CE0019B5D00ED190235AD
:1010D000AD00280015F0C9FB2A000600079B083A5E
:1010E00003600393089B02994360083011F054FF9A
:1010F00032000199380018F01EFB0500300015F091
:10110000DBFB084B9D4209D0280014F04AFE06493B
:1011100002000648F4F750FF01F023FC20000FB056
:10112000F0BDC04678F10200C2DD03009CFB020066
:1011300010B5C468002C06D1426804490448F4F78D
:101140003BFF01F00EFCA04710BDC046EADD0300E6
:101150009CFB0200F8B504000D0016001F0019F0FA
:101160009CFB002809D1200014F01BFE0B49020053
:101170000B48F4F721FF01F0F4FB042804D13B00F5
:1011800032002900206905E02100F3F7C5FE3B008D
:1011900032002900FDF7B0F9F8BDC046B8D8030009
:1011A0009CFB0200F0B5154B89B016008200D558A3
:1011B0000C000C2200210700684611F077FF18236D
:1011C00003A84560836000256B462168C3600574F1
:1011D0000394FFF729FD0098042805D13200216906
:1011E0003800FDF715FB07E0002805D06A46290006
:1011F0000120029618F09FFA09B0F0BDC82903003B
:10120000F0B50D0085B001A907001600280002AA5C
:1012100015F0BBFB0023019902988B420CD09A0079
:101220008258D468002C05D1526823492348F4F72A
:10123000C3FE26E00133F0E73C2015F028FB204BED
:10124000040003601F4B476083601F4B4563C3600E
:101250001E4B866303611E4B03A943611D4B8361D3
:101260001D4BC3611D4B03621D4B43621D4BC3628B
:101270002800FFF785FE012805D91B490F4815F006
:10128000E4FE01F06EFBA36B0022181D4E2100F05E
:10129000A9FC051E0DD0032243681A4009D11B6822
:1012A0005B68F22B05D1031D0121104819F050FB9A
:1012B0006860200005B0F0BD07DE03009CFB020063
:1012C0008C290300890E0100C90F0100551101008E
:1012D000010E0100A5110100C5A80200790D010051
:1012E0001BAA0200D1A9020030DE0300C82A0300B5
:1012F00037B50D001C0000231100009301220333B9
:101300002800FEF77DFE012D09D0032D0BD12068AA
:10131000FAF70CFBA2686168FFF772FF09E020682A
:10132000EFF7A4FE05E00349034815F08EFE01F037
:1013300018FB3EBD5EDE03009CFB020070B505009D
:101340000C200C0015F091FA024B4560036084609C
:1013500070BDC046502A0300F8B50F00B8421ED039
:10136000032505401DD1134B02689A421BD1466BE1
:10137000002E1AD074680836002C18D0631E9D42C7
:1013800008D2AB003900F058FFF7E6FF00280FD174
:101390000135F3E7084BE418A400A059DEE701206B
:1013A00006E0002004E0280002E0300000E0200019
:1013B000F8BDC0468C290300FFFFFF3FF0B585B0A4
:1013C0000500019108008B0713D10B68154A934261
:1013D00004D10123029301AB039306E0124A934226
:1013E00007D103AA02A915F0D0FA029E039F002498
:1013F00010E00E490E4815F028FE01F0B2FAA300E5
:10140000F9580C4B994209D02800FFF7A5FF002896
:1014100004D10134B442F2D1074800E0074805B0D6
:10142000F0BDC0468C290300D4F102007ADE03002F
:101430009CFB0200901003008C2703004827030048
:1014400010B5830703D1064B02689A4205D00549BF
:10145000054815F0FAFD01F084FAFFF7AFFF10BD63
:101460008C290300B3DE03009CFB0200002805D09A
:10147000012809D18B685B00184306E08B6803489C
:10148000002B02D1024800E00020704748270300EB
:101490008C27030000228168F0B5CB0F094C5B1844
:1014A0005B100E199A420BDAC568B11A94008900D4
:1014B0002C196D5827682560C46801326750F1E720
:1014C0000148F0BDFFFFFF3F78F1020070B583686F
:1014D0000D00416804008B4212D3C900C06815F0AA
:1014E000DAF963680A495A00A3686260D21A0133C4
:1014F00052189B00E0609200C018002111F0D6FD48
:10150000A368E268591C9B00A16002489D5070BD11
:10151000FFFFFF3F78F10200F8B5070016004C10FE
:10152000836803D5E418E243D2171440A34200D2E3
:101530001C000C4D38002900FFF7C8FFAC46BB6803
:1015400009495A1E5B189B001D1FF968944204DA72
:101550004859013AC8502B00F6E7A4000E516046E6
:10156000F8BDC04678F10200FFFFFF3F70B50025CF
:10157000040085601021C06815F08DF9042329004E
:10158000E0606360102211F091FD014870BDC0461B
:1015900078F1020030B50C0085B0104B02AD04317B
:1015A0000093013802230195FEF75CFD23680C4C83
:1015B000996801290FD9D8680A4B029AC91889007D
:1015C0004118A24200D100222D79074B002D00D1F5
:1015D000064B19F083FA200005B030BDF02B030054
:1015E00078F10200FFFFFF3F8C270300482703002C
:1015F000F8B50C680B00A1680200002905D11A4952
:101600001A4815F022FD01F0ACF92068012A01D03A
:101610005A6801E0012252420023EFF7E9FEE36835
:1016200086009F19A3683D68013B1A1AA360E3680E
:10163000311D59189200380011F0ECFC0021A3680C
:10164000E0689A001150616804290BD95B00994247
:1016500008D949088900E06815F01DF96368E06061
:101660005B0863602800F8BDD6DE030008F80200BE
:1016700007B5009001910220694619F08FFA69467A
:1016800001900220FFF7B4FF00480EBD78F1020080
:1016900070B50E000D490500002416F0C0F8B368BF
:1016A0009C420ED2002C03D00949280016F0B7F84E
:1016B000F168A300012259582800EFF7F1FC01342A
:1016C000EDE72800034916F0AAF870BD78DD0300A5
:1016D000215E03001D68030070B5032604000D00A1
:1016E0000E4028D1174B0A689A4224D183688A6831
:1016F00099184368994210D904318900C06815F0DF
:10170000CAF8AA68A368E0609B181A1D9B00626073
:10171000C0181022310011F0C9FCA368E9689800D4
:10172000E3681818AB689A0011F036FCAB68A26841
:10173000D318A36003E02900200019F038FA02480A
:1017400070BDC046382B030078F1020010B50400CC
:10175000102015F08AF8044B84600360034B43604B
:101760000023C36010BDC046A8E90200BFAA020062
:101770000B4B70B5050003600C000800042900D273
:1017800004206860AC60800015F06FF86A68E8605B
:10179000121BA40092000019002111F087FC70BDFB
:1017A000382B03007FB50D00160012282AD004D86C
:1017B000052807D007282BD057E00300193B042B3E
:1017C00041D952E00322002332409A424ED1130005
:1017D000284932688A4249D1AB68B268981819F032
:1017E000FEF90400AB68E9689A00C06811F0D4FB08
:1017F000A868E36880001818B368F1689A0011F0CF
:10180000CBFB1EE011002800FFF766FF2B002DE048
:1018100003A91000EFF752FD0023984226D0039A47
:101820009A4200DA0393AB680398584319F0D7F94A
:10183000C36804000093AA68039B0421E86815F0BC
:10184000B7FA230012E093070DD10A4B12689A42AF
:1018500009D1B36800938A68F368C968F3F7D2FACC
:10186000054B002802D1054B00E00023180004B00E
:1018700070BDC046382B0300482703008C270300A7
:10188000F0B5040087B017000326002A1BD10E40D4
:1018900012D1544B0A689A420ED103AA8068F3F71A
:1018A00077FA0499039BA268E0685D1A521A8900CE
:1018B000920041189B007CE00491022003A903944C
:1018C000FFF796FE8AE0042A2CD1314220D1454B05
:1018D0000A689A421CD103AA8068F3F759FA0028D3
:1018E00005D103AAE168A06815F075FA77E0039BBB
:1018F0000498C01A19F073F905008368E1689A002A
:10190000039BC0689B00C91811F046FB280066E0E5
:1019100000230A002068A168EFF76AFDE3688000F1
:10192000C0585CE00E4055D12E4B0A689A4251D106
:1019300003AA8068F3F72CFABA680398049B151879
:101940000193ED1A002D22DDA368E918636899421E
:1019500007D98900E06814F09EFFA368E0605B1976
:101960006360039BA268E668E818D21A99008000B9
:1019700071189200301811F04DFB039BF968980024
:10198000E3681818BB689A0011F006FB1EE0E368D4
:101990008000F9681818920011F0FEFA0499B868EE
:1019A000A268039FE368521A3818890092005918F8
:1019B0008000181811F02EFBA368AA00E818E3684D
:1019C000800052421818310011F070FBA3685D19B5
:1019D000A56003E03A00200019F042F9024807B080
:1019E000F0BDC04634EE020078F102000023F0B5ED
:1019F0004F4C860023706370A370E3702371A023A3
:101A0000E027DB05F6180323FF00F351023B834078
:101A1000A02585B00193019A464BED050290EA504E
:101A2000122008F097FBA123019ADB00EA5028203E
:101A30000138C046C046C046C046C046C046C04643
:101A4000C046C046C046C046C046F1D10C23A221C4
:101A5000F351394B0394C9006A580198024202D1EC
:101A6000013B002BF8D1A024A2200121324BE40538
:101A7000C0002258029DEA400A4202D0013B002BDE
:101A8000F7D1A121002209202C4BC9005A5008315E
:101A9000585080210224F830C902FF3019502848DC
:101AA00001271A5027481C50C120A2248000E400BE
:101AB0001950A44610000721234CA0256646ED05C9
:101AC000AD59019E354201D1013CF6D2002A00D128
:101AD0001F6000251D4EDF60B564A0256646ED053C
:101AE000AD59029EF5403D4204D0651E002C01D048
:101AF0002C00F2E7154CA46C012C05D18C40039D01
:101B00002D5C2C43039D2C54002903D10130C0B21D
:101B1000073101E00139C9B20132282ACCD1FA20BB
:101B2000273A5A60800008F015FB05B0F0BDC046AA
:101B3000100A00200C050000112700000090004052
:101B4000040500004405000010270000FC90004040
:101B500013B50400EFF774FB012810D02000EFF755
:101B60006FFB02280DD02000EFF76AFB164C1028FF
:101B700008D01649164815F068FA00F0F2FE154C28
:101B800000E0154C2000EFF7D5FF144988420AD039
:101B90002000F0F711F8A02204216379D205C133A7
:101BA000FF339B0099506079FFF720FF0C4CA07821
:101BB00014F039F80090207814F035F86946019057
:101BC0000220F1F7F3FF16BD6C460300EADE0300C6
:101BD0009CFB0200A04603002C440300D0F002004E
:101BE000100A0020F0B587B00092027805000E00C0
:101BF000930703D5009B002B00D0ECE0D307DB0F4D
