:020000040000FA
:10000000004000203D640100796401007B64010030
:1000100000000000000000000000000000000000E0
:100020000000000000000000000000007D640100EE
:1000300000000000000000007F64010081640100F6
:10004000836401005D410100A9680100836401002F
:100050008364010000000000A19E01008364010090
:10006000814F000083640100A5A0010083640100AA
:1000700083640100836401008364010083640100E0
:1000800083640100056E0100836401008364010044
:1000900083640100B59D0100BD9C0100C9500000B2
:1000A000D95000008364010000000000000000003F
:1000B0000000000000000000000000000000000040
:1000C000054B0648033310B51B1A062B03D9044B06
:1000D000002B00D0984710BD080100200801002027
:1000E000000000000648074910B5091A8910CB0F17
:1000F0005918491003D0044B002B00D0984710BD6D
:1001000008010020080100200000000010B5074C85
:100110002378002B09D1FFF7D3FF054B002B02D02A
:10012000044800E000BF0123237010BD0801002037
:1001300000000000D0E50300094B10B5002B03D0F0
:100140000849094800E000BF08480368002B02D1B5
:10015000FFF7C8FF10BD064B002BF9D09847F7E713
:10016000000000000C010020D0E503000801002081
:1001700000000000144B002B00D1124B9D46402282
:1001800092029A1A924600218B460F461148124A53
:10019000121A22F0DFFD0D4B002B00D098470C4BBC
:1001A000002B00D098470020002104000D000B48D0
:1001B00021F054FF22F030FC200029002BF06AFDD2
:1001C00021F076FF00000800004000200000000041
:1001D0000000000008010020FC0900207D2602002C
:1001E000C4600561466187614146C161494601625B
:1001F00051464162594681626946C16271468160D9
:10020000124B1A6802601860002070470F4B1A6882
:1002100012681A6070470D4B1A68002A01D128F045
:100220005BFD506010681860D4681569566997695D
:10023000D1698846116A8946516A8A46916A8B4615
:10024000D16A8D4691688E4601207047AC08002027
:10025000F0B5456887B00393AB6805A81700029115
:10026000059326F061FD060005A826F05DFD032339
:10027000584333000933C018800027F0D9F904002F
:10028000094BAA6803606B6829004360059B0662FE
:100290009B1AC360039B08300093029A3B0002F054
:1002A00049FD200007B0F0BDE8E4020070B505008C
:1002B00088680C0028F017FC23000200024928007F
:1002C00025F0B9FB70BDC0464458030010B5024884
:1002D00027F076FAFFF79FFF9CF1020010B50400AB
:1002E000082027F0A5F9024B4460036010BDC0460A
:1002F000A0E40200F8B50400C0681D00002801D188
:1003000018602EE0200063692030834208D1154B2D
:10031000994206D01449154827F05FFAFFF77BFF92
:1003200019602000124E636811000830776873600E
:1003300005F07CF87760012806D00023E3600228EE
:1003400009D063691B680BE063691B682B60002B95
:1003500007D1E36005E0236A07339B00E418636874
:100360002B60F8BD8825030062580300E0F302000B
:10037000A408002013B501AB1400FFF7BBFF012850
:100380000DD0184C02281CD0019BA34228D0002B72
:1003900026D001AA0121144827F00CFA0DE0002C08
:1003A0000DD0200004F0C8FA104910F0A1F900287F
:1003B00005D00F490F4827F010FAFFF72CFF0198DE
:1003C0000FE0019804F0B8FA074910F091F90028FD
:1003D00001D10198F1E7019803F0D0FCA042F8D1D7
:1003E000002016BD882503009CF1020094F4020051
:1003F000985803002CEF020010B50C00022801D120
:10040000486800E0886808F06BFB05490200206836
:10041000FFF7B0FF002801D1FFF758FF10BDC0461D
:100420008825030010B500220149FFF7A3FF10BD86
:100430008825030013B5124C01AB124A2100FFF7C7
:1004400059FF012802D0022805D017E00E490F48B5
:1004500027F0C3F910E0019804F06EFA0C4910F08F
:1004600047F900280AD1019804F066FA094910F00A
:100470003FF9002802D10198FFF7CDFE200016BDFC
:1004800088250300ACEF0200985803002CEF02000F
:1004900094F402009CF1020073B501A90DF036FE40
:1004A000019B06001849502B1AD88020400027F0E5
:1004B000BFF8164C0500231DD8670023019A93420C
:1004C00003D0F15CE9540133F9E75B222800EA54D8
:1004D0000FF048F82B00002807D104340C49E067DE
:1004E0000C4827F07AF9FFF796FE5A1B0133591E84
:1004F00009789B29F9D12900074829F00FF8002332
:100500000434E36776BDC046B8580300A408002051
:10051000C7580300F0EE02009CED0200F0B58BB06E
:100520000600080011001A0010AB1F78344B05AD0F
:1005300001950093052304F003F89120000127F0B2
:1005400077F8304B304AD867059B476043702B796A
:1005500004A903702B7A040083702B7BC3702B7C5F
:10056000300013600DF0D2FD0025284B07000C2051
:100570001D6027F05DF8264B0600036013F0D4F9E8
:10058000B06013F0D1F9234B234A1860234B7060FD
:100590001D70234B11001D70224B30001D602B007D
:1005A00013F098F839002000049A29F021FC20006B
:1005B00011F052FA1C4B071E0393134E194D164CA3
:1005C0000AD112F095FF0F4B1848DF67184B1968D6
:1005D00027F003F9FFF71FFE0122164B1A7013F0E4
:1005E0009DF90028FBD1039B0433D8673368002BA7
:1005F00003D02968104823F0E7F920000BB0F0BDC4
:10060000ECE50200A8080020340100202C010020A5
:100610007CE502002801002088250300F307002064
:10062000F407002030010020A4080020F0EE0200B2
:1006300010000020F2070020DE58030000220D49C0
:1006400010B50B78DBB2934212D10B4A1478002C10
:1006500002D001240C701370084B1B78002B06D0BD
:10066000074A136820331360064B1A6800E082685B
:10067000100010BDF4070020F2070020F30700204F
:100680002C01002028010020D2235B005843144B8A
:1006900070B51A68000C904206D2124C22680132E2
:1006A00022601A68203A1A601F22040001260E4DAB
:1006B00094431A68944201D92E70FAE71F2303402D
:1006C0001A1D202A00D92022084C2468934203D204
:1006D000E51829710133F9E7054B186070BDC04674
:1006E0002C01002030010020F30700202801002009
:1006F00024010020F0B587B0039205910D9A03996B
:100700000500541A0CAA127820211000884305D045
:10071000302A05D00CAA0292012204E0224A00E00D
:10072000224A02921022019280221A4005D0E30F41
:100730001B195B10E71A1C0003E001210B4012D1CA
:100740001F00002C12DD2600019B0493B34200DD44
:1007500004966B68049A029928689847049BF61AD5
:10076000002EF1DC03E02700140000E00024039BCE
:10077000002B06D01A0005996B6828689847039BE0
:10078000E418002F0CDDE419019EBE4200DD3E009E
:100790003200029928686B689847BF1B002FF3DC72
:1007A000200007B0F0BDC04610590300FF580300F9
:1007B000F0B593B0069318AB40CB04901B780F00B4
:1007C00014000793CB070BD48B0703D1814B0A6826
:1007D0009A4205D0380004F099F9012740000743F8
:1007E00081231E4209D1079B302B06D11A9B1B9AED
:1007F000934200DA1A9200231B93380027F0D8FBAB
:100800000AAA130000280DDDB30703D52B231370AC
:10081000123B05E01300720704D520221A70192339
:1008200004AA9B18F20619D5022C04D130221A70A2
:10083000069A013210E0082C08D130221A70B20555
:1008400001D401330AE0069A0E3205E0102C05D1DE
:1008500030221A70069A17325A70023300220AA9FF
:100860001A705B1A0593B30600D52C320EAB0B93AE
:1008700010230C9300231B990D93012901DD4021C6
:100880000E4304A9CB756B4640251B7E3540039271
:10089000029313D00023009401930DAA3B000CA9EE
:1008A0000BA804F0BDFC037807002D2B79D104AA16
:1008B000D3750D9B0137013B0D9372E00AAB019399
:1008C00000943B000DAA0CA90BA804F0A9FC1B9BEB
:1008D0000700012B78DD0D9A934200DA13001A9A73
:1008E0009A4206DD0125D41A354004D025000024A3
:1008F00001E000252C0001239E43002C09D01F336A
:100900000093002301941A0033490498FFF7F2FE84
:10091000040030230793730621D5172104ABC918AF
:100920000B78002B0AD00023012200930192049837
:10093000FFF7E0FE1A9B2418013B1A93059B002B3E
:100940000DD0012301930023059A00930AA904986E
:10095000FFF7D0FE1A9B059A24189B1A1A931B9B2B
:10096000012B00DD1A931A9B0D9A0193079B390006
:10097000009304983300FFF7BDFE2418002D09D022
:1009800020230093002301951A0013490498FFF7D0
:10099000B1FE24180B980EAB984217D026F06FFECC
:1009A00014E01B9B012B0EDD0D9A1B9B934200DA7A
:1009B0001300172204A952181278511E8A419B185D
:1009C000059A9B188BE700252C00A4E7200013B0A4
:1009D000F0BDC046F0F6020005BE0300F0B506000B
:1009E000140000278DB00D002B78002B0BD1A942ED
:1009F0000DD26B1A04931A00306873689847049BF1
:100A00002900FF1803E0252BF1D00135ECE70B7826
:100A1000002B00D144E14B1C049320230025082225
:100A200004210893049B1B78002B1DD02D2B01D192
:100A30002C3B02E02B2B02D1293B1D4310E0202B45
:100A400001D10D430CE0212B01D1154308E0302BDF
:100A500003D000230A21069309E0402008930543B0
:100A6000049B01330493DDE70693013B3BE0049BC9
:100A70001B781A00303A092A08D8069A4A43D31834
:100A8000303B0693049B01330493F0E72E2B25D1D2
:100A9000049B5B782A2B06D0049B0A210133049324
:100AA0000023079308E0049B226802330493079213
:100AB000231D002A15DB0FE0049B1B781A00303A37
:100AC000092A08D8079A4A43D318303B0793049B56
:100AD00001330493F0E723001C0005E001235B428F
:100AE00001E01C0000230793049B1B786C3B5942D8
:100AF0005941049B5B1804931B780593002B00D18C
:100B0000CEE0642B00D18DE01AD8502B00D195E0B7
:100B100004D8453B022B00D8A0E0B6E0059B622B31
:100B200021D039D8582B00D0AFE0231D0993069B64
:100B300001950393089B029341230093313B87E087
:100B4000059B712B34D005D8672B00D886E0702B1D
:100B500074D09AE0059B752B59D0782B6ED0732BEF
:100B600000D092E037E0231D09932368002B07D0C3
:100B7000069B04220193089B4B4900932B0006E03F
:100B8000069B05220193089B484900932B003000E7
:100B9000FFF7B0FD3F187FE0231D099323680BA9E1
:100BA0000B70069B01220193089B00932B00EEE73C
:100BB000231D0BA92068099327F09FFB079B0100C9
:100BC000013301D10B9B0793069B079A0193089B66
:100BD00000932B00DBE7231D24680993002C0ED023
:100BE000079B013303D1200023F090FB0790069B65
:100BF000079A0193089B210000932B00C7E7069BEF
:100C000006220193089B2A4900932B00BFE7231D6E
:100C10000993069B01950393089B0293612300931C
:100C2000573B15E0231D0993069B01950393089BF1
:100C30000122029361230093573B0AE0231D09938D
:100C4000069B01950393089B029361230093513BFC
:100C500000222168300024F02CFE9BE70723073494
:100C60009C43230020686168083309931CF006FA4E
:100C7000079B011C0293069B059A0193089B300079
:100C800000932B0024F08AFE84E701220499306847
:100C900073689847013709940499099C0131A2E6C9
:100CA00038000DB0F0BDC046ED580300F258030007
:100CB000F858030010B54379012B03D1C06A26F020
:100CC000C3FD05E00B00C26A0249006B26F0F8FD87
:100CD00010BDC04650EA020010B54379012B03D184
:100CE000C06A26F0D1FD05E00B00C26A0249006B24
:100CF00026F0E6FD10BDC04640EA020010B543797B
:100D0000012B03D1C06A26F0BFFD05E00B00C26ACB
:100D10000249006B26F0D4FD10BDC04660EA020017
:100D200010B5024B3F2224F016FF10BD47650200AC
:100D300010B5024B912224F00EFF10BDA11E000041
:100D4000F7B50F0011001A00C38AC579868A01938E
:100D500000230400C3718382C382104B24F0FBFE86
:100D6000A368002B18D1E18A002908D0A38A002BA0
:100D700005D1206B26F036FB206B26F0C6F9A38A3E
:100D8000E28A3900200024F095FE6B1E9D416B46DF
:100D90009B88E571A682E382F7BDC046AD1A0000CC
:100DA000836870B504000D00002B09D111000548BF
:100DB00026F013FDA060200029000C3024F031FF44
:100DC00070BDC04658F40200F0B58DB06B4601927C
:100DD0001B79040043710123E16203610B780D006C
:100DE000012B02D0954A002144E0019B012B07D939
:100DF000836B0A001E68030001990833406BB047FB
:100E0000AB681800049328F04BFE63790490032B21
:100E10000FD109900C2109A828F05BFEA36B0200FA
:100E20009B680999606B9847A3686883002B00D082
:100E3000FDE0049828F034FE04900378002B24D0C1
:100E40000A3B0F2B1CD809A924F008FE099B772B1D
:100E500014D004D803220292312B18D008E0812B41
:100E600004D002220292992B11D001E001230DE05F
:100E7000734A04992000FFF793FFDDE0002305E0AB
:100E80000100704A2000FFF78BFF022302930498B1
:100E900028F006FE5A21049004A828F01AFE049DAA
:100EA0000390039B9D4200D1B6E004952B78432B21
:100EB00000D1ACE0392B01D0634ADAE705A928005C
:100EC00028F0F8FD03780600912BF5D128F0E8FD15
:100ED000059B9842F0D105A9300028F0EBFD03787E
:100EE00007000A3B0F2BE7D828F0DAFD059B060028
:100EF0009842E1D00378A02BDED128F0D1FD059BEC
:100F00009842D9D106A9380024F0A8FD300028F075
:100F1000CCFD9C21079007A828F0DBFD0100079875
:100F200028F0B2FD069B06002E2B1BD1012804D110
:100F3000079803780A3B0F2B01D9444A99E72669A1
:100F4000731C2361019B012B5ED909A924F086FD46
:100F5000A36B099ADB683100606B9847002853D176
:100F60003B4A86E72F2B13D1012803D1079803783A
:100F7000032B01D0374A7CE7019B012B44D9A36B9B
:100F8000676B1E6928F06CFD01003800B0473BE03C
:100F9000302B23D1012803D907980378032B01D0E4
:100FA0002D4A66E7019B012B2ED908A928F049FD9F
:100FB0000127079007980378032B01D0274A58E7A9
:100FC00009A928F03EFDA36B07905B69099A08996F
:100FD000606B01379847BE42ECD115E0019B012BB5
:100FE00012D9032800D967E7079B1800099328F056
:100FF00057FD0A9028F054FDA36B0B909F693200B7
:1010000009AB0699606BB847A368002B0FD1280085
:1010100028F046FD050044E76379012B04D9A36B52
:1010200002995B68606B9847A368002B04D020008E
:1010300004990C3024F0F5FD0DB0F0BD2C590300DF
:10104000505903005D59030085590300A859030056
:10105000C4590300D4590300F0590300155A030082
:1010600010B5024AFFF79CFE10BDC046375A030078
:1010700030B50B7885B005000C00002B01D1013490
:101080007CE0032B09D103A9200028F0DAFC0399A6
:101090000400286B25F0DCFF70E0012B07D14978B4
:1010A000023405296AD0006B02F0D6F866E0042B02
:1010B00007D14B788978006B0902194326F00DF8A7
:1010C00016E0052B19D14379042B02D02D49006B72
:1010D0000CE088784B780002184303A927F00DF93B
:1010E00003992D6B0CF07AFB0100280026F001F823
:1010F000200028F0D5FC040040E01A000A3A0F2A2C
:1011000009D803A9200024F0A9FC039904002800B1
:10111000FFF7D0FD32E0082B0CD103A9200028F006
:1011200086FC039B2A6A9B0004009958286B25F0D3
:10113000E0FF23E003AB02AA01A9200028F0E1FCB4
:1011400002990400286B02F03DF8019B0E4A9B00B7
:101150009B58002B05D10D4A21002800FFF720FEE7
:101160000BE0039A210028009847AB68002B04D0BD
:10117000EB68002B01D1029BEB60039C200005B0C3
:1011800030BDC0468825030058E60200545A0300CB
:10119000F0B517000A0087B00493531E9A410E0061
:1011A000050004993800059228F06EFC341E019069
:1011B00009D033780024842B05D102002100286B4C
:1011C00026F08EF93400019B0097013B0393059BA9
:1011D0000293009B049A93421DD0009B1B78842BA2
:1011E0000ED1002C06D1039A0299286B26F078F9CB
:1011F000009C05E0204A00992800FFF7D1FD39E066
:10120000009828F04DFC029B009001330293039B51
:10121000013B0393DDE7002C07D1019A059B94461F
:1012200063441900286B26F04FF9002E1BD0B442FE
:1012300005D1200028F039FC0022010001E0002245
:101240003100280000F01AF80DE0BC420FD1200058
:1012500028F02BFC00220100280000F00FF83800D5
:1012600028F01EFC0700049B9F42EED102E0002202
:101270003900F1E707B0F0BD6C5A0300F0B50B7808
:1012800017001A000A3A85B004000D000F2A0FD883
:1012900003A9280024F0E2FB03992000002F01D0CD
:1012A000022F02D1FFF718FDD9E0FFF703FDD6E0CA
:1012B0006C4A192B00D8CEE01A3B7C2B00D182E07F
:1012C00004DC252B76D0772B06D0C3E07E2B00D113
:1012D00087E0912B6ED0BDE002A9280028F0EAFB40
:1012E0000600022F03D001002000FFF7C1FE3000EE
:1012F00028F0D6FB0299060024F0A8FB002800D0B5
:10130000A8E03378922B14D1300003A928F0D2FB47
:101310000600300028F0C4FB039A0190904208D2E6
:10132000022F01D1019EF4E731002000FFF7A0FE5B
:10133000F8E73378A12B19D1022F04D1206B25F0C7
:1013400069FF206B0FE0300028F0AFFB01002000A8
:10135000FFF78EFE206B012F05D125F02FFF206BAC
:1013600025F0FFFE1DE025F014FF1AE0A22B71D13D
:10137000300028F09AFB03A924F070FB012F07D15D
:10138000206B25F011FF0399206B25F0C8FE08E0C3
:10139000022F02D1206B25F026FF0399206B25F048
:1013A000EBFE300028F07CFB029924F04FFB002874
:1013B00055D14FE0002F4BD103A9280028F07AFB2C
:1013C000039B02001BE003A9280028F073FB03998C
:1013D000060024F03BFB00283CD1002F38D135001B
:1013E00015E0002F34D103A9280028F063FB0399EE
:1013F000050024F02BFB021E03D03B003A0039000D
:1014000022E02B789A2B02D0030029001CE003A9CC
:10141000280028F04FFB060028F042FB03789D2BA4
:1014200002D100231A0006E09E2B06D103A928F062
:1014300041FB0200039B310006E0BE2B0AD028F0DE
:101440002FFB3200030000212000FFF7A1FE06E081
:10145000054A00E0054A29002000FFF7A1FC05B07D
:10146000F0BDC046865A0300B95A03009E5A0300D5
:10147000F0B50B788FB00A3B0400019103920F2B5B
:1014800000D9E4E0080028F00BFB0378912B00D092
:10149000DDE0019828F004FB0BA928F00BFB037892
:1014A00042780A3B1B021343AD2B00D0CFE028F05B
:1014B000F7FA03780500A02B00D0C8E028F035FB30
:1014C000002800D0C3E0280028F0EAFA0B9B9842DD
:1014D00000D0BCE0280028F0E8FA9C210C900CA871
:1014E00028F0F7FA01230C9E070030000D9328F036
:1014F000D7FA05000C90874210D028F0D1FA0C9052
:1015000087420DD00378032B00D0A0E00DA928F06E
:1015100098FA0C90874200D099E001E03500764EB1
:1015200033784833DBB2022B00D890E02B78483375
:10153000DBB2022B00D88AE00B9B1800049328F042
:10154000AFFA039A0290904201D1002302930D9BBF
:1015500027690593238B27830693638B0793E38B7C
:1015600008937B1C0393BB1C09936B469B89638385
:10157000A38BE3833B1D23612B780393032B03D0C1
:1015800029002000FFF774FD31002000FFF770FDF7
:10159000F91C206B25F053FEB91C206B25F024FDAF
:1015A000206B25F001FE002201992000FFF766FE66
:1015B00004992000FFF75CFD791C206B25F014FDD9
:1015C0000599206B25F044FD1221206B25F0E8FEE3
:1015D000206BF91C25F008FD039B206B032B05D025
:1015E00025F0ECFD206B25F0FEFD05E025F0DCFD8F
:1015F00029002000FFF73CFD059B1921002B00DA94
:101600001A21206B25F0CCFEBA1C0121206B25F09D
:1016100022FE6B461B8B23836B469B8B63836B463F
:101620001B8CE383029B002B03D019002000FFF7E3
:101630001FFD3900206B25F0D7FC206B25F0C8FD7D
:10164000039B032B56D0206B25F0C2FD52E0238B69
:1016500025690293638B6F1C0493E38B6783059367
:10166000AB1C0693A38B0198E383244B2B4323836A
:10167000EB1C236128F014FA01002000FFF7F8FCAE
:101680000600206B25F038FE3900206B25F0ACFCFD
:10169000A91C206B25F03AFE002201992000FFF7DB
:1016A000EDFD31002000FFF7E3FC0600206B25F084
:1016B00092FC002803D13900206B25F0C0FDA91C45
:1016C000206B25F091FC206B25F02CFE6B461B89CE
:1016D00023836B461B8A63836B469B8AE383039B4E
:1016E000B34203D031002000FFF7C2FC2900206B79
:1016F00025F07AFC0FB0F0BD3FC303000080FFFF70
:10170000F0B5170085B0040008000D0028F0C8F9F6
:101710003900060024F09AF9019000281DD02379A1
:10172000002B12D0E36A1E78002E0ED12000132168
:10173000FFF7C0FA29002000FFF79AFC33003200BF
:101740000121206B25F00BFF03E029002000FFF7AB
:101750008FFC206B25F03CFD56E033783B2B19D1F4
:10176000290001222000FFF789FD300028F09DF9B3
:101770004378811C4E3BDBB218260A2B01D8234A42
:10178000D65C2000FFF774FC3100206B25F008FECA
:10179000022235E03C2B2ED1300003A928F08AF933
:1017A00006000700039B9F4205D0380028F078F917
:1017B00001970700F6E701992000FFF759FC206B1D
:1017C00025F0F2FC002229002000FFF757FD019BC5
:1017D000B34219D0300028F063F9019B0500834221
:1017E00002D0206B25F0E0FC310000222000FFF742
:1017F00045FD2E00EBE731002000FFF739FC019A90
:1018000029002000FFF73AFD05B0F0BD2159030083
:10181000F0B589B004000D1E05910492009322D109
:101820008379002B25D0C36A02911E78012E21D125
:101830000521FFF73FFAE26A118D8D4210DAD06A76
:10184000EB00C3185878304208D05A880121206B29
:1018500025F03FFB002302211A0099E00135ECE757
:101860004E4A002121E09C2105A828F032F902907F
:1018700000E002930027059D03973E00019709E0D1
:10188000012328001E4328F010F90390280028F0B7
:1018900007F90500029BAB4256D02B78B82B08D134
:1018A000B73B1E42ECD03E4A29002000FFF778FAF1
:1018B00071E0B92B0BD1B73B1E4201D0394AF3E797
:1018C000022328001E4328F0F0F80700DEE7BA2BB9
:1018D0002CD1280028F0E9F8050028F0E1F8037879
:1018E000BE2B0BD120000622290024F0D7F9009B43
:1018F00028000133009328F0D3F8C8E72B780A3B7F
:101900000F2B01D9284ACFE707A9280024F0A6F811
:1019100005000799206B25F0E0FB29002000FFF768
:10192000A7FB019B050001330193B3E7019B002B4B
:1019300001D01E4AB8E729002000FFF799FB009B61
:10194000050001330093A5E7002E14D0039B002B64
:1019500003D1206B25F0D9FB03E003992000FFF7AA
:1019600087FB002F03D1206B25F0CFFB03E039006C
:101970002000FFF77DFB049B002B06D03300019A6B
:101980000099206B25F0F4FD05E03300019A0099E1
:10199000206B25F0E4FD09B0F0BDC046E55A030018
:1019A000035B03001A5B0300325B0300535B03001D
:1019B000F0B589B00400039103A8072128F089F845
:1019C0000027E36A01905E7E0398019B83424AD020
:1019D00005A928F06FF84021039003A828F079F8B2
:1019E00006A90500039824F039F8069B02902A2BDB
:1019F00019D185420DD9029828F052F8854208D1B4
:101A000007A9029824F02AF8079B2B2B07D02D2B2F
:101A100007D0254A00212000FFF7C2F920E0012667
:101A20001EE004261CE003992000FFF721FB01378C
:101A300003900398854208D007A924F00FF807996E
:101A40000390206B25F06BFBF3E70599280023F04A
:101A5000FDFF002804D1A07129002000FFF708FB3A
:101A6000059B0393B0E7180028F01FF8019B039033
:101A70001B78010032002000242B02D124F0A5F8AD
:101A800001E024F019FB0500013F06D300230121EA
:101A90001A00206B25F063FDF6E729002000FFF710
:101AA0001BF909B0F0BDC046755B0300F7B50A78B5
:101AB0000E0013000821293B8B43DBB20400002BEE
:101AC00002D10133C37163E013002A3B8B43DBB2C5
:101AD000002B5DD013000A3B0F2B1AD9282A10D1F6
:101AE00001A9300027F0E6FF070027F0D9FF019B8E
:101AF00098420FD027F0D4FF019B050098420AD1ED
:101B000008E0300027F0D1FF070027F0C9FF0500EB
:101B100001E03700002501A9380023F09FFFE37999
:101B2000002D02D02A78002A0AD1002B30D1E38A76
:101B3000002B2DD0174A31002000FFF731F927E0A4
:101B4000002B1ED0A38A01339BB2A382012B0CD1A0
:101B5000E18A206B002902D025F044FC01E025F049
:101B6000D4FA0021206B25F064FC29002000FFF747
:101B70007FFA206B019925F0B0FA206B25F065FC07
:101B800006E0E38A29000133E3822000FFF770FAC0
:101B9000F7BDC046935B0300F0B504000E00056975
:101BA00087B002936B1C0393AB1C03612900006B8D
:101BB000170025F07EFB200023F058FF31002000A5
:101BC000FFF756FA206B25F0B3FB691C206B25F05C
:101BD00036FB2900206B25F007FA206B25F00CFD61
:101BE0002669731C2361029B9F4200D191E038005B
:101BF00027F05BFF00230593236905000193013360
:101C000023610378002B0FD127F04AFF27F048FF0C
:101C1000029B834223D04C4A29002000FFF7C0F8E2
:101C2000A38B013BA3838CE007006A2B07D127F02D
:101C30003CFF070027F034FF05A923F00FFF206BBE
:101C400025F0B2FA39002000FFF712FA2121206BAB
:101C500025F0A6FB019A0021206B25F0FCFA280054
:101C600027F01EFF0700206B25F0B2FA0599002926
:101C700003D1206B25F0ACFA02E02000FFF72CF82E
:101C80000025206B25F0A4FA059BAB4209D02569FD
:101C9000206B6B1C2361290025F017FB200023F02B
:101CA000E5FE39002000FFF7E3F9059B0700002B54
:101CB00002D0206B25F03CFB206B25F05AFB059BE6
:101CC000002B19D00F21206B01F0C6FA2900206BE0
:101CD00025F08AF90F21206B01F0BEFA059920004A
:101CE000FEF7FAFF20000599FFF708F8A38B206B99
:101CF000013BA38325F0F5FA3100206B25F09FFA14
:101D00000199206B25F070F90321206B25F068F90B
:101D100069E7A38B206B013BA38325F0E2FA206BDC
:101D200025F06EFC0399206B25F05EF90C9B002BCF
:101D300003D019002000FFF79BF93100206B25F03C
:101D400053F907B0F0BDC046C15B0300F0B587B0E2
:101D5000039143790400012B3ED1C36A1B78002B09
:101D600003D11E4AFFF71CF836E0039B432103A86A
:101D7000019327F0AEFE02900398029B83422BD082
:101D800005A90B2723F06AFE02AB059DFF180390FF
:101D90003A002900E06A26F026FF3B780600002B77
:101DA00003D103780E4A042B0AD12900E06A26F0F9
:101DB00047FF002803D00378023B022B05D9094ACC
:101DC00001992000FEF7ECFFD6E7042333702900C9
:101DD000E06A26F048FFCFE707B0F0BDE05B030004
:101DE000055C0300265C0300F0B587B003914479DD
:101DF0000500012C2BD1019103A8432127F069FE96
:101E000002900398029B834221D005A90B2723F05F
:101E100025FE02AB059EFF1803903A003100E86AE8
:101E200026F0E1FE3B78002B08D10378012B05D08A
:101E3000084A01992800FEF7B3FFE2E70470310079
:101E4000E86A26F0F4FE0028DBD00470D9E707B07A
:101E5000F0BDC046445C030010B5438B0400002B6A
:101E600002D1054AFEF79CFFA38BE28B618B9A1A85
:101E7000206B01F00FFA10BD635C030010B5038BFB
:101E80000400002B02D1054AFEF78AFFA38BE28BE8
:101E9000218B9A1A206B01F0FDF910BD7B5C0300C9
:101EA000F7B50B7804001A000A3A0E000F2A08D87A
:101EB00001A9300023F0D2FD01992000FEF71EFF9A
:101EC00076E0912B3FD16946300027F0F3FD010009
:101ED0002000FFF7CDF803780500922B10D101A95F
:101EE00027F0E8FD0500280027F0DAFD019B070038
:101EF000984205D029002000FFF7BAF83D00F2E72C
:101F00002B78A12B0BD1280027F0CFFD010020005A
:101F1000FFF7AEF80500206B25F086F90CE0A22B48
:101F200041D1280027F0C1FD01A923F097FD0199B7
:101F30000500206B25F061F90099280023F086FD4B
:101F4000002830D034E0962B2DD1080027F0EDFD8D
:101F5000002828D1300027F0A8FD060027F0A5FDB5
:101F6000050001002000FFF79BFF280027F098FDE7
:101F700003789D2B1CD09E2B0ED101A927F09AFD32
:101F8000019B0500984213D020002900FFF788FF2D
:101F9000280027F085FDF3E7BE2B04D001002000C8
:101FA000FFF77EFF04E0034A31002000FEF7F8FE51
:101FB000F7BDC046905C0300F7B502260D00C16A6C
:101FC0000400097E314001D0344A5DE00191297856
:101FD00008000A380F2802D801A9280006E01A32A2
:101FE000914212D1280027F060FD01A923F036FDAF
:101FF000E279E36A002A04D15A8B01325A8301261E
:1020000035E09A8B01329A83F9E71A33994223D14A
:10201000E379002BD8D101272800E77127F085FD4F
:102020000326002823D1280027F03FFD0278E36A29
:102030000A3A0F2A04D81A7E280017431F7605E0B3
:102040001A7E280017431F7627F02FFD27F02DFD5D
:1020500001A923F003FD0AE0280027F026FD01A9CD
:1020600023F0FCFCE26A137E1E43167605260199D6
:10207000002911D06B46DF1C3A00E06A26F0B3FD60
:102080003B78002B05D1064A29002000FEF788FE88
:1020900002E0022346700370F7BDC046A85C03004F
:1020A000B75C030070B5C36A04001B780D00012BF8
:1020B00004D00C4A0021FEF773FE11E01100280045
:1020C00023F0C4FC002804D00F21206B01F0C4F8D9
:1020D00003E029002000FEF7CBFF206B25F052FA29
:1020E00070BDC046D05C030070B5C36A04001B78A5
:1020F0000D00013B012B04D9164A0021FEF750FECA
:1021000026E01100280023F0A1FC002804D00F21B4
:10211000206B01F0A1F818E02B78C22B11D1280018
:1021200027F0C3FC01002000FEF7A2FF206B25F082
:10213000E3F8206B0F2101F08FF8206B25F04CFAAB
:1021400006E029002000FEF793FF206B25F035FA0A
:1021500070BDC046EA5C0300F0B50D0085B0040018
:102160001100280023F072FC002804D00021206B0D
:1021700025F05FF979E02B78AF2B0BD1206B012193
:1021800025F057F929002000FEF772FF206B25F09B
:102190005CF96AE0AE2B60D1280027F086FC0500D0
:1021A00027F07EFC02900378B22B4CD103A927F0D4
:1021B00081FC039B0290984203D0992102A827F04A
:1021C00088FC2B78AF2B11D103990298266B27F04E
:1021D0005BFC411C300025F02CF929002000FEF7A3
:1021E00047FF206B25F031F9012704E0290020008A
:1021F000FEF73EFF0027029E039B9E4219D03378D4
:10220000310020000193FEF733FF019B0600002FF1
:1022100007D0AF2B01D0164A06E0206B25F015F948
:10222000EAE7AF2BE8D1134A29002000FEF7B8FDFA
:102230001BE0002F19D131000298246B27F024FCF9
:10224000411C20000FE02B780422AF2B00D0052288
:102250002900200023F022FD07E029002000FEF7DE
:1022600007FF0121206B25F008F905B0F0BDC0463D
:10227000035D0300265D0300F0B504000D0001239B
:10228000627111000361C56287B02A00006B00F023
:10229000CDFE6379012B02D100236B84AB84AE6841
:1022A00033781E2B07D1300027F0FFFB0100200000
:1022B000FEF7DEFEB9E02B78002B04D131002000C0
:1022C000FEF7D6FEA7E0012B1ED1300027F0E8FB79
:1022D00063790500012B07D100230100E3710C2273
:1022E000564B200023F037FC280027F0D9FB27F0BD
:1022F000D7FB01002000FEF7BBFE206B24F06BFE35
:10230000002800D094E086E0022B18D16379012BDD
:1023100007D100231422E3713100494B200023F040
:102320001AFC300027F0BCFB01002000FEF7A0FEE5
:102330002B7E5B0779D5206B24F04AFF6BE0033BD3
:10234000032B3AD8300027F0ABFB05A927F0B2FBEE
:1023500027F0A6FB67790390012F09D10B2202AB6E
:10236000D2183900E06A26F03EFC022303706F8326
:102370002B78032B04D10021206B25F040F80CE0D2
:10238000042B04D10021206B25F053F805E0052B28
:1023900003D10021206B25F070F801212000FEF709
:1023A00089FC0023059A009303993300200024F050
:1023B00078F92B78062B38D12DE06379012B06D1E3
:1023C00005AA0521280026F00EFC0223037005A9AA
:1023D000A86823F043FB0D212000FEF76BFC0C21C5
:1023E0002000FEF779FC2969206B24F076FE11218C
:1023F0002000FEF771FCA86827F052FB27F050FB85
:1024000001002000FEF734FE0521280026F0DBFB4A
:102410000378022B04D10F21206B00F01DFF04E094
:1024200042880521206B24F054FD206B25F0AAF88A
:10243000206B00F08DFE07B0F0BDC046D3620200F5
:10244000C7620200F0B51E000F0099B009AC002170
:102450000590150020003C2220F07CFC059B09978C
:102460005B6826712362059B186827F019FB27F02B
:10247000F7FA6062800025F0EDF80022059BA0626B
:1024800000951B681100200023F0FAFA24F08DFD5E
:10249000002302902063039300263300626A964271
:1024A00002D3002BF8D12CE0A268002AF9D1A16A4E
:1024B000B2005558002D16D06A69002A13D126F0B3
:1024C000B9FF6B7E6861012229002000042B02D134
:1024D000FEF77AFC01E0FFF7CFFE2369039A9A42E8
:1024E00000D2039301230136D8E70B9A002A00D0CB
:1024F000B4E00499139B8900CB58002B09D1049BAD
:1025000001330493129B0693069A049B9342ECD3E7
:10251000A4E00120197E014224D01C8D601EC00061
:10252000002C1FD00226D96A09184D78354211D0E7
:10253000002A17D050880F008446506816780690FD
:10254000557811CF11C262464A80069A0E704D70BE
:102550004A6007E0002A02D1012D00D10A00013CA7
:102560000838DDE7002200211A841A8D9446914232
:102570001DDAD86ACA0082181878072802D1546870
:10258000052C12D00138052804D81078002801D174
:10259000013010701078022803D0012450782042B6
:1025A00003D0188C441C1C8450800131DDE70021CD
:1025B0008C450FD0D86ACA0082181078032807D13A
:1025C00001245078204203D1188C508000191884BF
:1025D0000131EDE75E68002E91D00024328D079224
:1025E000220007998C421CDAF16AE0000918069172
:1025F000097800250339012911D8AC450FD0DF6ACD
:10260000E90079180F78042F07D106984768380039
:102610004F68B84201D14A8001320135EDE70134FB
:10262000DFE70020002A00D169E784450ED0DC6A8C
:10263000C10061180C78042C03D101254C782C4280
:1026400002D04C88A4184C800130EEE7598B92B22E
:1026500051185983198C52181A8450E7002603998F
:10266000029824F0A7FC3500129B04939E4210D3DD
:102670000B9B0393002B4FD0149B0CA8996823F05D
:10268000D0FA149B0C9A1B6909990B9801F004FC71
:1026900042E00B9B0493002BEAD1139B0493049A12
:1026A000B3009C58002C35D0637E042B19D1002D2B
:1026B00003D1039825F029FB0500002315932D4B2A
:1026C0000322210009A817931695FEF77DFB0B9BAB
:1026D0000493002B1ED10422210009A8FEF774FBED
:1026E00018E0029B0222210009A81593FFF7C4FD00
:1026F0000B9B0493002B04D10322210009A8FFF7B0
:10270000BBFD0B9B0493002B04D10422210009A8DC
:10271000FFF7B2FD0136A7E7029824F053FC002D25
:1027200002D0280025F002FB0024059827F007FAC4
:10273000139B1B685D69129B02939C420AD2139BF8
:102740000293029AA3009858002801D026F032FA8A
:102750000134F0E7139824F092FF0B99002902D07E
:102760000800FDF758FD0A00280026F06EFE19B09B
:10277000F0BDC046ACFA02000F221140030010B5B4
:10278000080003290ED817F0BFFC0204090D180039
:102790000BE00648002B08D1054806E0180025F09C
:1027A0002AFC02E0180025F041FC10BD482A030075
:1027B0008C2A0300002805D0012809D18B685B0012
:1027C000184306E08B680348002B02D1024800E062
:1027D00000207047482A03008C2A030000228168E9
:1027E000F0B5CB0F094C5B185B100E199A420BDA4F
:1027F000C568B11A940089002C196D5827682560A6
:10280000C46801326750F1E70148F0BDFFFFFF3FA8
:102810008825030070B583680D00416804008B4271
:1028200012D3C900C06824F019FF63680A495A002E
:10283000A3686260D21A013352189B00E0609200D4
:10284000C018002120F086FAA368E268591C9B009A
:10285000A16002489D5070BDFFFFFF3F8825030027
:10286000F8B5070016004C10836803D5E418E2435E
:10287000D2171440A34200D21C000C4D380029008E
:10288000FFF7C8FFAC46BB6809495A1E5B189B009E
:102890001D1FF968944204DA4859013AC8502B00C8
:1028A000F6E7A4000E516046F8BDC0468825030037
:1028B000FFFFFF3F70B50025040085601021C06850
:1028C00024F0CCFE04232900E0606360102220F095
:1028D00041FA014870BDC0468825030030B50C00A0
:1028E00085B0104B02AD04310093013802230195ED
:1028F00001F026FE23680C4C996801290FD9D8688D
:102900000A4B029AC91889004118A24200D100223C
:102910002D79074B002D00D1064B24F036F920000D
:1029200005B030BDB8E9020088250300FFFFFF3F76
:102930008C2A0300482A0300F8B50C680B00A16834
:102940000200002905D11A491A4824F046FFFDF774
:1029500062FC2068012A01D05A6801E0012252423B
:10296000002302F0ABF9E36886009F19A3683D6875
:10297000013B1A1AA360E368311D59189200380010
:1029800020F09CF90021A368E0689A00115061686A
:1029900004290BD95B00994208D949088900E068ED
:1029A00024F05CFE6368E0605B0863602800F8BDAB
:1029B000455D03004CF0020007B500900191022034
:1029C000694624F042F9694601900220FFF7B4FFFE
:1029D00000480EBD8825030070B50E000D490500A6
:1029E000002422F057FFB3689C420ED2002C03D083
:1029F0000949280022F04EFFF168A300012259582E
:102A0000280001F0B3FF0134EDE72800034922F06C
:102A100041FF70BD2FAF0300595D0300C38B03005E
:102A200070B5032604000D000E4028D1174B0A682C
:102A30009A4224D183688A6899184368994210D9C8
:102A400004318900C06824F009FEAA68A368E06028
:102A50009B181A1D9B006260C0181022310020F0E4
:102A600079F9A368E9689800E3681818AB689A00D8
:102A700020F0E6F8AB68A268D318A36003E0290051
:102A8000200024F0EBF8024870BDC04600E90200C7
:102A90008825030010B50400102024F0C9FD044B64
:102AA00084600360034B43600023C36010BDC046D5
:102AB000481303006D6B02000B4B70B505000360FB
:102AC0000C000800042900D204206860AC6080007B
:102AD00024F0AEFD6A68E860121BA40092000019A1
:102AE000002120F037F970BD00E902007FB50D002C
:102AF000160012282AD004D8052807D007282BD082
:102B000057E00300193B042B41D952E00322002374
:102B100032409A424ED11300284932688A4249D144
:102B2000AB68B268981824F0B1F80400AB68E968A3
:102B30009A00C06820F084F8A868E368800018183C
:102B4000B368F1689A0020F07BF81EE011002800BD
:102B5000FFF766FF2B002DE003A9100002F014F828
:102B60000023984226D0039A9A4200DA0393AB6876
:102B70000398584324F08AF8C36804000093AA68B5
:102B8000039B0421E86824F0C0FE230012E09307B1
:102B90000DD10A4B12689A4209D1B36800938A6832
:102BA000F368C96801F010FC054B002802D1054B01
:102BB00000E00023180004B070BDC04600E9020028
:102BC000482A03008C2A0300F0B5040087B01700E0
:102BD0000326002A1BD10E4012D1544B0A689A4298
:102BE0000ED103AA806801F0B5FB0499039BA2688B
:102BF000E0685D1A521A8900920041189B007CE03F
:102C00000491022003A90394FFF796FE8AE0042AA8
:102C10002CD1314220D1454B0A689A421CD103AADB
:102C2000806801F097FB002805D103AAE168A0683D
:102C300024F07EFE77E0039B0498C01A24F026F867
:102C400005008368E1689A00039BC0689B00C9186F
:102C50001FF0F6FF280066E000230A002068A16844
:102C600002F02CF8E3688000C0585CE00E4055D1BB
:102C70002E4B0A689A4251D103AA806801F06AFB80
:102C8000BA680398049B15180193ED1A002D22DDF4
:102C9000A368E9186368994207D98900E06824F0BD
:102CA000DDFCA368E0605B196360039BA268E668D3
:102CB000E818D21A990080007118920030181FF09D
:102CC000FDFF039BF9689800E3681818BB689A0039
:102CD0001FF0B6FF1EE0E3688000F9681818920044
:102CE0001FF0AEFF0499B868A268039FE368521A08
:102CF0003818890092005918800018181FF0DEFF5C
:102D0000A368AA00E818E36880005242181831004E
:102D100020F020F8A3685D19A56003E03A002000C8
:102D200023F0F5FF024807B0F0BDC046A82103001C
:102D300088250300F0B5150042688FB094460693CD
:102D40008369CA6803938B68826063445A1C42603B
:102D50001A78040001929A1C4260DA1C5F78426083
:102D60009A78059104921A1D4260DB78934A029387
:102D700003001833C360039B1C309B189B00C218D0
:102D80000C33226100211A0007931FF0E3FF149A0D
:102D9000AB00D3180B93039B049ADB1B08939B1A7D
:102DA00005339B00E3181E1D01220199AF420ED28C
:102DB000114202D12B003A002BE01E00149BB900F7
:102DC000E81B591804F0D0F93D00706027E011426B
:102DD00002D01E007A4B7360069B002B1FD1019B13
:102DE0001B071CD4029BFA1A954211D3D91B8B00E6
:102DF0009C462A00BA4212D261469300581805999F
:102E00000132081807990069CB1AE3189861F1E7B5
:102E10002B006C496C4800F0D1FFFDF7FCF9002253
:102E2000954208D0149907989300C958C31AE3181B
:102E300099610132F4E7069B002B03D1019B1B072C
:102E400000D493E00223019A1A4000230A920793C8
:102E5000002A04D0069826F0A9F8079030600026D2
:102E6000A3680B9D0993069B9E4227D0049B0022DA
:102E7000FB189C462968624514D2099B900018589B
:102E800081420DD1039B013B9B1A9B00E318DA6939
:102E9000002A02D0CA084D4964E06A68DA610AE093
:102EA0000132E8E70A9B002B01D1494962E06A68D8
:102EB000079826F0B4F801360835D4E7089B029845
:102EC0009A1D029B9200D91CA218059B043289000E
:102ED00059181300002808D01D68002D01D10D6875
:102EE0001D60013804330439F4E7029B9B00D218BB
:102EF000039B06339B00E31804339A4208D2043242
:102F0000111F09680029F8D19A1A9210314929E055
:102F1000089B099A9D00BB00D318651906930026EB
:102F200010E0029905980431890008580699B30009
:102F30000430C95806F0E6FB00280DD04368AB61A9
:102F40000136043D049B9E421FD2AA69002AF7D194
:102F50000821019B0B42E4D1F619099BB600F258F7
:102F60001D49D208184800F029FF56E7049B002BA2
:102F700004D01A49144824F030FC4EE7019B9B070B
:102F800003D5049826F012F8306065680DA8256016
:102F90000D9523F0C9FE2E180136731E1D78FF2DE6
:102FA00009D0039B013B5D1BAD006519E8690FF07B
:102FB00083FAE861F0E766600FB0F0BDFDFFFF3F08
:102FC000180603005C5D0300E0F30200955D03005A
:102FD000C45D0300ED5D03001F5E03004F5E030050
:102FE00070B51500040023F000FF2A0002492000FC
:102FF00023F0ABFE70BDC046CD6D020070B54379C5
:103000000D000024032B06D9836A074C9200E41AB2
:10301000C369D358E418032123F0D8FE4470241266
:103020000570847070BDC046FD7F0000F7B50023B9
:103030000400617183608371E260036101330F00FA
:1030400015004361032906D80121836949429A008A
:10305000C0691FF07FFE0023A36223622A8C6B8C61
:10306000D3180122002B00D01A00384E2000310066
:1030700023F06BFEAA8C3100200023F066FEE3688B
:103080002000197E23F09BFEE3682000997E23F048
:1030900096FEE3682000197F23F091FEE36820008C
:1030A000997F23F08CFE042F07D1636A226A3100D6
:1030B0009A1A200023F049FE03E00221200023F0A9
:1030C00072FE31002A69200023F03FFE3100EA68D9
:1030D000200023F03AFE00262B8D9E420BDAEA6A8E
:1030E000F300D3181A78032A03D19978200023F02B
:1030F0007CFE0136F0E7FF21200023F076FE042F4E
:1031000022D10022688BAB8BC01882421CD00021D8
:103110002B8D0193019B99420DDA0127EE6ACB00BA
:10312000F3185E783E4204D05E88B24201D15B68FB
:1031300002E00131EEE702230626DB003343666B33
:1031400091008B510132E0E7F7BDC046A76D020048
:1031500013B543790400012B2ED08268002A03D0D6
:103160001649174822F067FC0021200023F027FEB3
:103170006379032B13D1226AD01C9843A36A20627F
:103180006062E362C01824F065FAE3682063588B3C
:103190009B8BC018800024F05DFA60630CE0042B68
:1031A0000AD1E068636AE26A216B9A18037E009391
:1031B0004069636B0AF0D4F913BDC046765E030024
:1031C00050E60200F7B5224B0600A8331B680191B8
:1031D000022B3BD844698C4238D2836A02690C1BAB
:1031E0009D1A23002B432DD00095062C10D81F2D9F
:1031F00001D91F2300932700032C00D903270121A5
:10320000300023F0D0FD009A7B011343037015E0DA
:103210000F2D01D90F2300930E4B27009C4200D99C
:103220001F000221300023F0BEFD70223B090099EF
:103230001340F03A0A43134303704770009BE41BAA
:10324000ED1ACEE7B36A3361019B7361F7BDC046E7
:10325000A4080020FF07000070B50D000121040044
:1032600023F093FD0F2D05D0102D05D010210E2D2C
:1032700007D102E0112100E01221200023F0B5FD6A
:1032800004E0034A1721200023F04EFE70BDC04623
:1032900034050300F8B506000D00141E124F11D1BD
:1032A000110023F072FD80231B021D4203D0322146
:1032B000300023F09AFD2A0035213A403000FFF714
:1032C0009DFE0FE03A000A404621FFF797FE80235B
:1032D0001B021D406A1E9541ED012C43E1B23000F6
:1032E00023F083FDF8BDC046FF7FFFFF73B51600D6
:1032F0000D4A0B0054681568012804D94C68250054
:10330000022800D08D6801A918680AF0FFFE0100AC
:103310002C20019A0023FF3003F0A0FE2B00310087
:10332000220005F07BFC76BDA4080020F8B5214DF5
:103330002E687368012B3BD9B1685C1E0A5D0A2AAE
:1033400036D1002C03DD621E885C0A2801D12200E0
:1033500005E01400F5E7885C202802D101329A428A
:10336000F9D3002C0BDD501C834208D1601E0028CD
:1033700005D001380F5C0A2F1AD0202FF7D0CB18B8
:10338000023B1B78141B3A3B59425941A40864186C
:10339000013C0DD3084F04223900300025F06DF9AF
:1033A0000421380011F0B6F92B6904332B61EFE7E3
:1033B000F8BDC04638010020D5DE030010B520223C
:1033C000002102481FF0C6FC10BDC046EC080020DA
:1033D000084B10B5426818600020986018750138D5
:1033E000D86008005A601A61996127F094FEFFF7CF
:1033F0009DFF10BD38010020F8B503780500002BB3
:103400001DD00F4CA06C002804D0290020F03AFFFA
:10341000002814D0280020F079FF471C380024F041
:1034200014F9061E0BD03A0029001FF009FC054BC9
:10343000054A1968043B99609A42FAD1A664F8BD1E
:10344000A408002004090020E8080020F0B5BE4BC5
:10345000050018689E68426885B001921C00002E25
:1034600000D0C9E06B1E042B1ED825F06FF96368ED
:10347000984200D165E1012D00D109E1022D0BD068
:1034800012E00023A360412D39D0422D30D0432DCE
:103490001BD0442D00D0EAE023696268934200D833
:1034A0005EE1002701261CE1032D00D149E1042D36
:1034B00006D1206821694368994200D3E0E0FCE02E
:1034C000052D00D1EFE0062D06D123685D68236944
:1034D000AB42AD416D4227E10B2D07D1019B226923
:1034E0002068991A25F0C0F9002503E10E2D04D1BA
:1034F000E368002B00DBA1E032E1102D04D1E3688A
:10350000062B00DC8DE02BE1152D0BD123696268C1
:1035100061689A1A206825F0B5F923696268002568
:103520009E1A19E10D2D0AD1884827F0F4FD206874
:1035300025F03EF96368C018FFF75EFF12E11B2D0E
:1035400002D10123A3600BE1082D01D07F2D1BD1F7
:1035500021696268914200D802E1002320688668F0
:10356000B518ED5C202D08D101339D188D42F7D39D
:103570000126032B02DD033600E00126891B320001
:1035800025F080F90127ACE0092D29D16368226973
:10359000D11A226890686E4AC01803AB00F078FD1B
:1035A000061E00D1DCE00025431C0BD1A06927F0EA
:1035B000B2FD63682269D11A22689068C01811F0C0
:1035C000A9F897E023692068E918039B01355A1C84
:1035D00003921A7825F036F9AE42F3D1350089E02E
:1035E0002B00203B5E2B00D9BAE02A00216920681D
:1035F00025F031F901257DE0012E07D104224F2D60
:103600006DD002225B2D6AD0002268E0022E33D1F9
:103610002A00303A092A00D933E703221D759A603F
:103620009EE05A1C4B4913339B005958002900D186
:1036300096E020686368E26043600FE02068013B29
:10364000E36062684368991A25F00EF9E368002B7D
:1036500006DB12333F4A9B009958206825F0C4F8D6
:1036600063682269D61A22685568ED1A74E0482DFD
:103670000ED0462D74D116E0032E29D17E2D02D016
:1036800000252F001EE01B7D312B01D0372B05D1EB
:103690000025236962682F009E1A14E01A00FB219E
:1036A000343A0A4206D1002723683E005D68236948
:1036B000ED1A08E0332BE3D1FBE6012225F0E2F816
:1036C000002501272E000023A3609E420ADC0FE0A4
:1036D0000022042E03D1462DE5D0482DD8D09A6083
:1036E0003EE00025300011F039F823699E1B266169
:1036F000002F19D02368019A5B689A4204D91300FD
:103700002269981A11F03AF8226823695168906882
:10371000C91AC01810F0FEFF236858682369C01A40
:10372000401B11F01BF808E0002D19DD236829006B
:1037300098682369C01810F0EDFF23695D192561B1
:103740000EE02E000EE0C0463801002006AD03005A
:1037500050E60200A40800200127002EC2DCC9E7C1
:1037600001267642300005B0F0BDC046F7B500280E
:1037700005D13A4A3A493B4822F05DF96BE00D68C1
:10378000280001F0D9F843680600EF2B04D16D68DA
:10379000280001F0D1F8060000233349DA00505820
:1037A000A84203D18A1851682E480AE00133612BE0
:1037B000F4D12E4B2B4C9D4201D09E4204D12000CF
:1037C0002B4922F067F846E02A49200022F033F91D
:1037D0000021280001F0E4F872682749200022F057
:1037E0002AF9264B9E4203D1280024F021FF0CE049
:1037F000234B9E4200D03500A86B00282BD08307B6
:1038000029D1204B02689A4225D125F01BFC0025C6
:10381000061E20D073689D421DD2B268EB00D318FB
:103820001F68002F15D05B6817492000019322F014
:1038300002F90021380001F0B3F81449200022F009
:10384000FAF80021019801F0ABF81149200022F0AC
:10385000F2F80135DEE70F48FEBDC046A25E030068
:103860002586030050E6020088EA0200A43803001F
:1038700019630300356303003D6303001C14030058
:103880009C280300C8180300D7DE03004D63030023
:1038900007AD03008825030070B506000D00002861
:1038A00011DD002906DD154816F0D6FC01248642FC
:1038B00013DC11E00100C020000616F0CDFC01244D
:1038C00085420ADB08E0002909DDC020000616F069
:1038D000C3FC0124864200DB0024E4B20BE0002498
:1038E000A04208D00100054816F0B6FC012385422D
:1038F00000DB231CDCB2200070BDC046FFFFFF3F91
:1039000010B50400102023F093FE044B8460036084
:10391000034B43600023C36010BDC046481303003F
:10392000C576020013B50400080001A909F07AFF6A
:10393000002C07D0012C0BD1019923F010FF40007F
:10394000204306E0019B0348002B02D1024800E01F
:10395000002016BD482A03008C2A0300F0B585B06C
:103960000400080003A9150009F05CFF0600002D03
:1039700006D10300039A3249200022F05CF85CE093
:1039800001000022039BC3180093009B8B420ED9B9
:103990000B78272B04D0223B58424341DBB201E095
:1039A000002301220131002BEFD0272703E0272736
:1039B000002A00D0053F234D3A002900200022F0C4
:1039C0003AF80195009BB34232D9300023F094FEBF
:1039D0000500300023F0ABFE0600AF4202D13A00F2
:1039E000194921E019495C2D0FD02B00203B5E2B9B
:1039F00002D82A00019917E015490A2D05D015496A
:103A00000D2D02D0092D04D11349200021F042FFD1
:103A1000D8E7FF2D02D82A00104905E0104B2A00F4
:103A200010499D4200D91049200022F004F8C9E74E
:103A30003A000199200021F0FEFF05B0F0BDC0461C
:103A4000F5840300FB840300FA840300FE84030072
:103A50000185030004850300078503000A85030030
:103A6000FFFF00001185030018850300F7B51F0054
:103A700008AB0C0016001D78FB0702D57F100197DC
:103A80000EE001A9380001F07FF8002808D13800C5
:103A900024F027F81F4902001F4800F08FF911E0B9
:103AA000019BA019002B1ADA00213F26013884421D
:103AB0000AD9002900D00193002D28D117491848B0
:103AC00000F07CF9FCF7A7FB0278B243802A01D012
:103AD000012101330138002BE9D1013018E0002B1E
:103AE00015D000223F21844205D3002A00D0019343
:103AF000002D0DD1E2E722788A43802A01D10134DA
:103B0000F9E7002B03D00134013B0122EBE7200051
:103B1000FEBDC0461F850300E0F302004785030099
:103B20004CF00200F0B587B006000D00170000F061
:103B300003FF02A90400300009F074FE0600042F00
:103B40004ED1AB0735D1284B2A689A4231D105AB0B
:103B500004AA03A9280025F04DFC059B234FBB4276
:103B600004D0032B02D0224805F0A2F8039B3500B5
:103B7000BB4207D00122310000922000029AFFF7D9
:103B800075FF0500049BBB4208D001223100009262
:103B90002000029AFFF76AFF010001E0029BF11882
:103BA0000E208D421DD84A1B2000290025F0B6FCAE
:103BB00017E00023029A009331002B002000FFF74A
:103BC00055FF0278012153B2002B05DA40231A4237
:103BD00002D001315B08FAE7012209F0E7FD00E0BD
:103BE000002007B0F0BDC046A821030088250300CF
:103BF0006185030000237F2803D8034B1B5C9B07D0
:103C0000DB0F18007047C0469285030000237F2811
:103C100003D8034B1B5C1B07DB0F18007047C04623
:103C20009285030000237F2803D8034B1B5C5B07AE
:103C3000DB0F18007047C0469285030000237F28E1
:103C400003D8034B1B5C5B06DB0F18007047C046B4
:103C50009285030000227F2808D8054B0132195CA9
:103C60000C23194202D15F38424242411000704792
:103C70009285030000237F2803D8034B1B5CDB06DF
:103C8000DB0F18007047C0469285030000237F2891
:103C900003D8034B1B5C9B06DB0F18007047C04624
:103CA00092850300F7B50D00110000220600009276
:103CB00028001F000B4B00F011FC102023F0C5FC66
:103CC000041E04D1084A094B094CDA6104E03900AA
:103CD000280003F049FAE060002326602000A3607A
:103CE000FEBDC046FFFF000018060300A408002028
:103CF000B408002010B5013810C903F035FAE060AF
:103D0000004810BD88250300F8B57F231700160072
:103D100004000D001F409A430AD17B1E012B07D8D7
:103D20000B68586824F0E4FA0100200021F0B2FD8D
:103D3000022F04D10F49200021F0ACFD01E0002F3B
:103D400012D1EB68002B02D05A68002A04D10A492C
:103D5000200021F09FFD0CE0012A05D10022996886
:103D6000200000F003FE04E03200E968200003F0C8
:103D70008FF9F8BD61D6030005BE0300C368034890
:103D80005A68002A00D098687047C046882503000A
:103D9000136810B51400002B0DD17D2902D1C36822
:103DA000136008E0044B02689A4204D1BA2902D198
:103DB000FFF7E4FF206010BD9CF102000EB470B567
:103DC000050087B0102023F040FC041E06D11B4BD9
:103DD0001B4A1D619861DA611A4C29E000210560D7
:103DE0008160012003F0C0F90B9B0500E060002B0F
:103DF0001ED02521180020F0D7F9061E08D10B98F7
:103E000020F084FA320001000B9809F0CFFC0EE09C
:103E1000102102A824F052FC0CAA0B9902A80192CE
:103E200005F0D4FE02A90848E56809F089FCA860FD
:103E3000200007B070BC08BC03B01847A4080020DD
:103E400018060300B40800209CED020010B5030022
:103E5000820708D1064A0168914204D1054AD9680F
:103E60000120914203D0044918000CF041FC10BD20
:103E70009C280300A53C00005CF2020010B5040081
:103E800000F05AFD034BC2689A4200D02469002317
:103E9000A36010BDA53C0000F7B516000193040017
:103EA0000F0000F049FD174BC2689A4200D0246908
:103EB000A568002D09D10C2023F0C7FBA0600028C5
:103EC0001ED00323E580A38010E0E388A18802339D
:103ED0008B420BDB033189000122280023F0CBFB4E
:103EE00000280DD0A388A0600333A380E288A168D6
:103EF00093000332E280019ACB181F605E609A60E3
:103F0000F7BDC046A53C000070B5150004000E00CA
:103F100000F012FD064BC2689A4200D02469A368E3
:103F2000002B01D1336001E0E28832602B6070BD6C
:103F3000A53C0000F8B503780400002B00D196E002
:103F4000402B01D1012026E04A4923F060FC0028E3
:103F5000F8D14949200023F05AFC0028F2D1474902
:103F6000200023F054FC0028ECD14549200023F028
:103F70004EFC0028E6D14349200023F048FC0028ED
:103F8000E0D14149200023F042FC0028DAD13F492A
:103F9000200023F03CFC002319001D001E002278A5
:103FA000002A52D0272A10D1002B01D0032B08D190
:103FB0006278272A05D1A278272A02D10234243A2E
:103FC00017E00122012B3ED813E0222A13D11A0058
:103FD0000427BA430AD16278222A05D1A278222A7C
:103FE00002D102343A0004E0002B01D0022B2AD186
:103FF0000222D31A27E05C2A09D16778272F01D043
:10400000222F04D11A00571EBA41A4181BE0002B1E
:1040100019D15B2A12D006D8282A0DD0293A574246
:104020005741F61B0FE07B2A0AD07D2A0AD05D3A61
:1040300057425741ED1B06E0013604E0013502E02E
:10404000013100E001390134A9E70132002E0FDC13
:10405000002D0DDC00290BDC033B934208D9013C09
:1040600023785C2B04D0002801D00A2B00D1002239
:104070001000F8BDE3AF03001286030018860300AA
:104080001C860300059903002086030072D70300F5
:10409000F0B505008BB04618049207930296029B78
:1040A0005C1EA54211D82078FFF7B0FD002801D092
:1040B0000294F4E72078FFF7B5FD0028F8D12378C3
:1040C0005F2BF5D02E2BF3D000E00295744B1D68CA
:1040D000029CB4420BD3029BE31A0193B44201D277
:1040E000002711E0002426002700039448E02378ED
:1040F0002E2BF0D00134ECE7FB000393EB68FA00C1
:104100009858002804D10137AB689F42F4D315E0DA
:104110000428F8D009A909F0F9FF019B099A0100C8
:104120009342F0D11A00029820F024F90028EAD135
:10413000EB68039A9B185868002801D10020ADE075
:10414000032318420AD10368564A934203D124F04C
:104150006FFA05000BE0544A934201D000F0ECFBEB
:10416000856B002DEAD0514B2A689A42E6D1631C38
:104170000293ADE7EA68E3009858002804D10134BF
:10418000AB689C42F6D329E00428F8D009A909F0CD
:10419000BDFF099B05900693069A019B9342EED8BA
:1041A00001001A00029820F0E5F80028E7D1019BF1
:1041B000002F0BD09E420DD3069A93420AD8059A3F
:1041C000F95CD25C914204D10133F3E7069E059F6E
:1041D00000E01E00039B01330393D0E7039B002BF9
:1041E000ACD0012B06D0019B9E4203D80023402671
:1041F00003930FE0019B079AFB181360019BF01AD1
:104200004CE0039BEA68DB009858002807D1039B29
:1042100001330393039BAA689342F2D338E0042846
:10422000F5D009A909F072FF099F019B0590BB42D7
:10423000EDD801001A00029820F09CF80028E6D181
:1042400033000F220F33DC171440E418241124012B
:10425000A41B012C00DC10343319DF19402F10D8B7
:104260000027BC4205DD1249049821F013FB0137F9
:10427000F7E70599049821F00DFB099BF61836190C
:10428000C5E7059A0B49049821F0D5FB099EBEE7C6
:104290000949049821F0FEFA012040420BB0F0BD1C
:1042A000A40800201C1403009C280300C818030065
:1042B000D8DE03002486030007AD030010B5040018
:1042C0000EF010F9074B0200A4331B68064907489B
:1042D00021F0B1FB0CF050FE012C01D10CF06CFE72
:1042E000034810BDA40800202886030050E6020001
:1042F0008825030010B50CF04FFB014810BDC046E7
:104300008825030010B50CF03DFB014810BDC046E8
:104310008825030010B586B0040005AB04AA03A9E4
:1043200002A804F0C3FD059B029A0193049B064971
:1043300000930648039B21F07EFB012C01D104F081
:10434000F1FD034806B010BD3D86030050E60200B3
:104350008825030030B585B003AB050014000800C4
:1043600002AA01A925F046F8019A164900238A42BB
:1043700000D0531002984210884200D12A00002B2E
:1043800004DA5B19D843C017034002E09D4200D213
:104390002B00002A01DA521902E0954200D22A00CD
:1043A0002360934200DA13006360039B8B4205D0C5
:1043B000032B03D05B10A360002001E00120A0606C
:1043C00005B030BD88250300F0B587B006001500A4
:1043D0000C9F1B2803D1BA4212D000203FE01928BD
:1043E00008D01C280CD13D0017000A001D2619001A
:1043F000130005E03D0017000A001A2619001300FB
:104400000395BD4200D903971C000023029101933C
:10441000019B039A93421BD0029B0594049301CB0A
:1044200002CC029300F020FB002802D0019B013354
:10443000EDE71B2ED1D0059B30001A68049B19684C
:1044400003F018FF074BC01A43425841C0B206E0C0
:10445000BD4201D002D2C0E71A2EBED0012007B063
:10446000F0BDC046482A0300F0B51E0085B0039099
:1044700018680D00170000F05FFA7368019002934E
:104480000024022F18D90123B268290000F016FC7D
:104490000400032F10D029000123F268019800F0D6
:1044A0000DFC050008E0039AA3000299D05800F023
:1044B000DBFA002808D10134A542F4D805490648A2
:1044C00023F08BF9FBF7A7FE01206400204305B021
:1044D000F0BDC04685860300F0EE020010B51C005A
:1044E00002AB1B78002906D0002B04D10F491048DD
:1044F00023F073F908E0A24208D1824214D00300ED
:104500000C490B48FFF75AFCFBF785FE824205D9A0
:10451000121A09490648FFF751FCF5E7844203D215
:10452000030022000549ECE710BDC046C45D03004E
:10453000E0F302005C5D03009C860300CE8603006E
:10454000F0B50025170087B00C9C0D9E03900491D8
:10455000059302950195059B9D423BD0039B9D428F
:1045600009D263689B0539D4019B049A01330193F6
:10457000AB00D05819E023680022D9000623380088
:10458000194305F0BFF800280BD16368DB0505D59A
:10459000226819491948FFF711FC23E0A36833602A
:1045A00014E0029B406801330293FF2263681340CA
:1045B000012B03D100F0EAFB307007E0022B02D19F
:1045C00000F0A4FA01E0032B00D1306001350C3477
:1045D0000436C0E7019B039A934205D20849074875
:1045E00023F0FBF8FBF717FE3B68029ADB0805494E
:1045F0009A42F4D307B0F0BDFD860300E0F3020059
:1046000014870300358703000379044AD35C002B29
:1046100000D183790248DB00C0187047F5070020FD
:10462000E0F5020010B50400FFF7EEFF2279036801
:1046300002490348FFF7C2FBFBF7EDFD5387030078
:10464000F0EE020010B50400FFF7DEFF034B4268F6
:104650009A4202D12000FFF7E5FF10BD2546000079
:10466000002803D001210379014AD1547047C04684
:10467000F507002010B5FFF7C7FF43680248181A76
:10468000431E9841C0B210BD2546000070B50C0015
:104690000500FFF7B9FFA04208D0436828009847FB
:1046A000034A2B79A41A034AE410D45470BDC046BF
:1046B000E0F50200F5070020F0B505008BB00868B2
:1046C0000C0009F00DFD049004A823F0A6F90027C2
:1046D000049B03900693069B1978002911D00800CB
:1046E000FFF7A0FA002806D006A823F0A8F9069B39
:1046F0001B78732B00D10120069B3F1801330693D2
:10470000E9E7380002F030FD0122009007A9606857
:1047100000F0B8FB079B089A05939B18019202933F
:10472000022D0AD9A06800F0F1F9002802DA089BEE
:10473000C01826D4059B1818059000240DE0290008
:1047400009F04CF8059B009A5D19A31C9B00059588
:1047500001349850049B01330493BC4230D2049B33
:10476000187800282CD0FFF75DFA0125002803D027
:1047700004A823F064F905000598029A43199A42A7
:1047800005D21149114823F028F8FBF744FD049B9A
:104790001B78732BD3D0009BA6009E190195019B1B
:1047A0000436002B0AD0049B05AA1978039803F05D
:1047B000B3F9019B7060013B0193F0E76419C9E70D
:1047C00000980BB0F0BDC04665870300F0EE020014
:1047D000F0B589B0039101921E0009F081FC0490AC
:1047E00004A823F01AF900250290B5424ED2049B8A
:1047F000187800284AD0FFF715FA0124002803D0C2
:1048000004A823F01CF90400039B019A1B199A4287
:1048100005D21F491F4822F0E0FFFBF7FCFC049B78
:104820001B78732B04D02D190E9BAF00DF191CE0F1
:104830000E9B6F1CAD00E858012205A900F022FB79
:10484000069B25009C4200D91D002A00059903986B
:104850001EF0F6F9039B621B581900211EF07AFA2C
:10486000039B3D001C1903940CE0002C0AD0049B10
:10487000A20052421978BA5803AB029803F0AEF97D
:10488000013CF2E7049B01330493AEE709B0F0BDAD
:1048900065870300F0EE0200F0B50E0089B00390CA
:1048A00001CE0F0023F0E1F84410210004A823F00A
:1048B0001CFF069D2200002128001EF04BFA039BDE
:1048C0000096013B2A1929003868FFF781FF04A9E7
:1048D000024808F035FF09B0F0BDC046402503008E
:1048E00030B50C0089B005000222606805A900F00F
:1048F000C9FAA06800F00AF9002809DA069B0393B8
:10490000C01805D509490A4822F067FFFBF783FC68
:104910000599069AEB1E8A18091820000C300090A1
:104920002068FFF755FF034809B030BD65870300D5
:10493000F0EE020088250300084BC2070BD4084A9A
:10494000084B0240062A06D003230340022B01D164
:10495000054B00E0036818007047C046F0F60200FF
:10496000070080FF9CED0200E012030070B50D000F
:10497000040016000DF0D2FD2800FFF7DDFF83686C
:10498000002B04D0320029002000984704E0426840
:104990000249200021F04FF870BDC0467687030021
:1049A00010B50A0001000248FFF7E0FF10BDC04645
:1049B00050E60200F7B5050008000E0022F011FFD6
:1049C00000282BD001AA69463000FFF79DFA009B12
:1049D000002B23D01649280020F05CFF009C154BCB
:1049E000E71EE418A400002F18DB019A12491319DE
:1049F0005B681259280021F01EF8019B1B199A6868
:104A0000002A04D10D49280020F044FF03E00C499E
:104A1000280021F010F8033F0C3CE4E731002800A7
:104A20000222FFF7A3FF2800044920F033FFF7BD5F
:104A30007B870300FDFFFF3F9F87030007AD030057
:104A4000B487030010B50400FFF776FF054B00693B
:104A5000984203D0431E9841C0B202E0200025F0E6
:104A600060F910BDED04010070B505000C000120D7
:104A70008D4241D0214B9D4201D100203CE0994222
:104A8000FBD001231D4204D01942F6D12B000D00AA
:104A90001C002A001A4B1A40062A05D0AA0711D179
:104AA000184A296891420DD12340062B05D0A3074F
:104AB000E3D1144B22689A42DFD12100280009F08B
:104AC000D5FA19E02340062BD7D0A30703D10D4B0D
:104AD00022689A42D1D02800FFF72EFF8369002B6D
:104AE000CBD0220029001B2098470028C5D0064BB8
:104AF000C01A42424241D0B270BDC0468825030070
:104B0000070080FF9CED0200482A0300104B10B5FF
:104B1000984219D00F4A0123904217D0184201D071
:104B2000184114E0830706D10B4B02689A4202D168
:104B300002F0D0FC0BE022F0D4FF08490200084844
:104B4000FFF73CF9FBF767FB002000E0180010BD01
:104B50008C2A0300482A0300F0F60200BD870300F8
:104B6000E0F3020010B5C30705D4830706D1054B57
:104B700002689A4202D123F07BFA01E0FFF7C6FFF8
:104B800010BDC046F0F602000F4B70B50D000124B9
:104B9000984202D100230B6012E00C4B984201D1E5
:104BA0000C600DE00300234001D0401007E08207B5
:104BB00007D1074A0168914203D102F08BFC2860BB
:104BC0002300180070BDC0468C2A0300482A030049
:104BD000F0F60200184B10B5984228D0174B9842B7
:104BE00027D0C30703D5401016F0D8FB23E00323DA
:104BF000184206D1124A0168914202D123F041FACB
:104C000019E00340022B09D10E4B0340062B05D0BF
:104C1000FF23DB05C018032398430CE022F061FF5B
:104C2000094902000948FFF7C9F8FBF7F4FA002028
:104C300001E0FE20800510BD8C2A0300482A0300F5
:104C4000F0F60200070080FFD5870300E0F30200C2
:104C500010B583070CD103680A4CA34202D123F09C
:104C600070F90EE0084CA34202D122F049F808E0A6
:104C700022F037FF054902000548FFF79FF8FBF7D0
:104C8000CAFA10BDDC05030000E90200EF8703004B
:104C9000E0F3020013B50C0001A9FFF7D9FF019B57
:104CA000A34206D0220003490348FFF787F8FBF729
:104CB000B2FA13BD12880300F0EE0200F7B505004A
:104CC0000C0017001E00D30702D55710019710E003
:104CD00001A91000FFF758FF00280AD138006C68BE
:104CE00022F0FFFE2200030012491348FFF766F886
:104CF0001BE0019B002B08DA1B190193002E0AD040
:104D0000002B04DA0023019311E0002E03D09C4213
:104D10000DD201940BE0019B002B01DB9C4206D8D5
:104D20006A6806490648FFF749F8FBF774FA0198E4
:104D3000FEBDC0463F880300E0F302006388030025
:104D40004CF0020010B50400830710D10D4B02682F
:104D50009A420CD10C4B0340062B03D1C00823F020
:104D6000C2FA00E0806801234000184308E02000F8
:104D7000FFF7E2FD4369181E02D021000120984789
:104D800010BDC04640250300070080FF164B70B5DC
:104D9000040000209C4226D0144DAC4201D10120D9
:104DA00021E0134B00209C421DD001262640864264
:104DB00001D0601014E02000FFF7BEFD4369002B16
:104DC00008D0210030009847002803D0401B434200
:104DD000584107E02000FFF7B5FF0028DFD0013879
:104DE000431E9841C0B270BD8C2A0300482A0300BC
:104DF0008825030010B50400FFF7A4FF002809D19F
:104E0000200022F06EFE044902000448FEF7D6FF9F
:104E1000FBF701FA10BDC04679880300E0F30200F9
:104E200070B504000D001600FFF786FD036A002B25
:104E300005D03200290020009847002818D10D4DD8
:104E40002000002E04D122F04CFE0B49020005E0A8
:104E5000042E08D122F045FE020008492800FEF782
:104E6000ADFFFBF7D8F922F03CFE05490200F5E75B
:104E700070BDC046E0F302009A880300C5880300B5
:104E8000E688030010B522F042FE002805D1034950
:104E9000034822F0A2FCFBF7BEF910BD1389030002
:104EA000E0F302008022044B52001A600123034AFF
:104EB0001360034A1360704700E100E00C8C00406F
:104EC000008000408022054B5200DA67044BFF3A15
:104ED0005A600022034B1A607047C04604E100E0AC
:104EE000008000400C8C004070B501251D4B1E4C0D
:104EF00018601E4BE550C046FFF7E4FF1C4A1D4BEF
:104F0000E560E250002302211B4AC220A350043274
:104F1000A15049180832A1508021C12209039200F2
:104F2000A150053AFF21FF3AA3504024134B8000C3
:104F30001A588A43224380241A500C301A582406E7
:104F40001202120A22431A5004301A588A433F3977
:104F50000A431A50802212041A60802252041A60F6
:104F600070BDC0465401002000800040FC0F0000CE
:104F7000701700004C0500000405000000E100E08F
:104F800070B5224C224D636C002B0AD00023636461
:104F9000204B1B689847A822D200AB580001C018CC
:104FA000A850A36C1A4D002B0AD00022174B9A640C
:104FB000184B5B689847184A0001AB58C018A850B6
:104FC000E36C134D002B0BD00022104BDA64114B15
:104FD0009B689847A922D200AB580001C018A8507E
:104FE000236D0B49002B0FD00022084B0B481A658C
:104FF0000B4A8B581B188B500A4A136806331360F0
:105000008022094B12045A6070BDC046FC800040EB
:1050100000800040040000204405000070170000DC
:105020004C05000014070020FCE100E0F7B50191F9
:10503000032824D8134B8000C758C223124D9B006D
:10504000EF50012344192364A823DB00E6589C4653
:105050000E4BEB58D21A9219D61731000F260E407C
:10506000B218019912110A4E013281511201C12167
:10507000D318624689006F500020A35001E0012040
:105080004042FEBDC8F60200008000404C05000012
:105090000400002003280BD8074B8000C158C2230E
:1050A000064A9B00D150064A064BC250002001E040
:1050B000012040427047C046C8F602000080004010
:1050C000417B02000400002010B5024B1B6898478A
:1050D00010BDC0465401002010B50024054AA35855
:1050E000002B02D00021A15098470434102CF5D198
:1050F00010BDC04658010020074A89008B58002B7C
:1051000006D188508021054A49045160180001E009
:10511000012040427047C04658010020FCE100E0F9
:105120007FB54B680E005C102100684623F0DDFA65
:10513000029D0021220028001DF00CFE0121306894
:10514000014004D12B00220022F02DFF08E0431083
:105150002000042C00D904202A00002122F0E7FFBF
:105160006946024808F0ECFA04B070BD402503001F
:10517000F0B50C00002585B0110020001E00009540
:1051800002232A00FFF7AAF90120AC423FD0844253
:1051900028D1306820423AD103230340AB4203D1E7
:1051A0001C4A0168914232D01B4A0240062A06D0AE
:1051B000002B0BD10268194B92699A4206D103A9C0
:1051C00008F0A4FF002303991A0018E0032302004B
:1051D0001A40022A16D1FF22D2058018984302F005
:1051E00041F914E003A9306808F090FF04007068EA
:1051F000039FFFF78BFC2B0002003900200004F016
:1052000021F804E0FFF782FC01234000184305B0B9
:10521000F0BDC046F0F60200070080FFF1E6000096
:10522000F0B58DB0099214AA127804000B9215AA59
:1052300012780F000892DA0700D496E01800FFF702
:1052400065FC002305900793002803DA4342059389
:105250002D230793129B0026023B1E2B16D8534B7F
:10526000129A2020995C14F06DFF089BC5B2B342DE
:1052700004D0681C032114F065FF06001398002871
:1052800001D01FF043F80335AE1936183B68B3421E
:1052900004D2300022F0CCF920603E6023689F19D0
:1052A000069300237D1E2B70059B002B04D00B9BC7
:1052B0000A950A3B0B931DE03023023F3B7030E020
:1052C0006F1E3B70089B002B25D0059B002B28D020
:1052D000069BBB4225D20A9BDB1B032B09D16B46E5
:1052E00020229B181B78AF1E3B70069BBB4218D236
:1052F0000A973D000598129915F094F80F0005984B
:10530000129914F0A9FF3B0005903033092FD7DD27
:105310000B9BDB19D4E7069BBB4202D2059B002BFB
:10532000E7D1139B002B0ED018001EF0EFFF069B59
:10533000381A834207D20023139AD25C002A2ED057
:10534000C2540133F8E7079B002B06D0069BBB42F3
:1053500003D26B461B7F013F3B70236838009E19C8
:10536000F61B099B013E1E601EE09A0710D1104AF1
:10537000196891420CD1089A390003920B9A029253
:10538000139A0192129A0092099A22F0E3FD0BE01F
:10539000002322681370099A2068136004E0079BB9
:1053A0000700002BD5D1D8E70DB0F0BD3889030038
:1053B000F0F602001300144A10B50400934201D124
:1053C000012203E0114A934202D10322200018E097
:1053D0000020072C17D10E4A1A40062A0ED09A0731
:1053E00011D11A680B4CA24208D00B4CA24205D036
:1053F0000A4CA24202D00A4CA24204D10A00072061
:10540000190002F037FF10BD8C2A0300482A030060
:10541000070080FF9CED020040250300DC0503002F
:1054200000E902000048704790F70200F0B5836978
:1054300099B05A1E04925A1D9200821804320292A8
:1054400002009B001C320791D3180F210122039305
:105450000369019006A81A4009180A7003229343B1
:105460000A930CA8FAF7BCFE031E01D000F0BAFDA7
:10547000019A5568D468079A002A2CD02A785E2AA7
:1054800029D00798079300F0E6FC7B783A781B0256
:105490001343BA4A9B18FB186360EB780834236007
:1054A0000F267F210220012506AA2368B6180B4289
:1054B00000D1C3E20A9A013B5268024200D1B5E230
:1054C000220008C20523636014000A9B1F680A9B20
:1054D0000C3B0A933D00019B6F1C5D602B7818000C
:1054E00010385A2801D900F02DFD14F017FE5B008A
:1054F0005D0062002B0564002B05740083008900A9
:105500002B058B00A100B300C300D300E200F30021
:10551000F80000010F0124013501530164016D0100
:1055200081019A01A8012B052B052B052B05B6013E
:10553000B8014205BF01C501CF01D701E501F30163
:10554000FF012B052B052B050D023D02AE02AE021D
:10555000CB02E102E502F602F602CEFF2B052B0597
:105560002B052B052B052B052B052B052B050203E6
:105570001503270339034803510367037903910394
:10558000AF03C2037104A204C804B7042B05DA03F5
:10559000E503F003F903090425043C045804040559
:1055A00015052605764B00E0764B6360043400F069
:1055B0000DFD754BF9E77F216B785B06DB173A78B9
:1055C000DB01100052B2084003430137002AF6DB2A
:1055D0005B0001220CE000237F213A78DB01100000
:1055E00052B20840C3180137002AF6DB0622DB005E
:1055F0001343DAE70322FB1C93431F0008CFD4E7D1
:105600000023D2E700237F213A78DB01100052B259
:105610000840C3180137002AF6DB9B005B42029A60
:105620009858002800D056E25849594800F085FDA6
:1056300000237F213A78DB01100052B20840C318E2
:105640000137002AF6DB029A9B005B42985825F04E
:1056500010FCE6E700207F223B78C00119005BB216
:10566000114008180137002BF6DB251D02F0B0FBB6
:1056700000F061FC00207F223B78C00119005BB282
:10568000114008180137002BF6DB251D02F06EFBD8
:1056900000F051FC00217F223B78C90118005BB269
:1056A000104041180137002BF6DB206822F0BBFDCB
:1056B00030E200217F223B78C90118005BB2104024
:1056C00041180137002BF6DB220001CC02F0F4FC7C
:1056D00000F07CFC251D02F093FB00F02CFC251F44
:1056E000042221682868FFF79BFB00F05EFC002382
:1056F0007F213A78DB01100052B20840C31801370D
:10570000002AF6DB9B005B4200F030FC00237F2187
:105710003A78DB01100052B20840C3180137002A62
:10572000F6DB029A9B005B4221689858251F25F002
:10573000A2FB00F03BFC00207F223B78C001190057
:105740005BB2114008180137002BF6DB2168251FDA
:1057500002F06AFB00F02AFC00207F223B78C001A7
:1057600019005BB2114008180137002BF6DB2168E5
:10577000251F02F071FB00F019FCC0460280FFFFFC
:105780008C2A030088250300482A0300CC890300E3
:10579000DCF0020000217F223B78C90118005BB2D7
:1057A000104041180137002BF6DB231F1A682068D0
:1057B00002F0AAFC00E22200231F083A12682168C6
:1057C0001868FFF72DFB3EE100237F213A78DB01CB
:1057D000100052B20840C3180137002AF6DB029AC3
:1057E0009B00D31A1A68002A00D11DE7002241E06D
:1057F00000257F223B78ED0119005BB211404D1965
:105800000137002BF6DB029BAD005D1B286825F0FD
:1058100030FB002800D107E70021286825F02BFB8A
:10582000D4E300207F223B78C00119005BB2114015
:1058300008180137002BF6DB02F002FBC6E300205C
:105840007F223B78C00119005BB211400818013774
:10585000002BF6DB02F00CFBB8E32368A5E6236817
:10586000A360231F1B6863600834AFE3231F19681C
:10587000226821601A60A9E3221F1368216823604F
:105880002300083B1868106019609FE37B783A7822
:105890001B021343DB4A9B18FF1897E37E783B7883
:1058A000206836021E43FFF771FAEF1C251F2C00FB
:1058B000002800D18AE324E07E783B782068360215
:1058C0001E43FFF763FAEF1C251F2C00002800D0B1
:1058D0007CE316E07E783B78360220681E43EF1C9E
:1058E000FFF754FA002800D143E30AE07E783B78C2
:1058F000360220681E43EF1CFFF748FA002800D04C
:1059000037E3C14BF618E4E0260027682200380090
:105910001721083602F0D0FB38003200162102F0C1
:10592000CBFB00213200080022F06EFCAB786A78D5
:105930001B0213430A9AEF1C0C320A920A9AFB18B4
:1059400013600F220A9B251D059306ABD21813780E
:10595000190002231943059B0D435D6000230A993A
:1059600013708B60A0606FE125002668A74B083D8F
:105970009E4208D16660A6602A000021032022F022
:1059800043FC2E6012E3012131402CD07610231FFE
:10599000012E10D126001A680C3E05929B4A002168
:1059A0001A60032022606260320022F02DFC059B09
:1059B0003360032315E026002A68103E05921A681A
:1059C00000210692914A03202A601A602260320068
:1059D00022F01AFC059B069A336023000C3B1A60E8
:1059E00005232B60E8E02B682E602600103E236024
:1059F0003200032022F008FCFFF7C8F900280DD080
:105A00000122824B06A933600A9B5B6813400E3269
:105A1000521813700A9B0C3B0A9315E123683360FC
:105A20002300043C22680C3B1A60BFE20A9A5268C9
:105A30002A4032700A9A0C3A0A9238E5221F1768F7
:105A4000002B00D1B8E00C3CC0E27B783A781B0216
:105A500013430A9AEF1C0C320A920A9AFB1813603D
:105A60002B780A99403B584258410F22430006A820
:105A700012181078034323434B6000230A991370D4
:105A80008B60A3E22068FEF7E1F9251F002803D010
:105A9000FAF7BCFB2B682BE223685C4A2C0093428C
:105AA00000D193E25B10DBB2012B00D0F8E49DE162
:105AB000206802F04DFB2DE07E783B7836021E43D5
:105AC000019BEF1CDC60206802F06AFB002802D119
:105AD000043CBF197AE2606068E50A9B06A95A682F
:105AE000012313400F22521813700A9B0C3B0A9398
:105AF0006CE200207F223B78C00119005BB21140AC
:105B000008180137002BF6DB8300E41A0434210067
:105B100001F02AFB206059E200207F223B78C0017F
:105B200019005BB2114008180137002BF6DB830027
:105B3000E41A0434210021F0CCF8EBE700237F21A4
:105B40003A78DB01100052B20840C3180137002A2E
:105B5000F6DB9B005B4221681859FCF75BFE08E20C
:105B600000207F223B78C00119005BB21140081869
:105B70000137002BF6DB251D23F018FADBE12500A9
:105B8000231F083D1A682168286823F048FA0DE2AF
:105B900000237F213A78DB01100052B20840C3187D
:105BA0000137002AF6DB01339B00221F5B4212689B
:105BB0002168185923F033FA083C07E200207F22BD
:105BC0003B78C00119005BB2114008180137002B67
:105BD000F6DB8300E41A0434210006F001FE99E7A5
:105BE00000237F213A78DB01100052B20840C3182D
:105BF0000137002AF6DB9B005B422168185923F02D
:105C00007BFBB6E10280FFFF0080FFFF88250300D9
:105C100000237F213A78DB01100052B20840C318FC
:105C20000137002AF6DB251F022B05D1D24A216855
:105C3000286807F0AFFAB8E12600083E2268296814
:105C4000306807F0A7FA30603400BFE100257F21FB
:105C50003B78ED011A005BB20A4055190137002B61
:105C6000F6DB29002200206802F0E6FDC34BED18A8
:105C700014E000257F213B78ED011A005BB20A4059
:105C800055190137002BF6DB22002900206802F0AD
:105C900029FEFF232A0A1A401D405519AD00641938
:105CA00094E10322FB1C93430022186811001F1D7E
:105CB000251D23F0CAFB3EE10322FB1C9343251F55
:105CC0002268296818681F1D23F0BFFB6DE10322BD
:105CD000FB1C934319795F1D8A00A41A04340AE05F
:105CE0000322FB1C934319795F1DCA439200A41839
:105CF0008022520011432200186823F0C1FB09E7FB
:105D000000207F213B78C0011A005BB20A401018C6
:105D10000137002BF6DBFF23FF220100C5095B00E2
:105D200011402B405B189B00E41A000A0240231D1F
:105D3000206802F013F9EDE600217F223B78C901CB
:105D400018005BB2104041180137002BF6DBFF232F
:105D5000CA095B001340CAB29B189B00E41A083CB6
:105D60002200002031E000237F203A78DB0111007F
:105D700052B20140CB180137002AF6DBFF21180090
:105D8000FF22DD09084052002A40451C52199200AA
:105D9000A41A1B0A1940220022F036FABAE60021A2
:105DA0007F223B78C90118005BB2104041180137CF
:105DB000002BF6DBFF23CA095B001340CAB29B1815
:105DC0009B00E41A0C3C2200012002F00BFCA1E62F
:105DD0000F2206ABD2181378002B07D00A9B596804
:105DE00001230B4013700A9B0C3B0A9302220A9B6F
:105DF0000399994217D80A9B5B6813420FD003227C
:105E00000A9B21685B6893431C0059609A600A9B57
:105E100008341F680A9B0C3B0A93FFF75BFB0A9B45
:105E20000C3B0A93E3E7FAF7F1F9019B0020DC60F1
:105E300087E16B78022B01D1043C0BE0002B09D1E8
:105E40000A9B039A934200D275E19868002802D118
:105E50000C3BF6E7206802F043FE70E1079E002E3F
:105E60001CD0079E002132000791201F0BAB006859
:105E700002F0CAFD012816D12F000B9B2360FAF710
:105E8000C5F9019B06AA5F60DC600F239B181B7895
:105E90000A9A01201343019A136152E1201F0BABB0
:105EA00032002168E3E7002806D10B9B043C002B5D
:105EB00000D1314B23600CE002281BD130490B98F4
:105EC00021F095FC002810D00B98FDF757FF043CFB
:105ED0002060002E7AD02B49300021F088FC002869
:105EE00074D0FAF793F90D967CE0FAF78FF90B9BD3
:105EF0000D9377E0043C00207F223B78C00119001D
:105F00005BB2114008180137002BF6DB251F2A6809
:105F1000216802F003FE48E000217F223B78C9019E
:105F200018005BB2104041180137002BF6DB25004A
:105F300001CD02F005FE606038E02068251F22F0E8
:105F40007DF933E0AF2B05D80120803B5B00034394
:105F5000FFF72BFBBF2B04D8B022D31A9B00FFF70F
:105F60005EFBCF2B10D8C022D31A9B00029A216867
:105F70009950043C2AE0C04688250300FFFFFF3FFC
:105F80009CF1020094F40200D62B05D8D03B1800F7
:105F9000216801F079FFBDE5FA2B09D8251FD73B11
:105FA00018002268296802F065F928602C000DE0CD
:105FB0006549664821F011FC0400FAF727F9049BB3
:105FC000019A06339B00D3185C60B2E0604B1A6BF9
:105FD000002A01D1FFF77EFA00221C6B1A63FAF740
:105FE00015F90D940D9B5B4918680AF081FB002898
:105FF00025D0019B5B68002B21D01A78432A0BD156
:106000009A78597812020A4303339B18019A536015
:10601000D3680593043B82E05E2A10D1019B019A6C
:10602000DC680D98231DD360FDF7A8FE019B60601E
:106030005B68019A059301335360FFF712FA0D9BD9
:10604000454A934240D0454A93423DD0019B0BA81C
:106050001B6805930B9320F067FE04000BA820F04B
:1060600063FE05000BA820F05FFE019B01005B684A
:106070000593019B1B680693069A059B9E1A1F2396
:1060800001229C46361B0B9C2378002B14D0180051
:106090007F27B84304D16046013418405B0908E00B
:1060A0000F20E0271840FF001B011F4063780234D7
:1060B0003B430B94864204D22B000D98FDF7ECFE77
:1060C00002E0361AD218DEE70F23012106AA9B1838
:1060D0001A78002A07D00A9A52680A401A700A9A57
:1060E0000C3A0A92F4E70A9A039991421AD80122CB
:1060F0001A700A9B0D991B680593059A019B0591DF
:106100005A6003220A9B5B6893430A9A9160144A7F
:106110005A600D9A9A6012680C331A60019AD36023
:10612000FFF79FF9049B019A06339B00D3180D9A41
:106130005A60022005E00B490B4821F04EFB040099
:106140004DE719B0F0BDC046F889030088F302009E
:10615000A40800209CF10200ACEF02000CF5020044
:1061600088250300128A03002CEF0200F0B50E0010
:10617000002485B011000700039322000C4B30006F
:106180000094FEF7ABF9B01C800021F051FA050035
:1061900007604660B44208D0039BA700D85901F0BD
:1061A000D7FFEF19B8600134F4E7280005B0F0BD5F
:1061B000FFFF000010B5FEF70DFD16F00BFF0022EB
:1061C000074B16F0C1F8074B074A15F099FC16F07B
:1061D00055FF03239843013B1843044BC01810BDDF
:1061E00000806640FB210940182D44540000808047
:1061F00010B5FEF7EFFC16F0EDFE084A084B16F05E
:10620000A3F8084B002215F07BFC16F037FF0323A0
:106210009843013B1843044BC01810BD182D44543B
:10622000FB210940008066400000808010B5FEF729
:10623000D1FC011C15F078F8024B002800D1024B6C
:10624000180010BD482A03008C2A030010B5FEF781
:10625000C1FC440064080849201C15F065F80028BA
:1062600005D10549201C14F047F9002801D0034846
:1062700000E0034810BDC046FFFF7F7F8C2A03006B
:10628000482A030010B5FEF7A5FC034B1840022373
:106290001843024BC01810BDFCFFFF7F0000808038
:1062A00010B5FEF797FC440064080849201C15F05F
:1062B0003BF8002807D10549201C14F013F90028E9
:1062C00001D1034800E0034810BDC046FFFF7F7FB7
:1062D000482A03008C2A03001FB500230193FEF710
:1062E00079FC01A917F0F2FB03220300022093437B
:1062F000064903435B180293019B934303435B18D6
:1063000002A9039300F030FF05B000BD00008080BB
:1063100070B50D00FEF75EFC041C2800FEF75AFC69
:1063200015F01AF80100201C17F0ACFB032398436A
:10633000013B1843014BC01870BDC046000080806F
:106340001FB500230193FEF745FC01A917F06EFB72
:10635000032302249843074B2043C018029001985E
:1063600021F049FE02A90390200000F0FDFE04B0D8
:1063700010BDC0460000808070B50D00FEF72AFCFD
:10638000041C2800FEF726FC011C201C17F02CFE24
:1063900003239843013B1843014BC01870BDC0460E
:1063A0000000808070B50D00FEF714FC041C28006E
:1063B000FEF710FCC00FC30760004008184303231A
:1063C0009843013B1843014BC01870BD000080800A
:1063D00070B50D00FEF7FEFB041C2800FEF7FAFB6B
:1063E000011C201C17F088FD03239843013B184330
:1063F000014BC01870BDC0460000808010B5FEF78C
:10640000E9FB17F01DF903239843013B1843014BA7
:10641000C01810BD0000808010B5FEF7DBFB17F040
:1064200017FD03239843013B1843014BC01810BDCF
:106430000000808010B5FEF7CDFB17F0B5FC0323FC
:106440009843013B1843014BC01810BD00008080E9
:1064500010B5FEF7BFFB17F01DFC03239843013B6B
:106460001843014BC01810BD0000808010B5FEF726
:10647000B1FB17F0D1FB03239843013B1843014BB9
:10648000C01810BD0000808010B5FEF7A3FB17F008
:106490003DFA03239843013B1843014BC01810BD3C
:1064A0000000808010B503490348FDF787FCF9F729
:1064B000B2FEC046318A0300F0EE020070B506005D
:1064C00008680D00FEF786FB0021041C14F00AF892
:1064D000002801D0FFF7E6FF201C17F0EDFD041C9B
:1064E000012E03D1032302209C4312E06868FEF7CB
:1064F00071FB0021051C13F0F5FF0028EAD1281CD0
:1065000017F0DAFD011C201C14F0AAFA0323022460
:106510009843024B2043C01870BDC04600008080E5
:1065200010B5FEF757FB17F0EBFC03239843013B34
:106530001843014BC01810BD0000808070B50D00DD
:10654000FEF748FB041C2800FEF744FB011C201C3E
:1065500017F030FE03239843013B1843014BC0184A
:1065600070BDC0460000808010B5FEF733FB0021EF
:10657000041C13F0ADFF002801D0FFF793FF201C8F
:1065800017F0AEFF03239843013B1843014BC0189B
:1065900010BDC0460000808070B5137804000A3B2F
:1065A000D8B20F2808D90A0012481349FDF706FC93
:1065B000A368002518601AE0002052781B021343DC
:1065C000E268904208D0256981004959994201D179
:1065D00005000CE00130F4E722880025042A06D1EA
:1065E0001A0006490348FDF7E9FBA3681860280074
:1065F00070BDC04658F40200A98A0300BE8A030099
:10660000F0B585B004000D00100003A91E0023F0B2
:106610002DFA071E08D12A000C490D48FDF7CEFBC4
:10662000A368186038000FE00398FEF79BFA030098
:10663000B34309D0030000962A0006490448FDF739
:10664000BDFBA3681860002005B0F0BDD58A03002B
:1066500058F40200ED8A0300F7B51E0013780D0010
:106660000A3BD9B204001C480F2904D850781B02F9
:10667000184321F03DFE03781849009300234A1C7B
:106680000191177800998F4218D141785778B94213
:1066900014D1817897788F4210D1002F0BD1019AB5
:1066A0009B00D05CB04215D933002A000C490D483C
:1066B000FDF784FB0BE0C778002FF0D001330432E4
:1066C000152BDED12A0008490648FDF777FBA368A1
:1066D00018600020FEBDC04605BE03003E8C0300CE
:1066E000198B030058F40200328B0300F0B51778C1
:1066F00085B005000E00992F47D101A9100023F0A5
:10670000D9F9019B984240D003781A000A3A0F2A1F
:1067100008D802000F2331002800FFF79DFF012455
:10672000844030E0AE2B30D123F0BFF9040023F0D9
:10673000B7F902900378B22B27D1A33B2200310096
:106740002800FFF789FF012403A98440029823F061
:10675000B1F9039B0290984215D0390002A823F0AA
:10676000B8F90127029A039B9A420CD00F233100FB
:106770002800FFF771FF3B00834002981C4323F081
:106780008FF90290EEE7200007E032000449054847
:10679000FDF714FBAB681860002005B0F0BDC046E3
:1067A0004A8B030058F40200F0B50E0087B00400D5
:1067B00004A930001F00019221F09FFD019B0500FC
:1067C000002B11D1322E02D1BF210902E7E1482E60
:1067D00008D0019B2A00BD49BD48FDF7EFFAA36828
:1067E0001860DFE1BB49DAE1019B012B00D089E0B1
:1067F000412E09D101003A682000FFF7CDFE0100CB
:10680000606924F0BEFA0AE0422E12D101003A6813
:106810002000FFF7C1FE0100606924F009FB002899
:1068200000D0BFE1AC49AA48A46820F0D6FF2060A0
:10683000B8E1432E09D101000F233A682000FFF789
:106840000BFF8E21C000C901A8E10378622B33D170
:10685000049B032B07D0052B2ED1C3785F2B2BD1A4
:1068600003796E2B28D101269C4A6978531C764205
:106870002B321878884206D1A87884465878844507
:1068800001D1581E067803339A42F2D1731CA0D06E
:106890003A6829002000FFF77FFE049B02000027D2
:1068A0006069052B03D12B79773B5F425F413B0049
:1068B000310024F082FAB2E7462E01D188496EE118
:1068C000472E01D187496AE1442E0BD129003A684D
:1068D0002000FFF70BFFFF231B02B421184200D05A
:1068E00077E70DE0452E00D073E73A6829002000D5
:1068F000FFF7FCFEFF231B02184200D069E7BC2112
:1069000009024BE1019B022B00D0D6E07B681B788B
:106910000A3B0F2B49D8332E12D13A6801000F23BE
:106920002000FFF799FE7A68060029000F23200057
:10693000FFF792FE31000200606924F00DFA31E1A8
:1069400000230293342E1BD18026F6013A682900D9
:1069500007232000FFF780FE7A68019029000723B3
:106960002000FFF779FE019A03003100606924F0EE
:10697000EBF917E1029B013302930F2B00D128E7BB
:10698000029B03229E00584B711C591828001DF0D1
:10699000F1FC0028EED1EB78002BEBD1524BF65CEA
:1069A00080233601DB011E43D0E7332E01D1802640
:1069B00002E0352E13D1A02607233A6829002000D3
:1069C000FFF74AFEFF23019029007A682000FFF7B5
:1069D00017FE019BB601190206433143DFE0362E54
:1069E00001D1C026E8E7372E01D1E026E4E70023F5
:1069F0003E4A99005018408886425AD18B5A20004E
:106A000002933A6807232900FFF726FE7E68039069
:106A10003378982B28D1300023F087F8002823D131
:106A2000300023F042F803789A2B1DD105A923F0FA
:106A300041F80599060023F027F8022814D1300008
:106A400023F02EF807233200070029002000FFF76B
:106A500003FE029B0600DB040ED51F233A0029002B
:106A60002000FFF7CDFD19E02A0021491848FDF765
:106A7000A5F9A3681860ACE6029BDB0B07D03E23A8
:106A80003A0029002000FFF7BBFD400806E07C2308
:106A90003A0029002000FFF7B3FD80080299039B0C
:106AA000F60019430E43F8218001C9000840310067
:106AB00074E00133062B9CD18BE6019B032B00D0A5
:106AC00087E6382E16D1002618E0C046658B0300F5
:106AD00058F4020030BF0000C58B03007F8A03001A
:106AE00072B6000062B60000438A03004C530300F4
:106AF0009A8B0300392E1CD1802636013A68072371
:106B000029002000FFF7A8FD7A68019007232900DB
:106B10002000FFF7A1FD1F230290BA682900200082
:106B2000FFF76EFD019F029B374381013943DE0071
:106B300053E73A2E02D180267601DFE7362E01D1C7
:106B4000C02603E0372E00D043E6D02607233A685C
:106B500029002000FFF780FD072301907A682900B3
:106B60002000FFF779FDBA687601137802900A3B9E
:106B70000F2B05D8072329002000FFF76DFD07E044
:106B80008023DB001E43290007232000FFF738FD88
:106B9000029B8001D900019B194331430143606985
:106BA00024F09BF807B0F0BDF7B506000D000024F7
:106BB0000192019B9D4227D0631C0093052B02D1BB
:106BC000B468124906E028780A38C3B20F2B07D9F7
:106BD000B4680F490F4820F000FE2060002014E048
:106BE0006B780002184321F083FB023507001DF08B
:106BF0008DFB0228ECD13B78722BE9D17B783034C5
:106C00009C42E5D1009CD4E72000FEBDD98B030057
:106C10000C8C030058F402007FB50B00012803D14F
:106C200000211868FDF7BCFE102102A821F046FDE6
:106C30000A4902A820F0F2FC039B0193002B06D125
:106C4000042804D1064820F0BBFDF9F7E4FA02A9B4
:106C5000044806F075FD07B000BDC04605BE030040
:106C600010F302009CED020010B504000C2020F08F
:106C7000DFFC034B4460036001235B42836010BD73
:106C8000D4FA020010B503480968FDF793FE0248E4
:106C900010BDC04650E602008825030010B5040070
:106CA000080021F080F80300002C04D0012C07D14B
:106CB0004000204305E00348002B02DC024800E0CE
:106CC000002010BD482A03008C2A030070B54568D7
:106CD000C6688468102020F0ABFC034B4560C6609A
:106CE0000360846070BDC046F804030070B50D00F9
:106CF0004A688B68084904001EF09DFEEA68012A74
:106D000004D1064920001EF0C5FD03E0044920001F
:106D10001EF091FE70BDC046988C03009888030059
:106D2000A58C030030B5040087B00D000020042AB4
:106D30002FD1200021F037F8AB071DD1164B2A6860
:106D40009A4219D103AA2900FDF704FB102020F074
:106D50006FFC124B039A0360E36861685A43521850
:106D60004260049A11005943019262688A18826055
:106D7000059A5343C3600CE0002301002A002068F9
:106D8000FDF79CFFE36858436368C0180123400087
:106D9000184307B030BDC046A8210300BC0403005F
:106DA00010B54A6801491EF046FE10BD259003004B
:106DB000F7B51D4D1D482B000833D96F0378A02768
:106DC0009A1C9200545A8E184A88FF055443A122F7
:106DD000D2009446A4120190F278002A08D0012033
:106DE000B27801339040020060463A50DAB20DE0CA
:106DF0000F4B48682E00F85028008830036808368A
:106E00001400002B02D01900F3670260931C9B0052
:106E1000585ACE184B8858438012001B01D11300DA
:106E2000DAE7019B1A70FEBDA408002015080020B7
:106E30000C050000044B05491A000832D1670022F6
:106E400088331A607047C046A4080020B4050300C8
:106E500010B5782202490220FEF7E8F810BDC046BE
:106E6000B16D0000421E114BFF3A70B59A421AD81C
:106E7000051172B60E4B00201A00190088321468F2
:106E80000831106062B61E00844200D1CC6F2178B8
:106E9000200021F003F863684580436033008833A5
:106EA0001860002001E00120404270BD40410F0009
:106EB000A4080020054B1A0088331B680832002BF9
:106EC00000D1D36F588800017047C046A408002045
:106ED000F0B54E4A85B007000B00914200D913006F
:106EE0008022D200D21A019272B6494A00201100C3
:106EF000883214680831106062B6844200D1CC6FC9
:106F00000126BE4062680096324207D13A00A021B5
:106F10000320C132FF329200C9055050002521786C
:106F20008D425BDAAA00A218927A974201D001350D
:106F3000F6E7002B13D10139200020F0AFFF636882
:106F4000009A06009343436023785A1E954211DA53
:106F500001339B0002351B59AD002B500AE0200085
:106F600020F09CFF6368060043606B4602359B88F7
:106F7000AD002B526388341D738001230093337856
:106F8000009A9A4226DA250023890193A37A029374
:106F9000E37A0393009B5F1EAB88019A934208D962
:106FA0002800291D083004221BF04AFE043D013F41
:106FB000F2D26B4603379B88BF00F7193B806B46C4
:106FC0001B7A0434BB706B461B7BFB70009B013348
:106FD0000093D4E70E4B88331E6014E0002B12D0D0
:106FE0000131200020F05AFF6268009B0600134325
:106FF0006A464360237892889B00C3181A81012255
:107000009F72DA72B6E705B0F0BDC046FF0300001C
:10701000A408002010B500210400FFF759FF0D4B14
:107020000833DA6F00231078834211DA990051187F
:10703000897A8C4201D00133F6E702339B00D318E2
:107040001F229A700123A021A340034AC9058B5037
:1070500010BDC046A40800200C050000F8B50600CD
:1070600010200D0014001F0020F0EFFA011E09D0BF
:107070002C19076045608560C460034B034A3000EB
:1070800021F0AFFEF8BDC046E97E0200D37E0200CB
:1070900070B50E001049040000251EF0FBFB73685C
:1070A0009D420ED2002D03D00C4920001EF0F2FBB1
:1070B000AB00F318012299682000FDF757FC013559
:1070C000EDE7012B03D1064920001EF0E3FB054943
:1070D00020001EF0DFFB70BDD7BD0300595D03002B
:1070E000AB8C03009888030070B50D0001281DD0FB
:1070F000002804D002281DD10F4C002605E04B6863
:107100000E48002B17D10E4815E06B689E4209D23D
:10711000B300EB189968022000F0B6FE4010241866
:107120000136F2E701206400204304E04B685B0075
:10713000184300E0002070BD18060300482A030031
:107140008C2A030010B50400102020F071FA044BC3
:1071500084600360034B43600023C36010BDC046DE
:1071600048130300017F020070B506000D000C48B3
:10717000002E14D0B41CA400200020F059FA094AB3
:10718000030002604660002D09D00022083CA242A4
:1071900004D0A858991888600432F8E7180070BD28
:1071A00018060300DC050300F0B5040085B00D00EF
:1071B000160007282AD002D8052805D062E003006F
:1071C000193B042B3FD95DE01000FDF7B5FB2F49BB
:1071D00009F08EFA011E56D06B687268002198186B
:1071E000FFF7C2FF070029006B6808379A00040008
:1071F000083138001BF024FD310068687368800096
:1072000038189A0008311BF01BFD18E003A9100084
:10721000FDF7BAFC0021884235D00398884210DD82
:107220006B685843FFF7A0FF0400230028000833D1
:1072300000930830039B6A68042120F066FB21005C
:1072400021E013491FE00800FDF776FB3000FDF751
:1072500073FB104B426A9A4205D030000B4922F072
:107260007DFD061E0CD033002900726808310092A3
:1072700008336A682000FDF7A7F80749002802D103
:10728000064900E00021080005B0F0BDDC05030060
:107290001806030045710000482A03008C2A0300E9
:1072A00030B5050085B0042A2CD103240C401FD131
:1072B000164B0A689A421BD101AA4068FDF74AF8AA
:1072C000002802D1124801F0F3FC019B0298210032
:1072D000C01AFFF749FF04002900636808319A00CB
:1072E000019B08309B00C9181BF0AAFC20000AE093
:1072F0000A00002369682868FDF7E0FC023080007E
:10730000405900E0002005B030BDC046A821030070
:1073100061850300F0B50C001100002285B020004B
:107320001D0000920123FDF7D9F81848002C2AD03F
:107330002868830703D1164B02689A4223D0102095
:1073400020F076F90400286800F002FF00250426EA
:107350000390039800F04CFF071E0BD0AE4205D8F7
:10736000F100200020F07AF904007600AB001F51F4
:107370000135EEE721002800FFF7F6FE05002000AA
:1073800020F07DF9280005B0F0BDC04618060300C6
:10739000DC05030010B5102020F04AF90400034B6F
:1073A00008C022F062FE200010BDC046F0F60200C8
:1073B00070B50D00052826D812F0A6FE05250D0390
:1073C000141C080020E0081D22F081FF031E0F4856
:1073D0001AD00F4818E0081D23F0A9FA0121400037
:1073E000084311E0FFF7D6FF291D0400043022F006
:1073F000A3FF06E0FFF7CEFF291D0400043022F0B2
:10740000ABFF200000E0002070BDC046482A03000A
:107410008C2A030070B5050083070CD1104B02685D
:107420009A4208D1FFF7B6FF0400291D043022F06C
:1074300078FF200012E02800FDF768FBC0231B0640
:10744000984205D180200021C00520F0C5FD05E04F
:10745000C317C018584001234000184370BDC046F0
:10746000F0F6020070B544006408051C211C201CC5
:1074700013F05AFF002808D11149201C13F03CF8E2
:10748000002808D00F49104801E010491048FCF7C7
:1074900095FCF8F7C0FE281C20F06CFB002806D1F4
:1074A000281C13F059FF01244000204307E0FFF798
:1074B00071FF0400291C043022F056FE200070BD2C
:1074C000FFFF7F7FAD8C03001CF40200C68C03001D
:1074D000F0EE020007B5C30701D540100DE00430FF
:1074E00001A90AF063FD002801D0019805E00349D5
:1074F000034820F072F9F8F78EFE0EBDDF8C030012
:107500001CF40200F0B5060001208DB00C000092C2
:10751000084007D04B10022202A903A822F0E4FD84
:1075200003AD09E003230B4000D037E19C4A096812
:10753000914200D029E1251D009BDB0708D5009B67
:1075400002225B1002A903A822F0CEFD03AC1FE0CB
:107550000323009A1A4208D10099914A09680191BF
:10756000914202D1009B1C1D12E0009A1340022B95
:1075700000D00EE18B4B1340062B00D109E128000F
:1075800023F02AFA009A011C300001F07DFD05E18C
:10759000092E01D0162E16D1200022F098FE0028C8
:1075A0003DD1280023F018FA051C200023F014FA1E
:1075B000011C281C13F054FA03239843013B184381
:1075C000794BC018EAE0182E00D9BAE0FFF7E2FEC6
:1075D0000700300012F098FD6B716577770D111878
:1075E0001EDB488E946B716577770D11181EDB4892
:1075F0008E00381D2200290050E0381D220029008D
:1076000022F07DFF3800C9E0381D2200290023F058
:10761000C8F8F7E7200022F05AFE002802D063499C
:10762000634857E006A83E1D22F01FFD23002A00F4
:1076300006A930000AF058FB2A7823785340DB076C
:107640000ED506A822F043FE002809D1012109A881
:10765000494222F03FFD09AA3100300022F014FF18
:1076600006A822F00EFDCDE7200022F030FE002813
:10767000D5D109A83E1D22F0F8FC23002A003100D4
:1076800009A80AF031FB09A822F0FBFC2A7823782C
:107690005340DB07B6D522003100300022F0F4FE63
:1076A000B0E7381D2200290022F076FFAAE7381D36
:1076B0002200290022F0F4FFA4E7381D220029004F
:1076C0000AF09CFA9EE70098FFF704FF021E05DA15
:1076D0003849394820F081F8F8F79DFD381D290018
:1076E000032E01D0102E02D10AF01AFA8AE722F0F6
:1076F0006AFE87E7381D2200290023F0D5F881E7CC
:10770000200022F0E4FD002889D1FFF743FE3E1D52
:10771000009023002A00043031000AF0E5FA2A78AC
:1077200023785340DB0704D522003100300022F0DB
:10773000ABFE009B09A9022009930A97FFF714FDED
:107740002CE02100280022F0C7FD193E0300002094
:10775000042E23D8300012F0D7FC0307130B0F00C0
:107760001648002B1ADA0EE01448002B0BDC15E04B
:107770001248002B12DC06E01048002B03DA0DE063
:107780000E48002B0AD10E4808E0180006E0002041
:1077900004E0009A21003000FDF70CFE0DB0F0BDB2
:1077A000F0F60200070080FF000080800C8D0300CF
:1077B0004CF302001D8D0300F0EE02008C2A030042
:1077C000482A030070B50C0005000B6805495A688B
:1077D0001EF031F921682800403122000AF018FE1D
:1077E00070BDC04625900300136870B5002B11D101
:1077F0000568EE6BB34213D09C002C19246CA14297
:1078000001D00133F6E7591C0AD002339B001B5804
:10781000136005E0034904481FF0DFFFF8F7FBFCA5
:1078200070BDC046328D030014F20200F0B585B081
:107830000C00032505F0DCFF25400700002D03D1D7
:107840001E4B22689A4205D01D491E481FF0C5FFF5
:10785000F8F7E1FC03AA02A920001FF051FA029EEA
:10786000039B30001030800001931FF0E1FE040004
:107870003C2229001BF06EFA134B67602360134B08
:10788000E663A360124BE360124B6361124BA3618A
:10789000124BE361124B2362124B6362124B636320
:1078A000AE4208D0019BAF00D85905F0A1FFE719FF
:1078B00038640135F4E7200005B0F0BD00E90200AE
:1078C000468D0300E0F302009C280300C57700000A
:1078D000ED780000E9700000A9710000E977000070
:1078E000A1720000457100009C060300F0B51D0068
:1078F00085B0C36B00AFFB607A608B18FA68060036
:107900000C009A4204D02A492A48FCF757FA34E07E
:10791000FB688B4244D09A00130069460E33DB08A3
:10792000DB00CB1A9D4618000021BB601BF012FA49
:107930000023A2009A4204D0E858B968C850043322
:10794000F8E7F9687B688C4663447B60AD1803E018
:107950006A6802341A6008357B689C421FD2286826
:1079600005F046FF00210200F36B3B603B68994243
:1079700005D111490F48FCF721FAF8F74CFC8B00B0
:10798000F018006C824201D00131EFE70131F0D0F4
:10799000B968CB1819680029DAD00849EAE7BD6848
:1079A0002900F868FFF7E0FBBD46066005B0F0BDB2
:1079B0005C5D0300E0F30200548D0300955D03005D
:1079C000F0B50D00002785B0110003901E002800BF
:1079D0000F4B02220097FCF781FDA81C80001FF0CE
:1079E00027FE039B040003606B1E3D00039343606E
:1079F00033688360039B9D4207D20135AF00F05985
:107A000000F0A6FBE719B860F4E7200005B0F0BD70
:107A1000FFFF00003E2803D0402809D03C280ED1AB
:107A20004239C9B22F290AD8084B585C012308E013
:107A3000712904D8064B585C064B5B5601E00123C4
:107A40000020002A00D013607047C046598E030002
:107A5000758D0300E78D030010B5512836D00FD87F
:107A6000492827D006D842281CD048281FD00028F3
:107A70004BD117E04F2840D042D84C281AD044E0D0
:107A8000682811D007D864282AD0662825D0622813
:107A90003BD188563AE06C2832D071280FD0692843
:107AA00033D12DE0885C31E05200505E2EE0520070
:107AB000505A2BE09200505820F0B8FA29E0D2003A
:107AC0008A181068516820F087FA22E0D2008A18DC
:107AD0001068516820F09BFA1BE09200505805E0B6
:107AE000D2008A181068516815F0C8FA0323984329
:107AF000013B1843074BC0180BE09200505808E0B8
:107B00009200505820F077FA03E000200123400053
:107B1000184310BD00008080F7B51700156801AA52
:107B200004000E00FFF776FF402C05D1019B043CBA
:107B30005A1EAD185B421D405A213E3C62426241D2
:107B4000B14289412B183B60D2B22B00494220F050
:107B5000C5FA04000D004F2E3AD0532E07D11CF069
:107B6000D5FB00220100200005F020FE30E0662E4B
:107B700006D1032302209C43164B0443E01827E060
:107B8000642E08D115F07AFA032302249843114B8E
:107B90002043C0181CE05A2E0FD980220023D205A2
:107BA00012196B41002B04D1002A02DB20F023FACA
:107BB0000EE0290020F010FA0AE0002905D1064B5A
:107BC000984202D820F032FA02E0290020F01FFA91
:107BD000FEBDC04600008080FFFFFF3FF0B587B0CC
:107BE000140003AA07000E0001931D68FFF712FF9F
:107BF0000090402F05D1039B043F5A1EAD185B42F5
:107C00001D40009B019AEB1813603E3F642E09D083
:107C1000662E02D04F2E22D140E02000FCF7DAFF82
:107C200004003BE02000FCF7D5FF15F0D3F90490E9
:107C3000059179427941C9B28B0006AAD318083B55
:107C40002A001B68042020F072FA3B005A1E934160
:107C500006AA9B00D318083B04351C681EE0A30746
:107C60000CD1154B22689A4208D1794279412B00F8
:107C7000C9B2009A200020F096F91AE02000FCF723
:107C800045FF009B0400042B08D95A2E06D9002872
:107C900004DA1A1F281DFF211BF05CF87942794194
:107CA0000098C9B2042800D9042023002A0020F03B
:107CB0003EFA07B0F0BDC046F0F6020070B5050010
:107CC0000E0014001800642D0CD0662D04D04F2D2A
:107CD00011D19400A35127E094000E19FCF77AFF0C
:107CE000306021E0D4000E19FCF774FF15F072F932
:107CF0003060716018E020232B43712B0CD10321DD
:107D0000014009D1094B02689A4205D1E300F318FA
:107D1000082220F048F907E0FCF7F8FE22000300F3
:107D20003100280020F017FA70BDC046F0F60200BE
:107D300070B501F011F80B4C00262300A8331E602B
:107D4000266301F0A3FE084D0121280003F086FF01
:107D500028005E226E2121F062F96560256066646C
:107D600070BDC046A4080020D808002070B50624C5
:107D7000134EC3001C437368002205002100181D28
:107D800001F0C0FC021E18D1706C002807D004302E
:107D9000210001F0B7FC002801D040680EE000226D
:107DA0002100084801F0AEFC021E06D12A00064957
:107DB0000648FCF703F8F8F72EFA506870BDC04685
:107DC000A408002030210300898E0300DCF00200AB
:107DD0000A4B10B5040018685B6898420AD0062167
:107DE000E30019430430002201F08CFC002801D08C
:107DF000406802E02000FFF7B9FF10BDA408002092
:107E0000074B10B5586C002801D1064807E0043034
:107E10000022262101F076FC0028F6D0406810BD33
:107E2000A4080020782103000A00062110B5034BA6
:107E3000C0000143186821F0F2F810BDA40800202A
:107E4000062110B5034BC0000143186821F0F1F87A
:107E500010BDC046A40800200A00062110B5034B3F
:107E6000C0000143586821F0DAF810BDA4080020D2
:107E7000062110B5034BC0000143586821F0D9F822
:107E800010BDC046A408002070B505000C000628EF
:107E900006D10800FCF77AFF00284CD028484DE0B6
:107EA0000123194217D04810042D06D0052D0FD0FC
:107EB000002D42D10028F1D03DE0C02212069042B0
:107EC00004D18020C00520F096F837E0404200E061
:107ED000C043400013E0022813D11A4B0B40062B7D
:107EE00008D08B070DD10A68174B92699A4208D1C6
:107EF000486802E0C80820F0F1F901234000184367
:107F00001CE02000FCF718FD4369002B0DD10F4B3E
:107F1000AD002000ED581FF0E4FD2A0003000C49DD
:107F20000C48FBF74BFFF8F776F92100280098473B
:107F3000002803D1EBE7084800E0080070BDC04608
:107F40008C2A0300070080FFF1E60000202A0300CE
:107F5000A28E0300E0F30200482A0300F7B50400F4
:107F6000019116001F00FCF7E7FC0569002D09D1FF
:107F700020001FF0B6FD064902000648FBF71EFF71
:107F8000F8F749F93B00320001992000A847FEBDEF
:107F9000C08E0300E0F30200F8B504000D001700E6
:107FA0001E0000290BD01868FCF7C6FC63689842D5
:107FB00005D0064906481FF010FCF8F72CF93300ED
:107FC0003A002900A068FFF7C9FFF8BDDC8E030066
:107FD000E0F30200F8B506000F0014001D0093073F
:107FE00014D11368174A934202D163682B6028E0CA
:107FF000154A934207D1002802D0FCF79DFC0700E8
:10800000636888C51DE0114A934201D12C6018E0D5
:108010005B681A00F23A012A01D9F02BF6D1002E42
:108020000ED12000FCF788FC094B984208D10C20A7
:108030001FF0FEFA074B476003608460286000E091
:1080400050C5F8BDD82903009C2903009C280300D3
:10805000F8150300F0060300F8B500231360536021
:1080600006000C001500FCF767FC0700102C05D17A
:10807000836A002B02D00F4B48C519E0FB69002B27
:1080800004D02A0021003000984711E0B86B002886
:108090000ED00621E400214304301A0001F032FB27
:1080A000002805D042682B0039003000FFF792FF0E
:1080B000F8BDC0465421030070B5160004000D0041
:1080C000FFF7CAFF3368002B15D10B4EA30707D16A
:1080D0000A4B22689A4203D12B006268084905E0E6
:1080E00020001FF0FEFC2B00020006493000FBF7C9
:1080F00065FEF8F790F870BD14F202009C280300AA
:10810000F48E03001B8F030073B504000D001600EE
:10811000FCF712FCC369002B09D0042201960092DF
:1081200029006A4620009847009B002B0AD02000B7
:108130001FF0D7FC2B00020003490448FBF73EFE6A
:10814000F8F769F873BDC0461B8F030014F20200F4
:1081500013B50400FCF7F0FB436A002B0BD16A4611
:108160001A212000FFF778FF009B002B08D06846FB
:1081700002F098FD0EE02000984700280AD1EEE7B3
:1081800020001FF0AEFC044902000448FBF716FE75
:10819000F8F741F816BDC0463D8F0300E0F302003A
:1081A00037B50400FCF7C8FB856A002D02D020001B
:1081B000A84717E06A4610212000FFF74DFF009BFB
:1081C000002B05D06A462900280020F01DF809E0A0
:1081D00020001FF086FC044902000448FBF7EEFD76
:1081E000F8F719F83EBDC046598F0300E0F30200CE
:1081F00030B505008FB00AF091F92800FCF79CFB20
:10820000846A002C02D02800A0472AE06A46102188
:108210002800FFF721FF009B002B18D002A8F7F7DA
:10822000DFFF002808D16A4601001FF0EDFF0400BF
:10823000F7F7ECFF200014E0039B0B49186808F0E7
:1082400057FA03002000002B0BD1039807E0280009
:108250001FF047FC054902000548FBF7AFFDF7F7A3
:10826000DAFF0FB030BDC0469CF10200598F030009
:10827000E0F30200F0B585B002900E001700202850
:1082800003D1914212D0B5489FE1029B1B2B01D034
:108290001E2B0DD139003000FCF7E6FB029B0028B5
:1082A00002D01B2BEFD101E01B2BECD0AC488CE1B2
:1082B000029B212B28D11000FBF7C8FD002806D017
:1082C000390030001FF093FA0028EFD1DBE70324D8
:1082D0003C4000D057E1A34B3A689A4200D052E1AB
:1082E0007B689C42CFD2A300FB189D682800FBF757
:1082F000ADFD002800D145E1290030001FF077FADC
:108300000028D3D10134EBE70123194200D1EBE07F
:108310004D101A4200D1DFE0029B54101D2B00D9F2
:1083200031E1180011F004FF1E0020002300260098
:1083300038003F00410043004E0056006B007400BF
:10834000A4001E0020002300260038003F0041004A
:1083500043004E0056006B007400BD00C1002F01A9
:10836000C500C900254300E065402E00A9E02C406F
:108370002600A6E0002C02DA7B497C4818E11F2C7D
:1083800070DC7B4B23419D426CDCC0231B062341E8
:108390009D4267DBA540E8E7002CEDDB1F2C00DDEC
:1083A0001F242541E1E72E198BE02E1B89E02100D7
:1083B0002800FBF771FA002854D101206C436400B7
:1083C000204302E1002C00D1F0E0210028001FF042
:1083D0006AF91BE0002C00D1E8E0280012F0DEFF73
:1083E000051C200012F0DAFF011C281C12F038FBDB
:1083F0000323022598435F4B2843C018E5E0002C77
:1084000000D1D3E0210028001FF03DF9060058E01C
:10841000002C02DB0395012618E0280012F0BEFFB5
:10842000032302269843534B0643F6188BE001239F
:108430001C420ED1012C44D0039964100800FBF7B4
:108440002BFA00280ED1039B5B430393002CEED143
:1084500037E003993000FBF71FFA002802D1039B95
:108460005E43E7E7E91728001FF0B6FD06006AE063
:10847000002C00D19AE000210220FEF775FE2100B9
:10848000060028001FF00FF9012740003843B060B4
:10849000210028001FF0F7F8B8403843F0603000A2
:1084A00093E0A54200DBEEE600E7A54200DCEAE649
:1084B000FCE6A54200DDE6E6F8E6A54200DAE2E6E3
:1084C000F4E6320073005A4002D4012018437CE0E5
:1084D00030001FF090FD78E003231340022B03D1FE
:1084E000254B1340062B66D1029B1F2B2BD1380046
:1084F000FCF722FA83690500002B07D16B6A002B79
:1085000017D03800FFF724FE04000CE032003900D9
:1085100002989847002858D1F0E73100FCF7A4FAF8
:10852000002800D0C2E62000FFF762FE0028F4D148
:10853000A9E638001FF0D5FA104902001048FBF7F1
:108540003DFCF7F768FE3000FCF7F6F98369002B75
:1085500019D03A0031000298984734E08C2A030081
:10856000482A0300DC0503001D8D0300F0EE020025
:10857000FFFFFF3F00008080070080FF3D8F03006A
:10858000E0F302002F00029B30009A00104BD458F9
:108590001FF0A7FA050038001FF0A3FA2B00009087
:1085A00022000C490C48FBF709FCCAE70B490C48B0
:1085B0001FF013F9C5E7280012F0F0FE3A00011C85
:1085C000029800F061FD0028DDD005B0F0BDC04686
:1085D000D8280300788F0300E0F302000C8D03001D
:1085E0004CF30200F0B513688DB00693002803D158
:1085F000131D0393040003E013005468083303932E
:10860000FF220B00090A1340114001934B00059310
:10861000059A019B04919B18039A9B00D558D31887
:108620005F68381E09D00020BB0706D17F4B3A682F
:108630009A4202D1380020F0EFFC049B1E18002D56
:1086400016D1019B76000133F318980000931EF0B9
:10865000EFFF25000600002C01D001250460019BDE
:10866000A8009A00301803991AF0EAFA019B30E04A
:10867000AB0731D12B686E4A934202D06D4A9342C8
:108680002AD128000AAA09A9FCF7E2FA099B019A53
:1086900001339B1876009B19980000931EF0C8FFC9
:1086A00025000600002C01D001250460019BA800D4
:1086B0009A00039930181AF0C3FA019B0A995819C5
:1086C000099B80009A0030181AF0BAFA019B099AA7
:1086D0009B185B19029338E0019B7600181D331834
:1086E000980000931EF0A4FF02940600002C02D014
:1086F000012304600293029B03999800019B3018A8
:108700009A001AF09DFA019A029B9446280063444D
:108710000293FFF71DFD029B07909C000798FFF74F
:1087200067FD051E11D0009B029A934207D8D9001D
:1087300030001EF093FF0600009B5B000093029B3D
:108740003551013302930434E8E7029B9800049BFF
:108750003018DA00019B9900039B59181AF070FA3F
:10876000029A059B944663441C00002F4FD00325BA
:108770003D401AD12D4B3A689A4216D1380020F06C
:1087800061FC41688D4242D08368EA009F58002F07
:1087900009D0042F07D0A300F7508768F318BA1840
:1087A000526802345A600135ECE70AAAC521380044
:1087B000FFF782FC00210AAA08001FF025FDFFF741
:1087C000C7FCA50001900198FFF712FD071E1ED0FF
:1087D000009A631C9A420BD853000093032B01D8D4
:1087E00004230093009B300099001EF037FF060021
:1087F00009AA02213800FCF74DFA099B02341B68D4
:108800007351099B5A6873195A600835DBE7029B5C
:108810000299E21A520833000698FFF79FFB040002
:1088200030001EF02CFF20000DB0F0BDC818030072
:10883000DC05030000E9020073B50C001500830796
:108840001DD10368214A934207D0214A934216D191
:1088500001AA69461EF054FA03E001AA69461FF016
:1088600070FB009B9C4225D827D3019BA4001C19B8
:10887000043B043C9C4227D0226804C5F9E7FFF77B
:1088800067FC002306000093009B3000A3420CD23B
:10889000FFF7AEFC00280DD0009A0E49A31A5B1812
:1088A0009B00013258510092EEE7FFF7A1FC00282F
:1088B0000AD002E0009A084901E02200074908486E
:1088C000FBF77CFAF7F7A7FC73BDC046DC05030095
:1088D00000E90200FFFFFF3F9D8F0300C08F0300F0
:1088E000F0EE02000B0AF0B514000E00FF221D008E
:1088F00085B016400193154083073CD107683E4B75
:108900009F4203D03D4B9F4235D104E003AA02A908
:108910001FF017FB09E00B0A0B43134201D1206043
:1089200068E003AA02A91EF0EBF9029B72199A42B1
:1089300059D89A009446002003998200A84206D094
:108940006746BF1A043FCF590130A750F5E79B1B7C
:10895000B5004919181AA4181EF0BBF9039B206032
:108960005D190023013601339E4243D09A005142E3
:108970006958A150F7E7FFF7EBFB002307000293CC
:10898000029B9E420CD93800FFF732FC00282AD007
:10899000029AB31A5B199B00013218510292EFE759
:1089A000002108001EF095F906003800FFF720FCB2
:1089B000011E03D03000F9F72DFFF6E7B1688D42B4
:1089C00011D8AB00E3181E6088009C4206D0F26804
:1089D000C71AA218D259043B1A60F6E7491B3000A7
:1089E0001EF093F906E0029A05490648FBF7E6F9FE
:1089F000F7F711FC05B0F0BDDC05030000E902004B
:108A00009D8F0300F0EE0200F0B587B01D00060058
:108A10000C000192FBF790FF2E4B984206D12B00E1
:108A2000019A21003000F7F765FC51E0876A2A4B74
:108A3000002F07D09C4221D13000B8472860002881
:108A400016D145E09C4219D103AA10213000FFF74E
:108A500003FB039B002B0DD103AACD213000FFF7B0
:108A60002BFB059403AA002101201FF0CDFB2860F9
:108A700001202DE003AA39003800F6E7002CEBD1E5
:108A8000019B2000002B23D01800FBF755FF134952
:108A900007F02EFE00280FD003AACC213000FFF7EC
:108AA000DBFA039B002B07D003AA210020001FF054
:108AB000ABFB286020000BE003AACE213000FFF7BB
:108AC000CBFA039B01AA002BCDD10220019B2B6086
:108AD00007B0F0BDE8E402008825030094F402002A
:108AE00010B50400FBF7B2F9002806D000232000DF
:108AF0001A001900FFF732FA0AE020001EF071FE9A
:108B000003002000002B03D1024903481EF065FE3C
:108B100010BDC046E88F0300E0F302007FB50623D6
:108B2000C0001843054B01900491052001A9029350
:108B30000393059201F0CEFB07B000BD882503002A
:108B40001423F0B58DB000AFFA1805000C00FFF744
:108B500083FABB69002B06D022002C492C48FBF776
:108B60002DF9F7F758FB786900284BD128001FF042
:108B70001FFF0028F0D014232800FA180D21FFF75A
:108B80006BFA10237869F91805F0C0FAB860200074
:108B90001FF0A9FB6A463E69B968731C7B60C31865
:108BA000FB600E33DB08DB00D31A9D4632006846BB
:108BB0001AF046F86D462E23AB557B682000EB1863
:108BC000BB601FF095FB060020001FF08CFB3100FE
:108BD0000200B8681AF034F8F968684600F0FAF84C
:108BE0000623C00018430B4B10223B627B620A4BEA
:108BF000BA18BB620123FB620B33F861D118052060
:108C000001F068FBBD460DB0F0BDC04612900300F8
:108C100098F2020088250300482A0300F0B5174C9B
:108C20000F00616895B003912168060008A80491BF
:108C300062602360F7F7D4FA051E06D0039B0998FB
:108C40006360049B2360F7F7E6FA33683A0031006B
:108C500005A8019306F02EFA2B002A00019905A819
:108C6000F9F7F0FB1FF0C1FA0500F7F7CFFA28007B
:108C7000039B6360049B236015B0F0BDA408002033
:108C800010B5040007F092FE031E064803D0064903
:108C90001EF0A3FD03E022000449FBF78FF8F7F76D
:108CA000BAFAC04670EF020028900300519003000A
:108CB000010010B502481EF090FDF7F7ACFAC0466F
:108CC00088F30200074BDB68002B09D05A68824208
:108CD00004D8801A04308000C05802E01B68F3E713
:108CE00018007047A408002070B5114D0400EB680F
:108CF0009868DB6883420FD30230C0001EF098FCF6
:108D0000EB685A68D96803609B6852185B008360FF
:108D100000234260C360E860E968CB6848685A1C79
:108D200004339B000138CA6080185C5070BDC04697
:108D3000A4080020074B4118884205D25A01D318D5
:108D4000027801305340F7E7D8B2002800D1013053
:108D50007047C04605150000034B044ADA60002244
:108D600094331A607047C046A408002038070300F7
:108D7000F0B585B001900E00FFF7DCFF144B0290B8
:108D8000DC68002C21D0270010373D00E3689B00F1
:108D9000FB180393039B9D4215D22868029A03781F
:108DA0009A420ED143789E420BD102303200019993
:108DB00019F01EFF002804D1E81B63688010C0185A
:108DC00004E00435E6E72468DBE7200005B0F0BDE9
:108DD000A4080020F0B585B002900191FFF7C8FF0C
:108DE00000285CD12F4C019B27009437DD1C3B6889
:108DF000002B1BD026002C4A98361268316803924B
:108E0000AA188A4212D90200691818001EF033FC11
:108E10000390002807D1244B386819681EF01EFC07
:108E2000039B3B6002E033685B193360230094339B
:108E30001B68002B17D12E007F2D00D88026300014
:108E400027001EF002FC94373860002804D1280067
:108E50001EF0EEFB2E003860230098331E602300C6
:108E600000229C331A6022009C32136894342468D8
:108E7000ED1801990298E4181560FFF75BFF6B4647
:108E80001B7920706370019AA01C029919F0D8FE1A
:108E90000022019B2000E3189A70FFF725FF05B020
:108EA000F0BDC046A408002040090020F7B51D0011
:108EB00016000023070003600B6033602B60174B24
:108EC0000091DC68002C23D0154B9C4220D03B68DD
:108ED000210001333B60E268009B94461B68009AC6
:108EE000019363441360E36810319B00CB189942EF
:108EF00006D204C950783268033282183260F6E72D
:108F0000200007F041FF2B68246818182860D9E773
:108F100033682A68D3182B60F7BDC046A408002028
:108F2000380703000C4B70B5DC68002C12D00B4BDB
:108F30009C420FD02600E36810369D007519AE42A2
:108F400006D204CE0649023206481CF074FDF6E74C
:108F50002468EAE770BDC046A40800203807030073
:108F60008590030050E60200FF2310B50324DB05C3
:108F7000CB18A3430200181CA24213D0042A09D024
:108F80000021002A0ED111F09DFA0749002809D0CE
:108F9000064907E08022022012069B18A3431843CB
:108FA000034BC118080010BD482A03008C2A030097
:108FB00000008080FF23DB0510B50400C8180323E0
:108FC0009843002386B00193073300931022603347
:108FD00002A906F09DFD02A920001CF05BFC2E21D9
:108FE00002A81BF0E1F800280FD1652102A81BF0B0
:108FF000DBF8002809D16E2102A81BF0D5F8002863
:1090000003D1034920001CF045FC06B010BDC0464A
:10901000C989030030B50C001100002285B01D0085
:10902000009201232000FBF759FA002C21D0286878
:10903000114B0340062B06D0032318420DD10F4AD3
:109040000168914209D103A905F060F80022039953
:109050000092130000F080F90CE00340022B09D0CD
:10906000FBF7B8FD03239843013B1843044BC0189A
:1090700000E0044805B030BD070080FF9CED020011
:109080000000808002008080F0B5050087B01000ED
:109090000191FBF79FFD041C0390681F182800D95D
:1090A000B2E011F031F80D10161B2C376A6FB1B118
:1090B000B1B1B10D10161B2C376A8B90959A9F0099
:1090C000211C019856E0211C019811F0A7FF019086
:1090D00091E0211C019811F08DFEF8E70021201C81
:1090E00011F0F0F9002805D049494A481EF075FBF7
:1090F000F7F791F803A901A81FF007F97BE0002119
:10910000201C11F0DFF90028EED1211C019811F08C
:10911000A7FCDCE70021201C11F0D4F90028E3D1E2
:10912000211C019814F060FF0021041C019011F033
:10913000C9F9002807D0039A0023002A01DA802306
:109140001B06019357E00021201C039E012711F00C
:10915000BFF9002800D1071C0021301C012511F0A7
:10916000B7F9002800D1051CFFB2EDB2AF4242D0E2
:10917000311C201C11F0FEFAA9E7211C019815F002
:1091800019F8A4E70021201C11F09CF90028ABD1AC
:1091900003A901A81FF0B9F803220220019B1E4970
:1091A000934303435B180493039B934303435B186C
:1091B00004A90593FDF7D8FF030026E00199201CC0
:1091C00011F09AF912E00199201C11F081F90DE0DB
:1091D0000199201C11F076F908E00199201C11F08A
:1091E00095F903E00199201C11F07CF90B4B002844
:1091F0000BD10B4B09E00323019A02209A43130081
:10920000054A03439B1800E00023180007B0F0BD97
:109210000C8D03004CF3020000008080482A0300FC
:109220008C2A030010B50400002906D0044B8A6B79
:10923000036009680023FAF72FFE2000F6F7EBFF22
:1092400058F40200F0B5040087B003920293671847
:10925000002A0ED0023A222A0BD93C493C481EF083
:10926000BCFAF6F7D8FF2078FAF7C4FC00285DD0E6
:109270000134BC42F7D300230093391B200003AA1A
:109280001FF0E2FE23181D0000240193BD420ED200
:109290002E783000FAF7C6FC039B002805D0320078
:1092A0002F3A9A4201DC303E0DE0102B04D0009B97
:1092B000002B16D0644214E020231E433300613B90
:1092C000052BF4D8573E03992000FAF7E5FA002859
:1092D00019D1039B5C43A4196300634013D4013587
:1092E000D4E7012364001C43019B9D4216D0BD427C
:1092F00006D22878FAF77EFC00280FD00135F6E771
:10930000BD421FD00AE0019B009A0593F91A05A8F7
:10931000039B1EF096FE059D0400E5E70D49039AA8
:109320000B48FAF74BFD0299FFF77CFF23782B2BB4
:1093300002D101340090A0E700902D2B9DD1013483
:109340002C3B99E7200007B0F0BDC04652AC0300AB
:10935000F0EE020075AC0300F0B504008BB0099389
:10936000431808920193019B9C4206D22078FAF799
:1093700041FC002874D00134F5E700230493002752
:10938000844B2500079300233E0006970293019B20
:109390009D4262D26B1C03932B781A00303A0592DF
:1093A000092A2BD8022E03D10A237B439F1852E0AF
:1093B000012E15D1059812F039F8079911F01AFD10
:1093C000011C029811F0D6F90290079813F002FEE2
:1093D000714A724B12F0B8FF13F050FE07903AE05A
:1093E0006F49029811F006FD051C059812F01EF851
:1093F000291C11F0BFF9002602902CE0002E02D1AA
:109400002E2B02D126E0022E19D020221A43652AE3
:1094100015D1019B039A93420BD96B782B2B02D168
:10942000AB1C039305E02D2B03D1AB1C039301234D
:109430000693039B019A934270D002260BE000260C
:10944000089AB2421CD0202213436A2B18D1039DE4
:10945000013615E00126039D99E723002C000CE05E
:1094600023782B2B61D101340490019B9C4217D3AC
:1094700000270022230006970292250000261C00E8
:10948000069B002B00D07F42380011F087FF011CA3
:10949000434814F08FFE029911F0ACFC071C16E053
:1094A000202322781A43692A15D06E2A00D066E755
:1094B0000199A21C914212D962781A43612A0ED1F5
:1094C000A27813436E2B0AD10026364FE51C049B6D
:1094D000002B0DD009E00199A21C91422CD8049BCD
:1094E000002B1BD025000026002780231B06FF1819
:1094F000A54213D0019B9D4206D22878FAF77AFB49
:1095000000280BD00135F5E7019B9D4206D1002EC6
:1095100002D1099B002B34D0234900E02349244881
:109520001EF05BF91099FFF77DFE04902D2BB7D14B
:109530002C3B0134049398E762781A436E2ACED10B
:10954000A2781A43662ACAD1E21DE51C914214D9B9
:10955000E2781A43692A10D122791A436E2A0CD173
:1095600062791A43692A08D1A2791A43742A04D16C
:10957000E2791343792B00D10535FF270026FF053B
:10958000A5E7032302209F430A4B3843C0180BB0C2
:10959000F0BDC046CDCCCC3D9A9999999999B93FE7
:1095A000000020410000C07F9DAC0300BAAC030066
:1095B000F0EE02000000808073B50600194D0C002B
:1095C00028001AF003FB310017481AF0FDF917487C
:1095D0001AF0FCFA16481AF0F9FAFF239B00E61875
:1095E00021787F2916D0B44214D0A37850290BD803
:1095F000104A505C104A525C019363780093030058
:109600000E481AF0E1F903E062780D481AF0DCF92F
:109610000434E5E728001AF0D9FA0A481AF0D6FA15
:1096200073BDC046D4AC030001AD030009AD030017
:10963000DFAD03005FD803000ED803002AAD03009E
:109640004DAD0300FDAD0300F0B51D008BB00790DC
:109650001B48160008911AF0B9FA290019481AF0A7
:10966000B3F919481AF0B2FA18481AF0AFFA002400
:10967000AC4220DA089B375DA000079918180378E0
:109680008278095D049707689B063F037F0E039766
:10969000C7789B0E09933B09029300883F07C004DB
:1096A000400E3F0F019012090097099B08481AF0DD
:1096B0008BF90134DCE702481AF088FA0BB0F0BDF0
:1096C000D4AC03006EAD03009BAD0300CDAD030031
:1096D000FFAD0300F7B5CC1CA400070020000E006E
:1096E00001921DF0A5FF22000500054B4760866032
:1096F00003600C3A01990C3019F0A2FA2800FEBD63
:1097000084130300F0B587B00092027805000E00C4
:10971000930703D5009B002B00D0ECE0D307DB0FB1
:10972000DBB20293002B0FD0744B3340062B0BD0CF
:109730000323334003D172493068884203D0009B31
:10974000012B01D0D7E00293530716D52B68AC68E4
:10975000DF08FF00E719BC4243D22068864203D1EC
:10976000009B022B39D136E0029B002B37D1310010
:10977000FBF77AF9002832D0F2E76B68002B60D053
:109780005E4B33400593062B62D1F0081EF0A6FD18
:1097900003906968039810F05BFD00270191049124
:1097A000019BDC00AB681C192068002857D00428F6
:1097B0006DD086426FD1009B022B0ED12B68019891
:1097C000083B2B600130696810F042FDAB68C900AE
:1097D000CB58002B00D00423236020008CE00834F9
:1097E000B9E7009B012B00D085E02B68D9086B6896
:1097F000994210D104316960A868C9001DF02EFF9C
:109800002B686A68DB08D21ADB00A860D200C01897
:10981000002119F09FFA07222868C308591C02404A
:10982000C9000A432A60AA68DB00D318334A1E60C5
:1098300018001640062E5FD001212A788A432A702C
:109840005AE0009B012B56D1280000F05BF897E707
:1098500031000220FEF718FB4310039399E7009BA9
:10986000012B48D12968CB080133DA0007230B40CC
:1098700013432B60002F00D1270000237B60059B42
:109880003E603800062B37D02B78012226E0002FCF
:1098900009D1270007E0029B002B04D13100FBF720
:1098A000E3F8002887D101986968013010F0D0FCF6
:1098B000049B01918B4200D072E7009B012B1AD1CF
:1098C000002F0ED02B68380008332B6000237B60FC
:1098D000059B3E60062B0FD02B78009A93432B708C
:1098E0000AE0280000F00EF86968039810F0B0FC58
:1098F0000491019154E7002007B0F0BD070080FFFC
:109900009CED0200F7B5436804000193591C002345
:1099100017481A58914205D904335C2BF9D1012517
:109920000D4300E01500E800A7681DF093FE072333
:1099300022686560134001223D0000262360134326
:109940002370A060019B9E420DD02968002907D09A
:10995000042905D001222000FFF7D4FE6B68436084
:1099600001360835EEE738001DF089FEF7BDC04628
:10997000C01303000022F8B5076813490500866884
:10998000781C5358984205D904325C2AF9D1012336
:10999000184300E01800002428606C6080001DF06F
:1099A00059FEA860BC420BD0A300F158002905D095
:1099B000042903D0012228001EF0A4FD0134F1E7A0
:1099C00030001DF05CFEF8BDC013030010B54A68FE
:1099D00001491CF030F810BD21AE030070B5150030
:1099E00012680C008368002A09D1CC000621181DDA
:1099F0002143FFF787FE00281ED043681BE01A7939
:109A0000180092070BD50D4A934215D10C4E736C7A
:109A1000002B03D101201FF0C9FA7064706C06217D
:109A20006A68E4002143002A02D11FF002FB01E032
:109A30001FF0F5FA00232B6070BDC0462C210300F7
:109A4000A4080020F8B50625C3001D430700012225
:109A500029000C48FFF756FE06004068002810D188
:109A60000C301DF0E5FD084B040003604760012049
:109A70001FF09CFA2A00A0606E211FF0D0FA20008F
:109A80007460F8BDC80800201C14030010B5032141
:109A9000014802F0E3F810BDC408002010B50C0026
:109AA0000621C000014301220248FFF72BFE44605B
:109AB00010BDC046C808002073B50625C3001D436D
:109AC0000600002229000F48FFF71CFE041E17D1D4
:109AD000020029000C48FFF715FE041E11D06A464B
:109AE00008214068FEF7B8FA009B002B08D000213F
:109AF0006A4608001EF088FB61683000FFF7CEFF61
:109B0000606876BDC80800205814030070B50500D1
:109B100014001EF0D3FD024B2560636070BDC0468B
:109B20007B86020010B50C007F2906D801211EF0AB
:109B30002DFE002844D0047042E0224B99420FD8F9
:109B400002211EF023FE00283AD04022A3095242EF
:109B5000134303703F231C40BF3B1C4344702FE062
:109B6000194B994214D803211EF010FE002827D06B
:109B70002022230B52421343037080213F23A2096A
:109B800049421A401C400A430C434270847017E05B
:109B900004211EF0FBFD002812D01022A30C52421B
:109BA0001343037080213F23220B49421A400A438A
:109BB0004270A2091A401C400A430C438270C470D0
:109BC00010BDC046FF070000FFFF000007B5034BB4
:109BD000009068460193F6F701FF07BD7B860200FF
:109BE000A3230021024A5B000248D1527047C046BD
:109BF000A408002088250300A3230121024A5B005A
:109C00000248D1527047C046A408002088250300AE
:109C1000A323044A5B00D35A0348002B00D1034816
:109C20007047C046A4080020482A03008C2A03007D
:109C300010B500F0FDFF014810BDC04688250300A7
:109C40008023044A5B051B69107858438023DB029C
:109C5000181A7047180800208023044A5B051B6906
:109C6000107858438023DB02181A70471708002029
:109C700070B5084DC4012B680021181920F099F81F
:109C80002868054B00197F3000781B788342F0D29A
:109C900070BDC046680100201908002010B5C379C6
:109CA0000400002B08D0064B817900791B68C001A5
:109CB0001818013020F07DF80023237210BDC04633
:109CC0006801002010B5034903481DF086FDF6F732
:109CD000A2FAC0462FAE0300F0EE02000200124BC3
:109CE00010B518685379DB01C3181C007F34217844
:109CF000FF2908D11179C90141184978FF2910D0ED
:109D0000907988420DD091795B1801315878CBB2A7
:109D10007E2B01D0937106E0002393712378537159
:109D200001E00120404210BD68010020F82370B519
:109D30009B021A784D2A01D08023DB0280268020E6
:109D400076053469C00264422340346931691C1BC2
:109D5000001B10F0F7F92B4B2B4A187033692B4975
:109D6000E518AD185B422A4A1D402A4B521AD218F8
:109D70003300954202D219696D18FAE780238020DA
:109D80005B05C0021969401B10F0DCF90122A1211A
:109D9000641B0025204BE4111870204BE4B21C70AA
:109DA0001F4B20481A60C9001E4E456073681C4A4C
:109DB000002BFBD05358DBB2A342F5D21A49013332
:109DC0000B7001235360FFF73BFF03780500174C2E
:109DD000FD2B09D180235B051869154BC009C018FC
:109DE000C001281820600BE0FFF736FF0378803DA4
:109DF000FD2B04D0FFF730FFFD211FF0DAFF2560B7
:109E000070BDC04617080020FF87FFFF000000203C
:109E100008010020DCE503001808002019080020D4
:109E200000D00040FCD0004016080020680100204F
:109E3000FFFFFF01F0B585B0264E274A3478274D45
:109E4000200013782968013302960392C201525C04
:109E5000FF2A3DD00130C0B2984200D10120A0427B
:109E6000F4D1802300275B051B69DB090093E30124
:109E700001932B68E2019E1832783000534253411F
:109E8000FF181FF0ACFF002300280FD0009A934268
:109E900005D0DA01B25C002A08D10133F6E7286860
:109EA000019BC0181FF091FF200011E0039B0134BB
:109EB0001B78E4B201339C4200D10124029B1B7841
:109EC000A342D4D1072F02D91EF00AFDB4E7FF2028
:109ED00005B0F0BD16080020190800206801002018
:109EE000F7B507000D0001240E4B1B7801930E4BB4
:109EF0001E68019B9C4211D8E10171180B78FE2B62
:109F000009D18B78AB4206D103312A00380018F012
:109F10006FFE002804D00134E4B2EAE7FF2000E03D
:109F20002000FEBD190800206801002010B5054B77
:109F300000791B68C001181881780022033003F0F3
:109F400035FC10BD68010020F0B585B002900D0011
:109F500016000393782949D8FFF7C2FF0400002EAA
:109F600026D0FF2801D0FFF783FEFFF763FF040030
:109F7000FF2805D11F4920481DF02FFCF6F74BF9AB
:109F80001E4FC0013B680190FE2118181FF011FF01
:109F90003B68019AE9B2981802301FF00AFF38684E
:109FA000019B2A00C0180330029907F09DF802E0D7
:109FB0003300FF281BD00C201DF03AFB039B002B25
:109FC00001D00F4B00E00F4B03600C4B04711B687A
:109FD0004471E4011C19A378C67102338371012313
:109FE00003726B461B7B4372030000E000231800E2
:109FF00005B0F0BD4CAE0300A0F0020068010020E7
:10A000004C220300A022030007B501A904F07EF84A
:10A010000199FFF765FFFF2805D1054905481DF0A7
:10A02000DCFBF6F7F8F8FFF723FE03480EBDC04649
:10A0300062AE0300A0F0020088250300F7B501928C
:10A04000027A05000091002A01D1FFF73BFEC47996
:10A05000002C06D1214A17680279D201D25D002A6C
:10A0600023D1092201201A60404236E02879C0013C
:10A0700038184078FF2824D0C01A824200D9020044
:10A080000198061B964200D91600002E24D0009A93
:10A09000C91810190131320018F0D2FDAB799B19A3
:10A0A000DBB27E2B0FD0AB71A41969797E22C90176
:10A0B000791808007F30AB790078D21AFF28DFD1F9
:10A0C000D4E70022DCE70023AB716B79DB01FB18DE
:10A0D0007F331B786B71E7E72000FEBD680100202D
:10A0E000F0B585B00393037A040000910292002B2F
:10A0F00001D1FFF7E7FDC379002B07D0294A037987
:10A100001268DB019B5C029F002B1BD109233EE000
:10A1100060793368C00118187F3001991FF049FE3B
:10A12000019B6179D801336818181FF042FE6379EA
:10A130003268DB01D3187F331B786371009B7F1B70
:10A140005B190093002F27D07E22A379D51ABD4238
:10A1500000D93D00134E60793268C0011018C01854
:10A1600001302A00009906F0BFFFA3795B19DBB22A
:10A170007E2B13D10023A371FFF75CFE0190FF2813
:10A18000C6D12079FFF774FD002323721C23012020
:10A19000039A4042136003E0029801E0A371CDE707
:10A1A00005B0F0BD68010020002170B508001CF06A
:10A1B00090FD012405000C4B1B78A34212D30B4ADF
:10A1C000E3011068C0180378FE2B08D181780022C3
:10A1D000033003F0EBFA01002800F8F71BFB013411
:10A1E000E4B2E8E7280070BD1908002068010020EB
:10A1F00073B501A903F08AFF0199FFF771FEFF28EB
:10A2000005D10F490F481DF0E8FAF6F704F80025CC
:10A210007E260D4B1C68C301E31859789B780233E6
:10A22000DBB2C201A2187F321078FF2803D0F21AE5
:10A23000AD180023F5E7C81A40191DF0DCFE76BD05
:10A2400062AE0300A0F002006801002010B5024BCE
:10A25000024A1EF0C6FD10BD9D9C0000DD9C000062
:10A2600070B5060008001EF0A3FA05001EF08DFB75
:10A27000041E06D12A0008490848F9F79FFDF5F7A2
:10A28000CAFF30001EF0D4F90121020003002000B3
:10A29000FEF7C4FC70BDC04671AE030098F2020028
:10A2A00010B504001EF084FA1EF009FD0300012021
:10A2B00083420CD0064920001EF096FA20001EF0C2
:10A2C00077FA1EF0FCFC023843425841400010BDB2
:10A2D000C2AE0300F0B59DB000AF0C68032807D9EB
:10A2E000CB680025FB60042805D00D696D1002E0E5
:10A2F0000025A44BFB601C232000F91803F006FF87
:10A300007861002D56D0A04C6E21606801F092FC5F
:10A3100006006068002296210430FFF7F3F9182345
:10A32000FA18D1180400300003F0F0FE3B6B013D39
:10A330000100C318002C0CD199420AD2013B1A78B3
:10A340002E2AF9D105E0994203D2013B1A782E2A30
:10A35000F9D1013DF7D2FE695C1A2500002E01D02B
:10A36000751C2D192B006A460E33DB08DB00D31A4F
:10A370009D46220018003B6118F062FC002E08D0B8
:10A380002E233A69601C135510187969320018F0B1
:10A3900057FC29003869FEF71DFD012804D17B49CF
:10A3A0007B481DF01AFA5FE006243B69C0000443B5
:10A3B000FD617B61200003F01BFAFFF77DFB051EAA
:10A3C00015D02E21786919F0EFFE01002800002930
:10A3D00000D1D4E06B4BFA689A4200D0CFE07B69A1
:10A3E000C91A1800FEF7F6FCFFF766FBC7E0182352
:10A3F0001820FA18D2183818103B4021C0181EF047
:10A400007CF90126BD603D612C0004E07B699B5D09
:10A410002E2B05D00136FB699E4200D9A9E0F5D16B
:10A4200031007869FEF7D6FC18220823BA18386084
:10A43000D0181EF08BF9002818D132000823796952
:10A4400018303818C0181EF018F918220823BA1846
:10A45000D018FFF725FF78607B68002B15D13A688C
:10A460004C494B48F9F7AAFCF5F7D5FE182208230A
:10A47000BA18D0182F21FFF755FB3B693969F21A3A
:10A480007B69182059180823DBE73868FFF714FBAD
:10A49000041E57D13868FFF7D5FAFB6904009E42C5
:10A4A00008D13D4BFA689A4204D15E226E21806841
:10A4B0001EF0B5FD7B68012B3DD118220733BA1879
:10A4C000D0181EF03CF918220823BA187860D0186A
:10A4D0001EF03CF900220100786803F067F91221B0
:10A4E00002002000FDF710FE18220823BA18D01829
:10A4F0002F21FFF717FB18220823BA18D018274975
:10A500001EF072F918220823BA18D0181EF050F95C
:10A510001EF0D5FB022806D118220823BA18D1183C
:10A520002000FFF79DFE18220823BA180C21D0182E
:10A530001EF09AF906E018220823BA18D118200054
:10A54000FFF78EFE002D0CD07A693B699446F11A14
:10A5500063441800FEF73EFC220001002800FDF7CE
:10A56000D3FDBB68002B00D1BC60731C3B61250090
:10A5700050E7044BFA6820009A4200D1B868BD4603
:10A580001DB0F0BD88250300A408002086AE03009E
:10A5900098F20200A5AE03008C2A0300BAAE0300B5
:10A5A000F0B5050089B002AFB96016003B6007F056
:10A5B000B5FFAB687B611423F8181CF0B5FB1423BE
:10A5C0007860F8181CF0B0FB032358437B68C01870
:10A5D0008300FB602C2B0AD86B46F8682A30C00831
:10A5E000C0001B1A9D46002302ACFB6005E0F86822
:10A5F0001C301DF02AF8041EEED0AA687B692900E1
:10A600009B1A63607B682000A3613B680093BA6873
:10A610003300F8F78FFB184E002173682000636148
:10A620006B687360FAF702FF6369B86073600028B3
:10A6300002D0022803D00BE0E3681D6809E07B68C4
:10A6400005339B00E3185D68FB68002B06D10BE027
:10A650000A4DFB68002B0AD00023BB6020001DF0D0
:10A660000EF8BB68002B02D02800F5F7D4FD2800B7
:10A67000BD4607B0F0BDC046A408002088250300F1
:10A680000122030030B5134085B004004510002BB3
:10A690004DD128491D00884249D02749884246D0DB
:10A6A000264B1500984242D00323034006D1244A8A
:10A6B0000168914202D11DF0DBFC0EE0214A250029
:10A6C0002240062A05D0002B09D11F4B22689A424E
:10A6D00005D101A9200003F019FD050027E02000A5
:10A6E000FAF72AF9194B984207D1FF23DB05E01846
:10A6F0000323984310F030FEEFE7154B984205D145
:10A7000001AA694620001DF01CFC0FE0114B984285
:10A7100005D101AA694620001CF0F2FA06E00222E7
:10A7200001A920001DF0F3F9002800D0019D2800A8
:10A7300005B030BD882503008C2A0300482A030099
:10A74000F0F60200070080FF9CED0200E01203001B
:10A75000DC05030000E90200F7B506000F000092D7
:10A760000193041E00D044683800431E984120180D
:10A77000043080001CF05CFF0C4B050003600C4BA8
:10A780005B684360009B8360019BC360002E05D023
:10A790003100A2000831103018F052FA002F02D018
:10A7A0000434A40067512800FEBDC04634160300DF
:10A7B000A408002070B5060010200D0014001CF045
:10A7C00037FF034B466085600360C46070BDC046C0
:10A7D000BC150300F8B50325040028000F00504302
:10A7E000160018F0A9F93B00A022C133FF33D205AF
:10A7F0009B006060277066809D500123BB40094923
:10A80000535000231900B3420BDA2A005A43606800
:10A8100001338154606880184170606882189170BB
:10A82000F1E7F8BD0C0500000123F0B502787F497F
:10A830009340A022D205060085B053503220013843
:10A84000C046C046C046C046C046C046C046C046D8
:10A85000C046C046C046C046F1D1EFF3108C72B678
:10A860007088029000200190A120C000029C019DF0
:10A87000A54200DBDCE00324019D77686C433C19B2
:10A88000E71C03977F2527781350AF430AD0C046B3
:10A89000C046C046C046C046C046C046C046C04688
:10A8A000535009E0C0465350C046C046C046C0465B
:10A8B000C046C046C046C0464025277813502F42A8
:10A8C0000AD0C046C046C046C046C046C046C04684
:10A8D000C046C046535009E0C0465350C046C0462B
:10A8E000C046C046C046C046C046C0462778135042
:10A8F000BD060AD5C046C046C046C046C046C04692
:10A90000C046C046C046535009E0C0465350C046FA
:10A91000C046C046C046C046C046C046C04627786E
:10A920001350FD060AD5C046C046C046C046C046C4
:10A93000C046C046C046C046535009E0C0465350CA
:10A94000C046C046C046C046C046C046C046C046D7
:10A95000277813503D070AD5C046C046C046C046BA
:10A96000C046C046C046C046C046535009E0C04637
:10A970005350C046C046C046C046C046C046C0460A
:10A98000C046277813507D070AD5C046C046C0464A
:10A99000C046C046C046C046C046C046535009E007
:10A9A000C0465350C046C046C046C046C046C046DA
:10A9B000C046C04627781350BD070AD5C046C046DA
:10A9C000C046C046C046C046C046C046C0465350BA
:10A9D00009E0C0465350C046C046C046C046C046C7
:10A9E000C046C046C04627781350FD070AD5C0466A
:10A9F000C046C046C046C046C046C046C046C04627
:10AA0000535009E0C0465350C046C046C046C046F9
:10AA1000C046C046C046C046039D0134AC4200D08B
:10AA200030E7019C0134019420E7C0460C0500008A
:10AA30008CF3108805B0F0BD10B588B001AA694646
:10AA40000400F9F761FA009B022B2AD902AA3221ED
:10AA500004A8FFF75BF8019B13495A6802A81AF093
:10AA6000EAFF2000F9F768FF104BC2689A4210D144
:10AA700023680F495A6802A81AF0DDFFE368002B2B
:10AA800007D05A68002A04D00022996802A8F9F772
:10AA90006DFF04A81DF08CFE09F084FE04A81DF0D3
:10AAA00037FE08B010BDC046C6AE0300A53C00008E
:10AAB000CFAE030070B5050090B0002803D11F4849
:10AAC00019F084F838E004A8F5F78AFB041E19D1C0
:10AAD0002E68290001A8012204F0ECFA23002200CC
:10AAE000310001A8F7F7AEFC0400032009F0DEFDF9
:10AAF00020001DF07AFB0120404209F0D7FDF5F758
:10AB000085FB19E00120404209F0D0FD05990C4871
:10AB1000F9F750FF0598F9F70FFF0A49040005F00F
:10AB2000E7FD002808D10849200005F0E1FD0028D4
:10AB300002D10598FFF780FF10B070BDD3AE0300BF
:10AB400050E6020010F00200A8EE0200F7B52E4B0E
:10AB500001AA1A6007F0BCFCE1200026C00007F043
:10AB6000CBFC2A492A4805F0E1FEFDF7E1F809F09F
:10AB70007BFDF8F723FC09F05DFE264D264C2B7873
:10AB80006667012B28D1F8239B021A78234F4D2AA0
:10AB90000FD15A78502A0CD1598821481EF07DF8DF
:10ABA0003300320007213800FFF7CEF9B04208D158
:10ABB00012E0002307211A003800FFF7C5F900282A
:10ABC00002D01EF074F807E0A620012215494000CB
:10ABD000FDF7A4FF1DF032FB2B78002B11D102F002
:10ABE0003FFB0028F8D0104820F095FA08220021F9
:10ABF0000E4818F0AFF80023903423601DF0F1FAEE
:10AC0000F7BD02F08BFBECE76C0100200038002060
:10AC100000120020DC000020A408002000AF030088
:10AC200004E003001806030008AF03001009002029
:10AC300007B505F013FF054B01A81968091A890823
:10AC400005F0BEFE05F01EFF07BDC0466C010020EA
:10AC500030B58DB005006846F5F7C2FA011E0ED179
:10AC60002A1D01201DF0D0FA0122EB6804005B10C0
:10AC700001335B001343EB60F5F7C8FA0BE0019872
:10AC8000064A0368934205D0054A0024934202D045
:10AC9000F5F7C1FA002420000DB030BD9CF1020090
:10ACA0004CF0020010B5040010201CF0C1FC044B55
:10ACB000036023684360636883600123C36010BD41
:10ACC00070160300002805D0012809D18B685B00AD
:10ACD000184306E08B680348002B02D1024800E0CD
:10ACE00000207047482A03008C2A03007FB5040027
:10ACF0000122080001A9FAF7C5F8002221794020B5
:10AD0000FCF788FE0100060002980FF01BFA62684B
:10AD10000500130A984208D9A368C1187143E06876
:10AD20001CF09CFC2379E06003E01B1A1B02D2B2EA
:10AD300013433200A06863607043E3686A431818E5
:10AD4000019917F07DFFA36802485D19A56004B062
:10AD500070BDC04688250300F7B5FF26476804008C
:10AD60000191B7431DD101793A004020FCF752FE12
:10AD7000636805001E408023A1681B011E43083143
:10AD800041436660E0681CF069FC6368E0601A0A91
:10AD9000A368013A01336A435D433900401917F053
:10ADA000D9FF2079019BA268E168FCF787FFA368BF
:10ADB00003480133A3606368013BFF3B6360FEBD52
:10ADC0008825030010B5040010201CF043FC024B42
:10ADD0004460036010BDC046D416030070B50A7904
:10ADE00004000D00002A09D119491AF053FD01236E
:10ADF000AA68E968200002F03FFC23E015491AF038
:10AE00001AFEAB68002B1DD0134920001AF042FD3A
:10AE10000026AB689E4211D2002E03D00F492000BD
:10AE20001AF038FD3200E9682879FCF715FE012296
:10AE300001002000F9F79AFD0136EAE708492000F1
:10AE40001AF028FD074920001AF024FD70BDC04605
:10AE500016AF030022AF03002DAF0300595D0300BE
:10AE6000C38B030098880300F8B5002207000D008B
:10AE700001004020FCF7CEFD061E05D10C490D480F
:10AE80001CF0ABFCF5F7C7F910201CF0D1FB0A4B06
:10AE90000400002F00D0094B28002360FBB2A560FE
:10AEA000704363601CF0C4FBE0602000F8BDC04646
:10AEB00031AF0300F0EE02004C170300101703003F
:10AEC00070B506008AB00C001500122839D033D8AE
:10AED000052800D082E004A9012220001DF0FDFE1B
:10AEE00007A928000122F9F7CDFF069B0022039352
:10AEF0006B464020197BFCF78DFD06000100089889
:10AF00000FF020F9069BA16803936B4605004118DA
:10AF1000187BFFF7A9FF059B04001A000499C0687D
:10AF2000039317F08DFE2A000598E3687243181802
:10AF3000079917F085FE52E01B2836D01F2805D050
:10AF40004CE011002000FFF7D1FE48E0012207A9E4
:10AF500028001CF0DCFD0323002813D01C423BD149
:10AF6000204B22689A4237D104A9012220001DF00B
:10AF7000B4FE0123079A00930599089B04981EF0DC
:10AF8000ADFA26E0EA070DD41D4203D1164B2A681C
:10AF90009A4207D003232B40022B1DD1134B1D4097
:10AFA000062D19D01248FDF783FE012204A92000C6
:10AFB0001DF093FE012207A928001CF0A8FD00281F
:10AFC0000AD0089B059A00930499079B30001CF057
:10AFD000D0FC084C002802D1074C00E000242000DF
:10AFE0000AB070BD4C170300F0F60200070080FFA6
:10AFF00005BE0300482A03008C2A0300F0B50500B3
:10B0000087B00E00002808D08B0724D10B68264A91
:10B01000934202D0254A93421DD1012203A9300058
:10B020001CF075FD002816D0002229004020FCF7F6
:10B03000F1FC0700010004980FF084F806000100FD
:10B040002800FFF711FF320004007A430399C0681B
:10B0500017F0F6FD24E03000F9F774FE071E00D06B
:10B06000471039002800FFF7FFFE04003000FDF70D
:10B070006FF8002600900098FDF7BAF8031E0FD075
:10B08000002F04D119002000FFF766FEF3E7721CC1
:10B090000192E16832002800FCF710FE019EEAE709
:10B0A000200007B0F0BDC046402503004C17030048
:10B0B00070B5050086B0161E44D003200840041E5B
:10B0C0002CD1224B0A689A4228D103AAA868F9F722
:10B0D00041F9002802D11E48FDF7EAFD2000042EA8
:10B0E00031D1220029794020FCF794FC049B060012
:10B0F0000093039B28790193019A009B991AFFF70B
:10B10000B3FE04000399049AEB68521A7143724328
:10B110005918C06817F094FD200014E00A000023BD
:10B12000A9682868F9F7CAFD02002879042E03D11E
:10B13000E968FCF791FC06E03300E968FCF7BEFD26
:10B14000044800E0100006B070BDC046A82103000E
:10B15000618503008825030037B50C00110000222B
:10B160001D00009201232000F9F7B8F9002C04D14A
:10B1700021002000FFF778FE1BE02968CB0705D4EB
:10B180008B0713D10B4B0A689A420FD10800F9F7CD
:10B19000BDFC010005000020FFF766FE04002A0048
:10B1A0000021C06817F0D6FD200002E00020FFF764
:10B1B00025FF3EBDF0F602000300F0B5443387B032
:10B1C000040018000F00019300261DF0ACFA20695E
:10B1D000431C18D00A2804D120001DF0BBFD012615
:10B1E000F5E7F8F707FD002822D12369232B08D1C2
:10B1F00020001DF0AFFD23695A1CE8D00A2BF7D1BF
:10B20000E5E75C2B06D0E369256AA363E563002FBD
:10B2100012D117E020001DF09DFD23690A2B07D0F5
:10B22000E369A363236AE363042340342370FEE2EB
:10B2300020001DF08FFDCAE7012B03D10622012D4E
:10B2400000D081E1676A002F05DA2300072240332E
:10B250001A70013706E0002F06D023000622403383
:10B260001A70013F6762BFE1002E3AD0A36A002B3B
:10B2700037D12100052240310A706362226BB44B42
:10B28000606BD3185B001B5A013D9D4200D1CEE29A
:10B2900014D9E16A8A4207D3083149001CF0DEF96B
:10B2A000E36A60630833E362236B5A1C2263626BB8
:10B2B0005B009D52636A0133636295E1236BA44A8C
:10B2C0009A185200125A954205D2013B2363636AD1
:10B2D000013B6362F2E7954200D1A8E202230B70C2
:10B2E00082E12069431C1BD1994A236B616B9B1837
:10B2F0005B005A5A23004033002A00D126E1052280
:10B300001A7000236362924A236B9A185200525AB1
:10B31000002A00D18BE2013B2363636A013BF1E722
:10B32000272800D183E1222800D180E1752804D0AC
:10B33000102302009A43622A04D16369272B11D09B
:10B34000222B0FD0722803D16369622B2CD104E029
:10B35000622829D16369722B26D1A369272B01D0DA
:10B36000222B21D1752803D120001DF0F3FC5EE1D2
:10B3700062280ED120001DF0EDFC0023029323690A
:10B38000722B00D04DE120001DF0E4FC012302935C
:10B3900047E1722800D04AE120001DF0DBFC236960
:10B3A000622BF0D0012343E1F8F730FC216900283B
:10B3B00003D15F2901D07F291ED923000822403301
:10B3C0001A70C9B201981DF006FA20001DF0C2FCE7
:10B3D0002069431C00D107E1F8F718FC002801D0D0
:10B3E000217CEFE720695F28FAD07F28F8D8F8F7AA
:10B3F00019FC0028F4D1F7E00800F8F713FC002846
:10B4000008D02600216940362E290CD10A230025B8
:10B41000337019E023692E2B55D16069F8F702FCCF
:10B420000028EED14FE009230025337030290BD1DD
:10B43000626917331343623B162B03D8454FDF4035
:10B4400001231F4001253D400198FEF76BFB2000C2
:10B450001DF080FC20272069431C00D1C4E0002D92
:10B4600013D10300BB43452B0FD13B3B3370652108
:10B470000198FEF757FB20001DF06CFC21690222A9
:10B480000B002B3B9343E6D116E0F8F7BFFB0028F7
:10B4900003D021692E2909D10CE02069F8F7C2FBFD
:10B4A0000028F6D123692E2BF3D09DE00B00BB437F
:10B4B0004A2B01D10A2333700198FEF733FB200099
:10B4C0001DF048FCC7E721692E2903D00026224D34
:10B4D00002222BE026000198FEF724FB20001DF03D
:10B4E00039FC236940362E2B00D08CE165692E2D66
:10B4F00000D088E129000198FEF714FB290001988B
:10B50000FEF710FB20001DF025FC20001DF022FCA2
:10B510000D2379E1B94211D03B00633B9343DBB289
:10B52000681C002B06D10500013601352F78002F4D
:10B53000F0D103E0452FF7D1013EF4E720001DF0E4
:10B5400009FC002F0AD10122230040331A704BE07E
:10B55000FFFFFF7F0120400069AF03003700013586
:10B560002B78652B0CD16B78226901379A4205D173
:10B57000200001351DF0EEFB3E0001E00235EFE753
:10B580002B78452B0AD16B7822699A4204D120008E
:10B590001DF0E0FB3E000EE001220EE0632B0AD11D
:10B5A0006B78226901379A4205D120001DF0D2FB49
:10B5B00002353E00D4E79F4B9A5D230040331A705A
:10B5C000230040331B78042219009143422901D003
:10B5D000442B02D1A36A013305E0432901D0452B56
:10B5E00002D1A36A013BA362200040300378082BFC
:10B5F00000D01CE10023E56C8F4EA46C9A00915999
:10B6000000228F18944204D13A78002A00D0FDE03D
:10B6100001E18F5CBC46AF5CBC4500D0F6E0013276
:10B62000EFE723000C2240331A70012306E00023C9
:10B63000029323000B2240331A70002304932369E2
:10B640000393222B01D02723039320001DF082FBBC
:10B650000123039A0593236993420BD11300626976
:10B66000934207D120001DF075FB20001DF072FBF6
:10B6700003230593002627697B1C00D1A9E0059BC5
:10B68000012B02D10A2F00D1A3E0059BB34200D8C1
:10B69000A6E0039B9F4205D1190001980136FEF7F1
:10B6A00041FA92E0F9B25C2F00D08AE020001DF050
:10B6B00051FB029B25693900002B69D1622D28D0EE
:10B6C00012D84E2D4BD007D8222D66D0272D64D00E
:10B6D00000260A2D79D045E05C2D5ED0612D00D189
:10B6E0008DE0552D3ED11CE0742D00D189E007D8A6
:10B6F0006E2D10D0722D12D0662D33D10C254FE057
:10B70000762D0AD00DD30227782D16D06B1C5BD076
:10B7100028E0082544E00A2542E00B2540E00D25FD
:10B720003EE0049B002B04D05C210198FEF7FAF95F
:10B7300036E00827752D00D1043F0025013F2AD3AC
:10B7400020001DF007FB26693000F8F777FA002883
:10B750004BD030001CF027F82D012D18EEE73748AC
:10B76000FDF7A6FA2B00303B072B10D803261D004F
:10B770006369303B072B0ED8013E002E0BD0200012
:10B780001DF0E8FA2369ED00303B5D19F0E75C211C
:10B790000198FEF7C7F96B1C16D0294B9D420BD8B8
:10B7A000049B002B04D129000198FEF7BBF90BE0A4
:10B7B000FF2D01D8E9B204E02300012240331A70C2
:10B7C00002E001981DF007F8002620001DF0C2FAE3
:10B7D00051E7059BB34203D92300032240331A707B
:10B7E000310001981DF040F8FEE6230001224033AD
:10B7F0001A70049B0500002BDCD11D00D3E7072540
:10B80000CEE70925CCE74A233370EDE60133222B3E
:10B8100000D0F3E60BE0212B07D10A4BA8331A68BE
:10B820000E23002A02D1023300E00E33037007B06A
:10B83000F0BDC0463EAF030098170300ABAF030056
:10B84000FFFF1000A408002010B504000C201BF01E
:10B85000EFFE034B446003600223037210BDC04639
:10B86000101A030010B5040010201BF0E1FE044B79
:10B870000360237A0371636883600023C36010BD93
:10B88000A819030010B5040010201BF0D1FE044BD2
:10B8900084600360034B43600023C36010BDC04657
:10B8A00048130300458F020010B504301CF00BFE56
:10B8B000004810BD88250300002806D001280BD1C0
:10B8C0004B68DB085B00184307E007224B6803481E
:10B8D000934302D1024800E000207047482A030049
:10B8E0008C2A030010B5034903481BF076FFF4F7D8
:10B8F00092FCC0461CB00300D0F4020070B51500E5
:10B900001A001C00FDF7FEFE002802D04368002B41
:10B910000AD12B1E04D1074B022C01D1FFF7E2FF05
:10B92000012C05D1436003E0022C01D100224260CA
:10B93000180070BD88250300F8B504000D000B7ACF
:10B94000124A9B00995819F0A5FF1149200019F0DF
:10B95000A1FF2800FFF786FF0126070038001DF031
:10B96000FBFA051E0CD0002E03D10A49200019F065
:10B9700091FF012229002000F8F7F8FF0026EDE7EB
:10B980000549200019F086FFF8BDC046681803007D
:10B9900024B00300595D030027B0030030B5002533
:10B9A00085B001A9040001951DF0B6FAA84205D1A1
:10B9B0000A490B481BF011FFF4F72DFC636802A93C
:10B9C000083B63600368029343680393042328C021
:10B9D0000220FBF7C9FB05B030BDC0462AB003000A
:10B9E000D0F40200F0B513681400012287B00F688C
:10B9F0000D000092D90802230600F8F76FFD022E11
:10BA000022D103236868034016D101682C4AC96813
:10BA1000914211D12A68904216D0059305A9686811
:10BA20001DF07AFA061E0FD0381D01223168FDF78D
:10BA300069FE73684360F1E7FCF78AFB03900398A3
:10BA4000FCF7D6FB002801D1002526E0FCF780FB9F
:10BA50000500FCF7CDFB02902800FCF7C9FB0600AF
:10BA60002800FCF7C5FB029B002B03D0002E01D061
:10BA7000002805D0134914481BF0AFFEF4F7CBFBA8
:10BA8000381D01220299FDF73DFE4660D7E7A36805
:10BA9000EE009959002904D1013563689D42F6D31F
:10BAA0000AE00429F8D0381D0122FDF72BFEA36817
:10BAB0009E1973684360EFE7044807B0F0BDC046C5
:10BAC000B5BC000049B00300F0EE02008825030079
:10BAD00073B50C0015001B280BD000231F2838D18C
:10BAE000081D00222900FDF70DFE1B4B002830D158
:10BAF00017E00323194208D1184922688A4204D169
:10BB00002B4002D12968914223D0AB0709D1144BB5
:10BB10002A689A4205D16A686368534007229343B2
:10BB200001D0104B15E0019301A920001DF0F4F99C
:10BB3000061E0DD0281D00223168FDF7E3FD002808
:10BB4000EFD041687068F8F78FFF0028ECD1E8E784
:10BB5000014B180076BDC046482A03008C1803002C
:10BB6000C81803008C2A0300F7B50B681C4A0400B0
:10BB70000D00934203D05A681A4919F05CFF1A4924
:10BB8000200019F087FE00230127019301A9280056
:10BB90001DF0C2F9061E15D0002F03D11349200055
:10BBA00019F078FE012231682000F8F7DFFE104915
:10BBB000200019F06FFE012271682000F8F7D6FE10
:10BBC0000027E3E70B49200019F064FE2B68044AC4
:10BBD000934203D00849200019F05CFEF7BDC0462F
:10BBE000C818030079B003007DB00300595D03005D
:10BBF00061D60300638B03009888030010B504002E
:10BC00000C201BF015FD034B4460036000230372FE
:10BC100010BDC046101A030010B504000C201BF024
:10BC200007FD034B446003600123037210BDC0464F
:10BC3000101A030010B504300022FDF763FD002840
:10BC400005D1044904481BF0C8FDF4F7E4FA406844
:10BC500010BDC0461CB00300D0F4020010B5024B6A
:10BC600008C01CF011FC10BDC8180300F8B507008F
:10BC700048680E00FCF76CFA0400F9F763F80C4D05
:10BC8000022F00D9B568002800D040101DF08EF9B1
:10BC900006002000FCF7ACFA011E06D0331D01227D
:10BCA0001800FDF72FFD4560F3E73000F8BDC046F2
:10BCB00088250300F0B5070089B000201E000D00A4
:10BCC00001921DF073F90E4B040007609F4203D1EF
:10BCD0000422037913430371019B2B430DD0336876
:10BCE000AA00B218019905A8039404931CF0DEFB86
:10BCF000681C05AA03A9FFF775FE200009B0F0BD76
:10BD00008C18030010B5002A02D11DF092F90DE045
:10BD1000042A09D104300022FDF7F4FC002801D1E7
:10BD2000FFF7E0FD406802E01DF079F9004810BD22
:10BD300088250300052370B50400094A094D1068E1
:10BD4000434309481B199B0018582B681460C018FE
:10BD50000F23194009012860F4F796FC70BDC04616
:10BD60007001002074010020701A0300A83903003C
:10BD700000B5080006292ED80EF0C6F9040A1015E1
:10BD80001B2027009A18E223DB00D218107826E047
:10BD9000C4329200D05C8006800E20E0C432920053
:10BDA000D05AC00403E0C4329200D0580003400EC1
:10BDB00015E0C43292009A1890780AE0C4329200DA
:10BDC0009A18D0780007000F09E0C43292009A1840
:10BDD000D078000903E00020014A024B1A6000BD40
:10BDE00072B7030010000020A83910B50400080045
:10BDF000062946D80EF088F9040A131E29333B00A1
:10BE0000E221A218C900521813703DE03F20C4324D
:10BE10009200115D034081430B43135534E07F21B1
:10BE2000C43292000B409901105B184B03400B4346
:10BE3000135329E07F21C43292000B40105914495A
:10BE40005B0301400B4313511EE00F21C4329200EB
:10BE5000A21890781B0101400B43937014E00F204F
:10BE6000C4329200A218D1780340814306E00F212A
:10BE7000C4329200A218D0781B0101400B43D3704A
:10BE800002E0044A044B1A6010BDC0463FE0FFFFC9
:10BE9000FF1FF0FF7DB7030010000020F0B5D2B205
:10BEA00085B00F000393072113000B40013BDBB269
:10BEB000042B02D92C4D2D4C25608A431902019187
:10BEC000002A08D12A4BC55C2D09ED43EBB23D7821
:10BED00000932C0022E0D4432649E4B2CF5C08252D
:10BEE000254B019A1B199B5C7F225E00F6B293439F
:10BEF00004D005210220FFF71DFF05E039000120D5
:10BF0000FFF718FF002FF4D0013DEDB23300002DF4
:10BF1000EAD10134E4B2002CE1D121E00826164B2D
:10BF2000019A1B199B5C5A00D2B202927F22934362
:10BF300002D01A21032001E006210420013EF6B2BE
:10BF4000FFF7F8FE029B002EEDD1009B0134E4B216
:10BF50005B1B1B19DBB2002BE0D1009BED1A3D707F
:10BF6000039805B0F0BDC04689B70300100000205B
:10BF70001907000091BB0300A0B003000022F0B538
:10BF800005000F24FF208BB008AB654E0191DA71DC
:10BF90000300C4339B00EB189A781109715C2240AE
:10BFA00009010A439A70DA781107090F775CA243F6
:10BFB00027403A431109715C224009010A43DA70B3
:10BFC0000138E5D2E223DB00EE5CB308F31ADBB202
:10BFD0000693544B1B68002B0BD0E222C421812016
:10BFE000D20089000001019BAA1869182818FDF7E2
:10BFF0002BFB0024482327000493039402948122FE
:10C000002B1912019B181B781800059307239843DE
:10C010000BD008A92300059A07312800FFF73EFF3F
:10C02000019B0230C4B2023B37E03F4B029A9C4670
:10C030009B5C19002300C4339B00EB189A7812090B
:10C040000A433A498A5C039907926246DB78525C5C
:10C050001907090F0A4335491B098A5C3449C95D30
:10C060000B4307998A183149C95C01238918FF2AB3
:10C0700000DC031CC918882309061B06C918090F10
:10C080000020FFF757FE049B013BDBB20493002B1B
:10C090000AD1019B0134E4B2013BDBB20193019B65
:10C0A000002B3BD02B780493013EF6B2002E0CD12E
:10C0B000E22200272B19D2009B181E780397B308A1
:10C0C000F31ADBB20693029799E7069B013BDBB2BA
:10C0D0000693002B02D1059B002B16D12200C432FF
:10C0E0009200535D02999B069B0ECB18DBB2029324
:10C0F000535B0399DB045B0ECB18DBB203935359FC
:10C100001B035B0EFB18DFB279E708A92300059A31
:10C1100007312800FFF7C2FE0400C9E70BB0F0BDED
:10C12000ECB8030034010020CDBB0300ECB70300E2
:10C130004DB90300064B1B5C002B05D0054B185C6A
:10C140004843C011C0B201E0034B185C7047C046C1
:10C15000EDBA030096BB0300A0B50300064B1B5CC1
:10C16000002B05D0054B185C4843C011C0B201E05C
:10C17000034B185C7047C046EDBA030090B603004D
:10C1800041BB0300F0B5037A8DB004007F2B00D1D2
:10C1900057E10300070000250933FF3308370993EF
:10C1A00001953E787F2E03D10023059301939DE0F6
:10C1B000012E03D12B00019A310004E0022E05D19B
:10C1C0002B00FF21019A20001CF07FFF9E4ABB78C4
:10C1D000A178D3185B7830000193FB780293FFF7C6
:10C1E000A9FF3F23E178034030000393FFF7B6FF38
:10C1F0007F22964B9B5D1A40954B04929A5D0F23CC
:10C200001A400592934A925D1A400692924A925DB4
:10C210001A4007923F22914B9B5D08937B78EB1865
:10C22000DBB20A93039B134003937F2318408301DF
:10C230009C462A003F21C4329200135D8B43039930
:10C240000B431355115B864B0B4061460B43135355
:10C25000049B10595903834B18400B0003430F20D4
:10C2600005991E0C0640090113513143A2181B0EFB
:10C27000069E917083430799334309011840084390
:10C28000D0706946202081220918631909781201AB
:10C290009A181170E222D2009B180299019A013576
:10C2A00052181A700A9BEDB29D42C2D1099B043705
:10C2B0009F4200D075E777E76B49CE5C8D5C6B4998
:10C2C000AE421CD18D5CCB5C0493039B597A019BDD
:10C2D0005918CBB20193049BEB18DBB20793023BD6
:10C2E0001B0614D5059B0133DBB20593059B9B0010
:10C2F000E31803931A7A1B7B7F2BDDD17FE05C4828
:10C30000AE4201D9C55CDEE78D5C835CDCE7A82624
:10C31000019B5D1BEBB20693A82E18D1039B310045
:10C320005F7A5A7B7F085208BB180293019B20005A
:10C330009A18D2B2DF1BFFF719FDFFB205003A00D1
:10C3400031002000FFF712FD2D1AEDB211E0049B21
:10C35000019A31009A18D2B22000FFF707FD069A21
:10C36000050031002000FFF701FD079B2D1AEDB2FB
:10C3700002937F222B006DB293430893EB17E818CA
:10C38000584002990EF04EF82800CBB2029909935A
:10C390000DF062FF0025C3B20A93069F029BDB19D2
:10C3A000DBB20B933A0031002000FFF7DFFC0A9B61
:10C3B00001370B9A1818FFB2C3B297421AD0099AE4
:10C3C000AD18029AEDB2AA420ED8AD1A20216A46E3
:10C3D00052181278EDB252B2002A03DB002B03D0C0
:10C3E000013300E0013BDBB23A0031002000FFF7EF
:10C3F000FBFCD7E70136F6B2AF2E8DD172E7059B75
:10C4000002339B00E3185978019B59186368C9B23D
:10C41000002B03D02000FFF7B1FD12E0E2228025BF
:10C42000D200A0186D001A00C4329200125D067886
:10C430009206D20EB21A013302700130AB42F2D131
:10C44000E8E70DB0F0BDC046C7B60300F0B5030085
:10C450004DBA03009CB7030040B60300FDB80300CB
:10C460003FE0FFFFFF1FF0FFD2B6030022B703003B
:10C470009DBA030070B505000C200C001BF0D8F825
:10C48000024B45600360846070BDC046041B03001E
:10C490000023820708D10268044901338A4203D08D
:10C4A000034BD31A5A425341180070471C1D030016
:10C4B000E41B030070B506000D000124B44206D24F
:10C4C000A300E95828681CF088FE0134F6E701480B
:10C4D00070BDC0468825030010B5040010201BF075
:10C4E000A7F8044B84600360034B43600023C360E0
:10C4F00010BDC04648130300BB92020070B5050092
:10C5000010201BF095F80400074B696808C01BF069
:10C51000EFFFAB68E968A3606B68E0689A0016F00B
:10C520008FFB200070BDC0461C1D03000023F7B523
:10C5300004000D0001938B0705D10B68214FDF1B11
:10C540007A427A410192AB68002B08D1019B002B03
:10C5500003D01D49200019F09DF91C492EE0019BD4
:10C56000002B03D01A49200019F094F91949200032
:10C5700019F090F9002601236A68964216D2B2009B
:10C580001700EA68D259002A0ED0042A0CD0002BDA
:10C5900003D11149200019F07DF9EB680122D95926
:10C5A0002000F8F7E3F900230136E5E70B49200006
:10C5B00019F070F9019B002B03D00949200019F0F4
:10C5C00069F9F7BDE41B0300CDBC0300D4BC030034
:10C5D000DABC03007DB00300595D0300638B0300E8
:10C5E0009888030010B5FFF753FF002805D10349D1
:10C5F0000348F7F7E3FBF3F70EFE10BDE5BC0300BD
:10C60000E0F3020070B50D000400FFF7EBFF280017
:10C61000FBF79EFD05002800FBF7EAFD011E08D090
:10C62000231D002218001BF06DFF0028F3D00248E4
:10C6300000E0024870BDC0468C2A0300482A03006F
:10C6400010B583070BD10368084A93420DD0084AFE
:10C65000934204D1074908481BF0BFF803E007499B
:10C660000748F7F7ABFBF3F7D6FD10BD1C1D030021
:10C67000E41B0300FBBC030014F20200E5BC030052
:10C68000E0F3020070B50D000400FFF7D9FF2800A9
:10C69000FBF75EFD05002800FBF7AAFD011E05D093
:10C6A000231D032218001BF02DFFF4E7004870BD86
:10C6B0008825030070B50D000400FFF7C1FF2900B5
:10C6C000201D01221BF01EFF004870BD88250300BD
:10C6D00070B50D000400FFF7B3FF2900201D0222F2
:10C6E0001BF010FF004870BD8825030010B5040042
:10C6F000FFF7A6FF201D1BF091FF014810BDC046AB
:10C700008825030010B501221CF0A1FD004810BDD2
:10C710008825030070B504000D00FFF791FF201D70
:10C72000022229001BF0EEFE002804D103481BF072
:10C7300047F8F3F770FD024870BDC046D0F4020020
:10C740008825030010B50400FFF77AFF201D1BF0B9
:10C7500047FF002805D1034903481BF03EF8F3F7D3
:10C760005AFD10BD1DBD0300D0F40200F8B50E0047
:10C7700001280AD0002802D002280AD028E08B68BD
:10C780001448002B25D1144823E08B685B00184324
:10C790001FE0032500200D4085421AD10F4B0C6885
:10C7A00028009C4215D14F68AF420DD0F268AB0013
:10C7B0009958002906D0042904D00220FBF764FB15
:10C7C000401024180135EFE701206400204300E009
:10C7D0000020F8BD482A03008C2A0300E41B030054
:10C7E000F7B50700102001911AF022FF05000A4B4F
:10C7F000060008C5390028001BF07AFE0024BC4260
:10C8000008D00199A3000122C95828001BF07AFE24
:10C810000134F4E73000FEBD1C1D0300F7B5050030
:10C820000E00171E05D0FFF70BFF1A4CB54209D1B9
:10C830002EE0FFF7D7FEB54204D128001CF0DFFC44
:10C84000040025E000210800FFF7CAFF04003000C3
:10C85000FBF77EFC01900198FBF7CAFC061E0BD08B
:10C86000281D002231001BF04DFE0028F3D03100BE
:10C870002000FFF71FFFEEE7002F09D0E8681AF04D
:10C88000FEFE63686B60A368AB60E368014CEB601D
:10C890002000FEBD88250300F0B585B0040003909C
:10C8A000029101920027FFF7F3FDB84207D13A0049
:10C8B00003AB012120481CF025FD04000137029D37
:10C8C00000262800FFF7E4FDB04207D1320002AB9A
:10C8D000012119481CF016FD05000136019B002BB3
:10C8E00005D0A368AA68934201D1002311E020007B
:10C8F000FFF7F2FD019001981CF0DFFC011E07D04C
:10C900002B1D002218001BF0FDFD0028F3D1ECE7E1
:10C9100001230193002F02D02000FFF7E7FE002E35
:10C9200002D02800FFF7E2FE019B0448002B00D153
:10C93000034805B0F0BDC0461C1D0300482A030093
:10C940008C2A030037B50C001500009101921F28B6
:10C950004ED80DF0D9FB10151A4D4D4D1F4D4D4DB4
:10C960004D4D4D10151A4D4D4D1F4D4D4D4D4D24F6
:10C97000282D393E4D43110020001CF04AFC38E0C0
:10C98000110020001CF053FC33E0110020001CF0CB
:10C99000AEFC2EE0694602201CF08AFC29E0012250
:10C9A0002900200001E001222800FFF775FF20E0A8
:10C9B0000800FFF717FE2800FFF76AFD002815D0D2
:10C9C000A368AA68934211D1290020001CF0CBFC77
:10C9D0000FE0110020001CF0BEFC0AE0081D002240
:10C9E00029001BF08FFD031E024802D1024800E01F
:10C9F00000203EBD482A03008C2A0300014B5868E2
:10CA00007047C046A4080020014B18687047C04614
:10CA1000A4080020F0B5194E87B033680500002047
:10CA20000C0001931CF0C2FA3060009020681BF0EB
:10CA3000DCFB019B07003360114E022D03D0A06880
:10CA4000F7F77AFF0600210063680831A81E0393F8
:10CA5000FAF78AFB009B04900593002203AB0321A5
:10CA60003000FBF77BFA074B04009F4203D0010024
:10CA700038001EF000FA200007B0F0BDA408002026
:10CA80009C28030088250300F8B50326050007004D
:10CA90003540022D15D10E4B0340062B11D0FF233C
:10CAA000DB05C418B443201C00210DF011FD002843
:10CAB0000BD080231B06E018B043064B2843C01858
:10CAC00004E03800FAF7A6FC00E03800F8BDC046E4
:10CAD000070080FF0000808010B5FBF739FB0400E1
:10CAE0002000FBF785FB002805D0F8F74FF9002858
:10CAF000F6D1024800E0024810BDC0468C2A03006F
:10CB0000482A030010B5FBF723FB04002000FBF7C5
:10CB10006FFB002805D0F8F739F90028F6D0024855
:10CB200000E0024810BDC046482A03008C2A0300DA
:10CB300007B5044B0190002269460220009302F0E1
:10CB400055F80EBD0604000010B5F7F77BFF034B48
:10CB5000002800D1024B180010BDC046482A03002F
:10CB60008C2A030037B5F7F7D1FF01AB7F2802D835
:10CB7000187001213CE02149820988420AD84021ED
:10CB800049420A431A703F221040BF3A104358707E
:10CB900042312DE01A49040B88420ED82021494227
:10CBA0000C431C7080245F310A40644208402243D9
:10CBB00020435A7098703C391AE01249884211D8C3
:10CBC0001025810C6D42294319703F21703D0C40A6
:10CBD0000A4008402C432A4328435C709A70D8705E
:10CBE0003B3905E0084909481AF0F7FDF3F713FB54
:10CBF0000122180000F0DAFD3EBDC046FF0700002C
:10CC0000FFFF0000FFFF100033BD0300F0EE020045
:10CC100010B5020002490A20FBF72CFB10BDC046EC
:10CC2000BE04000010B5020002490A20FBF722FBF7
:10CC300010BDC0463E050000F0B585B001920290DF
:10CC40000C000022324901980393FCF75BFD009031
:10CC5000002801D043680093029B012B03D00025DC
:10CC60002E0001953CE020680024FBF771FA2700B4
:10CC700002900298FBF7BCFA051E17D0009B2E000D
:10CC8000002B04D0290018001BF0B6FA0600002C77
:10CC900009D03A0031000398FBF7ECFA1D4B98429B
:10CCA00001D025003E002C003700E2E7221E2BD1E8
:10CCB00019490198FCF726FD002801D0426823E0BD
:10CCC000164917481AF089FDF3F7A5FA009B002BC7
:10CCD0000AD12768002E0DD126680197013504344A
:10CCE000029B9D42F2D10EE0216800981BF084FA6D
:10CCF0000700EFE7019A39000398FBF7BBFA054BF1
:10CD00009842EBD1E8E73200100005B0F0BDC04614
:10CD1000D6060000482A03001E05000054BD03008B
:10CD2000F0EE020037B501A9050001F0EFF91E4B46
:10CD300004002B40062B05D0AB072AD11B4B2A68D9
:10CD40009A4226D1019920001AF009FD019001288C
:10CD500022D1207843B2002B04DB0123207840004D
:10CD6000184320E07F23013418403F3B034202D0A8
:10CD700098435B10FAE73F222378190091438029FA
:10CD800004D18001134001341843F5E71BF033F957
:10CD900009E0019B012BE0D0019A05490548F7F70E
:10CDA0000DF8F3F738FA3EBD070080FF9CED020056
:10CDB0006DBD0300E0F30200F0B5140087B00290EF
:10CDC0000391002223492000FCF79CFC002205006F
:10CDD00021492000FCF796FC0123040004930593ED
:10CDE0001E4F002D07D068681D4B984203D004A940
:10CDF00001F08CF907001B4E002C07D06068184B1F
:10CE0000984203D005A901F081F906000024029B95
:10CE1000154D9C4212D0002C07D00023049A019398
:10CE2000009339002800F3F765FC0399A300002262
:10CE3000C9582800F7F79AFD0134E8E70023059A5E
:10CE40000193009331002800F3F754FC044807B025
:10CE5000F0BDC046EE050000F6050000D8DE030078
:10CE60008825030007AD030050E602007FB50D4D95
:10CE70000400A84213D00C4E012201003000F7F745
:10CE800075FD0A49300018F005FD04230293084B94
:10CE90000394DB6902AA03210648019398472800FE
:10CEA00004B070BD8825030050E6020007AD030002
:10CEB0001C140300581D030010B5040086B06A4618
:10CEC00002A81021FCF722FE012221006846F7F794
:10CED0004DFD02A9024800F033FC06B010BDC0466B
:10CEE0009CED020070B50C6803002000E2074AD4F4
:10CEF000A20703D1244A2568954244D0012B1FD9AB
:10CF00004868F7F703FE06002000F7F763FE051CEC
:10CF100030000EF043FA011C1C4811F04BF9011CC3
:10CF2000041C281C0DF066FF10F0EEFD211C0DF016
:10CF300097FD03239843013B1843154BC01822E08B
:10CF40002000F7F747FE051C10F0DEFD061C0EF072
:10CF500003FA311C0400281C0EF060F8FC2189053E
:10CF6000051C0DF0AFFA002801D0013406E0BF2106
:10CF7000281C09060DF0A6FA002801D001239C43C5
:10CF800020001BF038F870BDF0F6020000002041D0
:10CF90000000808013B50400080000F029FC6A46F8
:10CFA00001002000FBF758F8009B0248002B00D13D
:10CFB000014816BD482A03008C2A030037B5002417
:10CFC000022800D98C6848680D6800F011FC094BF4
:10CFD0000100002C00D0084B28006A4698470098B2
:10CFE000002805D00199002903D0FFF743FA00E09B
:10CFF00020003EBDB98000005980000070B50400DB
:10D000000800150000F0F4FB2A0001002000FBF7E7
:10D010007BF8014870BDC0468825030010B5FBF7BA
:10D02000BFF8002804D103481AF0CAFBF3F7F3F85D
:10D0300010BDC0469CF1020030B50B0085B0140055
:10D04000012805D90A490B481AF0C7FBF3F7E3F8A2
:10D0500009480121C2680192019D0022A8472200CF
:10D06000039003A90120F5F739FC039805B030BD02
:10D07000A7BD0300E0F3020000E90200F8B50E00CE
:10D08000002803D1294B04001D6821E008688307AC
:10D090000AD10368264A934203D11BF0C9FA05005E
:10D0A0000CE0244A934201D0F7F746FC856B002D33
:10D0B00004D0214B2A689A4200D000253068F7F747
:10D0C0003BFC1E4BC26800249A4201D134680434F0
:10D0D0000021080019F0FDFD00270600002D09D1F0
:10D0E0000025002C16D11FE0EA68FB0099580029A2
:10D0F00004D10137AB689F42F6D3F1E70429F8D099
:10D100003000F5F787FBF4E7A268EB009958002997
:10D1100004D1013563689D42F6D305E00429F8D0B7
:10D120003000F5F777FBF4E73000F8BDA4080020E5
:10D130001C1403009C280300C818030061030100AD
:10D1400070B504000D00104918F0A4FB69680122B5
:10D150002000F7F70BFC0D4E2000310018F09AFB71
:10D16000A96801222000F7F701FC3100200018F027
:10D1700091FBE96801222000F7F7F8FB0449200041
:10D1800018F088FB70BDC046D2BD0300595D030096
:10D190009888030070B5060010200D0014001AF0E6
:10D1A00047FA034B466085600360C46070BDC046AB
:10D1B000A8210300F0B593B0060006A80F001400E4
:10D1C000F3F70EF8051E23D13368310001263A002B
:10D1D00003A8019301F06EFFA3082A0033400199D0
:10D1E00003A8F5F72FF90500032007F05FFA2800E0
:10D1F0001AF0FBFF0120404207F058FAF3F706F857
:10D20000344203D03100134807F084FA012518E0B6
:10D210000120404207F04AFA01210C4202D00D4899
:10D2200007F078FA0798F7F787FB0B4903F060FAE5
:10D23000051E04D107990948F7F7BCFB01E08025DA
:10D240006D0001210C4202D0024807F063FA280069
:10D2500013B0F0BD04BE030010F0020050E602005F
:10D260001FB52021684680241BF028FA6400254859
:10D270001DF051FF68461BF056FA23481DF04BFF86
:10D2800007F030FA0128F2D002280AD11F481DF019
:10D2900042FF68461BF03CFA01221D4B00201A7029
:10D2A0002DE0032803D168461BF03DFAE8E7042887
:10D2B00004D0C1B268461BF08EFAE1E715481DF0B4
:10D2C0002AFF019A002A08D110481DF024FF684661
:10D2D0001BF01EFA8020400011E0962000230299E6
:10D2E0004000F9F7BBFE002803D10B4816F06CFB99
:10D2F000C0E701221100FFF75DFF2042BAD004B061
:10D3000010BDC046D9BD03002DAE030006AD03001D
:10D31000DC000020F4BD0300F7BD030070B586B04B
:10D32000202102A880241BF0C9F9640044481DF0A4
:10D33000F2FE44481DF0EFFE02A81BF0F4F942494A
:10D3400002A81AF06BF9012809D140481DF0E3FE4C
:10D3500002A81BF0DDF900203D4B18706EE002289A
:10D3600003D13A481DF0D7FEE0E703281AD004287D
:10D3700008D136481DF0CFFE02A81BF0C9F9802065
:10D3800040005BE0052825D132481DF0C4FE02A80C
:10D390001BF0C9F907F0A6F96B46C1B2DD1D297073
:10D3A000032901D12948C5E7042904D127481DF0E4
:10D3B000B2FE012527E002A81BF00DFA2B780D2BF9
:10D3C00003D125481DF0A7FEE4E70121280007F05E
:10D3D000A1F9DFE702A81BF0B9F90028ACD002A838
:10D3E0001BF0E6F9F6F7A6FD00280BD00A2102A8EB
:10D3F0001BF0F1F9194902A81AF010F90328D1D04D
:10D400000428ECD1002502A81BF099F9060002A817
:10D410001BF09CF902009620002331004000F9F730
:10D420001DFE002803D10E4816F0D0FB84E706222B
:10D430002900FFF7BFFE204200D17DE706B070BD96
:10D4400006BE03004BBE030071BE030006AD030021
:10D45000DC00002076BE0300A6BE0300ADBE0300C4
:10D46000AB94030037B50400A068FAF7C1FE019041
:10D4700000280ED06568074B9D4205D001AB002205
:10D4800001212800FAF76AFDF7F780FC0028EBD0AD
:10D4900001983EBD88250300C3790248002B00D1C6
:10D4A00001487047482A03008C2A030010B5FCF796
:10D4B000F5FB014810BDC0468825030010B508687B
:10D4C000FCF7ECFB004810BD8825030073B50D0088
:10D4D000022823D1012601A9686800F017FE7642D0
:10D4E0003400019BC31883421BD00178722901D0FC
:10D4F000772905D1621C0ED172394C424C4108E0AB
:10D50000622901D0742906D1721C04D174394E42AB
:10D510004E410130E7E70E490E4813E001267642FE
:10D52000340001A9286800F0F1FD734273416242A2
:10D530006241DBB2D2B20199FCF706FD002805D1A9
:10D54000054906481AF049F9F2F765FE76BDC0466E
:10D55000D8BE0300F0EE020062AE0300A0F00200AD
:10D5600030B5072402784160A243053C2243027093
:10D570007F22039C05882240D400034A83602A400E
:10D580002243028030BDC04607FCFFFF10B50724D0
:10D5900003782140A34319437F2301700499048831
:10D5A0000B40D900084B426023400B430380039B90
:10D5B00004685B05D90A054B23400B430360029BBB
:10D5C0008360059BC36010BD07FCFFFFFF03E0FF06
:10D5D000032230B502400121002A04D1094C03681E
:10D5E0000D00A3420CD00B0003401D1E07D1002AE2
:10D5F00006D1036804481B1A5D425D4100E0012525
:10D60000280030BD502A0300F0F6020010B50400D7
:10D61000FFF7DEFF0123002809D103220300224087
:10D62000022A04D1034B2340063B581E83410120AC
:10D63000184010BD070080FF10B51AF052FA0349D8
:10D6400002000348F6F7BAFBF2F7E5FDE5BE03007A
:10D65000E0F3020010B50400102019F0E9FF044BBC
:10D6600084600360034B43600023C36010BDC04669
:10D670004813030087970200F7B50E0001930400DA
:10D680008B180A0000210093009B93420ED9137857
:10D69000272B04D0223B58424341DBB201E0002358
:10D6A00001210132002BEFD0272503E02725002997
:10D6B00000D0053D1B4F2A003900200018F0BBF9AF
:10D6C000009B9E4227D23278954202D12A00164909
:10D6D0001CE016495C2A14D01F2A09D97F2A14D0CD
:10D6E000019B002B02D053B2002B07DB39000DE069
:10D6F0000F490A2A05D00F490D2A02D0092A04D160
:10D700000D49200018F0C6F803E00C49200018F07D
:10D7100092F90136D4E72A003900200018F08BF97D
:10D72000F7BDC046FB840300FA840300FE840300B7
:10D730000185030004850300078503000A850300B3
:10D74000194B70B506000D0098420ED14968A868C3
:10D75000FBF70EFB041E08D028001AF0D9FF0023A7
:10D760000620E4002B6020431DE0102019F060FF2C
:10D770006968040081600660A868FBF7DBFA6B68E3
:10D780006060591C2B68994202D1AB68E36003E0EA
:10D79000A86819F063FFE06000232000E268A16838
:10D7A0005354AB602B6070BD9CED020070B504005B
:10D7B0000D00002A02D0FBF70DFB03E0FBF7D8FABF
:10D7C000002803D00623C000184304E02A002100EB
:10D7D00001481BF0A3FE70BD9CED020010B50A00CD
:10D7E000010002481BF09AFE10BDC0464025030010
:10D7F0000A4B10B50340062B01D1C0080CE083078B
:10D8000008D1074B02689A4204D18168C068FBF7CF
:10D81000E1FA01E0FFF710FF10BDC046070080FFEE
:10D820009CED0200064B10B50340062B03D1C00847
:10D830001AF063FD02E08368C0680B6010BDC0464B
:10D84000070080FFF0B50F00002689B01100050029
:10D850001C003800009603233200F6F73FFE0E202E
:10D86000B74238D0012F0ED102AA04A81021FCF72C
:10D870004DF9216802A83200F7F778F804A92800CA
:10D88000FFF75EFF27E0206883071BD1134B026878
:10D890009A4217D104A9FFF7C5FF114B0600206873
:10D8A0000340062B04D1C0081AF018FD040000E064
:10D8B00044681020049F19F0BBFE05608760C660B5
:10D8C000446008E0012204A9F7F7DCFA0022059978
:10D8D0000498FFF76BFF09B0F0BDC0464025030078
:10D8E000070080FFF0B58BB0049008680D00069229
:10D8F0000793F7F721F806006868F7F71DF88642E6
:10D9000002D06868FFF798FE08A92868FFF78AFF29
:10D91000040009A96868FFF785FF089A0590A31815
:10D920000393049B2700022B19D9AB681D498B4236
:10D9300006D00121300000912100F6F797F807008A
:10D94000049B032B0BD0EB68164A934207D00122AD
:10D95000210000923000089AF6F788F80390039BA4
:10D96000059AD91B069B38000093099B1BF0B6FD56
:10D97000002809D1079B0138002B11D00A490B4818
:10D9800019F02BFFF2F747FC094B9E4204D101002E
:10D99000200019F0D5FE00E0001B012440002043C8
:10D9A0000BB0F0BD8825030011BF0300F0EE0200AC
:10D9B0009CED0200F0B58DB004000391F6F7BCFFBA
:10D9C00004A906002000FFF72DFF019003988307AC
:10D9D0000BD10368314A934204D106AA05A91AF073
:10D9E000B0FA10E02E4A934208D02D480022C368B6
:10D9F00001210293029C03ABA047039006AA05A94C
:10DA0000039819F07DF900242500059B9C421ED245
:10DA1000069BA700D859F6F78FFF864205D021490B
:10DA2000214819F0DAFEF2F7F6FB002C01D0049B36
:10DA3000ED18069BD8591D4B0340062B03D1C00897
:10DA40001AF051FC00E080682D180134DDE7290050
:10DA5000002508A81AF049FE0A9C059B9D4217D292
:10DA6000002D06D02000049A019915F0E9F8049BD6
:10DA7000E418069AAB00985807A9FFF7D3FE079A57
:10DA80000100200015F0DCF8079B0135E418E4E7FD
:10DA900008A93000FFF754FE0DB0F0BDDC0503000F
:10DAA00000E9020025BF0300E0F30200070080FF49
:10DAB000F0B5070087B008680D00F6F73DFF04A930
:10DAC00006002868FFF7AEFE05A904006868FFF7A6
:10DAD000A9FE03902000022F07D901230093AB6811
:10DAE000049A21003000F5F7C1FF059A041B049B3E
:10DAF000A418064D9C4205D8039915F079F8002822
:10DB000000D1034D280007B0F0BDC0468C2A0300A9
:10DB1000482A030073B50C00060069462068FFF729
:10DB200081FE01A905006068FFF77CFE0100022E5E
:10DB300002D90848FBF7BCF8019A009B064C9A42B0
:10DB400006D89B1AE81815F053F8002800D1034CAA
:10DB5000200076BD6ABF03008C2A0300482A030018
:10DB6000F0B58FB0079010680C001700F6F7E4FED0
:10DB70000690012C10D07868F6F7DEFE069B8342F3
:10DB800002D07868FFF758FD0DA97868FFF74AFEC4
:10DB90000D9B0890099303E0072309932C4B0893EE
:10DBA0000DA93868FFF73EFE0D9B0B900493079B71
:10DBB000012B05D1049B5D1E01235B420A9302E009
:10DBC000012300250A9300242600049B0394059357
:10DBD000059B002B22D00B9B09995A190123089809
:10DBE00000931BF07BFC002812D1039B002B0ED16D
:10DBF000079B002B03D1049B2E005D1E19E0079BA1
:10DC0000012B15D001232C002E00039300E02C00E3
:10DC10000A9BED18059B013B0593D9E7039B002B5D
:10DC200008D10C4B069A0E209A420FD00A480DE0FC
:10DC3000039E2C00049B0134A21B934201D138683F
:10DC400004E00B9B069899191BF068FC0FB0F0BD1F
:10DC500038C303009CED02004C230300F0B589B0EB
:10DC6000049008680D00F6F767FE07006868F6F78D
:10DC700063FE874202D06868FFF7DEFC06A92868C9
:10DC8000FFF7D0FD060007A96868FFF7CBFD069AED
:10DC90000590B3180393049B3400022B19D9AB6889
:10DCA0001E498B4206D00121380000913100F5F762
:10DCB000DDFE0400049B032B0BD0EB68174A934254
:10DCC00007D00122310000923800069AF5F7CEFE07
:10DCD0000390079B0025002B10D1039B2000191BEC
:10DCE00019F03DFD01304000012514E005992000A8
:10DCF00014F07EFF002807D101353400079A039BFA
:10DD0000A618B342F2D204E0200019F010FD06007C
:10DD1000F3E701206D00284309B0F0BD882503001A
:10DD2000F0B58BB00E0007000392F6F705FE040075
:10DD30003000F6F701FE844202D03000FFF77CFC91
:10DD400005A93800FFF76EFD06A905003000FFF7B2
:10DD500069FD069B0200002B05D11A491A4819F0EB
:10DD60003CFDF2F758FA19498C4201D10E2100E02E
:10DD700017490791089109910399002901DD079737
:10DD800000E0099703992800009105991BF0A6FB74
:10DD9000002811D0471B3A00290020001BF0BEFBD1
:10DDA000059B0699DA1B521A79180790691820000A
:10DDB00008961BF0B3FB099007A90320F9F7D4F9E3
:10DDC0000BB0F0BD7CBF0300F0EE02009CED020042
:10DDD0004C23030010B5010001481BF0B3FC10BD3B
:10DDE0007F77020010B5010001481BF0ABFC10BDAD
:10DDF00093770200F7B50600080001A9FFF712FDAE
:10DE0000019B0500002B01D1144826E0144B0400AF
:10DE10009E4201D1002712E0124B9E42FAD0019A95
:10DE2000631B9A4218D92078B04701340028F6D1F4
:10DE3000EAE72078F5F7EAFE002805D10134019AD7
:10DE4000631B9A42F5D805E02078B0470028DBD064
:10DE50000127F3E7002FD7D00348FEBD8C2A03002B
:10DE6000753C00008D3C0000482A030010B50100FD
:10DE70000148FFF7BFFF10BDF53B000010B50100E2
:10DE80000148FFF7B7FF10BD0D3C000010B50100C1
:10DE90000148FFF7AFFF10BD253C000010B50100A1
:10DEA0000148FFF7A7FF10BD753C000010B5010049
:10DEB0000148FFF79FFF10BD8D3C0000F0B585B015
:10DEC00006000C001700F6F737FD69460500300024
:10DED000FFF7A8FC0600042F22D1A30715D1124B8F
:10DEE00022689A4211D101AA21000098F6F732FA6D
:10DEF000002802D10D48FAF7DBFE0199029A2800AA
:10DF0000521A71181BF00AFB0BE000232200009943
:10DF10002800F6F7D3FE0123305C4000184300E0F0
:10DF2000002005B0F0BDC046A821030061850300B4
:10DF300070B51D008AB0002968D01868354C030000
:10DF40002340062B05D083071ED1334B02689A422B
:10DF50001AD10239012953D806A9FFF763FC06003C
:10DF600028680440062C04D1C0081AF0B7F9040050
:10DF700000E044681020069D19F05AFB274B85608D
:10DF80000360C660446042E0012939D80122104292
:10DF90000CD04410210006A81AF0A7FB089B220011
:10DFA00000211800019314F0D5FE24E003A919F014
:10DFB000AEFD002805D0049A039918481BF0AEFA6C
:10DFC00025E02868F6F7BEFE1021002800D0411099
:10DFD00006A81AF073FB2868FAF7BAF804002000C4
:10DFE000FAF706F9002806D0F6F790FDC1B206A8A8
:10DFF0001AF0F1FBF3E706A90848FFF7A1FB06E0DA
:10E000000749084819F0E9FBF2F705F906480AB094
:10E0100070BDC046070080FF9CED02004025030054
:10E020008CBF0300E0F302004C23030073B504002F
:10E03000080001A91600FFF7F5FB0500042E06D124
:10E040000300019A0749200017F0F5FC09E0064992
:10E05000200017F01FFC0123019A29002000FFF780
:10E060000BFB73BDF5840300FE920300F7B50200BD
:10E070001A4B05000C001A401E00062A08D10B405E
:10E08000401A062B26D0E8081AF028F9070000E00D
:10E0900047682640062E03D1E0081AF01FF900E079
:10E0A0006068002F05D0002803D0874201D00020EF
:10E0B00013E069462800FFF7B5FB01A90500200021
:10E0C000FFF7B0FB009A019B01009A42EFD12800B4
:10E0D00014F08EFD44426041C0B2FEBD070080FFD7
:10E0E000084B07B50340062B08D0830704D102680C
:10E0F000054B92699A4201D0FFF79EFA01A9FFF7FA
:10E1000091FB0EBD070080FFF1E600000A4B13B53E
:10E1100003400C00062B08D0830704D10268074B8C
:10E1200092699A4201D0FFF787FA01A9FFF77AFBBB
:10E13000019B236016BDC046070080FFF1E600008A
:10E14000F0B59BB00B900491079210210EAA12A873
:10E150000993FBF7DBFC049B079A934200D3A9E2E7
:10E16000049B19785D1C7D2908D1079BAB4203D91C
:10E17000049B59787D290FD0B44930E07B2903D026
:10E1800012A81AF028FB72E0079B2C00AB4233D98F
:10E19000049B59787B2904D112A81AF01CFB049522
:10E1A00065E07D2910D021290ED02E003A290BD010
:10E1B00033787D2B5FD0212B5DD03A2B5BD0079B32
:10E1C0000136B342F4D117E00026230034001A7858
:10E1D000212A52D107995A1C914205D89C499D4841
:10E1E00019F0FBFAF2F717F85A780592723A012AF9
:10E1F000F4D80233994242D89749F0E716A81AF0AA
:10E2000087FA059B002B00D17DE1002E00D120363E
:10E21000089B002B00D081E1059B3D2B00D186E1BE
:10E220005E2B00D185E13C2B01D13B3B1D433800E7
:10E23000FFF7CEF9002800D1C3E1632C00D18DE1B6
:10E2400000D97FE1472C00D875E1582C00D1A7E117
:10E25000622C00D0AEE1002303930D9B02220293B7
:10E2600061230196009539000EA8F2F7A1FA049BEC
:10E27000013304936FE73300A9E7002205920021E0
:10E280001A7804913A2A00D006E25A1C5B7804926C
:10E290007D2B11D01300012207998B42ACD2197843
:10E2A0007B2901D1013205E07D2903D1013A002A01
:10E2B00000D1F1E10133EFE7079B049A93429BD928
:10E2C00000230693049B1B787D2B01D0634986E7CE
:10E2D000002C42D0002320781693F5F7A3FC2500EC
:10E2E000002820D0099B1B680893002B01DD5C49A6
:10E2F00075E716AA310020001BF0D7F8209A169B6C
:10E30000013A05009A4232D9219A01339B009F5865
:10E310000122099B52421A601AE02B782E2B04D05E
:10E320005B2B02D00135B542F7D3291B0122200017
:10E33000FFF73CFA0022040001002298FBF7E2F903
:10E34000002804D12100474819F040FA4AE74768FD
:10E35000B54215D24448FAF7ABFC099B1B68002B69
:10E3600001DA42493BE7209A013A934202D34049FD
:10E37000404835E7013321999A005758099A1360AC
:10E38000069B002B04D1059B002B00D181E102E00C
:10E39000059B002B12D010AA102116A8FBF7B6FB84
:10E3A000059A3900733A531E9A4110A8D2B2F6F773
:10E3B000DDFA16A93048FFF7C3F9070001235B42D5
:10E3C0000D931093069B002B00D198E004F0A6F863
:10E3D000229B049A0293219B06990193209B16A8E5
:10E3E0000093099BFFF7ACFE16A81AF0E1F9179B02
:10E3F0000678C3180A930023040005939E4216D0A2
:10E400001E4D3100280015F0CFFE002800D047E156
:10E4100063780593002B09D01900280015F0C4FE7D
:10E42000002800D040E10590060000E0059E23781A
:10E4300008932B2B05D02D2B05D00425202B1FD185
:10E4400002E0022500E0002501341BE0A6BF030026
:10E45000CEBF0300F0EE0200E7BF0300FFBF0300E2
:10E4600023C00300D0F4020086C00300A3C0030051
:10E470006DC003004CF002009CED0200EDC00300F3
:10E48000002508952378232B02D1133B1D4301342B
:10E490002378302B07D1059B002B01D13D33059309
:10E4A000002E00D130360DAA0A9920001AF0FDFF87
:10E4B000037806902C2B04D10C3B1D430300013341
:10E4C0000693069B1B782E2B06D1069810AA0130C6
:10E4D0000A991AF0EAFF0690069B1C78002C07D0D8
:10E4E0002100794815F060FE002800D0DEE004002D
:10E4F000069B1B78002B00D180E674496FE6069DD1
:10E500002C002E0008953800FFF780F83C23059377
:10E51000002800D179E60233059376E6732C01D109
:10E520006B495CE6632C00D076E66A4957E64023E7
:10E530007CE680237AE6452C43D2002C19D0252C8A
:10E540003FD037E0672C02D8652C12D339E06F2C0E
:10E5500018D0782C24D06E2C2CD10AE03800F6F795
:10E56000D5FA0D9B16A908700122019300962B0085
:10E5700081E0002303930D9B019602930095612394
:10E580000A2270E6EB0602D580239B001D43002380
:10E5900003930D9B0196029300956123082262E686
:10E5A0000022230003920D9A173B029201960095D8
:10E5B000102258E6380019F094FA22000300464968
:10E5C00063E03800FFF722F8002838D0002C1FD075
:10E5D0006E2C1DD0472C15D8452C1AD2252C27D1AE
:10E5E00038008024F6F7F6FA3C490CF003FC109B47
:10E5F000640002930D9B2C430193011C00962300A1
:10E60000662211E02300653BDBB2022B10D800E04C
:10E6100067243800F6F7DEFA109B220002930D9B68
:10E62000011C01932B0000960EA817F0B7F91EE607
:10E63000380019F056FA22000300294925E0059B0D
:10E640003D2B01D12749CAE5002C01D0732C16D1EE
:10E6500016A93800FFF75AFD109B0100169A002BEF
:10E6600000DA1092109B9A4200D916930D9B169ACD
:10E6700001932B0000960EA8F2F73CF8F7E538005E
:10E6800019F02FFA2200030017491848F5F796FBF6
:10E69000A8E5732305937EE6049A0493069211E697
:10E6A000059601340026C2E60234C0E6069B01331B
:10E6B00006931DE70B9A12AB13CB13C21B681360B2
:10E6C0000B981BB0F0BDC046F2C0030002C10300AE
:10E6D0001BC1030047C103007AC103000000C84208
:10E6E000ABC10300DFC1030014C20300F0EE02005F
:10E6F000F0B5A1B004000D000D920A2800D0DFE1B2
:10E70000073C0692144010D11368B64A934206D1D2
:10E710000FAA10A9069819F014FC06940BE0B24A4F
:10E72000934202D10F94109405E00DAB0F93012397
:10E73000109300230693109B11A908930F9B2800A8
:10E740000993FFF76FF800230A900B93AB0705D1ED
:10E75000A64A2B689B1A5A425A410B9214AA1021BE
:10E7600018A8FBF7D3F9119A002794460A9B0A9C34
:10E7700063440593059BA34200D894E121782529A1
:10E7800003D018A81AF027F88BE1059B661CB3424A
:10E7900001D8974915E06178252904D118A81AF005
:10E7A0001AF834007DE10025282919D1A01C0600A3
:10E7B00000E001363378292B08D0059BB342F8D806
:10E7C0008C498D4819F009F8F1F725FD311A01221D
:10E7D000FEF7ECFF01000698FDF72CFA0500013664
:10E7E000002334004022002604210C932033079399
:10E7F000059BA34211D923782D2B01D12C3B02E09C
:10E800002B2B02D1293B1E4312E0202B01D10E43BA
:10E810000EE0232B0AD0302B05D000231293059B4A
:10E82000A34207D81EE01643079301E010230C9380
:10E830000134DDE723782A2B0ED1089A3B00BA4237
:10E8400001D86E4933E1099A9B009858F6F75EF9B2
:10E8500001371290013405E0200012AA05991AF040
:10E8600024FE040001235B421393059BA34290D92D
:10E8700023782E2B1ED1059B601C834289D9637897
:10E880002A2B0CD1089A3B00BA42DAD9099A9B008C
:10E890009858F6F73BF901371390023406E000234D
:10E8A00013AA059913931AF000FE0400059BA342D6
:10E8B00000D86EE7002D07D1089A3B00BA42C0D9B4
:10E8C000099A9B009D5801372278672A0FD8652A3C
:10E8D00068D2582A00D1CAE004D81300453B022B65
:10E8E00060D9D5E0632A12D0642A40D0D0E0732AE0
:10E8F00007D8722A00D38BE0692A38D06F2A61D0FA
:10E90000C6E0752A33D0782A00D1B0E0C0E03C4B95
:10E910002B40062B05D0AB0713D13A4B2A689A42FD
:10E920000FD11CA92800FFF7F1FB1C9A0100012A56
:10E9300001D03549BBE0129B0193202300933300A3
:10E940000FE02800FEF744FE00280ED02800F6F75E
:10E95000DDF8129B1CA9087001932023012200936B
:10E96000330014A8F1F7C6FE9BE028499FE003227C
:10E970002B0028001340022B09D1214B2B40062BE2
:10E9800005D0FF23DB05E8189043F8F76BFD139BD8
:10E9900000960393129B0A220293079B01000193A6
:10E9A000612371E02800F6F715F9139B2278029392
:10E9B000129B011C0193079B14A80093330016F0CF
:10E9C000EDFF6EE00C9B002B02D084239B001E43C6
:10E9D000139B00960393129B08220293079B0193BB
:10E9E000612350E0DC050300C81803004025030044
:10E9F00046C2030058C20300F0EE02006EC20300DC
:10EA0000070080FF9CED020095C20300AEC2030028
:10EA100016AA10211CA8FBF779F823780122722B83
:10EA20000BD000220B9B934207D0AB0705D12B687C
:10EA3000654A9A1A514251418A00290016A8F5F7F1
:10EA400095FF139B1D9A002B00DA1392139B9A4299
:10EA500000D91A00129B1E990193202314A8009339
:10EA60003300F1F747FE1CA819F052FE19E013001D
:10EA7000139A173B0392129A0292079A01920C9AE8
:10EA8000164310220096290014A8F1F791FE08E021
:10EA90000A9B4E49E41A009413004D48F5F78EF98D
:10EAA00092E6013466E6089BBB4202D049494A48D7
:10EAB00088E60B9B4448002B00D1484818A96FE01A
:10EAC0000800F5F739FF16A906002800FEF7AAFE90
:10EAD0000700072C1ED118A90D98F6F755F8002548
:10EAE000A8426ED01899A94205DC3C4B0E359E42D7
:10EAF00067D03B4D65E0169B1CA8594319F0F5FD06
:10EB00001E9B169A059300930121189B380018F05C
:10EB1000FCFE43E00D98F5F70FFF864206D11CA9D5
:10EB20000D98FEF77FFE1C9D05900DE0264B0025FD
:10EB30009E4246D101221CA90D9818F0E8FFA84278
:10EB40003FD01C9B1D9D05931D2C06D8192C2BD244
:10EB5000052C0DD0122C0BD032E01F2C30D101230C
:10EB6000059A009316992B0038001AF0B7FC22E0A2
:10EB7000169B1CA8E91819F0B8FD1E9B169A3900BF
:10EB80001800069314F05CF8169A1E9B94460693A0
:10EB9000634418002A00059914F052F830001CA9AB
:10EBA000FEF7CEFD05000CE00095059B169A390096
:10EBB000200018F0DEFE0B4D002802D10A4D00E0C7
:10EBC0000025280021B0F0BD40250300BFC203008E
:10EBD000F0EE0200F4C20300E0F302009CED02003C
:10EBE0004C230300482A03008C2A030070B50C0054
:10EBF0008AB0050004A920681600FEF713FE002362
:10EC00000593049B0100C218029605AB06A8019467
:10EC10000095FFF795FA06A90248FEF791FD0AB0A4
:10EC200070BDC0469CED0200F0B5050087B00868D5
:10EC30000C00F5F781FE0090012D07D96668022DC2
:10EC400005D0A068F5F762FF050002E0444E0125FB
:10EC50006D420021080018F03CF804A901902068DA
:10EC6000FEF7E0FD049B0400C7183D4B9E4230D1E7
:10EC7000A74272D92078F4F7BDFF002826D00134CE
:10EC8000F6E7002D60D026003078F4F7B3FF0028B7
:10EC900003D10136B742F7D13E002100321B009864
:10ECA0001AF03CFC01000198F3F7B4FDB74254D9C7
:10ECB00034002078F4F79EFF002803D00134A742E7
:10ECC000F7D13C00EB175B1BDB0FED1AA742D8D83E
:10ECD00043E03000F5F730FE009B834202D0300065
:10ECE000FEF7AAFC05A93000FFF710FA059B039078
:10ECF000002B25D11B491C4818F06FFDF1F78BFA4A
:10ED0000029BF3189F4209D3029A0399300013F033
:10ED10006FFF002803D00136002DF1D13E00210005
:10ED2000321B00981AF0FAFB01000198F3F772FD0C
:10ED3000B74212D9059BF418EB175B1BDB0FED1ADA
:10ED4000059B26000293E7E721003A1B00981AF082
:10ED5000E5FB01000198F3F75DFD019807B0F0BDF8
:10ED6000882503007CBF0300F0EE0200F0B50D0023
:10ED70008BB0022802D8FFF757FF7DE00868F5F74F
:10ED8000DBFD08A9049028686C68FEF74BFD009035
:10ED9000A868F5F7BBFE431C060000211800059388
:10EDA00017F097FF354B05009C4202D13448F9F724
:10EDB0007FFF09A92000FFF7A9F9099B0690002B06
:10EDC00005D13049304818F008FDF1F724FA089AC7
:10EDD00034009446009B63440293B3000393099B61
:10EDE0000193019A029B9F1A002E0BD0009BBB42FD
:10EDF00008D8019A0699380013F0FAFE002821D0AD
:10EE0000013FF1E7EB68A6009F19009A029B009969
:10EE10009A1A04981AF082FB3860002C2BD0059BBC
:10EE20001F1BEB68BC0099192200180013F046FF65
:10EE30006B680021DA1BEB689200181913F08AFF47
:10EE4000AF6018E0039AEB68944663440793029B13
:10EE50000498DA1B019B013CD21AF9181AF05EFBE8
:10EE6000079B02971860F3179B1BDB0FF61A039B97
:10EE7000043B0393B3E728000BB0F0BD88250300E3
:10EE800029C303007CBF0300F0EE0200054B0028FD
:10EE900005D00023022802D101224B0013431800A1
:10EEA0007047C0468C2A030010B5024916F0F2FCE8
:10EEB00010BDC0466F950300002313B5044A046AD1
:10EEC00009050093890C8A58A16B1AF0EDFC13BD5B
:10EED000C8250300F0B587B000931B7804000F002D
:10EEE00002927C2B06D18268525C002A02D09A2AB8
:10EEF00000D0DAE01A006B3A022A29D8A568E8198E
:10EF00000378032B00D0ACE004A966681AF099FDE1
:10EF1000AB19984200D19EE00378032B00D0A0E00B
:10EF200005A91AF08EFD009B1B786B2B03D1049B67
:10EF3000059A13430AE06C2B03D1049B059A5340B6
:10EF400004E06D2BE4D1059B049A13400493DFE7A2
:10EF50006E2B04D0022219009143702964D1A3685A
:10EF6000D81901930378032B7BD1636804A9039319
:10EF70001AF067FD0600019B039A9B189E426AD017
:10EF8000B378B01C7578032B6BD105A91AF059FD25
:10EF90000600372D0ED1059A1F2A62DC4449049BD6
:10EFA000114199425DDBC021090611418B4258DBBA
:10EFB000934009E0392D09D1059B1F2B01DD1F234B
:10EFC0000593049B059A1341049328E02F2D03D148
:10EFD000049B059A9B18F7E7302D03D1049B059AF3
:10EFE0009B1AF1E7312D09D105990498F4F754FCE7
:10EFF000002836D1059B049A5343E5E7332D30D0E2
:10F000000599352D05D100292BD0049818F03BFB2C
:10F0100004E0002925D0049818F045FB0490049BD7
:10F020005A005340A7D51CE0752B1AD1A368D819F4
:10F030008378032B15D1457802301AF011FD2F2D5E
:10F0400008D0302D05D1404243000490584002D5ED
:10F0500007E0C04304906760049920001AF054FC54
:10F0600023E000226368029DDB1B0193561CED091F
:10F0700001D03200FAE7019B0135DB09FCD10232F5
:10F0800052193900200019F0BBFB0400009B029AC2
:10F090001B7831001A33037001301AF087FB701CA3
:10F0A0002018019A29001AF081FB07B0F0BDC04674
:10F0B000FFFFFF3FF0B597B00890C0200025402328
:10F0C0000AAC80000F00160025706360A56018F080
:10F0D000BCFA2561E0606561A561E5612762E562D2
:10F0E000A84202D1BF49C048CBE1331E03D004235C
:10F0F000022E00D0033B0026BC499A0000965258CD
:10F100002000B96B33001AF0CFFB102018F090FAF2
:10F110001021040019F0D2FA0AADAB68002B00D11F
:10F120008CE12A78002A00D088E1013B0C32AB60E8
:10F130005343EA68AD49D318DA785D6892005258B3
:10F1400002921A689B681202120A0393029B0592AC
:10F150005B7806930F23069A13400493002D01D188
:10F16000636803933023069A1340102B02D0202BA0
:10F1700042D0FCE0002D03D0002E01D10026CBE7C9
:10F180008021029B6A009A184901049BAB4231D945
:10F190005388180B0003884215D13800403000789E
:10F1A0001B0502321B0D984220D121000AA81AF03B
:10F1B000BAFB0028E2D13B0040331B78062B00D07D
:10F1C00054E18B4955E1049A6B1C9A4206D9039A83
:10F1D000059900920AA8029A1AF066FB029B6D003C
:10F1E0005D1969880AA8FFF767FEC7E70135CCE714
:10F1F000012DE0D801268FE7002E0BD0029A6B007C
:10F200009B5A1B0B032BF3D10121200019F0BEFAEE
:10F2100000230370029B6E009E191DE080217388FD
:10F2200049011A0B12038A4229D13A00403212785E
:10F23000DBB29A4220D1082A07D1B96CF86CF9F7F1
:10F24000C9FD010020001AF025FB002D08D0380070
:10F2500019F025FE01350236049BAB42DED810E0E2
:10F26000029B5B787F2BF2D90E9B2000591C0693E2
:10F270000E911AF049FBEAE7002DBBD09BE76B1C0F
:10F28000A5E7002380201E004001049A93420DD27E
:10F2900002995A008A185288110B0903814203D13E
:10F2A000D2B2072A00D901260133EEE7A368039AF8
:10F2B000981800230693A2686368D318984206D270
:10F2C000069B0121013306931AF093FAF3E7029BA0
:10F2D0001B781F2B01D02E2B00D10126029B5978C1
:10F2E00040230B4018004342434149B25B421E4059
:10F2F000002900DA01260025039B0495D018079504
:10F30000069B9D420FD0049A037801320492002B91
:10F3100004D0079B013307930023049301211AF0C3
:10F3200068FA0135ECE7002E02D1079B012B04D0CF
:10F330000499200019F098FA79E0A268039B94469A
:10F3400063441D00069B9E4200D117E72B78002BDB
:10F3500006D1A3680122E91A200019F093FA04E00B
:10F36000280001211AF045FA05000136EAE7002ECF
:10F3700020D10123069A1A40099205E0002A2BD0D9
:10F38000380019F08CFD0135099A02992A40530082
:10F39000CB1880215B88490107931B0B1B038B4211
:10F3A00028D13B00079940331B780905090D8B4292
:10F3B000E4D00135049B022B03D10023012D27D17A
:10F3C00018E7012D00D115E701232A001A401ED0AD
:10F3D000049A032A1CD0EEE621000AA81AF0A3FA28
:10F3E000D1E7C04648C3030070EF0200C825030000
:10F3F00070C30300039A059900920AA86B1C029A35
:10F400001AF052FA07990AA8FFF756FD84E613008E
:10F41000069A691ED20705D5029A9288120B012A14
:10F4200000D16908012902D1002B00D1A6E6029B78
:10F43000059A03992000FFF74DFD9FE62B78002BDE
:10F4400000D04FE63B0040331E78002E00D0B2E6DD
:10F450006368002B00D1AEE62B692000591C1AF01E
:10F4600053FAA3686B62EB69AB620FE0022B02D127
:10F470001449154805E00B3B14481549012B00D9E8
:10F48000144918F0AAF90023060013930D9818F0F8
:10F49000F6F8002E0BD00023BA6B39683000F4F771
:10F4A000FBFC380019F08AFC3000F0F7B4FE38009D
:10F4B00019F084FC089A13AB13CB13C2089817B049
:10F4C000F0BDC04682C30300D4F2020058F402002B
:10F4D000B6C30300A85C0300064B0139C9B219701A
:10F4E000411880310B78044A1370044AD25C044BF3
:10F4F0001A7070471A0800201B0800200BC4030074
:10F500001C080020064B0131C9B219704118803126
:10F510000B78044A1370044AD25C044B1A7070478B
:10F520001A0800201B0800200BC403001C08002040
:10F53000074B984204D9074B18184118064B03E0B3
:10F54000064B1818064B4118C91808787047C04672
:10F55000A492000091C403005B6DFFFF50C603003E
:10F560000083FFFF030020228033F0B507001A70EC
:10F570007F2000224F245F2589B0B95C531C0A000C
:10F58000DBB202406F2A02D90A002A4003E05F2A58
:10F5900001D90A002240F91880310A701A007F2B25
:10F5A000EBD1C84A13703B001B22FF331A70E432C0
:10F5B0000092531CDBB204936B46C3481B7CC349C7
:10F5C0000370049B0C00FB1880331B780B705B2BC3
:10F5D00007D19B22009B0A700133DBB20370FA54FF
:10F5E00038E02E2B14D10232D2B20270BA18803217
:10F5F0001278B4480270B648825C0120024207D1FA
:10F60000009A0B701218D2B20092BB54049AD0E741
:10F61000AC4A1370AE4AD05C022210422DD10028B1
:10F620001AD11E320A70A8490B78FB1880331A7061
:10F63000009B0133DBB200936B461B780B70009B81
:10F64000782B01D8FA54E1E79B23009ABB546B4610
:10F650001B7C2370012051E27F229043087003D16C
:10F660009C4A9D4B1A6049E2413B9C4ADBB29C4953
:10F67000D25CCB5C1202134300E09A4B0193019BD6
:10F68000002101339BB218000193FFF751FF0306DD
:10F69000F5D501238B4C0025237001230393039997
:10F6A0000198FFF745FF039B0133DBB2282802D006
:10F6B00003930125F3E7002D02D06B461B7B2370DB
:10F6C00023780133DBB2029302990198FFF730FFF0
:10F6D000029B0133DBB22928F5D17F2405930599DC
:10F6E0000198FFF725FF059B20400133DBB23D2841
:10F6F00001D00593F3E76A460026744B127C18701C
:10F70000714B049D1A70039B06955C1C6D4BE4B213
:10F710001C707B1980331B78210001980793FFF739
:10F7200007FF079B8342AAD10134029A6B1CE4B203
:10F73000DBB2944203D01D0001260693E9E7002EB8
:10F7400001D0614B1D70049C6A46039B0198013BEC
:10F75000DBB20393127B5B4B03991A70FFF7E8FE51
:10F760005A4D030600D5CEE07F22594B564E1B5C06
:10F77000307093432B7008D0013CE4B23B198033C6
:10F780001B7834709842DFD079E72870202840D069
:10F79000232847D02E284ED0262854D040286ED07B
:10F7A0005E2876D02B2800D17EE03A282CD1202567
:10F7B0009CE002990198FFF7BBFE7F22444B424E2A
:10F7C0001B5C424D934330702B7000D0ADE028702D
:10F7D000202800D10CE1232800D112E12E2800D1ED
:10F7E00018E1262800D11DE1402800D136E15E282D
:10F7F00000D13DE12B2800D145E120253A2800D158
:10F800004FE1252800D199E0374A334B00201A6098
:10F8100074E121003800FFF75FFE7F222B789343CD
:10F820003FD02CE721003800FFF756FE40222B780E
:10F83000134236D123E721003800FFF74DFE2B7825
:10F840001B072ED41BE721003800FFF745FE1022CE
:10F850002B7813402B7024D13378F9188031097834
:10F860002970482900D00AE7013BDBB23370FB184E
:10F8700080331B789343432B00D000E711E0210035
:10F880003800FFF729FE04232A7813402B7008D193
:10F89000F5E621003800FFF71FFE2B789B0600D409
:10F8A000EDE6094B1C784FE7013CE4B234703C199B
:10F8B00080342378452BF4D010229343492B00D079
:10F8C000DDE6EEE71B0800201A0800201C080020D7
:10F8D0000BC40300F7C3030010000020DDC30300C6
:10F8E00077C40300A592000001C403002100380082
:10F8F000FFF7F2FD824A13782B40137000D123E703
:10F90000804B1C78F2E7069C6A46029B0133DBB20F
:10F910000293127A7C4B1A70059B029A934200D094
:10F9200047E700247F262500CFE00134E4B23B19ED
:10F9300080331B7834709842E6D0A0E6631C714A8D
:10F94000DBB21370FB1880331B786D490B70452BAD
:10F9500038D17F26A01CC0B23B1880331B786A4D7B
:10F960002B706A4DED5CB54300D189E010700B70CF
:10F97000522B00D184E0532B00D181E0442B00D1E5
:10F980007EE04C2B08D10334E4B214703C1980346F
:10F990002378592B74D072E6462B00D06FE6E31C17
:10F9A000DBB21370FB1880331B780B70552B00D023
:10F9B00065E60434E4B214703C19803423784C2B8F
:10F9C0005ED05CE6492B00D059E6A31CDBB2137075
:10F9D000FB1880331B780B704E2B00D04FE603349E
:10F9E000E4B214703C1980342378472B48D046E6A3
:10F9F00021003800FFF786FD7F222B7893433FD00C
:10FA00003DE621003800FFF77DFD40222B781342B0
:10FA100036D134E621003800FFF774FD2B781B0740
:10FA20002ED42CE621003800FFF76CFD10222B7835
:10FA300013402B7024D13378F9188031097829705C
:10FA4000482900D01BE60133DBB23370FB1880334A
:10FA50001B789343432B00D011E611E021003800BE
:10FA6000FFF750FD04232A7813402B7008D106E6D7
:10FA700021003800FFF746FD2B789B0600D4FEE5F9
:10FA8000204B1C7840E70134E4B234703C198034D8
:10FA90002378452BF4D010229343492B00D0EEE578
:10FAA000EEE721003800FFF72DFD154A13782B40B3
:10FAB000137000D128E7134B1C78F2E7059A013246
:10FAC000D2B201060FD40125059205990198FFF7DE
:10FAD0002FFD030033403D2BF0D0009A0132D2B20B
:10FAE0000092BB54EAE7002D03D06946064A097D1F
:10FAF0001170034A1370069B049387E509B0F0BDAB
:10FB00001C0800201A0800201B0800200BC403005A
:10FB1000F0B58BB0079310AB10CB009001911B7820
:10FB2000062A11D8012A05D93F230B700B00013397
:10FB3000019301E0002A02D0002301990B700123F8
:10FB400093428041404234E2009900290BDA019B44
:10FB500001995F1C2D230B70802109068C46009BA8
:10FB60006344009305E0019F002B02D03900013768
:10FB70000B70019BFF210993009BC90518000840E9
:10FB800088421CD12023079A4E211A401300009A64
:10FB9000F81C540208D149225A403A704622594072
:10FBA00053407970BB7005E04122194353403970CE
:10FBB0007B70B97000230370019BC01AF9E1002C1F
:10FBC00000DA0624501E019A0799BD1A202211431B
:10FBD000451B0291672903D1002C12D1012410E0AA
:10FBE000002B1DD1029B662B0DD1631C9D4200DCB6
:10FBF000AC1E662303930023651C049305931E002B
:10FC0000EEE0002B0CD1631D9D4200DCAC1F029B7B
:10FC1000652B00D0D1E003933A3B00250493D0E05C
:10FC2000B14A934271D8B14900980AF06FFC431E63
:10FC3000984100230026303003932033059004932D
:10FC4000AB4B039A0099D0580AF056FC002808D014
:10FC5000049B039AF618A74B0098D1580BF0CAF8EA
:10FC60000090049B5B100493039B04330393182BB5
:10FC7000E6D115330493009A9B4B934214D39B49CE
:10FC800000980AF043FC002804D0002E09D12B2351
:10FC9000049306E0009898490BF0ACF80136009008
:10FCA00002E0FE239B050093029B662B03D0672B8B
:10FCB00021D1042E1FDC6B461B7D3B70029B672B02
:10FCC00001D1731EE418631C9D4200DCAC1E002CA5
:10FCD00000D158E12E23250030227B70BB1C013E51
:10FCE0001F00002E70D0002D03D01A70013D01338B
:10FCF000F5E7049569E06B1FA34200DD4BE1029A32
:10FD0000672A68D0AC1F130067E000230026039326
:10FD100020330493774B039A0099D0580AF0E2FB02
:10FD2000002808D0049B039AF618714B0098D1580C
:10FD30000BF060F80090049B5B100493039B04336A
:10FD40000393182BE6D16C4900980AF0DFFB0028DA
:10FD500005D0009869490BF04DF801360090029BE0
:10FD6000662B0AD1AE420BDA331901339D421DDCFA
:10FD7000AD1BAC1E1AD56C1E18E0029B652B09D179
:10FD80006B1FA34230DC2B23AC1F00250493059589
:10FD90003A331EE0029B672B2DD1231D9D4200DCD0
:10FDA0006C1FA64200DBE8E0731CE41A002335193F
:10FDB00004930135059666330BE00025029B0495FC
:10FDC000039305952E000BE0049601235B420593F7
:10FDD0006733039304E01C00029B00250393059501
:10FDE000E343DB171C400CE02B2304930023059313
:10FDF0006533039308E0029B002503932B230595AD
:10FE00000493039B652B01D1651C06E0039B672BC4
:10FE100003D1251E01D101252C0000230693069B4A
:10FE20009D4220DD00980BF097FA7B1C089303009D
:10FE300030333B70059A069B934205D1002C03D0CA
:10FE4000BB1C08932E237B700BF0A8FA011C0098B2
:10FE50000BF0E4F828490AF0CDFF069B009001332F
:10FE60000693089FDBE7029B662B02D1012E61DC23
:10FE700097E0234900980AF049FB00284DD0302133
:10FE80007B1E1A782E2A01D1013BFAE71000303888
:10FE9000092801D9013303E0392A03D001321A704D
:10FEA000019303E0019A19709342EDD1019B1B78F5
:10FEB000302B29D1019A52782E2A0BD10399662929
:10FEC00008D001994B70049B0A702D2B01D1013E83
:10FED00000E0013601373B00019A9A4212D25A1EC5
:10FEE000117819701300F7E7FFFF7F3FF8FF7F3F9E
:10FEF000842803006C28030000002041CDCCCC3DB9
:10FF00000000A040312313702B4B009A9A4204D872
:10FF1000039B663B5A425341E41A029B672B09D16B
:10FF2000002C07DD3B00013F3A78302AFAD02E2A18
:10FF300000D01F00049B002B1AD02023079A0A210F
:10FF40001A401300452213433B706B461B7C300064
:10FF50007B700AF081F90A210AF064FA3031B97035
:10FF600030000A210AF05EFA3C1D3031F97027009A
:10FF700000233B70099BF81A1BE0672303933C3B6B
:10FF8000002504932BE701235B4205936733013778
:10FF90000494039303E0029B03930023059300253D
:10FFA0002FE7064900980AF0B1FA002800D066E76A
:10FFB000C0E70BB0F0BDC046FFFF7F3F0000A04090
:10FFC000F8B504000D00A368002B0AD0344AE96894
:10FFD000914206D0EB58002B03D00422E3681A604C
:10FFE0005DE0A86B002822D063680022D9000623B8
:10FFF00004301943F9F786FB021E18D0237C002B2E
:020000040001F9
:1000000004D04268E368216800200DE020680028E1
:1000100007D0234BE968994203D0224B9D4200D080
:1000200000692900E3685268F7F7D4FF37E02368D6
:10003000002B03D16E6B002E14D130E0227C002AFD
:10004000F8D1174AE9689142F4D0164A9542F1D0A6
:100050001869E2686168F7F7FFFFE3681B68002B27
:10006000E8D01CE075680836002D18D000276B1EFC
:100070000C4A9F420DD2BB00F158914201D1013789
:10008000F5E72000FFF79CFFE3681B68002BF6D024
:1000900005E0054BED18AD00AD59954293D1F8BD83
:1000A0006103010020180300FFFFFF3FF0B5146853
:1000B00089B01700002C1ED143685E6B002E1AD049
:1000C000736803AD01938368083603936960AC607D
:1000D000EA602C74019B9C4209D0A300F1582800CF
:1000E000FFF76EFF3B68002B05D10134F2E70349AF
:1000F0002800FFF765FF09B0F0BDC04620180300D7
:1001000010B54A68014915F096FC10BD3CD60300B5
:1001100070B58AB004000E00150000210822684660
:1001200012F018FE1422002105A812F013FE20235D
:1001300007936B46059408931C23002D02D0042DD1
:1001400007D11A23216805A80693FFF739FF02217A
:1001500006E01B23216805A80693FFF731FF032162
:100160000098042805D12A0031002069F4F758FED0
:100170000DE000280BD002AB0022029403960495F8
:10018000F7F7ECFE03000348042D00D118000AB075
:1001900070BDC04688250300F0B5204B89B08200B1
:1001A000D4580D0008220021070001A812F0D2FD4A
:1001B000142303AEB36001ABF36000232968300061
:1001C000746003953374FFF7FBFE019C042C05D18A
:1001D00029693800F7F758FE04001CE0002C0CD009
:1001E0002000290018F008F80400022F13D1F4F7BA
:1001F000B9FC0124400004430DE0022F0BD126235B
:10020000296830007360FFF7DBFE019B002B02D1F1
:1002100001246D002C43200009B0F0BD202A03000A
:10022000F0B51600724272418BB01F320C00019281
:1002300000210822070003A812F08CFD019B05ADE8
:1002400006930823079303AB089300232168280033
:100250002B740594FFF7B4FE039B002B08D1002EEE
:1002600006D11F33216828006B60AE60FFF7A8FE3F
:100270000398042816D12069F4F75EFB144BC2687A
:100280009A420CD1002E07D02368586818F030F835
:100290000100380015F0FEFA8022324300E03200FF
:1002A000216906E0002808D0210017F0A5FF0022F0
:1002B00001003800F4F75AFB08E0200017F011FCA9
:1002C000230002000349380015F0B5FB0BB0F0BD68
:1002D000A53C000049D6030070B504000D000B4991
:1002E00015F0D8FA696800222000F4F73FFB0849AE
:1002F000200015F0CFFAA96800222000F4F736FBA1
:100300000449200015F0C6FA70BDC0465BD6030054
:10031000595D03002DAE0300F7B500254368083092
:100320000F0006002C000193019BAB4212D0AB00E2
:10033000F358094A93420BD0084AD968914202D037
:100340003B60013404E03900586BFFF7E5FF2418E7
:100350000135E9E72000FEBD20180300610301001C
:10036000F0B58FB005000F00406B05A90192029314
:10037000FFF7D2FF061DB600300017F059F9040050
:10038000002120C018F080F832002000103A103010
:10039000002112F0DFFC012F05D1029B1B680393A3
:1003A000042B00D186E007AE08220021300012F0B5
:1003B000D1FC0922002309A842602900033282608F
:1003C000C66003740993FFF7FBFD0798042807D163
:1003D0000598029BC668019A3900B047206123E066
:1003E000002821D0019A3A4306D106AB0121069597
:1003F000F7F7B4FD040017E0019B5C00E419013439
:10040000A400200017F014F9221F0390029920C0C5
:1004100012F016FC791C039B019A3068F7F79EFDD9
:100420000400039817F02BF92000F4F785FA8542B1
:1004300040D100230822290009A8089307930B93B1
:1004400009940A92FFF7BCFD079B002B32D001985C
:10045000384305D107AA010017F0D6FE05001CE0BD
:10046000019B5D00ED190235AD00280017F0E0F8A2
:100470002A000600079B083A03600393089B029931
:100480004360083012F0DCFB32000199380017F0AD
:10049000BBFE0500300017F0F2F8084B9D4209D072
:1004A000280017F01EFB064902000648F3F786FCF9
:1004B000EFF7B1FE20000FB0F0BDC0468825030065
:1004C00064D60300E0F3020010B5C468002C06D126
:1004D000426804490448F3F771FCEFF79CFEA0471B
:1004E00010BDC0468CD60300E0F30200F8B504004E
:1004F0000D0016001F0019F02CFB002809D1200068
:1005000017F0EFFA0B4902000B48F3F757FCEFF72F
:1005100082FE042804D13B0032002900206905E056
:100520002100FBF7A7FF3B0032002900F7F716FD7B
:10053000F8BDC046C08E0300E0F30200F0B5154BD5
:1005400089B016008200D5580C000C22002107004B
:10055000684612F0FFFB182303A84560836000255E
:100560006B462168C36005740394FFF729FD00986A
:10057000042805D1320021693800F7F77BFE07E037
:10058000002805D06A4629000120029617F03CFE9B
:1005900009B0F0BDD8280300F0B50D0085B001A961
:1005A00007001600280002AA17F0CBFC00230199CF
:1005B00002988B420CD09A008258D468002C05D146
:1005C000526823492348F3F7F9FB26E00133F0E7AB
:1005D0003C2017F03FF8204B040003601F4B47609E
:1005E00083601F4B4563C3601E4B866303611E4BD4
:1005F00003A943611D4B83611D4BC3611D4B036206
:100600001D4B43621D4BC3622800FFF785FE012886
:1006100005D91B490F4817F0E0F8EFF7FCFDA36B75
:100620000022181D4E21F9F76DF8051E0DD003228A
:1006300043681A4009D11B685B68F22B05D1031D82
:100640000121104819F0E0FA6860200005B0F0BD03
:10065000A9D60300E0F302009C2803002102010058
:1006600061030100ED040100990101003D05010055
:100670007D9B020011010100D39C0200899C0200B5
:10068000D2D60300D829030037B50D001C00002383
:1006900011000093012203332800F3F71FFF012DFF
:1006A00009D0032D0BD12068FDF7A2F8A26861687C
:1006B000FFF772FF09E02068F4F73EF905E003490F
:1006C000034817F08AF8EFF7A6FD3EBD00D70300F8
:1006D000E0F3020070B505000C200C0016F0A8FF36
:1006E000024B45600360846070BDC0466029030012
:1006F000F8B50F00B8421ED0032505401DD1134B9D
:1007000002689A421BD1466B002E1AD074680836D4
:10071000002C18D0631E9D4208D2AB003900F0585F
:10072000FFF7E6FF00280FD10135F3E7084BE41887
:10073000A400A059DEE7012006E0002004E0280024
:1007400002E0300000E02000F8BDC0469C28030015
:10075000FFFFFF3FF0B585B00500019108008B0752
:1007600013D10B68154A934204D10123029301ABC4
:10077000039306E0124A934207D103AA02A917F095
:10078000E0FB029E039F002410E00E490E4817F084
:1007900024F8EFF740FDA300F9580C4B994209D01B
:1007A0002800FFF7A5FF002804D10134B442F2D19C
:1007B000074800E0074805B0F0BDC0469C2803008C
:1007C000DC0503001CD70300E0F30200201803003F
:1007D0008C2A0300482A030010B5830703D1064B77
:1007E00002689A4205D00549054816F0F6FFEFF772
:1007F00012FDFFF7AFFF10BD9C28030055D7030083
:10080000E0F3020010B50B790349002B00D1034936
:1008100015F040F810BDC0467E95030076950300A4
:1008200037B50C00110000221D00009201232000AA
:10083000F3F754FE054B002C06D02868F4F7A6FA0F
:10084000034B002800D1014B18003EBD8C2A030049
:10085000482A0300314BF7B5B43303219C462F4A95
:100860002F48FC32536C834257D9043B53641A68B7
:100870002A4B501CAC331E6805008308F35C0D4006
:100880006D002B41841A0B400130022BF4D06346DB
:100890001B6812019B18240100932048A3080193B0
:1008A000019B002BDBD0009B1C680F231C422DD129
:1008B0001C4B1B689C4229D30500B8352D68AC42FF
:1008C00024D20F220500E41AE31713401B19AC359C
:1008D0001B112D689C082D192E781F0034000F4025
:1008E0007F003C410C40012C10D10A00BA40164355
:1008F0002E700600FC36756C0B4FBD4203D22C1DCA
:1009000074642B6002E00300BC331C60019B013B5C
:100910000193009B04330093C2E7F7BDA4080020B5
:100920006409002058090020E40900200F2399439E
:1009300070B506000D00081A412109F003FC104CA7
:1009400002002300B033186023002100AC331E6086
:100950008301EB1AB4310B6023003000B83300215F
:100960001D6012F0F7F922000023FC32D364A222AA
:100970005200A352443A4733FF3AFF33E25270BD6C
:10098000A4080020A222034952008B5A01338B5243
:100990007047C046A4080020A222034952008B5A87
:1009A000013B8B527047C046A4080020A223034A93
:1009B0005B00D05A431E9841C0B27047A408002083
:1009C000F0B50024032585B002900391039B9C425F
:1009D0003DD0029AA300D3580F22134233D11D4AAF
:1009E0001100B43109688B422DD31000B830006873
:1009F000834228D20F20591ACB17034010005B18EE
:100A0000AC301B11006899084018190029404900B2
:100A10008C46077866463900314129400191012909
:100A200011D161462E008E40374307701700FC3706
:100A3000786C0949884203D2021D7A64036002E09F
:100A4000019BBC321360FFF705FF0134BEE705B020
:100A5000F0BDC046A4080020E409002010B5FFF74F
:100A600091FF064800220300BC331A600300044AC9
:100A7000FC3328215A64FFF7A3FF10BDA40800200F
:100A800064090020F8B503262C4C00252200BC3256
:100A90001368AB4220D023001560294AFC335A6406
:100AA0002300B0331B689B009D42EDD22200AC3284
:100AB0001268AB08D35C2A00324052001341334025
:100AC000032B07D12200FC32536C191D51641D60A9
:100AD000FFF7C0FE0135E3E702221E00032794461C
:100AE0002200B03212689200934221D22200AC322E
:100AF00012689908521811781D0008003D406D00D9
:100B000028413840022805D003280AD001280DD1F9
:100B1000060001E0002E09D00320A8408143117097
:100B200004E06046A8400026814311700133D7E7F6
:100B30000023FC34E364FFF72FFFF8BDA408002076
:100B400064090020264AF0B513001100B833B4310F
:100B500009681B6803265B1A110003600023B0318B
:100B60000C681900AC32156843608360C360036190
:100B70004361A400A1422CD00F008A08AA5C374030
:100B80007F003A413240012A12D8012B03D1C768B5
:100B90000137C76004E0022B02D107690137076102
:100BA0004769BB4200D94361012A0CD0002A06D014
:100BB000022A0CD1426801330132426007E08368A7
:100BC0000133836002E04368013343601300013165
:100BD000D0E743681B01436083681B018360F0BD5D
:100BE000A4080020F7B5A222424B52009D5A0F30B4
:100BF00004091F00002D01D000207AE0002CFBD05A
:100C0000A3235B00F95A4A424A4101923A00B032AA
:100C100012683B0094463A003026FC33AC32DB6C61
:100C20001068634528D20321C25C0A4204D1013511
:100C3000A54202D39B0027E000250C210A4205D1E2
:100C40000135A54203D39B0001331DE0002532424C
:100C500005D10135A54203D39B00023314E00025E2
:100C60003F218A4305D10135A54203D39B000333BD
:100C70000AE000250133D4E7019B002BBCD1F9F732
:100C8000D7FF01230193C1E7591B4C1C012D04D14F
:100C90003D005A1CFC359208EA64A2088018260020
:100CA0000322012516407600B5400678023135430F
:100CB0003E000570AC3601928B420DD30D003268B8
:100CC00088081018019A0131154002226D00AA40CF
:100CD000057815430570EFE73A00B4321568210135
:100CE00001336D181A1B12010021280012F032F88E
:100CF0002800FEBDA4080020A22330B5214A5B00D5
:100D0000D35A002B3CD10F21084239D11300B43300
:100D10001B68984234D31400B8342468A0422FD200
:100D2000C31AD8170840C0181300AC3300111B6851
:100D300081085C5C050003231D406D002C412340AD
:100D4000012B1DD11300FC33DC6CA14200D2D9640D
:100D50000321AC3214688308E31804000D000C4032
:100D60006400A5401C780130AC431C7014688308F3
:100D7000E35C04000C40640023410B40022BE9D0EB
:100D800030BDC046A408002070B50F2402002040EA
:100D900029D116490B00B4331B689A4224D30D00A5
:100DA000B8352D68AA421FD2D21AD31723409A18F9
:100DB000AC3113110D689A08A95C1C000322144081
:100DC00064002141114001290ED15C1C2600A108BC
:100DD000695C164076003141E01A11400134022965
:100DE000F4D0000100E0002070BDC046A40800203F
:100DF000A223F0B50600002085B05E4F02925B0092
:100E00000D00F95A814200D0B2E0864204D131008F
:100E10002800FFF7E7FEABE0002D00D1A4E00F2291
:100E200033000800134000D0A2E03900B4310C6850
:100E30001800A64200D29BE03900B83109688E4202
:100E400000D395E0311BC8170240521812110092CE
:100E50003A00AC32126800980192009A0199920807
:100E60008A5C0321014049000A41032118000A401D
:100E7000012A7DD129000F310909B0378C461400B1
:100E8000396803278900039100990131039A91423F
:100E900013D201988A08825C080038404000024161
:100EA0003A40022A01D1013405E0002A05D101337C
:100EB000E218944501D90131E8E7644545D022D9CB
:100EC000009BAC226344190094460800009BA93A99
:100ED0001B190093274B9C4465462D6884082C19E8
:100EE0000500170015406D00AF4025780130BD4367
:100EF0002570009CA042EFD1FC33DA6C8908914246
:100F000023D2D96421E01B199C4520D80325009BDE
:100F10001849E318AC31009A624493420CD2086835
:100F20009A0882181800022728404000874010784D
:100F3000013338431070EEE76346191B09012201A3
:100F4000B0180A00002111F005FF300010E00298EF
:100F500000280DD028000021FFF744FE051E07D011
:100F60002201310011F06CFE3000FFF7C5FE2800B1
:100F700005B0F0BDA408002010B58AB004A8FFF7A2
:100F8000E1FD069B094C03930093049A059B0849D5
:100F9000200014F050FD099B079A03930093054924
:100FA000089B200014F047FD0AB010BD50E6020077
:100FB00078D703009BD70300F8B53E4D3E4E2B007B
:100FC000B4331A683D49300014F035FD00242B007D
:100FD000B0331B689B009C4223D23F22144230D185
:100FE0002A002700AC3210680321BA08825C39401D
:100FF00049000A4103210A4202D10137BB42F3D81A
:101000003A1B7F2A12D992092D49300014F013FDA2
:101010003C003F239C432B00B0331B689B009C4249
:1010200004D33000274914F035FCF8BD2A00B4324F
:1010300012682301D2181203120B2349300014F056
:10104000FAFC2A00AC321268A308D35C03222240C7
:1010500052001341032213407132022B23D0073A6E
:10106000032B20D02E22012B1DD12B00B4331B6863
:101070002201D358154954228B4214D01449083AFE
:101080008B4210D01349083A8B420CD012490232DD
:101090008B4208D01149043A8B4204D010490B32DC
:1010A0008B4200D01B320F49300014F0C4FC0134D5
:1010B0008DE7C046A408002050E60200CFD7030009
:1010C000EAD7030007AD030006D80300DC050300E0
:1010D00000E90200C8180300E01203003416030000
:1010E0001C140300FB840300F8B50E000500140077
:1010F000F3F7E8FE330003272B433B420BD1BC42FE
:1011000009D9A2083100280008F02CFE2300BB43B7
:10111000ED18F6183C40002C04D0220031002800C5
:101120001CF0D6FE80220449D2008B58002BFCD044
:10113000F3F7B8FEF8BDC04600E001400022104BB6
:1011400010491A6003001233FF3341185A701A70A5
:1011500004338B42FAD10100030000220931083325
:10116000FF311A709A705A70DA7004338B42F8D1DA
:10117000C3237F229B00C254034A044B1A6070476A
:101180007401002011030000F4BD030010000020D2
:101190000023F7B507001C00A200BA18FF32517CEB
:1011A0007F2952D0927C651C9B18DBB2EF2B2AD989
:1011B000EBB20193C1239B00FE187D233500009301
:1011C000009B019A934209DB281D2900042211F09B
:1011D00037FD009B043D013B0093F1E700239500A0
:1011E0007D19FF356B74AB74EB742B757D25023460
:1011F000E4B2A5421DDB301D3100042211F020FDB8
:10120000013D043EF5E77D291CD8104A525C0121BE
:101210000A4217D0C1237D269B00ECB2FD18A642DE
:1012200007DB281D2900042211F00AFD013E043DC0
:10123000F5E77E23A200BA18FF325374002393749B
:10124000D37413750134E4B2A6E7F7BD51D9030096
:1012500070B5012240240F49531EDBB29B00C31816
:10126000FF335D7C7F2D14D04D5D254202D10132CC
:10127000D2B2F1E75D7D7F2DF9D04D5D7F2DF6D99E
:10128000DD7D002DF3D06EB2002EF0DB0135DD7474
:10129000EDE770BDB0D803000300F7B500214B4A5D
:1012A0001333FF338218197004339A42FBD1FC23A5
:1012B00000249C462200844453B2002B01DA444AA5
:1012C00078E063461F69BC4205D37F234432920015
:1012D0001354012078E06346DE68355D602D01D946
:1012E000203DEDB2611CC9B28F4220D0735C602BEF
:1012F00001D9203BDBB2232D1CD1303B092B01D976
:10130000344A57E00234E1B28F4204D8FF2BF7D8B9
:1013100043700C00D0E7745C2500303D092DF5D8F2
:101320000A256B430131303BE318C9B2ECE7232DAA
:10133000E6D000230026F7B20197274FF75DAF42B2
:1013400012D1264FF75D2A2F0ED09F420CD169464D
:1013500093000979C318FF3359744178013202347C
:101360001975D2B2E1B2D4E70136512EE3D1002390
:101370001A4C1F5DDEB22A2F0CD1174FFF5CAF4213
:1013800008D19300C318FF335E74447801321C7592
:10139000D2B2BEE70133512BEBD1114C493BE65C95
:1013A000AE4204D0002B04D0013BDBB2F7E7002BA8
:1013B00004D10C4A0C4B00201A6005E014004334A1
:1013C000A4000419A370A4E7FEBDC04612030000E8
:1013D0009FD90300B1D903000ED803005FD80300E2
:1013E0007EDA0300BFD903001000002010B51130D1
:1013F000084A0949FF3003787F2B09D0022404579B
:10140000002C01DCCB5C00E0D35C43700430F2E7DD
:1014100010BDC04601D903002EDA0300F0B5002448
:1014200089B00090009AA300D3180293FF335D7C2B
:101430007F2D00D1CAE0022065494A5D024201D1F8
:101440000134C1E0012002424CD12218D2B20392F1
:101450002A18D2B204925F4A7D2752195278059217
:10146000DA7C1B7D0692C122920094460793009B72
:1014700063441E000193039B9F4207DB301D310034
:10148000042211F0DDFB013F043EF4E7009A9B00CB
:10149000D3186A46127CFF335A746A46127DA61C22
:1014A0009A746A46127EF6B2DA746A46127F1A7528
:1014B000AB1CDBB20393474B5D19AB787D250493DE
:1014C000029BFF33DA7C1F7D0292B5426DDB019BEC
:1014D0000422181D190011F0B3FB019B013D043BD0
:1014E0000193F2E722000132D2B213000098443394
:1014F0009B001B5C002BF6D0621C7F2B07D0C95CC5
:10150000090702D4243B012B01D8D4B28AE7D3B215
:1015100003936B1CDBB204932E4B7D275B195B7826
:101520000593029BFF33DA7C1B7D0692C122920059
:1015300094460793009B63441E000193039B9F42C4
:1015400007DB301D3100042211F07AFB013F043E1D
:10155000F4E7009A9B00D3186A46127CFF335A7452
:101560006A46127DA61C9A746A46127EF6B2DA7436
:101570006A46127F1A75AB1CDBB20393154B5D19DB
:10158000AB787D250493029BFF33DA7C1F7D0292AA
:10159000B5420ADB019B0422181D190011F050FB13
:1015A000019B013D043B0193F2E7009BB6009E19AD
:1015B0006B461B7BFF3673746B461B7C0334B37422
:1015C0006B461B7A3775F374E4B22BE709B0F0BDB4
:1015D000B0D803002EDA0300F0B5002687B00190E2
:1015E000019AB300D3180293FF335A7C002A00D12A
:1015F00030E17F2A00D15BE11020AE49741C895C88
:10160000014227D0DA7C7D250492C1221B7D890608
:10161000C90F0593019B14319200E7B203919C1806
:10162000BD4207DB201D2100042211F009FB013D12
:10163000043CF5E7019BBF00DF196B461B7BFF37BE
:101640007B740023BB746B461B7CFB746B461B7D59
:101650003B75B1E04E2A01D1182602E04F2A23D172
:101660001B26DA7C7D2702920D225A74C1221B7D33
:1016700092000393019BE4B29D18A74207DB281D4B
:101680002900042211F0DCFA013F043DF5E7019A3C
:10169000A300D3180022FF339A746A46127A5E744C
:1016A000DA746A46127BB4E0502A01D11C26D8E7CE
:1016B0007F20814334D0D97C002931D0E4B221008D
:1016C000019844318900095C002929D1B11CC9B2B3
:1016D0000391890041180D00FF35687C7F281FD0D9
:1016E000744F385C7F27B8431AD0E97C002917D0A3
:1016F000C122019B92009E18023F039BBB4207DC64
:10170000301D3100042211F09BFA013F043EF4E742
:101710001F236B740023AB74EB742B7526005FE7FB
:10172000741C172A13D1597B721ED2B2452901D1DC
:101730001B3902E0392902D10D3959738EE05D4A17
:10174000525C7F218A4300D1B0E01222ADE0182A1A
:1017500007D15A7B57498A5C7F2A00D8A6E013221A
:10176000A3E0202A05D15A7B3C2A00D09EE0262205
:101770009BE0482A09D15A7D7F2A03D04D498A5CD3
:1017800092060FD44B225A740CE03C2A0AD15A7D9F
:101790007F2A00D18AE047498A5C920600D585E01D
:1017A0003F2282E05A7C4349895CC90704D5597BB2
:1017B00020294BD10C3A78E0029B741CFF335A7CF1
:1017C000352A06D15A7B3C498A5C52076ED51022D5
:1017D0006BE02A2A1FD1C1227D26DF7C1B7D92006F
:1017E0000293019BE4B29D18A64207DB281D290045
:1017F000042211F025FA013E043DF5E7019AA30009
:10180000D3182B22FF335A7400229A746A46DF746D
:10181000127A1A7582E72C2A18D1C1227D26DF7C24
:101820001B7D92000293019BE4B29D18A64207DB48
:10183000281D2900042211F003FA013E043DF5E7BA
:10184000019AA300D318FF332D22DCE7452A04D0E8
:10185000392A02D00136F4B260E732001100019853
:1018600043318900134B095C741C595C7F291DD9D5
:1018700001320199D2B292008A18FF32517C0029BC
:1018800009D05B5C7F2B11D9D37C002B0ED1029B3E
:101890001E22FF3309E0527D7F2A07D09B5C7F2206
:1018A000934303D0029B613AFF335A74E4B235E7A5
:1018B00007B0F0BDB0D8030051D90300F7B500223E
:1018C0000427634E00901300009944339B005B5C37
:1018D0007F2B0DD00121F35C0B4202D10132D2B239
:1018E000F1E713005B4C013BDBB2002B03D100E0BE
:1018F0000023022640E01900009844318900095C69
:101900007F2902D0615C7F29EDD952498C4600982D
:1019100099004118FF314C7C7F2C0CD02020355D84
:10192000054203D06046045D3C4204D08C7C6508CF
:10193000013464198C740133DBB29342E7D1CDE7F3
:10194000444F7F207C5C250085433CD0591C009887
:10195000C9B28C0004194120FF34657C019484468F
:101960007F2D01D0785D84464024785D204217D1D8
:10197000123D012D08D90B0000999A008A18FF32F8
:10198000517C7F29DCD161E00233DBB24433009823
:101990009B001B5CFB5C2342EDD0937C013B08E089
:1019A00063465B0707D46346DB07E4D5937CDC081A
:1019B0001B1B9374DFE7019B9B7B5A1C9B08D3186E
:1019C000019A9373D7E70820214D695C014210D03A
:1019D0000133009AD9B28B00D318FF335A7C7F2A87
:1019E000C9D0BA5C3242C6D006229A74013A9A73C0
:1019F000C1E734421DD01C000134E4B2210000983C
:101A000044318900095C0029F6D001337F291BD0BD
:101A1000104D695C314217D00099A4000C19FF34B5
:101A2000A17C49080131A174917C4908013191746C
:101A30000AE01020014206D0517B795C314202D08D
:101A4000917C023991740133D9B294E7F7BDC04655
:101A500051D90300B0D8030070B50400FFF76EFB46
:101A60002000FFF719FC23000022FC330100DA609C
:101A70001A61904244D02600224D11362B68FF3661
:101A8000934203D031002048F7F796FD2000FFF77E
:101A9000A3FD2000FFF7DCFB2000FFF7A7FC2000E0
:101AA000FFF70CFF2000FFF7B9FCC42233009200BF
:101AB000A1181A78502A06D97F2A07D0134A144B46
:101AC00000211A601CE004338B42F2D12B68002BFA
:101AD00002D0104812F07AF82000FFF759FB2B686B
:101AE000002B03D031000C48F7F766FD200018F0FA
:101AF00083F9074B0949186812F0C4FB4142414180
:101B0000080070BD34010020D6D90300E5D90300D8
:101B1000100000200BDA03001BDA0300F4BD030001
:101B2000F0B50F00496887B005001600002901D004
:101B3000002A04D13900280018F0ADFA59E00F321C
:101B40001309C918019318F016FA0F22A968B8688A
:101B50007B68324000D11032019CE618264C3419C3
:101B600064000919039124491024591849004118A7
:101B700003988C46029019000020A41A05940029AD
:101B800012D064462488013920430400049005984B
:101B9000C44002980480029C0498023C02940224EF
:101BA00064420004A444EAE7039C5B00E31A1024A7
:101BB000A21AD040019A18800F4854001C1B84467A
:101BC0001300023463445A00200011F0C3F8002EC1
:101BD00006D07300023BE35A002B01D1013EF6E729
:101BE00001216E603B780B401A002B788B43134326
:101BF0002B7007B0F0BDC046FFFFFF7FF0B54B680C
